{
  "_format": "hh-sol-artifact-1",
  "contractName": "NFTBlackList",
  "sourceName": "contracts/NFTBlackList.sol",
  "abi": [
    {
      "anonymous": false,
      "inputs": [
        {
          "indexed": true,
          "internalType": "address",
          "name": "previousOwner",
          "type": "address"
        },
        {
          "indexed": true,
          "internalType": "address",
          "name": "newOwner",
          "type": "address"
        }
      ],
      "name": "OwnershipTransferred",
      "type": "event"
    },
    {
      "anonymous": false,
      "inputs": [
        {
          "indexed": false,
          "internalType": "address",
          "name": "token_address",
          "type": "address"
        },
        {
          "indexed": false,
          "internalType": "uint256",
          "name": "token_id",
          "type": "uint256"
        },
        {
          "indexed": false,
          "internalType": "bool",
          "name": "in_blacklist",
          "type": "bool"
        }
      ],
      "name": "UpdateBlackList",
      "type": "event"
    },
    {
      "inputs": [
        {
          "internalType": "address",
          "name": "tokenAddress",
          "type": "address"
        },
        {
          "internalType": "uint256",
          "name": "tokenId",
          "type": "uint256"
        }
      ],
      "name": "addBlackList",
      "outputs": [],
      "stateMutability": "nonpayable",
      "type": "function"
    },
    {
      "inputs": [
        {
          "internalType": "address",
          "name": "tokenAddress",
          "type": "address"
        },
        {
          "internalType": "uint256",
          "name": "tokenId",
          "type": "uint256"
        }
      ],
      "name": "checkBlackList",
      "outputs": [
        {
          "internalType": "bool",
          "name": "",
          "type": "bool"
        }
      ],
      "stateMutability": "view",
      "type": "function"
    },
    {
      "inputs": [],
      "name": "owner",
      "outputs": [
        {
          "internalType": "address",
          "name": "",
          "type": "address"
        }
      ],
      "stateMutability": "view",
      "type": "function"
    },
    {
      "inputs": [
        {
          "internalType": "address",
          "name": "tokenAddress",
          "type": "address"
        },
        {
          "internalType": "uint256",
          "name": "tokenId",
          "type": "uint256"
        }
      ],
      "name": "removeBlackList",
      "outputs": [],
      "stateMutability": "nonpayable",
      "type": "function"
    },
    {
      "inputs": [],
      "name": "renounceOwnership",
      "outputs": [],
      "stateMutability": "nonpayable",
      "type": "function"
    },
    {
      "inputs": [
        {
          "internalType": "address",
          "name": "newOwner",
          "type": "address"
        }
      ],
      "name": "transferOwnership",
      "outputs": [],
      "stateMutability": "nonpayable",
      "type": "function"
    }
  ],
  "bytecode": "0x608060405234801561001057600080fd5b5061002d61002261003260201b60201c565b61003a60201b60201c565b6100fe565b600033905090565b60008060009054906101000a900473ffffffffffffffffffffffffffffffffffffffff169050816000806101000a81548173ffffffffffffffffffffffffffffffffffffffff021916908373ffffffffffffffffffffffffffffffffffffffff1602179055508173ffffffffffffffffffffffffffffffffffffffff168173ffffffffffffffffffffffffffffffffffffffff167f8be0079c531659141344cd1fd0a4f28419497f9722a3daafe3b4186f6b6457e060405160405180910390a35050565b610a3c8061010d6000396000f3fe608060405234801561001057600080fd5b50600436106100625760003560e01c806324ef09ec1461006757806331ae192714610083578063715018a61461009f5780638da5cb5b146100a9578063c1db0dce146100c7578063f2fde38b146100f7575b600080fd5b610081600480360381019061007c91906106c0565b610113565b005b61009d600480360381019061009891906106c0565b610267565b005b6100a76103b5565b005b6100b16103c9565b6040516100be919061070f565b60405180910390f35b6100e160048036038101906100dc91906106c0565b6103f2565b6040516100ee9190610745565b60405180910390f35b610111600480360381019061010c9190610760565b61045a565b005b61011b6104dd565b60001515600160008473ffffffffffffffffffffffffffffffffffffffff1673ffffffffffffffffffffffffffffffffffffffff168152602001908152602001600020600083815260200190815260200160002060009054906101000a900460ff161515146101bf576040517f08c379a00000000000000000000000000000000000000000000000000000000081526004016101b690610810565b60405180910390fd5b60018060008473ffffffffffffffffffffffffffffffffffffffff1673ffffffffffffffffffffffffffffffffffffffff168152602001908152602001600020600083815260200190815260200160002060006101000a81548160ff0219169083151502179055507f87bc519a489deadc443d0a1198c204096dba7c1e6069d7cc29a2c22ab8af7dc98282600160405161025b9392919061083f565b60405180910390a15050565b61026f6104dd565b600160008373ffffffffffffffffffffffffffffffffffffffff1673ffffffffffffffffffffffffffffffffffffffff168152602001908152602001600020600082815260200190815260200160002060009054906101000a900460ff1661030c576040517f08c379a0000000000000000000000000000000000000000000000000000000008152600401610303906108e8565b60405180910390fd5b6000600160008473ffffffffffffffffffffffffffffffffffffffff1673ffffffffffffffffffffffffffffffffffffffff168152602001908152602001600020600083815260200190815260200160002060006101000a81548160ff0219169083151502179055507f87bc519a489deadc443d0a1198c204096dba7c1e6069d7cc29a2c22ab8af7dc9828260006040516103a99392919061083f565b60405180910390a15050565b6103bd6104dd565b6103c7600061055b565b565b60008060009054906101000a900473ffffffffffffffffffffffffffffffffffffffff16905090565b6000600160008473ffffffffffffffffffffffffffffffffffffffff1673ffffffffffffffffffffffffffffffffffffffff168152602001908152602001600020600083815260200190815260200160002060009054906101000a900460ff16905092915050565b6104626104dd565b600073ffffffffffffffffffffffffffffffffffffffff168173ffffffffffffffffffffffffffffffffffffffff16036104d1576040517f08c379a00000000000000000000000000000000000000000000000000000000081526004016104c89061097a565b60405180910390fd5b6104da8161055b565b50565b6104e561061f565b73ffffffffffffffffffffffffffffffffffffffff166105036103c9565b73ffffffffffffffffffffffffffffffffffffffff1614610559576040517f08c379a0000000000000000000000000000000000000000000000000000000008152600401610550906109e6565b60405180910390fd5b565b60008060009054906101000a900473ffffffffffffffffffffffffffffffffffffffff169050816000806101000a81548173ffffffffffffffffffffffffffffffffffffffff021916908373ffffffffffffffffffffffffffffffffffffffff1602179055508173ffffffffffffffffffffffffffffffffffffffff168173ffffffffffffffffffffffffffffffffffffffff167f8be0079c531659141344cd1fd0a4f28419497f9722a3daafe3b4186f6b6457e060405160405180910390a35050565b600033905090565b600080fd5b600073ffffffffffffffffffffffffffffffffffffffff82169050919050565b60006106578261062c565b9050919050565b6106678161064c565b811461067257600080fd5b50565b6000813590506106848161065e565b92915050565b6000819050919050565b61069d8161068a565b81146106a857600080fd5b50565b6000813590506106ba81610694565b92915050565b600080604083850312156106d7576106d6610627565b5b60006106e585828601610675565b92505060206106f6858286016106ab565b9150509250929050565b6107098161064c565b82525050565b60006020820190506107246000830184610700565b92915050565b60008115159050919050565b61073f8161072a565b82525050565b600060208201905061075a6000830184610736565b92915050565b60006020828403121561077657610775610627565b5b600061078484828501610675565b91505092915050565b600082825260208201905092915050565b7f426c61636b4c6973743a20616c726561647920657869737420696e20626c616360008201527f6b6c697374000000000000000000000000000000000000000000000000000000602082015250565b60006107fa60258361078d565b91506108058261079e565b604082019050919050565b60006020820190508181036000830152610829816107ed565b9050919050565b6108398161068a565b82525050565b60006060820190506108546000830186610700565b6108616020830185610830565b61086e6040830184610736565b949350505050565b7f426c61636b4c6973743a206e6f7420657869737420696e20626c61636b6c697360008201527f7400000000000000000000000000000000000000000000000000000000000000602082015250565b60006108d260218361078d565b91506108dd82610876565b604082019050919050565b60006020820190508181036000830152610901816108c5565b9050919050565b7f4f776e61626c653a206e6577206f776e657220697320746865207a65726f206160008201527f6464726573730000000000000000000000000000000000000000000000000000602082015250565b600061096460268361078d565b915061096f82610908565b604082019050919050565b6000602082019050818103600083015261099381610957565b9050919050565b7f4f776e61626c653a2063616c6c6572206973206e6f7420746865206f776e6572600082015250565b60006109d060208361078d565b91506109db8261099a565b602082019050919050565b600060208201905081810360008301526109ff816109c3565b905091905056fea2646970667358221220583b7ae1e5d949e0fccb9f8ae47d410d2a14bc60352f18609f3bc47b7cf5f3b064736f6c63430008110033",
  "linkReferences": {},
  "deployedLinkReferences": {}
}