{
  "_format": "hh-sol-artifact-1",
  "contractName": "NichoNFT",
  "sourceName": "contracts/NichoNFT.sol",
  "abi": [
    {
      "inputs": [],
      "stateMutability": "nonpayable",
      "type": "constructor"
    },
    {
      "anonymous": false,
      "inputs": [
        {
          "indexed": true,
          "internalType": "address",
          "name": "owner",
          "type": "address"
        },
        {
          "indexed": true,
          "internalType": "address",
          "name": "approved",
          "type": "address"
        },
        {
          "indexed": true,
          "internalType": "uint256",
          "name": "tokenId",
          "type": "uint256"
        }
      ],
      "name": "Approval",
      "type": "event"
    },
    {
      "anonymous": false,
      "inputs": [
        {
          "indexed": true,
          "internalType": "address",
          "name": "owner",
          "type": "address"
        },
        {
          "indexed": true,
          "internalType": "address",
          "name": "operator",
          "type": "address"
        },
        {
          "indexed": false,
          "internalType": "bool",
          "name": "approved",
          "type": "bool"
        }
      ],
      "name": "ApprovalForAll",
      "type": "event"
    },
    {
      "anonymous": false,
      "inputs": [
        {
          "indexed": true,
          "internalType": "address",
          "name": "previousOwner",
          "type": "address"
        },
        {
          "indexed": true,
          "internalType": "address",
          "name": "newOwner",
          "type": "address"
        }
      ],
      "name": "OwnershipTransferred",
      "type": "event"
    },
    {
      "anonymous": false,
      "inputs": [
        {
          "indexed": true,
          "internalType": "address",
          "name": "from",
          "type": "address"
        },
        {
          "indexed": true,
          "internalType": "address",
          "name": "to",
          "type": "address"
        },
        {
          "indexed": true,
          "internalType": "uint256",
          "name": "tokenId",
          "type": "uint256"
        }
      ],
      "name": "Transfer",
      "type": "event"
    },
    {
      "inputs": [
        {
          "internalType": "address",
          "name": "to",
          "type": "address"
        },
        {
          "internalType": "uint256",
          "name": "tokenId",
          "type": "uint256"
        }
      ],
      "name": "approve",
      "outputs": [],
      "stateMutability": "nonpayable",
      "type": "function"
    },
    {
      "inputs": [
        {
          "internalType": "address",
          "name": "owner",
          "type": "address"
        }
      ],
      "name": "balanceOf",
      "outputs": [
        {
          "internalType": "uint256",
          "name": "",
          "type": "uint256"
        }
      ],
      "stateMutability": "view",
      "type": "function"
    },
    {
      "inputs": [
        {
          "internalType": "string[]",
          "name": "_tokenURI",
          "type": "string[]"
        },
        {
          "internalType": "address",
          "name": "_toAddress",
          "type": "address"
        },
        {
          "internalType": "uint256",
          "name": "_price",
          "type": "uint256"
        },
        {
          "internalType": "uint256",
          "name": "_amount",
          "type": "uint256"
        },
        {
          "internalType": "enum IHelper.PayType",
          "name": "_payType",
          "type": "uint8"
        }
      ],
      "name": "batchDNMint",
      "outputs": [],
      "stateMutability": "nonpayable",
      "type": "function"
    },
    {
      "inputs": [
        {
          "internalType": "string",
          "name": "_baseTokenURI",
          "type": "string"
        },
        {
          "internalType": "address",
          "name": "_toAddress",
          "type": "address"
        },
        {
          "internalType": "uint256",
          "name": "_price",
          "type": "uint256"
        },
        {
          "internalType": "uint256",
          "name": "_amount",
          "type": "uint256"
        },
        {
          "internalType": "enum IHelper.PayType",
          "name": "_payType",
          "type": "uint8"
        }
      ],
      "name": "batchIDMint",
      "outputs": [],
      "stateMutability": "nonpayable",
      "type": "function"
    },
    {
      "inputs": [
        {
          "internalType": "string",
          "name": "_tokenURI",
          "type": "string"
        },
        {
          "internalType": "address",
          "name": "_toAddress",
          "type": "address"
        },
        {
          "internalType": "uint256",
          "name": "_price",
          "type": "uint256"
        },
        {
          "internalType": "uint256",
          "name": "_amount",
          "type": "uint256"
        },
        {
          "internalType": "enum IHelper.PayType",
          "name": "_payType",
          "type": "uint8"
        }
      ],
      "name": "batchSNMint",
      "outputs": [],
      "stateMutability": "nonpayable",
      "type": "function"
    },
    {
      "inputs": [
        {
          "internalType": "uint256",
          "name": "tokenId",
          "type": "uint256"
        }
      ],
      "name": "getApproved",
      "outputs": [
        {
          "internalType": "address",
          "name": "",
          "type": "address"
        }
      ],
      "stateMutability": "view",
      "type": "function"
    },
    {
      "inputs": [
        {
          "internalType": "address",
          "name": "owner",
          "type": "address"
        },
        {
          "internalType": "address",
          "name": "operator",
          "type": "address"
        }
      ],
      "name": "isApprovedForAll",
      "outputs": [
        {
          "internalType": "bool",
          "name": "",
          "type": "bool"
        }
      ],
      "stateMutability": "view",
      "type": "function"
    },
    {
      "inputs": [
        {
          "internalType": "string",
          "name": "_tokenURI",
          "type": "string"
        },
        {
          "internalType": "address",
          "name": "_toAddress",
          "type": "address"
        },
        {
          "internalType": "uint256",
          "name": "price",
          "type": "uint256"
        },
        {
          "internalType": "enum IHelper.PayType",
          "name": "_payType",
          "type": "uint8"
        }
      ],
      "name": "mint",
      "outputs": [
        {
          "internalType": "uint256",
          "name": "",
          "type": "uint256"
        }
      ],
      "stateMutability": "nonpayable",
      "type": "function"
    },
    {
      "inputs": [],
      "name": "name",
      "outputs": [
        {
          "internalType": "string",
          "name": "",
          "type": "string"
        }
      ],
      "stateMutability": "view",
      "type": "function"
    },
    {
      "inputs": [],
      "name": "nichonftMarketplaceContract",
      "outputs": [
        {
          "internalType": "contract INichoNFTMarketplace",
          "name": "",
          "type": "address"
        }
      ],
      "stateMutability": "view",
      "type": "function"
    },
    {
      "inputs": [],
      "name": "owner",
      "outputs": [
        {
          "internalType": "address",
          "name": "",
          "type": "address"
        }
      ],
      "stateMutability": "view",
      "type": "function"
    },
    {
      "inputs": [
        {
          "internalType": "uint256",
          "name": "tokenId",
          "type": "uint256"
        }
      ],
      "name": "ownerOf",
      "outputs": [
        {
          "internalType": "address",
          "name": "",
          "type": "address"
        }
      ],
      "stateMutability": "view",
      "type": "function"
    },
    {
      "inputs": [],
      "name": "renounceOwnership",
      "outputs": [],
      "stateMutability": "nonpayable",
      "type": "function"
    },
    {
      "inputs": [
        {
          "internalType": "address",
          "name": "from",
          "type": "address"
        },
        {
          "internalType": "address",
          "name": "to",
          "type": "address"
        },
        {
          "internalType": "uint256",
          "name": "tokenId",
          "type": "uint256"
        }
      ],
      "name": "safeTransferFrom",
      "outputs": [],
      "stateMutability": "nonpayable",
      "type": "function"
    },
    {
      "inputs": [
        {
          "internalType": "address",
          "name": "from",
          "type": "address"
        },
        {
          "internalType": "address",
          "name": "to",
          "type": "address"
        },
        {
          "internalType": "uint256",
          "name": "tokenId",
          "type": "uint256"
        },
        {
          "internalType": "bytes",
          "name": "data",
          "type": "bytes"
        }
      ],
      "name": "safeTransferFrom",
      "outputs": [],
      "stateMutability": "nonpayable",
      "type": "function"
    },
    {
      "inputs": [
        {
          "internalType": "address",
          "name": "operator",
          "type": "address"
        },
        {
          "internalType": "bool",
          "name": "approved",
          "type": "bool"
        }
      ],
      "name": "setApprovalForAll",
      "outputs": [],
      "stateMutability": "nonpayable",
      "type": "function"
    },
    {
      "inputs": [
        {
          "internalType": "contract INichoNFTMarketplace",
          "name": "_nichonftMarketplace",
          "type": "address"
        }
      ],
      "name": "setMarketplaceContract",
      "outputs": [],
      "stateMutability": "nonpayable",
      "type": "function"
    },
    {
      "inputs": [
        {
          "internalType": "bytes4",
          "name": "interfaceId",
          "type": "bytes4"
        }
      ],
      "name": "supportsInterface",
      "outputs": [
        {
          "internalType": "bool",
          "name": "",
          "type": "bool"
        }
      ],
      "stateMutability": "view",
      "type": "function"
    },
    {
      "inputs": [],
      "name": "symbol",
      "outputs": [
        {
          "internalType": "string",
          "name": "",
          "type": "string"
        }
      ],
      "stateMutability": "view",
      "type": "function"
    },
    {
      "inputs": [
        {
          "internalType": "uint256",
          "name": "index",
          "type": "uint256"
        }
      ],
      "name": "tokenByIndex",
      "outputs": [
        {
          "internalType": "uint256",
          "name": "",
          "type": "uint256"
        }
      ],
      "stateMutability": "view",
      "type": "function"
    },
    {
      "inputs": [
        {
          "internalType": "address",
          "name": "owner",
          "type": "address"
        },
        {
          "internalType": "uint256",
          "name": "index",
          "type": "uint256"
        }
      ],
      "name": "tokenOfOwnerByIndex",
      "outputs": [
        {
          "internalType": "uint256",
          "name": "",
          "type": "uint256"
        }
      ],
      "stateMutability": "view",
      "type": "function"
    },
    {
      "inputs": [
        {
          "internalType": "uint256",
          "name": "tokenId",
          "type": "uint256"
        }
      ],
      "name": "tokenURI",
      "outputs": [
        {
          "internalType": "string",
          "name": "",
          "type": "string"
        }
      ],
      "stateMutability": "view",
      "type": "function"
    },
    {
      "inputs": [],
      "name": "totalSupply",
      "outputs": [
        {
          "internalType": "uint256",
          "name": "",
          "type": "uint256"
        }
      ],
      "stateMutability": "view",
      "type": "function"
    },
    {
      "inputs": [
        {
          "internalType": "address",
          "name": "from",
          "type": "address"
        },
        {
          "internalType": "address",
          "name": "to",
          "type": "address"
        },
        {
          "internalType": "uint256",
          "name": "tokenId",
          "type": "uint256"
        }
      ],
      "name": "transferFrom",
      "outputs": [],
      "stateMutability": "nonpayable",
      "type": "function"
    },
    {
      "inputs": [
        {
          "internalType": "address",
          "name": "newOwner",
          "type": "address"
        }
      ],
      "name": "transferOwnership",
      "outputs": [],
      "stateMutability": "nonpayable",
      "type": "function"
    }
  ],
  "bytecode": "0x60806040523480156200001157600080fd5b506040518060400160405280600881526020017f4e6963686f4e46540000000000000000000000000000000000000000000000008152506040518060400160405280600581526020017f4e4943484f00000000000000000000000000000000000000000000000000000081525081600090816200008f919062000412565b508060019081620000a1919062000412565b505050620000c4620000b8620000ca60201b60201c565b620000d260201b60201c565b620004f9565b600033905090565b6000600a60009054906101000a900473ffffffffffffffffffffffffffffffffffffffff16905081600a60006101000a81548173ffffffffffffffffffffffffffffffffffffffff021916908373ffffffffffffffffffffffffffffffffffffffff1602179055508173ffffffffffffffffffffffffffffffffffffffff168173ffffffffffffffffffffffffffffffffffffffff167f8be0079c531659141344cd1fd0a4f28419497f9722a3daafe3b4186f6b6457e060405160405180910390a35050565b600081519050919050565b7f4e487b7100000000000000000000000000000000000000000000000000000000600052604160045260246000fd5b7f4e487b7100000000000000000000000000000000000000000000000000000000600052602260045260246000fd5b600060028204905060018216806200021a57607f821691505b60208210810362000230576200022f620001d2565b5b50919050565b60008190508160005260206000209050919050565b60006020601f8301049050919050565b600082821b905092915050565b6000600883026200029a7fffffffffffffffffffffffffffffffffffffffffffffffffffffffffffffffff826200025b565b620002a686836200025b565b95508019841693508086168417925050509392505050565b6000819050919050565b6000819050919050565b6000620002f3620002ed620002e784620002be565b620002c8565b620002be565b9050919050565b6000819050919050565b6200030f83620002d2565b620003276200031e82620002fa565b84845462000268565b825550505050565b600090565b6200033e6200032f565b6200034b81848462000304565b505050565b5b8181101562000373576200036760008262000334565b60018101905062000351565b5050565b601f821115620003c2576200038c8162000236565b62000397846200024b565b81016020851015620003a7578190505b620003bf620003b6856200024b565b83018262000350565b50505b505050565b600082821c905092915050565b6000620003e760001984600802620003c7565b1980831691505092915050565b6000620004028383620003d4565b9150826002028217905092915050565b6200041d8262000198565b67ffffffffffffffff811115620004395762000438620001a3565b5b62000445825462000201565b6200045282828562000377565b600060209050601f8311600181146200048a576000841562000475578287015190505b620004818582620003f4565b865550620004f1565b601f1984166200049a8662000236565b60005b82811015620004c4578489015182556001820191506020850194506020810190506200049d565b86831015620004e45784890151620004e0601f891682620003d4565b8355505b6001600288020188555050505b505050505050565b61436180620005096000396000f3fe608060405234801561001057600080fd5b50600436106101735760003560e01c80636352211e116100de578063a22cb46511610097578063c87b56dd11610071578063c87b56dd14610448578063e985e9c514610478578063f2fde38b146104a8578063fd80f9d4146104c457610173565b8063a22cb465146103e0578063b88d4fde146103fc578063b8ca8ea21461041857610173565b80636352211e1461031c57806370a082311461034c578063715018a61461037c578063842236a4146103865780638da5cb5b146103a457806395d89b41146103c257610173565b8063179f757a11610130578063179f757a1461024a57806318160ddd1461026657806323b872dd146102845780632f745c59146102a057806342842e0e146102d05780634f6ccce7146102ec57610173565b806301ffc9a71461017857806306fdde03146101a8578063081812fc146101c6578063095ea7b3146101f65780630d875804146102125780631102610e1461022e575b600080fd5b610192600480360381019061018d91906126ef565b6104e0565b60405161019f9190612737565b60405180910390f35b6101b061055a565b6040516101bd91906127e2565b60405180910390f35b6101e060048036038101906101db919061283a565b6105ec565b6040516101ed91906128a8565b60405180910390f35b610210600480360381019061020b91906128ef565b610632565b005b61022c60048036038101906102279190612a89565b610749565b005b61024860048036038101906102439190612b5e565b6107bf565b005b610264600480360381019061025f9190612a89565b61089b565b005b61026e610920565b60405161027b9190612b9a565b60405180910390f35b61029e60048036038101906102999190612bb5565b61092d565b005b6102ba60048036038101906102b591906128ef565b61098d565b6040516102c79190612b9a565b60405180910390f35b6102ea60048036038101906102e59190612bb5565b610a32565b005b6103066004803603810190610301919061283a565b610a52565b6040516103139190612b9a565b60405180910390f35b6103366004803603810190610331919061283a565b610ac3565b60405161034391906128a8565b60405180910390f35b61036660048036038101906103619190612c08565b610b74565b6040516103739190612b9a565b60405180910390f35b610384610c2b565b005b61038e610c3f565b60405161039b9190612c94565b60405180910390f35b6103ac610c65565b6040516103b991906128a8565b60405180910390f35b6103ca610c8f565b6040516103d791906127e2565b60405180910390f35b6103fa60048036038101906103f59190612cdb565b610d21565b005b61041660048036038101906104119190612dbc565b610d37565b005b610432600480360381019061042d9190612e3f565b610d99565b60405161043f9190612b9a565b60405180910390f35b610462600480360381019061045d919061283a565b61102e565b60405161046f91906127e2565b60405180910390f35b610492600480360381019061048d9190612ec2565b61111b565b60405161049f9190612737565b60405180910390f35b6104c260048036038101906104bd9190612c08565b6111af565b005b6104de60048036038101906104d99190612f62565b611232565b005b60007f780e9d63000000000000000000000000000000000000000000000000000000007bffffffffffffffffffffffffffffffffffffffffffffffffffffffff1916827bffffffffffffffffffffffffffffffffffffffffffffffffffffffff19161480610553575061055282611355565b5b9050919050565b6060600080546105699061302b565b80601f01602080910402602001604051908101604052809291908181526020018280546105959061302b565b80156105e25780601f106105b7576101008083540402835291602001916105e2565b820191906000526020600020905b8154815290600101906020018083116105c557829003601f168201915b5050505050905090565b60006105f782611437565b6004600083815260200190815260200160002060009054906101000a900473ffffffffffffffffffffffffffffffffffffffff169050919050565b600061063d82610ac3565b90508073ffffffffffffffffffffffffffffffffffffffff168373ffffffffffffffffffffffffffffffffffffffff16036106ad576040517f08c379a00000000000000000000000000000000000000000000000000000000081526004016106a4906130ce565b60405180910390fd5b8073ffffffffffffffffffffffffffffffffffffffff166106cc611482565b73ffffffffffffffffffffffffffffffffffffffff1614806106fb57506106fa816106f5611482565b61111b565b5b61073a576040517f08c379a000000000000000000000000000000000000000000000000000000000815260040161073190613160565b60405180910390fd5b610744838361148a565b505050565b6000821161078c576040517f08c379a0000000000000000000000000000000000000000000000000000000008152600401610783906131cc565b60405180910390fd5b60005b828110156107b7576107a386868685610d99565b5080806107af9061321b565b91505061078f565b505050505050565b6107c7611543565b8073ffffffffffffffffffffffffffffffffffffffff16600b60009054906101000a900473ffffffffffffffffffffffffffffffffffffffff1673ffffffffffffffffffffffffffffffffffffffff1603610857576040517f08c379a000000000000000000000000000000000000000000000000000000000815260040161084e906132d5565b60405180910390fd5b80600b60006101000a81548173ffffffffffffffffffffffffffffffffffffffff021916908373ffffffffffffffffffffffffffffffffffffffff16021790555050565b600082116108de576040517f08c379a00000000000000000000000000000000000000000000000000000000081526004016108d5906131cc565b60405180910390fd5b60005b828110156109185760006108f587836115c1565b905061090381878786610d99565b505080806109109061321b565b9150506108e1565b505050505050565b6000600880549050905090565b61093e610938611482565b82611639565b61097d576040517f08c379a000000000000000000000000000000000000000000000000000000000815260040161097490613367565b60405180910390fd5b6109888383836116ce565b505050565b600061099883610b74565b82106109d9576040517f08c379a00000000000000000000000000000000000000000000000000000000081526004016109d0906133f9565b60405180910390fd5b600660008473ffffffffffffffffffffffffffffffffffffffff1673ffffffffffffffffffffffffffffffffffffffff168152602001908152602001600020600083815260200190815260200160002054905092915050565b610a4d83838360405180602001604052806000815250610d37565b505050565b6000610a5c610920565b8210610a9d576040517f08c379a0000000000000000000000000000000000000000000000000000000008152600401610a949061348b565b60405180910390fd5b60088281548110610ab157610ab06134ab565b5b90600052602060002001549050919050565b6000806002600084815260200190815260200160002060009054906101000a900473ffffffffffffffffffffffffffffffffffffffff169050600073ffffffffffffffffffffffffffffffffffffffff168173ffffffffffffffffffffffffffffffffffffffff1603610b6b576040517f08c379a0000000000000000000000000000000000000000000000000000000008152600401610b6290613526565b60405180910390fd5b80915050919050565b60008073ffffffffffffffffffffffffffffffffffffffff168273ffffffffffffffffffffffffffffffffffffffff1603610be4576040517f08c379a0000000000000000000000000000000000000000000000000000000008152600401610bdb906135b8565b60405180910390fd5b600360008373ffffffffffffffffffffffffffffffffffffffff1673ffffffffffffffffffffffffffffffffffffffff168152602001908152602001600020549050919050565b610c33611543565b610c3d6000611934565b565b600b60009054906101000a900473ffffffffffffffffffffffffffffffffffffffff1681565b6000600a60009054906101000a900473ffffffffffffffffffffffffffffffffffffffff16905090565b606060018054610c9e9061302b565b80601f0160208091040260200160405190810160405280929190818152602001828054610cca9061302b565b8015610d175780601f10610cec57610100808354040283529160200191610d17565b820191906000526020600020905b815481529060010190602001808311610cfa57829003601f168201915b5050505050905090565b610d33610d2c611482565b83836119fa565b5050565b610d48610d42611482565b83611639565b610d87576040517f08c379a0000000000000000000000000000000000000000000000000000000008152600401610d7e90613367565b60405180910390fd5b610d9384848484611b66565b50505050565b60008073ffffffffffffffffffffffffffffffffffffffff168473ffffffffffffffffffffffffffffffffffffffff1603610e09576040517f08c379a0000000000000000000000000000000000000000000000000000000008152600401610e0090613624565b60405180910390fd5b600073ffffffffffffffffffffffffffffffffffffffff16600b60009054906101000a900473ffffffffffffffffffffffffffffffffffffffff1673ffffffffffffffffffffffffffffffffffffffff1603610e9a576040517f08c379a0000000000000000000000000000000000000000000000000000000008152600401610e9190613690565b60405180910390fd5b60006002811115610eae57610ead6136b0565b5b826002811115610ec157610ec06136b0565b5b03610f01576040517f08c379a0000000000000000000000000000000000000000000000000000000008152600401610ef89061372b565b60405180910390fd5b6000610f0b610920565b9050610f178582611bc2565b610f218187611be0565b60001515610f58610f30611482565b600b60009054906101000a900473ffffffffffffffffffffffffffffffffffffffff1661111b565b151503610f8d57610f8c600b60009054906101000a900473ffffffffffffffffffffffffffffffffffffffff166001610d21565b5b600b60009054906101000a900473ffffffffffffffffffffffffffffffffffffffff1673ffffffffffffffffffffffffffffffffffffffff166301c58a1d30838787336040518663ffffffff1660e01b8152600401610ff0959493929190613793565b600060405180830381600087803b15801561100a57600080fd5b505af115801561101e573d6000803e3d6000fd5b5050505080915050949350505050565b606061103982611c4d565b611078576040517f08c379a000000000000000000000000000000000000000000000000000000000815260040161106f90613858565b60405180910390fd5b600c600083815260200190815260200160002080546110969061302b565b80601f01602080910402602001604051908101604052809291908181526020018280546110c29061302b565b801561110f5780601f106110e45761010080835404028352916020019161110f565b820191906000526020600020905b8154815290600101906020018083116110f257829003601f168201915b50505050509050919050565b6000600560008473ffffffffffffffffffffffffffffffffffffffff1673ffffffffffffffffffffffffffffffffffffffff16815260200190815260200160002060008373ffffffffffffffffffffffffffffffffffffffff1673ffffffffffffffffffffffffffffffffffffffff16815260200190815260200160002060009054906101000a900460ff16905092915050565b6111b7611543565b600073ffffffffffffffffffffffffffffffffffffffff168173ffffffffffffffffffffffffffffffffffffffff1603611226576040517f08c379a000000000000000000000000000000000000000000000000000000000815260040161121d906138ea565b60405180910390fd5b61122f81611934565b50565b60008211611275576040517f08c379a000000000000000000000000000000000000000000000000000000000815260040161126c906131cc565b60405180910390fd5b8186869050146112ba576040517f08c379a00000000000000000000000000000000000000000000000000000000081526004016112b190613956565b60405180910390fd5b60005b8281101561134c576113388787838181106112db576112da6134ab565b5b90506020028101906112ed9190613985565b8080601f016020809104026020016040519081016040528093929190818152602001838380828437600081840152601f19601f82011690508083019250505050505050868685610d99565b5080806113449061321b565b9150506112bd565b50505050505050565b60007f80ac58cd000000000000000000000000000000000000000000000000000000007bffffffffffffffffffffffffffffffffffffffffffffffffffffffff1916827bffffffffffffffffffffffffffffffffffffffffffffffffffffffff1916148061142057507f5b5e139f000000000000000000000000000000000000000000000000000000007bffffffffffffffffffffffffffffffffffffffffffffffffffffffff1916827bffffffffffffffffffffffffffffffffffffffffffffffffffffffff1916145b80611430575061142f82611cb9565b5b9050919050565b61144081611c4d565b61147f576040517f08c379a000000000000000000000000000000000000000000000000000000000815260040161147690613526565b60405180910390fd5b50565b600033905090565b816004600083815260200190815260200160002060006101000a81548173ffffffffffffffffffffffffffffffffffffffff021916908373ffffffffffffffffffffffffffffffffffffffff160217905550808273ffffffffffffffffffffffffffffffffffffffff166114fd83610ac3565b73ffffffffffffffffffffffffffffffffffffffff167f8c5be1e5ebec7d5bd14f71427d1e84f3dd0314c0f7b2291e5b200ac8c7c3b92560405160405180910390a45050565b61154b611482565b73ffffffffffffffffffffffffffffffffffffffff16611569610c65565b73ffffffffffffffffffffffffffffffffffffffff16146115bf576040517f08c379a00000000000000000000000000000000000000000000000000000000081526004016115b690613a34565b60405180910390fd5b565b60606000835111611607576040517f08c379a00000000000000000000000000000000000000000000000000000000081526004016115fe90613aa0565b60405180910390fd5b8261161183611d23565b604051602001611622929190613afc565b604051602081830303815290604052905092915050565b60008061164583610ac3565b90508073ffffffffffffffffffffffffffffffffffffffff168473ffffffffffffffffffffffffffffffffffffffff1614806116875750611686818561111b565b5b806116c557508373ffffffffffffffffffffffffffffffffffffffff166116ad846105ec565b73ffffffffffffffffffffffffffffffffffffffff16145b91505092915050565b8273ffffffffffffffffffffffffffffffffffffffff166116ee82610ac3565b73ffffffffffffffffffffffffffffffffffffffff1614611744576040517f08c379a000000000000000000000000000000000000000000000000000000000815260040161173b90613b92565b60405180910390fd5b600073ffffffffffffffffffffffffffffffffffffffff168273ffffffffffffffffffffffffffffffffffffffff16036117b3576040517f08c379a00000000000000000000000000000000000000000000000000000000081526004016117aa90613c24565b60405180910390fd5b6117be838383611e83565b6117c960008261148a565b6001600360008573ffffffffffffffffffffffffffffffffffffffff1673ffffffffffffffffffffffffffffffffffffffff16815260200190815260200160002060008282546118199190613c44565b925050819055506001600360008473ffffffffffffffffffffffffffffffffffffffff1673ffffffffffffffffffffffffffffffffffffffff16815260200190815260200160002060008282546118709190613c78565b92505081905550816002600083815260200190815260200160002060006101000a81548173ffffffffffffffffffffffffffffffffffffffff021916908373ffffffffffffffffffffffffffffffffffffffff160217905550808273ffffffffffffffffffffffffffffffffffffffff168473ffffffffffffffffffffffffffffffffffffffff167fddf252ad1be2c89b69c2b068fc378daa952ba7f163c4a11628f55a4df523b3ef60405160405180910390a461192f838383611f95565b505050565b6000600a60009054906101000a900473ffffffffffffffffffffffffffffffffffffffff16905081600a60006101000a81548173ffffffffffffffffffffffffffffffffffffffff021916908373ffffffffffffffffffffffffffffffffffffffff1602179055508173ffffffffffffffffffffffffffffffffffffffff168173ffffffffffffffffffffffffffffffffffffffff167f8be0079c531659141344cd1fd0a4f28419497f9722a3daafe3b4186f6b6457e060405160405180910390a35050565b8173ffffffffffffffffffffffffffffffffffffffff168373ffffffffffffffffffffffffffffffffffffffff1603611a68576040517f08c379a0000000000000000000000000000000000000000000000000000000008152600401611a5f90613cf8565b60405180910390fd5b80600560008573ffffffffffffffffffffffffffffffffffffffff1673ffffffffffffffffffffffffffffffffffffffff16815260200190815260200160002060008473ffffffffffffffffffffffffffffffffffffffff1673ffffffffffffffffffffffffffffffffffffffff16815260200190815260200160002060006101000a81548160ff0219169083151502179055508173ffffffffffffffffffffffffffffffffffffffff168373ffffffffffffffffffffffffffffffffffffffff167f17307eab39ab6107e8899845ad3d59bd9653f200f220920489ca2b5937696c3183604051611b599190612737565b60405180910390a3505050565b611b718484846116ce565b611b7d84848484611f9a565b611bbc576040517f08c379a0000000000000000000000000000000000000000000000000000000008152600401611bb390613d8a565b60405180910390fd5b50505050565b611bdc828260405180602001604052806000815250612121565b5050565b611be982611c4d565b611c28576040517f08c379a0000000000000000000000000000000000000000000000000000000008152600401611c1f90613e1c565b60405180910390fd5b80600c60008481526020019081526020016000209081611c489190613fde565b505050565b60008073ffffffffffffffffffffffffffffffffffffffff166002600084815260200190815260200160002060009054906101000a900473ffffffffffffffffffffffffffffffffffffffff1673ffffffffffffffffffffffffffffffffffffffff1614159050919050565b60007f01ffc9a7000000000000000000000000000000000000000000000000000000007bffffffffffffffffffffffffffffffffffffffffffffffffffffffff1916827bffffffffffffffffffffffffffffffffffffffffffffffffffffffff1916149050919050565b606060008203611d6a576040518060400160405280600181526020017f30000000000000000000000000000000000000000000000000000000000000008152509050611e7e565b600082905060005b60008214611d9c578080611d859061321b565b915050600a82611d9591906140df565b9150611d72565b60008167ffffffffffffffff811115611db857611db7612939565b5b6040519080825280601f01601f191660200182016040528015611dea5781602001600182028036833780820191505090505b5090505b60008514611e7757600182611e039190613c44565b9150600a85611e129190614110565b6030611e1e9190613c78565b60f81b818381518110611e3457611e336134ab565b5b60200101907effffffffffffffffffffffffffffffffffffffffffffffffffffffffffffff1916908160001a905350600a85611e7091906140df565b9450611dee565b8093505050505b919050565b611e8e83838361217c565b600073ffffffffffffffffffffffffffffffffffffffff168373ffffffffffffffffffffffffffffffffffffffff1603611ed057611ecb81612181565b611f0f565b8173ffffffffffffffffffffffffffffffffffffffff168373ffffffffffffffffffffffffffffffffffffffff1614611f0e57611f0d83826121ca565b5b5b600073ffffffffffffffffffffffffffffffffffffffff168273ffffffffffffffffffffffffffffffffffffffff1603611f5157611f4c81612337565b611f90565b8273ffffffffffffffffffffffffffffffffffffffff168273ffffffffffffffffffffffffffffffffffffffff1614611f8f57611f8e8282612408565b5b5b505050565b505050565b6000611fbb8473ffffffffffffffffffffffffffffffffffffffff16612487565b15612114578373ffffffffffffffffffffffffffffffffffffffff1663150b7a02611fe4611482565b8786866040518563ffffffff1660e01b81526004016120069493929190614196565b6020604051808303816000875af192505050801561204257506040513d601f19601f8201168201806040525081019061203f91906141f7565b60015b6120c4573d8060008114612072576040519150601f19603f3d011682016040523d82523d6000602084013e612077565b606091505b5060008151036120bc576040517f08c379a00000000000000000000000000000000000000000000000000000000081526004016120b390613d8a565b60405180910390fd5b805181602001fd5b63150b7a0260e01b7bffffffffffffffffffffffffffffffffffffffffffffffffffffffff1916817bffffffffffffffffffffffffffffffffffffffffffffffffffffffff191614915050612119565b600190505b949350505050565b61212b83836124aa565b6121386000848484611f9a565b612177576040517f08c379a000000000000000000000000000000000000000000000000000000000815260040161216e90613d8a565b60405180910390fd5b505050565b505050565b6008805490506009600083815260200190815260200160002081905550600881908060018154018082558091505060019003906000526020600020016000909190919091505550565b600060016121d784610b74565b6121e19190613c44565b90506000600760008481526020019081526020016000205490508181146122c6576000600660008673ffffffffffffffffffffffffffffffffffffffff1673ffffffffffffffffffffffffffffffffffffffff168152602001908152602001600020600084815260200190815260200160002054905080600660008773ffffffffffffffffffffffffffffffffffffffff1673ffffffffffffffffffffffffffffffffffffffff168152602001908152602001600020600084815260200190815260200160002081905550816007600083815260200190815260200160002081905550505b6007600084815260200190815260200160002060009055600660008573ffffffffffffffffffffffffffffffffffffffff1673ffffffffffffffffffffffffffffffffffffffff16815260200190815260200160002060008381526020019081526020016000206000905550505050565b6000600160088054905061234b9190613c44565b905060006009600084815260200190815260200160002054905060006008838154811061237b5761237a6134ab565b5b90600052602060002001549050806008838154811061239d5761239c6134ab565b5b9060005260206000200181905550816009600083815260200190815260200160002081905550600960008581526020019081526020016000206000905560088054806123ec576123eb614224565b5b6001900381819060005260206000200160009055905550505050565b600061241383610b74565b905081600660008573ffffffffffffffffffffffffffffffffffffffff1673ffffffffffffffffffffffffffffffffffffffff168152602001908152602001600020600083815260200190815260200160002081905550806007600084815260200190815260200160002081905550505050565b6000808273ffffffffffffffffffffffffffffffffffffffff163b119050919050565b600073ffffffffffffffffffffffffffffffffffffffff168273ffffffffffffffffffffffffffffffffffffffff1603612519576040517f08c379a00000000000000000000000000000000000000000000000000000000081526004016125109061429f565b60405180910390fd5b61252281611c4d565b15612562576040517f08c379a00000000000000000000000000000000000000000000000000000000081526004016125599061430b565b60405180910390fd5b61256e60008383611e83565b6001600360008473ffffffffffffffffffffffffffffffffffffffff1673ffffffffffffffffffffffffffffffffffffffff16815260200190815260200160002060008282546125be9190613c78565b92505081905550816002600083815260200190815260200160002060006101000a81548173ffffffffffffffffffffffffffffffffffffffff021916908373ffffffffffffffffffffffffffffffffffffffff160217905550808273ffffffffffffffffffffffffffffffffffffffff16600073ffffffffffffffffffffffffffffffffffffffff167fddf252ad1be2c89b69c2b068fc378daa952ba7f163c4a11628f55a4df523b3ef60405160405180910390a461267f60008383611f95565b5050565b6000604051905090565b600080fd5b600080fd5b60007fffffffff0000000000000000000000000000000000000000000000000000000082169050919050565b6126cc81612697565b81146126d757600080fd5b50565b6000813590506126e9816126c3565b92915050565b6000602082840312156127055761270461268d565b5b6000612713848285016126da565b91505092915050565b60008115159050919050565b6127318161271c565b82525050565b600060208201905061274c6000830184612728565b92915050565b600081519050919050565b600082825260208201905092915050565b60005b8381101561278c578082015181840152602081019050612771565b60008484015250505050565b6000601f19601f8301169050919050565b60006127b482612752565b6127be818561275d565b93506127ce81856020860161276e565b6127d781612798565b840191505092915050565b600060208201905081810360008301526127fc81846127a9565b905092915050565b6000819050919050565b61281781612804565b811461282257600080fd5b50565b6000813590506128348161280e565b92915050565b6000602082840312156128505761284f61268d565b5b600061285e84828501612825565b91505092915050565b600073ffffffffffffffffffffffffffffffffffffffff82169050919050565b600061289282612867565b9050919050565b6128a281612887565b82525050565b60006020820190506128bd6000830184612899565b92915050565b6128cc81612887565b81146128d757600080fd5b50565b6000813590506128e9816128c3565b92915050565b600080604083850312156129065761290561268d565b5b6000612914858286016128da565b925050602061292585828601612825565b9150509250929050565b600080fd5b600080fd5b7f4e487b7100000000000000000000000000000000000000000000000000000000600052604160045260246000fd5b61297182612798565b810181811067ffffffffffffffff821117156129905761298f612939565b5b80604052505050565b60006129a3612683565b90506129af8282612968565b919050565b600067ffffffffffffffff8211156129cf576129ce612939565b5b6129d882612798565b9050602081019050919050565b82818337600083830152505050565b6000612a07612a02846129b4565b612999565b905082815260208101848484011115612a2357612a22612934565b5b612a2e8482856129e5565b509392505050565b600082601f830112612a4b57612a4a61292f565b5b8135612a5b8482602086016129f4565b91505092915050565b60038110612a7157600080fd5b50565b600081359050612a8381612a64565b92915050565b600080600080600060a08688031215612aa557612aa461268d565b5b600086013567ffffffffffffffff811115612ac357612ac2612692565b5b612acf88828901612a36565b9550506020612ae0888289016128da565b9450506040612af188828901612825565b9350506060612b0288828901612825565b9250506080612b1388828901612a74565b9150509295509295909350565b6000612b2b82612887565b9050919050565b612b3b81612b20565b8114612b4657600080fd5b50565b600081359050612b5881612b32565b92915050565b600060208284031215612b7457612b7361268d565b5b6000612b8284828501612b49565b91505092915050565b612b9481612804565b82525050565b6000602082019050612baf6000830184612b8b565b92915050565b600080600060608486031215612bce57612bcd61268d565b5b6000612bdc868287016128da565b9350506020612bed868287016128da565b9250506040612bfe86828701612825565b9150509250925092565b600060208284031215612c1e57612c1d61268d565b5b6000612c2c848285016128da565b91505092915050565b6000819050919050565b6000612c5a612c55612c5084612867565b612c35565b612867565b9050919050565b6000612c6c82612c3f565b9050919050565b6000612c7e82612c61565b9050919050565b612c8e81612c73565b82525050565b6000602082019050612ca96000830184612c85565b92915050565b612cb88161271c565b8114612cc357600080fd5b50565b600081359050612cd581612caf565b92915050565b60008060408385031215612cf257612cf161268d565b5b6000612d00858286016128da565b9250506020612d1185828601612cc6565b9150509250929050565b600067ffffffffffffffff821115612d3657612d35612939565b5b612d3f82612798565b9050602081019050919050565b6000612d5f612d5a84612d1b565b612999565b905082815260208101848484011115612d7b57612d7a612934565b5b612d868482856129e5565b509392505050565b600082601f830112612da357612da261292f565b5b8135612db3848260208601612d4c565b91505092915050565b60008060008060808587031215612dd657612dd561268d565b5b6000612de4878288016128da565b9450506020612df5878288016128da565b9350506040612e0687828801612825565b925050606085013567ffffffffffffffff811115612e2757612e26612692565b5b612e3387828801612d8e565b91505092959194509250565b60008060008060808587031215612e5957612e5861268d565b5b600085013567ffffffffffffffff811115612e7757612e76612692565b5b612e8387828801612a36565b9450506020612e94878288016128da565b9350506040612ea587828801612825565b9250506060612eb687828801612a74565b91505092959194509250565b60008060408385031215612ed957612ed861268d565b5b6000612ee7858286016128da565b9250506020612ef8858286016128da565b9150509250929050565b600080fd5b600080fd5b60008083601f840112612f2257612f2161292f565b5b8235905067ffffffffffffffff811115612f3f57612f3e612f02565b5b602083019150836020820283011115612f5b57612f5a612f07565b5b9250929050565b60008060008060008060a08789031215612f7f57612f7e61268d565b5b600087013567ffffffffffffffff811115612f9d57612f9c612692565b5b612fa989828a01612f0c565b96509650506020612fbc89828a016128da565b9450506040612fcd89828a01612825565b9350506060612fde89828a01612825565b9250506080612fef89828a01612a74565b9150509295509295509295565b7f4e487b7100000000000000000000000000000000000000000000000000000000600052602260045260246000fd5b6000600282049050600182168061304357607f821691505b60208210810361305657613055612ffc565b5b50919050565b7f4552433732313a20617070726f76616c20746f2063757272656e74206f776e6560008201527f7200000000000000000000000000000000000000000000000000000000000000602082015250565b60006130b860218361275d565b91506130c38261305c565b604082019050919050565b600060208201905081810360008301526130e7816130ab565b9050919050565b7f4552433732313a20617070726f76652063616c6c6572206973206e6f7420746f60008201527f6b656e206f776e6572206e6f7220617070726f76656420666f7220616c6c0000602082015250565b600061314a603e8361275d565b9150613155826130ee565b604082019050919050565b600060208201905081810360008301526131798161313d565b9050919050565b7f77726f6e6720616d6f756e740000000000000000000000000000000000000000600082015250565b60006131b6600c8361275d565b91506131c182613180565b602082019050919050565b600060208201905081810360008301526131e5816131a9565b9050919050565b7f4e487b7100000000000000000000000000000000000000000000000000000000600052601160045260246000fd5b600061322682612804565b91507fffffffffffffffffffffffffffffffffffffffffffffffffffffffffffffffff8203613258576132576131ec565b5b600182019050919050565b7f4d61726b6574706c6163653a20686173206265656e20616c726561647920636f60008201527f6e66696775726564000000000000000000000000000000000000000000000000602082015250565b60006132bf60288361275d565b91506132ca82613263565b604082019050919050565b600060208201905081810360008301526132ee816132b2565b9050919050565b7f4552433732313a2063616c6c6572206973206e6f7420746f6b656e206f776e6560008201527f72206e6f7220617070726f766564000000000000000000000000000000000000602082015250565b6000613351602e8361275d565b915061335c826132f5565b604082019050919050565b6000602082019050818103600083015261338081613344565b9050919050565b7f455243373231456e756d657261626c653a206f776e657220696e646578206f7560008201527f74206f6620626f756e6473000000000000000000000000000000000000000000602082015250565b60006133e3602b8361275d565b91506133ee82613387565b604082019050919050565b60006020820190508181036000830152613412816133d6565b9050919050565b7f455243373231456e756d657261626c653a20676c6f62616c20696e646578206f60008201527f7574206f6620626f756e64730000000000000000000000000000000000000000602082015250565b6000613475602c8361275d565b915061348082613419565b604082019050919050565b600060208201905081810360008301526134a481613468565b9050919050565b7f4e487b7100000000000000000000000000000000000000000000000000000000600052603260045260246000fd5b7f4552433732313a20696e76616c696420746f6b656e2049440000000000000000600082015250565b600061351060188361275d565b915061351b826134da565b602082019050919050565b6000602082019050818103600083015261353f81613503565b9050919050565b7f4552433732313a2061646472657373207a65726f206973206e6f74206120766160008201527f6c6964206f776e65720000000000000000000000000000000000000000000000602082015250565b60006135a260298361275d565b91506135ad82613546565b604082019050919050565b600060208201905081810360008301526135d181613595565b9050919050565b7f496e76616c696420616464726573730000000000000000000000000000000000600082015250565b600061360e600f8361275d565b9150613619826135d8565b602082019050919050565b6000602082019050818103600083015261363d81613601565b9050919050565b7f496e76616c6964206d61726b6574706c61636520616464726573730000000000600082015250565b600061367a601b8361275d565b915061368582613644565b602082019050919050565b600060208201905081810360008301526136a98161366d565b9050919050565b7f4e487b7100000000000000000000000000000000000000000000000000000000600052602160045260246000fd5b7f4d494e543a20496e76616c696420706179207479706500000000000000000000600082015250565b600061371560168361275d565b9150613720826136df565b602082019050919050565b6000602082019050818103600083015261374481613708565b9050919050565b6003811061375c5761375b6136b0565b5b50565b600081905061376d8261374b565b919050565b600061377d8261375f565b9050919050565b61378d81613772565b82525050565b600060a0820190506137a86000830188612899565b6137b56020830187612b8b565b6137c26040830186612b8b565b6137cf6060830185613784565b6137dc6080830184612899565b9695505050505050565b7f4552433732314d657461646174613a2055524920717565727920666f72206e6f60008201527f6e6578697374656e7420746f6b656e0000000000000000000000000000000000602082015250565b6000613842602f8361275d565b915061384d826137e6565b604082019050919050565b6000602082019050818103600083015261387181613835565b9050919050565b7f4f776e61626c653a206e6577206f776e657220697320746865207a65726f206160008201527f6464726573730000000000000000000000000000000000000000000000000000602082015250565b60006138d460268361275d565b91506138df82613878565b604082019050919050565b60006020820190508181036000830152613903816138c7565b9050919050565b7f496e76616c696420706172616d73000000000000000000000000000000000000600082015250565b6000613940600e8361275d565b915061394b8261390a565b602082019050919050565b6000602082019050818103600083015261396f81613933565b9050919050565b600080fd5b600080fd5b600080fd5b600080833560016020038436030381126139a2576139a1613976565b5b80840192508235915067ffffffffffffffff8211156139c4576139c361397b565b5b6020830192506001820236038313156139e0576139df613980565b5b509250929050565b7f4f776e61626c653a2063616c6c6572206973206e6f7420746865206f776e6572600082015250565b6000613a1e60208361275d565b9150613a29826139e8565b602082019050919050565b60006020820190508181036000830152613a4d81613a11565b9050919050565b7f496e76616c696420626173652055524900000000000000000000000000000000600082015250565b6000613a8a60108361275d565b9150613a9582613a54565b602082019050919050565b60006020820190508181036000830152613ab981613a7d565b9050919050565b600081905092915050565b6000613ad682612752565b613ae08185613ac0565b9350613af081856020860161276e565b80840191505092915050565b6000613b088285613acb565b9150613b148284613acb565b91508190509392505050565b7f4552433732313a207472616e736665722066726f6d20696e636f72726563742060008201527f6f776e6572000000000000000000000000000000000000000000000000000000602082015250565b6000613b7c60258361275d565b9150613b8782613b20565b604082019050919050565b60006020820190508181036000830152613bab81613b6f565b9050919050565b7f4552433732313a207472616e7366657220746f20746865207a65726f2061646460008201527f7265737300000000000000000000000000000000000000000000000000000000602082015250565b6000613c0e60248361275d565b9150613c1982613bb2565b604082019050919050565b60006020820190508181036000830152613c3d81613c01565b9050919050565b6000613c4f82612804565b9150613c5a83612804565b9250828203905081811115613c7257613c716131ec565b5b92915050565b6000613c8382612804565b9150613c8e83612804565b9250828201905080821115613ca657613ca56131ec565b5b92915050565b7f4552433732313a20617070726f766520746f2063616c6c657200000000000000600082015250565b6000613ce260198361275d565b9150613ced82613cac565b602082019050919050565b60006020820190508181036000830152613d1181613cd5565b9050919050565b7f4552433732313a207472616e7366657220746f206e6f6e20455243373231526560008201527f63656976657220696d706c656d656e7465720000000000000000000000000000602082015250565b6000613d7460328361275d565b9150613d7f82613d18565b604082019050919050565b60006020820190508181036000830152613da381613d67565b9050919050565b7f45524337323155524953746f726167653a2055524920736574206f66206e6f6e60008201527f6578697374656e7420746f6b656e000000000000000000000000000000000000602082015250565b6000613e06602e8361275d565b9150613e1182613daa565b604082019050919050565b60006020820190508181036000830152613e3581613df9565b9050919050565b60008190508160005260206000209050919050565b60006020601f8301049050919050565b600082821b905092915050565b600060088302613e9e7fffffffffffffffffffffffffffffffffffffffffffffffffffffffffffffffff82613e61565b613ea88683613e61565b95508019841693508086168417925050509392505050565b6000613edb613ed6613ed184612804565b612c35565b612804565b9050919050565b6000819050919050565b613ef583613ec0565b613f09613f0182613ee2565b848454613e6e565b825550505050565b600090565b613f1e613f11565b613f29818484613eec565b505050565b5b81811015613f4d57613f42600082613f16565b600181019050613f2f565b5050565b601f821115613f9257613f6381613e3c565b613f6c84613e51565b81016020851015613f7b578190505b613f8f613f8785613e51565b830182613f2e565b50505b505050565b600082821c905092915050565b6000613fb560001984600802613f97565b1980831691505092915050565b6000613fce8383613fa4565b9150826002028217905092915050565b613fe782612752565b67ffffffffffffffff81111561400057613fff612939565b5b61400a825461302b565b614015828285613f51565b600060209050601f8311600181146140485760008415614036578287015190505b6140408582613fc2565b8655506140a8565b601f19841661405686613e3c565b60005b8281101561407e57848901518255600182019150602085019450602081019050614059565b8683101561409b5784890151614097601f891682613fa4565b8355505b6001600288020188555050505b505050505050565b7f4e487b7100000000000000000000000000000000000000000000000000000000600052601260045260246000fd5b60006140ea82612804565b91506140f583612804565b925082614105576141046140b0565b5b828204905092915050565b600061411b82612804565b915061412683612804565b925082614136576141356140b0565b5b828206905092915050565b600081519050919050565b600082825260208201905092915050565b600061416882614141565b614172818561414c565b935061418281856020860161276e565b61418b81612798565b840191505092915050565b60006080820190506141ab6000830187612899565b6141b86020830186612899565b6141c56040830185612b8b565b81810360608301526141d7818461415d565b905095945050505050565b6000815190506141f1816126c3565b92915050565b60006020828403121561420d5761420c61268d565b5b600061421b848285016141e2565b91505092915050565b7f4e487b7100000000000000000000000000000000000000000000000000000000600052603160045260246000fd5b7f4552433732313a206d696e7420746f20746865207a65726f2061646472657373600082015250565b600061428960208361275d565b915061429482614253565b602082019050919050565b600060208201905081810360008301526142b88161427c565b9050919050565b7f4552433732313a20746f6b656e20616c7265616479206d696e74656400000000600082015250565b60006142f5601c8361275d565b9150614300826142bf565b602082019050919050565b60006020820190508181036000830152614324816142e8565b905091905056fea2646970667358221220582212f650c7bcd8dc11efb925159816a6f852cf0fcdeb7033ce9021b8f3346164736f6c63430008110033",
  "linkReferences": {},
  "deployedLinkReferences": {}
}