{
  "_format": "hh-sol-artifact-1",
  "contractName": "NichoNFT",
  "sourceName": "contracts/NichoNFT.sol",
  "abi": [
    {
      "inputs": [],
      "stateMutability": "nonpayable",
      "type": "constructor"
    },
    {
      "anonymous": false,
      "inputs": [
        {
          "indexed": true,
          "internalType": "address",
          "name": "owner",
          "type": "address"
        },
        {
          "indexed": true,
          "internalType": "address",
          "name": "approved",
          "type": "address"
        },
        {
          "indexed": true,
          "internalType": "uint256",
          "name": "tokenId",
          "type": "uint256"
        }
      ],
      "name": "Approval",
      "type": "event"
    },
    {
      "anonymous": false,
      "inputs": [
        {
          "indexed": true,
          "internalType": "address",
          "name": "owner",
          "type": "address"
        },
        {
          "indexed": true,
          "internalType": "address",
          "name": "operator",
          "type": "address"
        },
        {
          "indexed": false,
          "internalType": "bool",
          "name": "approved",
          "type": "bool"
        }
      ],
      "name": "ApprovalForAll",
      "type": "event"
    },
    {
      "anonymous": false,
      "inputs": [
        {
          "indexed": true,
          "internalType": "address",
          "name": "previousOwner",
          "type": "address"
        },
        {
          "indexed": true,
          "internalType": "address",
          "name": "newOwner",
          "type": "address"
        }
      ],
      "name": "OwnershipTransferred",
      "type": "event"
    },
    {
      "anonymous": false,
      "inputs": [
        {
          "indexed": true,
          "internalType": "address",
          "name": "from",
          "type": "address"
        },
        {
          "indexed": true,
          "internalType": "address",
          "name": "to",
          "type": "address"
        },
        {
          "indexed": true,
          "internalType": "uint256",
          "name": "tokenId",
          "type": "uint256"
        }
      ],
      "name": "Transfer",
      "type": "event"
    },
    {
      "inputs": [
        {
          "internalType": "address",
          "name": "to",
          "type": "address"
        },
        {
          "internalType": "uint256",
          "name": "tokenId",
          "type": "uint256"
        }
      ],
      "name": "approve",
      "outputs": [],
      "stateMutability": "nonpayable",
      "type": "function"
    },
    {
      "inputs": [
        {
          "internalType": "address",
          "name": "owner",
          "type": "address"
        }
      ],
      "name": "balanceOf",
      "outputs": [
        {
          "internalType": "uint256",
          "name": "",
          "type": "uint256"
        }
      ],
      "stateMutability": "view",
      "type": "function"
    },
    {
      "inputs": [
        {
          "internalType": "string[]",
          "name": "_tokenURI",
          "type": "string[]"
        },
        {
          "internalType": "address",
          "name": "_toAddress",
          "type": "address"
        },
        {
          "internalType": "uint256",
          "name": "_price",
          "type": "uint256"
        },
        {
          "internalType": "uint256",
          "name": "_amount",
          "type": "uint256"
        },
        {
          "internalType": "enum IHelper.PayType",
          "name": "_payType",
          "type": "uint8"
        }
      ],
      "name": "batchDNMint",
      "outputs": [],
      "stateMutability": "nonpayable",
      "type": "function"
    },
    {
      "inputs": [
        {
          "internalType": "string",
          "name": "_baseTokenURI",
          "type": "string"
        },
        {
          "internalType": "address",
          "name": "_toAddress",
          "type": "address"
        },
        {
          "internalType": "uint256",
          "name": "_price",
          "type": "uint256"
        },
        {
          "internalType": "uint256",
          "name": "_amount",
          "type": "uint256"
        },
        {
          "internalType": "enum IHelper.PayType",
          "name": "_payType",
          "type": "uint8"
        }
      ],
      "name": "batchIDMint",
      "outputs": [],
      "stateMutability": "nonpayable",
      "type": "function"
    },
    {
      "inputs": [
        {
          "internalType": "string",
          "name": "_tokenURI",
          "type": "string"
        },
        {
          "internalType": "address",
          "name": "_toAddress",
          "type": "address"
        },
        {
          "internalType": "uint256",
          "name": "_price",
          "type": "uint256"
        },
        {
          "internalType": "uint256",
          "name": "_amount",
          "type": "uint256"
        },
        {
          "internalType": "enum IHelper.PayType",
          "name": "_payType",
          "type": "uint8"
        }
      ],
      "name": "batchSNMint",
      "outputs": [],
      "stateMutability": "nonpayable",
      "type": "function"
    },
    {
      "inputs": [
        {
          "internalType": "uint256",
          "name": "tokenId",
          "type": "uint256"
        }
      ],
      "name": "getApproved",
      "outputs": [
        {
          "internalType": "address",
          "name": "",
          "type": "address"
        }
      ],
      "stateMutability": "view",
      "type": "function"
    },
    {
      "inputs": [
        {
          "internalType": "address",
          "name": "owner",
          "type": "address"
        },
        {
          "internalType": "address",
          "name": "operator",
          "type": "address"
        }
      ],
      "name": "isApprovedForAll",
      "outputs": [
        {
          "internalType": "bool",
          "name": "",
          "type": "bool"
        }
      ],
      "stateMutability": "view",
      "type": "function"
    },
    {
      "inputs": [
        {
          "internalType": "string",
          "name": "_tokenURI",
          "type": "string"
        },
        {
          "internalType": "address",
          "name": "_toAddress",
          "type": "address"
        },
        {
          "internalType": "uint256",
          "name": "price",
          "type": "uint256"
        },
        {
          "internalType": "enum IHelper.PayType",
          "name": "_payType",
          "type": "uint8"
        }
      ],
      "name": "mint",
      "outputs": [
        {
          "internalType": "uint256",
          "name": "",
          "type": "uint256"
        }
      ],
      "stateMutability": "nonpayable",
      "type": "function"
    },
    {
      "inputs": [],
      "name": "name",
      "outputs": [
        {
          "internalType": "string",
          "name": "",
          "type": "string"
        }
      ],
      "stateMutability": "view",
      "type": "function"
    },
    {
      "inputs": [],
      "name": "nichonftMarketplaceContract",
      "outputs": [
        {
          "internalType": "contract INichoNFTMarketplace",
          "name": "",
          "type": "address"
        }
      ],
      "stateMutability": "view",
      "type": "function"
    },
    {
      "inputs": [],
      "name": "owner",
      "outputs": [
        {
          "internalType": "address",
          "name": "",
          "type": "address"
        }
      ],
      "stateMutability": "view",
      "type": "function"
    },
    {
      "inputs": [
        {
          "internalType": "uint256",
          "name": "tokenId",
          "type": "uint256"
        }
      ],
      "name": "ownerOf",
      "outputs": [
        {
          "internalType": "address",
          "name": "",
          "type": "address"
        }
      ],
      "stateMutability": "view",
      "type": "function"
    },
    {
      "inputs": [],
      "name": "renounceOwnership",
      "outputs": [],
      "stateMutability": "nonpayable",
      "type": "function"
    },
    {
      "inputs": [
        {
          "internalType": "address",
          "name": "from",
          "type": "address"
        },
        {
          "internalType": "address",
          "name": "to",
          "type": "address"
        },
        {
          "internalType": "uint256",
          "name": "tokenId",
          "type": "uint256"
        }
      ],
      "name": "safeTransferFrom",
      "outputs": [],
      "stateMutability": "nonpayable",
      "type": "function"
    },
    {
      "inputs": [
        {
          "internalType": "address",
          "name": "from",
          "type": "address"
        },
        {
          "internalType": "address",
          "name": "to",
          "type": "address"
        },
        {
          "internalType": "uint256",
          "name": "tokenId",
          "type": "uint256"
        },
        {
          "internalType": "bytes",
          "name": "data",
          "type": "bytes"
        }
      ],
      "name": "safeTransferFrom",
      "outputs": [],
      "stateMutability": "nonpayable",
      "type": "function"
    },
    {
      "inputs": [
        {
          "internalType": "address",
          "name": "operator",
          "type": "address"
        },
        {
          "internalType": "bool",
          "name": "approved",
          "type": "bool"
        }
      ],
      "name": "setApprovalForAll",
      "outputs": [],
      "stateMutability": "nonpayable",
      "type": "function"
    },
    {
      "inputs": [
        {
          "internalType": "contract INichoNFTMarketplace",
          "name": "_nichonftMarketplace",
          "type": "address"
        }
      ],
      "name": "setMarketplaceContract",
      "outputs": [],
      "stateMutability": "nonpayable",
      "type": "function"
    },
    {
      "inputs": [
        {
          "internalType": "bytes4",
          "name": "interfaceId",
          "type": "bytes4"
        }
      ],
      "name": "supportsInterface",
      "outputs": [
        {
          "internalType": "bool",
          "name": "",
          "type": "bool"
        }
      ],
      "stateMutability": "view",
      "type": "function"
    },
    {
      "inputs": [],
      "name": "symbol",
      "outputs": [
        {
          "internalType": "string",
          "name": "",
          "type": "string"
        }
      ],
      "stateMutability": "view",
      "type": "function"
    },
    {
      "inputs": [
        {
          "internalType": "uint256",
          "name": "index",
          "type": "uint256"
        }
      ],
      "name": "tokenByIndex",
      "outputs": [
        {
          "internalType": "uint256",
          "name": "",
          "type": "uint256"
        }
      ],
      "stateMutability": "view",
      "type": "function"
    },
    {
      "inputs": [
        {
          "internalType": "address",
          "name": "owner",
          "type": "address"
        },
        {
          "internalType": "uint256",
          "name": "index",
          "type": "uint256"
        }
      ],
      "name": "tokenOfOwnerByIndex",
      "outputs": [
        {
          "internalType": "uint256",
          "name": "",
          "type": "uint256"
        }
      ],
      "stateMutability": "view",
      "type": "function"
    },
    {
      "inputs": [
        {
          "internalType": "uint256",
          "name": "tokenId",
          "type": "uint256"
        }
      ],
      "name": "tokenURI",
      "outputs": [
        {
          "internalType": "string",
          "name": "",
          "type": "string"
        }
      ],
      "stateMutability": "view",
      "type": "function"
    },
    {
      "inputs": [],
      "name": "totalSupply",
      "outputs": [
        {
          "internalType": "uint256",
          "name": "",
          "type": "uint256"
        }
      ],
      "stateMutability": "view",
      "type": "function"
    },
    {
      "inputs": [
        {
          "internalType": "address",
          "name": "from",
          "type": "address"
        },
        {
          "internalType": "address",
          "name": "to",
          "type": "address"
        },
        {
          "internalType": "uint256",
          "name": "tokenId",
          "type": "uint256"
        }
      ],
      "name": "transferFrom",
      "outputs": [],
      "stateMutability": "nonpayable",
      "type": "function"
    },
    {
      "inputs": [
        {
          "internalType": "address",
          "name": "newOwner",
          "type": "address"
        }
      ],
      "name": "transferOwnership",
      "outputs": [],
      "stateMutability": "nonpayable",
      "type": "function"
    }
  ],
  "bytecode": "0x60806040523480156200001157600080fd5b506040518060400160405280600881526020017f4e6963686f4e46540000000000000000000000000000000000000000000000008152506040518060400160405280600581526020017f4e4943484f00000000000000000000000000000000000000000000000000000081525081600090816200008f919062000412565b508060019081620000a1919062000412565b505050620000c4620000b8620000ca60201b60201c565b620000d260201b60201c565b620004f9565b600033905090565b6000600a60009054906101000a900473ffffffffffffffffffffffffffffffffffffffff16905081600a60006101000a81548173ffffffffffffffffffffffffffffffffffffffff021916908373ffffffffffffffffffffffffffffffffffffffff1602179055508173ffffffffffffffffffffffffffffffffffffffff168173ffffffffffffffffffffffffffffffffffffffff167f8be0079c531659141344cd1fd0a4f28419497f9722a3daafe3b4186f6b6457e060405160405180910390a35050565b600081519050919050565b7f4e487b7100000000000000000000000000000000000000000000000000000000600052604160045260246000fd5b7f4e487b7100000000000000000000000000000000000000000000000000000000600052602260045260246000fd5b600060028204905060018216806200021a57607f821691505b60208210810362000230576200022f620001d2565b5b50919050565b60008190508160005260206000209050919050565b60006020601f8301049050919050565b600082821b905092915050565b6000600883026200029a7fffffffffffffffffffffffffffffffffffffffffffffffffffffffffffffffff826200025b565b620002a686836200025b565b95508019841693508086168417925050509392505050565b6000819050919050565b6000819050919050565b6000620002f3620002ed620002e784620002be565b620002c8565b620002be565b9050919050565b6000819050919050565b6200030f83620002d2565b620003276200031e82620002fa565b84845462000268565b825550505050565b600090565b6200033e6200032f565b6200034b81848462000304565b505050565b5b8181101562000373576200036760008262000334565b60018101905062000351565b5050565b601f821115620003c2576200038c8162000236565b62000397846200024b565b81016020851015620003a7578190505b620003bf620003b6856200024b565b83018262000350565b50505b505050565b600082821c905092915050565b6000620003e760001984600802620003c7565b1980831691505092915050565b6000620004028383620003d4565b9150826002028217905092915050565b6200041d8262000198565b67ffffffffffffffff811115620004395762000438620001a3565b5b62000445825462000201565b6200045282828562000377565b600060209050601f8311600181146200048a576000841562000475578287015190505b620004818582620003f4565b865550620004f1565b601f1984166200049a8662000236565b60005b82811015620004c4578489015182556001820191506020850194506020810190506200049d565b86831015620004e45784890151620004e0601f891682620003d4565b8355505b6001600288020188555050505b505050505050565b61435180620005096000396000f3fe608060405234801561001057600080fd5b50600436106101735760003560e01c80636352211e116100de578063a22cb46511610097578063c87b56dd11610071578063c87b56dd14610448578063e985e9c514610478578063f2fde38b146104a8578063fd80f9d4146104c457610173565b8063a22cb465146103e0578063b88d4fde146103fc578063b8ca8ea21461041857610173565b80636352211e1461031c57806370a082311461034c578063715018a61461037c578063842236a4146103865780638da5cb5b146103a457806395d89b41146103c257610173565b8063179f757a11610130578063179f757a1461024a57806318160ddd1461026657806323b872dd146102845780632f745c59146102a057806342842e0e146102d05780634f6ccce7146102ec57610173565b806301ffc9a71461017857806306fdde03146101a8578063081812fc146101c6578063095ea7b3146101f65780630d875804146102125780631102610e1461022e575b600080fd5b610192600480360381019061018d91906126ed565b6104e0565b60405161019f9190612735565b60405180910390f35b6101b061055a565b6040516101bd91906127e0565b60405180910390f35b6101e060048036038101906101db9190612838565b6105ec565b6040516101ed91906128a6565b60405180910390f35b610210600480360381019061020b91906128ed565b610632565b005b61022c60048036038101906102279190612a87565b610749565b005b61024860048036038101906102439190612b5c565b6107bf565b005b610264600480360381019061025f9190612a87565b61089b565b005b61026e610920565b60405161027b9190612b98565b60405180910390f35b61029e60048036038101906102999190612bb3565b61092d565b005b6102ba60048036038101906102b591906128ed565b61098d565b6040516102c79190612b98565b60405180910390f35b6102ea60048036038101906102e59190612bb3565b610a32565b005b61030660048036038101906103019190612838565b610a52565b6040516103139190612b98565b60405180910390f35b61033660048036038101906103319190612838565b610ac3565b60405161034391906128a6565b60405180910390f35b61036660048036038101906103619190612c06565b610b74565b6040516103739190612b98565b60405180910390f35b610384610c2b565b005b61038e610c3f565b60405161039b9190612c92565b60405180910390f35b6103ac610c65565b6040516103b991906128a6565b60405180910390f35b6103ca610c8f565b6040516103d791906127e0565b60405180910390f35b6103fa60048036038101906103f59190612cd9565b610d21565b005b61041660048036038101906104119190612dba565b610d37565b005b610432600480360381019061042d9190612e3d565b610d99565b60405161043f9190612b98565b60405180910390f35b610462600480360381019061045d9190612838565b61102c565b60405161046f91906127e0565b60405180910390f35b610492600480360381019061048d9190612ec0565b611119565b60405161049f9190612735565b60405180910390f35b6104c260048036038101906104bd9190612c06565b6111ad565b005b6104de60048036038101906104d99190612f60565b611230565b005b60007f780e9d63000000000000000000000000000000000000000000000000000000007bffffffffffffffffffffffffffffffffffffffffffffffffffffffff1916827bffffffffffffffffffffffffffffffffffffffffffffffffffffffff19161480610553575061055282611353565b5b9050919050565b60606000805461056990613029565b80601f016020809104026020016040519081016040528092919081815260200182805461059590613029565b80156105e25780601f106105b7576101008083540402835291602001916105e2565b820191906000526020600020905b8154815290600101906020018083116105c557829003601f168201915b5050505050905090565b60006105f782611435565b6004600083815260200190815260200160002060009054906101000a900473ffffffffffffffffffffffffffffffffffffffff169050919050565b600061063d82610ac3565b90508073ffffffffffffffffffffffffffffffffffffffff168373ffffffffffffffffffffffffffffffffffffffff16036106ad576040517f08c379a00000000000000000000000000000000000000000000000000000000081526004016106a4906130cc565b60405180910390fd5b8073ffffffffffffffffffffffffffffffffffffffff166106cc611480565b73ffffffffffffffffffffffffffffffffffffffff1614806106fb57506106fa816106f5611480565b611119565b5b61073a576040517f08c379a00000000000000000000000000000000000000000000000000000000081526004016107319061315e565b60405180910390fd5b6107448383611488565b505050565b6000821161078c576040517f08c379a0000000000000000000000000000000000000000000000000000000008152600401610783906131ca565b60405180910390fd5b60005b828110156107b7576107a386868685610d99565b5080806107af90613219565b91505061078f565b505050505050565b6107c7611541565b8073ffffffffffffffffffffffffffffffffffffffff16600b60009054906101000a900473ffffffffffffffffffffffffffffffffffffffff1673ffffffffffffffffffffffffffffffffffffffff1603610857576040517f08c379a000000000000000000000000000000000000000000000000000000000815260040161084e906132d3565b60405180910390fd5b80600b60006101000a81548173ffffffffffffffffffffffffffffffffffffffff021916908373ffffffffffffffffffffffffffffffffffffffff16021790555050565b600082116108de576040517f08c379a00000000000000000000000000000000000000000000000000000000081526004016108d5906131ca565b60405180910390fd5b60005b828110156109185760006108f587836115bf565b905061090381878786610d99565b5050808061091090613219565b9150506108e1565b505050505050565b6000600880549050905090565b61093e610938611480565b82611637565b61097d576040517f08c379a000000000000000000000000000000000000000000000000000000000815260040161097490613365565b60405180910390fd5b6109888383836116cc565b505050565b600061099883610b74565b82106109d9576040517f08c379a00000000000000000000000000000000000000000000000000000000081526004016109d0906133f7565b60405180910390fd5b600660008473ffffffffffffffffffffffffffffffffffffffff1673ffffffffffffffffffffffffffffffffffffffff168152602001908152602001600020600083815260200190815260200160002054905092915050565b610a4d83838360405180602001604052806000815250610d37565b505050565b6000610a5c610920565b8210610a9d576040517f08c379a0000000000000000000000000000000000000000000000000000000008152600401610a9490613489565b60405180910390fd5b60088281548110610ab157610ab06134a9565b5b90600052602060002001549050919050565b6000806002600084815260200190815260200160002060009054906101000a900473ffffffffffffffffffffffffffffffffffffffff169050600073ffffffffffffffffffffffffffffffffffffffff168173ffffffffffffffffffffffffffffffffffffffff1603610b6b576040517f08c379a0000000000000000000000000000000000000000000000000000000008152600401610b6290613524565b60405180910390fd5b80915050919050565b60008073ffffffffffffffffffffffffffffffffffffffff168273ffffffffffffffffffffffffffffffffffffffff1603610be4576040517f08c379a0000000000000000000000000000000000000000000000000000000008152600401610bdb906135b6565b60405180910390fd5b600360008373ffffffffffffffffffffffffffffffffffffffff1673ffffffffffffffffffffffffffffffffffffffff168152602001908152602001600020549050919050565b610c33611541565b610c3d6000611932565b565b600b60009054906101000a900473ffffffffffffffffffffffffffffffffffffffff1681565b6000600a60009054906101000a900473ffffffffffffffffffffffffffffffffffffffff16905090565b606060018054610c9e90613029565b80601f0160208091040260200160405190810160405280929190818152602001828054610cca90613029565b8015610d175780601f10610cec57610100808354040283529160200191610d17565b820191906000526020600020905b815481529060010190602001808311610cfa57829003601f168201915b5050505050905090565b610d33610d2c611480565b83836119f8565b5050565b610d48610d42611480565b83611637565b610d87576040517f08c379a0000000000000000000000000000000000000000000000000000000008152600401610d7e90613365565b60405180910390fd5b610d9384848484611b64565b50505050565b60008073ffffffffffffffffffffffffffffffffffffffff168473ffffffffffffffffffffffffffffffffffffffff1603610e09576040517f08c379a0000000000000000000000000000000000000000000000000000000008152600401610e0090613622565b60405180910390fd5b600073ffffffffffffffffffffffffffffffffffffffff16600b60009054906101000a900473ffffffffffffffffffffffffffffffffffffffff1673ffffffffffffffffffffffffffffffffffffffff1603610e9a576040517f08c379a0000000000000000000000000000000000000000000000000000000008152600401610e919061368e565b60405180910390fd5b60006002811115610eae57610ead6136ae565b5b826002811115610ec157610ec06136ae565b5b03610f01576040517f08c379a0000000000000000000000000000000000000000000000000000000008152600401610ef890613729565b60405180910390fd5b6000610f0b610920565b9050610f178582611bc0565b610f218187611bde565b60001515610f58610f30611480565b600b60009054906101000a900473ffffffffffffffffffffffffffffffffffffffff16611119565b151503610f8d57610f8c600b60009054906101000a900473ffffffffffffffffffffffffffffffffffffffff166001610d21565b5b600b60009054906101000a900473ffffffffffffffffffffffffffffffffffffffff1673ffffffffffffffffffffffffffffffffffffffff1663fb8856f0308387876040518563ffffffff1660e01b8152600401610fee9493929190613791565b600060405180830381600087803b15801561100857600080fd5b505af115801561101c573d6000803e3d6000fd5b5050505080915050949350505050565b606061103782611c4b565b611076576040517f08c379a000000000000000000000000000000000000000000000000000000000815260040161106d90613848565b60405180910390fd5b600c6000838152602001908152602001600020805461109490613029565b80601f01602080910402602001604051908101604052809291908181526020018280546110c090613029565b801561110d5780601f106110e25761010080835404028352916020019161110d565b820191906000526020600020905b8154815290600101906020018083116110f057829003601f168201915b50505050509050919050565b6000600560008473ffffffffffffffffffffffffffffffffffffffff1673ffffffffffffffffffffffffffffffffffffffff16815260200190815260200160002060008373ffffffffffffffffffffffffffffffffffffffff1673ffffffffffffffffffffffffffffffffffffffff16815260200190815260200160002060009054906101000a900460ff16905092915050565b6111b5611541565b600073ffffffffffffffffffffffffffffffffffffffff168173ffffffffffffffffffffffffffffffffffffffff1603611224576040517f08c379a000000000000000000000000000000000000000000000000000000000815260040161121b906138da565b60405180910390fd5b61122d81611932565b50565b60008211611273576040517f08c379a000000000000000000000000000000000000000000000000000000000815260040161126a906131ca565b60405180910390fd5b8186869050146112b8576040517f08c379a00000000000000000000000000000000000000000000000000000000081526004016112af90613946565b60405180910390fd5b60005b8281101561134a576113368787838181106112d9576112d86134a9565b5b90506020028101906112eb9190613975565b8080601f016020809104026020016040519081016040528093929190818152602001838380828437600081840152601f19601f82011690508083019250505050505050868685610d99565b50808061134290613219565b9150506112bb565b50505050505050565b60007f80ac58cd000000000000000000000000000000000000000000000000000000007bffffffffffffffffffffffffffffffffffffffffffffffffffffffff1916827bffffffffffffffffffffffffffffffffffffffffffffffffffffffff1916148061141e57507f5b5e139f000000000000000000000000000000000000000000000000000000007bffffffffffffffffffffffffffffffffffffffffffffffffffffffff1916827bffffffffffffffffffffffffffffffffffffffffffffffffffffffff1916145b8061142e575061142d82611cb7565b5b9050919050565b61143e81611c4b565b61147d576040517f08c379a000000000000000000000000000000000000000000000000000000000815260040161147490613524565b60405180910390fd5b50565b600033905090565b816004600083815260200190815260200160002060006101000a81548173ffffffffffffffffffffffffffffffffffffffff021916908373ffffffffffffffffffffffffffffffffffffffff160217905550808273ffffffffffffffffffffffffffffffffffffffff166114fb83610ac3565b73ffffffffffffffffffffffffffffffffffffffff167f8c5be1e5ebec7d5bd14f71427d1e84f3dd0314c0f7b2291e5b200ac8c7c3b92560405160405180910390a45050565b611549611480565b73ffffffffffffffffffffffffffffffffffffffff16611567610c65565b73ffffffffffffffffffffffffffffffffffffffff16146115bd576040517f08c379a00000000000000000000000000000000000000000000000000000000081526004016115b490613a24565b60405180910390fd5b565b60606000835111611605576040517f08c379a00000000000000000000000000000000000000000000000000000000081526004016115fc90613a90565b60405180910390fd5b8261160f83611d21565b604051602001611620929190613aec565b604051602081830303815290604052905092915050565b60008061164383610ac3565b90508073ffffffffffffffffffffffffffffffffffffffff168473ffffffffffffffffffffffffffffffffffffffff16148061168557506116848185611119565b5b806116c357508373ffffffffffffffffffffffffffffffffffffffff166116ab846105ec565b73ffffffffffffffffffffffffffffffffffffffff16145b91505092915050565b8273ffffffffffffffffffffffffffffffffffffffff166116ec82610ac3565b73ffffffffffffffffffffffffffffffffffffffff1614611742576040517f08c379a000000000000000000000000000000000000000000000000000000000815260040161173990613b82565b60405180910390fd5b600073ffffffffffffffffffffffffffffffffffffffff168273ffffffffffffffffffffffffffffffffffffffff16036117b1576040517f08c379a00000000000000000000000000000000000000000000000000000000081526004016117a890613c14565b60405180910390fd5b6117bc838383611e81565b6117c7600082611488565b6001600360008573ffffffffffffffffffffffffffffffffffffffff1673ffffffffffffffffffffffffffffffffffffffff16815260200190815260200160002060008282546118179190613c34565b925050819055506001600360008473ffffffffffffffffffffffffffffffffffffffff1673ffffffffffffffffffffffffffffffffffffffff168152602001908152602001600020600082825461186e9190613c68565b92505081905550816002600083815260200190815260200160002060006101000a81548173ffffffffffffffffffffffffffffffffffffffff021916908373ffffffffffffffffffffffffffffffffffffffff160217905550808273ffffffffffffffffffffffffffffffffffffffff168473ffffffffffffffffffffffffffffffffffffffff167fddf252ad1be2c89b69c2b068fc378daa952ba7f163c4a11628f55a4df523b3ef60405160405180910390a461192d838383611f93565b505050565b6000600a60009054906101000a900473ffffffffffffffffffffffffffffffffffffffff16905081600a60006101000a81548173ffffffffffffffffffffffffffffffffffffffff021916908373ffffffffffffffffffffffffffffffffffffffff1602179055508173ffffffffffffffffffffffffffffffffffffffff168173ffffffffffffffffffffffffffffffffffffffff167f8be0079c531659141344cd1fd0a4f28419497f9722a3daafe3b4186f6b6457e060405160405180910390a35050565b8173ffffffffffffffffffffffffffffffffffffffff168373ffffffffffffffffffffffffffffffffffffffff1603611a66576040517f08c379a0000000000000000000000000000000000000000000000000000000008152600401611a5d90613ce8565b60405180910390fd5b80600560008573ffffffffffffffffffffffffffffffffffffffff1673ffffffffffffffffffffffffffffffffffffffff16815260200190815260200160002060008473ffffffffffffffffffffffffffffffffffffffff1673ffffffffffffffffffffffffffffffffffffffff16815260200190815260200160002060006101000a81548160ff0219169083151502179055508173ffffffffffffffffffffffffffffffffffffffff168373ffffffffffffffffffffffffffffffffffffffff167f17307eab39ab6107e8899845ad3d59bd9653f200f220920489ca2b5937696c3183604051611b579190612735565b60405180910390a3505050565b611b6f8484846116cc565b611b7b84848484611f98565b611bba576040517f08c379a0000000000000000000000000000000000000000000000000000000008152600401611bb190613d7a565b60405180910390fd5b50505050565b611bda82826040518060200160405280600081525061211f565b5050565b611be782611c4b565b611c26576040517f08c379a0000000000000000000000000000000000000000000000000000000008152600401611c1d90613e0c565b60405180910390fd5b80600c60008481526020019081526020016000209081611c469190613fce565b505050565b60008073ffffffffffffffffffffffffffffffffffffffff166002600084815260200190815260200160002060009054906101000a900473ffffffffffffffffffffffffffffffffffffffff1673ffffffffffffffffffffffffffffffffffffffff1614159050919050565b60007f01ffc9a7000000000000000000000000000000000000000000000000000000007bffffffffffffffffffffffffffffffffffffffffffffffffffffffff1916827bffffffffffffffffffffffffffffffffffffffffffffffffffffffff1916149050919050565b606060008203611d68576040518060400160405280600181526020017f30000000000000000000000000000000000000000000000000000000000000008152509050611e7c565b600082905060005b60008214611d9a578080611d8390613219565b915050600a82611d9391906140cf565b9150611d70565b60008167ffffffffffffffff811115611db657611db5612937565b5b6040519080825280601f01601f191660200182016040528015611de85781602001600182028036833780820191505090505b5090505b60008514611e7557600182611e019190613c34565b9150600a85611e109190614100565b6030611e1c9190613c68565b60f81b818381518110611e3257611e316134a9565b5b60200101907effffffffffffffffffffffffffffffffffffffffffffffffffffffffffffff1916908160001a905350600a85611e6e91906140cf565b9450611dec565b8093505050505b919050565b611e8c83838361217a565b600073ffffffffffffffffffffffffffffffffffffffff168373ffffffffffffffffffffffffffffffffffffffff1603611ece57611ec98161217f565b611f0d565b8173ffffffffffffffffffffffffffffffffffffffff168373ffffffffffffffffffffffffffffffffffffffff1614611f0c57611f0b83826121c8565b5b5b600073ffffffffffffffffffffffffffffffffffffffff168273ffffffffffffffffffffffffffffffffffffffff1603611f4f57611f4a81612335565b611f8e565b8273ffffffffffffffffffffffffffffffffffffffff168273ffffffffffffffffffffffffffffffffffffffff1614611f8d57611f8c8282612406565b5b5b505050565b505050565b6000611fb98473ffffffffffffffffffffffffffffffffffffffff16612485565b15612112578373ffffffffffffffffffffffffffffffffffffffff1663150b7a02611fe2611480565b8786866040518563ffffffff1660e01b81526004016120049493929190614186565b6020604051808303816000875af192505050801561204057506040513d601f19601f8201168201806040525081019061203d91906141e7565b60015b6120c2573d8060008114612070576040519150601f19603f3d011682016040523d82523d6000602084013e612075565b606091505b5060008151036120ba576040517f08c379a00000000000000000000000000000000000000000000000000000000081526004016120b190613d7a565b60405180910390fd5b805181602001fd5b63150b7a0260e01b7bffffffffffffffffffffffffffffffffffffffffffffffffffffffff1916817bffffffffffffffffffffffffffffffffffffffffffffffffffffffff191614915050612117565b600190505b949350505050565b61212983836124a8565b6121366000848484611f98565b612175576040517f08c379a000000000000000000000000000000000000000000000000000000000815260040161216c90613d7a565b60405180910390fd5b505050565b505050565b6008805490506009600083815260200190815260200160002081905550600881908060018154018082558091505060019003906000526020600020016000909190919091505550565b600060016121d584610b74565b6121df9190613c34565b90506000600760008481526020019081526020016000205490508181146122c4576000600660008673ffffffffffffffffffffffffffffffffffffffff1673ffffffffffffffffffffffffffffffffffffffff168152602001908152602001600020600084815260200190815260200160002054905080600660008773ffffffffffffffffffffffffffffffffffffffff1673ffffffffffffffffffffffffffffffffffffffff168152602001908152602001600020600084815260200190815260200160002081905550816007600083815260200190815260200160002081905550505b6007600084815260200190815260200160002060009055600660008573ffffffffffffffffffffffffffffffffffffffff1673ffffffffffffffffffffffffffffffffffffffff16815260200190815260200160002060008381526020019081526020016000206000905550505050565b600060016008805490506123499190613c34565b9050600060096000848152602001908152602001600020549050600060088381548110612379576123786134a9565b5b90600052602060002001549050806008838154811061239b5761239a6134a9565b5b9060005260206000200181905550816009600083815260200190815260200160002081905550600960008581526020019081526020016000206000905560088054806123ea576123e9614214565b5b6001900381819060005260206000200160009055905550505050565b600061241183610b74565b905081600660008573ffffffffffffffffffffffffffffffffffffffff1673ffffffffffffffffffffffffffffffffffffffff168152602001908152602001600020600083815260200190815260200160002081905550806007600084815260200190815260200160002081905550505050565b6000808273ffffffffffffffffffffffffffffffffffffffff163b119050919050565b600073ffffffffffffffffffffffffffffffffffffffff168273ffffffffffffffffffffffffffffffffffffffff1603612517576040517f08c379a000000000000000000000000000000000000000000000000000000000815260040161250e9061428f565b60405180910390fd5b61252081611c4b565b15612560576040517f08c379a0000000000000000000000000000000000000000000000000000000008152600401612557906142fb565b60405180910390fd5b61256c60008383611e81565b6001600360008473ffffffffffffffffffffffffffffffffffffffff1673ffffffffffffffffffffffffffffffffffffffff16815260200190815260200160002060008282546125bc9190613c68565b92505081905550816002600083815260200190815260200160002060006101000a81548173ffffffffffffffffffffffffffffffffffffffff021916908373ffffffffffffffffffffffffffffffffffffffff160217905550808273ffffffffffffffffffffffffffffffffffffffff16600073ffffffffffffffffffffffffffffffffffffffff167fddf252ad1be2c89b69c2b068fc378daa952ba7f163c4a11628f55a4df523b3ef60405160405180910390a461267d60008383611f93565b5050565b6000604051905090565b600080fd5b600080fd5b60007fffffffff0000000000000000000000000000000000000000000000000000000082169050919050565b6126ca81612695565b81146126d557600080fd5b50565b6000813590506126e7816126c1565b92915050565b6000602082840312156127035761270261268b565b5b6000612711848285016126d8565b91505092915050565b60008115159050919050565b61272f8161271a565b82525050565b600060208201905061274a6000830184612726565b92915050565b600081519050919050565b600082825260208201905092915050565b60005b8381101561278a57808201518184015260208101905061276f565b60008484015250505050565b6000601f19601f8301169050919050565b60006127b282612750565b6127bc818561275b565b93506127cc81856020860161276c565b6127d581612796565b840191505092915050565b600060208201905081810360008301526127fa81846127a7565b905092915050565b6000819050919050565b61281581612802565b811461282057600080fd5b50565b6000813590506128328161280c565b92915050565b60006020828403121561284e5761284d61268b565b5b600061285c84828501612823565b91505092915050565b600073ffffffffffffffffffffffffffffffffffffffff82169050919050565b600061289082612865565b9050919050565b6128a081612885565b82525050565b60006020820190506128bb6000830184612897565b92915050565b6128ca81612885565b81146128d557600080fd5b50565b6000813590506128e7816128c1565b92915050565b600080604083850312156129045761290361268b565b5b6000612912858286016128d8565b925050602061292385828601612823565b9150509250929050565b600080fd5b600080fd5b7f4e487b7100000000000000000000000000000000000000000000000000000000600052604160045260246000fd5b61296f82612796565b810181811067ffffffffffffffff8211171561298e5761298d612937565b5b80604052505050565b60006129a1612681565b90506129ad8282612966565b919050565b600067ffffffffffffffff8211156129cd576129cc612937565b5b6129d682612796565b9050602081019050919050565b82818337600083830152505050565b6000612a05612a00846129b2565b612997565b905082815260208101848484011115612a2157612a20612932565b5b612a2c8482856129e3565b509392505050565b600082601f830112612a4957612a4861292d565b5b8135612a598482602086016129f2565b91505092915050565b60038110612a6f57600080fd5b50565b600081359050612a8181612a62565b92915050565b600080600080600060a08688031215612aa357612aa261268b565b5b600086013567ffffffffffffffff811115612ac157612ac0612690565b5b612acd88828901612a34565b9550506020612ade888289016128d8565b9450506040612aef88828901612823565b9350506060612b0088828901612823565b9250506080612b1188828901612a72565b9150509295509295909350565b6000612b2982612885565b9050919050565b612b3981612b1e565b8114612b4457600080fd5b50565b600081359050612b5681612b30565b92915050565b600060208284031215612b7257612b7161268b565b5b6000612b8084828501612b47565b91505092915050565b612b9281612802565b82525050565b6000602082019050612bad6000830184612b89565b92915050565b600080600060608486031215612bcc57612bcb61268b565b5b6000612bda868287016128d8565b9350506020612beb868287016128d8565b9250506040612bfc86828701612823565b9150509250925092565b600060208284031215612c1c57612c1b61268b565b5b6000612c2a848285016128d8565b91505092915050565b6000819050919050565b6000612c58612c53612c4e84612865565b612c33565b612865565b9050919050565b6000612c6a82612c3d565b9050919050565b6000612c7c82612c5f565b9050919050565b612c8c81612c71565b82525050565b6000602082019050612ca76000830184612c83565b92915050565b612cb68161271a565b8114612cc157600080fd5b50565b600081359050612cd381612cad565b92915050565b60008060408385031215612cf057612cef61268b565b5b6000612cfe858286016128d8565b9250506020612d0f85828601612cc4565b9150509250929050565b600067ffffffffffffffff821115612d3457612d33612937565b5b612d3d82612796565b9050602081019050919050565b6000612d5d612d5884612d19565b612997565b905082815260208101848484011115612d7957612d78612932565b5b612d848482856129e3565b509392505050565b600082601f830112612da157612da061292d565b5b8135612db1848260208601612d4a565b91505092915050565b60008060008060808587031215612dd457612dd361268b565b5b6000612de2878288016128d8565b9450506020612df3878288016128d8565b9350506040612e0487828801612823565b925050606085013567ffffffffffffffff811115612e2557612e24612690565b5b612e3187828801612d8c565b91505092959194509250565b60008060008060808587031215612e5757612e5661268b565b5b600085013567ffffffffffffffff811115612e7557612e74612690565b5b612e8187828801612a34565b9450506020612e92878288016128d8565b9350506040612ea387828801612823565b9250506060612eb487828801612a72565b91505092959194509250565b60008060408385031215612ed757612ed661268b565b5b6000612ee5858286016128d8565b9250506020612ef6858286016128d8565b9150509250929050565b600080fd5b600080fd5b60008083601f840112612f2057612f1f61292d565b5b8235905067ffffffffffffffff811115612f3d57612f3c612f00565b5b602083019150836020820283011115612f5957612f58612f05565b5b9250929050565b60008060008060008060a08789031215612f7d57612f7c61268b565b5b600087013567ffffffffffffffff811115612f9b57612f9a612690565b5b612fa789828a01612f0a565b96509650506020612fba89828a016128d8565b9450506040612fcb89828a01612823565b9350506060612fdc89828a01612823565b9250506080612fed89828a01612a72565b9150509295509295509295565b7f4e487b7100000000000000000000000000000000000000000000000000000000600052602260045260246000fd5b6000600282049050600182168061304157607f821691505b60208210810361305457613053612ffa565b5b50919050565b7f4552433732313a20617070726f76616c20746f2063757272656e74206f776e6560008201527f7200000000000000000000000000000000000000000000000000000000000000602082015250565b60006130b660218361275b565b91506130c18261305a565b604082019050919050565b600060208201905081810360008301526130e5816130a9565b9050919050565b7f4552433732313a20617070726f76652063616c6c6572206973206e6f7420746f60008201527f6b656e206f776e6572206e6f7220617070726f76656420666f7220616c6c0000602082015250565b6000613148603e8361275b565b9150613153826130ec565b604082019050919050565b600060208201905081810360008301526131778161313b565b9050919050565b7f77726f6e6720616d6f756e740000000000000000000000000000000000000000600082015250565b60006131b4600c8361275b565b91506131bf8261317e565b602082019050919050565b600060208201905081810360008301526131e3816131a7565b9050919050565b7f4e487b7100000000000000000000000000000000000000000000000000000000600052601160045260246000fd5b600061322482612802565b91507fffffffffffffffffffffffffffffffffffffffffffffffffffffffffffffffff8203613256576132556131ea565b5b600182019050919050565b7f4d61726b6574706c6163653a20686173206265656e20616c726561647920636f60008201527f6e66696775726564000000000000000000000000000000000000000000000000602082015250565b60006132bd60288361275b565b91506132c882613261565b604082019050919050565b600060208201905081810360008301526132ec816132b0565b9050919050565b7f4552433732313a2063616c6c6572206973206e6f7420746f6b656e206f776e6560008201527f72206e6f7220617070726f766564000000000000000000000000000000000000602082015250565b600061334f602e8361275b565b915061335a826132f3565b604082019050919050565b6000602082019050818103600083015261337e81613342565b9050919050565b7f455243373231456e756d657261626c653a206f776e657220696e646578206f7560008201527f74206f6620626f756e6473000000000000000000000000000000000000000000602082015250565b60006133e1602b8361275b565b91506133ec82613385565b604082019050919050565b60006020820190508181036000830152613410816133d4565b9050919050565b7f455243373231456e756d657261626c653a20676c6f62616c20696e646578206f60008201527f7574206f6620626f756e64730000000000000000000000000000000000000000602082015250565b6000613473602c8361275b565b915061347e82613417565b604082019050919050565b600060208201905081810360008301526134a281613466565b9050919050565b7f4e487b7100000000000000000000000000000000000000000000000000000000600052603260045260246000fd5b7f4552433732313a20696e76616c696420746f6b656e2049440000000000000000600082015250565b600061350e60188361275b565b9150613519826134d8565b602082019050919050565b6000602082019050818103600083015261353d81613501565b9050919050565b7f4552433732313a2061646472657373207a65726f206973206e6f74206120766160008201527f6c6964206f776e65720000000000000000000000000000000000000000000000602082015250565b60006135a060298361275b565b91506135ab82613544565b604082019050919050565b600060208201905081810360008301526135cf81613593565b9050919050565b7f496e76616c696420616464726573730000000000000000000000000000000000600082015250565b600061360c600f8361275b565b9150613617826135d6565b602082019050919050565b6000602082019050818103600083015261363b816135ff565b9050919050565b7f496e76616c6964206d61726b6574706c61636520616464726573730000000000600082015250565b6000613678601b8361275b565b915061368382613642565b602082019050919050565b600060208201905081810360008301526136a78161366b565b9050919050565b7f4e487b7100000000000000000000000000000000000000000000000000000000600052602160045260246000fd5b7f4d494e543a20496e76616c696420706179207479706500000000000000000000600082015250565b600061371360168361275b565b915061371e826136dd565b602082019050919050565b6000602082019050818103600083015261374281613706565b9050919050565b6003811061375a576137596136ae565b5b50565b600081905061376b82613749565b919050565b600061377b8261375d565b9050919050565b61378b81613770565b82525050565b60006080820190506137a66000830187612897565b6137b36020830186612b89565b6137c06040830185612b89565b6137cd6060830184613782565b95945050505050565b7f4552433732314d657461646174613a2055524920717565727920666f72206e6f60008201527f6e6578697374656e7420746f6b656e0000000000000000000000000000000000602082015250565b6000613832602f8361275b565b915061383d826137d6565b604082019050919050565b6000602082019050818103600083015261386181613825565b9050919050565b7f4f776e61626c653a206e6577206f776e657220697320746865207a65726f206160008201527f6464726573730000000000000000000000000000000000000000000000000000602082015250565b60006138c460268361275b565b91506138cf82613868565b604082019050919050565b600060208201905081810360008301526138f3816138b7565b9050919050565b7f496e76616c696420706172616d73000000000000000000000000000000000000600082015250565b6000613930600e8361275b565b915061393b826138fa565b602082019050919050565b6000602082019050818103600083015261395f81613923565b9050919050565b600080fd5b600080fd5b600080fd5b6000808335600160200384360303811261399257613991613966565b5b80840192508235915067ffffffffffffffff8211156139b4576139b361396b565b5b6020830192506001820236038313156139d0576139cf613970565b5b509250929050565b7f4f776e61626c653a2063616c6c6572206973206e6f7420746865206f776e6572600082015250565b6000613a0e60208361275b565b9150613a19826139d8565b602082019050919050565b60006020820190508181036000830152613a3d81613a01565b9050919050565b7f496e76616c696420626173652055524900000000000000000000000000000000600082015250565b6000613a7a60108361275b565b9150613a8582613a44565b602082019050919050565b60006020820190508181036000830152613aa981613a6d565b9050919050565b600081905092915050565b6000613ac682612750565b613ad08185613ab0565b9350613ae081856020860161276c565b80840191505092915050565b6000613af88285613abb565b9150613b048284613abb565b91508190509392505050565b7f4552433732313a207472616e736665722066726f6d20696e636f72726563742060008201527f6f776e6572000000000000000000000000000000000000000000000000000000602082015250565b6000613b6c60258361275b565b9150613b7782613b10565b604082019050919050565b60006020820190508181036000830152613b9b81613b5f565b9050919050565b7f4552433732313a207472616e7366657220746f20746865207a65726f2061646460008201527f7265737300000000000000000000000000000000000000000000000000000000602082015250565b6000613bfe60248361275b565b9150613c0982613ba2565b604082019050919050565b60006020820190508181036000830152613c2d81613bf1565b9050919050565b6000613c3f82612802565b9150613c4a83612802565b9250828203905081811115613c6257613c616131ea565b5b92915050565b6000613c7382612802565b9150613c7e83612802565b9250828201905080821115613c9657613c956131ea565b5b92915050565b7f4552433732313a20617070726f766520746f2063616c6c657200000000000000600082015250565b6000613cd260198361275b565b9150613cdd82613c9c565b602082019050919050565b60006020820190508181036000830152613d0181613cc5565b9050919050565b7f4552433732313a207472616e7366657220746f206e6f6e20455243373231526560008201527f63656976657220696d706c656d656e7465720000000000000000000000000000602082015250565b6000613d6460328361275b565b9150613d6f82613d08565b604082019050919050565b60006020820190508181036000830152613d9381613d57565b9050919050565b7f45524337323155524953746f726167653a2055524920736574206f66206e6f6e60008201527f6578697374656e7420746f6b656e000000000000000000000000000000000000602082015250565b6000613df6602e8361275b565b9150613e0182613d9a565b604082019050919050565b60006020820190508181036000830152613e2581613de9565b9050919050565b60008190508160005260206000209050919050565b60006020601f8301049050919050565b600082821b905092915050565b600060088302613e8e7fffffffffffffffffffffffffffffffffffffffffffffffffffffffffffffffff82613e51565b613e988683613e51565b95508019841693508086168417925050509392505050565b6000613ecb613ec6613ec184612802565b612c33565b612802565b9050919050565b6000819050919050565b613ee583613eb0565b613ef9613ef182613ed2565b848454613e5e565b825550505050565b600090565b613f0e613f01565b613f19818484613edc565b505050565b5b81811015613f3d57613f32600082613f06565b600181019050613f1f565b5050565b601f821115613f8257613f5381613e2c565b613f5c84613e41565b81016020851015613f6b578190505b613f7f613f7785613e41565b830182613f1e565b50505b505050565b600082821c905092915050565b6000613fa560001984600802613f87565b1980831691505092915050565b6000613fbe8383613f94565b9150826002028217905092915050565b613fd782612750565b67ffffffffffffffff811115613ff057613fef612937565b5b613ffa8254613029565b614005828285613f41565b600060209050601f8311600181146140385760008415614026578287015190505b6140308582613fb2565b865550614098565b601f19841661404686613e2c565b60005b8281101561406e57848901518255600182019150602085019450602081019050614049565b8683101561408b5784890151614087601f891682613f94565b8355505b6001600288020188555050505b505050505050565b7f4e487b7100000000000000000000000000000000000000000000000000000000600052601260045260246000fd5b60006140da82612802565b91506140e583612802565b9250826140f5576140f46140a0565b5b828204905092915050565b600061410b82612802565b915061411683612802565b925082614126576141256140a0565b5b828206905092915050565b600081519050919050565b600082825260208201905092915050565b600061415882614131565b614162818561413c565b935061417281856020860161276c565b61417b81612796565b840191505092915050565b600060808201905061419b6000830187612897565b6141a86020830186612897565b6141b56040830185612b89565b81810360608301526141c7818461414d565b905095945050505050565b6000815190506141e1816126c1565b92915050565b6000602082840312156141fd576141fc61268b565b5b600061420b848285016141d2565b91505092915050565b7f4e487b7100000000000000000000000000000000000000000000000000000000600052603160045260246000fd5b7f4552433732313a206d696e7420746f20746865207a65726f2061646472657373600082015250565b600061427960208361275b565b915061428482614243565b602082019050919050565b600060208201905081810360008301526142a88161426c565b9050919050565b7f4552433732313a20746f6b656e20616c7265616479206d696e74656400000000600082015250565b60006142e5601c8361275b565b91506142f0826142af565b602082019050919050565b60006020820190508181036000830152614314816142d8565b905091905056fea2646970667358221220abdb57ff1ce1baa4d42c085dda1d119e52601e714425295b018c9e65096d72c464736f6c63430008110033",
  "linkReferences": {},
  "deployedLinkReferences": {}
}