{
  "_format": "hh-sol-artifact-1",
  "contractName": "NichoNFT",
  "sourceName": "contracts/NichoNFT.sol",
  "abi": [
    {
      "inputs": [],
      "stateMutability": "nonpayable",
      "type": "constructor"
    },
    {
      "anonymous": false,
      "inputs": [
        {
          "indexed": true,
          "internalType": "address",
          "name": "owner",
          "type": "address"
        },
        {
          "indexed": true,
          "internalType": "address",
          "name": "approved",
          "type": "address"
        },
        {
          "indexed": true,
          "internalType": "uint256",
          "name": "tokenId",
          "type": "uint256"
        }
      ],
      "name": "Approval",
      "type": "event"
    },
    {
      "anonymous": false,
      "inputs": [
        {
          "indexed": true,
          "internalType": "address",
          "name": "owner",
          "type": "address"
        },
        {
          "indexed": true,
          "internalType": "address",
          "name": "operator",
          "type": "address"
        },
        {
          "indexed": false,
          "internalType": "bool",
          "name": "approved",
          "type": "bool"
        }
      ],
      "name": "ApprovalForAll",
      "type": "event"
    },
    {
      "anonymous": false,
      "inputs": [
        {
          "indexed": true,
          "internalType": "address",
          "name": "previousOwner",
          "type": "address"
        },
        {
          "indexed": true,
          "internalType": "address",
          "name": "newOwner",
          "type": "address"
        }
      ],
      "name": "OwnershipTransferred",
      "type": "event"
    },
    {
      "anonymous": false,
      "inputs": [
        {
          "indexed": true,
          "internalType": "address",
          "name": "from",
          "type": "address"
        },
        {
          "indexed": true,
          "internalType": "address",
          "name": "to",
          "type": "address"
        },
        {
          "indexed": true,
          "internalType": "uint256",
          "name": "tokenId",
          "type": "uint256"
        }
      ],
      "name": "Transfer",
      "type": "event"
    },
    {
      "inputs": [
        {
          "internalType": "address",
          "name": "to",
          "type": "address"
        },
        {
          "internalType": "uint256",
          "name": "tokenId",
          "type": "uint256"
        }
      ],
      "name": "approve",
      "outputs": [],
      "stateMutability": "nonpayable",
      "type": "function"
    },
    {
      "inputs": [
        {
          "internalType": "address",
          "name": "owner",
          "type": "address"
        }
      ],
      "name": "balanceOf",
      "outputs": [
        {
          "internalType": "uint256",
          "name": "",
          "type": "uint256"
        }
      ],
      "stateMutability": "view",
      "type": "function"
    },
    {
      "inputs": [
        {
          "internalType": "string[]",
          "name": "_tokenURI",
          "type": "string[]"
        },
        {
          "internalType": "address",
          "name": "_toAddress",
          "type": "address"
        },
        {
          "internalType": "uint256",
          "name": "_price",
          "type": "uint256"
        },
        {
          "internalType": "uint256",
          "name": "_amount",
          "type": "uint256"
        },
        {
          "internalType": "enum IHelper.PayType",
          "name": "_payType",
          "type": "uint8"
        }
      ],
      "name": "batchDNMint",
      "outputs": [],
      "stateMutability": "nonpayable",
      "type": "function"
    },
    {
      "inputs": [
        {
          "internalType": "string",
          "name": "_baseTokenURI",
          "type": "string"
        },
        {
          "internalType": "address",
          "name": "_toAddress",
          "type": "address"
        },
        {
          "internalType": "uint256",
          "name": "_price",
          "type": "uint256"
        },
        {
          "internalType": "uint256",
          "name": "_amount",
          "type": "uint256"
        },
        {
          "internalType": "enum IHelper.PayType",
          "name": "_payType",
          "type": "uint8"
        }
      ],
      "name": "batchIDMint",
      "outputs": [],
      "stateMutability": "nonpayable",
      "type": "function"
    },
    {
      "inputs": [
        {
          "internalType": "string",
          "name": "_tokenURI",
          "type": "string"
        },
        {
          "internalType": "address",
          "name": "_toAddress",
          "type": "address"
        },
        {
          "internalType": "uint256",
          "name": "_price",
          "type": "uint256"
        },
        {
          "internalType": "uint256",
          "name": "_amount",
          "type": "uint256"
        },
        {
          "internalType": "enum IHelper.PayType",
          "name": "_payType",
          "type": "uint8"
        }
      ],
      "name": "batchSNMint",
      "outputs": [],
      "stateMutability": "nonpayable",
      "type": "function"
    },
    {
      "inputs": [
        {
          "internalType": "uint256",
          "name": "tokenId",
          "type": "uint256"
        }
      ],
      "name": "getApproved",
      "outputs": [
        {
          "internalType": "address",
          "name": "",
          "type": "address"
        }
      ],
      "stateMutability": "view",
      "type": "function"
    },
    {
      "inputs": [
        {
          "internalType": "address",
          "name": "owner",
          "type": "address"
        },
        {
          "internalType": "address",
          "name": "operator",
          "type": "address"
        }
      ],
      "name": "isApprovedForAll",
      "outputs": [
        {
          "internalType": "bool",
          "name": "",
          "type": "bool"
        }
      ],
      "stateMutability": "view",
      "type": "function"
    },
    {
      "inputs": [
        {
          "internalType": "string",
          "name": "_tokenURI",
          "type": "string"
        },
        {
          "internalType": "address",
          "name": "_toAddress",
          "type": "address"
        },
        {
          "internalType": "uint256",
          "name": "price",
          "type": "uint256"
        },
        {
          "internalType": "enum IHelper.PayType",
          "name": "_payType",
          "type": "uint8"
        }
      ],
      "name": "mint",
      "outputs": [
        {
          "internalType": "uint256",
          "name": "",
          "type": "uint256"
        }
      ],
      "stateMutability": "nonpayable",
      "type": "function"
    },
    {
      "inputs": [],
      "name": "mintRewardsEnable",
      "outputs": [
        {
          "internalType": "bool",
          "name": "",
          "type": "bool"
        }
      ],
      "stateMutability": "view",
      "type": "function"
    },
    {
      "inputs": [],
      "name": "name",
      "outputs": [
        {
          "internalType": "string",
          "name": "",
          "type": "string"
        }
      ],
      "stateMutability": "view",
      "type": "function"
    },
    {
      "inputs": [],
      "name": "nichonftMarketplaceContract",
      "outputs": [
        {
          "internalType": "contract INichoNFTMarketplace",
          "name": "",
          "type": "address"
        }
      ],
      "stateMutability": "view",
      "type": "function"
    },
    {
      "inputs": [],
      "name": "nichonftRewardsContract",
      "outputs": [
        {
          "internalType": "contract INichoNFTRewards",
          "name": "",
          "type": "address"
        }
      ],
      "stateMutability": "view",
      "type": "function"
    },
    {
      "inputs": [],
      "name": "owner",
      "outputs": [
        {
          "internalType": "address",
          "name": "",
          "type": "address"
        }
      ],
      "stateMutability": "view",
      "type": "function"
    },
    {
      "inputs": [
        {
          "internalType": "uint256",
          "name": "tokenId",
          "type": "uint256"
        }
      ],
      "name": "ownerOf",
      "outputs": [
        {
          "internalType": "address",
          "name": "",
          "type": "address"
        }
      ],
      "stateMutability": "view",
      "type": "function"
    },
    {
      "inputs": [],
      "name": "renounceOwnership",
      "outputs": [],
      "stateMutability": "nonpayable",
      "type": "function"
    },
    {
      "inputs": [
        {
          "internalType": "address",
          "name": "from",
          "type": "address"
        },
        {
          "internalType": "address",
          "name": "to",
          "type": "address"
        },
        {
          "internalType": "uint256",
          "name": "tokenId",
          "type": "uint256"
        }
      ],
      "name": "safeTransferFrom",
      "outputs": [],
      "stateMutability": "nonpayable",
      "type": "function"
    },
    {
      "inputs": [
        {
          "internalType": "address",
          "name": "from",
          "type": "address"
        },
        {
          "internalType": "address",
          "name": "to",
          "type": "address"
        },
        {
          "internalType": "uint256",
          "name": "tokenId",
          "type": "uint256"
        },
        {
          "internalType": "bytes",
          "name": "data",
          "type": "bytes"
        }
      ],
      "name": "safeTransferFrom",
      "outputs": [],
      "stateMutability": "nonpayable",
      "type": "function"
    },
    {
      "inputs": [
        {
          "internalType": "address",
          "name": "operator",
          "type": "address"
        },
        {
          "internalType": "bool",
          "name": "approved",
          "type": "bool"
        }
      ],
      "name": "setApprovalForAll",
      "outputs": [],
      "stateMutability": "nonpayable",
      "type": "function"
    },
    {
      "inputs": [
        {
          "internalType": "contract INichoNFTMarketplace",
          "name": "_nichonftMarketplace",
          "type": "address"
        }
      ],
      "name": "setMarketplaceContract",
      "outputs": [],
      "stateMutability": "nonpayable",
      "type": "function"
    },
    {
      "inputs": [
        {
          "internalType": "bool",
          "name": "_mintRewardsEnable",
          "type": "bool"
        }
      ],
      "name": "setMintRewardsEnable",
      "outputs": [],
      "stateMutability": "nonpayable",
      "type": "function"
    },
    {
      "inputs": [
        {
          "internalType": "contract INichoNFTRewards",
          "name": "_nichonftRewardsContract",
          "type": "address"
        }
      ],
      "name": "setRewardsContract",
      "outputs": [],
      "stateMutability": "nonpayable",
      "type": "function"
    },
    {
      "inputs": [
        {
          "internalType": "bytes4",
          "name": "interfaceId",
          "type": "bytes4"
        }
      ],
      "name": "supportsInterface",
      "outputs": [
        {
          "internalType": "bool",
          "name": "",
          "type": "bool"
        }
      ],
      "stateMutability": "view",
      "type": "function"
    },
    {
      "inputs": [],
      "name": "symbol",
      "outputs": [
        {
          "internalType": "string",
          "name": "",
          "type": "string"
        }
      ],
      "stateMutability": "view",
      "type": "function"
    },
    {
      "inputs": [
        {
          "internalType": "uint256",
          "name": "index",
          "type": "uint256"
        }
      ],
      "name": "tokenByIndex",
      "outputs": [
        {
          "internalType": "uint256",
          "name": "",
          "type": "uint256"
        }
      ],
      "stateMutability": "view",
      "type": "function"
    },
    {
      "inputs": [
        {
          "internalType": "address",
          "name": "owner",
          "type": "address"
        },
        {
          "internalType": "uint256",
          "name": "index",
          "type": "uint256"
        }
      ],
      "name": "tokenOfOwnerByIndex",
      "outputs": [
        {
          "internalType": "uint256",
          "name": "",
          "type": "uint256"
        }
      ],
      "stateMutability": "view",
      "type": "function"
    },
    {
      "inputs": [
        {
          "internalType": "uint256",
          "name": "tokenId",
          "type": "uint256"
        }
      ],
      "name": "tokenURI",
      "outputs": [
        {
          "internalType": "string",
          "name": "",
          "type": "string"
        }
      ],
      "stateMutability": "view",
      "type": "function"
    },
    {
      "inputs": [],
      "name": "totalSupply",
      "outputs": [
        {
          "internalType": "uint256",
          "name": "",
          "type": "uint256"
        }
      ],
      "stateMutability": "view",
      "type": "function"
    },
    {
      "inputs": [
        {
          "internalType": "address",
          "name": "from",
          "type": "address"
        },
        {
          "internalType": "address",
          "name": "to",
          "type": "address"
        },
        {
          "internalType": "uint256",
          "name": "tokenId",
          "type": "uint256"
        }
      ],
      "name": "transferFrom",
      "outputs": [],
      "stateMutability": "nonpayable",
      "type": "function"
    },
    {
      "inputs": [
        {
          "internalType": "address",
          "name": "newOwner",
          "type": "address"
        }
      ],
      "name": "transferOwnership",
      "outputs": [],
      "stateMutability": "nonpayable",
      "type": "function"
    }
  ],
  "bytecode": "0x60806040526000600c60146101000a81548160ff0219169083151502179055503480156200002c57600080fd5b506040518060400160405280600881526020017f4e6963686f4e46540000000000000000000000000000000000000000000000008152506040518060400160405280600581526020017f4e4943484f0000000000000000000000000000000000000000000000000000008152508160009081620000aa91906200042d565b508060019081620000bc91906200042d565b505050620000df620000d3620000e560201b60201c565b620000ed60201b60201c565b62000514565b600033905090565b6000600a60009054906101000a900473ffffffffffffffffffffffffffffffffffffffff16905081600a60006101000a81548173ffffffffffffffffffffffffffffffffffffffff021916908373ffffffffffffffffffffffffffffffffffffffff1602179055508173ffffffffffffffffffffffffffffffffffffffff168173ffffffffffffffffffffffffffffffffffffffff167f8be0079c531659141344cd1fd0a4f28419497f9722a3daafe3b4186f6b6457e060405160405180910390a35050565b600081519050919050565b7f4e487b7100000000000000000000000000000000000000000000000000000000600052604160045260246000fd5b7f4e487b7100000000000000000000000000000000000000000000000000000000600052602260045260246000fd5b600060028204905060018216806200023557607f821691505b6020821081036200024b576200024a620001ed565b5b50919050565b60008190508160005260206000209050919050565b60006020601f8301049050919050565b600082821b905092915050565b600060088302620002b57fffffffffffffffffffffffffffffffffffffffffffffffffffffffffffffffff8262000276565b620002c1868362000276565b95508019841693508086168417925050509392505050565b6000819050919050565b6000819050919050565b60006200030e620003086200030284620002d9565b620002e3565b620002d9565b9050919050565b6000819050919050565b6200032a83620002ed565b62000342620003398262000315565b84845462000283565b825550505050565b600090565b620003596200034a565b620003668184846200031f565b505050565b5b818110156200038e57620003826000826200034f565b6001810190506200036c565b5050565b601f821115620003dd57620003a78162000251565b620003b28462000266565b81016020851015620003c2578190505b620003da620003d18562000266565b8301826200036b565b50505b505050565b600082821c905092915050565b60006200040260001984600802620003e2565b1980831691505092915050565b60006200041d8383620003ef565b9150826002028217905092915050565b6200043882620001b3565b67ffffffffffffffff811115620004545762000453620001be565b5b6200046082546200021c565b6200046d82828562000392565b600060209050601f831160018114620004a5576000841562000490578287015190505b6200049c85826200040f565b8655506200050c565b601f198416620004b58662000251565b60005b82811015620004df57848901518255600182019150602085019450602081019050620004b8565b86831015620004ff5784890151620004fb601f891682620003ef565b8355505b6001600288020188555050505b505050505050565b61490d80620005246000396000f3fe608060405234801561001057600080fd5b50600436106101cf5760003560e01c806370a0823111610104578063aad1abdf116100a2578063dfa0dfa511610071578063dfa0dfa51461052c578063e985e9c514610548578063f2fde38b14610578578063fd80f9d414610594576101cf565b8063aad1abdf14610492578063b88d4fde146104b0578063b8ca8ea2146104cc578063c87b56dd146104fc576101cf565b80638da5cb5b116100de5780638da5cb5b1461041e57806395d89b411461043c57806398bc85441461045a578063a22cb46514610476576101cf565b806370a08231146103c6578063715018a6146103f6578063842236a414610400576101cf565b806318160ddd11610171578063311e45d41161014b578063311e45d41461032c57806342842e0e1461034a5780634f6ccce7146103665780636352211e14610396576101cf565b806318160ddd146102c257806323b872dd146102e05780632f745c59146102fc576101cf565b8063095ea7b3116101ad578063095ea7b3146102525780630d8758041461026e5780631102610e1461028a578063179f757a146102a6576101cf565b806301ffc9a7146101d457806306fdde0314610204578063081812fc14610222575b600080fd5b6101ee60048036038101906101e99190612a1f565b6105b0565b6040516101fb9190612a67565b60405180910390f35b61020c61062a565b6040516102199190612b12565b60405180910390f35b61023c60048036038101906102379190612b6a565b6106bc565b6040516102499190612bd8565b60405180910390f35b61026c60048036038101906102679190612c1f565b610702565b005b61028860048036038101906102839190612db9565b610819565b005b6102a4600480360381019061029f9190612e8e565b610895565b005b6102c060048036038101906102bb9190612db9565b610971565b005b6102ca6109fc565b6040516102d79190612eca565b60405180910390f35b6102fa60048036038101906102f59190612ee5565b610a09565b005b61031660048036038101906103119190612c1f565b610a69565b6040516103239190612eca565b60405180910390f35b610334610b0e565b6040516103419190612a67565b60405180910390f35b610364600480360381019061035f9190612ee5565b610b21565b005b610380600480360381019061037b9190612b6a565b610b41565b60405161038d9190612eca565b60405180910390f35b6103b060048036038101906103ab9190612b6a565b610bb2565b6040516103bd9190612bd8565b60405180910390f35b6103e060048036038101906103db9190612f38565b610c63565b6040516103ed9190612eca565b60405180910390f35b6103fe610d1a565b005b610408610d2e565b6040516104159190612fc4565b60405180910390f35b610426610d54565b6040516104339190612bd8565b60405180910390f35b610444610d7e565b6040516104519190612b12565b60405180910390f35b610474600480360381019061046f919061300b565b610e10565b005b610490600480360381019061048b9190613038565b610e8a565b005b61049a610ea0565b6040516104a79190613099565b60405180910390f35b6104ca60048036038101906104c59190613155565b610ec6565b005b6104e660048036038101906104e191906131d8565b610f28565b6040516104f39190612eca565b60405180910390f35b61051660048036038101906105119190612b6a565b61127c565b6040516105239190612b12565b60405180910390f35b61054660048036038101906105419190613299565b611369565b005b610562600480360381019061055d91906132c6565b611445565b60405161056f9190612a67565b60405180910390f35b610592600480360381019061058d9190612f38565b6114d9565b005b6105ae60048036038101906105a99190613366565b61155c565b005b60007f780e9d63000000000000000000000000000000000000000000000000000000007bffffffffffffffffffffffffffffffffffffffffffffffffffffffff1916827bffffffffffffffffffffffffffffffffffffffffffffffffffffffff19161480610623575061062282611685565b5b9050919050565b6060600080546106399061342f565b80601f01602080910402602001604051908101604052809291908181526020018280546106659061342f565b80156106b25780601f10610687576101008083540402835291602001916106b2565b820191906000526020600020905b81548152906001019060200180831161069557829003601f168201915b5050505050905090565b60006106c782611767565b6004600083815260200190815260200160002060009054906101000a900473ffffffffffffffffffffffffffffffffffffffff169050919050565b600061070d82610bb2565b90508073ffffffffffffffffffffffffffffffffffffffff168373ffffffffffffffffffffffffffffffffffffffff160361077d576040517f08c379a0000000000000000000000000000000000000000000000000000000008152600401610774906134d2565b60405180910390fd5b8073ffffffffffffffffffffffffffffffffffffffff1661079c6117b2565b73ffffffffffffffffffffffffffffffffffffffff1614806107cb57506107ca816107c56117b2565b611445565b5b61080a576040517f08c379a000000000000000000000000000000000000000000000000000000000815260040161080190613564565b60405180910390fd5b61081483836117ba565b505050565b6000821161085c576040517f08c379a0000000000000000000000000000000000000000000000000000000008152600401610853906135d0565b60405180910390fd5b600082905060005b8181101561088c5761087887878786610f28565b5080806108849061361f565b915050610864565b50505050505050565b61089d611873565b8073ffffffffffffffffffffffffffffffffffffffff16600b60009054906101000a900473ffffffffffffffffffffffffffffffffffffffff1673ffffffffffffffffffffffffffffffffffffffff160361092d576040517f08c379a0000000000000000000000000000000000000000000000000000000008152600401610924906136d9565b60405180910390fd5b80600b60006101000a81548173ffffffffffffffffffffffffffffffffffffffff021916908373ffffffffffffffffffffffffffffffffffffffff16021790555050565b600082116109b4576040517f08c379a00000000000000000000000000000000000000000000000000000000081526004016109ab906135d0565b60405180910390fd5b600082905060005b818110156109f35760006109d088836118f1565b90506109de81888887610f28565b505080806109eb9061361f565b9150506109bc565b50505050505050565b6000600880549050905090565b610a1a610a146117b2565b82611969565b610a59576040517f08c379a0000000000000000000000000000000000000000000000000000000008152600401610a509061376b565b60405180910390fd5b610a648383836119fe565b505050565b6000610a7483610c63565b8210610ab5576040517f08c379a0000000000000000000000000000000000000000000000000000000008152600401610aac906137fd565b60405180910390fd5b600660008473ffffffffffffffffffffffffffffffffffffffff1673ffffffffffffffffffffffffffffffffffffffff168152602001908152602001600020600083815260200190815260200160002054905092915050565b600c60149054906101000a900460ff1681565b610b3c83838360405180602001604052806000815250610ec6565b505050565b6000610b4b6109fc565b8210610b8c576040517f08c379a0000000000000000000000000000000000000000000000000000000008152600401610b839061388f565b60405180910390fd5b60088281548110610ba057610b9f6138af565b5b90600052602060002001549050919050565b6000806002600084815260200190815260200160002060009054906101000a900473ffffffffffffffffffffffffffffffffffffffff169050600073ffffffffffffffffffffffffffffffffffffffff168173ffffffffffffffffffffffffffffffffffffffff1603610c5a576040517f08c379a0000000000000000000000000000000000000000000000000000000008152600401610c519061392a565b60405180910390fd5b80915050919050565b60008073ffffffffffffffffffffffffffffffffffffffff168273ffffffffffffffffffffffffffffffffffffffff1603610cd3576040517f08c379a0000000000000000000000000000000000000000000000000000000008152600401610cca906139bc565b60405180910390fd5b600360008373ffffffffffffffffffffffffffffffffffffffff1673ffffffffffffffffffffffffffffffffffffffff168152602001908152602001600020549050919050565b610d22611873565b610d2c6000611c64565b565b600b60009054906101000a900473ffffffffffffffffffffffffffffffffffffffff1681565b6000600a60009054906101000a900473ffffffffffffffffffffffffffffffffffffffff16905090565b606060018054610d8d9061342f565b80601f0160208091040260200160405190810160405280929190818152602001828054610db99061342f565b8015610e065780601f10610ddb57610100808354040283529160200191610e06565b820191906000526020600020905b815481529060010190602001808311610de957829003601f168201915b5050505050905090565b610e18611873565b801515600c60149054906101000a900460ff16151503610e6d576040517f08c379a0000000000000000000000000000000000000000000000000000000008152600401610e6490613a28565b60405180910390fd5b80600c60146101000a81548160ff02191690831515021790555050565b610e9c610e956117b2565b8383611d2a565b5050565b600c60009054906101000a900473ffffffffffffffffffffffffffffffffffffffff1681565b610ed7610ed16117b2565b83611969565b610f16576040517f08c379a0000000000000000000000000000000000000000000000000000000008152600401610f0d9061376b565b60405180910390fd5b610f2284848484611e96565b50505050565b60008073ffffffffffffffffffffffffffffffffffffffff168473ffffffffffffffffffffffffffffffffffffffff1603610f98576040517f08c379a0000000000000000000000000000000000000000000000000000000008152600401610f8f90613a94565b60405180910390fd5b600073ffffffffffffffffffffffffffffffffffffffff16600b60009054906101000a900473ffffffffffffffffffffffffffffffffffffffff1673ffffffffffffffffffffffffffffffffffffffff1603611029576040517f08c379a000000000000000000000000000000000000000000000000000000000815260040161102090613b00565b60405180910390fd5b6000600281111561103d5761103c613b20565b5b8260028111156110505761104f613b20565b5b03611090576040517f08c379a000000000000000000000000000000000000000000000000000000000815260040161108790613b9b565b60405180910390fd5b600061109a6109fc565b90506110a68582611ef2565b6110b08187611f10565b600015156110e76110bf6117b2565b600b60009054906101000a900473ffffffffffffffffffffffffffffffffffffffff16611445565b15150361111c5761111b600b60009054906101000a900473ffffffffffffffffffffffffffffffffffffffff166001610e8a565b5b600b60009054906101000a900473ffffffffffffffffffffffffffffffffffffffff1673ffffffffffffffffffffffffffffffffffffffff166301c58a1d30838787336040518663ffffffff1660e01b815260040161117f959493929190613c03565b600060405180830381600087803b15801561119957600080fd5b505af11580156111ad573d6000803e3d6000fd5b50505050600c60149054906101000a900460ff161561127057600c60009054906101000a900473ffffffffffffffffffffffffffffffffffffffff1673ffffffffffffffffffffffffffffffffffffffff16630dc07ff63088848989426040518763ffffffff1660e01b815260040161122b96959493929190613c56565b6020604051808303816000875af115801561124a573d6000803e3d6000fd5b505050506040513d601f19601f8201168201806040525081019061126e9190613cd3565b505b80915050949350505050565b606061128782611f7d565b6112c6576040517f08c379a00000000000000000000000000000000000000000000000000000000081526004016112bd90613d72565b60405180910390fd5b600d600083815260200190815260200160002080546112e49061342f565b80601f01602080910402602001604051908101604052809291908181526020018280546113109061342f565b801561135d5780601f106113325761010080835404028352916020019161135d565b820191906000526020600020905b81548152906001019060200180831161134057829003601f168201915b50505050509050919050565b611371611873565b8073ffffffffffffffffffffffffffffffffffffffff16600c60009054906101000a900473ffffffffffffffffffffffffffffffffffffffff1673ffffffffffffffffffffffffffffffffffffffff1603611401576040517f08c379a00000000000000000000000000000000000000000000000000000000081526004016113f890613e04565b60405180910390fd5b80600c60006101000a81548173ffffffffffffffffffffffffffffffffffffffff021916908373ffffffffffffffffffffffffffffffffffffffff16021790555050565b6000600560008473ffffffffffffffffffffffffffffffffffffffff1673ffffffffffffffffffffffffffffffffffffffff16815260200190815260200160002060008373ffffffffffffffffffffffffffffffffffffffff1673ffffffffffffffffffffffffffffffffffffffff16815260200190815260200160002060009054906101000a900460ff16905092915050565b6114e1611873565b600073ffffffffffffffffffffffffffffffffffffffff168173ffffffffffffffffffffffffffffffffffffffff1603611550576040517f08c379a000000000000000000000000000000000000000000000000000000000815260040161154790613e96565b60405180910390fd5b61155981611c64565b50565b6000821161159f576040517f08c379a0000000000000000000000000000000000000000000000000000000008152600401611596906135d0565b60405180910390fd5b8186869050146115e4576040517f08c379a00000000000000000000000000000000000000000000000000000000081526004016115db90613f02565b60405180910390fd5b600082905060005b8181101561167b5761166788888381811061160a576116096138af565b5b905060200281019061161c9190613f31565b8080601f016020809104026020016040519081016040528093929190818152602001838380828437600081840152601f19601f82011690508083019250505050505050878786610f28565b5080806116739061361f565b9150506115ec565b5050505050505050565b60007f80ac58cd000000000000000000000000000000000000000000000000000000007bffffffffffffffffffffffffffffffffffffffffffffffffffffffff1916827bffffffffffffffffffffffffffffffffffffffffffffffffffffffff1916148061175057507f5b5e139f000000000000000000000000000000000000000000000000000000007bffffffffffffffffffffffffffffffffffffffffffffffffffffffff1916827bffffffffffffffffffffffffffffffffffffffffffffffffffffffff1916145b80611760575061175f82611fe9565b5b9050919050565b61177081611f7d565b6117af576040517f08c379a00000000000000000000000000000000000000000000000000000000081526004016117a69061392a565b60405180910390fd5b50565b600033905090565b816004600083815260200190815260200160002060006101000a81548173ffffffffffffffffffffffffffffffffffffffff021916908373ffffffffffffffffffffffffffffffffffffffff160217905550808273ffffffffffffffffffffffffffffffffffffffff1661182d83610bb2565b73ffffffffffffffffffffffffffffffffffffffff167f8c5be1e5ebec7d5bd14f71427d1e84f3dd0314c0f7b2291e5b200ac8c7c3b92560405160405180910390a45050565b61187b6117b2565b73ffffffffffffffffffffffffffffffffffffffff16611899610d54565b73ffffffffffffffffffffffffffffffffffffffff16146118ef576040517f08c379a00000000000000000000000000000000000000000000000000000000081526004016118e690613fe0565b60405180910390fd5b565b60606000835111611937576040517f08c379a000000000000000000000000000000000000000000000000000000000815260040161192e9061404c565b60405180910390fd5b8261194183612053565b6040516020016119529291906140a8565b604051602081830303815290604052905092915050565b60008061197583610bb2565b90508073ffffffffffffffffffffffffffffffffffffffff168473ffffffffffffffffffffffffffffffffffffffff1614806119b757506119b68185611445565b5b806119f557508373ffffffffffffffffffffffffffffffffffffffff166119dd846106bc565b73ffffffffffffffffffffffffffffffffffffffff16145b91505092915050565b8273ffffffffffffffffffffffffffffffffffffffff16611a1e82610bb2565b73ffffffffffffffffffffffffffffffffffffffff1614611a74576040517f08c379a0000000000000000000000000000000000000000000000000000000008152600401611a6b9061413e565b60405180910390fd5b600073ffffffffffffffffffffffffffffffffffffffff168273ffffffffffffffffffffffffffffffffffffffff1603611ae3576040517f08c379a0000000000000000000000000000000000000000000000000000000008152600401611ada906141d0565b60405180910390fd5b611aee8383836121b3565b611af96000826117ba565b6001600360008573ffffffffffffffffffffffffffffffffffffffff1673ffffffffffffffffffffffffffffffffffffffff1681526020019081526020016000206000828254611b4991906141f0565b925050819055506001600360008473ffffffffffffffffffffffffffffffffffffffff1673ffffffffffffffffffffffffffffffffffffffff1681526020019081526020016000206000828254611ba09190614224565b92505081905550816002600083815260200190815260200160002060006101000a81548173ffffffffffffffffffffffffffffffffffffffff021916908373ffffffffffffffffffffffffffffffffffffffff160217905550808273ffffffffffffffffffffffffffffffffffffffff168473ffffffffffffffffffffffffffffffffffffffff167fddf252ad1be2c89b69c2b068fc378daa952ba7f163c4a11628f55a4df523b3ef60405160405180910390a4611c5f8383836122c5565b505050565b6000600a60009054906101000a900473ffffffffffffffffffffffffffffffffffffffff16905081600a60006101000a81548173ffffffffffffffffffffffffffffffffffffffff021916908373ffffffffffffffffffffffffffffffffffffffff1602179055508173ffffffffffffffffffffffffffffffffffffffff168173ffffffffffffffffffffffffffffffffffffffff167f8be0079c531659141344cd1fd0a4f28419497f9722a3daafe3b4186f6b6457e060405160405180910390a35050565b8173ffffffffffffffffffffffffffffffffffffffff168373ffffffffffffffffffffffffffffffffffffffff1603611d98576040517f08c379a0000000000000000000000000000000000000000000000000000000008152600401611d8f906142a4565b60405180910390fd5b80600560008573ffffffffffffffffffffffffffffffffffffffff1673ffffffffffffffffffffffffffffffffffffffff16815260200190815260200160002060008473ffffffffffffffffffffffffffffffffffffffff1673ffffffffffffffffffffffffffffffffffffffff16815260200190815260200160002060006101000a81548160ff0219169083151502179055508173ffffffffffffffffffffffffffffffffffffffff168373ffffffffffffffffffffffffffffffffffffffff167f17307eab39ab6107e8899845ad3d59bd9653f200f220920489ca2b5937696c3183604051611e899190612a67565b60405180910390a3505050565b611ea18484846119fe565b611ead848484846122ca565b611eec576040517f08c379a0000000000000000000000000000000000000000000000000000000008152600401611ee390614336565b60405180910390fd5b50505050565b611f0c828260405180602001604052806000815250612451565b5050565b611f1982611f7d565b611f58576040517f08c379a0000000000000000000000000000000000000000000000000000000008152600401611f4f906143c8565b60405180910390fd5b80600d60008481526020019081526020016000209081611f78919061458a565b505050565b60008073ffffffffffffffffffffffffffffffffffffffff166002600084815260200190815260200160002060009054906101000a900473ffffffffffffffffffffffffffffffffffffffff1673ffffffffffffffffffffffffffffffffffffffff1614159050919050565b60007f01ffc9a7000000000000000000000000000000000000000000000000000000007bffffffffffffffffffffffffffffffffffffffffffffffffffffffff1916827bffffffffffffffffffffffffffffffffffffffffffffffffffffffff1916149050919050565b60606000820361209a576040518060400160405280600181526020017f300000000000000000000000000000000000000000000000000000000000000081525090506121ae565b600082905060005b600082146120cc5780806120b59061361f565b915050600a826120c5919061468b565b91506120a2565b60008167ffffffffffffffff8111156120e8576120e7612c69565b5b6040519080825280601f01601f19166020018201604052801561211a5781602001600182028036833780820191505090505b5090505b600085146121a75760018261213391906141f0565b9150600a8561214291906146bc565b603061214e9190614224565b60f81b818381518110612164576121636138af565b5b60200101907effffffffffffffffffffffffffffffffffffffffffffffffffffffffffffff1916908160001a905350600a856121a0919061468b565b945061211e565b8093505050505b919050565b6121be8383836124ac565b600073ffffffffffffffffffffffffffffffffffffffff168373ffffffffffffffffffffffffffffffffffffffff1603612200576121fb816124b1565b61223f565b8173ffffffffffffffffffffffffffffffffffffffff168373ffffffffffffffffffffffffffffffffffffffff161461223e5761223d83826124fa565b5b5b600073ffffffffffffffffffffffffffffffffffffffff168273ffffffffffffffffffffffffffffffffffffffff16036122815761227c81612667565b6122c0565b8273ffffffffffffffffffffffffffffffffffffffff168273ffffffffffffffffffffffffffffffffffffffff16146122bf576122be8282612738565b5b5b505050565b505050565b60006122eb8473ffffffffffffffffffffffffffffffffffffffff166127b7565b15612444578373ffffffffffffffffffffffffffffffffffffffff1663150b7a026123146117b2565b8786866040518563ffffffff1660e01b81526004016123369493929190614742565b6020604051808303816000875af192505050801561237257506040513d601f19601f8201168201806040525081019061236f91906147a3565b60015b6123f4573d80600081146123a2576040519150601f19603f3d011682016040523d82523d6000602084013e6123a7565b606091505b5060008151036123ec576040517f08c379a00000000000000000000000000000000000000000000000000000000081526004016123e390614336565b60405180910390fd5b805181602001fd5b63150b7a0260e01b7bffffffffffffffffffffffffffffffffffffffffffffffffffffffff1916817bffffffffffffffffffffffffffffffffffffffffffffffffffffffff191614915050612449565b600190505b949350505050565b61245b83836127da565b61246860008484846122ca565b6124a7576040517f08c379a000000000000000000000000000000000000000000000000000000000815260040161249e90614336565b60405180910390fd5b505050565b505050565b6008805490506009600083815260200190815260200160002081905550600881908060018154018082558091505060019003906000526020600020016000909190919091505550565b6000600161250784610c63565b61251191906141f0565b90506000600760008481526020019081526020016000205490508181146125f6576000600660008673ffffffffffffffffffffffffffffffffffffffff1673ffffffffffffffffffffffffffffffffffffffff168152602001908152602001600020600084815260200190815260200160002054905080600660008773ffffffffffffffffffffffffffffffffffffffff1673ffffffffffffffffffffffffffffffffffffffff168152602001908152602001600020600084815260200190815260200160002081905550816007600083815260200190815260200160002081905550505b6007600084815260200190815260200160002060009055600660008573ffffffffffffffffffffffffffffffffffffffff1673ffffffffffffffffffffffffffffffffffffffff16815260200190815260200160002060008381526020019081526020016000206000905550505050565b6000600160088054905061267b91906141f0565b90506000600960008481526020019081526020016000205490506000600883815481106126ab576126aa6138af565b5b9060005260206000200154905080600883815481106126cd576126cc6138af565b5b90600052602060002001819055508160096000838152602001908152602001600020819055506009600085815260200190815260200160002060009055600880548061271c5761271b6147d0565b5b6001900381819060005260206000200160009055905550505050565b600061274383610c63565b905081600660008573ffffffffffffffffffffffffffffffffffffffff1673ffffffffffffffffffffffffffffffffffffffff168152602001908152602001600020600083815260200190815260200160002081905550806007600084815260200190815260200160002081905550505050565b6000808273ffffffffffffffffffffffffffffffffffffffff163b119050919050565b600073ffffffffffffffffffffffffffffffffffffffff168273ffffffffffffffffffffffffffffffffffffffff1603612849576040517f08c379a00000000000000000000000000000000000000000000000000000000081526004016128409061484b565b60405180910390fd5b61285281611f7d565b15612892576040517f08c379a0000000000000000000000000000000000000000000000000000000008152600401612889906148b7565b60405180910390fd5b61289e600083836121b3565b6001600360008473ffffffffffffffffffffffffffffffffffffffff1673ffffffffffffffffffffffffffffffffffffffff16815260200190815260200160002060008282546128ee9190614224565b92505081905550816002600083815260200190815260200160002060006101000a81548173ffffffffffffffffffffffffffffffffffffffff021916908373ffffffffffffffffffffffffffffffffffffffff160217905550808273ffffffffffffffffffffffffffffffffffffffff16600073ffffffffffffffffffffffffffffffffffffffff167fddf252ad1be2c89b69c2b068fc378daa952ba7f163c4a11628f55a4df523b3ef60405160405180910390a46129af600083836122c5565b5050565b6000604051905090565b600080fd5b600080fd5b60007fffffffff0000000000000000000000000000000000000000000000000000000082169050919050565b6129fc816129c7565b8114612a0757600080fd5b50565b600081359050612a19816129f3565b92915050565b600060208284031215612a3557612a346129bd565b5b6000612a4384828501612a0a565b91505092915050565b60008115159050919050565b612a6181612a4c565b82525050565b6000602082019050612a7c6000830184612a58565b92915050565b600081519050919050565b600082825260208201905092915050565b60005b83811015612abc578082015181840152602081019050612aa1565b60008484015250505050565b6000601f19601f8301169050919050565b6000612ae482612a82565b612aee8185612a8d565b9350612afe818560208601612a9e565b612b0781612ac8565b840191505092915050565b60006020820190508181036000830152612b2c8184612ad9565b905092915050565b6000819050919050565b612b4781612b34565b8114612b5257600080fd5b50565b600081359050612b6481612b3e565b92915050565b600060208284031215612b8057612b7f6129bd565b5b6000612b8e84828501612b55565b91505092915050565b600073ffffffffffffffffffffffffffffffffffffffff82169050919050565b6000612bc282612b97565b9050919050565b612bd281612bb7565b82525050565b6000602082019050612bed6000830184612bc9565b92915050565b612bfc81612bb7565b8114612c0757600080fd5b50565b600081359050612c1981612bf3565b92915050565b60008060408385031215612c3657612c356129bd565b5b6000612c4485828601612c0a565b9250506020612c5585828601612b55565b9150509250929050565b600080fd5b600080fd5b7f4e487b7100000000000000000000000000000000000000000000000000000000600052604160045260246000fd5b612ca182612ac8565b810181811067ffffffffffffffff82111715612cc057612cbf612c69565b5b80604052505050565b6000612cd36129b3565b9050612cdf8282612c98565b919050565b600067ffffffffffffffff821115612cff57612cfe612c69565b5b612d0882612ac8565b9050602081019050919050565b82818337600083830152505050565b6000612d37612d3284612ce4565b612cc9565b905082815260208101848484011115612d5357612d52612c64565b5b612d5e848285612d15565b509392505050565b600082601f830112612d7b57612d7a612c5f565b5b8135612d8b848260208601612d24565b91505092915050565b60038110612da157600080fd5b50565b600081359050612db381612d94565b92915050565b600080600080600060a08688031215612dd557612dd46129bd565b5b600086013567ffffffffffffffff811115612df357612df26129c2565b5b612dff88828901612d66565b9550506020612e1088828901612c0a565b9450506040612e2188828901612b55565b9350506060612e3288828901612b55565b9250506080612e4388828901612da4565b9150509295509295909350565b6000612e5b82612bb7565b9050919050565b612e6b81612e50565b8114612e7657600080fd5b50565b600081359050612e8881612e62565b92915050565b600060208284031215612ea457612ea36129bd565b5b6000612eb284828501612e79565b91505092915050565b612ec481612b34565b82525050565b6000602082019050612edf6000830184612ebb565b92915050565b600080600060608486031215612efe57612efd6129bd565b5b6000612f0c86828701612c0a565b9350506020612f1d86828701612c0a565b9250506040612f2e86828701612b55565b9150509250925092565b600060208284031215612f4e57612f4d6129bd565b5b6000612f5c84828501612c0a565b91505092915050565b6000819050919050565b6000612f8a612f85612f8084612b97565b612f65565b612b97565b9050919050565b6000612f9c82612f6f565b9050919050565b6000612fae82612f91565b9050919050565b612fbe81612fa3565b82525050565b6000602082019050612fd96000830184612fb5565b92915050565b612fe881612a4c565b8114612ff357600080fd5b50565b60008135905061300581612fdf565b92915050565b600060208284031215613021576130206129bd565b5b600061302f84828501612ff6565b91505092915050565b6000806040838503121561304f5761304e6129bd565b5b600061305d85828601612c0a565b925050602061306e85828601612ff6565b9150509250929050565b600061308382612f91565b9050919050565b61309381613078565b82525050565b60006020820190506130ae600083018461308a565b92915050565b600067ffffffffffffffff8211156130cf576130ce612c69565b5b6130d882612ac8565b9050602081019050919050565b60006130f86130f3846130b4565b612cc9565b90508281526020810184848401111561311457613113612c64565b5b61311f848285612d15565b509392505050565b600082601f83011261313c5761313b612c5f565b5b813561314c8482602086016130e5565b91505092915050565b6000806000806080858703121561316f5761316e6129bd565b5b600061317d87828801612c0a565b945050602061318e87828801612c0a565b935050604061319f87828801612b55565b925050606085013567ffffffffffffffff8111156131c0576131bf6129c2565b5b6131cc87828801613127565b91505092959194509250565b600080600080608085870312156131f2576131f16129bd565b5b600085013567ffffffffffffffff8111156132105761320f6129c2565b5b61321c87828801612d66565b945050602061322d87828801612c0a565b935050604061323e87828801612b55565b925050606061324f87828801612da4565b91505092959194509250565b600061326682612bb7565b9050919050565b6132768161325b565b811461328157600080fd5b50565b6000813590506132938161326d565b92915050565b6000602082840312156132af576132ae6129bd565b5b60006132bd84828501613284565b91505092915050565b600080604083850312156132dd576132dc6129bd565b5b60006132eb85828601612c0a565b92505060206132fc85828601612c0a565b9150509250929050565b600080fd5b600080fd5b60008083601f84011261332657613325612c5f565b5b8235905067ffffffffffffffff81111561334357613342613306565b5b60208301915083602082028301111561335f5761335e61330b565b5b9250929050565b60008060008060008060a08789031215613383576133826129bd565b5b600087013567ffffffffffffffff8111156133a1576133a06129c2565b5b6133ad89828a01613310565b965096505060206133c089828a01612c0a565b94505060406133d189828a01612b55565b93505060606133e289828a01612b55565b92505060806133f389828a01612da4565b9150509295509295509295565b7f4e487b7100000000000000000000000000000000000000000000000000000000600052602260045260246000fd5b6000600282049050600182168061344757607f821691505b60208210810361345a57613459613400565b5b50919050565b7f4552433732313a20617070726f76616c20746f2063757272656e74206f776e6560008201527f7200000000000000000000000000000000000000000000000000000000000000602082015250565b60006134bc602183612a8d565b91506134c782613460565b604082019050919050565b600060208201905081810360008301526134eb816134af565b9050919050565b7f4552433732313a20617070726f76652063616c6c6572206973206e6f7420746f60008201527f6b656e206f776e6572206e6f7220617070726f76656420666f7220616c6c0000602082015250565b600061354e603e83612a8d565b9150613559826134f2565b604082019050919050565b6000602082019050818103600083015261357d81613541565b9050919050565b7f77726f6e6720616d6f756e740000000000000000000000000000000000000000600082015250565b60006135ba600c83612a8d565b91506135c582613584565b602082019050919050565b600060208201905081810360008301526135e9816135ad565b9050919050565b7f4e487b7100000000000000000000000000000000000000000000000000000000600052601160045260246000fd5b600061362a82612b34565b91507fffffffffffffffffffffffffffffffffffffffffffffffffffffffffffffffff820361365c5761365b6135f0565b5b600182019050919050565b7f4d61726b6574706c6163653a20686173206265656e20616c726561647920636f60008201527f6e66696775726564000000000000000000000000000000000000000000000000602082015250565b60006136c3602883612a8d565b91506136ce82613667565b604082019050919050565b600060208201905081810360008301526136f2816136b6565b9050919050565b7f4552433732313a2063616c6c6572206973206e6f7420746f6b656e206f776e6560008201527f72206e6f7220617070726f766564000000000000000000000000000000000000602082015250565b6000613755602e83612a8d565b9150613760826136f9565b604082019050919050565b6000602082019050818103600083015261378481613748565b9050919050565b7f455243373231456e756d657261626c653a206f776e657220696e646578206f7560008201527f74206f6620626f756e6473000000000000000000000000000000000000000000602082015250565b60006137e7602b83612a8d565b91506137f28261378b565b604082019050919050565b60006020820190508181036000830152613816816137da565b9050919050565b7f455243373231456e756d657261626c653a20676c6f62616c20696e646578206f60008201527f7574206f6620626f756e64730000000000000000000000000000000000000000602082015250565b6000613879602c83612a8d565b91506138848261381d565b604082019050919050565b600060208201905081810360008301526138a88161386c565b9050919050565b7f4e487b7100000000000000000000000000000000000000000000000000000000600052603260045260246000fd5b7f4552433732313a20696e76616c696420746f6b656e2049440000000000000000600082015250565b6000613914601883612a8d565b915061391f826138de565b602082019050919050565b6000602082019050818103600083015261394381613907565b9050919050565b7f4552433732313a2061646472657373207a65726f206973206e6f74206120766160008201527f6c6964206f776e65720000000000000000000000000000000000000000000000602082015250565b60006139a6602983612a8d565b91506139b18261394a565b604082019050919050565b600060208201905081810360008301526139d581613999565b9050919050565b7f416c72656164792073657420656e61626c656400000000000000000000000000600082015250565b6000613a12601383612a8d565b9150613a1d826139dc565b602082019050919050565b60006020820190508181036000830152613a4181613a05565b9050919050565b7f496e76616c696420616464726573730000000000000000000000000000000000600082015250565b6000613a7e600f83612a8d565b9150613a8982613a48565b602082019050919050565b60006020820190508181036000830152613aad81613a71565b9050919050565b7f496e76616c6964206d61726b6574706c61636520616464726573730000000000600082015250565b6000613aea601b83612a8d565b9150613af582613ab4565b602082019050919050565b60006020820190508181036000830152613b1981613add565b9050919050565b7f4e487b7100000000000000000000000000000000000000000000000000000000600052602160045260246000fd5b7f4d494e543a20496e76616c696420706179207479706500000000000000000000600082015250565b6000613b85601683612a8d565b9150613b9082613b4f565b602082019050919050565b60006020820190508181036000830152613bb481613b78565b9050919050565b60038110613bcc57613bcb613b20565b5b50565b6000819050613bdd82613bbb565b919050565b6000613bed82613bcf565b9050919050565b613bfd81613be2565b82525050565b600060a082019050613c186000830188612bc9565b613c256020830187612ebb565b613c326040830186612ebb565b613c3f6060830185613bf4565b613c4c6080830184612bc9565b9695505050505050565b600060c082019050613c6b6000830189612bc9565b8181036020830152613c7d8188612ad9565b9050613c8c6040830187612ebb565b613c996060830186612bc9565b613ca66080830185612ebb565b613cb360a0830184612ebb565b979650505050505050565b600081519050613ccd81612fdf565b92915050565b600060208284031215613ce957613ce86129bd565b5b6000613cf784828501613cbe565b91505092915050565b7f4552433732314d657461646174613a2055524920717565727920666f72206e6f60008201527f6e6578697374656e7420746f6b656e0000000000000000000000000000000000602082015250565b6000613d5c602f83612a8d565b9150613d6782613d00565b604082019050919050565b60006020820190508181036000830152613d8b81613d4f565b9050919050565b7f526577617264733a20686173206265656e20616c726561647920636f6e66696760008201527f7572656400000000000000000000000000000000000000000000000000000000602082015250565b6000613dee602483612a8d565b9150613df982613d92565b604082019050919050565b60006020820190508181036000830152613e1d81613de1565b9050919050565b7f4f776e61626c653a206e6577206f776e657220697320746865207a65726f206160008201527f6464726573730000000000000000000000000000000000000000000000000000602082015250565b6000613e80602683612a8d565b9150613e8b82613e24565b604082019050919050565b60006020820190508181036000830152613eaf81613e73565b9050919050565b7f496e76616c696420706172616d73000000000000000000000000000000000000600082015250565b6000613eec600e83612a8d565b9150613ef782613eb6565b602082019050919050565b60006020820190508181036000830152613f1b81613edf565b9050919050565b600080fd5b600080fd5b600080fd5b60008083356001602003843603038112613f4e57613f4d613f22565b5b80840192508235915067ffffffffffffffff821115613f7057613f6f613f27565b5b602083019250600182023603831315613f8c57613f8b613f2c565b5b509250929050565b7f4f776e61626c653a2063616c6c6572206973206e6f7420746865206f776e6572600082015250565b6000613fca602083612a8d565b9150613fd582613f94565b602082019050919050565b60006020820190508181036000830152613ff981613fbd565b9050919050565b7f496e76616c696420626173652055524900000000000000000000000000000000600082015250565b6000614036601083612a8d565b915061404182614000565b602082019050919050565b6000602082019050818103600083015261406581614029565b9050919050565b600081905092915050565b600061408282612a82565b61408c818561406c565b935061409c818560208601612a9e565b80840191505092915050565b60006140b48285614077565b91506140c08284614077565b91508190509392505050565b7f4552433732313a207472616e736665722066726f6d20696e636f72726563742060008201527f6f776e6572000000000000000000000000000000000000000000000000000000602082015250565b6000614128602583612a8d565b9150614133826140cc565b604082019050919050565b600060208201905081810360008301526141578161411b565b9050919050565b7f4552433732313a207472616e7366657220746f20746865207a65726f2061646460008201527f7265737300000000000000000000000000000000000000000000000000000000602082015250565b60006141ba602483612a8d565b91506141c58261415e565b604082019050919050565b600060208201905081810360008301526141e9816141ad565b9050919050565b60006141fb82612b34565b915061420683612b34565b925082820390508181111561421e5761421d6135f0565b5b92915050565b600061422f82612b34565b915061423a83612b34565b9250828201905080821115614252576142516135f0565b5b92915050565b7f4552433732313a20617070726f766520746f2063616c6c657200000000000000600082015250565b600061428e601983612a8d565b915061429982614258565b602082019050919050565b600060208201905081810360008301526142bd81614281565b9050919050565b7f4552433732313a207472616e7366657220746f206e6f6e20455243373231526560008201527f63656976657220696d706c656d656e7465720000000000000000000000000000602082015250565b6000614320603283612a8d565b915061432b826142c4565b604082019050919050565b6000602082019050818103600083015261434f81614313565b9050919050565b7f45524337323155524953746f726167653a2055524920736574206f66206e6f6e60008201527f6578697374656e7420746f6b656e000000000000000000000000000000000000602082015250565b60006143b2602e83612a8d565b91506143bd82614356565b604082019050919050565b600060208201905081810360008301526143e1816143a5565b9050919050565b60008190508160005260206000209050919050565b60006020601f8301049050919050565b600082821b905092915050565b60006008830261444a7fffffffffffffffffffffffffffffffffffffffffffffffffffffffffffffffff8261440d565b614454868361440d565b95508019841693508086168417925050509392505050565b600061448761448261447d84612b34565b612f65565b612b34565b9050919050565b6000819050919050565b6144a18361446c565b6144b56144ad8261448e565b84845461441a565b825550505050565b600090565b6144ca6144bd565b6144d5818484614498565b505050565b5b818110156144f9576144ee6000826144c2565b6001810190506144db565b5050565b601f82111561453e5761450f816143e8565b614518846143fd565b81016020851015614527578190505b61453b614533856143fd565b8301826144da565b50505b505050565b600082821c905092915050565b600061456160001984600802614543565b1980831691505092915050565b600061457a8383614550565b9150826002028217905092915050565b61459382612a82565b67ffffffffffffffff8111156145ac576145ab612c69565b5b6145b6825461342f565b6145c18282856144fd565b600060209050601f8311600181146145f457600084156145e2578287015190505b6145ec858261456e565b865550614654565b601f198416614602866143e8565b60005b8281101561462a57848901518255600182019150602085019450602081019050614605565b868310156146475784890151614643601f891682614550565b8355505b6001600288020188555050505b505050505050565b7f4e487b7100000000000000000000000000000000000000000000000000000000600052601260045260246000fd5b600061469682612b34565b91506146a183612b34565b9250826146b1576146b061465c565b5b828204905092915050565b60006146c782612b34565b91506146d283612b34565b9250826146e2576146e161465c565b5b828206905092915050565b600081519050919050565b600082825260208201905092915050565b6000614714826146ed565b61471e81856146f8565b935061472e818560208601612a9e565b61473781612ac8565b840191505092915050565b60006080820190506147576000830187612bc9565b6147646020830186612bc9565b6147716040830185612ebb565b81810360608301526147838184614709565b905095945050505050565b60008151905061479d816129f3565b92915050565b6000602082840312156147b9576147b86129bd565b5b60006147c78482850161478e565b91505092915050565b7f4e487b7100000000000000000000000000000000000000000000000000000000600052603160045260246000fd5b7f4552433732313a206d696e7420746f20746865207a65726f2061646472657373600082015250565b6000614835602083612a8d565b9150614840826147ff565b602082019050919050565b6000602082019050818103600083015261486481614828565b9050919050565b7f4552433732313a20746f6b656e20616c7265616479206d696e74656400000000600082015250565b60006148a1601c83612a8d565b91506148ac8261486b565b602082019050919050565b600060208201905081810360008301526148d081614894565b905091905056fea26469706673582212201275578cf8e54eb4446677ae5251a872b3976ea7ae1701711f6bf51f1eb6869064736f6c63430008110033",
  "linkReferences": {},
  "deployedLinkReferences": {}
}