{
  "_format": "hh-sol-artifact-1",
  "contractName": "NichoNFT",
  "sourceName": "contracts/NichoNFT.sol",
  "abi": [
    {
      "inputs": [],
      "stateMutability": "nonpayable",
      "type": "constructor"
    },
    {
      "anonymous": false,
      "inputs": [
        {
          "indexed": true,
          "internalType": "address",
          "name": "owner",
          "type": "address"
        },
        {
          "indexed": true,
          "internalType": "address",
          "name": "approved",
          "type": "address"
        },
        {
          "indexed": true,
          "internalType": "uint256",
          "name": "tokenId",
          "type": "uint256"
        }
      ],
      "name": "Approval",
      "type": "event"
    },
    {
      "anonymous": false,
      "inputs": [
        {
          "indexed": true,
          "internalType": "address",
          "name": "owner",
          "type": "address"
        },
        {
          "indexed": true,
          "internalType": "address",
          "name": "operator",
          "type": "address"
        },
        {
          "indexed": false,
          "internalType": "bool",
          "name": "approved",
          "type": "bool"
        }
      ],
      "name": "ApprovalForAll",
      "type": "event"
    },
    {
      "anonymous": false,
      "inputs": [
        {
          "indexed": true,
          "internalType": "address",
          "name": "previousOwner",
          "type": "address"
        },
        {
          "indexed": true,
          "internalType": "address",
          "name": "newOwner",
          "type": "address"
        }
      ],
      "name": "OwnershipTransferred",
      "type": "event"
    },
    {
      "anonymous": false,
      "inputs": [
        {
          "indexed": true,
          "internalType": "address",
          "name": "from",
          "type": "address"
        },
        {
          "indexed": true,
          "internalType": "address",
          "name": "to",
          "type": "address"
        },
        {
          "indexed": true,
          "internalType": "uint256",
          "name": "tokenId",
          "type": "uint256"
        }
      ],
      "name": "Transfer",
      "type": "event"
    },
    {
      "inputs": [
        {
          "internalType": "address",
          "name": "to",
          "type": "address"
        },
        {
          "internalType": "uint256",
          "name": "tokenId",
          "type": "uint256"
        }
      ],
      "name": "approve",
      "outputs": [],
      "stateMutability": "nonpayable",
      "type": "function"
    },
    {
      "inputs": [
        {
          "internalType": "address",
          "name": "owner",
          "type": "address"
        }
      ],
      "name": "balanceOf",
      "outputs": [
        {
          "internalType": "uint256",
          "name": "",
          "type": "uint256"
        }
      ],
      "stateMutability": "view",
      "type": "function"
    },
    {
      "inputs": [
        {
          "internalType": "string[]",
          "name": "_tokenURI",
          "type": "string[]"
        },
        {
          "internalType": "address",
          "name": "_toAddress",
          "type": "address"
        },
        {
          "internalType": "uint256",
          "name": "_price",
          "type": "uint256"
        },
        {
          "internalType": "uint256",
          "name": "_amount",
          "type": "uint256"
        },
        {
          "internalType": "string",
          "name": "cId",
          "type": "string"
        }
      ],
      "name": "batchDNMint",
      "outputs": [],
      "stateMutability": "nonpayable",
      "type": "function"
    },
    {
      "inputs": [
        {
          "internalType": "string",
          "name": "_baseTokenURI",
          "type": "string"
        },
        {
          "internalType": "address",
          "name": "_toAddress",
          "type": "address"
        },
        {
          "internalType": "uint256",
          "name": "_price",
          "type": "uint256"
        },
        {
          "internalType": "uint256",
          "name": "_amount",
          "type": "uint256"
        },
        {
          "internalType": "string",
          "name": "cId",
          "type": "string"
        }
      ],
      "name": "batchIDMint",
      "outputs": [],
      "stateMutability": "nonpayable",
      "type": "function"
    },
    {
      "inputs": [
        {
          "internalType": "string",
          "name": "_tokenURI",
          "type": "string"
        },
        {
          "internalType": "address",
          "name": "_toAddress",
          "type": "address"
        },
        {
          "internalType": "uint256",
          "name": "_price",
          "type": "uint256"
        },
        {
          "internalType": "uint256",
          "name": "_amount",
          "type": "uint256"
        },
        {
          "internalType": "string",
          "name": "cId",
          "type": "string"
        }
      ],
      "name": "batchSNMint",
      "outputs": [],
      "stateMutability": "nonpayable",
      "type": "function"
    },
    {
      "inputs": [
        {
          "internalType": "string",
          "name": "",
          "type": "string"
        }
      ],
      "name": "cIDInfos",
      "outputs": [
        {
          "internalType": "address",
          "name": "creator",
          "type": "address"
        },
        {
          "internalType": "bool",
          "name": "isRightCreator",
          "type": "bool"
        }
      ],
      "stateMutability": "view",
      "type": "function"
    },
    {
      "inputs": [
        {
          "internalType": "uint256",
          "name": "tokenId",
          "type": "uint256"
        }
      ],
      "name": "getApproved",
      "outputs": [
        {
          "internalType": "address",
          "name": "",
          "type": "address"
        }
      ],
      "stateMutability": "view",
      "type": "function"
    },
    {
      "inputs": [
        {
          "internalType": "address",
          "name": "owner",
          "type": "address"
        },
        {
          "internalType": "address",
          "name": "operator",
          "type": "address"
        }
      ],
      "name": "isApprovedForAll",
      "outputs": [
        {
          "internalType": "bool",
          "name": "",
          "type": "bool"
        }
      ],
      "stateMutability": "view",
      "type": "function"
    },
    {
      "inputs": [
        {
          "internalType": "string",
          "name": "_tokenURI",
          "type": "string"
        },
        {
          "internalType": "address",
          "name": "_toAddress",
          "type": "address"
        },
        {
          "internalType": "uint256",
          "name": "price",
          "type": "uint256"
        },
        {
          "internalType": "string",
          "name": "cId",
          "type": "string"
        }
      ],
      "name": "mint",
      "outputs": [
        {
          "internalType": "uint256",
          "name": "",
          "type": "uint256"
        }
      ],
      "stateMutability": "nonpayable",
      "type": "function"
    },
    {
      "inputs": [],
      "name": "mintRewardsEnable",
      "outputs": [
        {
          "internalType": "bool",
          "name": "",
          "type": "bool"
        }
      ],
      "stateMutability": "view",
      "type": "function"
    },
    {
      "inputs": [],
      "name": "name",
      "outputs": [
        {
          "internalType": "string",
          "name": "",
          "type": "string"
        }
      ],
      "stateMutability": "view",
      "type": "function"
    },
    {
      "inputs": [],
      "name": "nichonftMarketplaceContract",
      "outputs": [
        {
          "internalType": "contract INichoNFTMarketplace",
          "name": "",
          "type": "address"
        }
      ],
      "stateMutability": "view",
      "type": "function"
    },
    {
      "inputs": [],
      "name": "nichonftRewardsContract",
      "outputs": [
        {
          "internalType": "contract INichoNFTRewards",
          "name": "",
          "type": "address"
        }
      ],
      "stateMutability": "view",
      "type": "function"
    },
    {
      "inputs": [],
      "name": "owner",
      "outputs": [
        {
          "internalType": "address",
          "name": "",
          "type": "address"
        }
      ],
      "stateMutability": "view",
      "type": "function"
    },
    {
      "inputs": [
        {
          "internalType": "uint256",
          "name": "tokenId",
          "type": "uint256"
        }
      ],
      "name": "ownerOf",
      "outputs": [
        {
          "internalType": "address",
          "name": "",
          "type": "address"
        }
      ],
      "stateMutability": "view",
      "type": "function"
    },
    {
      "inputs": [],
      "name": "renounceOwnership",
      "outputs": [],
      "stateMutability": "nonpayable",
      "type": "function"
    },
    {
      "inputs": [
        {
          "internalType": "address",
          "name": "from",
          "type": "address"
        },
        {
          "internalType": "address",
          "name": "to",
          "type": "address"
        },
        {
          "internalType": "uint256",
          "name": "tokenId",
          "type": "uint256"
        }
      ],
      "name": "safeTransferFrom",
      "outputs": [],
      "stateMutability": "nonpayable",
      "type": "function"
    },
    {
      "inputs": [
        {
          "internalType": "address",
          "name": "from",
          "type": "address"
        },
        {
          "internalType": "address",
          "name": "to",
          "type": "address"
        },
        {
          "internalType": "uint256",
          "name": "tokenId",
          "type": "uint256"
        },
        {
          "internalType": "bytes",
          "name": "data",
          "type": "bytes"
        }
      ],
      "name": "safeTransferFrom",
      "outputs": [],
      "stateMutability": "nonpayable",
      "type": "function"
    },
    {
      "inputs": [
        {
          "internalType": "address",
          "name": "operator",
          "type": "address"
        },
        {
          "internalType": "bool",
          "name": "approved",
          "type": "bool"
        }
      ],
      "name": "setApprovalForAll",
      "outputs": [],
      "stateMutability": "nonpayable",
      "type": "function"
    },
    {
      "inputs": [
        {
          "internalType": "contract INichoNFTMarketplace",
          "name": "_nichonftMarketplace",
          "type": "address"
        }
      ],
      "name": "setMarketplaceContract",
      "outputs": [],
      "stateMutability": "nonpayable",
      "type": "function"
    },
    {
      "inputs": [
        {
          "internalType": "bool",
          "name": "_mintRewardsEnable",
          "type": "bool"
        }
      ],
      "name": "setMintRewardsEnable",
      "outputs": [],
      "stateMutability": "nonpayable",
      "type": "function"
    },
    {
      "inputs": [
        {
          "internalType": "contract INichoNFTRewards",
          "name": "_nichonftRewardsContract",
          "type": "address"
        }
      ],
      "name": "setRewardsContract",
      "outputs": [],
      "stateMutability": "nonpayable",
      "type": "function"
    },
    {
      "inputs": [
        {
          "internalType": "bytes4",
          "name": "interfaceId",
          "type": "bytes4"
        }
      ],
      "name": "supportsInterface",
      "outputs": [
        {
          "internalType": "bool",
          "name": "",
          "type": "bool"
        }
      ],
      "stateMutability": "view",
      "type": "function"
    },
    {
      "inputs": [],
      "name": "symbol",
      "outputs": [
        {
          "internalType": "string",
          "name": "",
          "type": "string"
        }
      ],
      "stateMutability": "view",
      "type": "function"
    },
    {
      "inputs": [
        {
          "internalType": "uint256",
          "name": "index",
          "type": "uint256"
        }
      ],
      "name": "tokenByIndex",
      "outputs": [
        {
          "internalType": "uint256",
          "name": "",
          "type": "uint256"
        }
      ],
      "stateMutability": "view",
      "type": "function"
    },
    {
      "inputs": [
        {
          "internalType": "address",
          "name": "owner",
          "type": "address"
        },
        {
          "internalType": "uint256",
          "name": "index",
          "type": "uint256"
        }
      ],
      "name": "tokenOfOwnerByIndex",
      "outputs": [
        {
          "internalType": "uint256",
          "name": "",
          "type": "uint256"
        }
      ],
      "stateMutability": "view",
      "type": "function"
    },
    {
      "inputs": [
        {
          "internalType": "uint256",
          "name": "tokenId",
          "type": "uint256"
        }
      ],
      "name": "tokenURI",
      "outputs": [
        {
          "internalType": "string",
          "name": "",
          "type": "string"
        }
      ],
      "stateMutability": "view",
      "type": "function"
    },
    {
      "inputs": [],
      "name": "totalSupply",
      "outputs": [
        {
          "internalType": "uint256",
          "name": "",
          "type": "uint256"
        }
      ],
      "stateMutability": "view",
      "type": "function"
    },
    {
      "inputs": [
        {
          "internalType": "address",
          "name": "from",
          "type": "address"
        },
        {
          "internalType": "address",
          "name": "to",
          "type": "address"
        },
        {
          "internalType": "uint256",
          "name": "tokenId",
          "type": "uint256"
        }
      ],
      "name": "transferFrom",
      "outputs": [],
      "stateMutability": "nonpayable",
      "type": "function"
    },
    {
      "inputs": [
        {
          "internalType": "address",
          "name": "newOwner",
          "type": "address"
        }
      ],
      "name": "transferOwnership",
      "outputs": [],
      "stateMutability": "nonpayable",
      "type": "function"
    }
  ],
  "bytecode": "0x60806040526000600c60146101000a81548160ff0219169083151502179055503480156200002c57600080fd5b506040518060400160405280600881526020017f4e6963686f4e46540000000000000000000000000000000000000000000000008152506040518060400160405280600581526020017f4e4943484f0000000000000000000000000000000000000000000000000000008152508160009081620000aa91906200042d565b508060019081620000bc91906200042d565b505050620000df620000d3620000e560201b60201c565b620000ed60201b60201c565b62000514565b600033905090565b6000600a60009054906101000a900473ffffffffffffffffffffffffffffffffffffffff16905081600a60006101000a81548173ffffffffffffffffffffffffffffffffffffffff021916908373ffffffffffffffffffffffffffffffffffffffff1602179055508173ffffffffffffffffffffffffffffffffffffffff168173ffffffffffffffffffffffffffffffffffffffff167f8be0079c531659141344cd1fd0a4f28419497f9722a3daafe3b4186f6b6457e060405160405180910390a35050565b600081519050919050565b7f4e487b7100000000000000000000000000000000000000000000000000000000600052604160045260246000fd5b7f4e487b7100000000000000000000000000000000000000000000000000000000600052602260045260246000fd5b600060028204905060018216806200023557607f821691505b6020821081036200024b576200024a620001ed565b5b50919050565b60008190508160005260206000209050919050565b60006020601f8301049050919050565b600082821b905092915050565b600060088302620002b57fffffffffffffffffffffffffffffffffffffffffffffffffffffffffffffffff8262000276565b620002c1868362000276565b95508019841693508086168417925050509392505050565b6000819050919050565b6000819050919050565b60006200030e620003086200030284620002d9565b620002e3565b620002d9565b9050919050565b6000819050919050565b6200032a83620002ed565b62000342620003398262000315565b84845462000283565b825550505050565b600090565b620003596200034a565b620003668184846200031f565b505050565b5b818110156200038e57620003826000826200034f565b6001810190506200036c565b5050565b601f821115620003dd57620003a78162000251565b620003b28462000266565b81016020851015620003c2578190505b620003da620003d18562000266565b8301826200036b565b50505b505050565b600082821c905092915050565b60006200040260001984600802620003e2565b1980831691505092915050565b60006200041d8383620003ef565b9150826002028217905092915050565b6200043882620001b3565b67ffffffffffffffff811115620004545762000453620001be565b5b6200046082546200021c565b6200046d82828562000392565b600060209050601f831160018114620004a5576000841562000490578287015190505b6200049c85826200040f565b8655506200050c565b601f198416620004b58662000251565b60005b82811015620004df57848901518255600182019150602085019450602081019050620004b8565b86831015620004ff5784890151620004fb601f891682620003ef565b8355505b6001600288020188555050505b505050505050565b614bb080620005246000396000f3fe608060405234801561001057600080fd5b50600436106101da5760003560e01c806370a0823111610104578063aad1abdf116100a2578063db68f35a11610071578063db68f35a14610553578063dfa0dfa514610584578063e985e9c5146105a0578063f2fde38b146105d0576101da565b8063aad1abdf146104b9578063b88d4fde146104d7578063c87b56dd146104f3578063cb49c20914610523576101da565b80638da5cb5b116100de5780638da5cb5b1461044557806395d89b411461046357806398bc854414610481578063a22cb4651461049d576101da565b806370a08231146103ed578063715018a61461041d578063842236a414610427576101da565b806324fae5901161017c5780634c96520e1161014b5780634c96520e146103555780634f6ccce7146103715780636352211e146103a157806367bc25f3146103d1576101da565b806324fae590146102cf5780632f745c59146102eb578063311e45d41461031b57806342842e0e14610339576101da565b8063095ea7b3116101b8578063095ea7b31461025d5780631102610e1461027957806318160ddd1461029557806323b872dd146102b3576101da565b806301ffc9a7146101df57806306fdde031461020f578063081812fc1461022d575b600080fd5b6101f960048036038101906101f49190612c0e565b6105ec565b6040516102069190612c56565b60405180910390f35b610217610666565b6040516102249190612d01565b60405180910390f35b61024760048036038101906102429190612d59565b6106f8565b6040516102549190612dc7565b60405180910390f35b61027760048036038101906102729190612e0e565b61073e565b005b610293600480360381019061028e9190612e8c565b610855565b005b61029d610931565b6040516102aa9190612ec8565b60405180910390f35b6102cd60048036038101906102c89190612ee3565b61093e565b005b6102e960048036038101906102e4919061306b565b61099e565b005b61030560048036038101906103009190612e0e565b610a1a565b6040516103129190612ec8565b60405180910390f35b610323610abf565b6040516103309190612c56565b60405180910390f35b610353600480360381019061034e9190612ee3565b610ad2565b005b61036f600480360381019061036a919061306b565b610af2565b005b61038b60048036038101906103869190612d59565b610b7d565b6040516103989190612ec8565b60405180910390f35b6103bb60048036038101906103b69190612d59565b610bee565b6040516103c89190612dc7565b60405180910390f35b6103eb60048036038101906103e6919061317e565b610c9f565b005b61040760048036038101906104029190613234565b610dc8565b6040516104149190612ec8565b60405180910390f35b610425610e7f565b005b61042f610e93565b60405161043c91906132c0565b60405180910390f35b61044d610eb9565b60405161045a9190612dc7565b60405180910390f35b61046b610ee3565b6040516104789190612d01565b60405180910390f35b61049b60048036038101906104969190613307565b610f75565b005b6104b760048036038101906104b29190613334565b610fef565b005b6104c1611005565b6040516104ce9190613395565b60405180910390f35b6104f160048036038101906104ec9190613451565b61102b565b005b61050d60048036038101906105089190612d59565b61108d565b60405161051a9190612d01565b60405180910390f35b61053d600480360381019061053891906134d4565b61117a565b60405161054a9190612ec8565b60405180910390f35b61056d60048036038101906105689190613573565b61161a565b60405161057b9291906135bc565b60405180910390f35b61059e60048036038101906105999190613623565b611681565b005b6105ba60048036038101906105b59190613650565b61175d565b6040516105c79190612c56565b60405180910390f35b6105ea60048036038101906105e59190613234565b6117f1565b005b60007f780e9d63000000000000000000000000000000000000000000000000000000007bffffffffffffffffffffffffffffffffffffffffffffffffffffffff1916827bffffffffffffffffffffffffffffffffffffffffffffffffffffffff1916148061065f575061065e82611874565b5b9050919050565b606060008054610675906136bf565b80601f01602080910402602001604051908101604052809291908181526020018280546106a1906136bf565b80156106ee5780601f106106c3576101008083540402835291602001916106ee565b820191906000526020600020905b8154815290600101906020018083116106d157829003601f168201915b5050505050905090565b600061070382611956565b6004600083815260200190815260200160002060009054906101000a900473ffffffffffffffffffffffffffffffffffffffff169050919050565b600061074982610bee565b90508073ffffffffffffffffffffffffffffffffffffffff168373ffffffffffffffffffffffffffffffffffffffff16036107b9576040517f08c379a00000000000000000000000000000000000000000000000000000000081526004016107b090613762565b60405180910390fd5b8073ffffffffffffffffffffffffffffffffffffffff166107d86119a1565b73ffffffffffffffffffffffffffffffffffffffff1614806108075750610806816108016119a1565b61175d565b5b610846576040517f08c379a000000000000000000000000000000000000000000000000000000000815260040161083d906137f4565b60405180910390fd5b61085083836119a9565b505050565b61085d611a62565b8073ffffffffffffffffffffffffffffffffffffffff16600b60009054906101000a900473ffffffffffffffffffffffffffffffffffffffff1673ffffffffffffffffffffffffffffffffffffffff16036108ed576040517f08c379a00000000000000000000000000000000000000000000000000000000081526004016108e490613886565b60405180910390fd5b80600b60006101000a81548173ffffffffffffffffffffffffffffffffffffffff021916908373ffffffffffffffffffffffffffffffffffffffff16021790555050565b6000600880549050905090565b61094f6109496119a1565b82611ae0565b61098e576040517f08c379a000000000000000000000000000000000000000000000000000000000815260040161098590613918565b60405180910390fd5b610999838383611b75565b505050565b600082116109e1576040517f08c379a00000000000000000000000000000000000000000000000000000000081526004016109d890613984565b60405180910390fd5b600082905060005b81811015610a11576109fd8787878661117a565b508080610a09906139d3565b9150506109e9565b50505050505050565b6000610a2583610dc8565b8210610a66576040517f08c379a0000000000000000000000000000000000000000000000000000000008152600401610a5d90613a8d565b60405180910390fd5b600660008473ffffffffffffffffffffffffffffffffffffffff1673ffffffffffffffffffffffffffffffffffffffff168152602001908152602001600020600083815260200190815260200160002054905092915050565b600c60149054906101000a900460ff1681565b610aed8383836040518060200160405280600081525061102b565b505050565b60008211610b35576040517f08c379a0000000000000000000000000000000000000000000000000000000008152600401610b2c90613984565b60405180910390fd5b600082905060005b81811015610b74576000610b518883611ddb565b9050610b5f8188888761117a565b50508080610b6c906139d3565b915050610b3d565b50505050505050565b6000610b87610931565b8210610bc8576040517f08c379a0000000000000000000000000000000000000000000000000000000008152600401610bbf90613b1f565b60405180910390fd5b60088281548110610bdc57610bdb613b3f565b5b90600052602060002001549050919050565b6000806002600084815260200190815260200160002060009054906101000a900473ffffffffffffffffffffffffffffffffffffffff169050600073ffffffffffffffffffffffffffffffffffffffff168173ffffffffffffffffffffffffffffffffffffffff1603610c96576040517f08c379a0000000000000000000000000000000000000000000000000000000008152600401610c8d90613bba565b60405180910390fd5b80915050919050565b60008211610ce2576040517f08c379a0000000000000000000000000000000000000000000000000000000008152600401610cd990613984565b60405180910390fd5b818686905014610d27576040517f08c379a0000000000000000000000000000000000000000000000000000000008152600401610d1e90613c26565b60405180910390fd5b600082905060005b81811015610dbe57610daa888883818110610d4d57610d4c613b3f565b5b9050602002810190610d5f9190613c55565b8080601f016020809104026020016040519081016040528093929190818152602001838380828437600081840152601f19601f8201169050808301925050505050505087878661117a565b508080610db6906139d3565b915050610d2f565b5050505050505050565b60008073ffffffffffffffffffffffffffffffffffffffff168273ffffffffffffffffffffffffffffffffffffffff1603610e38576040517f08c379a0000000000000000000000000000000000000000000000000000000008152600401610e2f90613d2a565b60405180910390fd5b600360008373ffffffffffffffffffffffffffffffffffffffff1673ffffffffffffffffffffffffffffffffffffffff168152602001908152602001600020549050919050565b610e87611a62565b610e916000611e53565b565b600b60009054906101000a900473ffffffffffffffffffffffffffffffffffffffff1681565b6000600a60009054906101000a900473ffffffffffffffffffffffffffffffffffffffff16905090565b606060018054610ef2906136bf565b80601f0160208091040260200160405190810160405280929190818152602001828054610f1e906136bf565b8015610f6b5780601f10610f4057610100808354040283529160200191610f6b565b820191906000526020600020905b815481529060010190602001808311610f4e57829003601f168201915b5050505050905090565b610f7d611a62565b801515600c60149054906101000a900460ff16151503610fd2576040517f08c379a0000000000000000000000000000000000000000000000000000000008152600401610fc990613d96565b60405180910390fd5b80600c60146101000a81548160ff02191690831515021790555050565b611001610ffa6119a1565b8383611f19565b5050565b600c60009054906101000a900473ffffffffffffffffffffffffffffffffffffffff1681565b61103c6110366119a1565b83611ae0565b61107b576040517f08c379a000000000000000000000000000000000000000000000000000000000815260040161107290613918565b60405180910390fd5b61108784848484612085565b50505050565b6060611098826120e1565b6110d7576040517f08c379a00000000000000000000000000000000000000000000000000000000081526004016110ce90613e28565b60405180910390fd5b600d600083815260200190815260200160002080546110f5906136bf565b80601f0160208091040260200160405190810160405280929190818152602001828054611121906136bf565b801561116e5780601f106111435761010080835404028352916020019161116e565b820191906000526020600020905b81548152906001019060200180831161115157829003601f168201915b50505050509050919050565b6000808251116111bf576040517f08c379a00000000000000000000000000000000000000000000000000000000081526004016111b690613e94565b60405180910390fd5b60001515600e836040516111d39190613ef0565b908152602001604051809103902060000160149054906101000a900460ff161515148061126c57503373ffffffffffffffffffffffffffffffffffffffff16600e836040516112229190613ef0565b908152602001604051809103902060000160009054906101000a900473ffffffffffffffffffffffffffffffffffffffff1673ffffffffffffffffffffffffffffffffffffffff16145b6112ab576040517f08c379a00000000000000000000000000000000000000000000000000000000081526004016112a290613f53565b60405180910390fd5b600073ffffffffffffffffffffffffffffffffffffffff168473ffffffffffffffffffffffffffffffffffffffff160361131a576040517f08c379a000000000000000000000000000000000000000000000000000000000815260040161131190613fbf565b60405180910390fd5b600073ffffffffffffffffffffffffffffffffffffffff16600b60009054906101000a900473ffffffffffffffffffffffffffffffffffffffff1673ffffffffffffffffffffffffffffffffffffffff16036113ab576040517f08c379a00000000000000000000000000000000000000000000000000000000081526004016113a29061402b565b60405180910390fd5b6000600e836040516113bd9190613ef0565b90815260200160405180910390209050338160000160006101000a81548173ffffffffffffffffffffffffffffffffffffffff021916908373ffffffffffffffffffffffffffffffffffffffff16021790555060018160000160146101000a81548160ff0219169083151502179055506000611437610931565b9050611443868261214d565b61144d818861216b565b6000151561148461145c6119a1565b600b60009054906101000a900473ffffffffffffffffffffffffffffffffffffffff1661175d565b1515036114b9576114b8600b60009054906101000a900473ffffffffffffffffffffffffffffffffffffffff166001610fef565b5b600b60009054906101000a900473ffffffffffffffffffffffffffffffffffffffff1673ffffffffffffffffffffffffffffffffffffffff1663b6359b2a30838833896040518663ffffffff1660e01b815260040161151c95949392919061404b565b600060405180830381600087803b15801561153657600080fd5b505af115801561154a573d6000803e3d6000fd5b50505050600c60149054906101000a900460ff161561160d57600c60009054906101000a900473ffffffffffffffffffffffffffffffffffffffff1673ffffffffffffffffffffffffffffffffffffffff16630dc07ff63089848a8a426040518763ffffffff1660e01b81526004016115c8969594939291906140a5565b6020604051808303816000875af11580156115e7573d6000803e3d6000fd5b505050506040513d601f19601f8201168201806040525081019061160b9190614122565b505b8092505050949350505050565b600e818051602081018201805184825260208301602085012081835280955050505050506000915090508060000160009054906101000a900473ffffffffffffffffffffffffffffffffffffffff16908060000160149054906101000a900460ff16905082565b611689611a62565b8073ffffffffffffffffffffffffffffffffffffffff16600c60009054906101000a900473ffffffffffffffffffffffffffffffffffffffff1673ffffffffffffffffffffffffffffffffffffffff1603611719576040517f08c379a0000000000000000000000000000000000000000000000000000000008152600401611710906141c1565b60405180910390fd5b80600c60006101000a81548173ffffffffffffffffffffffffffffffffffffffff021916908373ffffffffffffffffffffffffffffffffffffffff16021790555050565b6000600560008473ffffffffffffffffffffffffffffffffffffffff1673ffffffffffffffffffffffffffffffffffffffff16815260200190815260200160002060008373ffffffffffffffffffffffffffffffffffffffff1673ffffffffffffffffffffffffffffffffffffffff16815260200190815260200160002060009054906101000a900460ff16905092915050565b6117f9611a62565b600073ffffffffffffffffffffffffffffffffffffffff168173ffffffffffffffffffffffffffffffffffffffff1603611868576040517f08c379a000000000000000000000000000000000000000000000000000000000815260040161185f90614253565b60405180910390fd5b61187181611e53565b50565b60007f80ac58cd000000000000000000000000000000000000000000000000000000007bffffffffffffffffffffffffffffffffffffffffffffffffffffffff1916827bffffffffffffffffffffffffffffffffffffffffffffffffffffffff1916148061193f57507f5b5e139f000000000000000000000000000000000000000000000000000000007bffffffffffffffffffffffffffffffffffffffffffffffffffffffff1916827bffffffffffffffffffffffffffffffffffffffffffffffffffffffff1916145b8061194f575061194e826121d8565b5b9050919050565b61195f816120e1565b61199e576040517f08c379a000000000000000000000000000000000000000000000000000000000815260040161199590613bba565b60405180910390fd5b50565b600033905090565b816004600083815260200190815260200160002060006101000a81548173ffffffffffffffffffffffffffffffffffffffff021916908373ffffffffffffffffffffffffffffffffffffffff160217905550808273ffffffffffffffffffffffffffffffffffffffff16611a1c83610bee565b73ffffffffffffffffffffffffffffffffffffffff167f8c5be1e5ebec7d5bd14f71427d1e84f3dd0314c0f7b2291e5b200ac8c7c3b92560405160405180910390a45050565b611a6a6119a1565b73ffffffffffffffffffffffffffffffffffffffff16611a88610eb9565b73ffffffffffffffffffffffffffffffffffffffff1614611ade576040517f08c379a0000000000000000000000000000000000000000000000000000000008152600401611ad5906142bf565b60405180910390fd5b565b600080611aec83610bee565b90508073ffffffffffffffffffffffffffffffffffffffff168473ffffffffffffffffffffffffffffffffffffffff161480611b2e5750611b2d818561175d565b5b80611b6c57508373ffffffffffffffffffffffffffffffffffffffff16611b54846106f8565b73ffffffffffffffffffffffffffffffffffffffff16145b91505092915050565b8273ffffffffffffffffffffffffffffffffffffffff16611b9582610bee565b73ffffffffffffffffffffffffffffffffffffffff1614611beb576040517f08c379a0000000000000000000000000000000000000000000000000000000008152600401611be290614351565b60405180910390fd5b600073ffffffffffffffffffffffffffffffffffffffff168273ffffffffffffffffffffffffffffffffffffffff1603611c5a576040517f08c379a0000000000000000000000000000000000000000000000000000000008152600401611c51906143e3565b60405180910390fd5b611c65838383612242565b611c706000826119a9565b6001600360008573ffffffffffffffffffffffffffffffffffffffff1673ffffffffffffffffffffffffffffffffffffffff1681526020019081526020016000206000828254611cc09190614403565b925050819055506001600360008473ffffffffffffffffffffffffffffffffffffffff1673ffffffffffffffffffffffffffffffffffffffff1681526020019081526020016000206000828254611d179190614437565b92505081905550816002600083815260200190815260200160002060006101000a81548173ffffffffffffffffffffffffffffffffffffffff021916908373ffffffffffffffffffffffffffffffffffffffff160217905550808273ffffffffffffffffffffffffffffffffffffffff168473ffffffffffffffffffffffffffffffffffffffff167fddf252ad1be2c89b69c2b068fc378daa952ba7f163c4a11628f55a4df523b3ef60405160405180910390a4611dd6838383612354565b505050565b60606000835111611e21576040517f08c379a0000000000000000000000000000000000000000000000000000000008152600401611e18906144b7565b60405180910390fd5b82611e2b83612359565b604051602001611e3c9291906144d7565b604051602081830303815290604052905092915050565b6000600a60009054906101000a900473ffffffffffffffffffffffffffffffffffffffff16905081600a60006101000a81548173ffffffffffffffffffffffffffffffffffffffff021916908373ffffffffffffffffffffffffffffffffffffffff1602179055508173ffffffffffffffffffffffffffffffffffffffff168173ffffffffffffffffffffffffffffffffffffffff167f8be0079c531659141344cd1fd0a4f28419497f9722a3daafe3b4186f6b6457e060405160405180910390a35050565b8173ffffffffffffffffffffffffffffffffffffffff168373ffffffffffffffffffffffffffffffffffffffff1603611f87576040517f08c379a0000000000000000000000000000000000000000000000000000000008152600401611f7e90614547565b60405180910390fd5b80600560008573ffffffffffffffffffffffffffffffffffffffff1673ffffffffffffffffffffffffffffffffffffffff16815260200190815260200160002060008473ffffffffffffffffffffffffffffffffffffffff1673ffffffffffffffffffffffffffffffffffffffff16815260200190815260200160002060006101000a81548160ff0219169083151502179055508173ffffffffffffffffffffffffffffffffffffffff168373ffffffffffffffffffffffffffffffffffffffff167f17307eab39ab6107e8899845ad3d59bd9653f200f220920489ca2b5937696c31836040516120789190612c56565b60405180910390a3505050565b612090848484611b75565b61209c848484846124b9565b6120db576040517f08c379a00000000000000000000000000000000000000000000000000000000081526004016120d2906145d9565b60405180910390fd5b50505050565b60008073ffffffffffffffffffffffffffffffffffffffff166002600084815260200190815260200160002060009054906101000a900473ffffffffffffffffffffffffffffffffffffffff1673ffffffffffffffffffffffffffffffffffffffff1614159050919050565b612167828260405180602001604052806000815250612640565b5050565b612174826120e1565b6121b3576040517f08c379a00000000000000000000000000000000000000000000000000000000081526004016121aa9061466b565b60405180910390fd5b80600d600084815260200190815260200160002090816121d3919061482d565b505050565b60007f01ffc9a7000000000000000000000000000000000000000000000000000000007bffffffffffffffffffffffffffffffffffffffffffffffffffffffff1916827bffffffffffffffffffffffffffffffffffffffffffffffffffffffff1916149050919050565b61224d83838361269b565b600073ffffffffffffffffffffffffffffffffffffffff168373ffffffffffffffffffffffffffffffffffffffff160361228f5761228a816126a0565b6122ce565b8173ffffffffffffffffffffffffffffffffffffffff168373ffffffffffffffffffffffffffffffffffffffff16146122cd576122cc83826126e9565b5b5b600073ffffffffffffffffffffffffffffffffffffffff168273ffffffffffffffffffffffffffffffffffffffff16036123105761230b81612856565b61234f565b8273ffffffffffffffffffffffffffffffffffffffff168273ffffffffffffffffffffffffffffffffffffffff161461234e5761234d8282612927565b5b5b505050565b505050565b6060600082036123a0576040518060400160405280600181526020017f300000000000000000000000000000000000000000000000000000000000000081525090506124b4565b600082905060005b600082146123d25780806123bb906139d3565b915050600a826123cb919061492e565b91506123a8565b60008167ffffffffffffffff8111156123ee576123ed612f40565b5b6040519080825280601f01601f1916602001820160405280156124205781602001600182028036833780820191505090505b5090505b600085146124ad576001826124399190614403565b9150600a85612448919061495f565b60306124549190614437565b60f81b81838151811061246a57612469613b3f565b5b60200101907effffffffffffffffffffffffffffffffffffffffffffffffffffffffffffff1916908160001a905350600a856124a6919061492e565b9450612424565b8093505050505b919050565b60006124da8473ffffffffffffffffffffffffffffffffffffffff166129a6565b15612633578373ffffffffffffffffffffffffffffffffffffffff1663150b7a026125036119a1565b8786866040518563ffffffff1660e01b815260040161252594939291906149e5565b6020604051808303816000875af192505050801561256157506040513d601f19601f8201168201806040525081019061255e9190614a46565b60015b6125e3573d8060008114612591576040519150601f19603f3d011682016040523d82523d6000602084013e612596565b606091505b5060008151036125db576040517f08c379a00000000000000000000000000000000000000000000000000000000081526004016125d2906145d9565b60405180910390fd5b805181602001fd5b63150b7a0260e01b7bffffffffffffffffffffffffffffffffffffffffffffffffffffffff1916817bffffffffffffffffffffffffffffffffffffffffffffffffffffffff191614915050612638565b600190505b949350505050565b61264a83836129c9565b61265760008484846124b9565b612696576040517f08c379a000000000000000000000000000000000000000000000000000000000815260040161268d906145d9565b60405180910390fd5b505050565b505050565b6008805490506009600083815260200190815260200160002081905550600881908060018154018082558091505060019003906000526020600020016000909190919091505550565b600060016126f684610dc8565b6127009190614403565b90506000600760008481526020019081526020016000205490508181146127e5576000600660008673ffffffffffffffffffffffffffffffffffffffff1673ffffffffffffffffffffffffffffffffffffffff168152602001908152602001600020600084815260200190815260200160002054905080600660008773ffffffffffffffffffffffffffffffffffffffff1673ffffffffffffffffffffffffffffffffffffffff168152602001908152602001600020600084815260200190815260200160002081905550816007600083815260200190815260200160002081905550505b6007600084815260200190815260200160002060009055600660008573ffffffffffffffffffffffffffffffffffffffff1673ffffffffffffffffffffffffffffffffffffffff16815260200190815260200160002060008381526020019081526020016000206000905550505050565b6000600160088054905061286a9190614403565b905060006009600084815260200190815260200160002054905060006008838154811061289a57612899613b3f565b5b9060005260206000200154905080600883815481106128bc576128bb613b3f565b5b90600052602060002001819055508160096000838152602001908152602001600020819055506009600085815260200190815260200160002060009055600880548061290b5761290a614a73565b5b6001900381819060005260206000200160009055905550505050565b600061293283610dc8565b905081600660008573ffffffffffffffffffffffffffffffffffffffff1673ffffffffffffffffffffffffffffffffffffffff168152602001908152602001600020600083815260200190815260200160002081905550806007600084815260200190815260200160002081905550505050565b6000808273ffffffffffffffffffffffffffffffffffffffff163b119050919050565b600073ffffffffffffffffffffffffffffffffffffffff168273ffffffffffffffffffffffffffffffffffffffff1603612a38576040517f08c379a0000000000000000000000000000000000000000000000000000000008152600401612a2f90614aee565b60405180910390fd5b612a41816120e1565b15612a81576040517f08c379a0000000000000000000000000000000000000000000000000000000008152600401612a7890614b5a565b60405180910390fd5b612a8d60008383612242565b6001600360008473ffffffffffffffffffffffffffffffffffffffff1673ffffffffffffffffffffffffffffffffffffffff1681526020019081526020016000206000828254612add9190614437565b92505081905550816002600083815260200190815260200160002060006101000a81548173ffffffffffffffffffffffffffffffffffffffff021916908373ffffffffffffffffffffffffffffffffffffffff160217905550808273ffffffffffffffffffffffffffffffffffffffff16600073ffffffffffffffffffffffffffffffffffffffff167fddf252ad1be2c89b69c2b068fc378daa952ba7f163c4a11628f55a4df523b3ef60405160405180910390a4612b9e60008383612354565b5050565b6000604051905090565b600080fd5b600080fd5b60007fffffffff0000000000000000000000000000000000000000000000000000000082169050919050565b612beb81612bb6565b8114612bf657600080fd5b50565b600081359050612c0881612be2565b92915050565b600060208284031215612c2457612c23612bac565b5b6000612c3284828501612bf9565b91505092915050565b60008115159050919050565b612c5081612c3b565b82525050565b6000602082019050612c6b6000830184612c47565b92915050565b600081519050919050565b600082825260208201905092915050565b60005b83811015612cab578082015181840152602081019050612c90565b60008484015250505050565b6000601f19601f8301169050919050565b6000612cd382612c71565b612cdd8185612c7c565b9350612ced818560208601612c8d565b612cf681612cb7565b840191505092915050565b60006020820190508181036000830152612d1b8184612cc8565b905092915050565b6000819050919050565b612d3681612d23565b8114612d4157600080fd5b50565b600081359050612d5381612d2d565b92915050565b600060208284031215612d6f57612d6e612bac565b5b6000612d7d84828501612d44565b91505092915050565b600073ffffffffffffffffffffffffffffffffffffffff82169050919050565b6000612db182612d86565b9050919050565b612dc181612da6565b82525050565b6000602082019050612ddc6000830184612db8565b92915050565b612deb81612da6565b8114612df657600080fd5b50565b600081359050612e0881612de2565b92915050565b60008060408385031215612e2557612e24612bac565b5b6000612e3385828601612df9565b9250506020612e4485828601612d44565b9150509250929050565b6000612e5982612da6565b9050919050565b612e6981612e4e565b8114612e7457600080fd5b50565b600081359050612e8681612e60565b92915050565b600060208284031215612ea257612ea1612bac565b5b6000612eb084828501612e77565b91505092915050565b612ec281612d23565b82525050565b6000602082019050612edd6000830184612eb9565b92915050565b600080600060608486031215612efc57612efb612bac565b5b6000612f0a86828701612df9565b9350506020612f1b86828701612df9565b9250506040612f2c86828701612d44565b9150509250925092565b600080fd5b600080fd5b7f4e487b7100000000000000000000000000000000000000000000000000000000600052604160045260246000fd5b612f7882612cb7565b810181811067ffffffffffffffff82111715612f9757612f96612f40565b5b80604052505050565b6000612faa612ba2565b9050612fb68282612f6f565b919050565b600067ffffffffffffffff821115612fd657612fd5612f40565b5b612fdf82612cb7565b9050602081019050919050565b82818337600083830152505050565b600061300e61300984612fbb565b612fa0565b90508281526020810184848401111561302a57613029612f3b565b5b613035848285612fec565b509392505050565b600082601f83011261305257613051612f36565b5b8135613062848260208601612ffb565b91505092915050565b600080600080600060a0868803121561308757613086612bac565b5b600086013567ffffffffffffffff8111156130a5576130a4612bb1565b5b6130b18882890161303d565b95505060206130c288828901612df9565b94505060406130d388828901612d44565b93505060606130e488828901612d44565b925050608086013567ffffffffffffffff81111561310557613104612bb1565b5b6131118882890161303d565b9150509295509295909350565b600080fd5b600080fd5b60008083601f84011261313e5761313d612f36565b5b8235905067ffffffffffffffff81111561315b5761315a61311e565b5b60208301915083602082028301111561317757613176613123565b5b9250929050565b60008060008060008060a0878903121561319b5761319a612bac565b5b600087013567ffffffffffffffff8111156131b9576131b8612bb1565b5b6131c589828a01613128565b965096505060206131d889828a01612df9565b94505060406131e989828a01612d44565b93505060606131fa89828a01612d44565b925050608087013567ffffffffffffffff81111561321b5761321a612bb1565b5b61322789828a0161303d565b9150509295509295509295565b60006020828403121561324a57613249612bac565b5b600061325884828501612df9565b91505092915050565b6000819050919050565b600061328661328161327c84612d86565b613261565b612d86565b9050919050565b60006132988261326b565b9050919050565b60006132aa8261328d565b9050919050565b6132ba8161329f565b82525050565b60006020820190506132d560008301846132b1565b92915050565b6132e481612c3b565b81146132ef57600080fd5b50565b600081359050613301816132db565b92915050565b60006020828403121561331d5761331c612bac565b5b600061332b848285016132f2565b91505092915050565b6000806040838503121561334b5761334a612bac565b5b600061335985828601612df9565b925050602061336a858286016132f2565b9150509250929050565b600061337f8261328d565b9050919050565b61338f81613374565b82525050565b60006020820190506133aa6000830184613386565b92915050565b600067ffffffffffffffff8211156133cb576133ca612f40565b5b6133d482612cb7565b9050602081019050919050565b60006133f46133ef846133b0565b612fa0565b9050828152602081018484840111156134105761340f612f3b565b5b61341b848285612fec565b509392505050565b600082601f83011261343857613437612f36565b5b81356134488482602086016133e1565b91505092915050565b6000806000806080858703121561346b5761346a612bac565b5b600061347987828801612df9565b945050602061348a87828801612df9565b935050604061349b87828801612d44565b925050606085013567ffffffffffffffff8111156134bc576134bb612bb1565b5b6134c887828801613423565b91505092959194509250565b600080600080608085870312156134ee576134ed612bac565b5b600085013567ffffffffffffffff81111561350c5761350b612bb1565b5b6135188782880161303d565b945050602061352987828801612df9565b935050604061353a87828801612d44565b925050606085013567ffffffffffffffff81111561355b5761355a612bb1565b5b6135678782880161303d565b91505092959194509250565b60006020828403121561358957613588612bac565b5b600082013567ffffffffffffffff8111156135a7576135a6612bb1565b5b6135b38482850161303d565b91505092915050565b60006040820190506135d16000830185612db8565b6135de6020830184612c47565b9392505050565b60006135f082612da6565b9050919050565b613600816135e5565b811461360b57600080fd5b50565b60008135905061361d816135f7565b92915050565b60006020828403121561363957613638612bac565b5b60006136478482850161360e565b91505092915050565b6000806040838503121561366757613666612bac565b5b600061367585828601612df9565b925050602061368685828601612df9565b9150509250929050565b7f4e487b7100000000000000000000000000000000000000000000000000000000600052602260045260246000fd5b600060028204905060018216806136d757607f821691505b6020821081036136ea576136e9613690565b5b50919050565b7f4552433732313a20617070726f76616c20746f2063757272656e74206f776e6560008201527f7200000000000000000000000000000000000000000000000000000000000000602082015250565b600061374c602183612c7c565b9150613757826136f0565b604082019050919050565b6000602082019050818103600083015261377b8161373f565b9050919050565b7f4552433732313a20617070726f76652063616c6c6572206973206e6f7420746f60008201527f6b656e206f776e6572206e6f7220617070726f76656420666f7220616c6c0000602082015250565b60006137de603e83612c7c565b91506137e982613782565b604082019050919050565b6000602082019050818103600083015261380d816137d1565b9050919050565b7f4d61726b6574706c6163653a20686173206265656e20616c726561647920636f60008201527f6e66696775726564000000000000000000000000000000000000000000000000602082015250565b6000613870602883612c7c565b915061387b82613814565b604082019050919050565b6000602082019050818103600083015261389f81613863565b9050919050565b7f4552433732313a2063616c6c6572206973206e6f7420746f6b656e206f776e6560008201527f72206e6f7220617070726f766564000000000000000000000000000000000000602082015250565b6000613902602e83612c7c565b915061390d826138a6565b604082019050919050565b60006020820190508181036000830152613931816138f5565b9050919050565b7f77726f6e6720616d6f756e740000000000000000000000000000000000000000600082015250565b600061396e600c83612c7c565b915061397982613938565b602082019050919050565b6000602082019050818103600083015261399d81613961565b9050919050565b7f4e487b7100000000000000000000000000000000000000000000000000000000600052601160045260246000fd5b60006139de82612d23565b91507fffffffffffffffffffffffffffffffffffffffffffffffffffffffffffffffff8203613a1057613a0f6139a4565b5b600182019050919050565b7f455243373231456e756d657261626c653a206f776e657220696e646578206f7560008201527f74206f6620626f756e6473000000000000000000000000000000000000000000602082015250565b6000613a77602b83612c7c565b9150613a8282613a1b565b604082019050919050565b60006020820190508181036000830152613aa681613a6a565b9050919050565b7f455243373231456e756d657261626c653a20676c6f62616c20696e646578206f60008201527f7574206f6620626f756e64730000000000000000000000000000000000000000602082015250565b6000613b09602c83612c7c565b9150613b1482613aad565b604082019050919050565b60006020820190508181036000830152613b3881613afc565b9050919050565b7f4e487b7100000000000000000000000000000000000000000000000000000000600052603260045260246000fd5b7f4552433732313a20696e76616c696420746f6b656e2049440000000000000000600082015250565b6000613ba4601883612c7c565b9150613baf82613b6e565b602082019050919050565b60006020820190508181036000830152613bd381613b97565b9050919050565b7f496e76616c696420706172616d73000000000000000000000000000000000000600082015250565b6000613c10600e83612c7c565b9150613c1b82613bda565b602082019050919050565b60006020820190508181036000830152613c3f81613c03565b9050919050565b600080fd5b600080fd5b600080fd5b60008083356001602003843603038112613c7257613c71613c46565b5b80840192508235915067ffffffffffffffff821115613c9457613c93613c4b565b5b602083019250600182023603831315613cb057613caf613c50565b5b509250929050565b7f4552433732313a2061646472657373207a65726f206973206e6f74206120766160008201527f6c6964206f776e65720000000000000000000000000000000000000000000000602082015250565b6000613d14602983612c7c565b9150613d1f82613cb8565b604082019050919050565b60006020820190508181036000830152613d4381613d07565b9050919050565b7f416c72656164792073657420656e61626c656400000000000000000000000000600082015250565b6000613d80601383612c7c565b9150613d8b82613d4a565b602082019050919050565b60006020820190508181036000830152613daf81613d73565b9050919050565b7f4552433732314d657461646174613a2055524920717565727920666f72206e6f60008201527f6e6578697374656e7420746f6b656e0000000000000000000000000000000000602082015250565b6000613e12602f83612c7c565b9150613e1d82613db6565b604082019050919050565b60006020820190508181036000830152613e4181613e05565b9050919050565b7f496e76616c696420434944000000000000000000000000000000000000000000600082015250565b6000613e7e600b83612c7c565b9150613e8982613e48565b602082019050919050565b60006020820190508181036000830152613ead81613e71565b9050919050565b600081905092915050565b6000613eca82612c71565b613ed48185613eb4565b9350613ee4818560208601612c8d565b80840191505092915050565b6000613efc8284613ebf565b915081905092915050565b7f496e76616c696420636f6c6c656374696f6e2063726561746f72000000000000600082015250565b6000613f3d601a83612c7c565b9150613f4882613f07565b602082019050919050565b60006020820190508181036000830152613f6c81613f30565b9050919050565b7f496e76616c696420616464726573730000000000000000000000000000000000600082015250565b6000613fa9600f83612c7c565b9150613fb482613f73565b602082019050919050565b60006020820190508181036000830152613fd881613f9c565b9050919050565b7f496e76616c6964206d61726b6574706c61636520616464726573730000000000600082015250565b6000614015601b83612c7c565b915061402082613fdf565b602082019050919050565b6000602082019050818103600083015261404481614008565b9050919050565b600060a0820190506140606000830188612db8565b61406d6020830187612eb9565b61407a6040830186612eb9565b6140876060830185612db8565b81810360808301526140998184612cc8565b90509695505050505050565b600060c0820190506140ba6000830189612db8565b81810360208301526140cc8188612cc8565b90506140db6040830187612eb9565b6140e86060830186612db8565b6140f56080830185612eb9565b61410260a0830184612eb9565b979650505050505050565b60008151905061411c816132db565b92915050565b60006020828403121561413857614137612bac565b5b60006141468482850161410d565b91505092915050565b7f526577617264733a20686173206265656e20616c726561647920636f6e66696760008201527f7572656400000000000000000000000000000000000000000000000000000000602082015250565b60006141ab602483612c7c565b91506141b68261414f565b604082019050919050565b600060208201905081810360008301526141da8161419e565b9050919050565b7f4f776e61626c653a206e6577206f776e657220697320746865207a65726f206160008201527f6464726573730000000000000000000000000000000000000000000000000000602082015250565b600061423d602683612c7c565b9150614248826141e1565b604082019050919050565b6000602082019050818103600083015261426c81614230565b9050919050565b7f4f776e61626c653a2063616c6c6572206973206e6f7420746865206f776e6572600082015250565b60006142a9602083612c7c565b91506142b482614273565b602082019050919050565b600060208201905081810360008301526142d88161429c565b9050919050565b7f4552433732313a207472616e736665722066726f6d20696e636f72726563742060008201527f6f776e6572000000000000000000000000000000000000000000000000000000602082015250565b600061433b602583612c7c565b9150614346826142df565b604082019050919050565b6000602082019050818103600083015261436a8161432e565b9050919050565b7f4552433732313a207472616e7366657220746f20746865207a65726f2061646460008201527f7265737300000000000000000000000000000000000000000000000000000000602082015250565b60006143cd602483612c7c565b91506143d882614371565b604082019050919050565b600060208201905081810360008301526143fc816143c0565b9050919050565b600061440e82612d23565b915061441983612d23565b9250828203905081811115614431576144306139a4565b5b92915050565b600061444282612d23565b915061444d83612d23565b9250828201905080821115614465576144646139a4565b5b92915050565b7f496e76616c696420626173652055524900000000000000000000000000000000600082015250565b60006144a1601083612c7c565b91506144ac8261446b565b602082019050919050565b600060208201905081810360008301526144d081614494565b9050919050565b60006144e38285613ebf565b91506144ef8284613ebf565b91508190509392505050565b7f4552433732313a20617070726f766520746f2063616c6c657200000000000000600082015250565b6000614531601983612c7c565b915061453c826144fb565b602082019050919050565b6000602082019050818103600083015261456081614524565b9050919050565b7f4552433732313a207472616e7366657220746f206e6f6e20455243373231526560008201527f63656976657220696d706c656d656e7465720000000000000000000000000000602082015250565b60006145c3603283612c7c565b91506145ce82614567565b604082019050919050565b600060208201905081810360008301526145f2816145b6565b9050919050565b7f45524337323155524953746f726167653a2055524920736574206f66206e6f6e60008201527f6578697374656e7420746f6b656e000000000000000000000000000000000000602082015250565b6000614655602e83612c7c565b9150614660826145f9565b604082019050919050565b6000602082019050818103600083015261468481614648565b9050919050565b60008190508160005260206000209050919050565b60006020601f8301049050919050565b600082821b905092915050565b6000600883026146ed7fffffffffffffffffffffffffffffffffffffffffffffffffffffffffffffffff826146b0565b6146f786836146b0565b95508019841693508086168417925050509392505050565b600061472a61472561472084612d23565b613261565b612d23565b9050919050565b6000819050919050565b6147448361470f565b61475861475082614731565b8484546146bd565b825550505050565b600090565b61476d614760565b61477881848461473b565b505050565b5b8181101561479c57614791600082614765565b60018101905061477e565b5050565b601f8211156147e1576147b28161468b565b6147bb846146a0565b810160208510156147ca578190505b6147de6147d6856146a0565b83018261477d565b50505b505050565b600082821c905092915050565b6000614804600019846008026147e6565b1980831691505092915050565b600061481d83836147f3565b9150826002028217905092915050565b61483682612c71565b67ffffffffffffffff81111561484f5761484e612f40565b5b61485982546136bf565b6148648282856147a0565b600060209050601f8311600181146148975760008415614885578287015190505b61488f8582614811565b8655506148f7565b601f1984166148a58661468b565b60005b828110156148cd578489015182556001820191506020850194506020810190506148a8565b868310156148ea57848901516148e6601f8916826147f3565b8355505b6001600288020188555050505b505050505050565b7f4e487b7100000000000000000000000000000000000000000000000000000000600052601260045260246000fd5b600061493982612d23565b915061494483612d23565b925082614954576149536148ff565b5b828204905092915050565b600061496a82612d23565b915061497583612d23565b925082614985576149846148ff565b5b828206905092915050565b600081519050919050565b600082825260208201905092915050565b60006149b782614990565b6149c1818561499b565b93506149d1818560208601612c8d565b6149da81612cb7565b840191505092915050565b60006080820190506149fa6000830187612db8565b614a076020830186612db8565b614a146040830185612eb9565b8181036060830152614a2681846149ac565b905095945050505050565b600081519050614a4081612be2565b92915050565b600060208284031215614a5c57614a5b612bac565b5b6000614a6a84828501614a31565b91505092915050565b7f4e487b7100000000000000000000000000000000000000000000000000000000600052603160045260246000fd5b7f4552433732313a206d696e7420746f20746865207a65726f2061646472657373600082015250565b6000614ad8602083612c7c565b9150614ae382614aa2565b602082019050919050565b60006020820190508181036000830152614b0781614acb565b9050919050565b7f4552433732313a20746f6b656e20616c7265616479206d696e74656400000000600082015250565b6000614b44601c83612c7c565b9150614b4f82614b0e565b602082019050919050565b60006020820190508181036000830152614b7381614b37565b905091905056fea2646970667358221220e5914d44e1329bd23e4a9a92a3d2cb726b78be2230721bc4b2646c25caa6044164736f6c63430008110033",
  "linkReferences": {},
  "deployedLinkReferences": {}
}