{
  "_format": "hh-sol-artifact-1",
  "contractName": "NichoNFTMarketplace",
  "sourceName": "contracts/NichoNFTMarketplace.sol",
  "abi": [
    {
      "inputs": [
        {
          "internalType": "address",
          "name": "_blacklist",
          "type": "address"
        },
        {
          "internalType": "address",
          "name": "_nicho",
          "type": "address"
        },
        {
          "internalType": "address",
          "name": "_nichonft",
          "type": "address"
        },
        {
          "internalType": "contract INichoNFTAuction",
          "name": "_nichonftAuctionContract",
          "type": "address"
        }
      ],
      "stateMutability": "nonpayable",
      "type": "constructor"
    },
    {
      "anonymous": false,
      "inputs": [
        {
          "indexed": false,
          "internalType": "address",
          "name": "token_address",
          "type": "address"
        },
        {
          "indexed": false,
          "internalType": "uint256",
          "name": "token_id",
          "type": "uint256"
        },
        {
          "indexed": true,
          "internalType": "address",
          "name": "owner",
          "type": "address"
        },
        {
          "indexed": false,
          "internalType": "bool",
          "name": "is_listed",
          "type": "bool"
        }
      ],
      "name": "ListCancel",
      "type": "event"
    },
    {
      "anonymous": false,
      "inputs": [
        {
          "indexed": false,
          "internalType": "address",
          "name": "token_address",
          "type": "address"
        },
        {
          "indexed": false,
          "internalType": "uint256",
          "name": "token_id",
          "type": "uint256"
        },
        {
          "indexed": true,
          "internalType": "address",
          "name": "creator",
          "type": "address"
        },
        {
          "indexed": false,
          "internalType": "uint256",
          "name": "price",
          "type": "uint256"
        },
        {
          "indexed": false,
          "internalType": "enum IHelper.PayType",
          "name": "pay_type",
          "type": "uint8"
        },
        {
          "indexed": false,
          "internalType": "uint256",
          "name": "expire_at",
          "type": "uint256"
        },
        {
          "indexed": false,
          "internalType": "uint80",
          "name": "auction_id",
          "type": "uint80"
        }
      ],
      "name": "ListedNFT",
      "type": "event"
    },
    {
      "anonymous": false,
      "inputs": [
        {
          "indexed": false,
          "internalType": "address",
          "name": "token_address",
          "type": "address"
        },
        {
          "indexed": false,
          "internalType": "uint256",
          "name": "token_id",
          "type": "uint256"
        },
        {
          "indexed": true,
          "internalType": "address",
          "name": "creator",
          "type": "address"
        }
      ],
      "name": "OfferCancels",
      "type": "event"
    },
    {
      "anonymous": false,
      "inputs": [
        {
          "indexed": false,
          "internalType": "address",
          "name": "token_address",
          "type": "address"
        },
        {
          "indexed": false,
          "internalType": "uint256",
          "name": "token_id",
          "type": "uint256"
        },
        {
          "indexed": true,
          "internalType": "address",
          "name": "creator",
          "type": "address"
        },
        {
          "indexed": false,
          "internalType": "uint256",
          "name": "price",
          "type": "uint256"
        },
        {
          "indexed": false,
          "internalType": "uint256",
          "name": "expire_at",
          "type": "uint256"
        },
        {
          "indexed": false,
          "internalType": "enum IHelper.PayType",
          "name": "pay_type",
          "type": "uint8"
        }
      ],
      "name": "Offers",
      "type": "event"
    },
    {
      "anonymous": false,
      "inputs": [
        {
          "indexed": true,
          "internalType": "address",
          "name": "previousOwner",
          "type": "address"
        },
        {
          "indexed": true,
          "internalType": "address",
          "name": "newOwner",
          "type": "address"
        }
      ],
      "name": "OwnershipTransferred",
      "type": "event"
    },
    {
      "anonymous": false,
      "inputs": [
        {
          "indexed": false,
          "internalType": "address",
          "name": "token_address",
          "type": "address"
        },
        {
          "indexed": false,
          "internalType": "uint256",
          "name": "token_id",
          "type": "uint256"
        },
        {
          "indexed": true,
          "internalType": "address",
          "name": "previous_owner",
          "type": "address"
        },
        {
          "indexed": true,
          "internalType": "address",
          "name": "new_owner",
          "type": "address"
        },
        {
          "indexed": false,
          "internalType": "uint256",
          "name": "price",
          "type": "uint256"
        },
        {
          "indexed": false,
          "internalType": "enum IHelper.PayType",
          "name": "pay_type",
          "type": "uint8"
        }
      ],
      "name": "TradeActivity",
      "type": "event"
    },
    {
      "inputs": [
        {
          "internalType": "address",
          "name": "tokenAddress",
          "type": "address"
        },
        {
          "internalType": "uint256",
          "name": "tokenId",
          "type": "uint256"
        },
        {
          "internalType": "address",
          "name": "offerCreator",
          "type": "address"
        }
      ],
      "name": "acceptOffer",
      "outputs": [],
      "stateMutability": "nonpayable",
      "type": "function"
    },
    {
      "inputs": [
        {
          "internalType": "address[]",
          "name": "tokenAddress",
          "type": "address[]"
        },
        {
          "internalType": "uint256[]",
          "name": "tokenId",
          "type": "uint256[]"
        },
        {
          "internalType": "uint256",
          "name": "askingPrice",
          "type": "uint256"
        },
        {
          "internalType": "enum IHelper.PayType",
          "name": "_payType",
          "type": "uint8"
        }
      ],
      "name": "batchListItemToMarket",
      "outputs": [],
      "stateMutability": "nonpayable",
      "type": "function"
    },
    {
      "inputs": [],
      "name": "blacklistContract",
      "outputs": [
        {
          "internalType": "contract INFTBlackList",
          "name": "",
          "type": "address"
        }
      ],
      "stateMutability": "view",
      "type": "function"
    },
    {
      "inputs": [
        {
          "internalType": "address",
          "name": "tokenAddress",
          "type": "address"
        },
        {
          "internalType": "uint256",
          "name": "tokenId",
          "type": "uint256"
        }
      ],
      "name": "buy",
      "outputs": [],
      "stateMutability": "payable",
      "type": "function"
    },
    {
      "inputs": [
        {
          "internalType": "address",
          "name": "tokenAddress",
          "type": "address"
        },
        {
          "internalType": "uint256",
          "name": "tokenId",
          "type": "uint256"
        },
        {
          "internalType": "uint256",
          "name": "amount",
          "type": "uint256"
        }
      ],
      "name": "buyWithNichoToken",
      "outputs": [],
      "stateMutability": "nonpayable",
      "type": "function"
    },
    {
      "inputs": [
        {
          "internalType": "address",
          "name": "tokenAddress",
          "type": "address"
        },
        {
          "internalType": "uint256",
          "name": "tokenId",
          "type": "uint256"
        }
      ],
      "name": "cancelListFromAuctionCreation",
      "outputs": [],
      "stateMutability": "nonpayable",
      "type": "function"
    },
    {
      "inputs": [
        {
          "internalType": "address",
          "name": "tokenAddress",
          "type": "address"
        },
        {
          "internalType": "uint256",
          "name": "tokenId",
          "type": "uint256"
        }
      ],
      "name": "cancelListing",
      "outputs": [],
      "stateMutability": "nonpayable",
      "type": "function"
    },
    {
      "inputs": [
        {
          "internalType": "address",
          "name": "tokenAddress",
          "type": "address"
        },
        {
          "internalType": "uint256",
          "name": "tokenId",
          "type": "uint256"
        }
      ],
      "name": "cancelOffer",
      "outputs": [],
      "stateMutability": "nonpayable",
      "type": "function"
    },
    {
      "inputs": [
        {
          "internalType": "address",
          "name": "tokenAddress",
          "type": "address"
        },
        {
          "internalType": "uint256",
          "name": "tokenId",
          "type": "uint256"
        },
        {
          "internalType": "uint256",
          "name": "deadline",
          "type": "uint256"
        }
      ],
      "name": "createOffer",
      "outputs": [],
      "stateMutability": "payable",
      "type": "function"
    },
    {
      "inputs": [
        {
          "internalType": "address",
          "name": "tokenAddress",
          "type": "address"
        },
        {
          "internalType": "uint256",
          "name": "tokenId",
          "type": "uint256"
        },
        {
          "internalType": "uint256",
          "name": "deadline",
          "type": "uint256"
        },
        {
          "internalType": "uint256",
          "name": "amount",
          "type": "uint256"
        }
      ],
      "name": "createOfferWithNicho",
      "outputs": [],
      "stateMutability": "nonpayable",
      "type": "function"
    },
    {
      "inputs": [
        {
          "internalType": "address",
          "name": "",
          "type": "address"
        }
      ],
      "name": "directListable",
      "outputs": [
        {
          "internalType": "bool",
          "name": "",
          "type": "bool"
        }
      ],
      "stateMutability": "view",
      "type": "function"
    },
    {
      "inputs": [
        {
          "internalType": "address",
          "name": "_tokenAddress",
          "type": "address"
        },
        {
          "internalType": "uint256",
          "name": "_tokenId",
          "type": "uint256"
        },
        {
          "internalType": "address",
          "name": "_creator",
          "type": "address"
        },
        {
          "internalType": "uint256",
          "name": "_startPrice",
          "type": "uint256"
        },
        {
          "internalType": "enum IHelper.PayType",
          "name": "_payType",
          "type": "uint8"
        },
        {
          "internalType": "uint256",
          "name": "_expireTs",
          "type": "uint256"
        },
        {
          "internalType": "uint80",
          "name": "_nextAuctionId",
          "type": "uint80"
        }
      ],
      "name": "emitListedNFTFromAuctionContract",
      "outputs": [],
      "stateMutability": "nonpayable",
      "type": "function"
    },
    {
      "inputs": [
        {
          "internalType": "address",
          "name": "_tokenAddress",
          "type": "address"
        },
        {
          "internalType": "uint256",
          "name": "_tokenId",
          "type": "uint256"
        },
        {
          "internalType": "address",
          "name": "_prevOwner",
          "type": "address"
        },
        {
          "internalType": "address",
          "name": "_newOwner",
          "type": "address"
        },
        {
          "internalType": "uint256",
          "name": "_price",
          "type": "uint256"
        },
        {
          "internalType": "enum IHelper.PayType",
          "name": "_payType",
          "type": "uint8"
        }
      ],
      "name": "emitTradeActivityFromAuctionContract",
      "outputs": [],
      "stateMutability": "nonpayable",
      "type": "function"
    },
    {
      "inputs": [
        {
          "internalType": "address",
          "name": "tokenAddress",
          "type": "address"
        },
        {
          "internalType": "uint256",
          "name": "tokenId",
          "type": "uint256"
        }
      ],
      "name": "getItemInfo",
      "outputs": [
        {
          "components": [
            {
              "internalType": "address",
              "name": "creator",
              "type": "address"
            },
            {
              "internalType": "bool",
              "name": "isListed",
              "type": "bool"
            },
            {
              "internalType": "uint256",
              "name": "price",
              "type": "uint256"
            },
            {
              "internalType": "enum IHelper.PayType",
              "name": "payType",
              "type": "uint8"
            }
          ],
          "internalType": "struct MarketplaceHelper.Item",
          "name": "item",
          "type": "tuple"
        }
      ],
      "stateMutability": "view",
      "type": "function"
    },
    {
      "inputs": [
        {
          "internalType": "address",
          "name": "tokenAddress",
          "type": "address"
        },
        {
          "internalType": "uint256",
          "name": "tokenId",
          "type": "uint256"
        },
        {
          "internalType": "address",
          "name": "sender",
          "type": "address"
        }
      ],
      "name": "getOfferItemInfo",
      "outputs": [
        {
          "components": [
            {
              "internalType": "uint256",
              "name": "price",
              "type": "uint256"
            },
            {
              "internalType": "uint256",
              "name": "expireTs",
              "type": "uint256"
            },
            {
              "internalType": "bool",
              "name": "isLive",
              "type": "bool"
            },
            {
              "internalType": "enum IHelper.PayType",
              "name": "payType",
              "type": "uint8"
            }
          ],
          "internalType": "struct NichoNFTMarketplace.OfferItem",
          "name": "item",
          "type": "tuple"
        }
      ],
      "stateMutability": "view",
      "type": "function"
    },
    {
      "inputs": [
        {
          "internalType": "address",
          "name": "tokenAddress",
          "type": "address"
        },
        {
          "internalType": "uint256",
          "name": "tokenId",
          "type": "uint256"
        },
        {
          "internalType": "uint256",
          "name": "askingPrice",
          "type": "uint256"
        },
        {
          "internalType": "enum IHelper.PayType",
          "name": "_payType",
          "type": "uint8"
        }
      ],
      "name": "listItemToMarket",
      "outputs": [],
      "stateMutability": "nonpayable",
      "type": "function"
    },
    {
      "inputs": [
        {
          "internalType": "address",
          "name": "tokenAddress",
          "type": "address"
        },
        {
          "internalType": "uint256",
          "name": "tokenId",
          "type": "uint256"
        },
        {
          "internalType": "uint256",
          "name": "askingPrice",
          "type": "uint256"
        },
        {
          "internalType": "enum IHelper.PayType",
          "name": "_payType",
          "type": "uint8"
        },
        {
          "internalType": "address",
          "name": "_creator",
          "type": "address"
        }
      ],
      "name": "listItemToMarketFromMint",
      "outputs": [],
      "stateMutability": "nonpayable",
      "type": "function"
    },
    {
      "inputs": [],
      "name": "nicho",
      "outputs": [
        {
          "internalType": "contract IERC20",
          "name": "",
          "type": "address"
        }
      ],
      "stateMutability": "view",
      "type": "function"
    },
    {
      "inputs": [],
      "name": "owner",
      "outputs": [
        {
          "internalType": "address",
          "name": "",
          "type": "address"
        }
      ],
      "stateMutability": "view",
      "type": "function"
    },
    {
      "inputs": [],
      "name": "renounceOwnership",
      "outputs": [],
      "stateMutability": "nonpayable",
      "type": "function"
    },
    {
      "inputs": [
        {
          "internalType": "address",
          "name": "newOwner",
          "type": "address"
        }
      ],
      "name": "transferOwnership",
      "outputs": [],
      "stateMutability": "nonpayable",
      "type": "function"
    },
    {
      "inputs": [
        {
          "internalType": "uint256",
          "name": "_amount",
          "type": "uint256"
        }
      ],
      "name": "withdrawETH",
      "outputs": [],
      "stateMutability": "nonpayable",
      "type": "function"
    },
    {
      "inputs": [
        {
          "internalType": "address",
          "name": "_token",
          "type": "address"
        },
        {
          "internalType": "uint256",
          "name": "_amount",
          "type": "uint256"
        }
      ],
      "name": "withdrawTokens",
      "outputs": [],
      "stateMutability": "nonpayable",
      "type": "function"
    },
    {
      "stateMutability": "payable",
      "type": "receive"
    }
  ],
  "bytecode": "0x60806040523480156200001157600080fd5b50604051620056e4380380620056e4833981810160405281019062000037919062000303565b8383620000596200004d6200018860201b60201c565b6200019060201b60201c565b81600160006101000a81548173ffffffffffffffffffffffffffffffffffffffff021916908373ffffffffffffffffffffffffffffffffffffffff16021790555080600260006101000a81548173ffffffffffffffffffffffffffffffffffffffff021916908373ffffffffffffffffffffffffffffffffffffffff160217905550505060016003819055506001600760008473ffffffffffffffffffffffffffffffffffffffff1673ffffffffffffffffffffffffffffffffffffffff16815260200190815260200160002060006101000a81548160ff02191690831515021790555080600460006101000a81548173ffffffffffffffffffffffffffffffffffffffff021916908373ffffffffffffffffffffffffffffffffffffffff1602179055505050505062000375565b600033905090565b60008060009054906101000a900473ffffffffffffffffffffffffffffffffffffffff169050816000806101000a81548173ffffffffffffffffffffffffffffffffffffffff021916908373ffffffffffffffffffffffffffffffffffffffff1602179055508173ffffffffffffffffffffffffffffffffffffffff168173ffffffffffffffffffffffffffffffffffffffff167f8be0079c531659141344cd1fd0a4f28419497f9722a3daafe3b4186f6b6457e060405160405180910390a35050565b600080fd5b600073ffffffffffffffffffffffffffffffffffffffff82169050919050565b6000620002868262000259565b9050919050565b620002988162000279565b8114620002a457600080fd5b50565b600081519050620002b8816200028d565b92915050565b6000620002cb8262000279565b9050919050565b620002dd81620002be565b8114620002e957600080fd5b50565b600081519050620002fd81620002d2565b92915050565b6000806000806080858703121562000320576200031f62000254565b5b60006200033087828801620002a7565b94505060206200034387828801620002a7565b93505060406200035687828801620002a7565b92505060606200036987828801620002ec565b91505092959194509250565b61535f80620003856000396000f3fe6080604052600436106101445760003560e01c806376c561d1116100b6578063cce7ec131161006f578063cce7ec131461042a578063cf2d376814610446578063dc61bc671461046f578063f14210a614610498578063f2fde38b146104c1578063f3e1a4df146104ea5761014b565b806376c561d1146103325780638da5cb5b1461035b578063a3d2523114610386578063b2ddee06146103af578063c1a4bd82146103d8578063c22d6908146104015761014b565b80632cfff5d6116101085780632cfff5d61461022457806336047330146102615780633bbb28061461028a5780636dd6078d146102b3578063715018a6146102de578063751c1504146102f55761014b565b806301c58a1d14610150578063058a56ac1461017957806306b091f9146101a25780631c6c7128146101cb5780631f7a9ee3146101e75761014b565b3661014b57005b600080fd5b34801561015c57600080fd5b5061017760048036038101906101729190613ab3565b610515565b005b34801561018557600080fd5b506101a0600480360381019061019b9190613b2e565b6106f2565b005b3480156101ae57600080fd5b506101c960048036038101906101c49190613b2e565b61096b565b005b6101e560048036038101906101e09190613b6e565b610ab2565b005b3480156101f357600080fd5b5061020e60048036038101906102099190613bc1565b610ac5565b60405161021b9190613d0a565b60405180910390f35b34801561023057600080fd5b5061024b60048036038101906102469190613b2e565b610bd8565b6040516102589190613d89565b60405180910390f35b34801561026d57600080fd5b5061028860048036038101906102839190613da4565b610cf9565b005b34801561029657600080fd5b506102b160048036038101906102ac9190613bc1565b611166565b005b3480156102bf57600080fd5b506102c8611927565b6040516102d59190613e6a565b60405180910390f35b3480156102ea57600080fd5b506102f361194d565b005b34801561030157600080fd5b5061031c60048036038101906103179190613e85565b611961565b6040516103299190613ec1565b60405180910390f35b34801561033e57600080fd5b5061035960048036038101906103549190613f97565b611981565b005b34801561036757600080fd5b50610370611ab2565b60405161037d919061404d565b60405180910390f35b34801561039257600080fd5b506103ad60048036038101906103a89190614068565b611adb565b005b3480156103bb57600080fd5b506103d660048036038101906103d19190613b2e565b611bcf565b005b3480156103e457600080fd5b506103ff60048036038101906103fa91906140cf565b611f3f565b005b34801561040d57600080fd5b5061042860048036038101906104239190613b2e565b612042565b005b610444600480360381019061043f9190613b2e565b612152565b005b34801561045257600080fd5b5061046d6004803603810190610468919061419e565b6125f8565b005b34801561047b57600080fd5b5061049660048036038101906104919190613b6e565b6126e9565b005b3480156104a457600080fd5b506104bf60048036038101906104ba9190614240565b612b90565b005b3480156104cd57600080fd5b506104e860048036038101906104e39190613e85565b612c25565b005b3480156104f657600080fd5b506104ff612ca8565b60405161050c919061428e565b60405180910390f35b60011515600760003373ffffffffffffffffffffffffffffffffffffffff1673ffffffffffffffffffffffffffffffffffffffff16815260200190815260200160002060009054906101000a900460ff161515146105a8576040517f08c379a000000000000000000000000000000000000000000000000000000000815260040161059f90614306565b60405180910390fd5b6000600560008773ffffffffffffffffffffffffffffffffffffffff1673ffffffffffffffffffffffffffffffffffffffff16815260200190815260200160002060008681526020019081526020016000209050838160010181905550828160020160006101000a81548160ff0219169083600281111561062c5761062b613c3e565b5b021790555060018160000160146101000a81548160ff021916908315150217905550818160000160006101000a81548173ffffffffffffffffffffffffffffffffffffffff021916908373ffffffffffffffffffffffffffffffffffffffff1602179055508173ffffffffffffffffffffffffffffffffffffffff167f4a73522993fc6cdfb404d6f68785dfdbb72f25fd25b137f12eb281842c81dc82878787876000806040516106e2969594939291906143b0565b60405180910390a2505050505050565b600660008373ffffffffffffffffffffffffffffffffffffffff1673ffffffffffffffffffffffffffffffffffffffff168152602001908152602001600020600082815260200190815260200160002060003373ffffffffffffffffffffffffffffffffffffffff1673ffffffffffffffffffffffffffffffffffffffff16815260200190815260200160002060020160009054906101000a900460ff166107cf576040517f08c379a00000000000000000000000000000000000000000000000000000000081526004016107c69061445d565b60405180910390fd5b6000600660008473ffffffffffffffffffffffffffffffffffffffff1673ffffffffffffffffffffffffffffffffffffffff168152602001908152602001600020600083815260200190815260200160002060003373ffffffffffffffffffffffffffffffffffffffff1673ffffffffffffffffffffffffffffffffffffffff168152602001908152602001600020905060008160000154905060008260020160006101000a81548160ff02191690831515021790555060008260000181905550600160028111156108a4576108a3613c3e565b5b8260020160019054906101000a900460ff1660028111156108c8576108c7613c3e565b5b03610915573373ffffffffffffffffffffffffffffffffffffffff166108fc829081150290604051600060405180830381858888f19350505050158015610913573d6000803e3d6000fd5b505b3373ffffffffffffffffffffffffffffffffffffffff167f5cc15a466936ad14a2db4b70eedcc2b5f9c31520093d7622cc2051755dcf4e21858560405161095d92919061447d565b60405180910390a250505050565b610973612cce565b808273ffffffffffffffffffffffffffffffffffffffff166370a08231306040518263ffffffff1660e01b81526004016109ad919061404d565b602060405180830381865afa1580156109ca573d6000803e3d6000fd5b505050506040513d601f19601f820116820180604052508101906109ee91906144bb565b1015610a2f576040517f08c379a0000000000000000000000000000000000000000000000000000000008152600401610a2690614534565b60405180910390fd5b8173ffffffffffffffffffffffffffffffffffffffff1663a9059cbb33836040518363ffffffff1660e01b8152600401610a6a92919061447d565b6020604051808303816000875af1158015610a89573d6000803e3d6000fd5b505050506040513d601f19601f82011682018060405250810190610aad9190614580565b505050565b610ac0838383346001612d4c565b505050565b610acd613962565b600660008573ffffffffffffffffffffffffffffffffffffffff1673ffffffffffffffffffffffffffffffffffffffff168152602001908152602001600020600084815260200190815260200160002060008373ffffffffffffffffffffffffffffffffffffffff1673ffffffffffffffffffffffffffffffffffffffff16815260200190815260200160002060405180608001604052908160008201548152602001600182015481526020016002820160009054906101000a900460ff161515151581526020016002820160019054906101000a900460ff166002811115610bb957610bb8613c3e565b5b6002811115610bcb57610bca613c3e565b5b8152505090509392505050565b610be061399e565b600560008473ffffffffffffffffffffffffffffffffffffffff1673ffffffffffffffffffffffffffffffffffffffff16815260200190815260200160002060008381526020019081526020016000206040518060800160405290816000820160009054906101000a900473ffffffffffffffffffffffffffffffffffffffff1673ffffffffffffffffffffffffffffffffffffffff1673ffffffffffffffffffffffffffffffffffffffff1681526020016000820160149054906101000a900460ff16151515158152602001600182015481526020016002820160009054906101000a900460ff166002811115610cdb57610cda613c3e565b5b6002811115610ced57610cec613c3e565b5b81525050905092915050565b838360001515600160009054906101000a900473ffffffffffffffffffffffffffffffffffffffff1673ffffffffffffffffffffffffffffffffffffffff1663c1db0dce84846040518363ffffffff1660e01b8152600401610d5c92919061447d565b602060405180830381865afa158015610d79573d6000803e3d6000fd5b505050506040513d601f19601f82011682018060405250810190610d9d9190614580565b151514610ddf576040517f08c379a0000000000000000000000000000000000000000000000000000000008152600401610dd6906145f9565b60405180910390fd5b858560008273ffffffffffffffffffffffffffffffffffffffff16636352211e836040518263ffffffff1660e01b8152600401610e1c9190614619565b602060405180830381865afa158015610e39573d6000803e3d6000fd5b505050506040513d601f19601f82011682018060405250810190610e5d9190614649565b90503373ffffffffffffffffffffffffffffffffffffffff168173ffffffffffffffffffffffffffffffffffffffff1614610ecd576040517f08c379a0000000000000000000000000000000000000000000000000000000008152600401610ec4906146e8565b60405180910390fd5b6000899050600089905060006002811115610eeb57610eea613c3e565b5b886002811115610efe57610efd613c3e565b5b03610f3e576040517f08c379a0000000000000000000000000000000000000000000000000000000008152600401610f3590614754565b60405180910390fd5b610f488282613082565b610f87576040517f08c379a0000000000000000000000000000000000000000000000000000000008152600401610f7e906147c0565b60405180910390fd5b6000600560008473ffffffffffffffffffffffffffffffffffffffff1673ffffffffffffffffffffffffffffffffffffffff16815260200190815260200160002060008381526020019081526020016000209050898160010181905550888160020160006101000a81548160ff0219169083600281111561100b5761100a613c3e565b5b021790555060018160000160146101000a81548160ff021916908315150217905550338160000160006101000a81548173ffffffffffffffffffffffffffffffffffffffff021916908373ffffffffffffffffffffffffffffffffffffffff160217905550600460009054906101000a900473ffffffffffffffffffffffffffffffffffffffff1673ffffffffffffffffffffffffffffffffffffffff1663c53d0acc84846040518363ffffffff1660e01b81526004016110cd92919061447d565b600060405180830381600087803b1580156110e757600080fd5b505af11580156110fb573d6000803e3d6000fd5b505050503373ffffffffffffffffffffffffffffffffffffffff167f4a73522993fc6cdfb404d6f68785dfdbb72f25fd25b137f12eb281842c81dc8284848d8d600080604051611150969594939291906143b0565b60405180910390a2505050505050505050505050565b828260001515600160009054906101000a900473ffffffffffffffffffffffffffffffffffffffff1673ffffffffffffffffffffffffffffffffffffffff1663c1db0dce84846040518363ffffffff1660e01b81526004016111c992919061447d565b602060405180830381865afa1580156111e6573d6000803e3d6000fd5b505050506040513d601f19601f8201168201806040525081019061120a9190614580565b15151461124c576040517f08c379a0000000000000000000000000000000000000000000000000000000008152600401611243906145f9565b60405180910390fd5b848460008273ffffffffffffffffffffffffffffffffffffffff16636352211e836040518263ffffffff1660e01b81526004016112899190614619565b602060405180830381865afa1580156112a6573d6000803e3d6000fd5b505050506040513d601f19601f820116820180604052508101906112ca9190614649565b90503373ffffffffffffffffffffffffffffffffffffffff168173ffffffffffffffffffffffffffffffffffffffff161461133a576040517f08c379a0000000000000000000000000000000000000000000000000000000008152600401611331906146e8565b60405180910390fd5b6000600660008a73ffffffffffffffffffffffffffffffffffffffff1673ffffffffffffffffffffffffffffffffffffffff168152602001908152602001600020600089815260200190815260200160002060008873ffffffffffffffffffffffffffffffffffffffff1673ffffffffffffffffffffffffffffffffffffffff16815260200190815260200160002060405180608001604052908160008201548152602001600182015481526020016002820160009054906101000a900460ff161515151581526020016002820160019054906101000a900460ff16600281111561142857611427613c3e565b5b600281111561143a57611439613c3e565b5b8152505090508060400151611484576040517f08c379a000000000000000000000000000000000000000000000000000000000815260040161147b9061482c565b60405180910390fd5b42816020015110156114cb576040517f08c379a00000000000000000000000000000000000000000000000000000000081526004016114c290614898565b60405180910390fd5b6114d58989613082565b611514576040517f08c379a000000000000000000000000000000000000000000000000000000000815260040161150b90614904565b60405180910390fd5b8873ffffffffffffffffffffffffffffffffffffffff166342842e0e33898b6040518463ffffffff1660e01b815260040161155193929190614924565b600060405180830381600087803b15801561156b57600080fd5b505af115801561157f573d6000803e3d6000fd5b505050506000816000015190506000600660008c73ffffffffffffffffffffffffffffffffffffffff1673ffffffffffffffffffffffffffffffffffffffff16815260200190815260200160002060008b815260200190815260200160002060008a73ffffffffffffffffffffffffffffffffffffffff1673ffffffffffffffffffffffffffffffffffffffff16815260200190815260200160002060405180608001604052908160008201548152602001600182015481526020016002820160009054906101000a900460ff161515151581526020016002820160019054906101000a900460ff16600281111561167a57611679613c3e565b5b600281111561168c5761168b613c3e565b5b81525050905060008160400190151590811515815250506000816000018181525050600160028111156116c2576116c1613c3e565b5b836060015160028111156116d9576116d8613c3e565b5b0361172e573373ffffffffffffffffffffffffffffffffffffffff166108fc84600001519081150290604051600060405180830381858888f19350505050158015611728573d6000803e3d6000fd5b50611802565b60028081111561174157611740613c3e565b5b8360600151600281111561175857611757613c3e565b5b0361180157600260009054906101000a900473ffffffffffffffffffffffffffffffffffffffff1673ffffffffffffffffffffffffffffffffffffffff166323b872dd8a33856040518463ffffffff1660e01b81526004016117bc93929190614924565b6020604051808303816000875af11580156117db573d6000803e3d6000fd5b505050506040513d601f19601f820116820180604052508101906117ff9190614580565b505b5b6000600560008d73ffffffffffffffffffffffffffffffffffffffff1673ffffffffffffffffffffffffffffffffffffffff16815260200190815260200160002060008c8152602001908152602001600020905060008160000160146101000a81548160ff0219169083151502179055506000816001018190555060008160020160006101000a81548160ff021916908360028111156118a5576118a4613c3e565b5b02179055503373ffffffffffffffffffffffffffffffffffffffff168a73ffffffffffffffffffffffffffffffffffffffff167f49629749471eff4140e01fc33cf3eeaaa0d54db1ade24a5aee37304396fa33e28e8e878960600151604051611911949392919061495b565b60405180910390a3505050505050505050505050565b600260009054906101000a900473ffffffffffffffffffffffffffffffffffffffff1681565b611955612cce565b61195f6000613235565b565b60076020528060005260406000206000915054906101000a900460ff1681565b8383905086869050146119c9576040517f08c379a00000000000000000000000000000000000000000000000000000000081526004016119c0906149ec565b60405180910390fd5b600060028111156119dd576119dc613c3e565b5b8160028111156119f0576119ef613c3e565b5b03611a30576040517f08c379a0000000000000000000000000000000000000000000000000000000008152600401611a2790614754565b60405180910390fd5b60005b86869050811015611aa9576000878783818110611a5357611a52614a0c565b5b9050602002016020810190611a689190613e85565b90506000868684818110611a7f57611a7e614a0c565b5b905060200201359050611a9482828787610cf9565b50508080611aa190614a6a565b915050611a33565b50505050505050565b60008060009054906101000a900473ffffffffffffffffffffffffffffffffffffffff16905090565b80600260009054906101000a900473ffffffffffffffffffffffffffffffffffffffff1673ffffffffffffffffffffffffffffffffffffffff1663dd62ed3e33306040518363ffffffff1660e01b8152600401611b39929190614ab2565b602060405180830381865afa158015611b56573d6000803e3d6000fd5b505050506040513d601f19601f82011682018060405250810190611b7a91906144bb565b1015611bbb576040517f08c379a0000000000000000000000000000000000000000000000000000000008152600401611bb290614b27565b60405180910390fd5b611bc9848484846002612d4c565b50505050565b818160008273ffffffffffffffffffffffffffffffffffffffff16636352211e836040518263ffffffff1660e01b8152600401611c0c9190614619565b602060405180830381865afa158015611c29573d6000803e3d6000fd5b505050506040513d601f19601f82011682018060405250810190611c4d9190614649565b90503373ffffffffffffffffffffffffffffffffffffffff168173ffffffffffffffffffffffffffffffffffffffff1614611cbd576040517f08c379a0000000000000000000000000000000000000000000000000000000008152600401611cb4906146e8565b60405180910390fd5b60008490506000869050600560008273ffffffffffffffffffffffffffffffffffffffff1673ffffffffffffffffffffffffffffffffffffffff168152602001908152602001600020600083815260200190815260200160002060000160149054906101000a900460ff1615611daa576000600560008373ffffffffffffffffffffffffffffffffffffffff1673ffffffffffffffffffffffffffffffffffffffff1681526020019081526020016000206000848152602001908152602001600020905060008160000160146101000a81548160ff02191690831515021790555060008160010181905550505b60011515600460009054906101000a900473ffffffffffffffffffffffffffffffffffffffff1673ffffffffffffffffffffffffffffffffffffffff1663f8a206fa83856040518363ffffffff1660e01b8152600401611e0b92919061447d565b602060405180830381865afa158015611e28573d6000803e3d6000fd5b505050506040513d601f19601f82011682018060405250810190611e4c9190614580565b151503611ee357600460009054906101000a900473ffffffffffffffffffffffffffffffffffffffff1673ffffffffffffffffffffffffffffffffffffffff1663c53d0acc82846040518363ffffffff1660e01b8152600401611eb092919061447d565b600060405180830381600087803b158015611eca57600080fd5b505af1158015611ede573d6000803e3d6000fd5b505050505b3373ffffffffffffffffffffffffffffffffffffffff167f7d2db2e6e4cacca1d4dcf19357b1966f202d7f9a40cd5869fcbba517693cb45882846000604051611f2e93929190614b47565b60405180910390a250505050505050565b600460009054906101000a900473ffffffffffffffffffffffffffffffffffffffff1673ffffffffffffffffffffffffffffffffffffffff163373ffffffffffffffffffffffffffffffffffffffff1614611fcf576040517f08c379a0000000000000000000000000000000000000000000000000000000008152600401611fc690614bca565b60405180910390fd5b8273ffffffffffffffffffffffffffffffffffffffff168473ffffffffffffffffffffffffffffffffffffffff167f49629749471eff4140e01fc33cf3eeaaa0d54db1ade24a5aee37304396fa33e288888686604051612032949392919061495b565b60405180910390a3505050505050565b600460009054906101000a900473ffffffffffffffffffffffffffffffffffffffff1673ffffffffffffffffffffffffffffffffffffffff163373ffffffffffffffffffffffffffffffffffffffff16146120d2576040517f08c379a00000000000000000000000000000000000000000000000000000000081526004016120c990614bca565b60405180910390fd5b6000600560008473ffffffffffffffffffffffffffffffffffffffff1673ffffffffffffffffffffffffffffffffffffffff1681526020019081526020016000206000838152602001908152602001600020905060008160000160146101000a81548160ff02191690831515021790555060008160010181905550505050565b600260035403612197576040517f08c379a000000000000000000000000000000000000000000000000000000000815260040161218e90614c36565b60405180910390fd5b6002600381905550818160001515600160009054906101000a900473ffffffffffffffffffffffffffffffffffffffff1673ffffffffffffffffffffffffffffffffffffffff1663c1db0dce84846040518363ffffffff1660e01b815260040161220292919061447d565b602060405180830381865afa15801561221f573d6000803e3d6000fd5b505050506040513d601f19601f820116820180604052508101906122439190614580565b151514612285576040517f08c379a000000000000000000000000000000000000000000000000000000000815260040161227c906145f9565b60405180910390fd5b83836000600560008473ffffffffffffffffffffffffffffffffffffffff1673ffffffffffffffffffffffffffffffffffffffff16815260200190815260200160002060008381526020019081526020016000206040518060800160405290816000820160009054906101000a900473ffffffffffffffffffffffffffffffffffffffff1673ffffffffffffffffffffffffffffffffffffffff1673ffffffffffffffffffffffffffffffffffffffff1681526020016000820160149054906101000a900460ff16151515158152602001600182015481526020016002820160009054906101000a900460ff16600281111561238457612383613c3e565b5b600281111561239657612395613c3e565b5b8152505090506001151581602001511515146123e7576040517f08c379a00000000000000000000000000000000000000000000000000000000081526004016123de90614ca2565b60405180910390fd5b60008373ffffffffffffffffffffffffffffffffffffffff16636352211e846040518263ffffffff1660e01b81526004016124229190614619565b602060405180830381865afa15801561243f573d6000803e3d6000fd5b505050506040513d601f19601f820116820180604052508101906124639190614649565b90508073ffffffffffffffffffffffffffffffffffffffff16826000015173ffffffffffffffffffffffffffffffffffffffff16146124d7576040517f08c379a00000000000000000000000000000000000000000000000000000000081526004016124ce90614d0e565b60405180910390fd5b6124e488886001346132f9565b600088905060008173ffffffffffffffffffffffffffffffffffffffff16636352211e8a6040518263ffffffff1660e01b81526004016125249190614619565b602060405180830381865afa158015612541573d6000803e3d6000fd5b505050506040513d601f19601f820116820180604052508101906125659190614649565b905060003390506125778b8b346135fc565b8073ffffffffffffffffffffffffffffffffffffffff168273ffffffffffffffffffffffffffffffffffffffff167f49629749471eff4140e01fc33cf3eeaaa0d54db1ade24a5aee37304396fa33e28d8d3460016040516125db949392919061495b565b60405180910390a350505050505050505060016003819055505050565b600460009054906101000a900473ffffffffffffffffffffffffffffffffffffffff1673ffffffffffffffffffffffffffffffffffffffff163373ffffffffffffffffffffffffffffffffffffffff1614612688576040517f08c379a000000000000000000000000000000000000000000000000000000000815260040161267f90614bca565b60405180910390fd5b8473ffffffffffffffffffffffffffffffffffffffff167f4a73522993fc6cdfb404d6f68785dfdbb72f25fd25b137f12eb281842c81dc828888878787876040516126d896959493929190614d3d565b60405180910390a250505050505050565b60026003540361272e576040517f08c379a000000000000000000000000000000000000000000000000000000000815260040161272590614c36565b60405180910390fd5b6002600381905550828260001515600160009054906101000a900473ffffffffffffffffffffffffffffffffffffffff1673ffffffffffffffffffffffffffffffffffffffff1663c1db0dce84846040518363ffffffff1660e01b815260040161279992919061447d565b602060405180830381865afa1580156127b6573d6000803e3d6000fd5b505050506040513d601f19601f820116820180604052508101906127da9190614580565b15151461281c576040517f08c379a0000000000000000000000000000000000000000000000000000000008152600401612813906145f9565b60405180910390fd5b84846000600560008473ffffffffffffffffffffffffffffffffffffffff1673ffffffffffffffffffffffffffffffffffffffff16815260200190815260200160002060008381526020019081526020016000206040518060800160405290816000820160009054906101000a900473ffffffffffffffffffffffffffffffffffffffff1673ffffffffffffffffffffffffffffffffffffffff1673ffffffffffffffffffffffffffffffffffffffff1681526020016000820160149054906101000a900460ff16151515158152602001600182015481526020016002820160009054906101000a900460ff16600281111561291b5761291a613c3e565b5b600281111561292d5761292c613c3e565b5b81525050905060011515816020015115151461297e576040517f08c379a000000000000000000000000000000000000000000000000000000000815260040161297590614ca2565b60405180910390fd5b60008373ffffffffffffffffffffffffffffffffffffffff16636352211e846040518263ffffffff1660e01b81526004016129b99190614619565b602060405180830381865afa1580156129d6573d6000803e3d6000fd5b505050506040513d601f19601f820116820180604052508101906129fa9190614649565b90508073ffffffffffffffffffffffffffffffffffffffff16826000015173ffffffffffffffffffffffffffffffffffffffff1614612a6e576040517f08c379a0000000000000000000000000000000000000000000000000000000008152600401612a6590614d0e565b60405180910390fd5b612a7b898960028a6132f9565b600089905060008173ffffffffffffffffffffffffffffffffffffffff16636352211e8b6040518263ffffffff1660e01b8152600401612abb9190614619565b602060405180830381865afa158015612ad8573d6000803e3d6000fd5b505050506040513d601f19601f82011682018060405250810190612afc9190614649565b90506000339050612b0e8c8c8c6135fc565b8073ffffffffffffffffffffffffffffffffffffffff168273ffffffffffffffffffffffffffffffffffffffff167f49629749471eff4140e01fc33cf3eeaaa0d54db1ade24a5aee37304396fa33e28e8e8e6002604051612b72949392919061495b565b60405180910390a35050505050505050506001600381905550505050565b612b98612cce565b80471015612bdb576040517f08c379a0000000000000000000000000000000000000000000000000000000008152600401612bd290614534565b60405180910390fd5b3373ffffffffffffffffffffffffffffffffffffffff166108fc829081150290604051600060405180830381858888f19350505050158015612c21573d6000803e3d6000fd5b5050565b612c2d612cce565b600073ffffffffffffffffffffffffffffffffffffffff168173ffffffffffffffffffffffffffffffffffffffff1603612c9c576040517f08c379a0000000000000000000000000000000000000000000000000000000008152600401612c9390614e10565b60405180910390fd5b612ca581613235565b50565b600160009054906101000a900473ffffffffffffffffffffffffffffffffffffffff1681565b612cd6613944565b73ffffffffffffffffffffffffffffffffffffffff16612cf4611ab2565b73ffffffffffffffffffffffffffffffffffffffff1614612d4a576040517f08c379a0000000000000000000000000000000000000000000000000000000008152600401612d4190614e7c565b60405180910390fd5b565b60008211612d8f576040517f08c379a0000000000000000000000000000000000000000000000000000000008152600401612d8690614ee8565b60405180910390fd5b6005831015612dd3576040517f08c379a0000000000000000000000000000000000000000000000000000000008152600401612dca90614f54565b60405180910390fd5b60008590503373ffffffffffffffffffffffffffffffffffffffff168173ffffffffffffffffffffffffffffffffffffffff16636352211e876040518263ffffffff1660e01b8152600401612e289190614619565b602060405180830381865afa158015612e45573d6000803e3d6000fd5b505050506040513d601f19601f82011682018060405250810190612e699190614649565b73ffffffffffffffffffffffffffffffffffffffff1603612ebf576040517f08c379a0000000000000000000000000000000000000000000000000000000008152600401612eb690614fc0565b60405180910390fd5b6000600660008873ffffffffffffffffffffffffffffffffffffffff1673ffffffffffffffffffffffffffffffffffffffff168152602001908152602001600020600087815260200190815260200160002060003373ffffffffffffffffffffffffffffffffffffffff1673ffffffffffffffffffffffffffffffffffffffff1681526020019081526020016000209050600081600001541480612f785750600015158160020160009054906101000a900460ff161515145b612fb7576040517f08c379a0000000000000000000000000000000000000000000000000000000008152600401612fae9061502c565b60405180910390fd5b60008542612fc5919061504c565b905084826000018190555080826001018190555060018260020160006101000a81548160ff021916908315150217905550838260020160016101000a81548160ff0219169083600281111561301d5761301c613c3e565b5b02179055503373ffffffffffffffffffffffffffffffffffffffff167f8cf02345192d13083969573ce4ee4237ed7afaeb715ffec50c418f39bf4f9e638989888589604051613070959493929190615080565b60405180910390a25050505050505050565b6000808390503073ffffffffffffffffffffffffffffffffffffffff168173ffffffffffffffffffffffffffffffffffffffff1663081812fc856040518263ffffffff1660e01b81526004016130d89190614619565b602060405180830381865afa1580156130f5573d6000803e3d6000fd5b505050506040513d601f19601f820116820180604052508101906131199190614649565b73ffffffffffffffffffffffffffffffffffffffff16148061322c57508073ffffffffffffffffffffffffffffffffffffffff1663e985e9c58273ffffffffffffffffffffffffffffffffffffffff16636352211e866040518263ffffffff1660e01b815260040161318b9190614619565b602060405180830381865afa1580156131a8573d6000803e3d6000fd5b505050506040513d601f19601f820116820180604052508101906131cc9190614649565b306040518363ffffffff1660e01b81526004016131ea929190614ab2565b602060405180830381865afa158015613207573d6000803e3d6000fd5b505050506040513d601f19601f8201168201806040525081019061322b9190614580565b5b91505092915050565b60008060009054906101000a900473ffffffffffffffffffffffffffffffffffffffff169050816000806101000a81548173ffffffffffffffffffffffffffffffffffffffff021916908373ffffffffffffffffffffffffffffffffffffffff1602179055508173ffffffffffffffffffffffffffffffffffffffff168173ffffffffffffffffffffffffffffffffffffffff167f8be0079c531659141344cd1fd0a4f28419497f9722a3daafe3b4186f6b6457e060405160405180910390a35050565b6133038484613082565b613342576040517f08c379a00000000000000000000000000000000000000000000000000000000081526004016133399061511f565b60405180910390fd5b60008490503373ffffffffffffffffffffffffffffffffffffffff168173ffffffffffffffffffffffffffffffffffffffff16636352211e866040518263ffffffff1660e01b81526004016133979190614619565b602060405180830381865afa1580156133b4573d6000803e3d6000fd5b505050506040513d601f19601f820116820180604052508101906133d89190614649565b73ffffffffffffffffffffffffffffffffffffffff160361342e576040517f08c379a0000000000000000000000000000000000000000000000000000000008152600401613425906151b1565b60405180910390fd5b6000600560008773ffffffffffffffffffffffffffffffffffffffff1673ffffffffffffffffffffffffffffffffffffffff16815260200190815260200160002060008681526020019081526020016000206040518060800160405290816000820160009054906101000a900473ffffffffffffffffffffffffffffffffffffffff1673ffffffffffffffffffffffffffffffffffffffff1673ffffffffffffffffffffffffffffffffffffffff1681526020016000820160149054906101000a900460ff16151515158152602001600182015481526020016002820160009054906101000a900460ff16600281111561352b5761352a613c3e565b5b600281111561353d5761353c613c3e565b5b81525050905083600281111561355657613555613c3e565b5b8160600151600281111561356d5761356c613c3e565b5b146135ad576040517f08c379a00000000000000000000000000000000000000000000000000000000081526004016135a490615243565b60405180910390fd5b80604001518310156135f4576040517f08c379a00000000000000000000000000000000000000000000000000000000081526004016135eb906152d5565b60405180910390fd5b505050505050565b6000839050600033905060008273ffffffffffffffffffffffffffffffffffffffff16636352211e866040518263ffffffff1660e01b81526004016136419190614619565b602060405180830381865afa15801561365e573d6000803e3d6000fd5b505050506040513d601f19601f820116820180604052508101906136829190614649565b90506000600560008873ffffffffffffffffffffffffffffffffffffffff1673ffffffffffffffffffffffffffffffffffffffff1681526020019081526020016000206000878152602001908152602001600020905060008160010154905060006136f6828861394c90919063ffffffff16565b90506001600281111561370c5761370b613c3e565b5b8360020160009054906101000a900460ff1660028111156137305761372f613c3e565b5b036137d2578373ffffffffffffffffffffffffffffffffffffffff166108fc839081150290604051600060405180830381858888f1935050505015801561377b573d6000803e3d6000fd5b5060008111156137cd578473ffffffffffffffffffffffffffffffffffffffff166108fc829081150290604051600060405180830381858888f193505050501580156137cb573d6000803e3d6000fd5b505b613876565b600260009054906101000a900473ffffffffffffffffffffffffffffffffffffffff1673ffffffffffffffffffffffffffffffffffffffff166323b872dd3386856040518463ffffffff1660e01b815260040161383193929190614924565b6020604051808303816000875af1158015613850573d6000803e3d6000fd5b505050506040513d601f19601f820116820180604052508101906138749190614580565b505b8573ffffffffffffffffffffffffffffffffffffffff166342842e0e85338b6040518463ffffffff1660e01b81526004016138b393929190614924565b600060405180830381600087803b1580156138cd57600080fd5b505af11580156138e1573d6000803e3d6000fd5b5050505060008360000160146101000a81548160ff0219169083151502179055506000836001018190555060008360020160006101000a81548160ff0219169083600281111561393457613933613c3e565b5b0217905550505050505050505050565b600033905090565b6000818361395a91906152f5565b905092915050565b604051806080016040528060008152602001600081526020016000151581526020016000600281111561399857613997613c3e565b5b81525090565b6040518060800160405280600073ffffffffffffffffffffffffffffffffffffffff16815260200160001515815260200160008152602001600060028111156139ea576139e9613c3e565b5b81525090565b600080fd5b600080fd5b600073ffffffffffffffffffffffffffffffffffffffff82169050919050565b6000613a25826139fa565b9050919050565b613a3581613a1a565b8114613a4057600080fd5b50565b600081359050613a5281613a2c565b92915050565b6000819050919050565b613a6b81613a58565b8114613a7657600080fd5b50565b600081359050613a8881613a62565b92915050565b60038110613a9b57600080fd5b50565b600081359050613aad81613a8e565b92915050565b600080600080600060a08688031215613acf57613ace6139f0565b5b6000613add88828901613a43565b9550506020613aee88828901613a79565b9450506040613aff88828901613a79565b9350506060613b1088828901613a9e565b9250506080613b2188828901613a43565b9150509295509295909350565b60008060408385031215613b4557613b446139f0565b5b6000613b5385828601613a43565b9250506020613b6485828601613a79565b9150509250929050565b600080600060608486031215613b8757613b866139f0565b5b6000613b9586828701613a43565b9350506020613ba686828701613a79565b9250506040613bb786828701613a79565b9150509250925092565b600080600060608486031215613bda57613bd96139f0565b5b6000613be886828701613a43565b9350506020613bf986828701613a79565b9250506040613c0a86828701613a43565b9150509250925092565b613c1d81613a58565b82525050565b60008115159050919050565b613c3881613c23565b82525050565b7f4e487b7100000000000000000000000000000000000000000000000000000000600052602160045260246000fd5b60038110613c7e57613c7d613c3e565b5b50565b6000819050613c8f82613c6d565b919050565b6000613c9f82613c81565b9050919050565b613caf81613c94565b82525050565b608082016000820151613ccb6000850182613c14565b506020820151613cde6020850182613c14565b506040820151613cf16040850182613c2f565b506060820151613d046060850182613ca6565b50505050565b6000608082019050613d1f6000830184613cb5565b92915050565b613d2e81613a1a565b82525050565b608082016000820151613d4a6000850182613d25565b506020820151613d5d6020850182613c2f565b506040820151613d706040850182613c14565b506060820151613d836060850182613ca6565b50505050565b6000608082019050613d9e6000830184613d34565b92915050565b60008060008060808587031215613dbe57613dbd6139f0565b5b6000613dcc87828801613a43565b9450506020613ddd87828801613a79565b9350506040613dee87828801613a79565b9250506060613dff87828801613a9e565b91505092959194509250565b6000819050919050565b6000613e30613e2b613e26846139fa565b613e0b565b6139fa565b9050919050565b6000613e4282613e15565b9050919050565b6000613e5482613e37565b9050919050565b613e6481613e49565b82525050565b6000602082019050613e7f6000830184613e5b565b92915050565b600060208284031215613e9b57613e9a6139f0565b5b6000613ea984828501613a43565b91505092915050565b613ebb81613c23565b82525050565b6000602082019050613ed66000830184613eb2565b92915050565b600080fd5b600080fd5b600080fd5b60008083601f840112613f0157613f00613edc565b5b8235905067ffffffffffffffff811115613f1e57613f1d613ee1565b5b602083019150836020820283011115613f3a57613f39613ee6565b5b9250929050565b60008083601f840112613f5757613f56613edc565b5b8235905067ffffffffffffffff811115613f7457613f73613ee1565b5b602083019150836020820283011115613f9057613f8f613ee6565b5b9250929050565b60008060008060008060808789031215613fb457613fb36139f0565b5b600087013567ffffffffffffffff811115613fd257613fd16139f5565b5b613fde89828a01613eeb565b9650965050602087013567ffffffffffffffff811115614001576140006139f5565b5b61400d89828a01613f41565b9450945050604061402089828a01613a79565b925050606061403189828a01613a9e565b9150509295509295509295565b61404781613a1a565b82525050565b6000602082019050614062600083018461403e565b92915050565b60008060008060808587031215614082576140816139f0565b5b600061409087828801613a43565b94505060206140a187828801613a79565b93505060406140b287828801613a79565b92505060606140c387828801613a79565b91505092959194509250565b60008060008060008060c087890312156140ec576140eb6139f0565b5b60006140fa89828a01613a43565b965050602061410b89828a01613a79565b955050604061411c89828a01613a43565b945050606061412d89828a01613a43565b935050608061413e89828a01613a79565b92505060a061414f89828a01613a9e565b9150509295509295509295565b600069ffffffffffffffffffff82169050919050565b61417b8161415c565b811461418657600080fd5b50565b60008135905061419881614172565b92915050565b600080600080600080600060e0888a0312156141bd576141bc6139f0565b5b60006141cb8a828b01613a43565b97505060206141dc8a828b01613a79565b96505060406141ed8a828b01613a43565b95505060606141fe8a828b01613a79565b945050608061420f8a828b01613a9e565b93505060a06142208a828b01613a79565b92505060c06142318a828b01614189565b91505092959891949750929550565b600060208284031215614256576142556139f0565b5b600061426484828501613a79565b91505092915050565b600061427882613e37565b9050919050565b6142888161426d565b82525050565b60006020820190506142a3600083018461427f565b92915050565b600082825260208201905092915050565b7f4c69737461626c653a206e6f7420616c6c6f77656420746f206c697374000000600082015250565b60006142f0601d836142a9565b91506142fb826142ba565b602082019050919050565b6000602082019050818103600083015261431f816142e3565b9050919050565b61432f81613a58565b82525050565b61433e81613c94565b82525050565b6000819050919050565b600061436961436461435f84614344565b613e0b565b613a58565b9050919050565b6143798161434e565b82525050565b600061439a61439561439084614344565b613e0b565b61415c565b9050919050565b6143aa8161437f565b82525050565b600060c0820190506143c5600083018961403e565b6143d26020830188614326565b6143df6040830187614326565b6143ec6060830186614335565b6143f96080830185614370565b61440660a08301846143a1565b979650505050505050565b7f416c726561647920776974686472617765640000000000000000000000000000600082015250565b60006144476012836142a9565b915061445282614411565b602082019050919050565b600060208201905081810360008301526144768161443a565b9050919050565b6000604082019050614492600083018561403e565b61449f6020830184614326565b9392505050565b6000815190506144b581613a62565b92915050565b6000602082840312156144d1576144d06139f0565b5b60006144df848285016144a6565b91505092915050565b7f57726f6e6720616d6f756e740000000000000000000000000000000000000000600082015250565b600061451e600c836142a9565b9150614529826144e8565b602082019050919050565b6000602082019050818103600083015261454d81614511565b9050919050565b61455d81613c23565b811461456857600080fd5b50565b60008151905061457a81614554565b92915050565b600060208284031215614596576145956139f0565b5b60006145a48482850161456b565b91505092915050565b7f54686973204e465420697320696e20626c61636b4c6973740000000000000000600082015250565b60006145e36018836142a9565b91506145ee826145ad565b602082019050919050565b60006020820190508181036000830152614612816145d6565b9050919050565b600060208201905061462e6000830184614326565b92915050565b60008151905061464381613a2c565b92915050565b60006020828403121561465f5761465e6139f0565b5b600061466d84828501614634565b91505092915050565b7f546f6b656e204f776e65723a20796f7520617265206e6f74206120746f6b656e60008201527f206f776e65720000000000000000000000000000000000000000000000000000602082015250565b60006146d26026836142a9565b91506146dd82614676565b604082019050919050565b60006020820190508181036000830152614701816146c5565b9050919050565b7f496e76616c696420706179207479706500000000000000000000000000000000600082015250565b600061473e6010836142a9565b915061474982614708565b602082019050919050565b6000602082019050818103600083015261476d81614731565b9050919050565b7f46697273742c20417070726f7665204e46540000000000000000000000000000600082015250565b60006147aa6012836142a9565b91506147b582614774565b602082019050919050565b600060208201905081810360008301526147d98161479d565b9050919050565b7f4f666665722063726561746f7220776974686472617765640000000000000000600082015250565b60006148166018836142a9565b9150614821826147e0565b602082019050919050565b6000602082019050818103600083015261484581614809565b9050919050565b7f4f6666657220616c726561647920657870697265640000000000000000000000600082015250565b60006148826015836142a9565b915061488d8261484c565b602082019050919050565b600060208201905081810360008301526148b181614875565b9050919050565b7f46697273742c20617070726f7665204e46540000000000000000000000000000600082015250565b60006148ee6012836142a9565b91506148f9826148b8565b602082019050919050565b6000602082019050818103600083015261491d816148e1565b9050919050565b6000606082019050614939600083018661403e565b614946602083018561403e565b6149536040830184614326565b949350505050565b6000608082019050614970600083018761403e565b61497d6020830186614326565b61498a6040830185614326565b6149976060830184614335565b95945050505050565b7f41727261792073697a6520646f6573206e6f74206d6174636800000000000000600082015250565b60006149d66019836142a9565b91506149e1826149a0565b602082019050919050565b60006020820190508181036000830152614a05816149c9565b9050919050565b7f4e487b7100000000000000000000000000000000000000000000000000000000600052603260045260246000fd5b7f4e487b7100000000000000000000000000000000000000000000000000000000600052601160045260246000fd5b6000614a7582613a58565b91507fffffffffffffffffffffffffffffffffffffffffffffffffffffffffffffffff8203614aa757614aa6614a3b565b5b600182019050919050565b6000604082019050614ac7600083018561403e565b614ad4602083018461403e565b9392505050565b7f45524332303a2065786365656420616c6c6f77616e6365000000000000000000600082015250565b6000614b116017836142a9565b9150614b1c82614adb565b602082019050919050565b60006020820190508181036000830152614b4081614b04565b9050919050565b6000606082019050614b5c600083018661403e565b614b696020830185614326565b614b766040830184613eb2565b949350505050565b7f496e76616c6964206e6963686f6e667420636f6e747261637400000000000000600082015250565b6000614bb46019836142a9565b9150614bbf82614b7e565b602082019050919050565b60006020820190508181036000830152614be381614ba7565b9050919050565b7f5265656e7472616e637947756172643a207265656e7472616e742063616c6c00600082015250565b6000614c20601f836142a9565b9150614c2b82614bea565b602082019050919050565b60006020820190508181036000830152614c4f81614c13565b9050919050565b7f546f6b656e3a206e6f74206c6973746564206f6e206d61726b6574706c616365600082015250565b6000614c8c6020836142a9565b9150614c9782614c56565b602082019050919050565b60006020820190508181036000830152614cbb81614c7f565b9050919050565b7f596f7520617265206e6f742063726561746f7200000000000000000000000000600082015250565b6000614cf86013836142a9565b9150614d0382614cc2565b602082019050919050565b60006020820190508181036000830152614d2781614ceb565b9050919050565b614d378161415c565b82525050565b600060c082019050614d52600083018961403e565b614d5f6020830188614326565b614d6c6040830187614326565b614d796060830186614335565b614d866080830185614326565b614d9360a0830184614d2e565b979650505050505050565b7f4f776e61626c653a206e6577206f776e657220697320746865207a65726f206160008201527f6464726573730000000000000000000000000000000000000000000000000000602082015250565b6000614dfa6026836142a9565b9150614e0582614d9e565b604082019050919050565b60006020820190508181036000830152614e2981614ded565b9050919050565b7f4f776e61626c653a2063616c6c6572206973206e6f7420746865206f776e6572600082015250565b6000614e666020836142a9565b9150614e7182614e30565b602082019050919050565b60006020820190508181036000830152614e9581614e59565b9050919050565b7f496e76616c696420616d6f756e74000000000000000000000000000000000000600082015250565b6000614ed2600e836142a9565b9150614edd82614e9c565b602082019050919050565b60006020820190508181036000830152614f0181614ec5565b9050919050565b7f496e76616c696420646561646c696e6500000000000000000000000000000000600082015250565b6000614f3e6010836142a9565b9150614f4982614f08565b602082019050919050565b60006020820190508181036000830152614f6d81614f31565b9050919050565b7f4f776e65722063616e6e6f7420637265617465206f6666657200000000000000600082015250565b6000614faa6019836142a9565b9150614fb582614f74565b602082019050919050565b60006020820190508181036000830152614fd981614f9d565b9050919050565b7f596f7527766520616c72656164792063726561746564206f6666657200000000600082015250565b6000615016601c836142a9565b915061502182614fe0565b602082019050919050565b6000602082019050818103600083015261504581615009565b9050919050565b600061505782613a58565b915061506283613a58565b925082820190508082111561507a57615079614a3b565b5b92915050565b600060a082019050615095600083018861403e565b6150a26020830187614326565b6150af6040830186614326565b6150bc6060830185614326565b6150c96080830184614335565b9695505050505050565b7f4e6f7420617070726f7665642066726f6d206f776e65722e0000000000000000600082015250565b60006151096018836142a9565b9150615114826150d3565b602082019050919050565b60006020820190508181036000830152615138816150fc565b9050919050565b7f546f6b656e206f776e65722063616e206e6f742062757920796f7572204e465460008201527f732e000000000000000000000000000000000000000000000000000000000000602082015250565b600061519b6022836142a9565b91506151a68261513f565b604082019050919050565b600060208201905081810360008301526151ca8161518e565b9050919050565b7f436f696e2074797065206973206e6f7420636f727265637420666f722074686960008201527f732070757263686173652e000000000000000000000000000000000000000000602082015250565b600061522d602b836142a9565b9150615238826151d1565b604082019050919050565b6000602082019050818103600083015261525c81615220565b9050919050565b7f4572726f722c2074686520616d6f756e74206973206c6f776572207468616e2060008201527f7072696365000000000000000000000000000000000000000000000000000000602082015250565b60006152bf6025836142a9565b91506152ca82615263565b604082019050919050565b600060208201905081810360008301526152ee816152b2565b9050919050565b600061530082613a58565b915061530b83613a58565b925082820390508181111561532357615322614a3b565b5b9291505056fea2646970667358221220ef19ea1ca6fc48f4028ee14ac90c1b3b7a806563cee29a41f47bf7ce6f35fa9764736f6c63430008110033",
  "linkReferences": {},
  "deployedLinkReferences": {}
}