{
  "_format": "hh-sol-artifact-1",
  "contractName": "NichoNFTMarketplace",
  "sourceName": "contracts/NichoNFTMarketplace.sol",
  "abi": [
    {
      "inputs": [
        {
          "internalType": "address",
          "name": "_blacklist",
          "type": "address"
        },
        {
          "internalType": "address",
          "name": "_nicho",
          "type": "address"
        },
        {
          "internalType": "address",
          "name": "_nichonft",
          "type": "address"
        }
      ],
      "stateMutability": "nonpayable",
      "type": "constructor"
    },
    {
      "anonymous": false,
      "inputs": [
        {
          "indexed": false,
          "internalType": "address",
          "name": "token_address",
          "type": "address"
        },
        {
          "indexed": false,
          "internalType": "uint256",
          "name": "token_id",
          "type": "uint256"
        },
        {
          "indexed": true,
          "internalType": "address",
          "name": "owner",
          "type": "address"
        },
        {
          "indexed": false,
          "internalType": "bool",
          "name": "is_listed",
          "type": "bool"
        }
      ],
      "name": "ListCancel",
      "type": "event"
    },
    {
      "anonymous": false,
      "inputs": [
        {
          "indexed": false,
          "internalType": "address",
          "name": "token_address",
          "type": "address"
        },
        {
          "indexed": false,
          "internalType": "uint256",
          "name": "token_id",
          "type": "uint256"
        },
        {
          "indexed": true,
          "internalType": "address",
          "name": "creator",
          "type": "address"
        },
        {
          "indexed": false,
          "internalType": "uint256",
          "name": "price",
          "type": "uint256"
        },
        {
          "indexed": false,
          "internalType": "enum IHelper.PayType",
          "name": "pay_type",
          "type": "uint8"
        },
        {
          "indexed": false,
          "internalType": "uint256",
          "name": "expire_at",
          "type": "uint256"
        },
        {
          "indexed": false,
          "internalType": "uint80",
          "name": "auction_id",
          "type": "uint80"
        }
      ],
      "name": "ListedNFT",
      "type": "event"
    },
    {
      "anonymous": false,
      "inputs": [
        {
          "indexed": false,
          "internalType": "address",
          "name": "token_address",
          "type": "address"
        },
        {
          "indexed": false,
          "internalType": "uint256",
          "name": "token_id",
          "type": "uint256"
        },
        {
          "indexed": true,
          "internalType": "address",
          "name": "creator",
          "type": "address"
        }
      ],
      "name": "OfferCancels",
      "type": "event"
    },
    {
      "anonymous": false,
      "inputs": [
        {
          "indexed": false,
          "internalType": "address",
          "name": "token_address",
          "type": "address"
        },
        {
          "indexed": false,
          "internalType": "uint256",
          "name": "token_id",
          "type": "uint256"
        },
        {
          "indexed": true,
          "internalType": "address",
          "name": "creator",
          "type": "address"
        },
        {
          "indexed": false,
          "internalType": "uint256",
          "name": "price",
          "type": "uint256"
        },
        {
          "indexed": false,
          "internalType": "uint256",
          "name": "expire_at",
          "type": "uint256"
        },
        {
          "indexed": false,
          "internalType": "enum IHelper.PayType",
          "name": "pay_type",
          "type": "uint8"
        }
      ],
      "name": "Offers",
      "type": "event"
    },
    {
      "anonymous": false,
      "inputs": [
        {
          "indexed": true,
          "internalType": "address",
          "name": "previousOwner",
          "type": "address"
        },
        {
          "indexed": true,
          "internalType": "address",
          "name": "newOwner",
          "type": "address"
        }
      ],
      "name": "OwnershipTransferred",
      "type": "event"
    },
    {
      "anonymous": false,
      "inputs": [
        {
          "indexed": false,
          "internalType": "address",
          "name": "token_address",
          "type": "address"
        },
        {
          "indexed": false,
          "internalType": "uint256",
          "name": "token_id",
          "type": "uint256"
        },
        {
          "indexed": true,
          "internalType": "address",
          "name": "previous_owner",
          "type": "address"
        },
        {
          "indexed": true,
          "internalType": "address",
          "name": "new_owner",
          "type": "address"
        },
        {
          "indexed": false,
          "internalType": "uint256",
          "name": "price",
          "type": "uint256"
        },
        {
          "indexed": false,
          "internalType": "enum IHelper.PayType",
          "name": "pay_type",
          "type": "uint8"
        }
      ],
      "name": "TradeActivity",
      "type": "event"
    },
    {
      "inputs": [
        {
          "internalType": "address",
          "name": "tokenAddress",
          "type": "address"
        },
        {
          "internalType": "uint256",
          "name": "tokenId",
          "type": "uint256"
        },
        {
          "internalType": "address",
          "name": "offerCreator",
          "type": "address"
        }
      ],
      "name": "acceptOffer",
      "outputs": [],
      "stateMutability": "nonpayable",
      "type": "function"
    },
    {
      "inputs": [
        {
          "internalType": "address[]",
          "name": "tokenAddress",
          "type": "address[]"
        },
        {
          "internalType": "uint256[]",
          "name": "tokenId",
          "type": "uint256[]"
        },
        {
          "internalType": "uint256",
          "name": "askingPrice",
          "type": "uint256"
        },
        {
          "internalType": "enum IHelper.PayType",
          "name": "_payType",
          "type": "uint8"
        }
      ],
      "name": "batchListItemToMarket",
      "outputs": [],
      "stateMutability": "nonpayable",
      "type": "function"
    },
    {
      "inputs": [],
      "name": "blacklistContract",
      "outputs": [
        {
          "internalType": "contract INFTBlackList",
          "name": "",
          "type": "address"
        }
      ],
      "stateMutability": "view",
      "type": "function"
    },
    {
      "inputs": [
        {
          "internalType": "address",
          "name": "tokenAddress",
          "type": "address"
        },
        {
          "internalType": "uint256",
          "name": "tokenId",
          "type": "uint256"
        }
      ],
      "name": "buy",
      "outputs": [],
      "stateMutability": "payable",
      "type": "function"
    },
    {
      "inputs": [
        {
          "internalType": "address",
          "name": "tokenAddress",
          "type": "address"
        },
        {
          "internalType": "uint256",
          "name": "tokenId",
          "type": "uint256"
        },
        {
          "internalType": "uint256",
          "name": "amount",
          "type": "uint256"
        }
      ],
      "name": "buyWithNichoToken",
      "outputs": [],
      "stateMutability": "nonpayable",
      "type": "function"
    },
    {
      "inputs": [
        {
          "internalType": "address",
          "name": "tokenAddress",
          "type": "address"
        },
        {
          "internalType": "uint256",
          "name": "tokenId",
          "type": "uint256"
        }
      ],
      "name": "cancelListFromAuctionCreation",
      "outputs": [],
      "stateMutability": "nonpayable",
      "type": "function"
    },
    {
      "inputs": [
        {
          "internalType": "address",
          "name": "tokenAddress",
          "type": "address"
        },
        {
          "internalType": "uint256",
          "name": "tokenId",
          "type": "uint256"
        }
      ],
      "name": "cancelListing",
      "outputs": [],
      "stateMutability": "nonpayable",
      "type": "function"
    },
    {
      "inputs": [
        {
          "internalType": "address",
          "name": "tokenAddress",
          "type": "address"
        },
        {
          "internalType": "uint256",
          "name": "tokenId",
          "type": "uint256"
        }
      ],
      "name": "cancelOffer",
      "outputs": [],
      "stateMutability": "nonpayable",
      "type": "function"
    },
    {
      "inputs": [
        {
          "internalType": "address",
          "name": "tokenAddress",
          "type": "address"
        },
        {
          "internalType": "uint256",
          "name": "tokenId",
          "type": "uint256"
        },
        {
          "internalType": "uint256",
          "name": "deadline",
          "type": "uint256"
        }
      ],
      "name": "createOffer",
      "outputs": [],
      "stateMutability": "payable",
      "type": "function"
    },
    {
      "inputs": [
        {
          "internalType": "address",
          "name": "tokenAddress",
          "type": "address"
        },
        {
          "internalType": "uint256",
          "name": "tokenId",
          "type": "uint256"
        },
        {
          "internalType": "uint256",
          "name": "deadline",
          "type": "uint256"
        },
        {
          "internalType": "uint256",
          "name": "amount",
          "type": "uint256"
        }
      ],
      "name": "createOfferWithNicho",
      "outputs": [],
      "stateMutability": "nonpayable",
      "type": "function"
    },
    {
      "inputs": [
        {
          "internalType": "address",
          "name": "",
          "type": "address"
        }
      ],
      "name": "directListable",
      "outputs": [
        {
          "internalType": "bool",
          "name": "",
          "type": "bool"
        }
      ],
      "stateMutability": "view",
      "type": "function"
    },
    {
      "inputs": [
        {
          "internalType": "address",
          "name": "_tokenAddress",
          "type": "address"
        },
        {
          "internalType": "uint256",
          "name": "_tokenId",
          "type": "uint256"
        },
        {
          "internalType": "address",
          "name": "_creator",
          "type": "address"
        },
        {
          "internalType": "uint256",
          "name": "_startPrice",
          "type": "uint256"
        },
        {
          "internalType": "enum IHelper.PayType",
          "name": "_payType",
          "type": "uint8"
        },
        {
          "internalType": "uint256",
          "name": "_expireTs",
          "type": "uint256"
        },
        {
          "internalType": "uint80",
          "name": "_nextAuctionId",
          "type": "uint80"
        }
      ],
      "name": "emitListedNFTFromAuctionContract",
      "outputs": [],
      "stateMutability": "nonpayable",
      "type": "function"
    },
    {
      "inputs": [
        {
          "internalType": "address",
          "name": "_tokenAddress",
          "type": "address"
        },
        {
          "internalType": "uint256",
          "name": "_tokenId",
          "type": "uint256"
        },
        {
          "internalType": "address",
          "name": "_prevOwner",
          "type": "address"
        },
        {
          "internalType": "address",
          "name": "_newOwner",
          "type": "address"
        },
        {
          "internalType": "uint256",
          "name": "_price",
          "type": "uint256"
        },
        {
          "internalType": "enum IHelper.PayType",
          "name": "_payType",
          "type": "uint8"
        }
      ],
      "name": "emitTradeActivityFromAuctionContract",
      "outputs": [],
      "stateMutability": "nonpayable",
      "type": "function"
    },
    {
      "inputs": [
        {
          "internalType": "contract INichoNFTAuction",
          "name": "_nichonftAuctionContract",
          "type": "address"
        }
      ],
      "name": "enableNichoNFTAuction",
      "outputs": [],
      "stateMutability": "nonpayable",
      "type": "function"
    },
    {
      "inputs": [],
      "name": "factory",
      "outputs": [
        {
          "internalType": "address",
          "name": "",
          "type": "address"
        }
      ],
      "stateMutability": "view",
      "type": "function"
    },
    {
      "inputs": [
        {
          "internalType": "address",
          "name": "tokenAddress",
          "type": "address"
        },
        {
          "internalType": "uint256",
          "name": "tokenId",
          "type": "uint256"
        }
      ],
      "name": "getItemInfo",
      "outputs": [
        {
          "components": [
            {
              "internalType": "address",
              "name": "creator",
              "type": "address"
            },
            {
              "internalType": "bool",
              "name": "isListed",
              "type": "bool"
            },
            {
              "internalType": "uint256",
              "name": "price",
              "type": "uint256"
            },
            {
              "internalType": "enum IHelper.PayType",
              "name": "payType",
              "type": "uint8"
            }
          ],
          "internalType": "struct MarketplaceHelper.Item",
          "name": "item",
          "type": "tuple"
        }
      ],
      "stateMutability": "view",
      "type": "function"
    },
    {
      "inputs": [
        {
          "internalType": "address",
          "name": "tokenAddress",
          "type": "address"
        },
        {
          "internalType": "uint256",
          "name": "tokenId",
          "type": "uint256"
        },
        {
          "internalType": "address",
          "name": "sender",
          "type": "address"
        }
      ],
      "name": "getOfferItemInfo",
      "outputs": [
        {
          "components": [
            {
              "internalType": "uint256",
              "name": "price",
              "type": "uint256"
            },
            {
              "internalType": "uint256",
              "name": "expireTs",
              "type": "uint256"
            },
            {
              "internalType": "bool",
              "name": "isLive",
              "type": "bool"
            },
            {
              "internalType": "enum IHelper.PayType",
              "name": "payType",
              "type": "uint8"
            }
          ],
          "internalType": "struct NichoNFTMarketplace.OfferItem",
          "name": "item",
          "type": "tuple"
        }
      ],
      "stateMutability": "view",
      "type": "function"
    },
    {
      "inputs": [],
      "name": "isPaused",
      "outputs": [
        {
          "internalType": "bool",
          "name": "",
          "type": "bool"
        }
      ],
      "stateMutability": "view",
      "type": "function"
    },
    {
      "inputs": [
        {
          "internalType": "address",
          "name": "tokenAddress",
          "type": "address"
        },
        {
          "internalType": "uint256",
          "name": "tokenId",
          "type": "uint256"
        },
        {
          "internalType": "uint256",
          "name": "askingPrice",
          "type": "uint256"
        },
        {
          "internalType": "enum IHelper.PayType",
          "name": "_payType",
          "type": "uint8"
        }
      ],
      "name": "listItemToMarket",
      "outputs": [],
      "stateMutability": "nonpayable",
      "type": "function"
    },
    {
      "inputs": [
        {
          "internalType": "address",
          "name": "tokenAddress",
          "type": "address"
        },
        {
          "internalType": "uint256",
          "name": "tokenId",
          "type": "uint256"
        },
        {
          "internalType": "uint256",
          "name": "askingPrice",
          "type": "uint256"
        },
        {
          "internalType": "enum IHelper.PayType",
          "name": "_payType",
          "type": "uint8"
        },
        {
          "internalType": "address",
          "name": "_creator",
          "type": "address"
        }
      ],
      "name": "listItemToMarketFromMint",
      "outputs": [],
      "stateMutability": "nonpayable",
      "type": "function"
    },
    {
      "inputs": [],
      "name": "nicho",
      "outputs": [
        {
          "internalType": "contract IERC20",
          "name": "",
          "type": "address"
        }
      ],
      "stateMutability": "view",
      "type": "function"
    },
    {
      "inputs": [],
      "name": "nichonftAuctionContract",
      "outputs": [
        {
          "internalType": "contract INichoNFTAuction",
          "name": "",
          "type": "address"
        }
      ],
      "stateMutability": "view",
      "type": "function"
    },
    {
      "inputs": [],
      "name": "nichonftRewardsContract",
      "outputs": [
        {
          "internalType": "contract INichoNFTRewards",
          "name": "",
          "type": "address"
        }
      ],
      "stateMutability": "view",
      "type": "function"
    },
    {
      "inputs": [],
      "name": "owner",
      "outputs": [
        {
          "internalType": "address",
          "name": "",
          "type": "address"
        }
      ],
      "stateMutability": "view",
      "type": "function"
    },
    {
      "inputs": [
        {
          "internalType": "bool",
          "name": "_pause",
          "type": "bool"
        }
      ],
      "name": "pause",
      "outputs": [],
      "stateMutability": "nonpayable",
      "type": "function"
    },
    {
      "inputs": [],
      "name": "renounceOwnership",
      "outputs": [],
      "stateMutability": "nonpayable",
      "type": "function"
    },
    {
      "inputs": [
        {
          "internalType": "address",
          "name": "_target",
          "type": "address"
        }
      ],
      "name": "setDirectListable",
      "outputs": [],
      "stateMutability": "nonpayable",
      "type": "function"
    },
    {
      "inputs": [
        {
          "internalType": "address",
          "name": "_factory",
          "type": "address"
        }
      ],
      "name": "setFactoryAddress",
      "outputs": [],
      "stateMutability": "nonpayable",
      "type": "function"
    },
    {
      "inputs": [
        {
          "internalType": "bool",
          "name": "_value",
          "type": "bool"
        }
      ],
      "name": "setPause",
      "outputs": [],
      "stateMutability": "nonpayable",
      "type": "function"
    },
    {
      "inputs": [
        {
          "internalType": "contract INichoNFTRewards",
          "name": "_nichonftRewardsContract",
          "type": "address"
        }
      ],
      "name": "setRewardsContract",
      "outputs": [],
      "stateMutability": "nonpayable",
      "type": "function"
    },
    {
      "inputs": [
        {
          "internalType": "bool",
          "name": "_tradeRewardsEnable",
          "type": "bool"
        }
      ],
      "name": "setTradeRewardsEnable",
      "outputs": [],
      "stateMutability": "nonpayable",
      "type": "function"
    },
    {
      "inputs": [],
      "name": "tradeRewardsEnable",
      "outputs": [
        {
          "internalType": "bool",
          "name": "",
          "type": "bool"
        }
      ],
      "stateMutability": "view",
      "type": "function"
    },
    {
      "inputs": [
        {
          "internalType": "address",
          "name": "newOwner",
          "type": "address"
        }
      ],
      "name": "transferOwnership",
      "outputs": [],
      "stateMutability": "nonpayable",
      "type": "function"
    },
    {
      "inputs": [
        {
          "internalType": "uint256",
          "name": "_amount",
          "type": "uint256"
        }
      ],
      "name": "withdrawETH",
      "outputs": [],
      "stateMutability": "nonpayable",
      "type": "function"
    },
    {
      "inputs": [
        {
          "internalType": "address",
          "name": "_token",
          "type": "address"
        },
        {
          "internalType": "uint256",
          "name": "_amount",
          "type": "uint256"
        }
      ],
      "name": "withdrawTokens",
      "outputs": [],
      "stateMutability": "nonpayable",
      "type": "function"
    },
    {
      "stateMutability": "payable",
      "type": "receive"
    }
  ],
  "bytecode": "0x60806040526000600460146101000a81548160ff0219169083151502179055503480156200002c57600080fd5b50604051620062cb380380620062cb8339818101604052810190620000529190620002a9565b828262000074620000686200017360201b60201c565b6200017b60201b60201c565b81600160006101000a81548173ffffffffffffffffffffffffffffffffffffffff021916908373ffffffffffffffffffffffffffffffffffffffff16021790555080600260006101000a81548173ffffffffffffffffffffffffffffffffffffffff021916908373ffffffffffffffffffffffffffffffffffffffff16021790555060008060146101000a81548160ff02191690831515021790555050506001600860008373ffffffffffffffffffffffffffffffffffffffff1673ffffffffffffffffffffffffffffffffffffffff16815260200190815260200160002060006101000a81548160ff02191690831515021790555050505062000305565b600033905090565b60008060009054906101000a900473ffffffffffffffffffffffffffffffffffffffff169050816000806101000a81548173ffffffffffffffffffffffffffffffffffffffff021916908373ffffffffffffffffffffffffffffffffffffffff1602179055508173ffffffffffffffffffffffffffffffffffffffff168173ffffffffffffffffffffffffffffffffffffffff167f8be0079c531659141344cd1fd0a4f28419497f9722a3daafe3b4186f6b6457e060405160405180910390a35050565b600080fd5b600073ffffffffffffffffffffffffffffffffffffffff82169050919050565b6000620002718262000244565b9050919050565b620002838162000264565b81146200028f57600080fd5b50565b600081519050620002a38162000278565b92915050565b600080600060608486031215620002c557620002c46200023f565b5b6000620002d58682870162000292565b9350506020620002e88682870162000292565b9250506040620002fb8682870162000292565b9150509250925092565b615fb680620003156000396000f3fe6080604052600436106102085760003560e01c8063aad1abdf11610118578063c45a0155116100a0578063dfa0dfa51161006f578063dfa0dfa5146106fe578063f14210a614610727578063f2fde38b14610750578063f3e1a4df14610779578063ffc70dac146107a45761020f565b8063c45a015514610665578063cce7ec1314610690578063cf2d3768146106ac578063dc61bc67146106d55761020f565b8063bb65d2c5116100e7578063bb65d2c514610598578063bedb86fb146105c1578063c0f9a8f7146105ea578063c1a4bd8214610613578063c22d69081461063c5761020f565b8063aad1abdf146104f0578063adc1ea5f1461051b578063b187bd2614610544578063b2ddee061461056f5761020f565b8063360473301161019b578063751c15041161016a578063751c15041461040d57806376c561d11461044a57806383c17c55146104735780638da5cb5b1461049c578063a3d25231146104c75761020f565b806336047330146103795780633bbb2806146103a25780636dd6078d146103cb578063715018a6146103f65761020f565b80631c6c7128116101d75780631c6c7128146102b85780631f3f3563146102d45780631f7a9ee3146102ff5780632cfff5d61461033c5761020f565b806301c58a1d1461021457806302329a291461023d578063058a56ac1461026657806306b091f91461028f5761020f565b3661020f57005b600080fd5b34801561022057600080fd5b5061023b60048036038101906102369190614339565b6107cf565b005b34801561024957600080fd5b50610264600480360381019061025f91906143ec565b6109ac565b005b34801561027257600080fd5b5061028d60048036038101906102889190614419565b6109d1565b005b34801561029b57600080fd5b506102b660048036038101906102b19190614419565b610c4a565b005b6102d260048036038101906102cd9190614459565b610d91565b005b3480156102e057600080fd5b506102e9610da4565b6040516102f6919061450b565b60405180910390f35b34801561030b57600080fd5b5061032660048036038101906103219190614526565b610dca565b6040516103339190614663565b60405180910390f35b34801561034857600080fd5b50610363600480360381019061035e9190614419565b610edd565b60405161037091906146e2565b60405180910390f35b34801561038557600080fd5b506103a0600480360381019061039b91906146fd565b610ffe565b005b3480156103ae57600080fd5b506103c960048036038101906103c49190614526565b6114c2565b005b3480156103d757600080fd5b506103e0611c90565b6040516103ed9190614785565b60405180910390f35b34801561040257600080fd5b5061040b611cb6565b005b34801561041957600080fd5b50610434600480360381019061042f91906147a0565b611cca565b60405161044191906147dc565b60405180910390f35b34801561045657600080fd5b50610471600480360381019061046c91906148b2565b611cea565b005b34801561047f57600080fd5b5061049a600480360381019061049591906147a0565b611e1b565b005b3480156104a857600080fd5b506104b1611f66565b6040516104be9190614968565b60405180910390f35b3480156104d357600080fd5b506104ee60048036038101906104e99190614983565b611f8f565b005b3480156104fc57600080fd5b50610505612083565b6040516105129190614a0b565b60405180910390f35b34801561052757600080fd5b50610542600480360381019061053d91906143ec565b6120a9565b005b34801561055057600080fd5b50610559612123565b60405161056691906147dc565b60405180910390f35b34801561057b57600080fd5b5061059660048036038101906105919190614419565b612136565b005b3480156105a457600080fd5b506105bf60048036038101906105ba91906147a0565b6124fd565b005b3480156105cd57600080fd5b506105e860048036038101906105e391906143ec565b612625565b005b3480156105f657600080fd5b50610611600480360381019061060c9190614a64565b612642565b005b34801561061f57600080fd5b5061063a60048036038101906106359190614a91565b61268e565b005b34801561064857600080fd5b50610663600480360381019061065e9190614419565b612791565b005b34801561067157600080fd5b5061067a6128a1565b6040516106879190614968565b60405180910390f35b6106aa60048036038101906106a59190614419565b6128c7565b005b3480156106b857600080fd5b506106d360048036038101906106ce9190614b60565b612d25565b005b3480156106e157600080fd5b506106fc60048036038101906106f79190614459565b612e16565b005b34801561070a57600080fd5b5061072560048036038101906107209190614c40565b613275565b005b34801561073357600080fd5b5061074e60048036038101906107499190614c6d565b613351565b005b34801561075c57600080fd5b50610777600480360381019061077291906147a0565b6133e6565b005b34801561078557600080fd5b5061078e613469565b60405161079b9190614cbb565b60405180910390f35b3480156107b057600080fd5b506107b961348f565b6040516107c691906147dc565b60405180910390f35b60011515600860003373ffffffffffffffffffffffffffffffffffffffff1673ffffffffffffffffffffffffffffffffffffffff16815260200190815260200160002060009054906101000a900460ff16151514610862576040517f08c379a000000000000000000000000000000000000000000000000000000000815260040161085990614d33565b60405180910390fd5b6000600660008773ffffffffffffffffffffffffffffffffffffffff1673ffffffffffffffffffffffffffffffffffffffff16815260200190815260200160002060008681526020019081526020016000209050838160010181905550828160020160006101000a81548160ff021916908360028111156108e6576108e5614597565b5b021790555060018160000160146101000a81548160ff021916908315150217905550818160000160006101000a81548173ffffffffffffffffffffffffffffffffffffffff021916908373ffffffffffffffffffffffffffffffffffffffff1602179055508173ffffffffffffffffffffffffffffffffffffffff167f4a73522993fc6cdfb404d6f68785dfdbb72f25fd25b137f12eb281842c81dc828787878760008060405161099c96959493929190614ddd565b60405180910390a2505050505050565b6109b46134a2565b80600060146101000a81548160ff02191690831515021790555050565b600760008373ffffffffffffffffffffffffffffffffffffffff1673ffffffffffffffffffffffffffffffffffffffff168152602001908152602001600020600082815260200190815260200160002060003373ffffffffffffffffffffffffffffffffffffffff1673ffffffffffffffffffffffffffffffffffffffff16815260200190815260200160002060020160009054906101000a900460ff16610aae576040517f08c379a0000000000000000000000000000000000000000000000000000000008152600401610aa590614e8a565b60405180910390fd5b6000600760008473ffffffffffffffffffffffffffffffffffffffff1673ffffffffffffffffffffffffffffffffffffffff168152602001908152602001600020600083815260200190815260200160002060003373ffffffffffffffffffffffffffffffffffffffff1673ffffffffffffffffffffffffffffffffffffffff168152602001908152602001600020905060008160000154905060008260020160006101000a81548160ff0219169083151502179055506000826000018190555060016002811115610b8357610b82614597565b5b8260020160019054906101000a900460ff166002811115610ba757610ba6614597565b5b03610bf4573373ffffffffffffffffffffffffffffffffffffffff166108fc829081150290604051600060405180830381858888f19350505050158015610bf2573d6000803e3d6000fd5b505b3373ffffffffffffffffffffffffffffffffffffffff167f5cc15a466936ad14a2db4b70eedcc2b5f9c31520093d7622cc2051755dcf4e218585604051610c3c929190614eaa565b60405180910390a250505050565b610c526134a2565b808273ffffffffffffffffffffffffffffffffffffffff166370a08231306040518263ffffffff1660e01b8152600401610c8c9190614968565b602060405180830381865afa158015610ca9573d6000803e3d6000fd5b505050506040513d601f19601f82011682018060405250810190610ccd9190614ee8565b1015610d0e576040517f08c379a0000000000000000000000000000000000000000000000000000000008152600401610d0590614f61565b60405180910390fd5b8173ffffffffffffffffffffffffffffffffffffffff1663a9059cbb33836040518363ffffffff1660e01b8152600401610d49929190614eaa565b6020604051808303816000875af1158015610d68573d6000803e3d6000fd5b505050506040513d601f19601f82011682018060405250810190610d8c9190614f96565b505050565b610d9f838383346001613520565b505050565b600360009054906101000a900473ffffffffffffffffffffffffffffffffffffffff1681565b610dd26141e8565b600760008573ffffffffffffffffffffffffffffffffffffffff1673ffffffffffffffffffffffffffffffffffffffff168152602001908152602001600020600084815260200190815260200160002060008373ffffffffffffffffffffffffffffffffffffffff1673ffffffffffffffffffffffffffffffffffffffff16815260200190815260200160002060405180608001604052908160008201548152602001600182015481526020016002820160009054906101000a900460ff161515151581526020016002820160019054906101000a900460ff166002811115610ebe57610ebd614597565b5b6002811115610ed057610ecf614597565b5b8152505090509392505050565b610ee5614224565b600660008473ffffffffffffffffffffffffffffffffffffffff1673ffffffffffffffffffffffffffffffffffffffff16815260200190815260200160002060008381526020019081526020016000206040518060800160405290816000820160009054906101000a900473ffffffffffffffffffffffffffffffffffffffff1673ffffffffffffffffffffffffffffffffffffffff1673ffffffffffffffffffffffffffffffffffffffff1681526020016000820160149054906101000a900460ff16151515158152602001600182015481526020016002820160009054906101000a900460ff166002811115610fe057610fdf614597565b5b6002811115610ff257610ff1614597565b5b81525050905092915050565b838360001515600160009054906101000a900473ffffffffffffffffffffffffffffffffffffffff1673ffffffffffffffffffffffffffffffffffffffff1663c1db0dce84846040518363ffffffff1660e01b8152600401611061929190614eaa565b602060405180830381865afa15801561107e573d6000803e3d6000fd5b505050506040513d601f19601f820116820180604052508101906110a29190614f96565b1515146110e4576040517f08c379a00000000000000000000000000000000000000000000000000000000081526004016110db9061500f565b60405180910390fd5b858560008273ffffffffffffffffffffffffffffffffffffffff16636352211e836040518263ffffffff1660e01b8152600401611121919061502f565b602060405180830381865afa15801561113e573d6000803e3d6000fd5b505050506040513d601f19601f82011682018060405250810190611162919061505f565b90503373ffffffffffffffffffffffffffffffffffffffff168173ffffffffffffffffffffffffffffffffffffffff16146111d2576040517f08c379a00000000000000000000000000000000000000000000000000000000081526004016111c9906150fe565b60405180910390fd5b60008990506000899050600060028111156111f0576111ef614597565b5b88600281111561120357611202614597565b5b03611243576040517f08c379a000000000000000000000000000000000000000000000000000000000815260040161123a9061516a565b60405180910390fd5b61124d8282613856565b61128c576040517f08c379a0000000000000000000000000000000000000000000000000000000008152600401611283906151d6565b60405180910390fd5b6000600660008473ffffffffffffffffffffffffffffffffffffffff1673ffffffffffffffffffffffffffffffffffffffff16815260200190815260200160002060008381526020019081526020016000209050898160010181905550888160020160006101000a81548160ff021916908360028111156113105761130f614597565b5b021790555060018160000160146101000a81548160ff021916908315150217905550338160000160006101000a81548173ffffffffffffffffffffffffffffffffffffffff021916908373ffffffffffffffffffffffffffffffffffffffff160217905550600073ffffffffffffffffffffffffffffffffffffffff16600360009054906101000a900473ffffffffffffffffffffffffffffffffffffffff1673ffffffffffffffffffffffffffffffffffffffff161461145b57600360009054906101000a900473ffffffffffffffffffffffffffffffffffffffff1673ffffffffffffffffffffffffffffffffffffffff1663c53d0acc84846040518363ffffffff1660e01b8152600401611428929190614eaa565b600060405180830381600087803b15801561144257600080fd5b505af1158015611456573d6000803e3d6000fd5b505050505b3373ffffffffffffffffffffffffffffffffffffffff167f4a73522993fc6cdfb404d6f68785dfdbb72f25fd25b137f12eb281842c81dc8284848d8d6000806040516114ac96959493929190614ddd565b60405180910390a2505050505050505050505050565b828260001515600160009054906101000a900473ffffffffffffffffffffffffffffffffffffffff1673ffffffffffffffffffffffffffffffffffffffff1663c1db0dce84846040518363ffffffff1660e01b8152600401611525929190614eaa565b602060405180830381865afa158015611542573d6000803e3d6000fd5b505050506040513d601f19601f820116820180604052508101906115669190614f96565b1515146115a8576040517f08c379a000000000000000000000000000000000000000000000000000000000815260040161159f9061500f565b60405180910390fd5b848460008273ffffffffffffffffffffffffffffffffffffffff16636352211e836040518263ffffffff1660e01b81526004016115e5919061502f565b602060405180830381865afa158015611602573d6000803e3d6000fd5b505050506040513d601f19601f82011682018060405250810190611626919061505f565b90503373ffffffffffffffffffffffffffffffffffffffff168173ffffffffffffffffffffffffffffffffffffffff1614611696576040517f08c379a000000000000000000000000000000000000000000000000000000000815260040161168d906150fe565b60405180910390fd5b6000600760008a73ffffffffffffffffffffffffffffffffffffffff1673ffffffffffffffffffffffffffffffffffffffff168152602001908152602001600020600089815260200190815260200160002060008873ffffffffffffffffffffffffffffffffffffffff1673ffffffffffffffffffffffffffffffffffffffff16815260200190815260200160002060405180608001604052908160008201548152602001600182015481526020016002820160009054906101000a900460ff161515151581526020016002820160019054906101000a900460ff16600281111561178457611783614597565b5b600281111561179657611795614597565b5b81525050905080604001516117e0576040517f08c379a00000000000000000000000000000000000000000000000000000000081526004016117d790615242565b60405180910390fd5b4281602001511015611827576040517f08c379a000000000000000000000000000000000000000000000000000000000815260040161181e906152ae565b60405180910390fd5b6118318989613856565b611870576040517f08c379a00000000000000000000000000000000000000000000000000000000081526004016118679061531a565b60405180910390fd5b8873ffffffffffffffffffffffffffffffffffffffff166342842e0e33898b6040518463ffffffff1660e01b81526004016118ad9392919061533a565b600060405180830381600087803b1580156118c757600080fd5b505af11580156118db573d6000803e3d6000fd5b505050506000816000015190506000600760008c73ffffffffffffffffffffffffffffffffffffffff1673ffffffffffffffffffffffffffffffffffffffff16815260200190815260200160002060008b815260200190815260200160002060008a73ffffffffffffffffffffffffffffffffffffffff1673ffffffffffffffffffffffffffffffffffffffff16815260200190815260200160002060405180608001604052908160008201548152602001600182015481526020016002820160009054906101000a900460ff161515151581526020016002820160019054906101000a900460ff1660028111156119d6576119d5614597565b5b60028111156119e8576119e7614597565b5b8152505090506000816040019015159081151581525050600081600001818152505060016002811115611a1e57611a1d614597565b5b83606001516002811115611a3557611a34614597565b5b03611a8a573373ffffffffffffffffffffffffffffffffffffffff166108fc84600001519081150290604051600060405180830381858888f19350505050158015611a84573d6000803e3d6000fd5b50611b5e565b600280811115611a9d57611a9c614597565b5b83606001516002811115611ab457611ab3614597565b5b03611b5d57600260009054906101000a900473ffffffffffffffffffffffffffffffffffffffff1673ffffffffffffffffffffffffffffffffffffffff166323b872dd8a33856040518463ffffffff1660e01b8152600401611b189392919061533a565b6020604051808303816000875af1158015611b37573d6000803e3d6000fd5b505050506040513d601f19601f82011682018060405250810190611b5b9190614f96565b505b5b6000600660008d73ffffffffffffffffffffffffffffffffffffffff1673ffffffffffffffffffffffffffffffffffffffff16815260200190815260200160002060008c8152602001908152602001600020905060008160000160146101000a81548160ff0219169083151502179055506000816001018190555060008160020160006101000a81548160ff02191690836002811115611c0157611c00614597565b5b0217905550611c128c8c3342613a09565b503373ffffffffffffffffffffffffffffffffffffffff168a73ffffffffffffffffffffffffffffffffffffffff167f49629749471eff4140e01fc33cf3eeaaa0d54db1ade24a5aee37304396fa33e28e8e878960600151604051611c7a9493929190615371565b60405180910390a3505050505050505050505050565b600260009054906101000a900473ffffffffffffffffffffffffffffffffffffffff1681565b611cbe6134a2565b611cc86000613ad8565b565b60086020528060005260406000206000915054906101000a900460ff1681565b838390508686905014611d32576040517f08c379a0000000000000000000000000000000000000000000000000000000008152600401611d2990615402565b60405180910390fd5b60006002811115611d4657611d45614597565b5b816002811115611d5957611d58614597565b5b03611d99576040517f08c379a0000000000000000000000000000000000000000000000000000000008152600401611d909061516a565b60405180910390fd5b60005b86869050811015611e12576000878783818110611dbc57611dbb615422565b5b9050602002016020810190611dd191906147a0565b90506000868684818110611de857611de7615422565b5b905060200201359050611dfd82828787610ffe565b50508080611e0a90615480565b915050611d9c565b50505050505050565b611e236134a2565b600073ffffffffffffffffffffffffffffffffffffffff168173ffffffffffffffffffffffffffffffffffffffff1603611e92576040517f08c379a0000000000000000000000000000000000000000000000000000000008152600401611e8990615514565b60405180910390fd5b600560009054906101000a900473ffffffffffffffffffffffffffffffffffffffff1673ffffffffffffffffffffffffffffffffffffffff168173ffffffffffffffffffffffffffffffffffffffff1603611f22576040517f08c379a0000000000000000000000000000000000000000000000000000000008152600401611f1990615580565b60405180910390fd5b80600560006101000a81548173ffffffffffffffffffffffffffffffffffffffff021916908373ffffffffffffffffffffffffffffffffffffffff16021790555050565b60008060009054906101000a900473ffffffffffffffffffffffffffffffffffffffff16905090565b80600260009054906101000a900473ffffffffffffffffffffffffffffffffffffffff1673ffffffffffffffffffffffffffffffffffffffff1663dd62ed3e33306040518363ffffffff1660e01b8152600401611fed9291906155a0565b602060405180830381865afa15801561200a573d6000803e3d6000fd5b505050506040513d601f19601f8201168201806040525081019061202e9190614ee8565b101561206f576040517f08c379a000000000000000000000000000000000000000000000000000000000815260040161206690615615565b60405180910390fd5b61207d848484846002613520565b50505050565b600460009054906101000a900473ffffffffffffffffffffffffffffffffffffffff1681565b6120b16134a2565b801515600460149054906101000a900460ff16151503612106576040517f08c379a00000000000000000000000000000000000000000000000000000000081526004016120fd90615681565b60405180910390fd5b80600460146101000a81548160ff02191690831515021790555050565b600060149054906101000a900460ff1681565b818160008273ffffffffffffffffffffffffffffffffffffffff16636352211e836040518263ffffffff1660e01b8152600401612173919061502f565b602060405180830381865afa158015612190573d6000803e3d6000fd5b505050506040513d601f19601f820116820180604052508101906121b4919061505f565b90503373ffffffffffffffffffffffffffffffffffffffff168173ffffffffffffffffffffffffffffffffffffffff1614612224576040517f08c379a000000000000000000000000000000000000000000000000000000000815260040161221b906150fe565b60405180910390fd5b60008490506000869050600660008273ffffffffffffffffffffffffffffffffffffffff1673ffffffffffffffffffffffffffffffffffffffff168152602001908152602001600020600083815260200190815260200160002060000160149054906101000a900460ff1615612311576000600660008373ffffffffffffffffffffffffffffffffffffffff1673ffffffffffffffffffffffffffffffffffffffff1681526020019081526020016000206000848152602001908152602001600020905060008160000160146101000a81548160ff02191690831515021790555060008160010181905550505b600073ffffffffffffffffffffffffffffffffffffffff16600360009054906101000a900473ffffffffffffffffffffffffffffffffffffffff1673ffffffffffffffffffffffffffffffffffffffff16146124a15760011515600360009054906101000a900473ffffffffffffffffffffffffffffffffffffffff1673ffffffffffffffffffffffffffffffffffffffff1663f8a206fa83856040518363ffffffff1660e01b81526004016123c8929190614eaa565b602060405180830381865afa1580156123e5573d6000803e3d6000fd5b505050506040513d601f19601f820116820180604052508101906124099190614f96565b1515036124a057600360009054906101000a900473ffffffffffffffffffffffffffffffffffffffff1673ffffffffffffffffffffffffffffffffffffffff1663c53d0acc82846040518363ffffffff1660e01b815260040161246d929190614eaa565b600060405180830381600087803b15801561248757600080fd5b505af115801561249b573d6000803e3d6000fd5b505050505b5b3373ffffffffffffffffffffffffffffffffffffffff167f7d2db2e6e4cacca1d4dcf19357b1966f202d7f9a40cd5869fcbba517693cb458828460006040516124ec939291906156a1565b60405180910390a250505050505050565b600560009054906101000a900473ffffffffffffffffffffffffffffffffffffffff1673ffffffffffffffffffffffffffffffffffffffff163373ffffffffffffffffffffffffffffffffffffffff16148061258b575061255c611f66565b73ffffffffffffffffffffffffffffffffffffffff163373ffffffffffffffffffffffffffffffffffffffff16145b6125ca576040517f08c379a00000000000000000000000000000000000000000000000000000000081526004016125c19061574a565b60405180910390fd5b6001600860008373ffffffffffffffffffffffffffffffffffffffff1673ffffffffffffffffffffffffffffffffffffffff16815260200190815260200160002060006101000a81548160ff02191690831515021790555050565b80600060146101000a81548160ff02191690831515021790555050565b61264a6134a2565b80600360006101000a81548173ffffffffffffffffffffffffffffffffffffffff021916908373ffffffffffffffffffffffffffffffffffffffff16021790555050565b600360009054906101000a900473ffffffffffffffffffffffffffffffffffffffff1673ffffffffffffffffffffffffffffffffffffffff163373ffffffffffffffffffffffffffffffffffffffff161461271e576040517f08c379a0000000000000000000000000000000000000000000000000000000008152600401612715906157b6565b60405180910390fd5b8273ffffffffffffffffffffffffffffffffffffffff168473ffffffffffffffffffffffffffffffffffffffff167f49629749471eff4140e01fc33cf3eeaaa0d54db1ade24a5aee37304396fa33e2888886866040516127819493929190615371565b60405180910390a3505050505050565b600360009054906101000a900473ffffffffffffffffffffffffffffffffffffffff1673ffffffffffffffffffffffffffffffffffffffff163373ffffffffffffffffffffffffffffffffffffffff1614612821576040517f08c379a0000000000000000000000000000000000000000000000000000000008152600401612818906157b6565b60405180910390fd5b6000600660008473ffffffffffffffffffffffffffffffffffffffff1673ffffffffffffffffffffffffffffffffffffffff1681526020019081526020016000206000838152602001908152602001600020905060008160000160146101000a81548160ff02191690831515021790555060008160010181905550505050565b600560009054906101000a900473ffffffffffffffffffffffffffffffffffffffff1681565b818160001515600160009054906101000a900473ffffffffffffffffffffffffffffffffffffffff1673ffffffffffffffffffffffffffffffffffffffff1663c1db0dce84846040518363ffffffff1660e01b815260040161292a929190614eaa565b602060405180830381865afa158015612947573d6000803e3d6000fd5b505050506040513d601f19601f8201168201806040525081019061296b9190614f96565b1515146129ad576040517f08c379a00000000000000000000000000000000000000000000000000000000081526004016129a49061500f565b60405180910390fd5b83836000600660008473ffffffffffffffffffffffffffffffffffffffff1673ffffffffffffffffffffffffffffffffffffffff16815260200190815260200160002060008381526020019081526020016000206040518060800160405290816000820160009054906101000a900473ffffffffffffffffffffffffffffffffffffffff1673ffffffffffffffffffffffffffffffffffffffff1673ffffffffffffffffffffffffffffffffffffffff1681526020016000820160149054906101000a900460ff16151515158152602001600182015481526020016002820160009054906101000a900460ff166002811115612aac57612aab614597565b5b6002811115612abe57612abd614597565b5b815250509050600115158160200151151514612b0f576040517f08c379a0000000000000000000000000000000000000000000000000000000008152600401612b0690615822565b60405180910390fd5b60008373ffffffffffffffffffffffffffffffffffffffff16636352211e846040518263ffffffff1660e01b8152600401612b4a919061502f565b602060405180830381865afa158015612b67573d6000803e3d6000fd5b505050506040513d601f19601f82011682018060405250810190612b8b919061505f565b90508073ffffffffffffffffffffffffffffffffffffffff16826000015173ffffffffffffffffffffffffffffffffffffffff1614612bff576040517f08c379a0000000000000000000000000000000000000000000000000000000008152600401612bf69061588e565b60405180910390fd5b612c0c8888600134613b9c565b600088905060008173ffffffffffffffffffffffffffffffffffffffff16636352211e8a6040518263ffffffff1660e01b8152600401612c4c919061502f565b602060405180830381865afa158015612c69573d6000803e3d6000fd5b505050506040513d601f19601f82011682018060405250810190612c8d919061505f565b90506000339050612c9f8b8b34613e9f565b612cab8b8b8342613a09565b508073ffffffffffffffffffffffffffffffffffffffff168273ffffffffffffffffffffffffffffffffffffffff167f49629749471eff4140e01fc33cf3eeaaa0d54db1ade24a5aee37304396fa33e28d8d346001604051612d109493929190615371565b60405180910390a35050505050505050505050565b600360009054906101000a900473ffffffffffffffffffffffffffffffffffffffff1673ffffffffffffffffffffffffffffffffffffffff163373ffffffffffffffffffffffffffffffffffffffff1614612db5576040517f08c379a0000000000000000000000000000000000000000000000000000000008152600401612dac906157b6565b60405180910390fd5b8473ffffffffffffffffffffffffffffffffffffffff167f4a73522993fc6cdfb404d6f68785dfdbb72f25fd25b137f12eb281842c81dc82888887878787604051612e05969594939291906158bd565b60405180910390a250505050505050565b828260001515600160009054906101000a900473ffffffffffffffffffffffffffffffffffffffff1673ffffffffffffffffffffffffffffffffffffffff1663c1db0dce84846040518363ffffffff1660e01b8152600401612e79929190614eaa565b602060405180830381865afa158015612e96573d6000803e3d6000fd5b505050506040513d601f19601f82011682018060405250810190612eba9190614f96565b151514612efc576040517f08c379a0000000000000000000000000000000000000000000000000000000008152600401612ef39061500f565b60405180910390fd5b84846000600660008473ffffffffffffffffffffffffffffffffffffffff1673ffffffffffffffffffffffffffffffffffffffff16815260200190815260200160002060008381526020019081526020016000206040518060800160405290816000820160009054906101000a900473ffffffffffffffffffffffffffffffffffffffff1673ffffffffffffffffffffffffffffffffffffffff1673ffffffffffffffffffffffffffffffffffffffff1681526020016000820160149054906101000a900460ff16151515158152602001600182015481526020016002820160009054906101000a900460ff166002811115612ffb57612ffa614597565b5b600281111561300d5761300c614597565b5b81525050905060011515816020015115151461305e576040517f08c379a000000000000000000000000000000000000000000000000000000000815260040161305590615822565b60405180910390fd5b60008373ffffffffffffffffffffffffffffffffffffffff16636352211e846040518263ffffffff1660e01b8152600401613099919061502f565b602060405180830381865afa1580156130b6573d6000803e3d6000fd5b505050506040513d601f19601f820116820180604052508101906130da919061505f565b90508073ffffffffffffffffffffffffffffffffffffffff16826000015173ffffffffffffffffffffffffffffffffffffffff161461314e576040517f08c379a00000000000000000000000000000000000000000000000000000000081526004016131459061588e565b60405180910390fd5b61315b898960028a613b9c565b600089905060008173ffffffffffffffffffffffffffffffffffffffff16636352211e8b6040518263ffffffff1660e01b815260040161319b919061502f565b602060405180830381865afa1580156131b8573d6000803e3d6000fd5b505050506040513d601f19601f820116820180604052508101906131dc919061505f565b905060003390506131ee8c8c8c613e9f565b6131fa8c8c8342613a09565b508073ffffffffffffffffffffffffffffffffffffffff168273ffffffffffffffffffffffffffffffffffffffff167f49629749471eff4140e01fc33cf3eeaaa0d54db1ade24a5aee37304396fa33e28e8e8e600260405161325f9493929190615371565b60405180910390a3505050505050505050505050565b61327d6134a2565b8073ffffffffffffffffffffffffffffffffffffffff16600460009054906101000a900473ffffffffffffffffffffffffffffffffffffffff1673ffffffffffffffffffffffffffffffffffffffff160361330d576040517f08c379a000000000000000000000000000000000000000000000000000000000815260040161330490615990565b60405180910390fd5b80600460006101000a81548173ffffffffffffffffffffffffffffffffffffffff021916908373ffffffffffffffffffffffffffffffffffffffff16021790555050565b6133596134a2565b8047101561339c576040517f08c379a000000000000000000000000000000000000000000000000000000000815260040161339390614f61565b60405180910390fd5b3373ffffffffffffffffffffffffffffffffffffffff166108fc829081150290604051600060405180830381858888f193505050501580156133e2573d6000803e3d6000fd5b5050565b6133ee6134a2565b600073ffffffffffffffffffffffffffffffffffffffff168173ffffffffffffffffffffffffffffffffffffffff160361345d576040517f08c379a000000000000000000000000000000000000000000000000000000000815260040161345490615a22565b60405180910390fd5b61346681613ad8565b50565b600160009054906101000a900473ffffffffffffffffffffffffffffffffffffffff1681565b600460149054906101000a900460ff1681565b6134aa6141e0565b73ffffffffffffffffffffffffffffffffffffffff166134c8611f66565b73ffffffffffffffffffffffffffffffffffffffff161461351e576040517f08c379a000000000000000000000000000000000000000000000000000000000815260040161351590615a8e565b60405180910390fd5b565b60008211613563576040517f08c379a000000000000000000000000000000000000000000000000000000000815260040161355a90615afa565b60405180910390fd5b60058310156135a7576040517f08c379a000000000000000000000000000000000000000000000000000000000815260040161359e90615b66565b60405180910390fd5b60008590503373ffffffffffffffffffffffffffffffffffffffff168173ffffffffffffffffffffffffffffffffffffffff16636352211e876040518263ffffffff1660e01b81526004016135fc919061502f565b602060405180830381865afa158015613619573d6000803e3d6000fd5b505050506040513d601f19601f8201168201806040525081019061363d919061505f565b73ffffffffffffffffffffffffffffffffffffffff1603613693576040517f08c379a000000000000000000000000000000000000000000000000000000000815260040161368a90615bd2565b60405180910390fd5b6000600760008873ffffffffffffffffffffffffffffffffffffffff1673ffffffffffffffffffffffffffffffffffffffff168152602001908152602001600020600087815260200190815260200160002060003373ffffffffffffffffffffffffffffffffffffffff1673ffffffffffffffffffffffffffffffffffffffff168152602001908152602001600020905060008160000154148061374c5750600015158160020160009054906101000a900460ff161515145b61378b576040517f08c379a000000000000000000000000000000000000000000000000000000000815260040161378290615c3e565b60405180910390fd5b600085426137999190615c5e565b905084826000018190555080826001018190555060018260020160006101000a81548160ff021916908315150217905550838260020160016101000a81548160ff021916908360028111156137f1576137f0614597565b5b02179055503373ffffffffffffffffffffffffffffffffffffffff167f8cf02345192d13083969573ce4ee4237ed7afaeb715ffec50c418f39bf4f9e638989888589604051613844959493929190615c92565b60405180910390a25050505050505050565b6000808390503073ffffffffffffffffffffffffffffffffffffffff168173ffffffffffffffffffffffffffffffffffffffff1663081812fc856040518263ffffffff1660e01b81526004016138ac919061502f565b602060405180830381865afa1580156138c9573d6000803e3d6000fd5b505050506040513d601f19601f820116820180604052508101906138ed919061505f565b73ffffffffffffffffffffffffffffffffffffffff161480613a0057508073ffffffffffffffffffffffffffffffffffffffff1663e985e9c58273ffffffffffffffffffffffffffffffffffffffff16636352211e866040518263ffffffff1660e01b815260040161395f919061502f565b602060405180830381865afa15801561397c573d6000803e3d6000fd5b505050506040513d601f19601f820116820180604052508101906139a0919061505f565b306040518363ffffffff1660e01b81526004016139be9291906155a0565b602060405180830381865afa1580156139db573d6000803e3d6000fd5b505050506040513d601f19601f820116820180604052508101906139ff9190614f96565b5b91505092915050565b6000600460149054906101000a900460ff1615613acb57600460009054906101000a900473ffffffffffffffffffffffffffffffffffffffff1673ffffffffffffffffffffffffffffffffffffffff166376dadfef868686866040518563ffffffff1660e01b8152600401613a819493929190615ce5565b6020604051808303816000875af1158015613aa0573d6000803e3d6000fd5b505050506040513d601f19601f82011682018060405250810190613ac49190614f96565b9050613ad0565b600090505b949350505050565b60008060009054906101000a900473ffffffffffffffffffffffffffffffffffffffff169050816000806101000a81548173ffffffffffffffffffffffffffffffffffffffff021916908373ffffffffffffffffffffffffffffffffffffffff1602179055508173ffffffffffffffffffffffffffffffffffffffff168173ffffffffffffffffffffffffffffffffffffffff167f8be0079c531659141344cd1fd0a4f28419497f9722a3daafe3b4186f6b6457e060405160405180910390a35050565b613ba68484613856565b613be5576040517f08c379a0000000000000000000000000000000000000000000000000000000008152600401613bdc90615d76565b60405180910390fd5b60008490503373ffffffffffffffffffffffffffffffffffffffff168173ffffffffffffffffffffffffffffffffffffffff16636352211e866040518263ffffffff1660e01b8152600401613c3a919061502f565b602060405180830381865afa158015613c57573d6000803e3d6000fd5b505050506040513d601f19601f82011682018060405250810190613c7b919061505f565b73ffffffffffffffffffffffffffffffffffffffff1603613cd1576040517f08c379a0000000000000000000000000000000000000000000000000000000008152600401613cc890615e08565b60405180910390fd5b6000600660008773ffffffffffffffffffffffffffffffffffffffff1673ffffffffffffffffffffffffffffffffffffffff16815260200190815260200160002060008681526020019081526020016000206040518060800160405290816000820160009054906101000a900473ffffffffffffffffffffffffffffffffffffffff1673ffffffffffffffffffffffffffffffffffffffff1673ffffffffffffffffffffffffffffffffffffffff1681526020016000820160149054906101000a900460ff16151515158152602001600182015481526020016002820160009054906101000a900460ff166002811115613dce57613dcd614597565b5b6002811115613de057613ddf614597565b5b815250509050836002811115613df957613df8614597565b5b81606001516002811115613e1057613e0f614597565b5b14613e50576040517f08c379a0000000000000000000000000000000000000000000000000000000008152600401613e4790615e9a565b60405180910390fd5b8060400151831015613e97576040517f08c379a0000000000000000000000000000000000000000000000000000000008152600401613e8e90615f2c565b60405180910390fd5b505050505050565b6000839050600033905060008273ffffffffffffffffffffffffffffffffffffffff16636352211e866040518263ffffffff1660e01b8152600401613ee4919061502f565b602060405180830381865afa158015613f01573d6000803e3d6000fd5b505050506040513d601f19601f82011682018060405250810190613f25919061505f565b90506000600660008873ffffffffffffffffffffffffffffffffffffffff1673ffffffffffffffffffffffffffffffffffffffff1681526020019081526020016000206000878152602001908152602001600020905060008160010154905060008187613f929190615f4c565b905060016002811115613fa857613fa7614597565b5b8360020160009054906101000a900460ff166002811115613fcc57613fcb614597565b5b0361406e578373ffffffffffffffffffffffffffffffffffffffff166108fc839081150290604051600060405180830381858888f19350505050158015614017573d6000803e3d6000fd5b506000811115614069578473ffffffffffffffffffffffffffffffffffffffff166108fc829081150290604051600060405180830381858888f19350505050158015614067573d6000803e3d6000fd5b505b614112565b600260009054906101000a900473ffffffffffffffffffffffffffffffffffffffff1673ffffffffffffffffffffffffffffffffffffffff166323b872dd3386856040518463ffffffff1660e01b81526004016140cd9392919061533a565b6020604051808303816000875af11580156140ec573d6000803e3d6000fd5b505050506040513d601f19601f820116820180604052508101906141109190614f96565b505b8573ffffffffffffffffffffffffffffffffffffffff166342842e0e85338b6040518463ffffffff1660e01b815260040161414f9392919061533a565b600060405180830381600087803b15801561416957600080fd5b505af115801561417d573d6000803e3d6000fd5b5050505060008360000160146101000a81548160ff0219169083151502179055506000836001018190555060008360020160006101000a81548160ff021916908360028111156141d0576141cf614597565b5b0217905550505050505050505050565b600033905090565b604051806080016040528060008152602001600081526020016000151581526020016000600281111561421e5761421d614597565b5b81525090565b6040518060800160405280600073ffffffffffffffffffffffffffffffffffffffff16815260200160001515815260200160008152602001600060028111156142705761426f614597565b5b81525090565b600080fd5b600080fd5b600073ffffffffffffffffffffffffffffffffffffffff82169050919050565b60006142ab82614280565b9050919050565b6142bb816142a0565b81146142c657600080fd5b50565b6000813590506142d8816142b2565b92915050565b6000819050919050565b6142f1816142de565b81146142fc57600080fd5b50565b60008135905061430e816142e8565b92915050565b6003811061432157600080fd5b50565b60008135905061433381614314565b92915050565b600080600080600060a0868803121561435557614354614276565b5b6000614363888289016142c9565b9550506020614374888289016142ff565b9450506040614385888289016142ff565b935050606061439688828901614324565b92505060806143a7888289016142c9565b9150509295509295909350565b60008115159050919050565b6143c9816143b4565b81146143d457600080fd5b50565b6000813590506143e6816143c0565b92915050565b60006020828403121561440257614401614276565b5b6000614410848285016143d7565b91505092915050565b600080604083850312156144305761442f614276565b5b600061443e858286016142c9565b925050602061444f858286016142ff565b9150509250929050565b60008060006060848603121561447257614471614276565b5b6000614480868287016142c9565b9350506020614491868287016142ff565b92505060406144a2868287016142ff565b9150509250925092565b6000819050919050565b60006144d16144cc6144c784614280565b6144ac565b614280565b9050919050565b60006144e3826144b6565b9050919050565b60006144f5826144d8565b9050919050565b614505816144ea565b82525050565b600060208201905061452060008301846144fc565b92915050565b60008060006060848603121561453f5761453e614276565b5b600061454d868287016142c9565b935050602061455e868287016142ff565b925050604061456f868287016142c9565b9150509250925092565b614582816142de565b82525050565b614591816143b4565b82525050565b7f4e487b7100000000000000000000000000000000000000000000000000000000600052602160045260246000fd5b600381106145d7576145d6614597565b5b50565b60008190506145e8826145c6565b919050565b60006145f8826145da565b9050919050565b614608816145ed565b82525050565b6080820160008201516146246000850182614579565b5060208201516146376020850182614579565b50604082015161464a6040850182614588565b50606082015161465d60608501826145ff565b50505050565b6000608082019050614678600083018461460e565b92915050565b614687816142a0565b82525050565b6080820160008201516146a3600085018261467e565b5060208201516146b66020850182614588565b5060408201516146c96040850182614579565b5060608201516146dc60608501826145ff565b50505050565b60006080820190506146f7600083018461468d565b92915050565b6000806000806080858703121561471757614716614276565b5b6000614725878288016142c9565b9450506020614736878288016142ff565b9350506040614747878288016142ff565b925050606061475887828801614324565b91505092959194509250565b600061476f826144d8565b9050919050565b61477f81614764565b82525050565b600060208201905061479a6000830184614776565b92915050565b6000602082840312156147b6576147b5614276565b5b60006147c4848285016142c9565b91505092915050565b6147d6816143b4565b82525050565b60006020820190506147f160008301846147cd565b92915050565b600080fd5b600080fd5b600080fd5b60008083601f84011261481c5761481b6147f7565b5b8235905067ffffffffffffffff811115614839576148386147fc565b5b60208301915083602082028301111561485557614854614801565b5b9250929050565b60008083601f840112614872576148716147f7565b5b8235905067ffffffffffffffff81111561488f5761488e6147fc565b5b6020830191508360208202830111156148ab576148aa614801565b5b9250929050565b600080600080600080608087890312156148cf576148ce614276565b5b600087013567ffffffffffffffff8111156148ed576148ec61427b565b5b6148f989828a01614806565b9650965050602087013567ffffffffffffffff81111561491c5761491b61427b565b5b61492889828a0161485c565b9450945050604061493b89828a016142ff565b925050606061494c89828a01614324565b9150509295509295509295565b614962816142a0565b82525050565b600060208201905061497d6000830184614959565b92915050565b6000806000806080858703121561499d5761499c614276565b5b60006149ab878288016142c9565b94505060206149bc878288016142ff565b93505060406149cd878288016142ff565b92505060606149de878288016142ff565b91505092959194509250565b60006149f5826144d8565b9050919050565b614a05816149ea565b82525050565b6000602082019050614a2060008301846149fc565b92915050565b6000614a31826142a0565b9050919050565b614a4181614a26565b8114614a4c57600080fd5b50565b600081359050614a5e81614a38565b92915050565b600060208284031215614a7a57614a79614276565b5b6000614a8884828501614a4f565b91505092915050565b60008060008060008060c08789031215614aae57614aad614276565b5b6000614abc89828a016142c9565b9650506020614acd89828a016142ff565b9550506040614ade89828a016142c9565b9450506060614aef89828a016142c9565b9350506080614b0089828a016142ff565b92505060a0614b1189828a01614324565b9150509295509295509295565b600069ffffffffffffffffffff82169050919050565b614b3d81614b1e565b8114614b4857600080fd5b50565b600081359050614b5a81614b34565b92915050565b600080600080600080600060e0888a031215614b7f57614b7e614276565b5b6000614b8d8a828b016142c9565b9750506020614b9e8a828b016142ff565b9650506040614baf8a828b016142c9565b9550506060614bc08a828b016142ff565b9450506080614bd18a828b01614324565b93505060a0614be28a828b016142ff565b92505060c0614bf38a828b01614b4b565b91505092959891949750929550565b6000614c0d826142a0565b9050919050565b614c1d81614c02565b8114614c2857600080fd5b50565b600081359050614c3a81614c14565b92915050565b600060208284031215614c5657614c55614276565b5b6000614c6484828501614c2b565b91505092915050565b600060208284031215614c8357614c82614276565b5b6000614c91848285016142ff565b91505092915050565b6000614ca5826144d8565b9050919050565b614cb581614c9a565b82525050565b6000602082019050614cd06000830184614cac565b92915050565b600082825260208201905092915050565b7f4c69737461626c653a206e6f7420616c6c6f77656420746f206c697374000000600082015250565b6000614d1d601d83614cd6565b9150614d2882614ce7565b602082019050919050565b60006020820190508181036000830152614d4c81614d10565b9050919050565b614d5c816142de565b82525050565b614d6b816145ed565b82525050565b6000819050919050565b6000614d96614d91614d8c84614d71565b6144ac565b6142de565b9050919050565b614da681614d7b565b82525050565b6000614dc7614dc2614dbd84614d71565b6144ac565b614b1e565b9050919050565b614dd781614dac565b82525050565b600060c082019050614df26000830189614959565b614dff6020830188614d53565b614e0c6040830187614d53565b614e196060830186614d62565b614e266080830185614d9d565b614e3360a0830184614dce565b979650505050505050565b7f416c726561647920776974686472617765640000000000000000000000000000600082015250565b6000614e74601283614cd6565b9150614e7f82614e3e565b602082019050919050565b60006020820190508181036000830152614ea381614e67565b9050919050565b6000604082019050614ebf6000830185614959565b614ecc6020830184614d53565b9392505050565b600081519050614ee2816142e8565b92915050565b600060208284031215614efe57614efd614276565b5b6000614f0c84828501614ed3565b91505092915050565b7f57726f6e6720616d6f756e740000000000000000000000000000000000000000600082015250565b6000614f4b600c83614cd6565b9150614f5682614f15565b602082019050919050565b60006020820190508181036000830152614f7a81614f3e565b9050919050565b600081519050614f90816143c0565b92915050565b600060208284031215614fac57614fab614276565b5b6000614fba84828501614f81565b91505092915050565b7f54686973204e465420697320696e20626c61636b4c6973740000000000000000600082015250565b6000614ff9601883614cd6565b915061500482614fc3565b602082019050919050565b6000602082019050818103600083015261502881614fec565b9050919050565b60006020820190506150446000830184614d53565b92915050565b600081519050615059816142b2565b92915050565b60006020828403121561507557615074614276565b5b60006150838482850161504a565b91505092915050565b7f546f6b656e204f776e65723a20796f7520617265206e6f74206120746f6b656e60008201527f206f776e65720000000000000000000000000000000000000000000000000000602082015250565b60006150e8602683614cd6565b91506150f38261508c565b604082019050919050565b60006020820190508181036000830152615117816150db565b9050919050565b7f496e76616c696420706179207479706500000000000000000000000000000000600082015250565b6000615154601083614cd6565b915061515f8261511e565b602082019050919050565b6000602082019050818103600083015261518381615147565b9050919050565b7f46697273742c20417070726f7665204e46540000000000000000000000000000600082015250565b60006151c0601283614cd6565b91506151cb8261518a565b602082019050919050565b600060208201905081810360008301526151ef816151b3565b9050919050565b7f4f666665722063726561746f7220776974686472617765640000000000000000600082015250565b600061522c601883614cd6565b9150615237826151f6565b602082019050919050565b6000602082019050818103600083015261525b8161521f565b9050919050565b7f4f6666657220616c726561647920657870697265640000000000000000000000600082015250565b6000615298601583614cd6565b91506152a382615262565b602082019050919050565b600060208201905081810360008301526152c78161528b565b9050919050565b7f46697273742c20617070726f7665204e46540000000000000000000000000000600082015250565b6000615304601283614cd6565b915061530f826152ce565b602082019050919050565b60006020820190508181036000830152615333816152f7565b9050919050565b600060608201905061534f6000830186614959565b61535c6020830185614959565b6153696040830184614d53565b949350505050565b60006080820190506153866000830187614959565b6153936020830186614d53565b6153a06040830185614d53565b6153ad6060830184614d62565b95945050505050565b7f41727261792073697a6520646f6573206e6f74206d6174636800000000000000600082015250565b60006153ec601983614cd6565b91506153f7826153b6565b602082019050919050565b6000602082019050818103600083015261541b816153df565b9050919050565b7f4e487b7100000000000000000000000000000000000000000000000000000000600052603260045260246000fd5b7f4e487b7100000000000000000000000000000000000000000000000000000000600052601160045260246000fd5b600061548b826142de565b91507fffffffffffffffffffffffffffffffffffffffffffffffffffffffffffffffff82036154bd576154bc615451565b5b600182019050919050565b7f496e76616c696420616464726573730000000000000000000000000000000000600082015250565b60006154fe600f83614cd6565b9150615509826154c8565b602082019050919050565b6000602082019050818103600083015261552d816154f1565b9050919050565b7f53616d6520466163746f72792041646472657373000000000000000000000000600082015250565b600061556a601483614cd6565b915061557582615534565b602082019050919050565b600060208201905081810360008301526155998161555d565b9050919050565b60006040820190506155b56000830185614959565b6155c26020830184614959565b9392505050565b7f45524332303a2065786365656420616c6c6f77616e6365000000000000000000600082015250565b60006155ff601783614cd6565b915061560a826155c9565b602082019050919050565b6000602082019050818103600083015261562e816155f2565b9050919050565b7f416c72656164792073657420656e61626c656400000000000000000000000000600082015250565b600061566b601383614cd6565b915061567682615635565b602082019050919050565b6000602082019050818103600083015261569a8161565e565b9050919050565b60006060820190506156b66000830186614959565b6156c36020830185614d53565b6156d060408301846147cd565b949350505050565b7f596f752068617665206e6f20726967687420746f2063616c6c2073657444697260008201527f6563744c69737461626c65000000000000000000000000000000000000000000602082015250565b6000615734602b83614cd6565b915061573f826156d8565b604082019050919050565b6000602082019050818103600083015261576381615727565b9050919050565b7f496e76616c6964206e6963686f6e667420636f6e747261637400000000000000600082015250565b60006157a0601983614cd6565b91506157ab8261576a565b602082019050919050565b600060208201905081810360008301526157cf81615793565b9050919050565b7f546f6b656e3a206e6f74206c6973746564206f6e206d61726b6574706c616365600082015250565b600061580c602083614cd6565b9150615817826157d6565b602082019050919050565b6000602082019050818103600083015261583b816157ff565b9050919050565b7f596f7520617265206e6f742063726561746f7200000000000000000000000000600082015250565b6000615878601383614cd6565b915061588382615842565b602082019050919050565b600060208201905081810360008301526158a78161586b565b9050919050565b6158b781614b1e565b82525050565b600060c0820190506158d26000830189614959565b6158df6020830188614d53565b6158ec6040830187614d53565b6158f96060830186614d62565b6159066080830185614d53565b61591360a08301846158ae565b979650505050505050565b7f526577617264733a20686173206265656e20616c726561647920636f6e66696760008201527f7572656400000000000000000000000000000000000000000000000000000000602082015250565b600061597a602483614cd6565b91506159858261591e565b604082019050919050565b600060208201905081810360008301526159a98161596d565b9050919050565b7f4f776e61626c653a206e6577206f776e657220697320746865207a65726f206160008201527f6464726573730000000000000000000000000000000000000000000000000000602082015250565b6000615a0c602683614cd6565b9150615a17826159b0565b604082019050919050565b60006020820190508181036000830152615a3b816159ff565b9050919050565b7f4f776e61626c653a2063616c6c6572206973206e6f7420746865206f776e6572600082015250565b6000615a78602083614cd6565b9150615a8382615a42565b602082019050919050565b60006020820190508181036000830152615aa781615a6b565b9050919050565b7f496e76616c696420616d6f756e74000000000000000000000000000000000000600082015250565b6000615ae4600e83614cd6565b9150615aef82615aae565b602082019050919050565b60006020820190508181036000830152615b1381615ad7565b9050919050565b7f496e76616c696420646561646c696e6500000000000000000000000000000000600082015250565b6000615b50601083614cd6565b9150615b5b82615b1a565b602082019050919050565b60006020820190508181036000830152615b7f81615b43565b9050919050565b7f4f776e65722063616e6e6f7420637265617465206f6666657200000000000000600082015250565b6000615bbc601983614cd6565b9150615bc782615b86565b602082019050919050565b60006020820190508181036000830152615beb81615baf565b9050919050565b7f596f7527766520616c72656164792063726561746564206f6666657200000000600082015250565b6000615c28601c83614cd6565b9150615c3382615bf2565b602082019050919050565b60006020820190508181036000830152615c5781615c1b565b9050919050565b6000615c69826142de565b9150615c74836142de565b9250828201905080821115615c8c57615c8b615451565b5b92915050565b600060a082019050615ca76000830188614959565b615cb46020830187614d53565b615cc16040830186614d53565b615cce6060830185614d53565b615cdb6080830184614d62565b9695505050505050565b6000608082019050615cfa6000830187614959565b615d076020830186614d53565b615d146040830185614959565b615d216060830184614d53565b95945050505050565b7f4e6f7420617070726f7665642066726f6d206f776e65722e0000000000000000600082015250565b6000615d60601883614cd6565b9150615d6b82615d2a565b602082019050919050565b60006020820190508181036000830152615d8f81615d53565b9050919050565b7f546f6b656e206f776e65722063616e206e6f742062757920796f7572204e465460008201527f732e000000000000000000000000000000000000000000000000000000000000602082015250565b6000615df2602283614cd6565b9150615dfd82615d96565b604082019050919050565b60006020820190508181036000830152615e2181615de5565b9050919050565b7f436f696e2074797065206973206e6f7420636f727265637420666f722074686960008201527f732070757263686173652e000000000000000000000000000000000000000000602082015250565b6000615e84602b83614cd6565b9150615e8f82615e28565b604082019050919050565b60006020820190508181036000830152615eb381615e77565b9050919050565b7f4572726f722c2074686520616d6f756e74206973206c6f776572207468616e2060008201527f7072696365000000000000000000000000000000000000000000000000000000602082015250565b6000615f16602583614cd6565b9150615f2182615eba565b604082019050919050565b60006020820190508181036000830152615f4581615f09565b9050919050565b6000615f57826142de565b9150615f62836142de565b9250828203905081811115615f7a57615f79615451565b5b9291505056fea264697066735822122055cb06295880a3fd7f82c10137f9583dd0cbdb2b4d6bd4b9c675fcf4fe9b527264736f6c63430008110033",
  "linkReferences": {},
  "deployedLinkReferences": {}
}