{
  "_format": "hh-sol-artifact-1",
  "contractName": "NichoNFTMarketplace",
  "sourceName": "contracts/NichoNFTMarketplace.sol",
  "abi": [
    {
      "inputs": [
        {
          "internalType": "address",
          "name": "_blacklist",
          "type": "address"
        },
        {
          "internalType": "address",
          "name": "_nichonft",
          "type": "address"
        }
      ],
      "stateMutability": "nonpayable",
      "type": "constructor"
    },
    {
      "anonymous": false,
      "inputs": [
        {
          "indexed": false,
          "internalType": "address",
          "name": "token_address",
          "type": "address"
        },
        {
          "indexed": false,
          "internalType": "uint256",
          "name": "token_id",
          "type": "uint256"
        },
        {
          "indexed": true,
          "internalType": "address",
          "name": "owner",
          "type": "address"
        },
        {
          "indexed": false,
          "internalType": "bool",
          "name": "is_listed",
          "type": "bool"
        }
      ],
      "name": "ListCancel",
      "type": "event"
    },
    {
      "anonymous": false,
      "inputs": [
        {
          "indexed": false,
          "internalType": "address",
          "name": "token_address",
          "type": "address"
        },
        {
          "indexed": false,
          "internalType": "uint256",
          "name": "token_id",
          "type": "uint256"
        },
        {
          "indexed": true,
          "internalType": "address",
          "name": "creator",
          "type": "address"
        },
        {
          "indexed": false,
          "internalType": "uint256",
          "name": "price",
          "type": "uint256"
        },
        {
          "indexed": false,
          "internalType": "uint256",
          "name": "expire_at",
          "type": "uint256"
        },
        {
          "indexed": false,
          "internalType": "uint80",
          "name": "auction_id",
          "type": "uint80"
        },
        {
          "indexed": false,
          "internalType": "string",
          "name": "collection_id",
          "type": "string"
        }
      ],
      "name": "ListedNFT",
      "type": "event"
    },
    {
      "anonymous": false,
      "inputs": [
        {
          "indexed": false,
          "internalType": "address",
          "name": "token_address",
          "type": "address"
        },
        {
          "indexed": false,
          "internalType": "uint256",
          "name": "token_id",
          "type": "uint256"
        },
        {
          "indexed": true,
          "internalType": "address",
          "name": "creator",
          "type": "address"
        }
      ],
      "name": "OfferCancels",
      "type": "event"
    },
    {
      "anonymous": false,
      "inputs": [
        {
          "indexed": false,
          "internalType": "address",
          "name": "token_address",
          "type": "address"
        },
        {
          "indexed": false,
          "internalType": "uint256",
          "name": "token_id",
          "type": "uint256"
        },
        {
          "indexed": true,
          "internalType": "address",
          "name": "creator",
          "type": "address"
        },
        {
          "indexed": false,
          "internalType": "uint256",
          "name": "price",
          "type": "uint256"
        },
        {
          "indexed": false,
          "internalType": "uint256",
          "name": "expire_at",
          "type": "uint256"
        }
      ],
      "name": "Offers",
      "type": "event"
    },
    {
      "anonymous": false,
      "inputs": [
        {
          "indexed": true,
          "internalType": "address",
          "name": "previousOwner",
          "type": "address"
        },
        {
          "indexed": true,
          "internalType": "address",
          "name": "newOwner",
          "type": "address"
        }
      ],
      "name": "OwnershipTransferred",
      "type": "event"
    },
    {
      "anonymous": false,
      "inputs": [
        {
          "indexed": false,
          "internalType": "address",
          "name": "token_address",
          "type": "address"
        },
        {
          "indexed": false,
          "internalType": "uint256",
          "name": "token_id",
          "type": "uint256"
        },
        {
          "indexed": true,
          "internalType": "address",
          "name": "previous_owner",
          "type": "address"
        },
        {
          "indexed": true,
          "internalType": "address",
          "name": "new_owner",
          "type": "address"
        },
        {
          "indexed": false,
          "internalType": "uint256",
          "name": "price",
          "type": "uint256"
        }
      ],
      "name": "TradeActivity",
      "type": "event"
    },
    {
      "inputs": [
        {
          "internalType": "address",
          "name": "tokenAddress",
          "type": "address"
        },
        {
          "internalType": "uint256",
          "name": "tokenId",
          "type": "uint256"
        },
        {
          "internalType": "address",
          "name": "offerCreator",
          "type": "address"
        }
      ],
      "name": "acceptOffer",
      "outputs": [],
      "stateMutability": "nonpayable",
      "type": "function"
    },
    {
      "inputs": [],
      "name": "auctionEnabled",
      "outputs": [
        {
          "internalType": "bool",
          "name": "",
          "type": "bool"
        }
      ],
      "stateMutability": "view",
      "type": "function"
    },
    {
      "inputs": [
        {
          "internalType": "address[]",
          "name": "tokenAddress",
          "type": "address[]"
        },
        {
          "internalType": "uint256[]",
          "name": "tokenId",
          "type": "uint256[]"
        },
        {
          "internalType": "uint256",
          "name": "askingPrice",
          "type": "uint256"
        }
      ],
      "name": "batchListItemToMarket",
      "outputs": [],
      "stateMutability": "nonpayable",
      "type": "function"
    },
    {
      "inputs": [],
      "name": "blacklistContract",
      "outputs": [
        {
          "internalType": "contract INFTBlackList",
          "name": "",
          "type": "address"
        }
      ],
      "stateMutability": "view",
      "type": "function"
    },
    {
      "inputs": [
        {
          "internalType": "address",
          "name": "tokenAddress",
          "type": "address"
        },
        {
          "internalType": "uint256",
          "name": "tokenId",
          "type": "uint256"
        }
      ],
      "name": "buy",
      "outputs": [],
      "stateMutability": "payable",
      "type": "function"
    },
    {
      "inputs": [
        {
          "internalType": "address",
          "name": "tokenAddress",
          "type": "address"
        },
        {
          "internalType": "uint256",
          "name": "tokenId",
          "type": "uint256"
        }
      ],
      "name": "cancelListFromAuctionCreation",
      "outputs": [],
      "stateMutability": "nonpayable",
      "type": "function"
    },
    {
      "inputs": [
        {
          "internalType": "address",
          "name": "tokenAddress",
          "type": "address"
        },
        {
          "internalType": "uint256",
          "name": "tokenId",
          "type": "uint256"
        }
      ],
      "name": "cancelListing",
      "outputs": [],
      "stateMutability": "nonpayable",
      "type": "function"
    },
    {
      "inputs": [
        {
          "internalType": "address",
          "name": "tokenAddress",
          "type": "address"
        },
        {
          "internalType": "uint256",
          "name": "tokenId",
          "type": "uint256"
        }
      ],
      "name": "cancelOffer",
      "outputs": [],
      "stateMutability": "nonpayable",
      "type": "function"
    },
    {
      "inputs": [
        {
          "internalType": "address",
          "name": "tokenAddress",
          "type": "address"
        },
        {
          "internalType": "uint256",
          "name": "tokenId",
          "type": "uint256"
        },
        {
          "internalType": "uint256",
          "name": "deadline",
          "type": "uint256"
        }
      ],
      "name": "createOffer",
      "outputs": [],
      "stateMutability": "payable",
      "type": "function"
    },
    {
      "inputs": [
        {
          "internalType": "address",
          "name": "",
          "type": "address"
        }
      ],
      "name": "directListable",
      "outputs": [
        {
          "internalType": "bool",
          "name": "",
          "type": "bool"
        }
      ],
      "stateMutability": "view",
      "type": "function"
    },
    {
      "inputs": [],
      "name": "disableAuction",
      "outputs": [],
      "stateMutability": "nonpayable",
      "type": "function"
    },
    {
      "inputs": [
        {
          "internalType": "address",
          "name": "_tokenAddress",
          "type": "address"
        },
        {
          "internalType": "uint256",
          "name": "_tokenId",
          "type": "uint256"
        },
        {
          "internalType": "address",
          "name": "_creator",
          "type": "address"
        },
        {
          "internalType": "uint256",
          "name": "_startPrice",
          "type": "uint256"
        },
        {
          "internalType": "uint256",
          "name": "_expireTs",
          "type": "uint256"
        },
        {
          "internalType": "uint80",
          "name": "_nextAuctionId",
          "type": "uint80"
        }
      ],
      "name": "emitListedNFTFromAuctionContract",
      "outputs": [],
      "stateMutability": "nonpayable",
      "type": "function"
    },
    {
      "inputs": [
        {
          "internalType": "address",
          "name": "_tokenAddress",
          "type": "address"
        },
        {
          "internalType": "uint256",
          "name": "_tokenId",
          "type": "uint256"
        },
        {
          "internalType": "address",
          "name": "_prevOwner",
          "type": "address"
        },
        {
          "internalType": "address",
          "name": "_newOwner",
          "type": "address"
        },
        {
          "internalType": "uint256",
          "name": "_price",
          "type": "uint256"
        }
      ],
      "name": "emitTradeActivityFromAuctionContract",
      "outputs": [],
      "stateMutability": "nonpayable",
      "type": "function"
    },
    {
      "inputs": [
        {
          "internalType": "contract INichoNFTAuction",
          "name": "_nichonftAuctionContract",
          "type": "address"
        }
      ],
      "name": "enableNichoNFTAuction",
      "outputs": [],
      "stateMutability": "nonpayable",
      "type": "function"
    },
    {
      "inputs": [],
      "name": "factory",
      "outputs": [
        {
          "internalType": "address",
          "name": "",
          "type": "address"
        }
      ],
      "stateMutability": "view",
      "type": "function"
    },
    {
      "inputs": [
        {
          "internalType": "address",
          "name": "tokenAddress",
          "type": "address"
        },
        {
          "internalType": "uint256",
          "name": "tokenId",
          "type": "uint256"
        }
      ],
      "name": "getItemInfo",
      "outputs": [
        {
          "components": [
            {
              "internalType": "address",
              "name": "creator",
              "type": "address"
            },
            {
              "internalType": "bool",
              "name": "isListed",
              "type": "bool"
            },
            {
              "internalType": "uint256",
              "name": "price",
              "type": "uint256"
            }
          ],
          "internalType": "struct MarketplaceHelper.Item",
          "name": "item",
          "type": "tuple"
        }
      ],
      "stateMutability": "view",
      "type": "function"
    },
    {
      "inputs": [
        {
          "internalType": "address",
          "name": "tokenAddress",
          "type": "address"
        },
        {
          "internalType": "uint256",
          "name": "tokenId",
          "type": "uint256"
        },
        {
          "internalType": "address",
          "name": "sender",
          "type": "address"
        }
      ],
      "name": "getOfferItemInfo",
      "outputs": [
        {
          "components": [
            {
              "internalType": "uint256",
              "name": "price",
              "type": "uint256"
            },
            {
              "internalType": "uint256",
              "name": "expireTs",
              "type": "uint256"
            },
            {
              "internalType": "bool",
              "name": "isLive",
              "type": "bool"
            }
          ],
          "internalType": "struct NichoNFTMarketplace.OfferItem",
          "name": "item",
          "type": "tuple"
        }
      ],
      "stateMutability": "view",
      "type": "function"
    },
    {
      "inputs": [],
      "name": "isPaused",
      "outputs": [
        {
          "internalType": "bool",
          "name": "",
          "type": "bool"
        }
      ],
      "stateMutability": "view",
      "type": "function"
    },
    {
      "inputs": [
        {
          "internalType": "address",
          "name": "tokenAddress",
          "type": "address"
        },
        {
          "internalType": "uint256",
          "name": "tokenId",
          "type": "uint256"
        },
        {
          "internalType": "uint256",
          "name": "askingPrice",
          "type": "uint256"
        }
      ],
      "name": "listItemToMarket",
      "outputs": [],
      "stateMutability": "nonpayable",
      "type": "function"
    },
    {
      "inputs": [
        {
          "internalType": "address",
          "name": "tokenAddress",
          "type": "address"
        },
        {
          "internalType": "uint256",
          "name": "tokenId",
          "type": "uint256"
        },
        {
          "internalType": "uint256",
          "name": "askingPrice",
          "type": "uint256"
        },
        {
          "internalType": "address",
          "name": "_creator",
          "type": "address"
        },
        {
          "internalType": "string",
          "name": "cId",
          "type": "string"
        }
      ],
      "name": "listItemToMarketFromMint",
      "outputs": [],
      "stateMutability": "nonpayable",
      "type": "function"
    },
    {
      "inputs": [],
      "name": "nichonftAuctionContract",
      "outputs": [
        {
          "internalType": "contract INichoNFTAuction",
          "name": "",
          "type": "address"
        }
      ],
      "stateMutability": "view",
      "type": "function"
    },
    {
      "inputs": [],
      "name": "nichonftRewardsContract",
      "outputs": [
        {
          "internalType": "contract INichoNFTRewards",
          "name": "",
          "type": "address"
        }
      ],
      "stateMutability": "view",
      "type": "function"
    },
    {
      "inputs": [],
      "name": "owner",
      "outputs": [
        {
          "internalType": "address",
          "name": "",
          "type": "address"
        }
      ],
      "stateMutability": "view",
      "type": "function"
    },
    {
      "inputs": [
        {
          "internalType": "bool",
          "name": "_pause",
          "type": "bool"
        }
      ],
      "name": "pause",
      "outputs": [],
      "stateMutability": "nonpayable",
      "type": "function"
    },
    {
      "inputs": [],
      "name": "renounceOwnership",
      "outputs": [],
      "stateMutability": "nonpayable",
      "type": "function"
    },
    {
      "inputs": [
        {
          "internalType": "address",
          "name": "_target",
          "type": "address"
        }
      ],
      "name": "setDirectListable",
      "outputs": [],
      "stateMutability": "nonpayable",
      "type": "function"
    },
    {
      "inputs": [
        {
          "internalType": "address",
          "name": "_factory",
          "type": "address"
        }
      ],
      "name": "setFactoryAddress",
      "outputs": [],
      "stateMutability": "nonpayable",
      "type": "function"
    },
    {
      "inputs": [
        {
          "internalType": "bool",
          "name": "_value",
          "type": "bool"
        }
      ],
      "name": "setPause",
      "outputs": [],
      "stateMutability": "nonpayable",
      "type": "function"
    },
    {
      "inputs": [
        {
          "internalType": "contract INichoNFTRewards",
          "name": "_nichonftRewardsContract",
          "type": "address"
        }
      ],
      "name": "setRewardsContract",
      "outputs": [],
      "stateMutability": "nonpayable",
      "type": "function"
    },
    {
      "inputs": [
        {
          "internalType": "bool",
          "name": "_tradeRewardsEnable",
          "type": "bool"
        }
      ],
      "name": "setTradeRewardsEnable",
      "outputs": [],
      "stateMutability": "nonpayable",
      "type": "function"
    },
    {
      "inputs": [],
      "name": "tradeRewardsEnable",
      "outputs": [
        {
          "internalType": "bool",
          "name": "",
          "type": "bool"
        }
      ],
      "stateMutability": "view",
      "type": "function"
    },
    {
      "inputs": [
        {
          "internalType": "address",
          "name": "newOwner",
          "type": "address"
        }
      ],
      "name": "transferOwnership",
      "outputs": [],
      "stateMutability": "nonpayable",
      "type": "function"
    },
    {
      "inputs": [
        {
          "internalType": "uint256",
          "name": "_amount",
          "type": "uint256"
        }
      ],
      "name": "withdrawETH",
      "outputs": [],
      "stateMutability": "nonpayable",
      "type": "function"
    },
    {
      "stateMutability": "payable",
      "type": "receive"
    }
  ],
  "bytecode": "0x60806040526000600360146101000a81548160ff0219169083151502179055506000600360156101000a81548160ff0219169083151502179055503480156200004757600080fd5b50604051620055863803806200558683398181016040528101906200006d919062000280565b816200008e620000826200014a60201b60201c565b6200015260201b60201c565b80600160006101000a81548173ffffffffffffffffffffffffffffffffffffffff021916908373ffffffffffffffffffffffffffffffffffffffff16021790555060008060146101000a81548160ff021916908315150217905550506001600760008373ffffffffffffffffffffffffffffffffffffffff1673ffffffffffffffffffffffffffffffffffffffff16815260200190815260200160002060006101000a81548160ff0219169083151502179055505050620002c7565b600033905090565b60008060009054906101000a900473ffffffffffffffffffffffffffffffffffffffff169050816000806101000a81548173ffffffffffffffffffffffffffffffffffffffff021916908373ffffffffffffffffffffffffffffffffffffffff1602179055508173ffffffffffffffffffffffffffffffffffffffff168173ffffffffffffffffffffffffffffffffffffffff167f8be0079c531659141344cd1fd0a4f28419497f9722a3daafe3b4186f6b6457e060405160405180910390a35050565b600080fd5b600073ffffffffffffffffffffffffffffffffffffffff82169050919050565b600062000248826200021b565b9050919050565b6200025a816200023b565b81146200026657600080fd5b50565b6000815190506200027a816200024f565b92915050565b600080604083850312156200029a576200029962000216565b5b6000620002aa8582860162000269565b9250506020620002bd8582860162000269565b9150509250929050565b6152af80620002d76000396000f3fe6080604052600436106101f25760003560e01c8063adc1ea5f1161010d578063c22d6908116100a0578063f10e09601161006f578063f10e096014610684578063f14210a6146106ad578063f2fde38b146106d6578063f3e1a4df146106ff578063ffc70dac1461072a576101f9565b8063c22d6908146105eb578063c45a015514610614578063cce7ec131461063f578063dfa0dfa51461065b576101f9565b8063b6fc138f116100dc578063b6fc138f14610545578063bb65d2c514610570578063bedb86fb14610599578063c0f9a8f7146105c2576101f9565b8063adc1ea5f1461049f578063b187bd26146104c8578063b2ddee06146104f3578063b6359b2a1461051c576101f9565b806333a790251161018557806383c17c551161015457806383c17c55146103f75780638da5cb5b14610420578063aad1abdf1461044b578063ac28c59214610476576101f9565b806333a79025146103635780633bbb28061461037a578063715018a6146103a3578063751c1504146103ba576101f9565b80631c6c7128116101c15780631c6c7128146102a25780631f3f3563146102be5780631f7a9ee3146102e95780632cfff5d614610326576101f9565b806301532b8d146101fe57806302329a2914610227578063058a56ac146102505780631641ebe614610279576101f9565b366101f957005b600080fd5b34801561020a57600080fd5b506102256004803603810190610220919061371a565b610755565b005b34801561023357600080fd5b5061024e600480360381019061024991906137cd565b610855565b005b34801561025c57600080fd5b50610277600480360381019061027291906137fa565b61087a565b005b34801561028557600080fd5b506102a0600480360381019061029b919061387c565b610ab5565b005b6102bc60048036038101906102b79190613909565b610ba3565b005b3480156102ca57600080fd5b506102d3610bb4565b6040516102e091906139bb565b60405180910390f35b3480156102f557600080fd5b50610310600480360381019061030b91906139d6565b610bda565b60405161031d9190613a89565b60405180910390f35b34801561033257600080fd5b5061034d600480360381019061034891906137fa565b610cb2565b60405161035a9190613af5565b60405180910390f35b34801561036f57600080fd5b50610378610d98565b005b34801561038657600080fd5b506103a1600480360381019061039c91906139d6565b610dbd565b005b3480156103af57600080fd5b506103b86113d9565b005b3480156103c657600080fd5b506103e160048036038101906103dc9190613b10565b6113ed565b6040516103ee9190613b4c565b60405180910390f35b34801561040357600080fd5b5061041e60048036038101906104199190613b10565b61140d565b005b34801561042c57600080fd5b50610435611558565b6040516104429190613b76565b60405180910390f35b34801561045757600080fd5b50610460611581565b60405161046d9190613bb2565b60405180910390f35b34801561048257600080fd5b5061049d60048036038101906104989190613909565b6115a7565b005b3480156104ab57600080fd5b506104c660048036038101906104c191906137cd565b6119ea565b005b3480156104d457600080fd5b506104dd611a64565b6040516104ea9190613b4c565b60405180910390f35b3480156104ff57600080fd5b5061051a600480360381019061051591906137fa565b611a77565b005b34801561052857600080fd5b50610543600480360381019061053e9190613d13565b611dfd565b005b34801561055157600080fd5b5061055a611fae565b6040516105679190613b4c565b60405180910390f35b34801561057c57600080fd5b5061059760048036038101906105929190613b10565b611fc1565b005b3480156105a557600080fd5b506105c060048036038101906105bb91906137cd565b6120e9565b005b3480156105ce57600080fd5b506105e960048036038101906105e49190613de8565b612106565b005b3480156105f757600080fd5b50610612600480360381019061060d91906137fa565b61216d565b005b34801561062057600080fd5b5061062961227d565b6040516106369190613b76565b60405180910390f35b610659600480360381019061065491906137fa565b6122a3565b005b34801561066757600080fd5b50610682600480360381019061067d9190613e53565b6126c1565b005b34801561069057600080fd5b506106ab60048036038101906106a69190613f36565b61279d565b005b3480156106b957600080fd5b506106d460048036038101906106cf9190613fcb565b6128bb565b005b3480156106e257600080fd5b506106fd60048036038101906106f89190613b10565b612950565b005b34801561070b57600080fd5b506107146129d3565b6040516107219190614019565b60405180910390f35b34801561073657600080fd5b5061073f6129f9565b60405161074c9190613b4c565b60405180910390f35b600260009054906101000a900473ffffffffffffffffffffffffffffffffffffffff1673ffffffffffffffffffffffffffffffffffffffff163373ffffffffffffffffffffffffffffffffffffffff16146107e5576040517f08c379a00000000000000000000000000000000000000000000000000000000081526004016107dc90614091565b60405180910390fd5b8173ffffffffffffffffffffffffffffffffffffffff168373ffffffffffffffffffffffffffffffffffffffff167faf750d7deab2e8184d97f5b14c8626be7ef52f622f00f50c20cc44f412c39d9d878785604051610846939291906140c0565b60405180910390a35050505050565b61085d612a0c565b80600060146101000a81548160ff02191690831515021790555050565b600660008373ffffffffffffffffffffffffffffffffffffffff1673ffffffffffffffffffffffffffffffffffffffff168152602001908152602001600020600082815260200190815260200160002060003373ffffffffffffffffffffffffffffffffffffffff1673ffffffffffffffffffffffffffffffffffffffff16815260200190815260200160002060020160009054906101000a900460ff16610957576040517f08c379a000000000000000000000000000000000000000000000000000000000815260040161094e90614143565b60405180910390fd5b6000600660008473ffffffffffffffffffffffffffffffffffffffff1673ffffffffffffffffffffffffffffffffffffffff168152602001908152602001600020600083815260200190815260200160002060003373ffffffffffffffffffffffffffffffffffffffff1673ffffffffffffffffffffffffffffffffffffffff168152602001908152602001600020905060008160000154905060008260020160006101000a81548160ff021916908315150217905550600082600001819055503373ffffffffffffffffffffffffffffffffffffffff166108fc829081150290604051600060405180830381858888f19350505050158015610a5e573d6000803e3d6000fd5b503373ffffffffffffffffffffffffffffffffffffffff167f5cc15a466936ad14a2db4b70eedcc2b5f9c31520093d7622cc2051755dcf4e218585604051610aa7929190614163565b60405180910390a250505050565b600260009054906101000a900473ffffffffffffffffffffffffffffffffffffffff1673ffffffffffffffffffffffffffffffffffffffff163373ffffffffffffffffffffffffffffffffffffffff1614610b45576040517f08c379a0000000000000000000000000000000000000000000000000000000008152600401610b3c90614091565b60405180910390fd5b8373ffffffffffffffffffffffffffffffffffffffff167f2863069d8c44db5379f958948711bbcc3e863c622985fec53e757e2b832752418787868686604051610b939594939291906141c1565b60405180910390a2505050505050565b610baf83838334612a8a565b505050565b600260009054906101000a900473ffffffffffffffffffffffffffffffffffffffff1681565b610be2613616565b600660008573ffffffffffffffffffffffffffffffffffffffff1673ffffffffffffffffffffffffffffffffffffffff168152602001908152602001600020600084815260200190815260200160002060008373ffffffffffffffffffffffffffffffffffffffff1673ffffffffffffffffffffffffffffffffffffffff16815260200190815260200160002060405180606001604052908160008201548152602001600182015481526020016002820160009054906101000a900460ff16151515158152505090509392505050565b610cba613639565b600560008473ffffffffffffffffffffffffffffffffffffffff1673ffffffffffffffffffffffffffffffffffffffff16815260200190815260200160002060008381526020019081526020016000206040518060600160405290816000820160009054906101000a900473ffffffffffffffffffffffffffffffffffffffff1673ffffffffffffffffffffffffffffffffffffffff1673ffffffffffffffffffffffffffffffffffffffff1681526020016000820160149054906101000a900460ff16151515158152602001600182015481525050905092915050565b610da0612a0c565b6000600360146101000a81548160ff021916908315150217905550565b828260001515600160009054906101000a900473ffffffffffffffffffffffffffffffffffffffff1673ffffffffffffffffffffffffffffffffffffffff1663c1db0dce84846040518363ffffffff1660e01b8152600401610e20929190614163565b602060405180830381865afa158015610e3d573d6000803e3d6000fd5b505050506040513d601f19601f82011682018060405250810190610e61919061423c565b151514610ea3576040517f08c379a0000000000000000000000000000000000000000000000000000000008152600401610e9a906142b5565b60405180910390fd5b848460008273ffffffffffffffffffffffffffffffffffffffff16636352211e836040518263ffffffff1660e01b8152600401610ee091906142d5565b602060405180830381865afa158015610efd573d6000803e3d6000fd5b505050506040513d601f19601f82011682018060405250810190610f219190614305565b90503373ffffffffffffffffffffffffffffffffffffffff168173ffffffffffffffffffffffffffffffffffffffff1614610f91576040517f08c379a0000000000000000000000000000000000000000000000000000000008152600401610f88906143a4565b60405180910390fd5b6000600660008a73ffffffffffffffffffffffffffffffffffffffff1673ffffffffffffffffffffffffffffffffffffffff168152602001908152602001600020600089815260200190815260200160002060008873ffffffffffffffffffffffffffffffffffffffff1673ffffffffffffffffffffffffffffffffffffffff16815260200190815260200160002060405180606001604052908160008201548152602001600182015481526020016002820160009054906101000a900460ff161515151581525050905080604001516110a0576040517f08c379a000000000000000000000000000000000000000000000000000000000815260040161109790614410565b60405180910390fd5b42816020015110156110e7576040517f08c379a00000000000000000000000000000000000000000000000000000000081526004016110de9061447c565b60405180910390fd5b6110f18989612de7565b611130576040517f08c379a0000000000000000000000000000000000000000000000000000000008152600401611127906144e8565b60405180910390fd5b8873ffffffffffffffffffffffffffffffffffffffff166342842e0e33898b6040518463ffffffff1660e01b815260040161116d93929190614508565b600060405180830381600087803b15801561118757600080fd5b505af115801561119b573d6000803e3d6000fd5b505050506000816000015190506000600660008c73ffffffffffffffffffffffffffffffffffffffff1673ffffffffffffffffffffffffffffffffffffffff16815260200190815260200160002060008b815260200190815260200160002060008a73ffffffffffffffffffffffffffffffffffffffff1673ffffffffffffffffffffffffffffffffffffffff16815260200190815260200160002060405180606001604052908160008201548152602001600182015481526020016002820160009054906101000a900460ff1615151515815250509050600081604001901515908115158152505060008160000181815250503373ffffffffffffffffffffffffffffffffffffffff166108fc84600001519081150290604051600060405180830381858888f193505050501580156112d9573d6000803e3d6000fd5b506000600560008d73ffffffffffffffffffffffffffffffffffffffff1673ffffffffffffffffffffffffffffffffffffffff16815260200190815260200160002060008c8152602001908152602001600020905060008160000160146101000a81548160ff021916908315150217905550600081600101819055506113618c8c3342612f9a565b503373ffffffffffffffffffffffffffffffffffffffff168a73ffffffffffffffffffffffffffffffffffffffff167faf750d7deab2e8184d97f5b14c8626be7ef52f622f00f50c20cc44f412c39d9d8e8e876040516113c3939291906140c0565b60405180910390a3505050505050505050505050565b6113e1612a0c565b6113eb6000613069565b565b60076020528060005260406000206000915054906101000a900460ff1681565b611415612a0c565b600073ffffffffffffffffffffffffffffffffffffffff168173ffffffffffffffffffffffffffffffffffffffff1603611484576040517f08c379a000000000000000000000000000000000000000000000000000000000815260040161147b9061458b565b60405180910390fd5b600460009054906101000a900473ffffffffffffffffffffffffffffffffffffffff1673ffffffffffffffffffffffffffffffffffffffff168173ffffffffffffffffffffffffffffffffffffffff1603611514576040517f08c379a000000000000000000000000000000000000000000000000000000000815260040161150b906145f7565b60405180910390fd5b80600460006101000a81548173ffffffffffffffffffffffffffffffffffffffff021916908373ffffffffffffffffffffffffffffffffffffffff16021790555050565b60008060009054906101000a900473ffffffffffffffffffffffffffffffffffffffff16905090565b600360009054906101000a900473ffffffffffffffffffffffffffffffffffffffff1681565b828260001515600160009054906101000a900473ffffffffffffffffffffffffffffffffffffffff1673ffffffffffffffffffffffffffffffffffffffff1663c1db0dce84846040518363ffffffff1660e01b815260040161160a929190614163565b602060405180830381865afa158015611627573d6000803e3d6000fd5b505050506040513d601f19601f8201168201806040525081019061164b919061423c565b15151461168d576040517f08c379a0000000000000000000000000000000000000000000000000000000008152600401611684906142b5565b60405180910390fd5b848460008273ffffffffffffffffffffffffffffffffffffffff16636352211e836040518263ffffffff1660e01b81526004016116ca91906142d5565b602060405180830381865afa1580156116e7573d6000803e3d6000fd5b505050506040513d601f19601f8201168201806040525081019061170b9190614305565b90503373ffffffffffffffffffffffffffffffffffffffff168173ffffffffffffffffffffffffffffffffffffffff161461177b576040517f08c379a0000000000000000000000000000000000000000000000000000000008152600401611772906143a4565b60405180910390fd5b60001515600060149054906101000a900460ff161515146117d1576040517f08c379a00000000000000000000000000000000000000000000000000000000081526004016117c890614663565b60405180910390fd5b600088905060008890506117e58282612de7565b611824576040517f08c379a000000000000000000000000000000000000000000000000000000000815260040161181b906146cf565b60405180910390fd5b6000600560008473ffffffffffffffffffffffffffffffffffffffff1673ffffffffffffffffffffffffffffffffffffffff1681526020019081526020016000206000838152602001908152602001600020905088816001018190555060018160000160146101000a81548160ff021916908315150217905550338160000160006101000a81548173ffffffffffffffffffffffffffffffffffffffff021916908373ffffffffffffffffffffffffffffffffffffffff160217905550600360149054906101000a900460ff161561198657600260009054906101000a900473ffffffffffffffffffffffffffffffffffffffff1673ffffffffffffffffffffffffffffffffffffffff1663c53d0acc84846040518363ffffffff1660e01b8152600401611953929190614163565b600060405180830381600087803b15801561196d57600080fd5b505af1158015611981573d6000803e3d6000fd5b505050505b3373ffffffffffffffffffffffffffffffffffffffff167f2863069d8c44db5379f958948711bbcc3e863c622985fec53e757e2b8327524184848c6000806040516119d595949392919061475b565b60405180910390a25050505050505050505050565b6119f2612a0c565b801515600360159054906101000a900460ff16151503611a47576040517f08c379a0000000000000000000000000000000000000000000000000000000008152600401611a3e9061480d565b60405180910390fd5b80600360156101000a81548160ff02191690831515021790555050565b600060149054906101000a900460ff1681565b818160008273ffffffffffffffffffffffffffffffffffffffff16636352211e836040518263ffffffff1660e01b8152600401611ab491906142d5565b602060405180830381865afa158015611ad1573d6000803e3d6000fd5b505050506040513d601f19601f82011682018060405250810190611af59190614305565b90503373ffffffffffffffffffffffffffffffffffffffff168173ffffffffffffffffffffffffffffffffffffffff1614611b65576040517f08c379a0000000000000000000000000000000000000000000000000000000008152600401611b5c906143a4565b60405180910390fd5b60008490506000869050600560008273ffffffffffffffffffffffffffffffffffffffff1673ffffffffffffffffffffffffffffffffffffffff168152602001908152602001600020600083815260200190815260200160002060000160149054906101000a900460ff1615611c52576000600560008373ffffffffffffffffffffffffffffffffffffffff1673ffffffffffffffffffffffffffffffffffffffff1681526020019081526020016000206000848152602001908152602001600020905060008160000160146101000a81548160ff02191690831515021790555060008160010181905550505b600360149054906101000a900460ff1615611da15760011515600260009054906101000a900473ffffffffffffffffffffffffffffffffffffffff1673ffffffffffffffffffffffffffffffffffffffff1663f8a206fa83856040518363ffffffff1660e01b8152600401611cc8929190614163565b602060405180830381865afa158015611ce5573d6000803e3d6000fd5b505050506040513d601f19601f82011682018060405250810190611d09919061423c565b151503611da057600260009054906101000a900473ffffffffffffffffffffffffffffffffffffffff1673ffffffffffffffffffffffffffffffffffffffff1663c53d0acc82846040518363ffffffff1660e01b8152600401611d6d929190614163565b600060405180830381600087803b158015611d8757600080fd5b505af1158015611d9b573d6000803e3d6000fd5b505050505b5b3373ffffffffffffffffffffffffffffffffffffffff167f7d2db2e6e4cacca1d4dcf19357b1966f202d7f9a40cd5869fcbba517693cb45882846000604051611dec9392919061482d565b60405180910390a250505050505050565b60011515600760003373ffffffffffffffffffffffffffffffffffffffff1673ffffffffffffffffffffffffffffffffffffffff16815260200190815260200160002060009054906101000a900460ff16151514611e90576040517f08c379a0000000000000000000000000000000000000000000000000000000008152600401611e87906148b0565b60405180910390fd5b6000600560008773ffffffffffffffffffffffffffffffffffffffff1673ffffffffffffffffffffffffffffffffffffffff1681526020019081526020016000206000868152602001908152602001600020905083816001018190555060018160000160146101000a81548160ff021916908315150217905550828160000160006101000a81548173ffffffffffffffffffffffffffffffffffffffff021916908373ffffffffffffffffffffffffffffffffffffffff1602179055508273ffffffffffffffffffffffffffffffffffffffff167f2863069d8c44db5379f958948711bbcc3e863c622985fec53e757e2b8327524187878760008088604051611f9e9695949392919061493e565b60405180910390a2505050505050565b600360149054906101000a900460ff1681565b600460009054906101000a900473ffffffffffffffffffffffffffffffffffffffff1673ffffffffffffffffffffffffffffffffffffffff163373ffffffffffffffffffffffffffffffffffffffff16148061204f5750612020611558565b73ffffffffffffffffffffffffffffffffffffffff163373ffffffffffffffffffffffffffffffffffffffff16145b61208e576040517f08c379a000000000000000000000000000000000000000000000000000000000815260040161208590614a18565b60405180910390fd5b6001600760008373ffffffffffffffffffffffffffffffffffffffff1673ffffffffffffffffffffffffffffffffffffffff16815260200190815260200160002060006101000a81548160ff02191690831515021790555050565b80600060146101000a81548160ff02191690831515021790555050565b61210e612a0c565b80600260006101000a81548173ffffffffffffffffffffffffffffffffffffffff021916908373ffffffffffffffffffffffffffffffffffffffff1602179055506001600360146101000a81548160ff02191690831515021790555050565b600260009054906101000a900473ffffffffffffffffffffffffffffffffffffffff1673ffffffffffffffffffffffffffffffffffffffff163373ffffffffffffffffffffffffffffffffffffffff16146121fd576040517f08c379a00000000000000000000000000000000000000000000000000000000081526004016121f490614091565b60405180910390fd5b6000600560008473ffffffffffffffffffffffffffffffffffffffff1673ffffffffffffffffffffffffffffffffffffffff1681526020019081526020016000206000838152602001908152602001600020905060008160000160146101000a81548160ff02191690831515021790555060008160010181905550505050565b600460009054906101000a900473ffffffffffffffffffffffffffffffffffffffff1681565b818160001515600160009054906101000a900473ffffffffffffffffffffffffffffffffffffffff1673ffffffffffffffffffffffffffffffffffffffff1663c1db0dce84846040518363ffffffff1660e01b8152600401612306929190614163565b602060405180830381865afa158015612323573d6000803e3d6000fd5b505050506040513d601f19601f82011682018060405250810190612347919061423c565b151514612389576040517f08c379a0000000000000000000000000000000000000000000000000000000008152600401612380906142b5565b60405180910390fd5b83836000600560008473ffffffffffffffffffffffffffffffffffffffff1673ffffffffffffffffffffffffffffffffffffffff16815260200190815260200160002060008381526020019081526020016000206040518060600160405290816000820160009054906101000a900473ffffffffffffffffffffffffffffffffffffffff1673ffffffffffffffffffffffffffffffffffffffff1673ffffffffffffffffffffffffffffffffffffffff1681526020016000820160149054906101000a900460ff1615151515815260200160018201548152505090506001151581602001511515146124b0576040517f08c379a00000000000000000000000000000000000000000000000000000000081526004016124a790614a84565b60405180910390fd5b60008373ffffffffffffffffffffffffffffffffffffffff16636352211e846040518263ffffffff1660e01b81526004016124eb91906142d5565b602060405180830381865afa158015612508573d6000803e3d6000fd5b505050506040513d601f19601f8201168201806040525081019061252c9190614305565b90508073ffffffffffffffffffffffffffffffffffffffff16826000015173ffffffffffffffffffffffffffffffffffffffff16146125a0576040517f08c379a000000000000000000000000000000000000000000000000000000000815260040161259790614af0565b60405180910390fd5b6125ab88883461312d565b600088905060008173ffffffffffffffffffffffffffffffffffffffff16636352211e8a6040518263ffffffff1660e01b81526004016125eb91906142d5565b602060405180830381865afa158015612608573d6000803e3d6000fd5b505050506040513d601f19601f8201168201806040525081019061262c9190614305565b9050600033905061263e8b8b3461338a565b61264a8b8b8342612f9a565b508073ffffffffffffffffffffffffffffffffffffffff168273ffffffffffffffffffffffffffffffffffffffff167faf750d7deab2e8184d97f5b14c8626be7ef52f622f00f50c20cc44f412c39d9d8d8d346040516126ac939291906140c0565b60405180910390a35050505050505050505050565b6126c9612a0c565b8073ffffffffffffffffffffffffffffffffffffffff16600360009054906101000a900473ffffffffffffffffffffffffffffffffffffffff1673ffffffffffffffffffffffffffffffffffffffff1603612759576040517f08c379a000000000000000000000000000000000000000000000000000000000815260040161275090614b82565b60405180910390fd5b80600360006101000a81548173ffffffffffffffffffffffffffffffffffffffff021916908373ffffffffffffffffffffffffffffffffffffffff16021790555050565b60001515600060149054906101000a900460ff161515146127f3576040517f08c379a00000000000000000000000000000000000000000000000000000000081526004016127ea90614663565b60405180910390fd5b82829050858590501461283b576040517f08c379a000000000000000000000000000000000000000000000000000000000815260040161283290614bee565b60405180910390fd5b60005b858590508110156128b357600086868381811061285e5761285d614c0e565b5b90506020020160208101906128739190613b10565b9050600085858481811061288a57612889614c0e565b5b90506020020135905061289e8282866115a7565b505080806128ab90614c6c565b91505061283e565b505050505050565b6128c3612a0c565b80471015612906576040517f08c379a00000000000000000000000000000000000000000000000000000000081526004016128fd90614d00565b60405180910390fd5b3373ffffffffffffffffffffffffffffffffffffffff166108fc829081150290604051600060405180830381858888f1935050505015801561294c573d6000803e3d6000fd5b5050565b612958612a0c565b600073ffffffffffffffffffffffffffffffffffffffff168173ffffffffffffffffffffffffffffffffffffffff16036129c7576040517f08c379a00000000000000000000000000000000000000000000000000000000081526004016129be90614d92565b60405180910390fd5b6129d081613069565b50565b600160009054906101000a900473ffffffffffffffffffffffffffffffffffffffff1681565b600360159054906101000a900460ff1681565b612a1461360e565b73ffffffffffffffffffffffffffffffffffffffff16612a32611558565b73ffffffffffffffffffffffffffffffffffffffff1614612a88576040517f08c379a0000000000000000000000000000000000000000000000000000000008152600401612a7f90614dfe565b60405180910390fd5b565b60001515600060149054906101000a900460ff16151514612ae0576040517f08c379a0000000000000000000000000000000000000000000000000000000008152600401612ad790614663565b60405180910390fd5b60008111612b23576040517f08c379a0000000000000000000000000000000000000000000000000000000008152600401612b1a90614e6a565b60405180910390fd5b6005821015612b67576040517f08c379a0000000000000000000000000000000000000000000000000000000008152600401612b5e90614ed6565b60405180910390fd5b60008490503373ffffffffffffffffffffffffffffffffffffffff168173ffffffffffffffffffffffffffffffffffffffff16636352211e866040518263ffffffff1660e01b8152600401612bbc91906142d5565b602060405180830381865afa158015612bd9573d6000803e3d6000fd5b505050506040513d601f19601f82011682018060405250810190612bfd9190614305565b73ffffffffffffffffffffffffffffffffffffffff1603612c53576040517f08c379a0000000000000000000000000000000000000000000000000000000008152600401612c4a90614f42565b60405180910390fd5b6000600660008773ffffffffffffffffffffffffffffffffffffffff1673ffffffffffffffffffffffffffffffffffffffff168152602001908152602001600020600086815260200190815260200160002060003373ffffffffffffffffffffffffffffffffffffffff1673ffffffffffffffffffffffffffffffffffffffff1681526020019081526020016000209050600081600001541480612d0c5750600015158160020160009054906101000a900460ff161515145b612d4b576040517f08c379a0000000000000000000000000000000000000000000000000000000008152600401612d4290614fae565b60405180910390fd5b60008442612d599190614fce565b905083826000018190555080826001018190555060018260020160006101000a81548160ff0219169083151502179055503373ffffffffffffffffffffffffffffffffffffffff167f34d1dfe0d66bf9268498c7cab1b692166dc95f5806083d60a805ef5ee80b634a88888785604051612dd69493929190615002565b60405180910390a250505050505050565b6000808390503073ffffffffffffffffffffffffffffffffffffffff168173ffffffffffffffffffffffffffffffffffffffff1663081812fc856040518263ffffffff1660e01b8152600401612e3d91906142d5565b602060405180830381865afa158015612e5a573d6000803e3d6000fd5b505050506040513d601f19601f82011682018060405250810190612e7e9190614305565b73ffffffffffffffffffffffffffffffffffffffff161480612f9157508073ffffffffffffffffffffffffffffffffffffffff1663e985e9c58273ffffffffffffffffffffffffffffffffffffffff16636352211e866040518263ffffffff1660e01b8152600401612ef091906142d5565b602060405180830381865afa158015612f0d573d6000803e3d6000fd5b505050506040513d601f19601f82011682018060405250810190612f319190614305565b306040518363ffffffff1660e01b8152600401612f4f929190615047565b602060405180830381865afa158015612f6c573d6000803e3d6000fd5b505050506040513d601f19601f82011682018060405250810190612f90919061423c565b5b91505092915050565b6000600360159054906101000a900460ff161561305c57600360009054906101000a900473ffffffffffffffffffffffffffffffffffffffff1673ffffffffffffffffffffffffffffffffffffffff166376dadfef868686866040518563ffffffff1660e01b81526004016130129493929190615070565b6020604051808303816000875af1158015613031573d6000803e3d6000fd5b505050506040513d601f19601f82011682018060405250810190613055919061423c565b9050613061565b600090505b949350505050565b60008060009054906101000a900473ffffffffffffffffffffffffffffffffffffffff169050816000806101000a81548173ffffffffffffffffffffffffffffffffffffffff021916908373ffffffffffffffffffffffffffffffffffffffff1602179055508173ffffffffffffffffffffffffffffffffffffffff168173ffffffffffffffffffffffffffffffffffffffff167f8be0079c531659141344cd1fd0a4f28419497f9722a3daafe3b4186f6b6457e060405160405180910390a35050565b6131378383612de7565b613176576040517f08c379a000000000000000000000000000000000000000000000000000000000815260040161316d90615101565b60405180910390fd5b60008390503373ffffffffffffffffffffffffffffffffffffffff168173ffffffffffffffffffffffffffffffffffffffff16636352211e856040518263ffffffff1660e01b81526004016131cb91906142d5565b602060405180830381865afa1580156131e8573d6000803e3d6000fd5b505050506040513d601f19601f8201168201806040525081019061320c9190614305565b73ffffffffffffffffffffffffffffffffffffffff1603613262576040517f08c379a000000000000000000000000000000000000000000000000000000000815260040161325990615193565b60405180910390fd5b6000600560008673ffffffffffffffffffffffffffffffffffffffff1673ffffffffffffffffffffffffffffffffffffffff16815260200190815260200160002060008581526020019081526020016000206040518060600160405290816000820160009054906101000a900473ffffffffffffffffffffffffffffffffffffffff1673ffffffffffffffffffffffffffffffffffffffff1673ffffffffffffffffffffffffffffffffffffffff1681526020016000820160149054906101000a900460ff1615151515815260200160018201548152505090508060400151831015613383576040517f08c379a000000000000000000000000000000000000000000000000000000000815260040161337a90615225565b60405180910390fd5b5050505050565b60001515600060149054906101000a900460ff161515146133e0576040517f08c379a00000000000000000000000000000000000000000000000000000000081526004016133d790614663565b60405180910390fd5b6000839050600033905060008273ffffffffffffffffffffffffffffffffffffffff16636352211e866040518263ffffffff1660e01b815260040161342591906142d5565b602060405180830381865afa158015613442573d6000803e3d6000fd5b505050506040513d601f19601f820116820180604052508101906134669190614305565b90506000600560008873ffffffffffffffffffffffffffffffffffffffff1673ffffffffffffffffffffffffffffffffffffffff16815260200190815260200160002060008781526020019081526020016000209050600081600101549050600081876134d39190615245565b90508373ffffffffffffffffffffffffffffffffffffffff166108fc839081150290604051600060405180830381858888f1935050505015801561351b573d6000803e3d6000fd5b50600081111561356d578473ffffffffffffffffffffffffffffffffffffffff166108fc829081150290604051600060405180830381858888f1935050505015801561356b573d6000803e3d6000fd5b505b8573ffffffffffffffffffffffffffffffffffffffff166342842e0e85338b6040518463ffffffff1660e01b81526004016135aa93929190614508565b600060405180830381600087803b1580156135c457600080fd5b505af11580156135d8573d6000803e3d6000fd5b5050505060008360000160146101000a81548160ff02191690831515021790555060008360010181905550505050505050505050565b600033905090565b604051806060016040528060008152602001600081526020016000151581525090565b6040518060600160405280600073ffffffffffffffffffffffffffffffffffffffff168152602001600015158152602001600081525090565b6000604051905090565b600080fd5b600080fd5b600073ffffffffffffffffffffffffffffffffffffffff82169050919050565b60006136b182613686565b9050919050565b6136c1816136a6565b81146136cc57600080fd5b50565b6000813590506136de816136b8565b92915050565b6000819050919050565b6136f7816136e4565b811461370257600080fd5b50565b600081359050613714816136ee565b92915050565b600080600080600060a086880312156137365761373561367c565b5b6000613744888289016136cf565b955050602061375588828901613705565b9450506040613766888289016136cf565b9350506060613777888289016136cf565b925050608061378888828901613705565b9150509295509295909350565b60008115159050919050565b6137aa81613795565b81146137b557600080fd5b50565b6000813590506137c7816137a1565b92915050565b6000602082840312156137e3576137e261367c565b5b60006137f1848285016137b8565b91505092915050565b600080604083850312156138115761381061367c565b5b600061381f858286016136cf565b925050602061383085828601613705565b9150509250929050565b600069ffffffffffffffffffff82169050919050565b6138598161383a565b811461386457600080fd5b50565b60008135905061387681613850565b92915050565b60008060008060008060c087890312156138995761389861367c565b5b60006138a789828a016136cf565b96505060206138b889828a01613705565b95505060406138c989828a016136cf565b94505060606138da89828a01613705565b93505060806138eb89828a01613705565b92505060a06138fc89828a01613867565b9150509295509295509295565b6000806000606084860312156139225761392161367c565b5b6000613930868287016136cf565b935050602061394186828701613705565b925050604061395286828701613705565b9150509250925092565b6000819050919050565b600061398161397c61397784613686565b61395c565b613686565b9050919050565b600061399382613966565b9050919050565b60006139a582613988565b9050919050565b6139b58161399a565b82525050565b60006020820190506139d060008301846139ac565b92915050565b6000806000606084860312156139ef576139ee61367c565b5b60006139fd868287016136cf565b9350506020613a0e86828701613705565b9250506040613a1f868287016136cf565b9150509250925092565b613a32816136e4565b82525050565b613a4181613795565b82525050565b606082016000820151613a5d6000850182613a29565b506020820151613a706020850182613a29565b506040820151613a836040850182613a38565b50505050565b6000606082019050613a9e6000830184613a47565b92915050565b613aad816136a6565b82525050565b606082016000820151613ac96000850182613aa4565b506020820151613adc6020850182613a38565b506040820151613aef6040850182613a29565b50505050565b6000606082019050613b0a6000830184613ab3565b92915050565b600060208284031215613b2657613b2561367c565b5b6000613b34848285016136cf565b91505092915050565b613b4681613795565b82525050565b6000602082019050613b616000830184613b3d565b92915050565b613b70816136a6565b82525050565b6000602082019050613b8b6000830184613b67565b92915050565b6000613b9c82613988565b9050919050565b613bac81613b91565b82525050565b6000602082019050613bc76000830184613ba3565b92915050565b600080fd5b600080fd5b6000601f19601f8301169050919050565b7f4e487b7100000000000000000000000000000000000000000000000000000000600052604160045260246000fd5b613c2082613bd7565b810181811067ffffffffffffffff82111715613c3f57613c3e613be8565b5b80604052505050565b6000613c52613672565b9050613c5e8282613c17565b919050565b600067ffffffffffffffff821115613c7e57613c7d613be8565b5b613c8782613bd7565b9050602081019050919050565b82818337600083830152505050565b6000613cb6613cb184613c63565b613c48565b905082815260208101848484011115613cd257613cd1613bd2565b5b613cdd848285613c94565b509392505050565b600082601f830112613cfa57613cf9613bcd565b5b8135613d0a848260208601613ca3565b91505092915050565b600080600080600060a08688031215613d2f57613d2e61367c565b5b6000613d3d888289016136cf565b9550506020613d4e88828901613705565b9450506040613d5f88828901613705565b9350506060613d70888289016136cf565b925050608086013567ffffffffffffffff811115613d9157613d90613681565b5b613d9d88828901613ce5565b9150509295509295909350565b6000613db5826136a6565b9050919050565b613dc581613daa565b8114613dd057600080fd5b50565b600081359050613de281613dbc565b92915050565b600060208284031215613dfe57613dfd61367c565b5b6000613e0c84828501613dd3565b91505092915050565b6000613e20826136a6565b9050919050565b613e3081613e15565b8114613e3b57600080fd5b50565b600081359050613e4d81613e27565b92915050565b600060208284031215613e6957613e6861367c565b5b6000613e7784828501613e3e565b91505092915050565b600080fd5b600080fd5b60008083601f840112613ea057613e9f613bcd565b5b8235905067ffffffffffffffff811115613ebd57613ebc613e80565b5b602083019150836020820283011115613ed957613ed8613e85565b5b9250929050565b60008083601f840112613ef657613ef5613bcd565b5b8235905067ffffffffffffffff811115613f1357613f12613e80565b5b602083019150836020820283011115613f2f57613f2e613e85565b5b9250929050565b600080600080600060608688031215613f5257613f5161367c565b5b600086013567ffffffffffffffff811115613f7057613f6f613681565b5b613f7c88828901613e8a565b9550955050602086013567ffffffffffffffff811115613f9f57613f9e613681565b5b613fab88828901613ee0565b93509350506040613fbe88828901613705565b9150509295509295909350565b600060208284031215613fe157613fe061367c565b5b6000613fef84828501613705565b91505092915050565b600061400382613988565b9050919050565b61401381613ff8565b82525050565b600060208201905061402e600083018461400a565b92915050565b600082825260208201905092915050565b7f496e76616c6964206e6963686f6e667420636f6e747261637400000000000000600082015250565b600061407b601983614034565b915061408682614045565b602082019050919050565b600060208201905081810360008301526140aa8161406e565b9050919050565b6140ba816136e4565b82525050565b60006060820190506140d56000830186613b67565b6140e260208301856140b1565b6140ef60408301846140b1565b949350505050565b7f416c726561647920776974686472617765640000000000000000000000000000600082015250565b600061412d601283614034565b9150614138826140f7565b602082019050919050565b6000602082019050818103600083015261415c81614120565b9050919050565b60006040820190506141786000830185613b67565b61418560208301846140b1565b9392505050565b6141958161383a565b82525050565b50565b60006141ab600083614034565b91506141b68261419b565b600082019050919050565b600060c0820190506141d66000830188613b67565b6141e360208301876140b1565b6141f060408301866140b1565b6141fd60608301856140b1565b61420a608083018461418c565b81810360a083015261421b8161419e565b90509695505050505050565b600081519050614236816137a1565b92915050565b6000602082840312156142525761425161367c565b5b600061426084828501614227565b91505092915050565b7f54686973204e465420697320696e20626c61636b4c6973740000000000000000600082015250565b600061429f601883614034565b91506142aa82614269565b602082019050919050565b600060208201905081810360008301526142ce81614292565b9050919050565b60006020820190506142ea60008301846140b1565b92915050565b6000815190506142ff816136b8565b92915050565b60006020828403121561431b5761431a61367c565b5b6000614329848285016142f0565b91505092915050565b7f546f6b656e204f776e65723a20796f7520617265206e6f74206120746f6b656e60008201527f206f776e65720000000000000000000000000000000000000000000000000000602082015250565b600061438e602683614034565b915061439982614332565b604082019050919050565b600060208201905081810360008301526143bd81614381565b9050919050565b7f4f666665722063726561746f7220776974686472617765640000000000000000600082015250565b60006143fa601883614034565b9150614405826143c4565b602082019050919050565b60006020820190508181036000830152614429816143ed565b9050919050565b7f4f6666657220616c726561647920657870697265640000000000000000000000600082015250565b6000614466601583614034565b915061447182614430565b602082019050919050565b6000602082019050818103600083015261449581614459565b9050919050565b7f46697273742c20617070726f7665204e46540000000000000000000000000000600082015250565b60006144d2601283614034565b91506144dd8261449c565b602082019050919050565b60006020820190508181036000830152614501816144c5565b9050919050565b600060608201905061451d6000830186613b67565b61452a6020830185613b67565b61453760408301846140b1565b949350505050565b7f496e76616c696420616464726573730000000000000000000000000000000000600082015250565b6000614575600f83614034565b91506145808261453f565b602082019050919050565b600060208201905081810360008301526145a481614568565b9050919050565b7f53616d6520466163746f72792041646472657373000000000000000000000000600082015250565b60006145e1601483614034565b91506145ec826145ab565b602082019050919050565b60006020820190508181036000830152614610816145d4565b9050919050565b7f5061757365640000000000000000000000000000000000000000000000000000600082015250565b600061464d600683614034565b915061465882614617565b602082019050919050565b6000602082019050818103600083015261467c81614640565b9050919050565b7f46697273742c20417070726f7665204e46540000000000000000000000000000600082015250565b60006146b9601283614034565b91506146c482614683565b602082019050919050565b600060208201905081810360008301526146e8816146ac565b9050919050565b6000819050919050565b600061471461470f61470a846146ef565b61395c565b6136e4565b9050919050565b614724816146f9565b82525050565b600061474561474061473b846146ef565b61395c565b61383a565b9050919050565b6147558161472a565b82525050565b600060c0820190506147706000830188613b67565b61477d60208301876140b1565b61478a60408301866140b1565b614797606083018561471b565b6147a4608083018461474c565b81810360a08301526147b58161419e565b90509695505050505050565b7f416c72656164792073657420656e61626c656400000000000000000000000000600082015250565b60006147f7601383614034565b9150614802826147c1565b602082019050919050565b60006020820190508181036000830152614826816147ea565b9050919050565b60006060820190506148426000830186613b67565b61484f60208301856140b1565b61485c6040830184613b3d565b949350505050565b7f4c69737461626c653a206e6f7420616c6c6f77656420746f206c697374000000600082015250565b600061489a601d83614034565b91506148a582614864565b602082019050919050565b600060208201905081810360008301526148c98161488d565b9050919050565b600081519050919050565b60005b838110156148f95780820151818401526020810190506148de565b60008484015250505050565b6000614910826148d0565b61491a8185614034565b935061492a8185602086016148db565b61493381613bd7565b840191505092915050565b600060c0820190506149536000830189613b67565b61496060208301886140b1565b61496d60408301876140b1565b61497a606083018661471b565b614987608083018561474c565b81810360a08301526149998184614905565b9050979650505050505050565b7f596f752068617665206e6f20726967687420746f2063616c6c2073657444697260008201527f6563744c69737461626c65000000000000000000000000000000000000000000602082015250565b6000614a02602b83614034565b9150614a0d826149a6565b604082019050919050565b60006020820190508181036000830152614a31816149f5565b9050919050565b7f546f6b656e3a206e6f74206c6973746564206f6e206d61726b6574706c616365600082015250565b6000614a6e602083614034565b9150614a7982614a38565b602082019050919050565b60006020820190508181036000830152614a9d81614a61565b9050919050565b7f596f7520617265206e6f742063726561746f7200000000000000000000000000600082015250565b6000614ada601383614034565b9150614ae582614aa4565b602082019050919050565b60006020820190508181036000830152614b0981614acd565b9050919050565b7f526577617264733a20686173206265656e20616c726561647920636f6e66696760008201527f7572656400000000000000000000000000000000000000000000000000000000602082015250565b6000614b6c602483614034565b9150614b7782614b10565b604082019050919050565b60006020820190508181036000830152614b9b81614b5f565b9050919050565b7f41727261792073697a6520646f6573206e6f74206d6174636800000000000000600082015250565b6000614bd8601983614034565b9150614be382614ba2565b602082019050919050565b60006020820190508181036000830152614c0781614bcb565b9050919050565b7f4e487b7100000000000000000000000000000000000000000000000000000000600052603260045260246000fd5b7f4e487b7100000000000000000000000000000000000000000000000000000000600052601160045260246000fd5b6000614c77826136e4565b91507fffffffffffffffffffffffffffffffffffffffffffffffffffffffffffffffff8203614ca957614ca8614c3d565b5b600182019050919050565b7f57726f6e6720616d6f756e740000000000000000000000000000000000000000600082015250565b6000614cea600c83614034565b9150614cf582614cb4565b602082019050919050565b60006020820190508181036000830152614d1981614cdd565b9050919050565b7f4f776e61626c653a206e6577206f776e657220697320746865207a65726f206160008201527f6464726573730000000000000000000000000000000000000000000000000000602082015250565b6000614d7c602683614034565b9150614d8782614d20565b604082019050919050565b60006020820190508181036000830152614dab81614d6f565b9050919050565b7f4f776e61626c653a2063616c6c6572206973206e6f7420746865206f776e6572600082015250565b6000614de8602083614034565b9150614df382614db2565b602082019050919050565b60006020820190508181036000830152614e1781614ddb565b9050919050565b7f496e76616c696420616d6f756e74000000000000000000000000000000000000600082015250565b6000614e54600e83614034565b9150614e5f82614e1e565b602082019050919050565b60006020820190508181036000830152614e8381614e47565b9050919050565b7f496e76616c696420646561646c696e6500000000000000000000000000000000600082015250565b6000614ec0601083614034565b9150614ecb82614e8a565b602082019050919050565b60006020820190508181036000830152614eef81614eb3565b9050919050565b7f4f776e65722063616e6e6f7420637265617465206f6666657200000000000000600082015250565b6000614f2c601983614034565b9150614f3782614ef6565b602082019050919050565b60006020820190508181036000830152614f5b81614f1f565b9050919050565b7f596f7527766520616c72656164792063726561746564206f6666657200000000600082015250565b6000614f98601c83614034565b9150614fa382614f62565b602082019050919050565b60006020820190508181036000830152614fc781614f8b565b9050919050565b6000614fd9826136e4565b9150614fe4836136e4565b9250828201905080821115614ffc57614ffb614c3d565b5b92915050565b60006080820190506150176000830187613b67565b61502460208301866140b1565b61503160408301856140b1565b61503e60608301846140b1565b95945050505050565b600060408201905061505c6000830185613b67565b6150696020830184613b67565b9392505050565b60006080820190506150856000830187613b67565b61509260208301866140b1565b61509f6040830185613b67565b6150ac60608301846140b1565b95945050505050565b7f4e6f7420617070726f7665642066726f6d206f776e65722e0000000000000000600082015250565b60006150eb601883614034565b91506150f6826150b5565b602082019050919050565b6000602082019050818103600083015261511a816150de565b9050919050565b7f546f6b656e206f776e65722063616e206e6f742062757920796f7572204e465460008201527f732e000000000000000000000000000000000000000000000000000000000000602082015250565b600061517d602283614034565b915061518882615121565b604082019050919050565b600060208201905081810360008301526151ac81615170565b9050919050565b7f4572726f722c2074686520616d6f756e74206973206c6f776572207468616e2060008201527f7072696365000000000000000000000000000000000000000000000000000000602082015250565b600061520f602583614034565b915061521a826151b3565b604082019050919050565b6000602082019050818103600083015261523e81615202565b9050919050565b6000615250826136e4565b915061525b836136e4565b925082820390508181111561527357615272614c3d565b5b9291505056fea2646970667358221220dd83e89308c844646992aa16368cfa2111a526590e8431e65fbb8d9ec4becd7664736f6c63430008110033",
  "linkReferences": {},
  "deployedLinkReferences": {}
}