{
  "_format": "hh-sol-artifact-1",
  "contractName": "NichoNFTMarketplace",
  "sourceName": "contracts/NichoNFTMarketplace.sol",
  "abi": [
    {
      "inputs": [
        {
          "internalType": "contract INFTBlackList",
          "name": "_blacklist",
          "type": "address"
        },
        {
          "internalType": "contract IERC20",
          "name": "_nicho",
          "type": "address"
        },
        {
          "internalType": "address",
          "name": "_nichonft",
          "type": "address"
        }
      ],
      "stateMutability": "nonpayable",
      "type": "constructor"
    },
    {
      "anonymous": false,
      "inputs": [
        {
          "indexed": false,
          "internalType": "address",
          "name": "token_address",
          "type": "address"
        },
        {
          "indexed": false,
          "internalType": "uint256",
          "name": "token_id",
          "type": "uint256"
        },
        {
          "indexed": true,
          "internalType": "address",
          "name": "owner",
          "type": "address"
        },
        {
          "indexed": false,
          "internalType": "bool",
          "name": "is_listed",
          "type": "bool"
        }
      ],
      "name": "ListCancel",
      "type": "event"
    },
    {
      "anonymous": false,
      "inputs": [
        {
          "indexed": false,
          "internalType": "address",
          "name": "token_address",
          "type": "address"
        },
        {
          "indexed": false,
          "internalType": "uint256",
          "name": "token_id",
          "type": "uint256"
        },
        {
          "indexed": true,
          "internalType": "address",
          "name": "owner",
          "type": "address"
        },
        {
          "indexed": false,
          "internalType": "uint256",
          "name": "price",
          "type": "uint256"
        },
        {
          "indexed": false,
          "internalType": "enum IHelper.PayType",
          "name": "pay_type",
          "type": "uint8"
        }
      ],
      "name": "ListNFT",
      "type": "event"
    },
    {
      "anonymous": false,
      "inputs": [
        {
          "indexed": false,
          "internalType": "address",
          "name": "token_address",
          "type": "address"
        },
        {
          "indexed": false,
          "internalType": "uint256",
          "name": "token_id",
          "type": "uint256"
        },
        {
          "indexed": true,
          "internalType": "address",
          "name": "creator",
          "type": "address"
        }
      ],
      "name": "OfferCancels",
      "type": "event"
    },
    {
      "anonymous": false,
      "inputs": [
        {
          "indexed": false,
          "internalType": "address",
          "name": "token_address",
          "type": "address"
        },
        {
          "indexed": false,
          "internalType": "uint256",
          "name": "token_id",
          "type": "uint256"
        },
        {
          "indexed": true,
          "internalType": "address",
          "name": "creator",
          "type": "address"
        },
        {
          "indexed": false,
          "internalType": "uint256",
          "name": "price",
          "type": "uint256"
        },
        {
          "indexed": false,
          "internalType": "uint256",
          "name": "expire_at",
          "type": "uint256"
        },
        {
          "indexed": false,
          "internalType": "enum IHelper.PayType",
          "name": "pay_type",
          "type": "uint8"
        }
      ],
      "name": "Offers",
      "type": "event"
    },
    {
      "anonymous": false,
      "inputs": [
        {
          "indexed": true,
          "internalType": "address",
          "name": "previousOwner",
          "type": "address"
        },
        {
          "indexed": true,
          "internalType": "address",
          "name": "newOwner",
          "type": "address"
        }
      ],
      "name": "OwnershipTransferred",
      "type": "event"
    },
    {
      "anonymous": false,
      "inputs": [
        {
          "indexed": false,
          "internalType": "address",
          "name": "token_address",
          "type": "address"
        },
        {
          "indexed": false,
          "internalType": "uint256",
          "name": "token_id",
          "type": "uint256"
        },
        {
          "indexed": true,
          "internalType": "address",
          "name": "owner",
          "type": "address"
        },
        {
          "indexed": false,
          "internalType": "uint256",
          "name": "old_price",
          "type": "uint256"
        },
        {
          "indexed": false,
          "internalType": "uint256",
          "name": "new_price",
          "type": "uint256"
        },
        {
          "indexed": false,
          "internalType": "enum IHelper.PayType",
          "name": "pay_type",
          "type": "uint8"
        }
      ],
      "name": "PriceUpdate",
      "type": "event"
    },
    {
      "anonymous": false,
      "inputs": [
        {
          "indexed": false,
          "internalType": "address",
          "name": "token_address",
          "type": "address"
        },
        {
          "indexed": false,
          "internalType": "uint256",
          "name": "token_id",
          "type": "uint256"
        },
        {
          "indexed": true,
          "internalType": "address",
          "name": "previous_owner",
          "type": "address"
        },
        {
          "indexed": true,
          "internalType": "address",
          "name": "new_owner",
          "type": "address"
        },
        {
          "indexed": false,
          "internalType": "uint256",
          "name": "price",
          "type": "uint256"
        },
        {
          "indexed": false,
          "internalType": "enum IHelper.PayType",
          "name": "pay_type",
          "type": "uint8"
        }
      ],
      "name": "TradeActivity",
      "type": "event"
    },
    {
      "inputs": [
        {
          "internalType": "address",
          "name": "tokenAddress",
          "type": "address"
        },
        {
          "internalType": "uint256",
          "name": "tokenId",
          "type": "uint256"
        },
        {
          "internalType": "address",
          "name": "offerCreator",
          "type": "address"
        }
      ],
      "name": "acceptOffer",
      "outputs": [],
      "stateMutability": "nonpayable",
      "type": "function"
    },
    {
      "inputs": [
        {
          "internalType": "address[]",
          "name": "tokenAddress",
          "type": "address[]"
        },
        {
          "internalType": "uint256[]",
          "name": "tokenId",
          "type": "uint256[]"
        },
        {
          "internalType": "uint256",
          "name": "askingPrice",
          "type": "uint256"
        },
        {
          "internalType": "enum IHelper.PayType",
          "name": "_payType",
          "type": "uint8"
        }
      ],
      "name": "batchListItemToMarket",
      "outputs": [],
      "stateMutability": "nonpayable",
      "type": "function"
    },
    {
      "inputs": [],
      "name": "blacklistContract",
      "outputs": [
        {
          "internalType": "contract INFTBlackList",
          "name": "",
          "type": "address"
        }
      ],
      "stateMutability": "view",
      "type": "function"
    },
    {
      "inputs": [
        {
          "internalType": "address",
          "name": "tokenAddress",
          "type": "address"
        },
        {
          "internalType": "uint256",
          "name": "tokenId",
          "type": "uint256"
        }
      ],
      "name": "buy",
      "outputs": [],
      "stateMutability": "payable",
      "type": "function"
    },
    {
      "inputs": [
        {
          "internalType": "address",
          "name": "tokenAddress",
          "type": "address"
        },
        {
          "internalType": "uint256",
          "name": "tokenId",
          "type": "uint256"
        },
        {
          "internalType": "uint256",
          "name": "amount",
          "type": "uint256"
        }
      ],
      "name": "buyWithNichoToken",
      "outputs": [],
      "stateMutability": "nonpayable",
      "type": "function"
    },
    {
      "inputs": [
        {
          "internalType": "address",
          "name": "tokenAddress",
          "type": "address"
        },
        {
          "internalType": "uint256",
          "name": "tokenId",
          "type": "uint256"
        }
      ],
      "name": "cancelOffer",
      "outputs": [],
      "stateMutability": "nonpayable",
      "type": "function"
    },
    {
      "inputs": [
        {
          "internalType": "address",
          "name": "tokenAddress",
          "type": "address"
        },
        {
          "internalType": "uint256",
          "name": "tokenId",
          "type": "uint256"
        },
        {
          "internalType": "uint256",
          "name": "deadline",
          "type": "uint256"
        }
      ],
      "name": "createOffer",
      "outputs": [],
      "stateMutability": "payable",
      "type": "function"
    },
    {
      "inputs": [
        {
          "internalType": "address",
          "name": "tokenAddress",
          "type": "address"
        },
        {
          "internalType": "uint256",
          "name": "tokenId",
          "type": "uint256"
        },
        {
          "internalType": "uint256",
          "name": "deadline",
          "type": "uint256"
        },
        {
          "internalType": "uint256",
          "name": "amount",
          "type": "uint256"
        }
      ],
      "name": "createOfferWithNicho",
      "outputs": [],
      "stateMutability": "nonpayable",
      "type": "function"
    },
    {
      "inputs": [
        {
          "internalType": "address",
          "name": "",
          "type": "address"
        }
      ],
      "name": "directListable",
      "outputs": [
        {
          "internalType": "bool",
          "name": "",
          "type": "bool"
        }
      ],
      "stateMutability": "view",
      "type": "function"
    },
    {
      "inputs": [
        {
          "internalType": "address",
          "name": "tokenAddress",
          "type": "address"
        },
        {
          "internalType": "uint256",
          "name": "tokenId",
          "type": "uint256"
        }
      ],
      "name": "getItemInfo",
      "outputs": [
        {
          "components": [
            {
              "internalType": "bool",
              "name": "isListed",
              "type": "bool"
            },
            {
              "internalType": "uint256",
              "name": "price",
              "type": "uint256"
            },
            {
              "internalType": "enum IHelper.PayType",
              "name": "payType",
              "type": "uint8"
            }
          ],
          "internalType": "struct NichoNFTMarketplace.Item",
          "name": "item",
          "type": "tuple"
        }
      ],
      "stateMutability": "view",
      "type": "function"
    },
    {
      "inputs": [
        {
          "internalType": "address",
          "name": "tokenAddress",
          "type": "address"
        },
        {
          "internalType": "uint256",
          "name": "tokenId",
          "type": "uint256"
        },
        {
          "internalType": "address",
          "name": "sender",
          "type": "address"
        }
      ],
      "name": "getOfferItemInfo",
      "outputs": [
        {
          "components": [
            {
              "internalType": "uint256",
              "name": "price",
              "type": "uint256"
            },
            {
              "internalType": "uint256",
              "name": "expireTs",
              "type": "uint256"
            },
            {
              "internalType": "bool",
              "name": "isCancel",
              "type": "bool"
            },
            {
              "internalType": "enum IHelper.PayType",
              "name": "payType",
              "type": "uint8"
            }
          ],
          "internalType": "struct NichoNFTMarketplace.OfferItem",
          "name": "item",
          "type": "tuple"
        }
      ],
      "stateMutability": "view",
      "type": "function"
    },
    {
      "inputs": [
        {
          "internalType": "address",
          "name": "",
          "type": "address"
        },
        {
          "internalType": "uint256",
          "name": "",
          "type": "uint256"
        }
      ],
      "name": "items",
      "outputs": [
        {
          "internalType": "bool",
          "name": "isListed",
          "type": "bool"
        },
        {
          "internalType": "uint256",
          "name": "price",
          "type": "uint256"
        },
        {
          "internalType": "enum IHelper.PayType",
          "name": "payType",
          "type": "uint8"
        }
      ],
      "stateMutability": "view",
      "type": "function"
    },
    {
      "inputs": [
        {
          "internalType": "address",
          "name": "tokenAddress",
          "type": "address"
        },
        {
          "internalType": "uint256",
          "name": "tokenId",
          "type": "uint256"
        },
        {
          "internalType": "uint256",
          "name": "askingPrice",
          "type": "uint256"
        },
        {
          "internalType": "enum IHelper.PayType",
          "name": "_payType",
          "type": "uint8"
        }
      ],
      "name": "listItemToMarket",
      "outputs": [],
      "stateMutability": "nonpayable",
      "type": "function"
    },
    {
      "inputs": [
        {
          "internalType": "address",
          "name": "tokenAddress",
          "type": "address"
        },
        {
          "internalType": "uint256",
          "name": "tokenId",
          "type": "uint256"
        },
        {
          "internalType": "uint256",
          "name": "askingPrice",
          "type": "uint256"
        },
        {
          "internalType": "enum IHelper.PayType",
          "name": "_payType",
          "type": "uint8"
        }
      ],
      "name": "listItemToMarketFromMint",
      "outputs": [],
      "stateMutability": "nonpayable",
      "type": "function"
    },
    {
      "inputs": [],
      "name": "nicho",
      "outputs": [
        {
          "internalType": "contract IERC20",
          "name": "",
          "type": "address"
        }
      ],
      "stateMutability": "view",
      "type": "function"
    },
    {
      "inputs": [],
      "name": "nichonft",
      "outputs": [
        {
          "internalType": "address",
          "name": "",
          "type": "address"
        }
      ],
      "stateMutability": "view",
      "type": "function"
    },
    {
      "inputs": [
        {
          "internalType": "address",
          "name": "",
          "type": "address"
        },
        {
          "internalType": "uint256",
          "name": "",
          "type": "uint256"
        },
        {
          "internalType": "address",
          "name": "",
          "type": "address"
        }
      ],
      "name": "offerItems",
      "outputs": [
        {
          "internalType": "uint256",
          "name": "price",
          "type": "uint256"
        },
        {
          "internalType": "uint256",
          "name": "expireTs",
          "type": "uint256"
        },
        {
          "internalType": "bool",
          "name": "isCancel",
          "type": "bool"
        },
        {
          "internalType": "enum IHelper.PayType",
          "name": "payType",
          "type": "uint8"
        }
      ],
      "stateMutability": "view",
      "type": "function"
    },
    {
      "inputs": [],
      "name": "owner",
      "outputs": [
        {
          "internalType": "address",
          "name": "",
          "type": "address"
        }
      ],
      "stateMutability": "view",
      "type": "function"
    },
    {
      "inputs": [],
      "name": "renounceOwnership",
      "outputs": [],
      "stateMutability": "nonpayable",
      "type": "function"
    },
    {
      "inputs": [
        {
          "internalType": "address",
          "name": "newOwner",
          "type": "address"
        }
      ],
      "name": "transferOwnership",
      "outputs": [],
      "stateMutability": "nonpayable",
      "type": "function"
    },
    {
      "inputs": [
        {
          "internalType": "address",
          "name": "tokenAddress",
          "type": "address"
        },
        {
          "internalType": "uint256",
          "name": "tokenId",
          "type": "uint256"
        },
        {
          "internalType": "uint256",
          "name": "price",
          "type": "uint256"
        },
        {
          "internalType": "enum IHelper.PayType",
          "name": "payType",
          "type": "uint8"
        }
      ],
      "name": "updateListing",
      "outputs": [
        {
          "internalType": "bool",
          "name": "",
          "type": "bool"
        }
      ],
      "stateMutability": "nonpayable",
      "type": "function"
    },
    {
      "inputs": [
        {
          "internalType": "uint256",
          "name": "_amount",
          "type": "uint256"
        }
      ],
      "name": "withdrawBNB",
      "outputs": [],
      "stateMutability": "nonpayable",
      "type": "function"
    },
    {
      "inputs": [
        {
          "internalType": "address",
          "name": "_token",
          "type": "address"
        },
        {
          "internalType": "uint256",
          "name": "_amount",
          "type": "uint256"
        }
      ],
      "name": "withdrawTokens",
      "outputs": [],
      "stateMutability": "nonpayable",
      "type": "function"
    },
    {
      "stateMutability": "payable",
      "type": "receive"
    }
  ],
  "bytecode": "0x60806040523480156200001157600080fd5b5060405162004e2038038062004e20833981810160405281019062000037919062000342565b620000576200004b6200018260201b60201c565b6200018a60201b60201c565b6001808190555082600260006101000a81548173ffffffffffffffffffffffffffffffffffffffff021916908373ffffffffffffffffffffffffffffffffffffffff16021790555081600360006101000a81548173ffffffffffffffffffffffffffffffffffffffff021916908373ffffffffffffffffffffffffffffffffffffffff16021790555080600460006101000a81548173ffffffffffffffffffffffffffffffffffffffff021916908373ffffffffffffffffffffffffffffffffffffffff1602179055506001600760008373ffffffffffffffffffffffffffffffffffffffff1673ffffffffffffffffffffffffffffffffffffffff16815260200190815260200160002060006101000a81548160ff0219169083151502179055505050506200039e565b600033905090565b60008060009054906101000a900473ffffffffffffffffffffffffffffffffffffffff169050816000806101000a81548173ffffffffffffffffffffffffffffffffffffffff021916908373ffffffffffffffffffffffffffffffffffffffff1602179055508173ffffffffffffffffffffffffffffffffffffffff168173ffffffffffffffffffffffffffffffffffffffff167f8be0079c531659141344cd1fd0a4f28419497f9722a3daafe3b4186f6b6457e060405160405180910390a35050565b600080fd5b600073ffffffffffffffffffffffffffffffffffffffff82169050919050565b6000620002808262000253565b9050919050565b6000620002948262000273565b9050919050565b620002a68162000287565b8114620002b257600080fd5b50565b600081519050620002c6816200029b565b92915050565b6000620002d98262000273565b9050919050565b620002eb81620002cc565b8114620002f757600080fd5b50565b6000815190506200030b81620002e0565b92915050565b6200031c8162000273565b81146200032857600080fd5b50565b6000815190506200033c8162000311565b92915050565b6000806000606084860312156200035e576200035d6200024e565b5b60006200036e86828701620002b5565b93505060206200038186828701620002fa565b925050604062000394868287016200032b565b9150509250925092565b614a7280620003ae6000396000f3fe6080604052600436106101445760003560e01c8063715018a6116100b6578063bbf8d0221161006f578063bbf8d02214610459578063cce7ec1314610496578063dc61bc67146104b2578063f2fde38b146104db578063f3e1a4df14610504578063fb8856f01461052f5761014b565b8063715018a61461035d578063751c15041461037457806376c561d1146103b15780638bd27ec1146103da5780638da5cb5b14610405578063a3d25231146104305761014b565b80631f7a9ee3116101085780631f7a9ee3146102275780632cfff5d61461026457806336047330146102a15780633bbb2806146102ca5780635c80a435146102f35780636dd6078d146103325761014b565b8063058a56ac1461015057806306b091f91461017957806308d6ec02146101a2578063127f4b2e146101e25780631c6c71281461020b5761014b565b3661014b57005b600080fd5b34801561015c57600080fd5b50610177600480360381019061017291906135b4565b610558565b005b34801561018557600080fd5b506101a0600480360381019061019b91906135b4565b6108bb565b005b3480156101ae57600080fd5b506101c960048036038101906101c491906135f4565b610a02565b6040516101d994939291906136e8565b60405180910390f35b3480156101ee57600080fd5b506102096004803603810190610204919061372d565b610a66565b005b6102256004803603810190610220919061375a565b610afb565b005b34801561023357600080fd5b5061024e600480360381019061024991906135f4565b610b0e565b60405161025b919061382f565b60405180910390f35b34801561027057600080fd5b5061028b600480360381019061028691906135b4565b610c21565b604051610298919061388c565b60405180910390f35b3480156102ad57600080fd5b506102c860048036038101906102c391906138cc565b610cec565b005b3480156102d657600080fd5b506102f160048036038101906102ec91906135f4565b611076565b005b3480156102ff57600080fd5b5061031a600480360381019061031591906135b4565b61183c565b60405161032993929190613933565b60405180910390f35b34801561033e57600080fd5b5061034761188d565b60405161035491906139c9565b60405180910390f35b34801561036957600080fd5b506103726118b3565b005b34801561038057600080fd5b5061039b600480360381019061039691906139e4565b6118c7565b6040516103a89190613a11565b60405180910390f35b3480156103bd57600080fd5b506103d860048036038101906103d39190613ae7565b6118e7565b005b3480156103e657600080fd5b506103ef611a18565b6040516103fc9190613b9d565b60405180910390f35b34801561041157600080fd5b5061041a611a3e565b6040516104279190613b9d565b60405180910390f35b34801561043c57600080fd5b5061045760048036038101906104529190613bb8565b611a67565b005b34801561046557600080fd5b50610480600480360381019061047b91906138cc565b611a7b565b60405161048d9190613a11565b60405180910390f35b6104b060048036038101906104ab91906135b4565b612061565b005b3480156104be57600080fd5b506104d960048036038101906104d4919061375a565b6123bf565b005b3480156104e757600080fd5b5061050260048036038101906104fd91906139e4565b61271e565b005b34801561051057600080fd5b506105196127a1565b6040516105269190613c40565b60405180910390f35b34801561053b57600080fd5b50610556600480360381019061055191906138cc565b6127c7565b005b60001515600660008473ffffffffffffffffffffffffffffffffffffffff1673ffffffffffffffffffffffffffffffffffffffff168152602001908152602001600020600083815260200190815260200160002060003373ffffffffffffffffffffffffffffffffffffffff1673ffffffffffffffffffffffffffffffffffffffff16815260200190815260200160002060020160009054906101000a900460ff1615151461063c576040517f08c379a000000000000000000000000000000000000000000000000000000000815260040161063390613cb8565b60405180910390fd5b6000600660008473ffffffffffffffffffffffffffffffffffffffff1673ffffffffffffffffffffffffffffffffffffffff168152602001908152602001600020600083815260200190815260200160002060003373ffffffffffffffffffffffffffffffffffffffff1673ffffffffffffffffffffffffffffffffffffffff168152602001908152602001600020905060008160000154905060018260020160006101000a81548160ff021916908315150217905550600082600001819055506001600281111561071157610710613671565b5b8260020160019054906101000a900460ff16600281111561073557610734613671565b5b03610786573373ffffffffffffffffffffffffffffffffffffffff166108fc829081150290604051600060405180830381858888f19350505050158015610780573d6000803e3d6000fd5b50610865565b60028081111561079957610798613671565b5b8260020160019054906101000a900460ff1660028111156107bd576107bc613671565b5b0361086457600360009054906101000a900473ffffffffffffffffffffffffffffffffffffffff1673ffffffffffffffffffffffffffffffffffffffff1663a9059cbb33836040518363ffffffff1660e01b815260040161081f929190613cd8565b6020604051808303816000875af115801561083e573d6000803e3d6000fd5b505050506040513d601f19601f820116820180604052508101906108629190613d2d565b505b5b3373ffffffffffffffffffffffffffffffffffffffff167f5cc15a466936ad14a2db4b70eedcc2b5f9c31520093d7622cc2051755dcf4e2185856040516108ad929190613cd8565b60405180910390a250505050565b6108c361295b565b808273ffffffffffffffffffffffffffffffffffffffff166370a08231306040518263ffffffff1660e01b81526004016108fd9190613b9d565b602060405180830381865afa15801561091a573d6000803e3d6000fd5b505050506040513d601f19601f8201168201806040525081019061093e9190613d6f565b101561097f576040517f08c379a000000000000000000000000000000000000000000000000000000000815260040161097690613de8565b60405180910390fd5b8173ffffffffffffffffffffffffffffffffffffffff1663a9059cbb33836040518363ffffffff1660e01b81526004016109ba929190613cd8565b6020604051808303816000875af11580156109d9573d6000803e3d6000fd5b505050506040513d601f19601f820116820180604052508101906109fd9190613d2d565b505050565b600660205282600052604060002060205281600052604060002060205280600052604060002060009250925050508060000154908060010154908060020160009054906101000a900460ff16908060020160019054906101000a900460ff16905084565b610a6e61295b565b80471015610ab1576040517f08c379a0000000000000000000000000000000000000000000000000000000008152600401610aa890613de8565b60405180910390fd5b3373ffffffffffffffffffffffffffffffffffffffff166108fc829081150290604051600060405180830381858888f19350505050158015610af7573d6000803e3d6000fd5b5050565b610b098383833460016129d9565b505050565b610b166134a5565b600660008573ffffffffffffffffffffffffffffffffffffffff1673ffffffffffffffffffffffffffffffffffffffff168152602001908152602001600020600084815260200190815260200160002060008373ffffffffffffffffffffffffffffffffffffffff1673ffffffffffffffffffffffffffffffffffffffff16815260200190815260200160002060405180608001604052908160008201548152602001600182015481526020016002820160009054906101000a900460ff161515151581526020016002820160019054906101000a900460ff166002811115610c0257610c01613671565b5b6002811115610c1457610c13613671565b5b8152505090509392505050565b610c296134e1565b600560008473ffffffffffffffffffffffffffffffffffffffff1673ffffffffffffffffffffffffffffffffffffffff16815260200190815260200160002060008381526020019081526020016000206040518060600160405290816000820160009054906101000a900460ff16151515158152602001600182015481526020016002820160009054906101000a900460ff166002811115610cce57610ccd613671565b5b6002811115610ce057610cdf613671565b5b81525050905092915050565b838360001515600260009054906101000a900473ffffffffffffffffffffffffffffffffffffffff1673ffffffffffffffffffffffffffffffffffffffff1663c1db0dce84846040518363ffffffff1660e01b8152600401610d4f929190613cd8565b602060405180830381865afa158015610d6c573d6000803e3d6000fd5b505050506040513d601f19601f82011682018060405250810190610d909190613d2d565b151514610dd2576040517f08c379a0000000000000000000000000000000000000000000000000000000008152600401610dc990613e54565b60405180910390fd5b858560008273ffffffffffffffffffffffffffffffffffffffff16636352211e836040518263ffffffff1660e01b8152600401610e0f9190613e74565b602060405180830381865afa158015610e2c573d6000803e3d6000fd5b505050506040513d601f19601f82011682018060405250810190610e509190613ea4565b90503373ffffffffffffffffffffffffffffffffffffffff168173ffffffffffffffffffffffffffffffffffffffff1614610ec0576040517f08c379a0000000000000000000000000000000000000000000000000000000008152600401610eb790613f43565b60405180910390fd5b60006002811115610ed457610ed3613671565b5b866002811115610ee757610ee6613671565b5b03610f27576040517f08c379a0000000000000000000000000000000000000000000000000000000008152600401610f1e90613faf565b60405180910390fd5b610f318989612c1b565b610f70576040517f08c379a0000000000000000000000000000000000000000000000000000000008152600401610f679061401b565b60405180910390fd5b6000600560008b73ffffffffffffffffffffffffffffffffffffffff1673ffffffffffffffffffffffffffffffffffffffff16815260200190815260200160002060008a81526020019081526020016000209050878160010181905550868160020160006101000a81548160ff02191690836002811115610ff457610ff3613671565b5b021790555060018160000160006101000a81548160ff0219169083151502179055503373ffffffffffffffffffffffffffffffffffffffff167f43419220d6710ca6e5645d1ed915d4b2b6b38dea95a4629c761599315ea1b3c68b8b8b8b604051611062949392919061403b565b60405180910390a250505050505050505050565b828260001515600260009054906101000a900473ffffffffffffffffffffffffffffffffffffffff1673ffffffffffffffffffffffffffffffffffffffff1663c1db0dce84846040518363ffffffff1660e01b81526004016110d9929190613cd8565b602060405180830381865afa1580156110f6573d6000803e3d6000fd5b505050506040513d601f19601f8201168201806040525081019061111a9190613d2d565b15151461115c576040517f08c379a000000000000000000000000000000000000000000000000000000000815260040161115390613e54565b60405180910390fd5b848460008273ffffffffffffffffffffffffffffffffffffffff16636352211e836040518263ffffffff1660e01b81526004016111999190613e74565b602060405180830381865afa1580156111b6573d6000803e3d6000fd5b505050506040513d601f19601f820116820180604052508101906111da9190613ea4565b90503373ffffffffffffffffffffffffffffffffffffffff168173ffffffffffffffffffffffffffffffffffffffff161461124a576040517f08c379a000000000000000000000000000000000000000000000000000000000815260040161124190613f43565b60405180910390fd5b6000600660008a73ffffffffffffffffffffffffffffffffffffffff1673ffffffffffffffffffffffffffffffffffffffff168152602001908152602001600020600089815260200190815260200160002060008873ffffffffffffffffffffffffffffffffffffffff1673ffffffffffffffffffffffffffffffffffffffff16815260200190815260200160002060405180608001604052908160008201548152602001600182015481526020016002820160009054906101000a900460ff161515151581526020016002820160019054906101000a900460ff16600281111561133857611337613671565b5b600281111561134a57611349613671565b5b81525050905060001515816040015115151461139b576040517f08c379a0000000000000000000000000000000000000000000000000000000008152600401611392906140cc565b60405180910390fd5b42816020015110156113e2576040517f08c379a00000000000000000000000000000000000000000000000000000000081526004016113d990614138565b60405180910390fd5b6113ec8989612c1b565b61142b576040517f08c379a0000000000000000000000000000000000000000000000000000000008152600401611422906141a4565b60405180910390fd5b8873ffffffffffffffffffffffffffffffffffffffff166342842e0e33898b6040518463ffffffff1660e01b8152600401611468939291906141c4565b600060405180830381600087803b15801561148257600080fd5b505af1158015611496573d6000803e3d6000fd5b505050506000600660008b73ffffffffffffffffffffffffffffffffffffffff1673ffffffffffffffffffffffffffffffffffffffff16815260200190815260200160002060008a815260200190815260200160002060008973ffffffffffffffffffffffffffffffffffffffff1673ffffffffffffffffffffffffffffffffffffffff16815260200190815260200160002060405180608001604052908160008201548152602001600182015481526020016002820160009054906101000a900460ff161515151581526020016002820160019054906101000a900460ff16600281111561158857611587613671565b5b600281111561159a57611599613671565b5b81525050905060008260000151905060018260400190151590811515815250506000826000018181525050600160028111156115d9576115d8613671565b5b836060015160028111156115f0576115ef613671565b5b03611645573373ffffffffffffffffffffffffffffffffffffffff166108fc84600001519081150290604051600060405180830381858888f1935050505015801561163f573d6000803e3d6000fd5b50611717565b60028081111561165857611657613671565b5b8360600151600281111561166f5761166e613671565b5b0361171657600360009054906101000a900473ffffffffffffffffffffffffffffffffffffffff1673ffffffffffffffffffffffffffffffffffffffff1663a9059cbb33836040518363ffffffff1660e01b81526004016116d1929190613cd8565b6020604051808303816000875af11580156116f0573d6000803e3d6000fd5b505050506040513d601f19601f820116820180604052508101906117149190613d2d565b505b5b6000600560008d73ffffffffffffffffffffffffffffffffffffffff1673ffffffffffffffffffffffffffffffffffffffff16815260200190815260200160002060008c8152602001908152602001600020905060008160000160006101000a81548160ff0219169083151502179055506000816001018190555060008160020160006101000a81548160ff021916908360028111156117ba576117b9613671565b5b02179055503373ffffffffffffffffffffffffffffffffffffffff168a73ffffffffffffffffffffffffffffffffffffffff167f49629749471eff4140e01fc33cf3eeaaa0d54db1ade24a5aee37304396fa33e28e8e868960600151604051611826949392919061403b565b60405180910390a3505050505050505050505050565b6005602052816000526040600020602052806000526040600020600091509150508060000160009054906101000a900460ff16908060010154908060020160009054906101000a900460ff16905083565b600360009054906101000a900473ffffffffffffffffffffffffffffffffffffffff1681565b6118bb61295b565b6118c56000612dce565b565b60076020528060005260406000206000915054906101000a900460ff1681565b83839050868690501461192f576040517f08c379a000000000000000000000000000000000000000000000000000000000815260040161192690614247565b60405180910390fd5b6000600281111561194357611942613671565b5b81600281111561195657611955613671565b5b03611996576040517f08c379a000000000000000000000000000000000000000000000000000000000815260040161198d90613faf565b60405180910390fd5b60005b86869050811015611a0f5760008787838181106119b9576119b8614267565b5b90506020020160208101906119ce91906139e4565b905060008686848181106119e5576119e4614267565b5b9050602002013590506119fa82828787610cec565b50508080611a07906142c5565b915050611999565b50505050505050565b600460009054906101000a900473ffffffffffffffffffffffffffffffffffffffff1681565b60008060009054906101000a900473ffffffffffffffffffffffffffffffffffffffff16905090565b611a758484848460026129d9565b50505050565b6000848460001515600260009054906101000a900473ffffffffffffffffffffffffffffffffffffffff1673ffffffffffffffffffffffffffffffffffffffff1663c1db0dce84846040518363ffffffff1660e01b8152600401611ae0929190613cd8565b602060405180830381865afa158015611afd573d6000803e3d6000fd5b505050506040513d601f19601f82011682018060405250810190611b219190613d2d565b151514611b63576040517f08c379a0000000000000000000000000000000000000000000000000000000008152600401611b5a90613e54565b60405180910390fd5b868660008273ffffffffffffffffffffffffffffffffffffffff16636352211e836040518263ffffffff1660e01b8152600401611ba09190613e74565b602060405180830381865afa158015611bbd573d6000803e3d6000fd5b505050506040513d601f19601f82011682018060405250810190611be19190613ea4565b90503373ffffffffffffffffffffffffffffffffffffffff168173ffffffffffffffffffffffffffffffffffffffff1614611c51576040517f08c379a0000000000000000000000000000000000000000000000000000000008152600401611c4890613f43565b60405180910390fd5b89896000600560008473ffffffffffffffffffffffffffffffffffffffff1673ffffffffffffffffffffffffffffffffffffffff16815260200190815260200160002060008381526020019081526020016000206040518060600160405290816000820160009054906101000a900460ff16151515158152602001600182015481526020016002820160009054906101000a900460ff166002811115611cfa57611cf9613671565b5b6002811115611d0c57611d0b613671565b5b815250509050600115158160000151151514611d5d576040517f08c379a0000000000000000000000000000000000000000000000000000000008152600401611d5490614359565b60405180910390fd5b6000600560008f73ffffffffffffffffffffffffffffffffffffffff1673ffffffffffffffffffffffffffffffffffffffff16815260200190815260200160002060008e8152602001908152602001600020905060008d905060008f905060008e905060008e905060008203611e795760008560000160006101000a81548160ff02191690831515021790555060008560020160006101000a81548160ff02191690836002811115611e1257611e11613671565b5b0217905550600085600101819055503373ffffffffffffffffffffffffffffffffffffffff167f7d2db2e6e4cacca1d4dcf19357b1966f202d7f9a40cd5869fcbba517693cb45884866000604051611e6c93929190614379565b60405180910390a2612048565b60006002811115611e8d57611e8c613671565b5b816002811115611ea057611e9f613671565b5b03611ee0576040517f08c379a0000000000000000000000000000000000000000000000000000000008152600401611ed790613faf565b60405180910390fd5b611eea8385612c1b565b611f29576040517f08c379a0000000000000000000000000000000000000000000000000000000008152600401611f209061401b565b60405180910390fd5b60008560010154905060008660020160009054906101000a900460ff1690508382141580611f7b5750826002811115611f6557611f64613671565b5b816002811115611f7857611f77613671565b5b14155b611fba576040517f08c379a0000000000000000000000000000000000000000000000000000000008152600401611fb1906143fc565b60405180910390fd5b828760020160006101000a81548160ff02191690836002811115611fe157611fe0613671565b5b02179055508387600101819055503373ffffffffffffffffffffffffffffffffffffffff167fa35665ee12c5ee73cffb97094a28175a75c21ad364f67a663e9ded80c7ea199a868885888860405161203d95949392919061441c565b60405180910390a250505b60019d5050505050505050505050505050949350505050565b6002600154036120a6576040517f08c379a000000000000000000000000000000000000000000000000000000000815260040161209d906144bb565b60405180910390fd5b6002600181905550818160001515600260009054906101000a900473ffffffffffffffffffffffffffffffffffffffff1673ffffffffffffffffffffffffffffffffffffffff1663c1db0dce84846040518363ffffffff1660e01b8152600401612111929190613cd8565b602060405180830381865afa15801561212e573d6000803e3d6000fd5b505050506040513d601f19601f820116820180604052508101906121529190613d2d565b151514612194576040517f08c379a000000000000000000000000000000000000000000000000000000000815260040161218b90613e54565b60405180910390fd5b83836000600560008473ffffffffffffffffffffffffffffffffffffffff1673ffffffffffffffffffffffffffffffffffffffff16815260200190815260200160002060008381526020019081526020016000206040518060600160405290816000820160009054906101000a900460ff16151515158152602001600182015481526020016002820160009054906101000a900460ff16600281111561223d5761223c613671565b5b600281111561224f5761224e613671565b5b8152505090506001151581600001511515146122a0576040517f08c379a000000000000000000000000000000000000000000000000000000000815260040161229790614359565b60405180910390fd5b6122ad8787600134612e92565b600087905060008173ffffffffffffffffffffffffffffffffffffffff16636352211e896040518263ffffffff1660e01b81526004016122ed9190613e74565b602060405180830381865afa15801561230a573d6000803e3d6000fd5b505050506040513d601f19601f8201168201806040525081019061232e9190613ea4565b905060003390506123408a8a3461313f565b8073ffffffffffffffffffffffffffffffffffffffff168273ffffffffffffffffffffffffffffffffffffffff167f49629749471eff4140e01fc33cf3eeaaa0d54db1ade24a5aee37304396fa33e28c8c3460016040516123a4949392919061403b565b60405180910390a35050505050505050600180819055505050565b600260015403612404576040517f08c379a00000000000000000000000000000000000000000000000000000000081526004016123fb906144bb565b60405180910390fd5b6002600181905550828260001515600260009054906101000a900473ffffffffffffffffffffffffffffffffffffffff1673ffffffffffffffffffffffffffffffffffffffff1663c1db0dce84846040518363ffffffff1660e01b815260040161246f929190613cd8565b602060405180830381865afa15801561248c573d6000803e3d6000fd5b505050506040513d601f19601f820116820180604052508101906124b09190613d2d565b1515146124f2576040517f08c379a00000000000000000000000000000000000000000000000000000000081526004016124e990613e54565b60405180910390fd5b84846000600560008473ffffffffffffffffffffffffffffffffffffffff1673ffffffffffffffffffffffffffffffffffffffff16815260200190815260200160002060008381526020019081526020016000206040518060600160405290816000820160009054906101000a900460ff16151515158152602001600182015481526020016002820160009054906101000a900460ff16600281111561259b5761259a613671565b5b60028111156125ad576125ac613671565b5b8152505090506001151581600001511515146125fe576040517f08c379a00000000000000000000000000000000000000000000000000000000081526004016125f590614359565b60405180910390fd5b61260b8888600289612e92565b600088905060008173ffffffffffffffffffffffffffffffffffffffff16636352211e8a6040518263ffffffff1660e01b815260040161264b9190613e74565b602060405180830381865afa158015612668573d6000803e3d6000fd5b505050506040513d601f19601f8201168201806040525081019061268c9190613ea4565b9050600033905061269e8b8b8b61313f565b8073ffffffffffffffffffffffffffffffffffffffff168273ffffffffffffffffffffffffffffffffffffffff167f49629749471eff4140e01fc33cf3eeaaa0d54db1ade24a5aee37304396fa33e28d8d8d6002604051612702949392919061403b565b60405180910390a3505050505050505060018081905550505050565b61272661295b565b600073ffffffffffffffffffffffffffffffffffffffff168173ffffffffffffffffffffffffffffffffffffffff1603612795576040517f08c379a000000000000000000000000000000000000000000000000000000000815260040161278c9061454d565b60405180910390fd5b61279e81612dce565b50565b600260009054906101000a900473ffffffffffffffffffffffffffffffffffffffff1681565b60011515600760003373ffffffffffffffffffffffffffffffffffffffff1673ffffffffffffffffffffffffffffffffffffffff16815260200190815260200160002060009054906101000a900460ff1615151461285a576040517f08c379a0000000000000000000000000000000000000000000000000000000008152600401612851906145b9565b60405180910390fd5b6000600560008673ffffffffffffffffffffffffffffffffffffffff1673ffffffffffffffffffffffffffffffffffffffff16815260200190815260200160002060008581526020019081526020016000209050828160010181905550818160020160006101000a81548160ff021916908360028111156128de576128dd613671565b5b021790555060018160000160006101000a81548160ff0219169083151502179055503373ffffffffffffffffffffffffffffffffffffffff167f43419220d6710ca6e5645d1ed915d4b2b6b38dea95a4629c761599315ea1b3c68686868660405161294c949392919061403b565b60405180910390a25050505050565b612963613487565b73ffffffffffffffffffffffffffffffffffffffff16612981611a3e565b73ffffffffffffffffffffffffffffffffffffffff16146129d7576040517f08c379a00000000000000000000000000000000000000000000000000000000081526004016129ce90614625565b60405180910390fd5b565b60008211612a1c576040517f08c379a0000000000000000000000000000000000000000000000000000000008152600401612a1390614691565b60405180910390fd5b601e831015612a60576040517f08c379a0000000000000000000000000000000000000000000000000000000008152600401612a57906146fd565b60405180910390fd5b6000600660008773ffffffffffffffffffffffffffffffffffffffff1673ffffffffffffffffffffffffffffffffffffffff168152602001908152602001600020600086815260200190815260200160002060003373ffffffffffffffffffffffffffffffffffffffff1673ffffffffffffffffffffffffffffffffffffffff1681526020019081526020016000209050600081600001541480612b1257508060020160009054906101000a900460ff165b612b51576040517f08c379a0000000000000000000000000000000000000000000000000000000008152600401612b4890614769565b60405180910390fd5b60008442612b5f9190614789565b905083826000018190555080826001018190555060008260020160006101000a81548160ff021916908315150217905550828260020160016101000a81548160ff02191690836002811115612bb757612bb6613671565b5b02179055503373ffffffffffffffffffffffffffffffffffffffff167f8cf02345192d13083969573ce4ee4237ed7afaeb715ffec50c418f39bf4f9e638888878588604051612c0a95949392919061441c565b60405180910390a250505050505050565b6000808390503073ffffffffffffffffffffffffffffffffffffffff168173ffffffffffffffffffffffffffffffffffffffff1663081812fc856040518263ffffffff1660e01b8152600401612c719190613e74565b602060405180830381865afa158015612c8e573d6000803e3d6000fd5b505050506040513d601f19601f82011682018060405250810190612cb29190613ea4565b73ffffffffffffffffffffffffffffffffffffffff161480612dc557508073ffffffffffffffffffffffffffffffffffffffff1663e985e9c58273ffffffffffffffffffffffffffffffffffffffff16636352211e866040518263ffffffff1660e01b8152600401612d249190613e74565b602060405180830381865afa158015612d41573d6000803e3d6000fd5b505050506040513d601f19601f82011682018060405250810190612d659190613ea4565b306040518363ffffffff1660e01b8152600401612d839291906147bd565b602060405180830381865afa158015612da0573d6000803e3d6000fd5b505050506040513d601f19601f82011682018060405250810190612dc49190613d2d565b5b91505092915050565b60008060009054906101000a900473ffffffffffffffffffffffffffffffffffffffff169050816000806101000a81548173ffffffffffffffffffffffffffffffffffffffff021916908373ffffffffffffffffffffffffffffffffffffffff1602179055508173ffffffffffffffffffffffffffffffffffffffff168173ffffffffffffffffffffffffffffffffffffffff167f8be0079c531659141344cd1fd0a4f28419497f9722a3daafe3b4186f6b6457e060405160405180910390a35050565b612e9c8484612c1b565b612edb576040517f08c379a0000000000000000000000000000000000000000000000000000000008152600401612ed290614832565b60405180910390fd5b60008490503373ffffffffffffffffffffffffffffffffffffffff168173ffffffffffffffffffffffffffffffffffffffff16636352211e866040518263ffffffff1660e01b8152600401612f309190613e74565b602060405180830381865afa158015612f4d573d6000803e3d6000fd5b505050506040513d601f19601f82011682018060405250810190612f719190613ea4565b73ffffffffffffffffffffffffffffffffffffffff1603612fc7576040517f08c379a0000000000000000000000000000000000000000000000000000000008152600401612fbe906148c4565b60405180910390fd5b6000600560008773ffffffffffffffffffffffffffffffffffffffff1673ffffffffffffffffffffffffffffffffffffffff16815260200190815260200160002060008681526020019081526020016000206040518060600160405290816000820160009054906101000a900460ff16151515158152602001600182015481526020016002820160009054906101000a900460ff16600281111561306e5761306d613671565b5b60028111156130805761307f613671565b5b81525050905083600281111561309957613098613671565b5b816040015160028111156130b0576130af613671565b5b146130f0576040517f08c379a00000000000000000000000000000000000000000000000000000000081526004016130e790614956565b60405180910390fd5b8060200151831015613137576040517f08c379a000000000000000000000000000000000000000000000000000000000815260040161312e906149e8565b60405180910390fd5b505050505050565b6000839050600033905060008273ffffffffffffffffffffffffffffffffffffffff16636352211e866040518263ffffffff1660e01b81526004016131849190613e74565b602060405180830381865afa1580156131a1573d6000803e3d6000fd5b505050506040513d601f19601f820116820180604052508101906131c59190613ea4565b90506000600560008873ffffffffffffffffffffffffffffffffffffffff1673ffffffffffffffffffffffffffffffffffffffff168152602001908152602001600020600087815260200190815260200160002090506000816001015490506000613239828861348f90919063ffffffff16565b90506001600281111561324f5761324e613671565b5b8360020160009054906101000a900460ff16600281111561327357613272613671565b5b03613315578373ffffffffffffffffffffffffffffffffffffffff166108fc839081150290604051600060405180830381858888f193505050501580156132be573d6000803e3d6000fd5b506000811115613310578473ffffffffffffffffffffffffffffffffffffffff166108fc829081150290604051600060405180830381858888f1935050505015801561330e573d6000803e3d6000fd5b505b6133b9565b600360009054906101000a900473ffffffffffffffffffffffffffffffffffffffff1673ffffffffffffffffffffffffffffffffffffffff166323b872dd3386856040518463ffffffff1660e01b8152600401613374939291906141c4565b6020604051808303816000875af1158015613393573d6000803e3d6000fd5b505050506040513d601f19601f820116820180604052508101906133b79190613d2d565b505b8573ffffffffffffffffffffffffffffffffffffffff166342842e0e85338b6040518463ffffffff1660e01b81526004016133f6939291906141c4565b600060405180830381600087803b15801561341057600080fd5b505af1158015613424573d6000803e3d6000fd5b5050505060008360000160006101000a81548160ff0219169083151502179055506000836001018190555060008360020160006101000a81548160ff0219169083600281111561347757613476613671565b5b0217905550505050505050505050565b600033905090565b6000818361349d9190614a08565b905092915050565b60405180608001604052806000815260200160008152602001600015158152602001600060028111156134db576134da613671565b5b81525090565b604051806060016040528060001515815260200160008152602001600060028111156135105761350f613671565b5b81525090565b600080fd5b600080fd5b600073ffffffffffffffffffffffffffffffffffffffff82169050919050565b600061354b82613520565b9050919050565b61355b81613540565b811461356657600080fd5b50565b60008135905061357881613552565b92915050565b6000819050919050565b6135918161357e565b811461359c57600080fd5b50565b6000813590506135ae81613588565b92915050565b600080604083850312156135cb576135ca613516565b5b60006135d985828601613569565b92505060206135ea8582860161359f565b9150509250929050565b60008060006060848603121561360d5761360c613516565b5b600061361b86828701613569565b935050602061362c8682870161359f565b925050604061363d86828701613569565b9150509250925092565b6136508161357e565b82525050565b60008115159050919050565b61366b81613656565b82525050565b7f4e487b7100000000000000000000000000000000000000000000000000000000600052602160045260246000fd5b600381106136b1576136b0613671565b5b50565b60008190506136c2826136a0565b919050565b60006136d2826136b4565b9050919050565b6136e2816136c7565b82525050565b60006080820190506136fd6000830187613647565b61370a6020830186613647565b6137176040830185613662565b61372460608301846136d9565b95945050505050565b60006020828403121561374357613742613516565b5b60006137518482850161359f565b91505092915050565b60008060006060848603121561377357613772613516565b5b600061378186828701613569565b93505060206137928682870161359f565b92505060406137a38682870161359f565b9150509250925092565b6137b68161357e565b82525050565b6137c581613656565b82525050565b6137d4816136c7565b82525050565b6080820160008201516137f060008501826137ad565b50602082015161380360208501826137ad565b50604082015161381660408501826137bc565b50606082015161382960608501826137cb565b50505050565b600060808201905061384460008301846137da565b92915050565b60608201600082015161386060008501826137bc565b50602082015161387360208501826137ad565b50604082015161388660408501826137cb565b50505050565b60006060820190506138a1600083018461384a565b92915050565b600381106138b457600080fd5b50565b6000813590506138c6816138a7565b92915050565b600080600080608085870312156138e6576138e5613516565b5b60006138f487828801613569565b94505060206139058782880161359f565b93505060406139168782880161359f565b9250506060613927878288016138b7565b91505092959194509250565b60006060820190506139486000830186613662565b6139556020830185613647565b61396260408301846136d9565b949350505050565b6000819050919050565b600061398f61398a61398584613520565b61396a565b613520565b9050919050565b60006139a182613974565b9050919050565b60006139b382613996565b9050919050565b6139c3816139a8565b82525050565b60006020820190506139de60008301846139ba565b92915050565b6000602082840312156139fa576139f9613516565b5b6000613a0884828501613569565b91505092915050565b6000602082019050613a266000830184613662565b92915050565b600080fd5b600080fd5b600080fd5b60008083601f840112613a5157613a50613a2c565b5b8235905067ffffffffffffffff811115613a6e57613a6d613a31565b5b602083019150836020820283011115613a8a57613a89613a36565b5b9250929050565b60008083601f840112613aa757613aa6613a2c565b5b8235905067ffffffffffffffff811115613ac457613ac3613a31565b5b602083019150836020820283011115613ae057613adf613a36565b5b9250929050565b60008060008060008060808789031215613b0457613b03613516565b5b600087013567ffffffffffffffff811115613b2257613b2161351b565b5b613b2e89828a01613a3b565b9650965050602087013567ffffffffffffffff811115613b5157613b5061351b565b5b613b5d89828a01613a91565b94509450506040613b7089828a0161359f565b9250506060613b8189828a016138b7565b9150509295509295509295565b613b9781613540565b82525050565b6000602082019050613bb26000830184613b8e565b92915050565b60008060008060808587031215613bd257613bd1613516565b5b6000613be087828801613569565b9450506020613bf18782880161359f565b9350506040613c028782880161359f565b9250506060613c138782880161359f565b91505092959194509250565b6000613c2a82613996565b9050919050565b613c3a81613c1f565b82525050565b6000602082019050613c556000830184613c31565b92915050565b600082825260208201905092915050565b7f416c72656164792063616e63656c000000000000000000000000000000000000600082015250565b6000613ca2600e83613c5b565b9150613cad82613c6c565b602082019050919050565b60006020820190508181036000830152613cd181613c95565b9050919050565b6000604082019050613ced6000830185613b8e565b613cfa6020830184613647565b9392505050565b613d0a81613656565b8114613d1557600080fd5b50565b600081519050613d2781613d01565b92915050565b600060208284031215613d4357613d42613516565b5b6000613d5184828501613d18565b91505092915050565b600081519050613d6981613588565b92915050565b600060208284031215613d8557613d84613516565b5b6000613d9384828501613d5a565b91505092915050565b7f57726f6e6720616d6f756e740000000000000000000000000000000000000000600082015250565b6000613dd2600c83613c5b565b9150613ddd82613d9c565b602082019050919050565b60006020820190508181036000830152613e0181613dc5565b9050919050565b7f54686973204e465420697320696e20626c61636b4c6973740000000000000000600082015250565b6000613e3e601883613c5b565b9150613e4982613e08565b602082019050919050565b60006020820190508181036000830152613e6d81613e31565b9050919050565b6000602082019050613e896000830184613647565b92915050565b600081519050613e9e81613552565b92915050565b600060208284031215613eba57613eb9613516565b5b6000613ec884828501613e8f565b91505092915050565b7f546f6b656e204f776e65723a20796f7520617265206e6f74206120746f6b656e60008201527f206f776e65720000000000000000000000000000000000000000000000000000602082015250565b6000613f2d602683613c5b565b9150613f3882613ed1565b604082019050919050565b60006020820190508181036000830152613f5c81613f20565b9050919050565b7f496e76616c696420706179207479706500000000000000000000000000000000600082015250565b6000613f99601083613c5b565b9150613fa482613f63565b602082019050919050565b60006020820190508181036000830152613fc881613f8c565b9050919050565b7f46697273742c20417070726f7665204e46540000000000000000000000000000600082015250565b6000614005601283613c5b565b915061401082613fcf565b602082019050919050565b6000602082019050818103600083015261403481613ff8565b9050919050565b60006080820190506140506000830187613b8e565b61405d6020830186613647565b61406a6040830185613647565b61407760608301846136d9565b95945050505050565b7f4f666665722063726561746f7220776974686472617765640000000000000000600082015250565b60006140b6601883613c5b565b91506140c182614080565b602082019050919050565b600060208201905081810360008301526140e5816140a9565b9050919050565b7f4f6666657220616c726561647920657870697265640000000000000000000000600082015250565b6000614122601583613c5b565b915061412d826140ec565b602082019050919050565b6000602082019050818103600083015261415181614115565b9050919050565b7f46697273742c20617070726f7665204e46540000000000000000000000000000600082015250565b600061418e601283613c5b565b915061419982614158565b602082019050919050565b600060208201905081810360008301526141bd81614181565b9050919050565b60006060820190506141d96000830186613b8e565b6141e66020830185613b8e565b6141f36040830184613647565b949350505050565b7f41727261792073697a6520646f6573206e6f74206d6174636800000000000000600082015250565b6000614231601983613c5b565b915061423c826141fb565b602082019050919050565b6000602082019050818103600083015261426081614224565b9050919050565b7f4e487b7100000000000000000000000000000000000000000000000000000000600052603260045260246000fd5b7f4e487b7100000000000000000000000000000000000000000000000000000000600052601160045260246000fd5b60006142d08261357e565b91507fffffffffffffffffffffffffffffffffffffffffffffffffffffffffffffffff820361430257614301614296565b5b600182019050919050565b7f546f6b656e3a206e6f74206c6973746564206f6e206d61726b6574706c616365600082015250565b6000614343602083613c5b565b915061434e8261430d565b602082019050919050565b6000602082019050818103600083015261437281614336565b9050919050565b600060608201905061438e6000830186613b8e565b61439b6020830185613647565b6143a86040830184613662565b949350505050565b7f5468697320707269636520616c72656164792073657400000000000000000000600082015250565b60006143e6601683613c5b565b91506143f1826143b0565b602082019050919050565b60006020820190508181036000830152614415816143d9565b9050919050565b600060a0820190506144316000830188613b8e565b61443e6020830187613647565b61444b6040830186613647565b6144586060830185613647565b61446560808301846136d9565b9695505050505050565b7f5265656e7472616e637947756172643a207265656e7472616e742063616c6c00600082015250565b60006144a5601f83613c5b565b91506144b08261446f565b602082019050919050565b600060208201905081810360008301526144d481614498565b9050919050565b7f4f776e61626c653a206e6577206f776e657220697320746865207a65726f206160008201527f6464726573730000000000000000000000000000000000000000000000000000602082015250565b6000614537602683613c5b565b9150614542826144db565b604082019050919050565b600060208201905081810360008301526145668161452a565b9050919050565b7f4c69737461626c653a206e6f7420616c6c6f77656420746f206c697374000000600082015250565b60006145a3601d83613c5b565b91506145ae8261456d565b602082019050919050565b600060208201905081810360008301526145d281614596565b9050919050565b7f4f776e61626c653a2063616c6c6572206973206e6f7420746865206f776e6572600082015250565b600061460f602083613c5b565b915061461a826145d9565b602082019050919050565b6000602082019050818103600083015261463e81614602565b9050919050565b7f496e76616c696420616d6f756e74000000000000000000000000000000000000600082015250565b600061467b600e83613c5b565b915061468682614645565b602082019050919050565b600060208201905081810360008301526146aa8161466e565b9050919050565b7f496e76616c696420646561646c696e6500000000000000000000000000000000600082015250565b60006146e7601083613c5b565b91506146f2826146b1565b602082019050919050565b60006020820190508181036000830152614716816146da565b9050919050565b7f596f7527766520616c72656164792063726561746564206f6666657200000000600082015250565b6000614753601c83613c5b565b915061475e8261471d565b602082019050919050565b6000602082019050818103600083015261478281614746565b9050919050565b60006147948261357e565b915061479f8361357e565b92508282019050808211156147b7576147b6614296565b5b92915050565b60006040820190506147d26000830185613b8e565b6147df6020830184613b8e565b9392505050565b7f4e6f7420617070726f7665642066726f6d206f776e65722e0000000000000000600082015250565b600061481c601883613c5b565b9150614827826147e6565b602082019050919050565b6000602082019050818103600083015261484b8161480f565b9050919050565b7f546f6b656e206f776e65722063616e206e6f742062757920796f7572204e465460008201527f732e000000000000000000000000000000000000000000000000000000000000602082015250565b60006148ae602283613c5b565b91506148b982614852565b604082019050919050565b600060208201905081810360008301526148dd816148a1565b9050919050565b7f436f696e2074797065206973206e6f7420636f727265637420666f722074686960008201527f732070757263686173652e000000000000000000000000000000000000000000602082015250565b6000614940602b83613c5b565b915061494b826148e4565b604082019050919050565b6000602082019050818103600083015261496f81614933565b9050919050565b7f4572726f722c2074686520616d6f756e74206973206c6f776572207468616e2060008201527f7072696365000000000000000000000000000000000000000000000000000000602082015250565b60006149d2602583613c5b565b91506149dd82614976565b604082019050919050565b60006020820190508181036000830152614a01816149c5565b9050919050565b6000614a138261357e565b9150614a1e8361357e565b9250828203905081811115614a3657614a35614296565b5b9291505056fea26469706673582212201f59033f972e39b2e698b98e0e2aa9275863817c7e9a3afd71beb30273272e0964736f6c63430008110033",
  "linkReferences": {},
  "deployedLinkReferences": {}
}