{
  "_format": "hh-sol-artifact-1",
  "contractName": "CreatorNFT",
  "sourceName": "contracts/CreatorNFT.sol",
  "abi": [
    {
      "inputs": [
        {
          "internalType": "address",
          "name": "_owner",
          "type": "address"
        },
        {
          "internalType": "address",
          "name": "_marketplaceAddress",
          "type": "address"
        },
        {
          "internalType": "string",
          "name": "_name",
          "type": "string"
        },
        {
          "internalType": "string",
          "name": "_symbol",
          "type": "string"
        }
      ],
      "stateMutability": "nonpayable",
      "type": "constructor"
    },
    {
      "inputs": [],
      "name": "CreatorNFT__InvalidMintAmount",
      "type": "error"
    },
    {
      "inputs": [],
      "name": "CreatorNFT__InvalidOwner",
      "type": "error"
    },
    {
      "inputs": [],
      "name": "CreatorNFT__InvalidParams",
      "type": "error"
    },
    {
      "inputs": [],
      "name": "CreatorNFT__InvalidPrice",
      "type": "error"
    },
    {
      "anonymous": false,
      "inputs": [
        {
          "indexed": true,
          "internalType": "address",
          "name": "owner",
          "type": "address"
        },
        {
          "indexed": true,
          "internalType": "address",
          "name": "approved",
          "type": "address"
        },
        {
          "indexed": true,
          "internalType": "uint256",
          "name": "tokenId",
          "type": "uint256"
        }
      ],
      "name": "Approval",
      "type": "event"
    },
    {
      "anonymous": false,
      "inputs": [
        {
          "indexed": true,
          "internalType": "address",
          "name": "owner",
          "type": "address"
        },
        {
          "indexed": true,
          "internalType": "address",
          "name": "operator",
          "type": "address"
        },
        {
          "indexed": false,
          "internalType": "bool",
          "name": "approved",
          "type": "bool"
        }
      ],
      "name": "ApprovalForAll",
      "type": "event"
    },
    {
      "anonymous": false,
      "inputs": [
        {
          "indexed": true,
          "internalType": "uint256",
          "name": "tokenId",
          "type": "uint256"
        },
        {
          "indexed": true,
          "internalType": "string",
          "name": "tokenUri",
          "type": "string"
        }
      ],
      "name": "Minted",
      "type": "event"
    },
    {
      "anonymous": false,
      "inputs": [
        {
          "indexed": true,
          "internalType": "address",
          "name": "from",
          "type": "address"
        },
        {
          "indexed": true,
          "internalType": "address",
          "name": "to",
          "type": "address"
        },
        {
          "indexed": true,
          "internalType": "uint256",
          "name": "tokenId",
          "type": "uint256"
        }
      ],
      "name": "Transfer",
      "type": "event"
    },
    {
      "inputs": [
        {
          "internalType": "address",
          "name": "to",
          "type": "address"
        },
        {
          "internalType": "uint256",
          "name": "tokenId",
          "type": "uint256"
        }
      ],
      "name": "approve",
      "outputs": [],
      "stateMutability": "nonpayable",
      "type": "function"
    },
    {
      "inputs": [
        {
          "internalType": "address",
          "name": "owner",
          "type": "address"
        }
      ],
      "name": "balanceOf",
      "outputs": [
        {
          "internalType": "uint256",
          "name": "",
          "type": "uint256"
        }
      ],
      "stateMutability": "view",
      "type": "function"
    },
    {
      "inputs": [
        {
          "internalType": "string[]",
          "name": "_tokenUri",
          "type": "string[]"
        },
        {
          "internalType": "uint256",
          "name": "_price",
          "type": "uint256"
        },
        {
          "internalType": "uint256",
          "name": "_amount",
          "type": "uint256"
        }
      ],
      "name": "batchDNMint",
      "outputs": [],
      "stateMutability": "nonpayable",
      "type": "function"
    },
    {
      "inputs": [
        {
          "internalType": "string",
          "name": "_baseTokenUri",
          "type": "string"
        },
        {
          "internalType": "uint256",
          "name": "_price",
          "type": "uint256"
        },
        {
          "internalType": "uint256",
          "name": "_amount",
          "type": "uint256"
        }
      ],
      "name": "batchIDMint",
      "outputs": [],
      "stateMutability": "nonpayable",
      "type": "function"
    },
    {
      "inputs": [
        {
          "internalType": "string",
          "name": "_tokenUri",
          "type": "string"
        },
        {
          "internalType": "uint256",
          "name": "_price",
          "type": "uint256"
        },
        {
          "internalType": "uint256",
          "name": "_amount",
          "type": "uint256"
        }
      ],
      "name": "batchSNMint",
      "outputs": [],
      "stateMutability": "nonpayable",
      "type": "function"
    },
    {
      "inputs": [
        {
          "internalType": "uint256",
          "name": "tokenId",
          "type": "uint256"
        }
      ],
      "name": "getApproved",
      "outputs": [
        {
          "internalType": "address",
          "name": "",
          "type": "address"
        }
      ],
      "stateMutability": "view",
      "type": "function"
    },
    {
      "inputs": [],
      "name": "getCreator",
      "outputs": [
        {
          "internalType": "address",
          "name": "",
          "type": "address"
        }
      ],
      "stateMutability": "view",
      "type": "function"
    },
    {
      "inputs": [],
      "name": "getRoyaltyFeePercentage",
      "outputs": [
        {
          "internalType": "uint256",
          "name": "royalty",
          "type": "uint256"
        }
      ],
      "stateMutability": "view",
      "type": "function"
    },
    {
      "inputs": [],
      "name": "getTotalSupply",
      "outputs": [
        {
          "internalType": "uint256",
          "name": "",
          "type": "uint256"
        }
      ],
      "stateMutability": "view",
      "type": "function"
    },
    {
      "inputs": [
        {
          "internalType": "address",
          "name": "owner",
          "type": "address"
        },
        {
          "internalType": "address",
          "name": "operator",
          "type": "address"
        }
      ],
      "name": "isApprovedForAll",
      "outputs": [
        {
          "internalType": "bool",
          "name": "",
          "type": "bool"
        }
      ],
      "stateMutability": "view",
      "type": "function"
    },
    {
      "inputs": [
        {
          "internalType": "string",
          "name": "_tokenUri",
          "type": "string"
        },
        {
          "internalType": "uint256",
          "name": "price",
          "type": "uint256"
        }
      ],
      "name": "mint",
      "outputs": [],
      "stateMutability": "nonpayable",
      "type": "function"
    },
    {
      "inputs": [],
      "name": "name",
      "outputs": [
        {
          "internalType": "string",
          "name": "",
          "type": "string"
        }
      ],
      "stateMutability": "view",
      "type": "function"
    },
    {
      "inputs": [],
      "name": "nichonftMarketplaceContract",
      "outputs": [
        {
          "internalType": "contract INichoNFTMarketplace",
          "name": "",
          "type": "address"
        }
      ],
      "stateMutability": "view",
      "type": "function"
    },
    {
      "inputs": [
        {
          "internalType": "uint256",
          "name": "tokenId",
          "type": "uint256"
        }
      ],
      "name": "ownerOf",
      "outputs": [
        {
          "internalType": "address",
          "name": "",
          "type": "address"
        }
      ],
      "stateMutability": "view",
      "type": "function"
    },
    {
      "inputs": [
        {
          "internalType": "address",
          "name": "from",
          "type": "address"
        },
        {
          "internalType": "address",
          "name": "to",
          "type": "address"
        },
        {
          "internalType": "uint256",
          "name": "tokenId",
          "type": "uint256"
        }
      ],
      "name": "safeTransferFrom",
      "outputs": [],
      "stateMutability": "nonpayable",
      "type": "function"
    },
    {
      "inputs": [
        {
          "internalType": "address",
          "name": "from",
          "type": "address"
        },
        {
          "internalType": "address",
          "name": "to",
          "type": "address"
        },
        {
          "internalType": "uint256",
          "name": "tokenId",
          "type": "uint256"
        },
        {
          "internalType": "bytes",
          "name": "data",
          "type": "bytes"
        }
      ],
      "name": "safeTransferFrom",
      "outputs": [],
      "stateMutability": "nonpayable",
      "type": "function"
    },
    {
      "inputs": [
        {
          "internalType": "address",
          "name": "operator",
          "type": "address"
        },
        {
          "internalType": "bool",
          "name": "approved",
          "type": "bool"
        }
      ],
      "name": "setApprovalForAll",
      "outputs": [],
      "stateMutability": "nonpayable",
      "type": "function"
    },
    {
      "inputs": [
        {
          "internalType": "uint256",
          "name": "_royaltyFee",
          "type": "uint256"
        }
      ],
      "name": "setRoyaltyFeePercentage",
      "outputs": [],
      "stateMutability": "nonpayable",
      "type": "function"
    },
    {
      "inputs": [
        {
          "internalType": "bytes4",
          "name": "interfaceId",
          "type": "bytes4"
        }
      ],
      "name": "supportsInterface",
      "outputs": [
        {
          "internalType": "bool",
          "name": "",
          "type": "bool"
        }
      ],
      "stateMutability": "view",
      "type": "function"
    },
    {
      "inputs": [],
      "name": "symbol",
      "outputs": [
        {
          "internalType": "string",
          "name": "",
          "type": "string"
        }
      ],
      "stateMutability": "view",
      "type": "function"
    },
    {
      "inputs": [
        {
          "internalType": "uint256",
          "name": "tokenId",
          "type": "uint256"
        }
      ],
      "name": "tokenURI",
      "outputs": [
        {
          "internalType": "string",
          "name": "",
          "type": "string"
        }
      ],
      "stateMutability": "view",
      "type": "function"
    },
    {
      "inputs": [
        {
          "internalType": "address",
          "name": "from",
          "type": "address"
        },
        {
          "internalType": "address",
          "name": "to",
          "type": "address"
        },
        {
          "internalType": "uint256",
          "name": "tokenId",
          "type": "uint256"
        }
      ],
      "name": "transferFrom",
      "outputs": [],
      "stateMutability": "nonpayable",
      "type": "function"
    },
    {
      "inputs": [
        {
          "internalType": "address",
          "name": "_owner",
          "type": "address"
        }
      ],
      "name": "transferOwnership",
      "outputs": [],
      "stateMutability": "nonpayable",
      "type": "function"
    }
  ],
  "bytecode": "0x60806040523480156200001157600080fd5b506040516200406b3803806200406b8339818101604052810190620000379190620002e3565b818181600090816200004a9190620005de565b5080600190816200005c9190620005de565b50505083600860006101000a81548173ffffffffffffffffffffffffffffffffffffffff021916908373ffffffffffffffffffffffffffffffffffffffff16021790555082600760006101000a81548173ffffffffffffffffffffffffffffffffffffffff021916908373ffffffffffffffffffffffffffffffffffffffff16021790555050505050620006c5565b6000604051905090565b600080fd5b600080fd5b600073ffffffffffffffffffffffffffffffffffffffff82169050919050565b60006200012c82620000ff565b9050919050565b6200013e816200011f565b81146200014a57600080fd5b50565b6000815190506200015e8162000133565b92915050565b600080fd5b600080fd5b6000601f19601f8301169050919050565b7f4e487b7100000000000000000000000000000000000000000000000000000000600052604160045260246000fd5b620001b9826200016e565b810181811067ffffffffffffffff82111715620001db57620001da6200017f565b5b80604052505050565b6000620001f0620000eb565b9050620001fe8282620001ae565b919050565b600067ffffffffffffffff8211156200022157620002206200017f565b5b6200022c826200016e565b9050602081019050919050565b60005b83811015620002595780820151818401526020810190506200023c565b60008484015250505050565b60006200027c620002768462000203565b620001e4565b9050828152602081018484840111156200029b576200029a62000169565b5b620002a884828562000239565b509392505050565b600082601f830112620002c857620002c762000164565b5b8151620002da84826020860162000265565b91505092915050565b600080600080608085870312156200030057620002ff620000f5565b5b600062000310878288016200014d565b945050602062000323878288016200014d565b935050604085015167ffffffffffffffff811115620003475762000346620000fa565b5b6200035587828801620002b0565b925050606085015167ffffffffffffffff811115620003795762000378620000fa565b5b6200038787828801620002b0565b91505092959194509250565b600081519050919050565b7f4e487b7100000000000000000000000000000000000000000000000000000000600052602260045260246000fd5b60006002820490506001821680620003e657607f821691505b602082108103620003fc57620003fb6200039e565b5b50919050565b60008190508160005260206000209050919050565b60006020601f8301049050919050565b600082821b905092915050565b600060088302620004667fffffffffffffffffffffffffffffffffffffffffffffffffffffffffffffffff8262000427565b62000472868362000427565b95508019841693508086168417925050509392505050565b6000819050919050565b6000819050919050565b6000620004bf620004b9620004b3846200048a565b62000494565b6200048a565b9050919050565b6000819050919050565b620004db836200049e565b620004f3620004ea82620004c6565b84845462000434565b825550505050565b600090565b6200050a620004fb565b62000517818484620004d0565b505050565b5b818110156200053f576200053360008262000500565b6001810190506200051d565b5050565b601f8211156200058e57620005588162000402565b620005638462000417565b8101602085101562000573578190505b6200058b620005828562000417565b8301826200051c565b50505b505050565b600082821c905092915050565b6000620005b36000198460080262000593565b1980831691505092915050565b6000620005ce8383620005a0565b9150826002028217905092915050565b620005e98262000393565b67ffffffffffffffff8111156200060557620006046200017f565b5b620006118254620003cd565b6200061e82828562000543565b600060209050601f83116001811462000656576000841562000641578287015190505b6200064d8582620005c0565b865550620006bd565b601f198416620006668662000402565b60005b82811015620006905784890151825560018201915060208501945060208101905062000669565b86831015620006b05784890151620006ac601f891682620005a0565b8355505b6001600288020188555050505b505050505050565b61399680620006d56000396000f3fe608060405234801561001057600080fd5b506004361061014d5760003560e01c806370a08231116100c3578063b88d4fde1161007c578063b88d4fde14610388578063c4e41b22146103a4578063c87b56dd146103c2578063e985e9c5146103f2578063eadecf3814610422578063f2fde38b1461043e5761014d565b806370a08231146102c65780637a4804af146102f6578063842236a41461031457806395d89b4114610332578063a22cb46514610350578063b3c60c731461036c5761014d565b80630a9aa690116101155780630a9aa690146102085780630ee2cb101461022457806323b872dd1461024257806342842e0e1461025e5780634d619d291461027a5780636352211e146102965761014d565b806301ffc9a714610152578063056b01ce1461018257806306fdde031461019e578063081812fc146101bc578063095ea7b3146101ec575b600080fd5b61016c600480360381019061016791906122bc565b61045a565b6040516101799190612304565b60405180910390f35b61019c6004803603810190610197919061249b565b61053c565b005b6101a6610779565b6040516101b39190612576565b60405180910390f35b6101d660048036038101906101d19190612598565b61080b565b6040516101e39190612606565b60405180910390f35b6102066004803603810190610201919061264d565b610851565b005b610222600480360381019061021d91906126ed565b610968565b005b61022c610aa4565b6040516102399190612606565b60405180910390f35b61025c60048036038101906102579190612761565b610ace565b005b61027860048036038101906102739190612761565b610b2e565b005b610294600480360381019061028f91906126ed565b610b4e565b005b6102b060048036038101906102ab9190612598565b610c99565b6040516102bd9190612606565b60405180910390f35b6102e060048036038101906102db91906127b4565b610d4a565b6040516102ed91906127f0565b60405180910390f35b6102fe610e01565b60405161030b91906127f0565b60405180910390f35b61031c610e0b565b604051610329919061286a565b60405180910390f35b61033a610e31565b6040516103479190612576565b60405180910390f35b61036a600480360381019061036591906128b1565b610ec3565b005b61038660048036038101906103819190612598565b610ed9565b005b6103a2600480360381019061039d9190612992565b610f6a565b005b6103ac610fcc565b6040516103b991906127f0565b60405180910390f35b6103dc60048036038101906103d79190612598565b610fd6565b6040516103e99190612576565b60405180910390f35b61040c60048036038101906104079190612a15565b6110e8565b6040516104199190612304565b60405180910390f35b61043c60048036038101906104379190612aab565b61117c565b005b610458600480360381019061045391906127b4565b611317565b005b60007f80ac58cd000000000000000000000000000000000000000000000000000000007bffffffffffffffffffffffffffffffffffffffffffffffffffffffff1916827bffffffffffffffffffffffffffffffffffffffffffffffffffffffff1916148061052557507f5b5e139f000000000000000000000000000000000000000000000000000000007bffffffffffffffffffffffffffffffffffffffffffffffffffffffff1916827bffffffffffffffffffffffffffffffffffffffffffffffffffffffff1916145b806105355750610534826114e1565b5b9050919050565b600860009054906101000a900473ffffffffffffffffffffffffffffffffffffffff1673ffffffffffffffffffffffffffffffffffffffff163373ffffffffffffffffffffffffffffffffffffffff16146105c3576040517f280e725300000000000000000000000000000000000000000000000000000000815260040160405180910390fd5b80600081116105fe576040517f932e58f300000000000000000000000000000000000000000000000000000000815260040160405180910390fd5b600060095490506009600081548092919061061890612b4e565b9190505550610627338261154b565b6106318185611569565b600015156106686106406115d6565b600760009054906101000a900473ffffffffffffffffffffffffffffffffffffffff166110e8565b15150361069d5761069c600760009054906101000a900473ffffffffffffffffffffffffffffffffffffffff166001610ec3565b5b600760009054906101000a900473ffffffffffffffffffffffffffffffffffffffff1673ffffffffffffffffffffffffffffffffffffffff1663b6359b2a308386336040518563ffffffff1660e01b81526004016106fe9493929190612bbc565b600060405180830381600087803b15801561071857600080fd5b505af115801561072c573d6000803e3d6000fd5b505050508360405161073e9190612c50565b6040518091039020817fadef11a3979b8ceb0573eb6ef0678134a09c23a0d94e5ea47cd18ac3a9fc019460405160405180910390a350505050565b60606000805461078890612c96565b80601f01602080910402602001604051908101604052809291908181526020018280546107b490612c96565b80156108015780601f106107d657610100808354040283529160200191610801565b820191906000526020600020905b8154815290600101906020018083116107e457829003601f168201915b5050505050905090565b6000610816826115de565b6004600083815260200190815260200160002060009054906101000a900473ffffffffffffffffffffffffffffffffffffffff169050919050565b600061085c82610c99565b90508073ffffffffffffffffffffffffffffffffffffffff168373ffffffffffffffffffffffffffffffffffffffff16036108cc576040517f08c379a00000000000000000000000000000000000000000000000000000000081526004016108c390612d39565b60405180910390fd5b8073ffffffffffffffffffffffffffffffffffffffff166108eb6115d6565b73ffffffffffffffffffffffffffffffffffffffff16148061091a5750610919816109146115d6565b6110e8565b5b610959576040517f08c379a000000000000000000000000000000000000000000000000000000000815260040161095090612dcb565b60405180910390fd5b6109638383611629565b505050565b80600081116109a3576040517feff555a100000000000000000000000000000000000000000000000000000000815260040160405180910390fd5b600860009054906101000a900473ffffffffffffffffffffffffffffffffffffffff1673ffffffffffffffffffffffffffffffffffffffff163373ffffffffffffffffffffffffffffffffffffffff1614610a2a576040517f280e725300000000000000000000000000000000000000000000000000000000815260040160405180910390fd5b600082905060005b81811015610a9b57610a8887878080601f016020809104026020016040519081016040528093929190818152602001838380828437600081840152601f19601f820116905080830192505050505050508661053c565b8080610a9390612b4e565b915050610a32565b50505050505050565b6000600860009054906101000a900473ffffffffffffffffffffffffffffffffffffffff16905090565b610adf610ad96115d6565b826116e2565b610b1e576040517f08c379a0000000000000000000000000000000000000000000000000000000008152600401610b1590612e5d565b60405180910390fd5b610b29838383611777565b505050565b610b4983838360405180602001604052806000815250610f6a565b505050565b8060008111610b89576040517feff555a100000000000000000000000000000000000000000000000000000000815260040160405180910390fd5b600860009054906101000a900473ffffffffffffffffffffffffffffffffffffffff1673ffffffffffffffffffffffffffffffffffffffff163373ffffffffffffffffffffffffffffffffffffffff1614610c10576040517f280e725300000000000000000000000000000000000000000000000000000000815260040160405180910390fd5b600082905060005b81811015610c90576000610c7088888080601f016020809104026020016040519081016040528093929190818152602001838380828437600081840152601f19601f82011690508083019250505050505050836119dd565b9050610c7c818761053c565b508080610c8890612b4e565b915050610c18565b50505050505050565b6000806002600084815260200190815260200160002060009054906101000a900473ffffffffffffffffffffffffffffffffffffffff169050600073ffffffffffffffffffffffffffffffffffffffff168173ffffffffffffffffffffffffffffffffffffffff1603610d41576040517f08c379a0000000000000000000000000000000000000000000000000000000008152600401610d3890612ec9565b60405180910390fd5b80915050919050565b60008073ffffffffffffffffffffffffffffffffffffffff168273ffffffffffffffffffffffffffffffffffffffff1603610dba576040517f08c379a0000000000000000000000000000000000000000000000000000000008152600401610db190612f5b565b60405180910390fd5b600360008373ffffffffffffffffffffffffffffffffffffffff1673ffffffffffffffffffffffffffffffffffffffff168152602001908152602001600020549050919050565b6000600a54905090565b600760009054906101000a900473ffffffffffffffffffffffffffffffffffffffff1681565b606060018054610e4090612c96565b80601f0160208091040260200160405190810160405280929190818152602001828054610e6c90612c96565b8015610eb95780601f10610e8e57610100808354040283529160200191610eb9565b820191906000526020600020905b815481529060010190602001808311610e9c57829003601f168201915b5050505050905090565b610ed5610ece6115d6565b8383611a55565b5050565b600860009054906101000a900473ffffffffffffffffffffffffffffffffffffffff1673ffffffffffffffffffffffffffffffffffffffff163373ffffffffffffffffffffffffffffffffffffffff1614610f60576040517f280e725300000000000000000000000000000000000000000000000000000000815260040160405180910390fd5b80600a8190555050565b610f7b610f756115d6565b836116e2565b610fba576040517f08c379a0000000000000000000000000000000000000000000000000000000008152600401610fb190612e5d565b60405180910390fd5b610fc684848484611bc1565b50505050565b6000600954905090565b6060610fe1826115de565b600060066000848152602001908152602001600020805461100190612c96565b80601f016020809104026020016040519081016040528092919081815260200182805461102d90612c96565b801561107a5780601f1061104f5761010080835404028352916020019161107a565b820191906000526020600020905b81548152906001019060200180831161105d57829003601f168201915b50505050509050600061108b611c1d565b905060008151036110a05781925050506110e3565b6000825111156110d55780826040516020016110bd929190612f7b565b604051602081830303815290604052925050506110e3565b6110de84611c34565b925050505b919050565b6000600560008473ffffffffffffffffffffffffffffffffffffffff1673ffffffffffffffffffffffffffffffffffffffff16815260200190815260200160002060008373ffffffffffffffffffffffffffffffffffffffff1673ffffffffffffffffffffffffffffffffffffffff16815260200190815260200160002060009054906101000a900460ff16905092915050565b80600081116111b7576040517feff555a100000000000000000000000000000000000000000000000000000000815260040160405180910390fd5b600860009054906101000a900473ffffffffffffffffffffffffffffffffffffffff1673ffffffffffffffffffffffffffffffffffffffff163373ffffffffffffffffffffffffffffffffffffffff161461123e576040517f280e725300000000000000000000000000000000000000000000000000000000815260040160405180910390fd5b81858590501461127a576040517f0e0b3b8300000000000000000000000000000000000000000000000000000000815260040160405180910390fd5b600082905060005b8181101561130e576112fb8787838181106112a05761129f612f9f565b5b90506020028101906112b29190612fdd565b8080601f016020809104026020016040519081016040528093929190818152602001838380828437600081840152601f19601f820116905080830192505050505050508661053c565b808061130690612b4e565b915050611282565b50505050505050565b600860009054906101000a900473ffffffffffffffffffffffffffffffffffffffff1673ffffffffffffffffffffffffffffffffffffffff163373ffffffffffffffffffffffffffffffffffffffff161461139e576040517f280e725300000000000000000000000000000000000000000000000000000000815260040160405180910390fd5b8073ffffffffffffffffffffffffffffffffffffffff16600860009054906101000a900473ffffffffffffffffffffffffffffffffffffffff1673ffffffffffffffffffffffffffffffffffffffff160361142e576040517f08c379a00000000000000000000000000000000000000000000000000000000081526004016114259061308c565b60405180910390fd5b600073ffffffffffffffffffffffffffffffffffffffff168173ffffffffffffffffffffffffffffffffffffffff160361149d576040517f08c379a0000000000000000000000000000000000000000000000000000000008152600401611494906130f8565b60405180910390fd5b80600860006101000a81548173ffffffffffffffffffffffffffffffffffffffff021916908373ffffffffffffffffffffffffffffffffffffffff16021790555050565b60007f01ffc9a7000000000000000000000000000000000000000000000000000000007bffffffffffffffffffffffffffffffffffffffffffffffffffffffff1916827bffffffffffffffffffffffffffffffffffffffffffffffffffffffff1916149050919050565b611565828260405180602001604052806000815250611c9c565b5050565b61157282611cf7565b6115b1576040517f08c379a00000000000000000000000000000000000000000000000000000000081526004016115a89061318a565b60405180910390fd5b806006600084815260200190815260200160002090816115d1919061334c565b505050565b600033905090565b6115e781611cf7565b611626576040517f08c379a000000000000000000000000000000000000000000000000000000000815260040161161d90612ec9565b60405180910390fd5b50565b816004600083815260200190815260200160002060006101000a81548173ffffffffffffffffffffffffffffffffffffffff021916908373ffffffffffffffffffffffffffffffffffffffff160217905550808273ffffffffffffffffffffffffffffffffffffffff1661169c83610c99565b73ffffffffffffffffffffffffffffffffffffffff167f8c5be1e5ebec7d5bd14f71427d1e84f3dd0314c0f7b2291e5b200ac8c7c3b92560405160405180910390a45050565b6000806116ee83610c99565b90508073ffffffffffffffffffffffffffffffffffffffff168473ffffffffffffffffffffffffffffffffffffffff161480611730575061172f81856110e8565b5b8061176e57508373ffffffffffffffffffffffffffffffffffffffff166117568461080b565b73ffffffffffffffffffffffffffffffffffffffff16145b91505092915050565b8273ffffffffffffffffffffffffffffffffffffffff1661179782610c99565b73ffffffffffffffffffffffffffffffffffffffff16146117ed576040517f08c379a00000000000000000000000000000000000000000000000000000000081526004016117e490613490565b60405180910390fd5b600073ffffffffffffffffffffffffffffffffffffffff168273ffffffffffffffffffffffffffffffffffffffff160361185c576040517f08c379a000000000000000000000000000000000000000000000000000000000815260040161185390613522565b60405180910390fd5b611867838383611d63565b611872600082611629565b6001600360008573ffffffffffffffffffffffffffffffffffffffff1673ffffffffffffffffffffffffffffffffffffffff16815260200190815260200160002060008282546118c29190613542565b925050819055506001600360008473ffffffffffffffffffffffffffffffffffffffff1673ffffffffffffffffffffffffffffffffffffffff16815260200190815260200160002060008282546119199190613576565b92505081905550816002600083815260200190815260200160002060006101000a81548173ffffffffffffffffffffffffffffffffffffffff021916908373ffffffffffffffffffffffffffffffffffffffff160217905550808273ffffffffffffffffffffffffffffffffffffffff168473ffffffffffffffffffffffffffffffffffffffff167fddf252ad1be2c89b69c2b068fc378daa952ba7f163c4a11628f55a4df523b3ef60405160405180910390a46119d8838383611d68565b505050565b60606000835111611a23576040517f08c379a0000000000000000000000000000000000000000000000000000000008152600401611a1a906135f6565b60405180910390fd5b82611a2d83611d6d565b604051602001611a3e929190612f7b565b604051602081830303815290604052905092915050565b8173ffffffffffffffffffffffffffffffffffffffff168373ffffffffffffffffffffffffffffffffffffffff1603611ac3576040517f08c379a0000000000000000000000000000000000000000000000000000000008152600401611aba90613662565b60405180910390fd5b80600560008573ffffffffffffffffffffffffffffffffffffffff1673ffffffffffffffffffffffffffffffffffffffff16815260200190815260200160002060008473ffffffffffffffffffffffffffffffffffffffff1673ffffffffffffffffffffffffffffffffffffffff16815260200190815260200160002060006101000a81548160ff0219169083151502179055508173ffffffffffffffffffffffffffffffffffffffff168373ffffffffffffffffffffffffffffffffffffffff167f17307eab39ab6107e8899845ad3d59bd9653f200f220920489ca2b5937696c3183604051611bb49190612304565b60405180910390a3505050565b611bcc848484611777565b611bd884848484611ecd565b611c17576040517f08c379a0000000000000000000000000000000000000000000000000000000008152600401611c0e906136f4565b60405180910390fd5b50505050565b606060405180602001604052806000815250905090565b6060611c3f826115de565b6000611c49611c1d565b90506000815111611c695760405180602001604052806000815250611c94565b80611c7384611d6d565b604051602001611c84929190612f7b565b6040516020818303038152906040525b915050919050565b611ca68383612054565b611cb36000848484611ecd565b611cf2576040517f08c379a0000000000000000000000000000000000000000000000000000000008152600401611ce9906136f4565b60405180910390fd5b505050565b60008073ffffffffffffffffffffffffffffffffffffffff166002600084815260200190815260200160002060009054906101000a900473ffffffffffffffffffffffffffffffffffffffff1673ffffffffffffffffffffffffffffffffffffffff1614159050919050565b505050565b505050565b606060008203611db4576040518060400160405280600181526020017f30000000000000000000000000000000000000000000000000000000000000008152509050611ec8565b600082905060005b60008214611de6578080611dcf90612b4e565b915050600a82611ddf9190613743565b9150611dbc565b60008167ffffffffffffffff811115611e0257611e0161233a565b5b6040519080825280601f01601f191660200182016040528015611e345781602001600182028036833780820191505090505b5090505b60008514611ec157600182611e4d9190613542565b9150600a85611e5c9190613774565b6030611e689190613576565b60f81b818381518110611e7e57611e7d612f9f565b5b60200101907effffffffffffffffffffffffffffffffffffffffffffffffffffffffffffff1916908160001a905350600a85611eba9190613743565b9450611e38565b8093505050505b919050565b6000611eee8473ffffffffffffffffffffffffffffffffffffffff1661222d565b15612047578373ffffffffffffffffffffffffffffffffffffffff1663150b7a02611f176115d6565b8786866040518563ffffffff1660e01b8152600401611f3994939291906137fa565b6020604051808303816000875af1925050508015611f7557506040513d601f19601f82011682018060405250810190611f72919061385b565b60015b611ff7573d8060008114611fa5576040519150601f19603f3d011682016040523d82523d6000602084013e611faa565b606091505b506000815103611fef576040517f08c379a0000000000000000000000000000000000000000000000000000000008152600401611fe6906136f4565b60405180910390fd5b805181602001fd5b63150b7a0260e01b7bffffffffffffffffffffffffffffffffffffffffffffffffffffffff1916817bffffffffffffffffffffffffffffffffffffffffffffffffffffffff19161491505061204c565b600190505b949350505050565b600073ffffffffffffffffffffffffffffffffffffffff168273ffffffffffffffffffffffffffffffffffffffff16036120c3576040517f08c379a00000000000000000000000000000000000000000000000000000000081526004016120ba906138d4565b60405180910390fd5b6120cc81611cf7565b1561210c576040517f08c379a000000000000000000000000000000000000000000000000000000000815260040161210390613940565b60405180910390fd5b61211860008383611d63565b6001600360008473ffffffffffffffffffffffffffffffffffffffff1673ffffffffffffffffffffffffffffffffffffffff16815260200190815260200160002060008282546121689190613576565b92505081905550816002600083815260200190815260200160002060006101000a81548173ffffffffffffffffffffffffffffffffffffffff021916908373ffffffffffffffffffffffffffffffffffffffff160217905550808273ffffffffffffffffffffffffffffffffffffffff16600073ffffffffffffffffffffffffffffffffffffffff167fddf252ad1be2c89b69c2b068fc378daa952ba7f163c4a11628f55a4df523b3ef60405160405180910390a461222960008383611d68565b5050565b6000808273ffffffffffffffffffffffffffffffffffffffff163b119050919050565b6000604051905090565b600080fd5b600080fd5b60007fffffffff0000000000000000000000000000000000000000000000000000000082169050919050565b61229981612264565b81146122a457600080fd5b50565b6000813590506122b681612290565b92915050565b6000602082840312156122d2576122d161225a565b5b60006122e0848285016122a7565b91505092915050565b60008115159050919050565b6122fe816122e9565b82525050565b600060208201905061231960008301846122f5565b92915050565b600080fd5b600080fd5b6000601f19601f8301169050919050565b7f4e487b7100000000000000000000000000000000000000000000000000000000600052604160045260246000fd5b61237282612329565b810181811067ffffffffffffffff821117156123915761239061233a565b5b80604052505050565b60006123a4612250565b90506123b08282612369565b919050565b600067ffffffffffffffff8211156123d0576123cf61233a565b5b6123d982612329565b9050602081019050919050565b82818337600083830152505050565b6000612408612403846123b5565b61239a565b90508281526020810184848401111561242457612423612324565b5b61242f8482856123e6565b509392505050565b600082601f83011261244c5761244b61231f565b5b813561245c8482602086016123f5565b91505092915050565b6000819050919050565b61247881612465565b811461248357600080fd5b50565b6000813590506124958161246f565b92915050565b600080604083850312156124b2576124b161225a565b5b600083013567ffffffffffffffff8111156124d0576124cf61225f565b5b6124dc85828601612437565b92505060206124ed85828601612486565b9150509250929050565b600081519050919050565b600082825260208201905092915050565b60005b83811015612531578082015181840152602081019050612516565b60008484015250505050565b6000612548826124f7565b6125528185612502565b9350612562818560208601612513565b61256b81612329565b840191505092915050565b60006020820190508181036000830152612590818461253d565b905092915050565b6000602082840312156125ae576125ad61225a565b5b60006125bc84828501612486565b91505092915050565b600073ffffffffffffffffffffffffffffffffffffffff82169050919050565b60006125f0826125c5565b9050919050565b612600816125e5565b82525050565b600060208201905061261b60008301846125f7565b92915050565b61262a816125e5565b811461263557600080fd5b50565b60008135905061264781612621565b92915050565b600080604083850312156126645761266361225a565b5b600061267285828601612638565b925050602061268385828601612486565b9150509250929050565b600080fd5b600080fd5b60008083601f8401126126ad576126ac61231f565b5b8235905067ffffffffffffffff8111156126ca576126c961268d565b5b6020830191508360018202830111156126e6576126e5612692565b5b9250929050565b600080600080606085870312156127075761270661225a565b5b600085013567ffffffffffffffff8111156127255761272461225f565b5b61273187828801612697565b9450945050602061274487828801612486565b925050604061275587828801612486565b91505092959194509250565b60008060006060848603121561277a5761277961225a565b5b600061278886828701612638565b935050602061279986828701612638565b92505060406127aa86828701612486565b9150509250925092565b6000602082840312156127ca576127c961225a565b5b60006127d884828501612638565b91505092915050565b6127ea81612465565b82525050565b600060208201905061280560008301846127e1565b92915050565b6000819050919050565b600061283061282b612826846125c5565b61280b565b6125c5565b9050919050565b600061284282612815565b9050919050565b600061285482612837565b9050919050565b61286481612849565b82525050565b600060208201905061287f600083018461285b565b92915050565b61288e816122e9565b811461289957600080fd5b50565b6000813590506128ab81612885565b92915050565b600080604083850312156128c8576128c761225a565b5b60006128d685828601612638565b92505060206128e78582860161289c565b9150509250929050565b600067ffffffffffffffff82111561290c5761290b61233a565b5b61291582612329565b9050602081019050919050565b6000612935612930846128f1565b61239a565b90508281526020810184848401111561295157612950612324565b5b61295c8482856123e6565b509392505050565b600082601f8301126129795761297861231f565b5b8135612989848260208601612922565b91505092915050565b600080600080608085870312156129ac576129ab61225a565b5b60006129ba87828801612638565b94505060206129cb87828801612638565b93505060406129dc87828801612486565b925050606085013567ffffffffffffffff8111156129fd576129fc61225f565b5b612a0987828801612964565b91505092959194509250565b60008060408385031215612a2c57612a2b61225a565b5b6000612a3a85828601612638565b9250506020612a4b85828601612638565b9150509250929050565b60008083601f840112612a6b57612a6a61231f565b5b8235905067ffffffffffffffff811115612a8857612a8761268d565b5b602083019150836020820283011115612aa457612aa3612692565b5b9250929050565b60008060008060608587031215612ac557612ac461225a565b5b600085013567ffffffffffffffff811115612ae357612ae261225f565b5b612aef87828801612a55565b94509450506020612b0287828801612486565b9250506040612b1387828801612486565b91505092959194509250565b7f4e487b7100000000000000000000000000000000000000000000000000000000600052601160045260246000fd5b6000612b5982612465565b91507fffffffffffffffffffffffffffffffffffffffffffffffffffffffffffffffff8203612b8b57612b8a612b1f565b5b600182019050919050565b50565b6000612ba6600083612502565b9150612bb182612b96565b600082019050919050565b600060a082019050612bd160008301876125f7565b612bde60208301866127e1565b612beb60408301856127e1565b612bf860608301846125f7565b8181036080830152612c0981612b99565b905095945050505050565b600081905092915050565b6000612c2a826124f7565b612c348185612c14565b9350612c44818560208601612513565b80840191505092915050565b6000612c5c8284612c1f565b915081905092915050565b7f4e487b7100000000000000000000000000000000000000000000000000000000600052602260045260246000fd5b60006002820490506001821680612cae57607f821691505b602082108103612cc157612cc0612c67565b5b50919050565b7f4552433732313a20617070726f76616c20746f2063757272656e74206f776e6560008201527f7200000000000000000000000000000000000000000000000000000000000000602082015250565b6000612d23602183612502565b9150612d2e82612cc7565b604082019050919050565b60006020820190508181036000830152612d5281612d16565b9050919050565b7f4552433732313a20617070726f76652063616c6c6572206973206e6f7420746f60008201527f6b656e206f776e6572206e6f7220617070726f76656420666f7220616c6c0000602082015250565b6000612db5603e83612502565b9150612dc082612d59565b604082019050919050565b60006020820190508181036000830152612de481612da8565b9050919050565b7f4552433732313a2063616c6c6572206973206e6f7420746f6b656e206f776e6560008201527f72206e6f7220617070726f766564000000000000000000000000000000000000602082015250565b6000612e47602e83612502565b9150612e5282612deb565b604082019050919050565b60006020820190508181036000830152612e7681612e3a565b9050919050565b7f4552433732313a20696e76616c696420746f6b656e2049440000000000000000600082015250565b6000612eb3601883612502565b9150612ebe82612e7d565b602082019050919050565b60006020820190508181036000830152612ee281612ea6565b9050919050565b7f4552433732313a2061646472657373207a65726f206973206e6f74206120766160008201527f6c6964206f776e65720000000000000000000000000000000000000000000000602082015250565b6000612f45602983612502565b9150612f5082612ee9565b604082019050919050565b60006020820190508181036000830152612f7481612f38565b9050919050565b6000612f878285612c1f565b9150612f938284612c1f565b91508190509392505050565b7f4e487b7100000000000000000000000000000000000000000000000000000000600052603260045260246000fd5b600080fd5b600080fd5b600080fd5b60008083356001602003843603038112612ffa57612ff9612fce565b5b80840192508235915067ffffffffffffffff82111561301c5761301b612fd3565b5b60208301925060018202360383131561303857613037612fd8565b5b509250929050565b7f53616d65206f776e657220616464726573730000000000000000000000000000600082015250565b6000613076601283612502565b915061308182613040565b602082019050919050565b600060208201905081810360008301526130a581613069565b9050919050565b7f496e76616c696420616464726573730000000000000000000000000000000000600082015250565b60006130e2600f83612502565b91506130ed826130ac565b602082019050919050565b60006020820190508181036000830152613111816130d5565b9050919050565b7f45524337323155524953746f726167653a2055524920736574206f66206e6f6e60008201527f6578697374656e7420746f6b656e000000000000000000000000000000000000602082015250565b6000613174602e83612502565b915061317f82613118565b604082019050919050565b600060208201905081810360008301526131a381613167565b9050919050565b60008190508160005260206000209050919050565b60006020601f8301049050919050565b600082821b905092915050565b60006008830261320c7fffffffffffffffffffffffffffffffffffffffffffffffffffffffffffffffff826131cf565b61321686836131cf565b95508019841693508086168417925050509392505050565b600061324961324461323f84612465565b61280b565b612465565b9050919050565b6000819050919050565b6132638361322e565b61327761326f82613250565b8484546131dc565b825550505050565b600090565b61328c61327f565b61329781848461325a565b505050565b5b818110156132bb576132b0600082613284565b60018101905061329d565b5050565b601f821115613300576132d1816131aa565b6132da846131bf565b810160208510156132e9578190505b6132fd6132f5856131bf565b83018261329c565b50505b505050565b600082821c905092915050565b600061332360001984600802613305565b1980831691505092915050565b600061333c8383613312565b9150826002028217905092915050565b613355826124f7565b67ffffffffffffffff81111561336e5761336d61233a565b5b6133788254612c96565b6133838282856132bf565b600060209050601f8311600181146133b657600084156133a4578287015190505b6133ae8582613330565b865550613416565b601f1984166133c4866131aa565b60005b828110156133ec578489015182556001820191506020850194506020810190506133c7565b868310156134095784890151613405601f891682613312565b8355505b6001600288020188555050505b505050505050565b7f4552433732313a207472616e736665722066726f6d20696e636f72726563742060008201527f6f776e6572000000000000000000000000000000000000000000000000000000602082015250565b600061347a602583612502565b91506134858261341e565b604082019050919050565b600060208201905081810360008301526134a98161346d565b9050919050565b7f4552433732313a207472616e7366657220746f20746865207a65726f2061646460008201527f7265737300000000000000000000000000000000000000000000000000000000602082015250565b600061350c602483612502565b9150613517826134b0565b604082019050919050565b6000602082019050818103600083015261353b816134ff565b9050919050565b600061354d82612465565b915061355883612465565b92508282039050818111156135705761356f612b1f565b5b92915050565b600061358182612465565b915061358c83612465565b92508282019050808211156135a4576135a3612b1f565b5b92915050565b7f496e76616c696420626173652055524900000000000000000000000000000000600082015250565b60006135e0601083612502565b91506135eb826135aa565b602082019050919050565b6000602082019050818103600083015261360f816135d3565b9050919050565b7f4552433732313a20617070726f766520746f2063616c6c657200000000000000600082015250565b600061364c601983612502565b915061365782613616565b602082019050919050565b6000602082019050818103600083015261367b8161363f565b9050919050565b7f4552433732313a207472616e7366657220746f206e6f6e20455243373231526560008201527f63656976657220696d706c656d656e7465720000000000000000000000000000602082015250565b60006136de603283612502565b91506136e982613682565b604082019050919050565b6000602082019050818103600083015261370d816136d1565b9050919050565b7f4e487b7100000000000000000000000000000000000000000000000000000000600052601260045260246000fd5b600061374e82612465565b915061375983612465565b92508261376957613768613714565b5b828204905092915050565b600061377f82612465565b915061378a83612465565b92508261379a57613799613714565b5b828206905092915050565b600081519050919050565b600082825260208201905092915050565b60006137cc826137a5565b6137d681856137b0565b93506137e6818560208601612513565b6137ef81612329565b840191505092915050565b600060808201905061380f60008301876125f7565b61381c60208301866125f7565b61382960408301856127e1565b818103606083015261383b81846137c1565b905095945050505050565b60008151905061385581612290565b92915050565b6000602082840312156138715761387061225a565b5b600061387f84828501613846565b91505092915050565b7f4552433732313a206d696e7420746f20746865207a65726f2061646472657373600082015250565b60006138be602083612502565b91506138c982613888565b602082019050919050565b600060208201905081810360008301526138ed816138b1565b9050919050565b7f4552433732313a20746f6b656e20616c7265616479206d696e74656400000000600082015250565b600061392a601c83612502565b9150613935826138f4565b602082019050919050565b600060208201905081810360008301526139598161391d565b905091905056fea26469706673582212205350ee6876788091471debf5f35ed77d8b28739fdcb9e78ce60224518179ff2364736f6c63430008110033",
  "linkReferences": {},
  "deployedLinkReferences": {}
}