{
  "_format": "hh-sol-artifact-1",
  "contractName": "CreatorNFT",
  "sourceName": "contracts/CreatorNFT.sol",
  "abi": [
    {
      "inputs": [
        {
          "internalType": "address",
          "name": "_owner",
          "type": "address"
        },
        {
          "internalType": "address",
          "name": "_marketplaceAddress",
          "type": "address"
        },
        {
          "internalType": "string",
          "name": "_name",
          "type": "string"
        },
        {
          "internalType": "string",
          "name": "_symbol",
          "type": "string"
        }
      ],
      "stateMutability": "nonpayable",
      "type": "constructor"
    },
    {
      "inputs": [],
      "name": "CreatorNFT__InvalidMintAmount",
      "type": "error"
    },
    {
      "inputs": [],
      "name": "CreatorNFT__InvalidOwner",
      "type": "error"
    },
    {
      "inputs": [],
      "name": "CreatorNFT__InvalidParams",
      "type": "error"
    },
    {
      "inputs": [],
      "name": "CreatorNFT__InvalidPrice",
      "type": "error"
    },
    {
      "anonymous": false,
      "inputs": [
        {
          "indexed": true,
          "internalType": "address",
          "name": "owner",
          "type": "address"
        },
        {
          "indexed": true,
          "internalType": "address",
          "name": "approved",
          "type": "address"
        },
        {
          "indexed": true,
          "internalType": "uint256",
          "name": "tokenId",
          "type": "uint256"
        }
      ],
      "name": "Approval",
      "type": "event"
    },
    {
      "anonymous": false,
      "inputs": [
        {
          "indexed": true,
          "internalType": "address",
          "name": "owner",
          "type": "address"
        },
        {
          "indexed": true,
          "internalType": "address",
          "name": "operator",
          "type": "address"
        },
        {
          "indexed": false,
          "internalType": "bool",
          "name": "approved",
          "type": "bool"
        }
      ],
      "name": "ApprovalForAll",
      "type": "event"
    },
    {
      "anonymous": false,
      "inputs": [
        {
          "indexed": true,
          "internalType": "uint256",
          "name": "tokenId",
          "type": "uint256"
        },
        {
          "indexed": true,
          "internalType": "string",
          "name": "tokenUri",
          "type": "string"
        }
      ],
      "name": "Minted",
      "type": "event"
    },
    {
      "anonymous": false,
      "inputs": [
        {
          "indexed": true,
          "internalType": "address",
          "name": "from",
          "type": "address"
        },
        {
          "indexed": true,
          "internalType": "address",
          "name": "to",
          "type": "address"
        },
        {
          "indexed": true,
          "internalType": "uint256",
          "name": "tokenId",
          "type": "uint256"
        }
      ],
      "name": "Transfer",
      "type": "event"
    },
    {
      "inputs": [
        {
          "internalType": "address",
          "name": "to",
          "type": "address"
        },
        {
          "internalType": "uint256",
          "name": "tokenId",
          "type": "uint256"
        }
      ],
      "name": "approve",
      "outputs": [],
      "stateMutability": "nonpayable",
      "type": "function"
    },
    {
      "inputs": [
        {
          "internalType": "address",
          "name": "owner",
          "type": "address"
        }
      ],
      "name": "balanceOf",
      "outputs": [
        {
          "internalType": "uint256",
          "name": "",
          "type": "uint256"
        }
      ],
      "stateMutability": "view",
      "type": "function"
    },
    {
      "inputs": [
        {
          "internalType": "string[]",
          "name": "_tokenUri",
          "type": "string[]"
        },
        {
          "internalType": "uint256",
          "name": "_price",
          "type": "uint256"
        },
        {
          "internalType": "uint256",
          "name": "_amount",
          "type": "uint256"
        },
        {
          "internalType": "enum IHelper.PayType",
          "name": "_payType",
          "type": "uint8"
        }
      ],
      "name": "batchDNMint",
      "outputs": [],
      "stateMutability": "nonpayable",
      "type": "function"
    },
    {
      "inputs": [
        {
          "internalType": "string",
          "name": "_baseTokenUri",
          "type": "string"
        },
        {
          "internalType": "uint256",
          "name": "_price",
          "type": "uint256"
        },
        {
          "internalType": "uint256",
          "name": "_amount",
          "type": "uint256"
        },
        {
          "internalType": "enum IHelper.PayType",
          "name": "_payType",
          "type": "uint8"
        }
      ],
      "name": "batchIDMint",
      "outputs": [],
      "stateMutability": "nonpayable",
      "type": "function"
    },
    {
      "inputs": [
        {
          "internalType": "string",
          "name": "_tokenUri",
          "type": "string"
        },
        {
          "internalType": "uint256",
          "name": "_price",
          "type": "uint256"
        },
        {
          "internalType": "uint256",
          "name": "_amount",
          "type": "uint256"
        },
        {
          "internalType": "enum IHelper.PayType",
          "name": "_payType",
          "type": "uint8"
        }
      ],
      "name": "batchSNMint",
      "outputs": [],
      "stateMutability": "nonpayable",
      "type": "function"
    },
    {
      "inputs": [
        {
          "internalType": "uint256",
          "name": "tokenId",
          "type": "uint256"
        }
      ],
      "name": "getApproved",
      "outputs": [
        {
          "internalType": "address",
          "name": "",
          "type": "address"
        }
      ],
      "stateMutability": "view",
      "type": "function"
    },
    {
      "inputs": [],
      "name": "getCreator",
      "outputs": [
        {
          "internalType": "address",
          "name": "",
          "type": "address"
        }
      ],
      "stateMutability": "view",
      "type": "function"
    },
    {
      "inputs": [],
      "name": "getRoyaltyFeePercentage",
      "outputs": [
        {
          "internalType": "uint256",
          "name": "royalty",
          "type": "uint256"
        }
      ],
      "stateMutability": "view",
      "type": "function"
    },
    {
      "inputs": [],
      "name": "getTotalSupply",
      "outputs": [
        {
          "internalType": "uint256",
          "name": "",
          "type": "uint256"
        }
      ],
      "stateMutability": "view",
      "type": "function"
    },
    {
      "inputs": [
        {
          "internalType": "address",
          "name": "owner",
          "type": "address"
        },
        {
          "internalType": "address",
          "name": "operator",
          "type": "address"
        }
      ],
      "name": "isApprovedForAll",
      "outputs": [
        {
          "internalType": "bool",
          "name": "",
          "type": "bool"
        }
      ],
      "stateMutability": "view",
      "type": "function"
    },
    {
      "inputs": [
        {
          "internalType": "string",
          "name": "_tokenUri",
          "type": "string"
        },
        {
          "internalType": "uint256",
          "name": "price",
          "type": "uint256"
        },
        {
          "internalType": "enum IHelper.PayType",
          "name": "_payType",
          "type": "uint8"
        }
      ],
      "name": "mint",
      "outputs": [],
      "stateMutability": "nonpayable",
      "type": "function"
    },
    {
      "inputs": [],
      "name": "name",
      "outputs": [
        {
          "internalType": "string",
          "name": "",
          "type": "string"
        }
      ],
      "stateMutability": "view",
      "type": "function"
    },
    {
      "inputs": [],
      "name": "nichonftMarketplaceContract",
      "outputs": [
        {
          "internalType": "contract INichoNFTMarketplace",
          "name": "",
          "type": "address"
        }
      ],
      "stateMutability": "view",
      "type": "function"
    },
    {
      "inputs": [
        {
          "internalType": "uint256",
          "name": "tokenId",
          "type": "uint256"
        }
      ],
      "name": "ownerOf",
      "outputs": [
        {
          "internalType": "address",
          "name": "",
          "type": "address"
        }
      ],
      "stateMutability": "view",
      "type": "function"
    },
    {
      "inputs": [
        {
          "internalType": "address",
          "name": "from",
          "type": "address"
        },
        {
          "internalType": "address",
          "name": "to",
          "type": "address"
        },
        {
          "internalType": "uint256",
          "name": "tokenId",
          "type": "uint256"
        }
      ],
      "name": "safeTransferFrom",
      "outputs": [],
      "stateMutability": "nonpayable",
      "type": "function"
    },
    {
      "inputs": [
        {
          "internalType": "address",
          "name": "from",
          "type": "address"
        },
        {
          "internalType": "address",
          "name": "to",
          "type": "address"
        },
        {
          "internalType": "uint256",
          "name": "tokenId",
          "type": "uint256"
        },
        {
          "internalType": "bytes",
          "name": "data",
          "type": "bytes"
        }
      ],
      "name": "safeTransferFrom",
      "outputs": [],
      "stateMutability": "nonpayable",
      "type": "function"
    },
    {
      "inputs": [
        {
          "internalType": "address",
          "name": "operator",
          "type": "address"
        },
        {
          "internalType": "bool",
          "name": "approved",
          "type": "bool"
        }
      ],
      "name": "setApprovalForAll",
      "outputs": [],
      "stateMutability": "nonpayable",
      "type": "function"
    },
    {
      "inputs": [
        {
          "internalType": "uint256",
          "name": "_royaltyFee",
          "type": "uint256"
        }
      ],
      "name": "setRoyaltyFeePercentage",
      "outputs": [],
      "stateMutability": "nonpayable",
      "type": "function"
    },
    {
      "inputs": [
        {
          "internalType": "bytes4",
          "name": "interfaceId",
          "type": "bytes4"
        }
      ],
      "name": "supportsInterface",
      "outputs": [
        {
          "internalType": "bool",
          "name": "",
          "type": "bool"
        }
      ],
      "stateMutability": "view",
      "type": "function"
    },
    {
      "inputs": [],
      "name": "symbol",
      "outputs": [
        {
          "internalType": "string",
          "name": "",
          "type": "string"
        }
      ],
      "stateMutability": "view",
      "type": "function"
    },
    {
      "inputs": [
        {
          "internalType": "uint256",
          "name": "tokenId",
          "type": "uint256"
        }
      ],
      "name": "tokenURI",
      "outputs": [
        {
          "internalType": "string",
          "name": "",
          "type": "string"
        }
      ],
      "stateMutability": "view",
      "type": "function"
    },
    {
      "inputs": [
        {
          "internalType": "address",
          "name": "from",
          "type": "address"
        },
        {
          "internalType": "address",
          "name": "to",
          "type": "address"
        },
        {
          "internalType": "uint256",
          "name": "tokenId",
          "type": "uint256"
        }
      ],
      "name": "transferFrom",
      "outputs": [],
      "stateMutability": "nonpayable",
      "type": "function"
    },
    {
      "inputs": [
        {
          "internalType": "address",
          "name": "_owner",
          "type": "address"
        }
      ],
      "name": "transferOwnership",
      "outputs": [],
      "stateMutability": "nonpayable",
      "type": "function"
    }
  ],
  "bytecode": "0x60806040523480156200001157600080fd5b50604051620041f3380380620041f38339818101604052810190620000379190620002e3565b818181600090816200004a9190620005de565b5080600190816200005c9190620005de565b50505083600860006101000a81548173ffffffffffffffffffffffffffffffffffffffff021916908373ffffffffffffffffffffffffffffffffffffffff16021790555082600760006101000a81548173ffffffffffffffffffffffffffffffffffffffff021916908373ffffffffffffffffffffffffffffffffffffffff16021790555050505050620006c5565b6000604051905090565b600080fd5b600080fd5b600073ffffffffffffffffffffffffffffffffffffffff82169050919050565b60006200012c82620000ff565b9050919050565b6200013e816200011f565b81146200014a57600080fd5b50565b6000815190506200015e8162000133565b92915050565b600080fd5b600080fd5b6000601f19601f8301169050919050565b7f4e487b7100000000000000000000000000000000000000000000000000000000600052604160045260246000fd5b620001b9826200016e565b810181811067ffffffffffffffff82111715620001db57620001da6200017f565b5b80604052505050565b6000620001f0620000eb565b9050620001fe8282620001ae565b919050565b600067ffffffffffffffff8211156200022157620002206200017f565b5b6200022c826200016e565b9050602081019050919050565b60005b83811015620002595780820151818401526020810190506200023c565b60008484015250505050565b60006200027c620002768462000203565b620001e4565b9050828152602081018484840111156200029b576200029a62000169565b5b620002a884828562000239565b509392505050565b600082601f830112620002c857620002c762000164565b5b8151620002da84826020860162000265565b91505092915050565b600080600080608085870312156200030057620002ff620000f5565b5b600062000310878288016200014d565b945050602062000323878288016200014d565b935050604085015167ffffffffffffffff811115620003475762000346620000fa565b5b6200035587828801620002b0565b925050606085015167ffffffffffffffff811115620003795762000378620000fa565b5b6200038787828801620002b0565b91505092959194509250565b600081519050919050565b7f4e487b7100000000000000000000000000000000000000000000000000000000600052602260045260246000fd5b60006002820490506001821680620003e657607f821691505b602082108103620003fc57620003fb6200039e565b5b50919050565b60008190508160005260206000209050919050565b60006020601f8301049050919050565b600082821b905092915050565b600060088302620004667fffffffffffffffffffffffffffffffffffffffffffffffffffffffffffffffff8262000427565b62000472868362000427565b95508019841693508086168417925050509392505050565b6000819050919050565b6000819050919050565b6000620004bf620004b9620004b3846200048a565b62000494565b6200048a565b9050919050565b6000819050919050565b620004db836200049e565b620004f3620004ea82620004c6565b84845462000434565b825550505050565b600090565b6200050a620004fb565b62000517818484620004d0565b505050565b5b818110156200053f576200053360008262000500565b6001810190506200051d565b5050565b601f8211156200058e57620005588162000402565b620005638462000417565b8101602085101562000573578190505b6200058b620005828562000417565b8301826200051c565b50505b505050565b600082821c905092915050565b6000620005b36000198460080262000593565b1980831691505092915050565b6000620005ce8383620005a0565b9150826002028217905092915050565b620005e98262000393565b67ffffffffffffffff8111156200060557620006046200017f565b5b620006118254620003cd565b6200061e82828562000543565b600060209050601f83116001811462000656576000841562000641578287015190505b6200064d8582620005c0565b865550620006bd565b601f198416620006668662000402565b60005b82811015620006905784890151825560018201915060208501945060208101905062000669565b86831015620006b05784890151620006ac601f891682620005a0565b8355505b6001600288020188555050505b505050505050565b613b1e80620006d56000396000f3fe608060405234801561001057600080fd5b506004361061014d5760003560e01c80638168fe86116100c3578063b88d4fde1161007c578063b88d4fde14610388578063c4e41b22146103a4578063c87b56dd146103c2578063e985e9c5146103f2578063ebadc51514610422578063f2fde38b1461043e5761014d565b80638168fe86146102dc578063842236a4146102f857806395d89b41146103165780639f51bd0514610334578063a22cb46514610350578063b3c60c731461036c5761014d565b806323b872dd1161011557806323b872dd1461020a57806342842e0e14610226578063612b9049146102425780636352211e1461025e57806370a082311461028e5780637a4804af146102be5761014d565b806301ffc9a71461015257806306fdde0314610182578063081812fc146101a0578063095ea7b3146101d05780630ee2cb10146101ec575b600080fd5b61016c6004803603810190610167919061232c565b61045a565b6040516101799190612374565b60405180910390f35b61018a61053c565b604051610197919061241f565b60405180910390f35b6101ba60048036038101906101b59190612477565b6105ce565b6040516101c791906124e5565b60405180910390f35b6101ea60048036038101906101e5919061252c565b610614565b005b6101f461072b565b60405161020191906124e5565b60405180910390f35b610224600480360381019061021f919061256c565b610755565b005b610240600480360381019061023b919061256c565b6107b5565b005b61025c60048036038101906102579190612719565b6107d5565b005b61027860048036038101906102739190612477565b610a7c565b60405161028591906124e5565b60405180910390f35b6102a860048036038101906102a39190612788565b610b2d565b6040516102b591906127c4565b60405180910390f35b6102c6610be4565b6040516102d391906127c4565b60405180910390f35b6102f660048036038101906102f1919061283f565b610bee565b005b610300610d3b565b60405161030d9190612926565b60405180910390f35b61031e610d61565b60405161032b919061241f565b60405180910390f35b61034e60048036038101906103499190612997565b610df3565b005b61036a60048036038101906103659190612a4b565b610f90565b005b61038660048036038101906103819190612477565b610fa6565b005b6103a2600480360381019061039d9190612b2c565b611037565b005b6103ac611099565b6040516103b991906127c4565b60405180910390f35b6103dc60048036038101906103d79190612477565b6110a3565b6040516103e9919061241f565b60405180910390f35b61040c60048036038101906104079190612baf565b6111b5565b6040516104199190612374565b60405180910390f35b61043c6004803603810190610437919061283f565b611249565b005b61045860048036038101906104539190612788565b611387565b005b60007f80ac58cd000000000000000000000000000000000000000000000000000000007bffffffffffffffffffffffffffffffffffffffffffffffffffffffff1916827bffffffffffffffffffffffffffffffffffffffffffffffffffffffff1916148061052557507f5b5e139f000000000000000000000000000000000000000000000000000000007bffffffffffffffffffffffffffffffffffffffffffffffffffffffff1916827bffffffffffffffffffffffffffffffffffffffffffffffffffffffff1916145b80610535575061053482611551565b5b9050919050565b60606000805461054b90612c1e565b80601f016020809104026020016040519081016040528092919081815260200182805461057790612c1e565b80156105c45780601f10610599576101008083540402835291602001916105c4565b820191906000526020600020905b8154815290600101906020018083116105a757829003601f168201915b5050505050905090565b60006105d9826115bb565b6004600083815260200190815260200160002060009054906101000a900473ffffffffffffffffffffffffffffffffffffffff169050919050565b600061061f82610a7c565b90508073ffffffffffffffffffffffffffffffffffffffff168373ffffffffffffffffffffffffffffffffffffffff160361068f576040517f08c379a000000000000000000000000000000000000000000000000000000000815260040161068690612cc1565b60405180910390fd5b8073ffffffffffffffffffffffffffffffffffffffff166106ae611606565b73ffffffffffffffffffffffffffffffffffffffff1614806106dd57506106dc816106d7611606565b6111b5565b5b61071c576040517f08c379a000000000000000000000000000000000000000000000000000000000815260040161071390612d53565b60405180910390fd5b610726838361160e565b505050565b6000600860009054906101000a900473ffffffffffffffffffffffffffffffffffffffff16905090565b610766610760611606565b826116c7565b6107a5576040517f08c379a000000000000000000000000000000000000000000000000000000000815260040161079c90612de5565b60405180910390fd5b6107b083838361175c565b505050565b6107d083838360405180602001604052806000815250611037565b505050565b600860009054906101000a900473ffffffffffffffffffffffffffffffffffffffff1673ffffffffffffffffffffffffffffffffffffffff163373ffffffffffffffffffffffffffffffffffffffff161461085c576040517f280e725300000000000000000000000000000000000000000000000000000000815260040160405180910390fd5b8160008111610897576040517f932e58f300000000000000000000000000000000000000000000000000000000815260040160405180910390fd5b600060028111156108ab576108aa612e05565b5b8260028111156108be576108bd612e05565b5b036108fe576040517f08c379a00000000000000000000000000000000000000000000000000000000081526004016108f590612e80565b60405180910390fd5b600060095490506009600081548092919061091890612ecf565b919050555061092733826119c2565b61093181866119e0565b60001515610968610940611606565b600760009054906101000a900473ffffffffffffffffffffffffffffffffffffffff166111b5565b15150361099d5761099c600760009054906101000a900473ffffffffffffffffffffffffffffffffffffffff166001610f90565b5b600760009054906101000a900473ffffffffffffffffffffffffffffffffffffffff1673ffffffffffffffffffffffffffffffffffffffff166301c58a1d30838787336040518663ffffffff1660e01b8152600401610a00959493929190612f5f565b600060405180830381600087803b158015610a1a57600080fd5b505af1158015610a2e573d6000803e3d6000fd5b5050505084604051610a409190612fee565b6040518091039020817fadef11a3979b8ceb0573eb6ef0678134a09c23a0d94e5ea47cd18ac3a9fc019460405160405180910390a35050505050565b6000806002600084815260200190815260200160002060009054906101000a900473ffffffffffffffffffffffffffffffffffffffff169050600073ffffffffffffffffffffffffffffffffffffffff168173ffffffffffffffffffffffffffffffffffffffff1603610b24576040517f08c379a0000000000000000000000000000000000000000000000000000000008152600401610b1b90613051565b60405180910390fd5b80915050919050565b60008073ffffffffffffffffffffffffffffffffffffffff168273ffffffffffffffffffffffffffffffffffffffff1603610b9d576040517f08c379a0000000000000000000000000000000000000000000000000000000008152600401610b94906130e3565b60405180910390fd5b600360008373ffffffffffffffffffffffffffffffffffffffff1673ffffffffffffffffffffffffffffffffffffffff168152602001908152602001600020549050919050565b6000600a54905090565b8160008111610c29576040517feff555a100000000000000000000000000000000000000000000000000000000815260040160405180910390fd5b600860009054906101000a900473ffffffffffffffffffffffffffffffffffffffff1673ffffffffffffffffffffffffffffffffffffffff163373ffffffffffffffffffffffffffffffffffffffff1614610cb0576040517f280e725300000000000000000000000000000000000000000000000000000000815260040160405180910390fd5b600083905060005b81811015610d31576000610d1089898080601f016020809104026020016040519081016040528093929190818152602001838380828437600081840152601f19601f8201169050808301925050505050505083611a4d565b9050610d1d8188876107d5565b508080610d2990612ecf565b915050610cb8565b5050505050505050565b600760009054906101000a900473ffffffffffffffffffffffffffffffffffffffff1681565b606060018054610d7090612c1e565b80601f0160208091040260200160405190810160405280929190818152602001828054610d9c90612c1e565b8015610de95780601f10610dbe57610100808354040283529160200191610de9565b820191906000526020600020905b815481529060010190602001808311610dcc57829003601f168201915b5050505050905090565b8160008111610e2e576040517feff555a100000000000000000000000000000000000000000000000000000000815260040160405180910390fd5b600860009054906101000a900473ffffffffffffffffffffffffffffffffffffffff1673ffffffffffffffffffffffffffffffffffffffff163373ffffffffffffffffffffffffffffffffffffffff1614610eb5576040517f280e725300000000000000000000000000000000000000000000000000000000815260040160405180910390fd5b828686905014610ef1576040517f0e0b3b8300000000000000000000000000000000000000000000000000000000815260040160405180910390fd5b600083905060005b81811015610f8657610f73888883818110610f1757610f16613103565b5b9050602002810190610f299190613141565b8080601f016020809104026020016040519081016040528093929190818152602001838380828437600081840152601f19601f8201169050808301925050505050505087866107d5565b8080610f7e90612ecf565b915050610ef9565b5050505050505050565b610fa2610f9b611606565b8383611ac5565b5050565b600860009054906101000a900473ffffffffffffffffffffffffffffffffffffffff1673ffffffffffffffffffffffffffffffffffffffff163373ffffffffffffffffffffffffffffffffffffffff161461102d576040517f280e725300000000000000000000000000000000000000000000000000000000815260040160405180910390fd5b80600a8190555050565b611048611042611606565b836116c7565b611087576040517f08c379a000000000000000000000000000000000000000000000000000000000815260040161107e90612de5565b60405180910390fd5b61109384848484611c31565b50505050565b6000600954905090565b60606110ae826115bb565b60006006600084815260200190815260200160002080546110ce90612c1e565b80601f01602080910402602001604051908101604052809291908181526020018280546110fa90612c1e565b80156111475780601f1061111c57610100808354040283529160200191611147565b820191906000526020600020905b81548152906001019060200180831161112a57829003601f168201915b505050505090506000611158611c8d565b9050600081510361116d5781925050506111b0565b6000825111156111a257808260405160200161118a9291906131a4565b604051602081830303815290604052925050506111b0565b6111ab84611ca4565b925050505b919050565b6000600560008473ffffffffffffffffffffffffffffffffffffffff1673ffffffffffffffffffffffffffffffffffffffff16815260200190815260200160002060008373ffffffffffffffffffffffffffffffffffffffff1673ffffffffffffffffffffffffffffffffffffffff16815260200190815260200160002060009054906101000a900460ff16905092915050565b8160008111611284576040517feff555a100000000000000000000000000000000000000000000000000000000815260040160405180910390fd5b600860009054906101000a900473ffffffffffffffffffffffffffffffffffffffff1673ffffffffffffffffffffffffffffffffffffffff163373ffffffffffffffffffffffffffffffffffffffff161461130b576040517f280e725300000000000000000000000000000000000000000000000000000000815260040160405180910390fd5b600083905060005b8181101561137d5761136a88888080601f016020809104026020016040519081016040528093929190818152602001838380828437600081840152601f19601f8201169050808301925050505050505087866107d5565b808061137590612ecf565b915050611313565b5050505050505050565b600860009054906101000a900473ffffffffffffffffffffffffffffffffffffffff1673ffffffffffffffffffffffffffffffffffffffff163373ffffffffffffffffffffffffffffffffffffffff161461140e576040517f280e725300000000000000000000000000000000000000000000000000000000815260040160405180910390fd5b8073ffffffffffffffffffffffffffffffffffffffff16600860009054906101000a900473ffffffffffffffffffffffffffffffffffffffff1673ffffffffffffffffffffffffffffffffffffffff160361149e576040517f08c379a000000000000000000000000000000000000000000000000000000000815260040161149590613214565b60405180910390fd5b600073ffffffffffffffffffffffffffffffffffffffff168173ffffffffffffffffffffffffffffffffffffffff160361150d576040517f08c379a000000000000000000000000000000000000000000000000000000000815260040161150490613280565b60405180910390fd5b80600860006101000a81548173ffffffffffffffffffffffffffffffffffffffff021916908373ffffffffffffffffffffffffffffffffffffffff16021790555050565b60007f01ffc9a7000000000000000000000000000000000000000000000000000000007bffffffffffffffffffffffffffffffffffffffffffffffffffffffff1916827bffffffffffffffffffffffffffffffffffffffffffffffffffffffff1916149050919050565b6115c481611d0c565b611603576040517f08c379a00000000000000000000000000000000000000000000000000000000081526004016115fa90613051565b60405180910390fd5b50565b600033905090565b816004600083815260200190815260200160002060006101000a81548173ffffffffffffffffffffffffffffffffffffffff021916908373ffffffffffffffffffffffffffffffffffffffff160217905550808273ffffffffffffffffffffffffffffffffffffffff1661168183610a7c565b73ffffffffffffffffffffffffffffffffffffffff167f8c5be1e5ebec7d5bd14f71427d1e84f3dd0314c0f7b2291e5b200ac8c7c3b92560405160405180910390a45050565b6000806116d383610a7c565b90508073ffffffffffffffffffffffffffffffffffffffff168473ffffffffffffffffffffffffffffffffffffffff161480611715575061171481856111b5565b5b8061175357508373ffffffffffffffffffffffffffffffffffffffff1661173b846105ce565b73ffffffffffffffffffffffffffffffffffffffff16145b91505092915050565b8273ffffffffffffffffffffffffffffffffffffffff1661177c82610a7c565b73ffffffffffffffffffffffffffffffffffffffff16146117d2576040517f08c379a00000000000000000000000000000000000000000000000000000000081526004016117c990613312565b60405180910390fd5b600073ffffffffffffffffffffffffffffffffffffffff168273ffffffffffffffffffffffffffffffffffffffff1603611841576040517f08c379a0000000000000000000000000000000000000000000000000000000008152600401611838906133a4565b60405180910390fd5b61184c838383611d78565b61185760008261160e565b6001600360008573ffffffffffffffffffffffffffffffffffffffff1673ffffffffffffffffffffffffffffffffffffffff16815260200190815260200160002060008282546118a791906133c4565b925050819055506001600360008473ffffffffffffffffffffffffffffffffffffffff1673ffffffffffffffffffffffffffffffffffffffff16815260200190815260200160002060008282546118fe91906133f8565b92505081905550816002600083815260200190815260200160002060006101000a81548173ffffffffffffffffffffffffffffffffffffffff021916908373ffffffffffffffffffffffffffffffffffffffff160217905550808273ffffffffffffffffffffffffffffffffffffffff168473ffffffffffffffffffffffffffffffffffffffff167fddf252ad1be2c89b69c2b068fc378daa952ba7f163c4a11628f55a4df523b3ef60405160405180910390a46119bd838383611d7d565b505050565b6119dc828260405180602001604052806000815250611d82565b5050565b6119e982611d0c565b611a28576040517f08c379a0000000000000000000000000000000000000000000000000000000008152600401611a1f9061349e565b60405180910390fd5b80600660008481526020019081526020016000209081611a489190613660565b505050565b60606000835111611a93576040517f08c379a0000000000000000000000000000000000000000000000000000000008152600401611a8a9061377e565b60405180910390fd5b82611a9d83611ddd565b604051602001611aae9291906131a4565b604051602081830303815290604052905092915050565b8173ffffffffffffffffffffffffffffffffffffffff168373ffffffffffffffffffffffffffffffffffffffff1603611b33576040517f08c379a0000000000000000000000000000000000000000000000000000000008152600401611b2a906137ea565b60405180910390fd5b80600560008573ffffffffffffffffffffffffffffffffffffffff1673ffffffffffffffffffffffffffffffffffffffff16815260200190815260200160002060008473ffffffffffffffffffffffffffffffffffffffff1673ffffffffffffffffffffffffffffffffffffffff16815260200190815260200160002060006101000a81548160ff0219169083151502179055508173ffffffffffffffffffffffffffffffffffffffff168373ffffffffffffffffffffffffffffffffffffffff167f17307eab39ab6107e8899845ad3d59bd9653f200f220920489ca2b5937696c3183604051611c249190612374565b60405180910390a3505050565b611c3c84848461175c565b611c4884848484611f3d565b611c87576040517f08c379a0000000000000000000000000000000000000000000000000000000008152600401611c7e9061387c565b60405180910390fd5b50505050565b606060405180602001604052806000815250905090565b6060611caf826115bb565b6000611cb9611c8d565b90506000815111611cd95760405180602001604052806000815250611d04565b80611ce384611ddd565b604051602001611cf49291906131a4565b6040516020818303038152906040525b915050919050565b60008073ffffffffffffffffffffffffffffffffffffffff166002600084815260200190815260200160002060009054906101000a900473ffffffffffffffffffffffffffffffffffffffff1673ffffffffffffffffffffffffffffffffffffffff1614159050919050565b505050565b505050565b611d8c83836120c4565b611d996000848484611f3d565b611dd8576040517f08c379a0000000000000000000000000000000000000000000000000000000008152600401611dcf9061387c565b60405180910390fd5b505050565b606060008203611e24576040518060400160405280600181526020017f30000000000000000000000000000000000000000000000000000000000000008152509050611f38565b600082905060005b60008214611e56578080611e3f90612ecf565b915050600a82611e4f91906138cb565b9150611e2c565b60008167ffffffffffffffff811115611e7257611e716125c9565b5b6040519080825280601f01601f191660200182016040528015611ea45781602001600182028036833780820191505090505b5090505b60008514611f3157600182611ebd91906133c4565b9150600a85611ecc91906138fc565b6030611ed891906133f8565b60f81b818381518110611eee57611eed613103565b5b60200101907effffffffffffffffffffffffffffffffffffffffffffffffffffffffffffff1916908160001a905350600a85611f2a91906138cb565b9450611ea8565b8093505050505b919050565b6000611f5e8473ffffffffffffffffffffffffffffffffffffffff1661229d565b156120b7578373ffffffffffffffffffffffffffffffffffffffff1663150b7a02611f87611606565b8786866040518563ffffffff1660e01b8152600401611fa99493929190613982565b6020604051808303816000875af1925050508015611fe557506040513d601f19601f82011682018060405250810190611fe291906139e3565b60015b612067573d8060008114612015576040519150601f19603f3d011682016040523d82523d6000602084013e61201a565b606091505b50600081510361205f576040517f08c379a00000000000000000000000000000000000000000000000000000000081526004016120569061387c565b60405180910390fd5b805181602001fd5b63150b7a0260e01b7bffffffffffffffffffffffffffffffffffffffffffffffffffffffff1916817bffffffffffffffffffffffffffffffffffffffffffffffffffffffff1916149150506120bc565b600190505b949350505050565b600073ffffffffffffffffffffffffffffffffffffffff168273ffffffffffffffffffffffffffffffffffffffff1603612133576040517f08c379a000000000000000000000000000000000000000000000000000000000815260040161212a90613a5c565b60405180910390fd5b61213c81611d0c565b1561217c576040517f08c379a000000000000000000000000000000000000000000000000000000000815260040161217390613ac8565b60405180910390fd5b61218860008383611d78565b6001600360008473ffffffffffffffffffffffffffffffffffffffff1673ffffffffffffffffffffffffffffffffffffffff16815260200190815260200160002060008282546121d891906133f8565b92505081905550816002600083815260200190815260200160002060006101000a81548173ffffffffffffffffffffffffffffffffffffffff021916908373ffffffffffffffffffffffffffffffffffffffff160217905550808273ffffffffffffffffffffffffffffffffffffffff16600073ffffffffffffffffffffffffffffffffffffffff167fddf252ad1be2c89b69c2b068fc378daa952ba7f163c4a11628f55a4df523b3ef60405160405180910390a461229960008383611d7d565b5050565b6000808273ffffffffffffffffffffffffffffffffffffffff163b119050919050565b6000604051905090565b600080fd5b600080fd5b60007fffffffff0000000000000000000000000000000000000000000000000000000082169050919050565b612309816122d4565b811461231457600080fd5b50565b60008135905061232681612300565b92915050565b600060208284031215612342576123416122ca565b5b600061235084828501612317565b91505092915050565b60008115159050919050565b61236e81612359565b82525050565b60006020820190506123896000830184612365565b92915050565b600081519050919050565b600082825260208201905092915050565b60005b838110156123c95780820151818401526020810190506123ae565b60008484015250505050565b6000601f19601f8301169050919050565b60006123f18261238f565b6123fb818561239a565b935061240b8185602086016123ab565b612414816123d5565b840191505092915050565b6000602082019050818103600083015261243981846123e6565b905092915050565b6000819050919050565b61245481612441565b811461245f57600080fd5b50565b6000813590506124718161244b565b92915050565b60006020828403121561248d5761248c6122ca565b5b600061249b84828501612462565b91505092915050565b600073ffffffffffffffffffffffffffffffffffffffff82169050919050565b60006124cf826124a4565b9050919050565b6124df816124c4565b82525050565b60006020820190506124fa60008301846124d6565b92915050565b612509816124c4565b811461251457600080fd5b50565b60008135905061252681612500565b92915050565b60008060408385031215612543576125426122ca565b5b600061255185828601612517565b925050602061256285828601612462565b9150509250929050565b600080600060608486031215612585576125846122ca565b5b600061259386828701612517565b93505060206125a486828701612517565b92505060406125b586828701612462565b9150509250925092565b600080fd5b600080fd5b7f4e487b7100000000000000000000000000000000000000000000000000000000600052604160045260246000fd5b612601826123d5565b810181811067ffffffffffffffff821117156126205761261f6125c9565b5b80604052505050565b60006126336122c0565b905061263f82826125f8565b919050565b600067ffffffffffffffff82111561265f5761265e6125c9565b5b612668826123d5565b9050602081019050919050565b82818337600083830152505050565b600061269761269284612644565b612629565b9050828152602081018484840111156126b3576126b26125c4565b5b6126be848285612675565b509392505050565b600082601f8301126126db576126da6125bf565b5b81356126eb848260208601612684565b91505092915050565b6003811061270157600080fd5b50565b600081359050612713816126f4565b92915050565b600080600060608486031215612732576127316122ca565b5b600084013567ffffffffffffffff8111156127505761274f6122cf565b5b61275c868287016126c6565b935050602061276d86828701612462565b925050604061277e86828701612704565b9150509250925092565b60006020828403121561279e5761279d6122ca565b5b60006127ac84828501612517565b91505092915050565b6127be81612441565b82525050565b60006020820190506127d960008301846127b5565b92915050565b600080fd5b600080fd5b60008083601f8401126127ff576127fe6125bf565b5b8235905067ffffffffffffffff81111561281c5761281b6127df565b5b602083019150836001820283011115612838576128376127e4565b5b9250929050565b60008060008060006080868803121561285b5761285a6122ca565b5b600086013567ffffffffffffffff811115612879576128786122cf565b5b612885888289016127e9565b9550955050602061289888828901612462565b93505060406128a988828901612462565b92505060606128ba88828901612704565b9150509295509295909350565b6000819050919050565b60006128ec6128e76128e2846124a4565b6128c7565b6124a4565b9050919050565b60006128fe826128d1565b9050919050565b6000612910826128f3565b9050919050565b61292081612905565b82525050565b600060208201905061293b6000830184612917565b92915050565b60008083601f840112612957576129566125bf565b5b8235905067ffffffffffffffff811115612974576129736127df565b5b6020830191508360208202830111156129905761298f6127e4565b5b9250929050565b6000806000806000608086880312156129b3576129b26122ca565b5b600086013567ffffffffffffffff8111156129d1576129d06122cf565b5b6129dd88828901612941565b955095505060206129f088828901612462565b9350506040612a0188828901612462565b9250506060612a1288828901612704565b9150509295509295909350565b612a2881612359565b8114612a3357600080fd5b50565b600081359050612a4581612a1f565b92915050565b60008060408385031215612a6257612a616122ca565b5b6000612a7085828601612517565b9250506020612a8185828601612a36565b9150509250929050565b600067ffffffffffffffff821115612aa657612aa56125c9565b5b612aaf826123d5565b9050602081019050919050565b6000612acf612aca84612a8b565b612629565b905082815260208101848484011115612aeb57612aea6125c4565b5b612af6848285612675565b509392505050565b600082601f830112612b1357612b126125bf565b5b8135612b23848260208601612abc565b91505092915050565b60008060008060808587031215612b4657612b456122ca565b5b6000612b5487828801612517565b9450506020612b6587828801612517565b9350506040612b7687828801612462565b925050606085013567ffffffffffffffff811115612b9757612b966122cf565b5b612ba387828801612afe565b91505092959194509250565b60008060408385031215612bc657612bc56122ca565b5b6000612bd485828601612517565b9250506020612be585828601612517565b9150509250929050565b7f4e487b7100000000000000000000000000000000000000000000000000000000600052602260045260246000fd5b60006002820490506001821680612c3657607f821691505b602082108103612c4957612c48612bef565b5b50919050565b7f4552433732313a20617070726f76616c20746f2063757272656e74206f776e6560008201527f7200000000000000000000000000000000000000000000000000000000000000602082015250565b6000612cab60218361239a565b9150612cb682612c4f565b604082019050919050565b60006020820190508181036000830152612cda81612c9e565b9050919050565b7f4552433732313a20617070726f76652063616c6c6572206973206e6f7420746f60008201527f6b656e206f776e6572206e6f7220617070726f76656420666f7220616c6c0000602082015250565b6000612d3d603e8361239a565b9150612d4882612ce1565b604082019050919050565b60006020820190508181036000830152612d6c81612d30565b9050919050565b7f4552433732313a2063616c6c6572206973206e6f7420746f6b656e206f776e6560008201527f72206e6f7220617070726f766564000000000000000000000000000000000000602082015250565b6000612dcf602e8361239a565b9150612dda82612d73565b604082019050919050565b60006020820190508181036000830152612dfe81612dc2565b9050919050565b7f4e487b7100000000000000000000000000000000000000000000000000000000600052602160045260246000fd5b7f4d494e543a20496e76616c696420706179207479706500000000000000000000600082015250565b6000612e6a60168361239a565b9150612e7582612e34565b602082019050919050565b60006020820190508181036000830152612e9981612e5d565b9050919050565b7f4e487b7100000000000000000000000000000000000000000000000000000000600052601160045260246000fd5b6000612eda82612441565b91507fffffffffffffffffffffffffffffffffffffffffffffffffffffffffffffffff8203612f0c57612f0b612ea0565b5b600182019050919050565b60038110612f2857612f27612e05565b5b50565b6000819050612f3982612f17565b919050565b6000612f4982612f2b565b9050919050565b612f5981612f3e565b82525050565b600060a082019050612f7460008301886124d6565b612f8160208301876127b5565b612f8e60408301866127b5565b612f9b6060830185612f50565b612fa860808301846124d6565b9695505050505050565b600081905092915050565b6000612fc88261238f565b612fd28185612fb2565b9350612fe28185602086016123ab565b80840191505092915050565b6000612ffa8284612fbd565b915081905092915050565b7f4552433732313a20696e76616c696420746f6b656e2049440000000000000000600082015250565b600061303b60188361239a565b915061304682613005565b602082019050919050565b6000602082019050818103600083015261306a8161302e565b9050919050565b7f4552433732313a2061646472657373207a65726f206973206e6f74206120766160008201527f6c6964206f776e65720000000000000000000000000000000000000000000000602082015250565b60006130cd60298361239a565b91506130d882613071565b604082019050919050565b600060208201905081810360008301526130fc816130c0565b9050919050565b7f4e487b7100000000000000000000000000000000000000000000000000000000600052603260045260246000fd5b600080fd5b600080fd5b600080fd5b6000808335600160200384360303811261315e5761315d613132565b5b80840192508235915067ffffffffffffffff8211156131805761317f613137565b5b60208301925060018202360383131561319c5761319b61313c565b5b509250929050565b60006131b08285612fbd565b91506131bc8284612fbd565b91508190509392505050565b7f53616d65206f776e657220616464726573730000000000000000000000000000600082015250565b60006131fe60128361239a565b9150613209826131c8565b602082019050919050565b6000602082019050818103600083015261322d816131f1565b9050919050565b7f496e76616c696420616464726573730000000000000000000000000000000000600082015250565b600061326a600f8361239a565b915061327582613234565b602082019050919050565b600060208201905081810360008301526132998161325d565b9050919050565b7f4552433732313a207472616e736665722066726f6d20696e636f72726563742060008201527f6f776e6572000000000000000000000000000000000000000000000000000000602082015250565b60006132fc60258361239a565b9150613307826132a0565b604082019050919050565b6000602082019050818103600083015261332b816132ef565b9050919050565b7f4552433732313a207472616e7366657220746f20746865207a65726f2061646460008201527f7265737300000000000000000000000000000000000000000000000000000000602082015250565b600061338e60248361239a565b915061339982613332565b604082019050919050565b600060208201905081810360008301526133bd81613381565b9050919050565b60006133cf82612441565b91506133da83612441565b92508282039050818111156133f2576133f1612ea0565b5b92915050565b600061340382612441565b915061340e83612441565b925082820190508082111561342657613425612ea0565b5b92915050565b7f45524337323155524953746f726167653a2055524920736574206f66206e6f6e60008201527f6578697374656e7420746f6b656e000000000000000000000000000000000000602082015250565b6000613488602e8361239a565b91506134938261342c565b604082019050919050565b600060208201905081810360008301526134b78161347b565b9050919050565b60008190508160005260206000209050919050565b60006020601f8301049050919050565b600082821b905092915050565b6000600883026135207fffffffffffffffffffffffffffffffffffffffffffffffffffffffffffffffff826134e3565b61352a86836134e3565b95508019841693508086168417925050509392505050565b600061355d61355861355384612441565b6128c7565b612441565b9050919050565b6000819050919050565b61357783613542565b61358b61358382613564565b8484546134f0565b825550505050565b600090565b6135a0613593565b6135ab81848461356e565b505050565b5b818110156135cf576135c4600082613598565b6001810190506135b1565b5050565b601f821115613614576135e5816134be565b6135ee846134d3565b810160208510156135fd578190505b613611613609856134d3565b8301826135b0565b50505b505050565b600082821c905092915050565b600061363760001984600802613619565b1980831691505092915050565b60006136508383613626565b9150826002028217905092915050565b6136698261238f565b67ffffffffffffffff811115613682576136816125c9565b5b61368c8254612c1e565b6136978282856135d3565b600060209050601f8311600181146136ca57600084156136b8578287015190505b6136c28582613644565b86555061372a565b601f1984166136d8866134be565b60005b82811015613700578489015182556001820191506020850194506020810190506136db565b8683101561371d5784890151613719601f891682613626565b8355505b6001600288020188555050505b505050505050565b7f496e76616c696420626173652055524900000000000000000000000000000000600082015250565b600061376860108361239a565b915061377382613732565b602082019050919050565b600060208201905081810360008301526137978161375b565b9050919050565b7f4552433732313a20617070726f766520746f2063616c6c657200000000000000600082015250565b60006137d460198361239a565b91506137df8261379e565b602082019050919050565b60006020820190508181036000830152613803816137c7565b9050919050565b7f4552433732313a207472616e7366657220746f206e6f6e20455243373231526560008201527f63656976657220696d706c656d656e7465720000000000000000000000000000602082015250565b600061386660328361239a565b91506138718261380a565b604082019050919050565b6000602082019050818103600083015261389581613859565b9050919050565b7f4e487b7100000000000000000000000000000000000000000000000000000000600052601260045260246000fd5b60006138d682612441565b91506138e183612441565b9250826138f1576138f061389c565b5b828204905092915050565b600061390782612441565b915061391283612441565b9250826139225761392161389c565b5b828206905092915050565b600081519050919050565b600082825260208201905092915050565b60006139548261392d565b61395e8185613938565b935061396e8185602086016123ab565b613977816123d5565b840191505092915050565b600060808201905061399760008301876124d6565b6139a460208301866124d6565b6139b160408301856127b5565b81810360608301526139c38184613949565b905095945050505050565b6000815190506139dd81612300565b92915050565b6000602082840312156139f9576139f86122ca565b5b6000613a07848285016139ce565b91505092915050565b7f4552433732313a206d696e7420746f20746865207a65726f2061646472657373600082015250565b6000613a4660208361239a565b9150613a5182613a10565b602082019050919050565b60006020820190508181036000830152613a7581613a39565b9050919050565b7f4552433732313a20746f6b656e20616c7265616479206d696e74656400000000600082015250565b6000613ab2601c8361239a565b9150613abd82613a7c565b602082019050919050565b60006020820190508181036000830152613ae181613aa5565b905091905056fea2646970667358221220d2f485fa2ecb0bac464a0bd5c4985315c19d84b0fb8d099eae016cd040718d1b64736f6c63430008110033",
  "linkReferences": {},
  "deployedLinkReferences": {}
}