{
  "_format": "hh-sol-artifact-1",
  "contractName": "NichoNFTAuction",
  "sourceName": "contracts/NichoNFTAuction.sol",
  "abi": [
    {
      "inputs": [
        {
          "internalType": "address",
          "name": "_blacklist",
          "type": "address"
        },
        {
          "internalType": "contract INichoNFTMarketplace",
          "name": "_nichonftmarketplaceContract",
          "type": "address"
        }
      ],
      "stateMutability": "nonpayable",
      "type": "constructor"
    },
    {
      "anonymous": false,
      "inputs": [
        {
          "indexed": false,
          "internalType": "address",
          "name": "token_address",
          "type": "address"
        },
        {
          "indexed": false,
          "internalType": "uint256",
          "name": "token_id",
          "type": "uint256"
        },
        {
          "indexed": true,
          "internalType": "address",
          "name": "creator",
          "type": "address"
        },
        {
          "indexed": false,
          "internalType": "uint256",
          "name": "price",
          "type": "uint256"
        },
        {
          "indexed": false,
          "internalType": "uint80",
          "name": "auction_id",
          "type": "uint80"
        }
      ],
      "name": "AuctionBids",
      "type": "event"
    },
    {
      "anonymous": false,
      "inputs": [
        {
          "indexed": false,
          "internalType": "address",
          "name": "token_address",
          "type": "address"
        },
        {
          "indexed": false,
          "internalType": "uint256",
          "name": "token_id",
          "type": "uint256"
        },
        {
          "indexed": true,
          "internalType": "address",
          "name": "creator",
          "type": "address"
        },
        {
          "indexed": false,
          "internalType": "uint80",
          "name": "auction_id",
          "type": "uint80"
        }
      ],
      "name": "BidCancels",
      "type": "event"
    },
    {
      "anonymous": false,
      "inputs": [
        {
          "indexed": true,
          "internalType": "address",
          "name": "previousOwner",
          "type": "address"
        },
        {
          "indexed": true,
          "internalType": "address",
          "name": "newOwner",
          "type": "address"
        }
      ],
      "name": "OwnershipTransferred",
      "type": "event"
    },
    {
      "inputs": [
        {
          "internalType": "address",
          "name": "tokenAddress",
          "type": "address"
        },
        {
          "internalType": "uint256",
          "name": "tokenId",
          "type": "uint256"
        },
        {
          "internalType": "address",
          "name": "bidder",
          "type": "address"
        }
      ],
      "name": "acceptBid",
      "outputs": [],
      "stateMutability": "nonpayable",
      "type": "function"
    },
    {
      "inputs": [],
      "name": "blacklistContract",
      "outputs": [
        {
          "internalType": "contract INFTBlackList",
          "name": "",
          "type": "address"
        }
      ],
      "stateMutability": "view",
      "type": "function"
    },
    {
      "inputs": [
        {
          "internalType": "address",
          "name": "tokenAddress",
          "type": "address"
        },
        {
          "internalType": "uint256",
          "name": "tokenId",
          "type": "uint256"
        }
      ],
      "name": "cancelAuctionFromFixedSaleCreation",
      "outputs": [],
      "stateMutability": "nonpayable",
      "type": "function"
    },
    {
      "inputs": [
        {
          "internalType": "address",
          "name": "tokenAddress",
          "type": "address"
        },
        {
          "internalType": "uint256",
          "name": "tokenId",
          "type": "uint256"
        }
      ],
      "name": "cancelBid",
      "outputs": [],
      "stateMutability": "nonpayable",
      "type": "function"
    },
    {
      "inputs": [
        {
          "internalType": "address",
          "name": "tokenAddress",
          "type": "address"
        },
        {
          "internalType": "uint256",
          "name": "tokenId",
          "type": "uint256"
        },
        {
          "internalType": "uint256",
          "name": "startPrice",
          "type": "uint256"
        },
        {
          "internalType": "uint256",
          "name": "duration",
          "type": "uint256"
        }
      ],
      "name": "createAuction",
      "outputs": [],
      "stateMutability": "nonpayable",
      "type": "function"
    },
    {
      "inputs": [
        {
          "internalType": "address",
          "name": "tokenAddress",
          "type": "address"
        },
        {
          "internalType": "uint256",
          "name": "tokenId",
          "type": "uint256"
        }
      ],
      "name": "getAuctionItemInfo",
      "outputs": [
        {
          "components": [
            {
              "internalType": "uint80",
              "name": "id",
              "type": "uint80"
            },
            {
              "internalType": "address",
              "name": "creator",
              "type": "address"
            },
            {
              "internalType": "uint256",
              "name": "highPrice",
              "type": "uint256"
            },
            {
              "internalType": "uint256",
              "name": "expireTs",
              "type": "uint256"
            },
            {
              "internalType": "bool",
              "name": "isLive",
              "type": "bool"
            }
          ],
          "internalType": "struct MarketplaceHelper.AuctionItem",
          "name": "item",
          "type": "tuple"
        }
      ],
      "stateMutability": "view",
      "type": "function"
    },
    {
      "inputs": [
        {
          "internalType": "address",
          "name": "tokenAddress",
          "type": "address"
        },
        {
          "internalType": "uint256",
          "name": "tokenId",
          "type": "uint256"
        }
      ],
      "name": "getAuctionStatus",
      "outputs": [
        {
          "internalType": "bool",
          "name": "",
          "type": "bool"
        }
      ],
      "stateMutability": "view",
      "type": "function"
    },
    {
      "inputs": [
        {
          "internalType": "address",
          "name": "tokenAddress",
          "type": "address"
        },
        {
          "internalType": "uint256",
          "name": "tokenId",
          "type": "uint256"
        },
        {
          "internalType": "address",
          "name": "bidder",
          "type": "address"
        }
      ],
      "name": "getBidItemInfo",
      "outputs": [
        {
          "components": [
            {
              "internalType": "uint80",
              "name": "auctionId",
              "type": "uint80"
            },
            {
              "internalType": "uint256",
              "name": "price",
              "type": "uint256"
            }
          ],
          "internalType": "struct MarketplaceHelper.BidItem",
          "name": "item",
          "type": "tuple"
        }
      ],
      "stateMutability": "view",
      "type": "function"
    },
    {
      "inputs": [],
      "name": "isPaused",
      "outputs": [
        {
          "internalType": "bool",
          "name": "",
          "type": "bool"
        }
      ],
      "stateMutability": "view",
      "type": "function"
    },
    {
      "inputs": [],
      "name": "owner",
      "outputs": [
        {
          "internalType": "address",
          "name": "",
          "type": "address"
        }
      ],
      "stateMutability": "view",
      "type": "function"
    },
    {
      "inputs": [
        {
          "internalType": "address",
          "name": "tokenAddress",
          "type": "address"
        },
        {
          "internalType": "uint256",
          "name": "tokenId",
          "type": "uint256"
        }
      ],
      "name": "placeBid",
      "outputs": [],
      "stateMutability": "payable",
      "type": "function"
    },
    {
      "inputs": [],
      "name": "renounceOwnership",
      "outputs": [],
      "stateMutability": "nonpayable",
      "type": "function"
    },
    {
      "inputs": [
        {
          "internalType": "bool",
          "name": "_value",
          "type": "bool"
        }
      ],
      "name": "setPause",
      "outputs": [],
      "stateMutability": "nonpayable",
      "type": "function"
    },
    {
      "inputs": [
        {
          "internalType": "address",
          "name": "newOwner",
          "type": "address"
        }
      ],
      "name": "transferOwnership",
      "outputs": [],
      "stateMutability": "nonpayable",
      "type": "function"
    },
    {
      "inputs": [
        {
          "internalType": "uint256",
          "name": "_amount",
          "type": "uint256"
        }
      ],
      "name": "withdrawETH",
      "outputs": [],
      "stateMutability": "nonpayable",
      "type": "function"
    },
    {
      "inputs": [
        {
          "internalType": "address",
          "name": "_token",
          "type": "address"
        },
        {
          "internalType": "uint256",
          "name": "_amount",
          "type": "uint256"
        }
      ],
      "name": "withdrawTokens",
      "outputs": [],
      "stateMutability": "nonpayable",
      "type": "function"
    },
    {
      "stateMutability": "payable",
      "type": "receive"
    }
  ],
  "bytecode": "0x60806040523480156200001157600080fd5b50604051620039cc380380620039cc833981810160405281019062000037919062000278565b81620000586200004c620000fd60201b60201c565b6200010560201b60201c565b80600160006101000a81548173ffffffffffffffffffffffffffffffffffffffff021916908373ffffffffffffffffffffffffffffffffffffffff16021790555060008060146101000a81548160ff0219169083151502179055505080600260006101000a81548173ffffffffffffffffffffffffffffffffffffffff021916908373ffffffffffffffffffffffffffffffffffffffff1602179055505050620002bf565b600033905090565b60008060009054906101000a900473ffffffffffffffffffffffffffffffffffffffff169050816000806101000a81548173ffffffffffffffffffffffffffffffffffffffff021916908373ffffffffffffffffffffffffffffffffffffffff1602179055508173ffffffffffffffffffffffffffffffffffffffff168173ffffffffffffffffffffffffffffffffffffffff167f8be0079c531659141344cd1fd0a4f28419497f9722a3daafe3b4186f6b6457e060405160405180910390a35050565b600080fd5b600073ffffffffffffffffffffffffffffffffffffffff82169050919050565b6000620001fb82620001ce565b9050919050565b6200020d81620001ee565b81146200021957600080fd5b50565b6000815190506200022d8162000202565b92915050565b60006200024082620001ee565b9050919050565b620002528162000233565b81146200025e57600080fd5b50565b600081519050620002728162000247565b92915050565b60008060408385031215620002925762000291620001c9565b5b6000620002a2858286016200021c565b9250506020620002b58582860162000261565b9150509250929050565b6136fd80620002cf6000396000f3fe6080604052600436106100f75760003560e01c8063b187bd261161008a578063f14210a611610059578063f14210a6146102fc578063f2fde38b14610325578063f3e1a4df1461034e578063f8a206fa14610379576100fe565b8063b187bd2614610263578063bedb86fb1461028e578063c53d0acc146102b7578063d98b9bb5146102e0576100fe565b8063715018a6116100c6578063715018a6146101bb5780638da5cb5b146101d25780639a621a42146101fd578063a58026201461023a576100fe565b806306b091f914610103578063169b8b871461012c57806339b6b1e51461016957806361beb1d714610192576100fe565b366100fe57005b600080fd5b34801561010f57600080fd5b5061012a600480360381019061012591906126af565b6103b6565b005b34801561013857600080fd5b50610153600480360381019061014e91906126af565b6104fd565b60405161016091906127b5565b60405180910390f35b34801561017557600080fd5b50610190600480360381019061018b91906126af565b610625565b005b34801561019e57600080fd5b506101b960048036038101906101b491906127d0565b610a3e565b005b3480156101c757600080fd5b506101d0611033565b005b3480156101de57600080fd5b506101e7611047565b6040516101f49190612846565b60405180910390f35b34801561020957600080fd5b50610224600480360381019061021f9190612861565b611070565b60405161023191906128e3565b60405180910390f35b34801561024657600080fd5b50610261600480360381019061025c9190612861565b61115b565b005b34801561026f57600080fd5b506102786118de565b604051610285919061290d565b60405180910390f35b34801561029a57600080fd5b506102b560048036038101906102b09190612954565b6118f1565b005b3480156102c357600080fd5b506102de60048036038101906102d991906126af565b61190e565b005b6102fa60048036038101906102f591906126af565b611a14565b005b34801561030857600080fd5b50610323600480360381019061031e9190612981565b611a79565b005b34801561033157600080fd5b5061034c600480360381019061034791906129ae565b611b0e565b005b34801561035a57600080fd5b50610363611b91565b6040516103709190612a3a565b60405180910390f35b34801561038557600080fd5b506103a0600480360381019061039b91906126af565b611bb7565b6040516103ad919061290d565b60405180910390f35b6103be611c22565b808273ffffffffffffffffffffffffffffffffffffffff166370a08231306040518263ffffffff1660e01b81526004016103f89190612846565b602060405180830381865afa158015610415573d6000803e3d6000fd5b505050506040513d601f19601f820116820180604052508101906104399190612a6a565b101561047a576040517f08c379a000000000000000000000000000000000000000000000000000000000815260040161047190612af4565b60405180910390fd5b8173ffffffffffffffffffffffffffffffffffffffff1663a9059cbb33836040518363ffffffff1660e01b81526004016104b5929190612b23565b6020604051808303816000875af11580156104d4573d6000803e3d6000fd5b505050506040513d601f19601f820116820180604052508101906104f89190612b61565b505050565b61050561259d565b600360008473ffffffffffffffffffffffffffffffffffffffff1673ffffffffffffffffffffffffffffffffffffffff16815260200190815260200160002060008381526020019081526020016000206040518060a00160405290816000820160009054906101000a900469ffffffffffffffffffff1669ffffffffffffffffffff1669ffffffffffffffffffff16815260200160008201600a9054906101000a900473ffffffffffffffffffffffffffffffffffffffff1673ffffffffffffffffffffffffffffffffffffffff1673ffffffffffffffffffffffffffffffffffffffff16815260200160018201548152602001600282015481526020016003820160009054906101000a900460ff161515151581525050905092915050565b600082905060008290506000600460008473ffffffffffffffffffffffffffffffffffffffff1673ffffffffffffffffffffffffffffffffffffffff168152602001908152602001600020600083815260200190815260200160002060003373ffffffffffffffffffffffffffffffffffffffff1673ffffffffffffffffffffffffffffffffffffffff1681526020019081526020016000206040518060400160405290816000820160009054906101000a900469ffffffffffffffffffff1669ffffffffffffffffffff1669ffffffffffffffffffff168152602001600182015481525050905060008160200151905060008111610759576040517f08c379a000000000000000000000000000000000000000000000000000000000815260040161075090612bda565b60405180910390fd5b6000600360008673ffffffffffffffffffffffffffffffffffffffff1673ffffffffffffffffffffffffffffffffffffffff16815260200190815260200160002060008581526020019081526020016000206040518060a00160405290816000820160009054906101000a900469ffffffffffffffffffff1669ffffffffffffffffffff1669ffffffffffffffffffff16815260200160008201600a9054906101000a900473ffffffffffffffffffffffffffffffffffffffff1673ffffffffffffffffffffffffffffffffffffffff1673ffffffffffffffffffffffffffffffffffffffff16815260200160018201548152602001600282015481526020016003820160009054906101000a900460ff1615151515815250509050826000015169ffffffffffffffffffff16816000015169ffffffffffffffffffff161480156108a75750428160600151105b6108e6576040517f08c379a00000000000000000000000000000000000000000000000000000000081526004016108dd90612c46565b60405180910390fd5b6000600460008773ffffffffffffffffffffffffffffffffffffffff1673ffffffffffffffffffffffffffffffffffffffff168152602001908152602001600020600086815260200190815260200160002060003373ffffffffffffffffffffffffffffffffffffffff1673ffffffffffffffffffffffffffffffffffffffff1681526020019081526020016000209050600081600101819055503373ffffffffffffffffffffffffffffffffffffffff166108fc849081150290604051600060405180830381858888f193505050501580156109c7573d6000803e3d6000fd5b503373ffffffffffffffffffffffffffffffffffffffff167fa648ffb6090f011dd7ec070ddfe4a72e1d9802ea59ba8aec622c9dec4f89ba8387878460000160009054906101000a900469ffffffffffffffffffff16604051610a2c93929190612c75565b60405180910390a25050505050505050565b60001515600060149054906101000a900460ff16151514610a94576040517f08c379a0000000000000000000000000000000000000000000000000000000008152600401610a8b90612cf8565b60405180910390fd5b838360008273ffffffffffffffffffffffffffffffffffffffff16636352211e836040518263ffffffff1660e01b8152600401610ad19190612d18565b602060405180830381865afa158015610aee573d6000803e3d6000fd5b505050506040513d601f19601f82011682018060405250810190610b129190612d48565b90503373ffffffffffffffffffffffffffffffffffffffff168173ffffffffffffffffffffffffffffffffffffffff1614610b82576040517f08c379a0000000000000000000000000000000000000000000000000000000008152600401610b7990612de7565b60405180910390fd5b868660001515600160009054906101000a900473ffffffffffffffffffffffffffffffffffffffff1673ffffffffffffffffffffffffffffffffffffffff1663c1db0dce84846040518363ffffffff1660e01b8152600401610be5929190612b23565b602060405180830381865afa158015610c02573d6000803e3d6000fd5b505050506040513d601f19601f82011682018060405250810190610c269190612b61565b151514610c68576040517f08c379a0000000000000000000000000000000000000000000000000000000008152600401610c5f90612e53565b60405180910390fd5b6000899050600089905060008990506005891015610cbb576040517f08c379a0000000000000000000000000000000000000000000000000000000008152600401610cb290612ebf565b60405180910390fd5b610cc58383611ca0565b610d04576040517f08c379a0000000000000000000000000000000000000000000000000000000008152600401610cfb90612f2b565b60405180910390fd5b6000600360008573ffffffffffffffffffffffffffffffffffffffff1673ffffffffffffffffffffffffffffffffffffffff1681526020019081526020016000206000848152602001908152602001600020905080600001600a9054906101000a900473ffffffffffffffffffffffffffffffffffffffff1673ffffffffffffffffffffffffffffffffffffffff163373ffffffffffffffffffffffffffffffffffffffff16141580610dcc5750600015158160030160009054906101000a900460ff161515145b80610ddb575042816002015411155b610e1a576040517f08c379a0000000000000000000000000000000000000000000000000000000008152600401610e1190612f97565b60405180910390fd5b60008a42610e289190612fe6565b905060008260000160009054906101000a900469ffffffffffffffffffff1690506000600182610e58919061301a565b9050808460000160006101000a81548169ffffffffffffffffffff021916908369ffffffffffffffffffff16021790555084846001018190555082846002018190555060018460030160006101000a81548160ff0219169083151502179055503384600001600a6101000a81548173ffffffffffffffffffffffffffffffffffffffff021916908373ffffffffffffffffffffffffffffffffffffffff160217905550600260009054906101000a900473ffffffffffffffffffffffffffffffffffffffff1673ffffffffffffffffffffffffffffffffffffffff1663c22d690888886040518363ffffffff1660e01b8152600401610f58929190612b23565b600060405180830381600087803b158015610f7257600080fd5b505af1158015610f86573d6000803e3d6000fd5b50505050600260009054906101000a900473ffffffffffffffffffffffffffffffffffffffff1673ffffffffffffffffffffffffffffffffffffffff16631641ebe68888338988876040518763ffffffff1660e01b8152600401610fef96959493929190613058565b600060405180830381600087803b15801561100957600080fd5b505af115801561101d573d6000803e3d6000fd5b5050505050505050505050505050505050505050565b61103b611c22565b6110456000611e53565b565b60008060009054906101000a900473ffffffffffffffffffffffffffffffffffffffff16905090565b6110786125f0565b600460008573ffffffffffffffffffffffffffffffffffffffff1673ffffffffffffffffffffffffffffffffffffffff168152602001908152602001600020600084815260200190815260200160002060008373ffffffffffffffffffffffffffffffffffffffff1673ffffffffffffffffffffffffffffffffffffffff1681526020019081526020016000206040518060400160405290816000820160009054906101000a900469ffffffffffffffffffff1669ffffffffffffffffffff1669ffffffffffffffffffff16815260200160018201548152505090509392505050565b828260008273ffffffffffffffffffffffffffffffffffffffff16636352211e836040518263ffffffff1660e01b81526004016111989190612d18565b602060405180830381865afa1580156111b5573d6000803e3d6000fd5b505050506040513d601f19601f820116820180604052508101906111d99190612d48565b90503373ffffffffffffffffffffffffffffffffffffffff168173ffffffffffffffffffffffffffffffffffffffff1614611249576040517f08c379a000000000000000000000000000000000000000000000000000000000815260040161124090612de7565b60405180910390fd5b858560001515600160009054906101000a900473ffffffffffffffffffffffffffffffffffffffff1673ffffffffffffffffffffffffffffffffffffffff1663c1db0dce84846040518363ffffffff1660e01b81526004016112ac929190612b23565b602060405180830381865afa1580156112c9573d6000803e3d6000fd5b505050506040513d601f19601f820116820180604052508101906112ed9190612b61565b15151461132f576040517f08c379a000000000000000000000000000000000000000000000000000000000815260040161132690612e53565b60405180910390fd5b6000889050600088905060008890506000600460008573ffffffffffffffffffffffffffffffffffffffff1673ffffffffffffffffffffffffffffffffffffffff168152602001908152602001600020600084815260200190815260200160002060008373ffffffffffffffffffffffffffffffffffffffff1673ffffffffffffffffffffffffffffffffffffffff1681526020019081526020016000206040518060400160405290816000820160009054906101000a900469ffffffffffffffffffff1669ffffffffffffffffffff1669ffffffffffffffffffff16815260200160018201548152505090506000816020015111611463576040517f08c379a000000000000000000000000000000000000000000000000000000000815260040161145a90613105565b60405180910390fd5b6000600360008673ffffffffffffffffffffffffffffffffffffffff1673ffffffffffffffffffffffffffffffffffffffff16815260200190815260200160002060008581526020019081526020016000206040518060a00160405290816000820160009054906101000a900469ffffffffffffffffffff1669ffffffffffffffffffff1669ffffffffffffffffffff16815260200160008201600a9054906101000a900473ffffffffffffffffffffffffffffffffffffffff1673ffffffffffffffffffffffffffffffffffffffff1673ffffffffffffffffffffffffffffffffffffffff16815260200160018201548152602001600282015481526020016003820160009054906101000a900460ff161515151581525050905080608001516115c3576040517f08c379a00000000000000000000000000000000000000000000000000000000081526004016115ba90613197565b60405180910390fd5b816000015169ffffffffffffffffffff16816000015169ffffffffffffffffffff1614611625576040517f08c379a000000000000000000000000000000000000000000000000000000000815260040161161c90613203565b60405180910390fd5b428160600151101561166c576040517f08c379a00000000000000000000000000000000000000000000000000000000081526004016116639061326f565b60405180910390fd5b6000600360008773ffffffffffffffffffffffffffffffffffffffff1673ffffffffffffffffffffffffffffffffffffffff1681526020019081526020016000206000868152602001908152602001600020905060008160030160006101000a81548160ff0219169083151502179055506000600460008873ffffffffffffffffffffffffffffffffffffffff1673ffffffffffffffffffffffffffffffffffffffff168152602001908152602001600020600087815260200190815260200160002060008673ffffffffffffffffffffffffffffffffffffffff1673ffffffffffffffffffffffffffffffffffffffff1681526020019081526020016000209050600081600101549050600082600101819055508773ffffffffffffffffffffffffffffffffffffffff166323b872dd33888a6040518463ffffffff1660e01b81526004016117be9392919061328f565b600060405180830381600087803b1580156117d857600080fd5b505af11580156117ec573d6000803e3d6000fd5b505050503373ffffffffffffffffffffffffffffffffffffffff166108fc829081150290604051600060405180830381858888f19350505050158015611836573d6000803e3d6000fd5b50600260009054906101000a900473ffffffffffffffffffffffffffffffffffffffff1673ffffffffffffffffffffffffffffffffffffffff166301532b8d8989338a866040518663ffffffff1660e01b815260040161189a9594939291906132c6565b600060405180830381600087803b1580156118b457600080fd5b505af11580156118c8573d6000803e3d6000fd5b5050505050505050505050505050505050505050565b600060149054906101000a900460ff1681565b80600060146101000a81548160ff02191690831515021790555050565b600260009054906101000a900473ffffffffffffffffffffffffffffffffffffffff1673ffffffffffffffffffffffffffffffffffffffff163373ffffffffffffffffffffffffffffffffffffffff161461199e576040517f08c379a00000000000000000000000000000000000000000000000000000000081526004016119959061338b565b60405180910390fd5b6000600360008473ffffffffffffffffffffffffffffffffffffffff1673ffffffffffffffffffffffffffffffffffffffff1681526020019081526020016000206000838152602001908152602001600020905060008160030160006101000a81548160ff021916908315150217905550505050565b60001515600060149054906101000a900460ff16151514611a6a576040517f08c379a0000000000000000000000000000000000000000000000000000000008152600401611a6190612cf8565b60405180910390fd5b611a75828234611f17565b5050565b611a81611c22565b80471015611ac4576040517f08c379a0000000000000000000000000000000000000000000000000000000008152600401611abb90612af4565b60405180910390fd5b3373ffffffffffffffffffffffffffffffffffffffff166108fc829081150290604051600060405180830381858888f19350505050158015611b0a573d6000803e3d6000fd5b5050565b611b16611c22565b600073ffffffffffffffffffffffffffffffffffffffff168173ffffffffffffffffffffffffffffffffffffffff1603611b85576040517f08c379a0000000000000000000000000000000000000000000000000000000008152600401611b7c9061341d565b60405180910390fd5b611b8e81611e53565b50565b600160009054906101000a900473ffffffffffffffffffffffffffffffffffffffff1681565b6000600360008473ffffffffffffffffffffffffffffffffffffffff1673ffffffffffffffffffffffffffffffffffffffff168152602001908152602001600020600083815260200190815260200160002060030160009054906101000a900460ff16905092915050565b611c2a612595565b73ffffffffffffffffffffffffffffffffffffffff16611c48611047565b73ffffffffffffffffffffffffffffffffffffffff1614611c9e576040517f08c379a0000000000000000000000000000000000000000000000000000000008152600401611c9590613489565b60405180910390fd5b565b6000808390503073ffffffffffffffffffffffffffffffffffffffff168173ffffffffffffffffffffffffffffffffffffffff1663081812fc856040518263ffffffff1660e01b8152600401611cf69190612d18565b602060405180830381865afa158015611d13573d6000803e3d6000fd5b505050506040513d601f19601f82011682018060405250810190611d379190612d48565b73ffffffffffffffffffffffffffffffffffffffff161480611e4a57508073ffffffffffffffffffffffffffffffffffffffff1663e985e9c58273ffffffffffffffffffffffffffffffffffffffff16636352211e866040518263ffffffff1660e01b8152600401611da99190612d18565b602060405180830381865afa158015611dc6573d6000803e3d6000fd5b505050506040513d601f19601f82011682018060405250810190611dea9190612d48565b306040518363ffffffff1660e01b8152600401611e089291906134a9565b602060405180830381865afa158015611e25573d6000803e3d6000fd5b505050506040513d601f19601f82011682018060405250810190611e499190612b61565b5b91505092915050565b60008060009054906101000a900473ffffffffffffffffffffffffffffffffffffffff169050816000806101000a81548173ffffffffffffffffffffffffffffffffffffffff021916908373ffffffffffffffffffffffffffffffffffffffff1602179055508173ffffffffffffffffffffffffffffffffffffffff168173ffffffffffffffffffffffffffffffffffffffff167f8be0079c531659141344cd1fd0a4f28419497f9722a3daafe3b4186f6b6457e060405160405180910390a35050565b828260001515600160009054906101000a900473ffffffffffffffffffffffffffffffffffffffff1673ffffffffffffffffffffffffffffffffffffffff1663c1db0dce84846040518363ffffffff1660e01b8152600401611f7a929190612b23565b602060405180830381865afa158015611f97573d6000803e3d6000fd5b505050506040513d601f19601f82011682018060405250810190611fbb9190612b61565b151514611ffd576040517f08c379a0000000000000000000000000000000000000000000000000000000008152600401611ff490612e53565b60405180910390fd5b6000859050600085905060008590506000600360008573ffffffffffffffffffffffffffffffffffffffff1673ffffffffffffffffffffffffffffffffffffffff16815260200190815260200160002060008481526020019081526020016000206040518060a00160405290816000820160009054906101000a900469ffffffffffffffffffff1669ffffffffffffffffffff1669ffffffffffffffffffff16815260200160008201600a9054906101000a900473ffffffffffffffffffffffffffffffffffffffff1673ffffffffffffffffffffffffffffffffffffffff1673ffffffffffffffffffffffffffffffffffffffff16815260200160018201548152602001600282015481526020016003820160009054906101000a900460ff16151515158152505090506000600460008673ffffffffffffffffffffffffffffffffffffffff1673ffffffffffffffffffffffffffffffffffffffff168152602001908152602001600020600085815260200190815260200160002060003373ffffffffffffffffffffffffffffffffffffffff1673ffffffffffffffffffffffffffffffffffffffff1681526020019081526020016000206040518060400160405290816000820160009054906101000a900469ffffffffffffffffffff1669ffffffffffffffffffff1669ffffffffffffffffffff1681526020016001820154815250509050816080015161224a576040517f08c379a00000000000000000000000000000000000000000000000000000000081526004016122419061351e565b60405180910390fd5b8973ffffffffffffffffffffffffffffffffffffffff16636352211e8a6040518263ffffffff1660e01b81526004016122839190612d18565b602060405180830381865afa1580156122a0573d6000803e3d6000fd5b505050506040513d601f19601f820116820180604052508101906122c49190612d48565b73ffffffffffffffffffffffffffffffffffffffff163373ffffffffffffffffffffffffffffffffffffffff1603612331576040517f08c379a00000000000000000000000000000000000000000000000000000000081526004016123289061358a565b60405180910390fd5b6000816020015114612378576040517f08c379a000000000000000000000000000000000000000000000000000000000815260040161236f906135f6565b60405180910390fd5b42826060015110156123bf576040517f08c379a00000000000000000000000000000000000000000000000000000000081526004016123b69061326f565b60405180910390fd5b87826040015110612405576040517f08c379a00000000000000000000000000000000000000000000000000000000081526004016123fc90613662565b60405180910390fd5b6000600360008773ffffffffffffffffffffffffffffffffffffffff1673ffffffffffffffffffffffffffffffffffffffff168152602001908152602001600020600086815260200190815260200160002090508381600101819055506000600460008873ffffffffffffffffffffffffffffffffffffffff1673ffffffffffffffffffffffffffffffffffffffff168152602001908152602001600020600087815260200190815260200160002060003373ffffffffffffffffffffffffffffffffffffffff1673ffffffffffffffffffffffffffffffffffffffff168152602001908152602001600020905083600001518160000160006101000a81548169ffffffffffffffffffff021916908369ffffffffffffffffffff1602179055508481600101819055503373ffffffffffffffffffffffffffffffffffffffff167f35d8e15e46f3f2e3366e7dc4fa1577ea2ee9c548da9299932c5d230ec369f96b888888886000015160405161257f9493929190613682565b60405180910390a2505050505050505050505050565b600033905090565b6040518060a00160405280600069ffffffffffffffffffff168152602001600073ffffffffffffffffffffffffffffffffffffffff16815260200160008152602001600081526020016000151581525090565b6040518060400160405280600069ffffffffffffffffffff168152602001600081525090565b600080fd5b600073ffffffffffffffffffffffffffffffffffffffff82169050919050565b60006126468261261b565b9050919050565b6126568161263b565b811461266157600080fd5b50565b6000813590506126738161264d565b92915050565b6000819050919050565b61268c81612679565b811461269757600080fd5b50565b6000813590506126a981612683565b92915050565b600080604083850312156126c6576126c5612616565b5b60006126d485828601612664565b92505060206126e58582860161269a565b9150509250929050565b600069ffffffffffffffffffff82169050919050565b61270e816126ef565b82525050565b61271d8161263b565b82525050565b61272c81612679565b82525050565b60008115159050919050565b61274781612732565b82525050565b60a0820160008201516127636000850182612705565b5060208201516127766020850182612714565b5060408201516127896040850182612723565b50606082015161279c6060850182612723565b5060808201516127af608085018261273e565b50505050565b600060a0820190506127ca600083018461274d565b92915050565b600080600080608085870312156127ea576127e9612616565b5b60006127f887828801612664565b94505060206128098782880161269a565b935050604061281a8782880161269a565b925050606061282b8782880161269a565b91505092959194509250565b6128408161263b565b82525050565b600060208201905061285b6000830184612837565b92915050565b60008060006060848603121561287a57612879612616565b5b600061288886828701612664565b93505060206128998682870161269a565b92505060406128aa86828701612664565b9150509250925092565b6040820160008201516128ca6000850182612705565b5060208201516128dd6020850182612723565b50505050565b60006040820190506128f860008301846128b4565b92915050565b61290781612732565b82525050565b600060208201905061292260008301846128fe565b92915050565b61293181612732565b811461293c57600080fd5b50565b60008135905061294e81612928565b92915050565b60006020828403121561296a57612969612616565b5b60006129788482850161293f565b91505092915050565b60006020828403121561299757612996612616565b5b60006129a58482850161269a565b91505092915050565b6000602082840312156129c4576129c3612616565b5b60006129d284828501612664565b91505092915050565b6000819050919050565b6000612a006129fb6129f68461261b565b6129db565b61261b565b9050919050565b6000612a12826129e5565b9050919050565b6000612a2482612a07565b9050919050565b612a3481612a19565b82525050565b6000602082019050612a4f6000830184612a2b565b92915050565b600081519050612a6481612683565b92915050565b600060208284031215612a8057612a7f612616565b5b6000612a8e84828501612a55565b91505092915050565b600082825260208201905092915050565b7f57726f6e6720616d6f756e740000000000000000000000000000000000000000600082015250565b6000612ade600c83612a97565b9150612ae982612aa8565b602082019050919050565b60006020820190508181036000830152612b0d81612ad1565b9050919050565b612b1d81612679565b82525050565b6000604082019050612b386000830185612837565b612b456020830184612b14565b9392505050565b600081519050612b5b81612928565b92915050565b600060208284031215612b7757612b76612616565b5b6000612b8584828501612b4c565b91505092915050565b7f506c6163654269643a206e6f7420706c61636564207965740000000000000000600082015250565b6000612bc4601883612a97565b9150612bcf82612b8e565b602082019050919050565b60006020820190508181036000830152612bf381612bb7565b9050919050565b7f4e6f742061626c6520746f2063616e63656c206265666f726520656e64730000600082015250565b6000612c30601e83612a97565b9150612c3b82612bfa565b602082019050919050565b60006020820190508181036000830152612c5f81612c23565b9050919050565b612c6f816126ef565b82525050565b6000606082019050612c8a6000830186612837565b612c976020830185612b14565b612ca46040830184612c66565b949350505050565b7f5061757365640000000000000000000000000000000000000000000000000000600082015250565b6000612ce2600683612a97565b9150612ced82612cac565b602082019050919050565b60006020820190508181036000830152612d1181612cd5565b9050919050565b6000602082019050612d2d6000830184612b14565b92915050565b600081519050612d428161264d565b92915050565b600060208284031215612d5e57612d5d612616565b5b6000612d6c84828501612d33565b91505092915050565b7f546f6b656e204f776e65723a20796f7520617265206e6f74206120746f6b656e60008201527f206f776e65720000000000000000000000000000000000000000000000000000602082015250565b6000612dd1602683612a97565b9150612ddc82612d75565b604082019050919050565b60006020820190508181036000830152612e0081612dc4565b9050919050565b7f54686973204e465420697320696e20626c61636b4c6973740000000000000000600082015250565b6000612e3d601883612a97565b9150612e4882612e07565b602082019050919050565b60006020820190508181036000830152612e6c81612e30565b9050919050565b7f41756374696f6e3a20746f6f2073686f727420706572696f6400000000000000600082015250565b6000612ea9601983612a97565b9150612eb482612e73565b602082019050919050565b60006020820190508181036000830152612ed881612e9c565b9050919050565b7f46697273742c20417070726f7665204e46540000000000000000000000000000600082015250565b6000612f15601283612a97565b9150612f2082612edf565b602082019050919050565b60006020820190508181036000830152612f4481612f08565b9050919050565b7f41756374696f6e3a206578697374000000000000000000000000000000000000600082015250565b6000612f81600e83612a97565b9150612f8c82612f4b565b602082019050919050565b60006020820190508181036000830152612fb081612f74565b9050919050565b7f4e487b7100000000000000000000000000000000000000000000000000000000600052601160045260246000fd5b6000612ff182612679565b9150612ffc83612679565b925082820190508082111561301457613013612fb7565b5b92915050565b6000613025826126ef565b9150613030836126ef565b9250828201905069ffffffffffffffffffff81111561305257613051612fb7565b5b92915050565b600060c08201905061306d6000830189612837565b61307a6020830188612b14565b6130876040830187612837565b6130946060830186612b14565b6130a16080830185612b14565b6130ae60a0830184612c66565b979650505050505050565b7f4163636570744269643a206e6f7420706c616365642079657400000000000000600082015250565b60006130ef601983612a97565b91506130fa826130b9565b602082019050919050565b6000602082019050818103600083015261311e816130e2565b9050919050565b7f4163636570744269643a2061756374696f6e20646f6573206e6f74206578697360008201527f7400000000000000000000000000000000000000000000000000000000000000602082015250565b6000613181602183612a97565b915061318c82613125565b604082019050919050565b600060208201905081810360008301526131b081613174565b9050919050565b7f4163636570744269643a20746f6f206f6c642062696400000000000000000000600082015250565b60006131ed601683612a97565b91506131f8826131b7565b602082019050919050565b6000602082019050818103600083015261321c816131e0565b9050919050565b7f506c6163654269643a2061756374696f6e20656e646564000000000000000000600082015250565b6000613259601783612a97565b915061326482613223565b602082019050919050565b600060208201905081810360008301526132888161324c565b9050919050565b60006060820190506132a46000830186612837565b6132b16020830185612837565b6132be6040830184612b14565b949350505050565b600060a0820190506132db6000830188612837565b6132e86020830187612b14565b6132f56040830186612837565b6133026060830185612837565b61330f6080830184612b14565b9695505050505050565b7f496e76616c6964206e6963686f6e6674206d61726b6574706c61636520636f6e60008201527f7472616374000000000000000000000000000000000000000000000000000000602082015250565b6000613375602583612a97565b915061338082613319565b604082019050919050565b600060208201905081810360008301526133a481613368565b9050919050565b7f4f776e61626c653a206e6577206f776e657220697320746865207a65726f206160008201527f6464726573730000000000000000000000000000000000000000000000000000602082015250565b6000613407602683612a97565b9150613412826133ab565b604082019050919050565b60006020820190508181036000830152613436816133fa565b9050919050565b7f4f776e61626c653a2063616c6c6572206973206e6f7420746865206f776e6572600082015250565b6000613473602083612a97565b915061347e8261343d565b602082019050919050565b600060208201905081810360008301526134a281613466565b9050919050565b60006040820190506134be6000830185612837565b6134cb6020830184612837565b9392505050565b7f506c6163654269643a2061756374696f6e20646f6573206e6f74206578697374600082015250565b6000613508602083612a97565b9150613513826134d2565b602082019050919050565b60006020820190508181036000830152613537816134fb565b9050919050565b7f546f6b656e206f776e65722063616e6e6f7420706c6163652062696400000000600082015250565b6000613574601c83612a97565b915061357f8261353e565b602082019050919050565b600060208201905081810360008301526135a381613567565b9050919050565b7f506c6163654269643a2063616e63656c2070726576696f7573206f6e65000000600082015250565b60006135e0601d83612a97565b91506135eb826135aa565b602082019050919050565b6000602082019050818103600083015261360f816135d3565b9050919050565b7f506c6163654269643a2073686f756c6420626520686967686572207072696365600082015250565b600061364c602083612a97565b915061365782613616565b602082019050919050565b6000602082019050818103600083015261367b8161363f565b9050919050565b60006080820190506136976000830187612837565b6136a46020830186612b14565b6136b16040830185612b14565b6136be6060830184612c66565b9594505050505056fea264697066735822122063a9c86a9542397874baa08d400729d8cdd0b8c615dcaf4e62e2c3c50e9a1c6964736f6c63430008110033",
  "linkReferences": {},
  "deployedLinkReferences": {}
}