{
  "_format": "hh-sol-artifact-1",
  "contractName": "NichoNFTAuction",
  "sourceName": "contracts/NichoNFTAuction.sol",
  "abi": [
    {
      "inputs": [
        {
          "internalType": "address",
          "name": "_blacklist",
          "type": "address"
        },
        {
          "internalType": "address",
          "name": "_nicho",
          "type": "address"
        },
        {
          "internalType": "contract INichoNFTMarketplace",
          "name": "_nichonftmarketplaceContract",
          "type": "address"
        }
      ],
      "stateMutability": "nonpayable",
      "type": "constructor"
    },
    {
      "anonymous": false,
      "inputs": [
        {
          "indexed": false,
          "internalType": "address",
          "name": "token_address",
          "type": "address"
        },
        {
          "indexed": false,
          "internalType": "uint256",
          "name": "token_id",
          "type": "uint256"
        },
        {
          "indexed": true,
          "internalType": "address",
          "name": "creator",
          "type": "address"
        },
        {
          "indexed": false,
          "internalType": "uint256",
          "name": "price",
          "type": "uint256"
        },
        {
          "indexed": false,
          "internalType": "enum IHelper.PayType",
          "name": "pay_type",
          "type": "uint8"
        },
        {
          "indexed": false,
          "internalType": "uint80",
          "name": "auction_id",
          "type": "uint80"
        }
      ],
      "name": "AuctionBids",
      "type": "event"
    },
    {
      "anonymous": false,
      "inputs": [
        {
          "indexed": false,
          "internalType": "address",
          "name": "token_address",
          "type": "address"
        },
        {
          "indexed": false,
          "internalType": "uint256",
          "name": "token_id",
          "type": "uint256"
        },
        {
          "indexed": true,
          "internalType": "address",
          "name": "creator",
          "type": "address"
        },
        {
          "indexed": false,
          "internalType": "uint80",
          "name": "auction_id",
          "type": "uint80"
        }
      ],
      "name": "BidCancels",
      "type": "event"
    },
    {
      "anonymous": false,
      "inputs": [
        {
          "indexed": true,
          "internalType": "address",
          "name": "previousOwner",
          "type": "address"
        },
        {
          "indexed": true,
          "internalType": "address",
          "name": "newOwner",
          "type": "address"
        }
      ],
      "name": "OwnershipTransferred",
      "type": "event"
    },
    {
      "inputs": [
        {
          "internalType": "address",
          "name": "tokenAddress",
          "type": "address"
        },
        {
          "internalType": "uint256",
          "name": "tokenId",
          "type": "uint256"
        },
        {
          "internalType": "address",
          "name": "bidder",
          "type": "address"
        }
      ],
      "name": "AcceptBid",
      "outputs": [],
      "stateMutability": "nonpayable",
      "type": "function"
    },
    {
      "inputs": [],
      "name": "blacklistContract",
      "outputs": [
        {
          "internalType": "contract INFTBlackList",
          "name": "",
          "type": "address"
        }
      ],
      "stateMutability": "view",
      "type": "function"
    },
    {
      "inputs": [
        {
          "internalType": "address",
          "name": "tokenAddress",
          "type": "address"
        },
        {
          "internalType": "uint256",
          "name": "tokenId",
          "type": "uint256"
        }
      ],
      "name": "cancelAuctionFromFixedSaleCreation",
      "outputs": [],
      "stateMutability": "nonpayable",
      "type": "function"
    },
    {
      "inputs": [
        {
          "internalType": "address",
          "name": "tokenAddress",
          "type": "address"
        },
        {
          "internalType": "uint256",
          "name": "tokenId",
          "type": "uint256"
        }
      ],
      "name": "cancelBid",
      "outputs": [],
      "stateMutability": "nonpayable",
      "type": "function"
    },
    {
      "inputs": [
        {
          "internalType": "address",
          "name": "tokenAddress",
          "type": "address"
        },
        {
          "internalType": "uint256",
          "name": "tokenId",
          "type": "uint256"
        },
        {
          "internalType": "uint256",
          "name": "startPrice",
          "type": "uint256"
        },
        {
          "internalType": "uint256",
          "name": "duration",
          "type": "uint256"
        },
        {
          "internalType": "enum IHelper.PayType",
          "name": "payType",
          "type": "uint8"
        }
      ],
      "name": "createAuction",
      "outputs": [],
      "stateMutability": "nonpayable",
      "type": "function"
    },
    {
      "inputs": [
        {
          "internalType": "address",
          "name": "tokenAddress",
          "type": "address"
        },
        {
          "internalType": "uint256",
          "name": "tokenId",
          "type": "uint256"
        }
      ],
      "name": "getAuctionItemInfo",
      "outputs": [
        {
          "components": [
            {
              "internalType": "uint80",
              "name": "id",
              "type": "uint80"
            },
            {
              "internalType": "address",
              "name": "creator",
              "type": "address"
            },
            {
              "internalType": "uint256",
              "name": "highPrice",
              "type": "uint256"
            },
            {
              "internalType": "uint256",
              "name": "expireTs",
              "type": "uint256"
            },
            {
              "internalType": "bool",
              "name": "isLive",
              "type": "bool"
            },
            {
              "internalType": "enum IHelper.PayType",
              "name": "payType",
              "type": "uint8"
            }
          ],
          "internalType": "struct MarketplaceHelper.AuctionItem",
          "name": "item",
          "type": "tuple"
        }
      ],
      "stateMutability": "view",
      "type": "function"
    },
    {
      "inputs": [
        {
          "internalType": "address",
          "name": "tokenAddress",
          "type": "address"
        },
        {
          "internalType": "uint256",
          "name": "tokenId",
          "type": "uint256"
        }
      ],
      "name": "getAuctionStatus",
      "outputs": [
        {
          "internalType": "bool",
          "name": "",
          "type": "bool"
        }
      ],
      "stateMutability": "view",
      "type": "function"
    },
    {
      "inputs": [
        {
          "internalType": "address",
          "name": "tokenAddress",
          "type": "address"
        },
        {
          "internalType": "uint256",
          "name": "tokenId",
          "type": "uint256"
        },
        {
          "internalType": "address",
          "name": "bidder",
          "type": "address"
        }
      ],
      "name": "getBidItemInfo",
      "outputs": [
        {
          "components": [
            {
              "internalType": "uint80",
              "name": "auctionId",
              "type": "uint80"
            },
            {
              "internalType": "uint256",
              "name": "price",
              "type": "uint256"
            },
            {
              "internalType": "enum IHelper.PayType",
              "name": "payType",
              "type": "uint8"
            }
          ],
          "internalType": "struct MarketplaceHelper.BidItem",
          "name": "item",
          "type": "tuple"
        }
      ],
      "stateMutability": "view",
      "type": "function"
    },
    {
      "inputs": [],
      "name": "nicho",
      "outputs": [
        {
          "internalType": "contract IERC20",
          "name": "",
          "type": "address"
        }
      ],
      "stateMutability": "view",
      "type": "function"
    },
    {
      "inputs": [],
      "name": "owner",
      "outputs": [
        {
          "internalType": "address",
          "name": "",
          "type": "address"
        }
      ],
      "stateMutability": "view",
      "type": "function"
    },
    {
      "inputs": [
        {
          "internalType": "address",
          "name": "tokenAddress",
          "type": "address"
        },
        {
          "internalType": "uint256",
          "name": "tokenId",
          "type": "uint256"
        }
      ],
      "name": "placeBid",
      "outputs": [],
      "stateMutability": "payable",
      "type": "function"
    },
    {
      "inputs": [
        {
          "internalType": "address",
          "name": "tokenAddress",
          "type": "address"
        },
        {
          "internalType": "uint256",
          "name": "tokenId",
          "type": "uint256"
        },
        {
          "internalType": "uint256",
          "name": "price",
          "type": "uint256"
        }
      ],
      "name": "placeBidWithNicho",
      "outputs": [],
      "stateMutability": "nonpayable",
      "type": "function"
    },
    {
      "inputs": [],
      "name": "renounceOwnership",
      "outputs": [],
      "stateMutability": "nonpayable",
      "type": "function"
    },
    {
      "inputs": [
        {
          "internalType": "address",
          "name": "newOwner",
          "type": "address"
        }
      ],
      "name": "transferOwnership",
      "outputs": [],
      "stateMutability": "nonpayable",
      "type": "function"
    },
    {
      "inputs": [
        {
          "internalType": "uint256",
          "name": "_amount",
          "type": "uint256"
        }
      ],
      "name": "withdrawETH",
      "outputs": [],
      "stateMutability": "nonpayable",
      "type": "function"
    },
    {
      "inputs": [
        {
          "internalType": "address",
          "name": "_token",
          "type": "address"
        },
        {
          "internalType": "uint256",
          "name": "_amount",
          "type": "uint256"
        }
      ],
      "name": "withdrawTokens",
      "outputs": [],
      "stateMutability": "nonpayable",
      "type": "function"
    },
    {
      "stateMutability": "payable",
      "type": "receive"
    }
  ],
  "bytecode": "0x60806040523480156200001157600080fd5b5060405162003c2338038062003c238339818101604052810190620000379190620002a2565b8282620000596200004d6200012760201b60201c565b6200012f60201b60201c565b81600160006101000a81548173ffffffffffffffffffffffffffffffffffffffff021916908373ffffffffffffffffffffffffffffffffffffffff16021790555080600260006101000a81548173ffffffffffffffffffffffffffffffffffffffff021916908373ffffffffffffffffffffffffffffffffffffffff160217905550505080600360006101000a81548173ffffffffffffffffffffffffffffffffffffffff021916908373ffffffffffffffffffffffffffffffffffffffff160217905550505050620002fe565b600033905090565b60008060009054906101000a900473ffffffffffffffffffffffffffffffffffffffff169050816000806101000a81548173ffffffffffffffffffffffffffffffffffffffff021916908373ffffffffffffffffffffffffffffffffffffffff1602179055508173ffffffffffffffffffffffffffffffffffffffff168173ffffffffffffffffffffffffffffffffffffffff167f8be0079c531659141344cd1fd0a4f28419497f9722a3daafe3b4186f6b6457e060405160405180910390a35050565b600080fd5b600073ffffffffffffffffffffffffffffffffffffffff82169050919050565b60006200022582620001f8565b9050919050565b620002378162000218565b81146200024357600080fd5b50565b60008151905062000257816200022c565b92915050565b60006200026a8262000218565b9050919050565b6200027c816200025d565b81146200028857600080fd5b50565b6000815190506200029c8162000271565b92915050565b600080600060608486031215620002be57620002bd620001f3565b5b6000620002ce8682870162000246565b9350506020620002e18682870162000246565b9250506040620002f4868287016200028b565b9150509250925092565b613915806200030e6000396000f3fe6080604052600436106100f75760003560e01c80639a621a421161008a578063f14210a611610059578063f14210a6146102fc578063f2fde38b14610325578063f3e1a4df1461034e578063f8a206fa14610379576100fe565b80639a621a4214610251578063a1152fe61461028e578063c53d0acc146102b7578063d98b9bb5146102e0576100fe565b8063484cdff8116100c6578063484cdff8146101bb5780636dd6078d146101e4578063715018a61461020f5780638da5cb5b14610226576100fe565b806306b091f914610103578063169b8b871461012c57806339b6b1e5146101695780634479b34414610192576100fe565b366100fe57005b600080fd5b34801561010f57600080fd5b5061012a600480360381019061012591906127b1565b6103b6565b005b34801561013857600080fd5b50610153600480360381019061014e91906127b1565b6104fd565b6040516101609190612941565b60405180910390f35b34801561017557600080fd5b50610190600480360381019061018b91906127b1565b610660565b005b34801561019e57600080fd5b506101b960048036038101906101b49190612981565b6108d6565b005b3480156101c757600080fd5b506101e260048036038101906101dd91906129fc565b610eaa565b005b3480156101f057600080fd5b506101f961178f565b6040516102069190612aae565b60405180910390f35b34801561021b57600080fd5b506102246117b5565b005b34801561023257600080fd5b5061023b6117c9565b6040516102489190612ad8565b60405180910390f35b34801561025d57600080fd5b50610278600480360381019061027391906129fc565b6117f2565b6040516102859190612b35565b60405180910390f35b34801561029a57600080fd5b506102b560048036038101906102b09190612b50565b611918565b005b3480156102c357600080fd5b506102de60048036038101906102d991906127b1565b611a0a565b005b6102fa60048036038101906102f591906127b1565b611b10565b005b34801561030857600080fd5b50610323600480360381019061031e9190612ba3565b611b21565b005b34801561033157600080fd5b5061034c60048036038101906103479190612bd0565b611bb6565b005b34801561035a57600080fd5b50610363611c39565b6040516103709190612c1e565b60405180910390f35b34801561038557600080fd5b506103a0600480360381019061039b91906127b1565b611c5f565b6040516103ad9190612c48565b60405180910390f35b6103be611cca565b808273ffffffffffffffffffffffffffffffffffffffff166370a08231306040518263ffffffff1660e01b81526004016103f89190612ad8565b602060405180830381865afa158015610415573d6000803e3d6000fd5b505050506040513d601f19601f820116820180604052508101906104399190612c78565b101561047a576040517f08c379a000000000000000000000000000000000000000000000000000000000815260040161047190612d02565b60405180910390fd5b8173ffffffffffffffffffffffffffffffffffffffff1663a9059cbb33836040518363ffffffff1660e01b81526004016104b5929190612d31565b6020604051808303816000875af11580156104d4573d6000803e3d6000fd5b505050506040513d601f19601f820116820180604052508101906104f89190612d86565b505050565b61050561266d565b600460008473ffffffffffffffffffffffffffffffffffffffff1673ffffffffffffffffffffffffffffffffffffffff16815260200190815260200160002060008381526020019081526020016000206040518060c00160405290816000820160009054906101000a900469ffffffffffffffffffff1669ffffffffffffffffffff1669ffffffffffffffffffff16815260200160008201600a9054906101000a900473ffffffffffffffffffffffffffffffffffffffff1673ffffffffffffffffffffffffffffffffffffffff1673ffffffffffffffffffffffffffffffffffffffff16815260200160018201548152602001600282015481526020016003820160009054906101000a900460ff161515151581526020016003820160019054906101000a900460ff1660028111156106425761064161284f565b5b60028111156106545761065361284f565b5b81525050905092915050565b600082905060008290506000600560008473ffffffffffffffffffffffffffffffffffffffff1673ffffffffffffffffffffffffffffffffffffffff168152602001908152602001600020600083815260200190815260200160002060003373ffffffffffffffffffffffffffffffffffffffff1673ffffffffffffffffffffffffffffffffffffffff16815260200190815260200160002060010154905060008111610742576040517f08c379a000000000000000000000000000000000000000000000000000000000815260040161073990612dff565b60405180910390fd5b6000600560008573ffffffffffffffffffffffffffffffffffffffff1673ffffffffffffffffffffffffffffffffffffffff168152602001908152602001600020600084815260200190815260200160002060003373ffffffffffffffffffffffffffffffffffffffff1673ffffffffffffffffffffffffffffffffffffffff168152602001908152602001600020905060008160010181905550600160028111156107f1576107f061284f565b5b8160020160009054906101000a900460ff1660028111156108155761081461284f565b5b03610862573373ffffffffffffffffffffffffffffffffffffffff166108fc839081150290604051600060405180830381858888f19350505050158015610860573d6000803e3d6000fd5b505b3373ffffffffffffffffffffffffffffffffffffffff167fa648ffb6090f011dd7ec070ddfe4a72e1d9802ea59ba8aec622c9dec4f89ba8385858460000160009054906101000a900469ffffffffffffffffffff166040516108c693929190612e2e565b60405180910390a2505050505050565b848460008273ffffffffffffffffffffffffffffffffffffffff16636352211e836040518263ffffffff1660e01b81526004016109139190612e65565b602060405180830381865afa158015610930573d6000803e3d6000fd5b505050506040513d601f19601f820116820180604052508101906109549190612e95565b90503373ffffffffffffffffffffffffffffffffffffffff168173ffffffffffffffffffffffffffffffffffffffff16146109c4576040517f08c379a00000000000000000000000000000000000000000000000000000000081526004016109bb90612f34565b60405180910390fd5b878760001515600160009054906101000a900473ffffffffffffffffffffffffffffffffffffffff1673ffffffffffffffffffffffffffffffffffffffff1663c1db0dce84846040518363ffffffff1660e01b8152600401610a27929190612d31565b602060405180830381865afa158015610a44573d6000803e3d6000fd5b505050506040513d601f19601f82011682018060405250810190610a689190612d86565b151514610aaa576040517f08c379a0000000000000000000000000000000000000000000000000000000008152600401610aa190612fa0565b60405180910390fd5b60008a905060008a905060008a90506000899050601e8b1015610b02576040517f08c379a0000000000000000000000000000000000000000000000000000000008152600401610af99061300c565b60405180910390fd5b610b0c8484611d48565b610b4b576040517f08c379a0000000000000000000000000000000000000000000000000000000008152600401610b4290613078565b60405180910390fd5b6000600460008673ffffffffffffffffffffffffffffffffffffffff1673ffffffffffffffffffffffffffffffffffffffff1681526020019081526020016000206000858152602001908152602001600020905080600001600a9054906101000a900473ffffffffffffffffffffffffffffffffffffffff1673ffffffffffffffffffffffffffffffffffffffff163373ffffffffffffffffffffffffffffffffffffffff16141580610c135750600015158160030160009054906101000a900460ff161515145b80610c22575042816002015411155b610c61576040517f08c379a0000000000000000000000000000000000000000000000000000000008152600401610c58906130e4565b60405180910390fd5b60008c42610c6f9190613133565b905060008260000160009054906101000a900469ffffffffffffffffffff1690506000600182610c9f9190613167565b9050808460000160006101000a81548169ffffffffffffffffffff021916908369ffffffffffffffffffff16021790555085846001018190555082846002018190555060018460030160006101000a81548160ff021916908315150217905550848460030160016101000a81548160ff02191690836002811115610d2657610d2561284f565b5b02179055503384600001600a6101000a81548173ffffffffffffffffffffffffffffffffffffffff021916908373ffffffffffffffffffffffffffffffffffffffff160217905550600360009054906101000a900473ffffffffffffffffffffffffffffffffffffffff1673ffffffffffffffffffffffffffffffffffffffff1663c22d690889896040518363ffffffff1660e01b8152600401610dcb929190612d31565b600060405180830381600087803b158015610de557600080fd5b505af1158015610df9573d6000803e3d6000fd5b50505050600360009054906101000a900473ffffffffffffffffffffffffffffffffffffffff1673ffffffffffffffffffffffffffffffffffffffff1663cf2d37688989338a8a89886040518863ffffffff1660e01b8152600401610e6497969594939291906131b4565b600060405180830381600087803b158015610e7e57600080fd5b505af1158015610e92573d6000803e3d6000fd5b50505050505050505050505050505050505050505050565b828260008273ffffffffffffffffffffffffffffffffffffffff16636352211e836040518263ffffffff1660e01b8152600401610ee79190612e65565b602060405180830381865afa158015610f04573d6000803e3d6000fd5b505050506040513d601f19601f82011682018060405250810190610f289190612e95565b90503373ffffffffffffffffffffffffffffffffffffffff168173ffffffffffffffffffffffffffffffffffffffff1614610f98576040517f08c379a0000000000000000000000000000000000000000000000000000000008152600401610f8f90612f34565b60405180910390fd5b858560001515600160009054906101000a900473ffffffffffffffffffffffffffffffffffffffff1673ffffffffffffffffffffffffffffffffffffffff1663c1db0dce84846040518363ffffffff1660e01b8152600401610ffb929190612d31565b602060405180830381865afa158015611018573d6000803e3d6000fd5b505050506040513d601f19601f8201168201806040525081019061103c9190612d86565b15151461107e576040517f08c379a000000000000000000000000000000000000000000000000000000000815260040161107590612fa0565b60405180910390fd5b6000889050600088905060008890506000600560008573ffffffffffffffffffffffffffffffffffffffff1673ffffffffffffffffffffffffffffffffffffffff168152602001908152602001600020600084815260200190815260200160002060008373ffffffffffffffffffffffffffffffffffffffff1673ffffffffffffffffffffffffffffffffffffffff1681526020019081526020016000206040518060600160405290816000820160009054906101000a900469ffffffffffffffffffff1669ffffffffffffffffffff1669ffffffffffffffffffff168152602001600182015481526020016002820160009054906101000a900460ff16600281111561118e5761118d61284f565b5b60028111156111a05761119f61284f565b5b81525050905060008160200151116111ed576040517f08c379a00000000000000000000000000000000000000000000000000000000081526004016111e49061326f565b60405180910390fd5b6000600460008673ffffffffffffffffffffffffffffffffffffffff1673ffffffffffffffffffffffffffffffffffffffff16815260200190815260200160002060008581526020019081526020016000206040518060c00160405290816000820160009054906101000a900469ffffffffffffffffffff1669ffffffffffffffffffff1669ffffffffffffffffffff16815260200160008201600a9054906101000a900473ffffffffffffffffffffffffffffffffffffffff1673ffffffffffffffffffffffffffffffffffffffff1673ffffffffffffffffffffffffffffffffffffffff16815260200160018201548152602001600282015481526020016003820160009054906101000a900460ff161515151581526020016003820160019054906101000a900460ff16600281111561132c5761132b61284f565b5b600281111561133e5761133d61284f565b5b8152505090508060800151611388576040517f08c379a000000000000000000000000000000000000000000000000000000000815260040161137f90613301565b60405180910390fd5b816000015169ffffffffffffffffffff16816000015169ffffffffffffffffffff16146113ea576040517f08c379a00000000000000000000000000000000000000000000000000000000081526004016113e19061336d565b60405180910390fd5b4281606001511015611431576040517f08c379a0000000000000000000000000000000000000000000000000000000008152600401611428906133d9565b60405180910390fd5b6000600460008773ffffffffffffffffffffffffffffffffffffffff1673ffffffffffffffffffffffffffffffffffffffff1681526020019081526020016000206000868152602001908152602001600020905060008160030160006101000a81548160ff0219169083151502179055506000600560008873ffffffffffffffffffffffffffffffffffffffff1673ffffffffffffffffffffffffffffffffffffffff168152602001908152602001600020600087815260200190815260200160002060008673ffffffffffffffffffffffffffffffffffffffff1673ffffffffffffffffffffffffffffffffffffffff1681526020019081526020016000209050600081600101549050600082600101819055508773ffffffffffffffffffffffffffffffffffffffff166323b872dd33888a6040518463ffffffff1660e01b8152600401611583939291906133f9565b600060405180830381600087803b15801561159d57600080fd5b505af11580156115b1573d6000803e3d6000fd5b50505050600160028111156115c9576115c861284f565b5b8260020160009054906101000a900460ff1660028111156115ed576115ec61284f565b5b0361163e573373ffffffffffffffffffffffffffffffffffffffff166108fc829081150290604051600060405180830381858888f19350505050158015611638573d6000803e3d6000fd5b506116e2565b600260009054906101000a900473ffffffffffffffffffffffffffffffffffffffff1673ffffffffffffffffffffffffffffffffffffffff166323b872dd8f33846040518463ffffffff1660e01b815260040161169d939291906133f9565b6020604051808303816000875af11580156116bc573d6000803e3d6000fd5b505050506040513d601f19601f820116820180604052508101906116e09190612d86565b505b600360009054906101000a900473ffffffffffffffffffffffffffffffffffffffff1673ffffffffffffffffffffffffffffffffffffffff1663c1a4bd828989338a868b604001516040518763ffffffff1660e01b815260040161174b96959493929190613430565b600060405180830381600087803b15801561176557600080fd5b505af1158015611779573d6000803e3d6000fd5b5050505050505050505050505050505050505050565b600260009054906101000a900473ffffffffffffffffffffffffffffffffffffffff1681565b6117bd611cca565b6117c76000611efb565b565b60008060009054906101000a900473ffffffffffffffffffffffffffffffffffffffff16905090565b6117fa6126d9565b600560008573ffffffffffffffffffffffffffffffffffffffff1673ffffffffffffffffffffffffffffffffffffffff168152602001908152602001600020600084815260200190815260200160002060008373ffffffffffffffffffffffffffffffffffffffff1673ffffffffffffffffffffffffffffffffffffffff1681526020019081526020016000206040518060600160405290816000820160009054906101000a900469ffffffffffffffffffff1669ffffffffffffffffffff1669ffffffffffffffffffff168152602001600182015481526020016002820160009054906101000a900460ff1660028111156118f9576118f861284f565b5b600281111561190b5761190a61284f565b5b8152505090509392505050565b80600260009054906101000a900473ffffffffffffffffffffffffffffffffffffffff1673ffffffffffffffffffffffffffffffffffffffff1663dd62ed3e33306040518363ffffffff1660e01b8152600401611976929190613491565b602060405180830381865afa158015611993573d6000803e3d6000fd5b505050506040513d601f19601f820116820180604052508101906119b79190612c78565b10156119f8576040517f08c379a00000000000000000000000000000000000000000000000000000000081526004016119ef9061352c565b60405180910390fd5b611a058383836002611fbf565b505050565b600360009054906101000a900473ffffffffffffffffffffffffffffffffffffffff1673ffffffffffffffffffffffffffffffffffffffff163373ffffffffffffffffffffffffffffffffffffffff1614611a9a576040517f08c379a0000000000000000000000000000000000000000000000000000000008152600401611a91906135be565b60405180910390fd5b6000600460008473ffffffffffffffffffffffffffffffffffffffff1673ffffffffffffffffffffffffffffffffffffffff1681526020019081526020016000206000838152602001908152602001600020905060008160030160006101000a81548160ff021916908315150217905550505050565b611b1d8282346001611fbf565b5050565b611b29611cca565b80471015611b6c576040517f08c379a0000000000000000000000000000000000000000000000000000000008152600401611b6390612d02565b60405180910390fd5b3373ffffffffffffffffffffffffffffffffffffffff166108fc829081150290604051600060405180830381858888f19350505050158015611bb2573d6000803e3d6000fd5b5050565b611bbe611cca565b600073ffffffffffffffffffffffffffffffffffffffff168173ffffffffffffffffffffffffffffffffffffffff1603611c2d576040517f08c379a0000000000000000000000000000000000000000000000000000000008152600401611c2490613650565b60405180910390fd5b611c3681611efb565b50565b600160009054906101000a900473ffffffffffffffffffffffffffffffffffffffff1681565b6000600460008473ffffffffffffffffffffffffffffffffffffffff1673ffffffffffffffffffffffffffffffffffffffff168152602001908152602001600020600083815260200190815260200160002060030160009054906101000a900460ff16905092915050565b611cd2612665565b73ffffffffffffffffffffffffffffffffffffffff16611cf06117c9565b73ffffffffffffffffffffffffffffffffffffffff1614611d46576040517f08c379a0000000000000000000000000000000000000000000000000000000008152600401611d3d906136bc565b60405180910390fd5b565b6000808390503073ffffffffffffffffffffffffffffffffffffffff168173ffffffffffffffffffffffffffffffffffffffff1663081812fc856040518263ffffffff1660e01b8152600401611d9e9190612e65565b602060405180830381865afa158015611dbb573d6000803e3d6000fd5b505050506040513d601f19601f82011682018060405250810190611ddf9190612e95565b73ffffffffffffffffffffffffffffffffffffffff161480611ef257508073ffffffffffffffffffffffffffffffffffffffff1663e985e9c58273ffffffffffffffffffffffffffffffffffffffff16636352211e866040518263ffffffff1660e01b8152600401611e519190612e65565b602060405180830381865afa158015611e6e573d6000803e3d6000fd5b505050506040513d601f19601f82011682018060405250810190611e929190612e95565b306040518363ffffffff1660e01b8152600401611eb0929190613491565b602060405180830381865afa158015611ecd573d6000803e3d6000fd5b505050506040513d601f19601f82011682018060405250810190611ef19190612d86565b5b91505092915050565b60008060009054906101000a900473ffffffffffffffffffffffffffffffffffffffff169050816000806101000a81548173ffffffffffffffffffffffffffffffffffffffff021916908373ffffffffffffffffffffffffffffffffffffffff1602179055508173ffffffffffffffffffffffffffffffffffffffff168173ffffffffffffffffffffffffffffffffffffffff167f8be0079c531659141344cd1fd0a4f28419497f9722a3daafe3b4186f6b6457e060405160405180910390a35050565b838360001515600160009054906101000a900473ffffffffffffffffffffffffffffffffffffffff1673ffffffffffffffffffffffffffffffffffffffff1663c1db0dce84846040518363ffffffff1660e01b8152600401612022929190612d31565b602060405180830381865afa15801561203f573d6000803e3d6000fd5b505050506040513d601f19601f820116820180604052508101906120639190612d86565b1515146120a5576040517f08c379a000000000000000000000000000000000000000000000000000000000815260040161209c90612fa0565b60405180910390fd5b6000869050600086905060008690506000600460008573ffffffffffffffffffffffffffffffffffffffff1673ffffffffffffffffffffffffffffffffffffffff16815260200190815260200160002060008481526020019081526020016000206040518060c00160405290816000820160009054906101000a900469ffffffffffffffffffff1669ffffffffffffffffffff1669ffffffffffffffffffff16815260200160008201600a9054906101000a900473ffffffffffffffffffffffffffffffffffffffff1673ffffffffffffffffffffffffffffffffffffffff1673ffffffffffffffffffffffffffffffffffffffff16815260200160018201548152602001600282015481526020016003820160009054906101000a900460ff161515151581526020016003820160019054906101000a900460ff1660028111156121f3576121f261284f565b5b60028111156122055761220461284f565b5b8152505090506000600560008673ffffffffffffffffffffffffffffffffffffffff1673ffffffffffffffffffffffffffffffffffffffff168152602001908152602001600020600085815260200190815260200160002060003373ffffffffffffffffffffffffffffffffffffffff1673ffffffffffffffffffffffffffffffffffffffff1681526020019081526020016000206040518060600160405290816000820160009054906101000a900469ffffffffffffffffffff1669ffffffffffffffffffff1669ffffffffffffffffffff168152602001600182015481526020016002820160009054906101000a900460ff16600281111561230c5761230b61284f565b5b600281111561231e5761231d61284f565b5b8152505090508760028111156123375761233661284f565b5b8260a00151600281111561234e5761234d61284f565b5b1461238e576040517f08c379a000000000000000000000000000000000000000000000000000000000815260040161238590613728565b60405180910390fd5b60008160200151146123d5576040517f08c379a00000000000000000000000000000000000000000000000000000000081526004016123cc90613794565b60405180910390fd5b8160800151612419576040517f08c379a000000000000000000000000000000000000000000000000000000000815260040161241090613800565b60405180910390fd5b4282606001511015612460576040517f08c379a0000000000000000000000000000000000000000000000000000000008152600401612457906133d9565b60405180910390fd5b888260400151106124a6576040517f08c379a000000000000000000000000000000000000000000000000000000000815260040161249d9061386c565b60405180910390fd5b6000600460008773ffffffffffffffffffffffffffffffffffffffff1673ffffffffffffffffffffffffffffffffffffffff168152602001908152602001600020600086815260200190815260200160002090508381600101819055506000600560008873ffffffffffffffffffffffffffffffffffffffff1673ffffffffffffffffffffffffffffffffffffffff168152602001908152602001600020600087815260200190815260200160002060003373ffffffffffffffffffffffffffffffffffffffff1673ffffffffffffffffffffffffffffffffffffffff168152602001908152602001600020905083600001518160000160006101000a81548169ffffffffffffffffffff021916908369ffffffffffffffffffff160217905550898160020160006101000a81548160ff021916908360028111156125ee576125ed61284f565b5b02179055508481600101819055503373ffffffffffffffffffffffffffffffffffffffff167fb3def9e7dd7261df1900de73d1e3291eedc1094878a2ffa50f7432c8a7edba9f8888888e896000015160405161264e95949392919061388c565b60405180910390a250505050505050505050505050565b600033905090565b6040518060c00160405280600069ffffffffffffffffffff168152602001600073ffffffffffffffffffffffffffffffffffffffff1681526020016000815260200160008152602001600015158152602001600060028111156126d3576126d261284f565b5b81525090565b6040518060600160405280600069ffffffffffffffffffff16815260200160008152602001600060028111156127125761271161284f565b5b81525090565b600080fd5b600073ffffffffffffffffffffffffffffffffffffffff82169050919050565b60006127488261271d565b9050919050565b6127588161273d565b811461276357600080fd5b50565b6000813590506127758161274f565b92915050565b6000819050919050565b61278e8161277b565b811461279957600080fd5b50565b6000813590506127ab81612785565b92915050565b600080604083850312156127c8576127c7612718565b5b60006127d685828601612766565b92505060206127e78582860161279c565b9150509250929050565b600069ffffffffffffffffffff82169050919050565b612810816127f1565b82525050565b61281f8161273d565b82525050565b61282e8161277b565b82525050565b60008115159050919050565b61284981612834565b82525050565b7f4e487b7100000000000000000000000000000000000000000000000000000000600052602160045260246000fd5b6003811061288f5761288e61284f565b5b50565b60008190506128a08261287e565b919050565b60006128b082612892565b9050919050565b6128c0816128a5565b82525050565b60c0820160008201516128dc6000850182612807565b5060208201516128ef6020850182612816565b5060408201516129026040850182612825565b5060608201516129156060850182612825565b5060808201516129286080850182612840565b5060a082015161293b60a08501826128b7565b50505050565b600060c08201905061295660008301846128c6565b92915050565b6003811061296957600080fd5b50565b60008135905061297b8161295c565b92915050565b600080600080600060a0868803121561299d5761299c612718565b5b60006129ab88828901612766565b95505060206129bc8882890161279c565b94505060406129cd8882890161279c565b93505060606129de8882890161279c565b92505060806129ef8882890161296c565b9150509295509295909350565b600080600060608486031215612a1557612a14612718565b5b6000612a2386828701612766565b9350506020612a348682870161279c565b9250506040612a4586828701612766565b9150509250925092565b6000819050919050565b6000612a74612a6f612a6a8461271d565b612a4f565b61271d565b9050919050565b6000612a8682612a59565b9050919050565b6000612a9882612a7b565b9050919050565b612aa881612a8d565b82525050565b6000602082019050612ac36000830184612a9f565b92915050565b612ad28161273d565b82525050565b6000602082019050612aed6000830184612ac9565b92915050565b606082016000820151612b096000850182612807565b506020820151612b1c6020850182612825565b506040820151612b2f60408501826128b7565b50505050565b6000606082019050612b4a6000830184612af3565b92915050565b600080600060608486031215612b6957612b68612718565b5b6000612b7786828701612766565b9350506020612b888682870161279c565b9250506040612b998682870161279c565b9150509250925092565b600060208284031215612bb957612bb8612718565b5b6000612bc78482850161279c565b91505092915050565b600060208284031215612be657612be5612718565b5b6000612bf484828501612766565b91505092915050565b6000612c0882612a7b565b9050919050565b612c1881612bfd565b82525050565b6000602082019050612c336000830184612c0f565b92915050565b612c4281612834565b82525050565b6000602082019050612c5d6000830184612c39565b92915050565b600081519050612c7281612785565b92915050565b600060208284031215612c8e57612c8d612718565b5b6000612c9c84828501612c63565b91505092915050565b600082825260208201905092915050565b7f57726f6e6720616d6f756e740000000000000000000000000000000000000000600082015250565b6000612cec600c83612ca5565b9150612cf782612cb6565b602082019050919050565b60006020820190508181036000830152612d1b81612cdf565b9050919050565b612d2b8161277b565b82525050565b6000604082019050612d466000830185612ac9565b612d536020830184612d22565b9392505050565b612d6381612834565b8114612d6e57600080fd5b50565b600081519050612d8081612d5a565b92915050565b600060208284031215612d9c57612d9b612718565b5b6000612daa84828501612d71565b91505092915050565b7f506c6163654269643a206e6f7420706c61636564207965740000000000000000600082015250565b6000612de9601883612ca5565b9150612df482612db3565b602082019050919050565b60006020820190508181036000830152612e1881612ddc565b9050919050565b612e28816127f1565b82525050565b6000606082019050612e436000830186612ac9565b612e506020830185612d22565b612e5d6040830184612e1f565b949350505050565b6000602082019050612e7a6000830184612d22565b92915050565b600081519050612e8f8161274f565b92915050565b600060208284031215612eab57612eaa612718565b5b6000612eb984828501612e80565b91505092915050565b7f546f6b656e204f776e65723a20796f7520617265206e6f74206120746f6b656e60008201527f206f776e65720000000000000000000000000000000000000000000000000000602082015250565b6000612f1e602683612ca5565b9150612f2982612ec2565b604082019050919050565b60006020820190508181036000830152612f4d81612f11565b9050919050565b7f54686973204e465420697320696e20626c61636b4c6973740000000000000000600082015250565b6000612f8a601883612ca5565b9150612f9582612f54565b602082019050919050565b60006020820190508181036000830152612fb981612f7d565b9050919050565b7f41756374696f6e3a20746f6f2073686f727420706572696f6400000000000000600082015250565b6000612ff6601983612ca5565b915061300182612fc0565b602082019050919050565b6000602082019050818103600083015261302581612fe9565b9050919050565b7f46697273742c20417070726f7665204e46540000000000000000000000000000600082015250565b6000613062601283612ca5565b915061306d8261302c565b602082019050919050565b6000602082019050818103600083015261309181613055565b9050919050565b7f41756374696f6e3a206578697374000000000000000000000000000000000000600082015250565b60006130ce600e83612ca5565b91506130d982613098565b602082019050919050565b600060208201905081810360008301526130fd816130c1565b9050919050565b7f4e487b7100000000000000000000000000000000000000000000000000000000600052601160045260246000fd5b600061313e8261277b565b91506131498361277b565b925082820190508082111561316157613160613104565b5b92915050565b6000613172826127f1565b915061317d836127f1565b9250828201905069ffffffffffffffffffff81111561319f5761319e613104565b5b92915050565b6131ae816128a5565b82525050565b600060e0820190506131c9600083018a612ac9565b6131d66020830189612d22565b6131e36040830188612ac9565b6131f06060830187612d22565b6131fd60808301866131a5565b61320a60a0830185612d22565b61321760c0830184612e1f565b98975050505050505050565b7f4163636570744269643a206e6f7420706c616365642079657400000000000000600082015250565b6000613259601983612ca5565b915061326482613223565b602082019050919050565b600060208201905081810360008301526132888161324c565b9050919050565b7f4163636570744269643a2061756374696f6e20646f6573206e6f74206578697360008201527f7400000000000000000000000000000000000000000000000000000000000000602082015250565b60006132eb602183612ca5565b91506132f68261328f565b604082019050919050565b6000602082019050818103600083015261331a816132de565b9050919050565b7f4163636570744269643a20746f6f206f6c642062696400000000000000000000600082015250565b6000613357601683612ca5565b915061336282613321565b602082019050919050565b600060208201905081810360008301526133868161334a565b9050919050565b7f506c6163654269643a2061756374696f6e20656e646564000000000000000000600082015250565b60006133c3601783612ca5565b91506133ce8261338d565b602082019050919050565b600060208201905081810360008301526133f2816133b6565b9050919050565b600060608201905061340e6000830186612ac9565b61341b6020830185612ac9565b6134286040830184612d22565b949350505050565b600060c0820190506134456000830189612ac9565b6134526020830188612d22565b61345f6040830187612ac9565b61346c6060830186612ac9565b6134796080830185612d22565b61348660a08301846131a5565b979650505050505050565b60006040820190506134a66000830185612ac9565b6134b36020830184612ac9565b9392505050565b7f506c616365426964576974684e6963686f3a20696e63726561736520616c6c6f60008201527f77616e6365000000000000000000000000000000000000000000000000000000602082015250565b6000613516602583612ca5565b9150613521826134ba565b604082019050919050565b6000602082019050818103600083015261354581613509565b9050919050565b7f496e76616c6964206e6963686f6e6674206d61726b6574706c61636520636f6e60008201527f7472616374000000000000000000000000000000000000000000000000000000602082015250565b60006135a8602583612ca5565b91506135b38261354c565b604082019050919050565b600060208201905081810360008301526135d78161359b565b9050919050565b7f4f776e61626c653a206e6577206f776e657220697320746865207a65726f206160008201527f6464726573730000000000000000000000000000000000000000000000000000602082015250565b600061363a602683612ca5565b9150613645826135de565b604082019050919050565b600060208201905081810360008301526136698161362d565b9050919050565b7f4f776e61626c653a2063616c6c6572206973206e6f7420746865206f776e6572600082015250565b60006136a6602083612ca5565b91506136b182613670565b602082019050919050565b600060208201905081810360008301526136d581613699565b9050919050565b7f506c6163654269643a20696e76616c6964207061792074797065000000000000600082015250565b6000613712601a83612ca5565b915061371d826136dc565b602082019050919050565b6000602082019050818103600083015261374181613705565b9050919050565b7f506c6163654269643a2063616e63656c2070726576696f7573206f6e65000000600082015250565b600061377e601d83612ca5565b915061378982613748565b602082019050919050565b600060208201905081810360008301526137ad81613771565b9050919050565b7f506c6163654269643a2061756374696f6e20646f6573206e6f74206578697374600082015250565b60006137ea602083612ca5565b91506137f5826137b4565b602082019050919050565b60006020820190508181036000830152613819816137dd565b9050919050565b7f506c6163654269643a2073686f756c6420626520686967686572207072696365600082015250565b6000613856602083612ca5565b915061386182613820565b602082019050919050565b6000602082019050818103600083015261388581613849565b9050919050565b600060a0820190506138a16000830188612ac9565b6138ae6020830187612d22565b6138bb6040830186612d22565b6138c860608301856131a5565b6138d56080830184612e1f565b969550505050505056fea2646970667358221220bb2b1daa3c6e7f2417362e6205bd383d7cc9bfc0c8b40002d95453984ff468a064736f6c63430008110033",
  "linkReferences": {},
  "deployedLinkReferences": {}
}