{
  "_format": "hh-sol-artifact-1",
  "contractName": "NichoNFTAuction",
  "sourceName": "contracts/NichoNFTAuction.sol",
  "abi": [
    {
      "inputs": [
        {
          "internalType": "address",
          "name": "_blacklist",
          "type": "address"
        },
        {
          "internalType": "address",
          "name": "_nicho",
          "type": "address"
        },
        {
          "internalType": "contract INichoNFTMarketplace",
          "name": "_nichonftmarketplaceContract",
          "type": "address"
        }
      ],
      "stateMutability": "nonpayable",
      "type": "constructor"
    },
    {
      "anonymous": false,
      "inputs": [
        {
          "indexed": false,
          "internalType": "address",
          "name": "token_address",
          "type": "address"
        },
        {
          "indexed": false,
          "internalType": "uint256",
          "name": "token_id",
          "type": "uint256"
        },
        {
          "indexed": true,
          "internalType": "address",
          "name": "creator",
          "type": "address"
        },
        {
          "indexed": false,
          "internalType": "uint256",
          "name": "price",
          "type": "uint256"
        },
        {
          "indexed": false,
          "internalType": "enum IHelper.PayType",
          "name": "pay_type",
          "type": "uint8"
        },
        {
          "indexed": false,
          "internalType": "uint80",
          "name": "auction_id",
          "type": "uint80"
        }
      ],
      "name": "AuctionBids",
      "type": "event"
    },
    {
      "anonymous": false,
      "inputs": [
        {
          "indexed": false,
          "internalType": "address",
          "name": "token_address",
          "type": "address"
        },
        {
          "indexed": false,
          "internalType": "uint256",
          "name": "token_id",
          "type": "uint256"
        },
        {
          "indexed": true,
          "internalType": "address",
          "name": "creator",
          "type": "address"
        },
        {
          "indexed": false,
          "internalType": "uint80",
          "name": "auction_id",
          "type": "uint80"
        }
      ],
      "name": "BidCancels",
      "type": "event"
    },
    {
      "anonymous": false,
      "inputs": [
        {
          "indexed": true,
          "internalType": "address",
          "name": "previousOwner",
          "type": "address"
        },
        {
          "indexed": true,
          "internalType": "address",
          "name": "newOwner",
          "type": "address"
        }
      ],
      "name": "OwnershipTransferred",
      "type": "event"
    },
    {
      "inputs": [
        {
          "internalType": "address",
          "name": "tokenAddress",
          "type": "address"
        },
        {
          "internalType": "uint256",
          "name": "tokenId",
          "type": "uint256"
        },
        {
          "internalType": "address",
          "name": "bidder",
          "type": "address"
        }
      ],
      "name": "acceptBid",
      "outputs": [],
      "stateMutability": "nonpayable",
      "type": "function"
    },
    {
      "inputs": [],
      "name": "blacklistContract",
      "outputs": [
        {
          "internalType": "contract INFTBlackList",
          "name": "",
          "type": "address"
        }
      ],
      "stateMutability": "view",
      "type": "function"
    },
    {
      "inputs": [
        {
          "internalType": "address",
          "name": "tokenAddress",
          "type": "address"
        },
        {
          "internalType": "uint256",
          "name": "tokenId",
          "type": "uint256"
        }
      ],
      "name": "cancelAuctionFromFixedSaleCreation",
      "outputs": [],
      "stateMutability": "nonpayable",
      "type": "function"
    },
    {
      "inputs": [
        {
          "internalType": "address",
          "name": "tokenAddress",
          "type": "address"
        },
        {
          "internalType": "uint256",
          "name": "tokenId",
          "type": "uint256"
        }
      ],
      "name": "cancelBid",
      "outputs": [],
      "stateMutability": "nonpayable",
      "type": "function"
    },
    {
      "inputs": [
        {
          "internalType": "address",
          "name": "tokenAddress",
          "type": "address"
        },
        {
          "internalType": "uint256",
          "name": "tokenId",
          "type": "uint256"
        },
        {
          "internalType": "uint256",
          "name": "startPrice",
          "type": "uint256"
        },
        {
          "internalType": "uint256",
          "name": "duration",
          "type": "uint256"
        },
        {
          "internalType": "enum IHelper.PayType",
          "name": "payType",
          "type": "uint8"
        }
      ],
      "name": "createAuction",
      "outputs": [],
      "stateMutability": "nonpayable",
      "type": "function"
    },
    {
      "inputs": [
        {
          "internalType": "address",
          "name": "tokenAddress",
          "type": "address"
        },
        {
          "internalType": "uint256",
          "name": "tokenId",
          "type": "uint256"
        }
      ],
      "name": "getAuctionItemInfo",
      "outputs": [
        {
          "components": [
            {
              "internalType": "uint80",
              "name": "id",
              "type": "uint80"
            },
            {
              "internalType": "address",
              "name": "creator",
              "type": "address"
            },
            {
              "internalType": "uint256",
              "name": "highPrice",
              "type": "uint256"
            },
            {
              "internalType": "uint256",
              "name": "expireTs",
              "type": "uint256"
            },
            {
              "internalType": "bool",
              "name": "isLive",
              "type": "bool"
            },
            {
              "internalType": "enum IHelper.PayType",
              "name": "payType",
              "type": "uint8"
            }
          ],
          "internalType": "struct MarketplaceHelper.AuctionItem",
          "name": "item",
          "type": "tuple"
        }
      ],
      "stateMutability": "view",
      "type": "function"
    },
    {
      "inputs": [
        {
          "internalType": "address",
          "name": "tokenAddress",
          "type": "address"
        },
        {
          "internalType": "uint256",
          "name": "tokenId",
          "type": "uint256"
        }
      ],
      "name": "getAuctionStatus",
      "outputs": [
        {
          "internalType": "bool",
          "name": "",
          "type": "bool"
        }
      ],
      "stateMutability": "view",
      "type": "function"
    },
    {
      "inputs": [
        {
          "internalType": "address",
          "name": "tokenAddress",
          "type": "address"
        },
        {
          "internalType": "uint256",
          "name": "tokenId",
          "type": "uint256"
        },
        {
          "internalType": "address",
          "name": "bidder",
          "type": "address"
        }
      ],
      "name": "getBidItemInfo",
      "outputs": [
        {
          "components": [
            {
              "internalType": "uint80",
              "name": "auctionId",
              "type": "uint80"
            },
            {
              "internalType": "uint256",
              "name": "price",
              "type": "uint256"
            },
            {
              "internalType": "enum IHelper.PayType",
              "name": "payType",
              "type": "uint8"
            }
          ],
          "internalType": "struct MarketplaceHelper.BidItem",
          "name": "item",
          "type": "tuple"
        }
      ],
      "stateMutability": "view",
      "type": "function"
    },
    {
      "inputs": [],
      "name": "isPaused",
      "outputs": [
        {
          "internalType": "bool",
          "name": "",
          "type": "bool"
        }
      ],
      "stateMutability": "view",
      "type": "function"
    },
    {
      "inputs": [],
      "name": "nicho",
      "outputs": [
        {
          "internalType": "contract IERC20",
          "name": "",
          "type": "address"
        }
      ],
      "stateMutability": "view",
      "type": "function"
    },
    {
      "inputs": [],
      "name": "owner",
      "outputs": [
        {
          "internalType": "address",
          "name": "",
          "type": "address"
        }
      ],
      "stateMutability": "view",
      "type": "function"
    },
    {
      "inputs": [
        {
          "internalType": "bool",
          "name": "_pause",
          "type": "bool"
        }
      ],
      "name": "pause",
      "outputs": [],
      "stateMutability": "nonpayable",
      "type": "function"
    },
    {
      "inputs": [
        {
          "internalType": "address",
          "name": "tokenAddress",
          "type": "address"
        },
        {
          "internalType": "uint256",
          "name": "tokenId",
          "type": "uint256"
        }
      ],
      "name": "placeBid",
      "outputs": [],
      "stateMutability": "payable",
      "type": "function"
    },
    {
      "inputs": [
        {
          "internalType": "address",
          "name": "tokenAddress",
          "type": "address"
        },
        {
          "internalType": "uint256",
          "name": "tokenId",
          "type": "uint256"
        },
        {
          "internalType": "uint256",
          "name": "price",
          "type": "uint256"
        }
      ],
      "name": "placeBidWithNicho",
      "outputs": [],
      "stateMutability": "nonpayable",
      "type": "function"
    },
    {
      "inputs": [],
      "name": "renounceOwnership",
      "outputs": [],
      "stateMutability": "nonpayable",
      "type": "function"
    },
    {
      "inputs": [
        {
          "internalType": "bool",
          "name": "_value",
          "type": "bool"
        }
      ],
      "name": "setPause",
      "outputs": [],
      "stateMutability": "nonpayable",
      "type": "function"
    },
    {
      "inputs": [
        {
          "internalType": "address",
          "name": "newOwner",
          "type": "address"
        }
      ],
      "name": "transferOwnership",
      "outputs": [],
      "stateMutability": "nonpayable",
      "type": "function"
    },
    {
      "inputs": [
        {
          "internalType": "uint256",
          "name": "_amount",
          "type": "uint256"
        }
      ],
      "name": "withdrawETH",
      "outputs": [],
      "stateMutability": "nonpayable",
      "type": "function"
    },
    {
      "inputs": [
        {
          "internalType": "address",
          "name": "_token",
          "type": "address"
        },
        {
          "internalType": "uint256",
          "name": "_amount",
          "type": "uint256"
        }
      ],
      "name": "withdrawTokens",
      "outputs": [],
      "stateMutability": "nonpayable",
      "type": "function"
    },
    {
      "stateMutability": "payable",
      "type": "receive"
    }
  ],
  "bytecode": "0x60806040523480156200001157600080fd5b5060405162004188380380620041888339818101604052810190620000379190620002bc565b8282620000596200004d6200014160201b60201c565b6200014960201b60201c565b81600160006101000a81548173ffffffffffffffffffffffffffffffffffffffff021916908373ffffffffffffffffffffffffffffffffffffffff16021790555080600260006101000a81548173ffffffffffffffffffffffffffffffffffffffff021916908373ffffffffffffffffffffffffffffffffffffffff16021790555060008060146101000a81548160ff021916908315150217905550505080600360006101000a81548173ffffffffffffffffffffffffffffffffffffffff021916908373ffffffffffffffffffffffffffffffffffffffff16021790555050505062000318565b600033905090565b60008060009054906101000a900473ffffffffffffffffffffffffffffffffffffffff169050816000806101000a81548173ffffffffffffffffffffffffffffffffffffffff021916908373ffffffffffffffffffffffffffffffffffffffff1602179055508173ffffffffffffffffffffffffffffffffffffffff168173ffffffffffffffffffffffffffffffffffffffff167f8be0079c531659141344cd1fd0a4f28419497f9722a3daafe3b4186f6b6457e060405160405180910390a35050565b600080fd5b600073ffffffffffffffffffffffffffffffffffffffff82169050919050565b60006200023f8262000212565b9050919050565b620002518162000232565b81146200025d57600080fd5b50565b600081519050620002718162000246565b92915050565b6000620002848262000232565b9050919050565b620002968162000277565b8114620002a257600080fd5b50565b600081519050620002b6816200028b565b92915050565b600080600060608486031215620002d857620002d76200020d565b5b6000620002e88682870162000260565b9350506020620002fb8682870162000260565b92505060406200030e86828701620002a5565b9150509250925092565b613e6080620003286000396000f3fe6080604052600436106101185760003560e01c8063a1152fe6116100a0578063d98b9bb511610064578063d98b9bb51461037e578063f14210a61461039a578063f2fde38b146103c3578063f3e1a4df146103ec578063f8a206fa146104175761011f565b8063a1152fe6146102af578063a5802620146102d8578063b187bd2614610301578063bedb86fb1461032c578063c53d0acc146103555761011f565b80634479b344116100e75780634479b344146101dc5780636dd6078d14610205578063715018a6146102305780638da5cb5b146102475780639a621a42146102725761011f565b806302329a291461012457806306b091f91461014d578063169b8b871461017657806339b6b1e5146101b35761011f565b3661011f57005b600080fd5b34801561013057600080fd5b5061014b60048036038101906101469190612b86565b610454565b005b34801561015957600080fd5b50610174600480360381019061016f9190612c47565b610479565b005b34801561018257600080fd5b5061019d60048036038101906101989190612c47565b6105c0565b6040516101aa9190612dcb565b60405180910390f35b3480156101bf57600080fd5b506101da60048036038101906101d59190612c47565b610723565b005b3480156101e857600080fd5b5061020360048036038101906101fe9190612e0b565b610bf0565b005b34801561021157600080fd5b5061021a6111c4565b6040516102279190612ee5565b60405180910390f35b34801561023c57600080fd5b506102456111ea565b005b34801561025357600080fd5b5061025c6111fe565b6040516102699190612f0f565b60405180910390f35b34801561027e57600080fd5b5061029960048036038101906102949190612f2a565b611227565b6040516102a69190612fbf565b60405180910390f35b3480156102bb57600080fd5b506102d660048036038101906102d19190612fda565b61134d565b005b3480156102e457600080fd5b506102ff60048036038101906102fa9190612f2a565b61143f565b005b34801561030d57600080fd5b50610316611d24565b604051610323919061303c565b60405180910390f35b34801561033857600080fd5b50610353600480360381019061034e9190612b86565b611d37565b005b34801561036157600080fd5b5061037c60048036038101906103779190612c47565b611d54565b005b61039860048036038101906103939190612c47565b611e5a565b005b3480156103a657600080fd5b506103c160048036038101906103bc9190613057565b611e6b565b005b3480156103cf57600080fd5b506103ea60048036038101906103e59190613084565b611f00565b005b3480156103f857600080fd5b50610401611f83565b60405161040e91906130d2565b60405180910390f35b34801561042357600080fd5b5061043e60048036038101906104399190612c47565b611fa9565b60405161044b919061303c565b60405180910390f35b61045c612014565b80600060146101000a81548160ff02191690831515021790555050565b610481612014565b808273ffffffffffffffffffffffffffffffffffffffff166370a08231306040518263ffffffff1660e01b81526004016104bb9190612f0f565b602060405180830381865afa1580156104d8573d6000803e3d6000fd5b505050506040513d601f19601f820116820180604052508101906104fc9190613102565b101561053d576040517f08c379a00000000000000000000000000000000000000000000000000000000081526004016105349061318c565b60405180910390fd5b8173ffffffffffffffffffffffffffffffffffffffff1663a9059cbb33836040518363ffffffff1660e01b81526004016105789291906131bb565b6020604051808303816000875af1158015610597573d6000803e3d6000fd5b505050506040513d601f19601f820116820180604052508101906105bb91906131f9565b505050565b6105c8612a9e565b600460008473ffffffffffffffffffffffffffffffffffffffff1673ffffffffffffffffffffffffffffffffffffffff16815260200190815260200160002060008381526020019081526020016000206040518060c00160405290816000820160009054906101000a900469ffffffffffffffffffff1669ffffffffffffffffffff1669ffffffffffffffffffff16815260200160008201600a9054906101000a900473ffffffffffffffffffffffffffffffffffffffff1673ffffffffffffffffffffffffffffffffffffffff1673ffffffffffffffffffffffffffffffffffffffff16815260200160018201548152602001600282015481526020016003820160009054906101000a900460ff161515151581526020016003820160019054906101000a900460ff16600281111561070557610704612cd9565b5b600281111561071757610716612cd9565b5b81525050905092915050565b600082905060008290506000600560008473ffffffffffffffffffffffffffffffffffffffff1673ffffffffffffffffffffffffffffffffffffffff168152602001908152602001600020600083815260200190815260200160002060003373ffffffffffffffffffffffffffffffffffffffff1673ffffffffffffffffffffffffffffffffffffffff1681526020019081526020016000206040518060600160405290816000820160009054906101000a900469ffffffffffffffffffff1669ffffffffffffffffffff1669ffffffffffffffffffff168152602001600182015481526020016002820160009054906101000a900460ff16600281111561082e5761082d612cd9565b5b60028111156108405761083f612cd9565b5b81525050905060008160200151905060008111610892576040517f08c379a000000000000000000000000000000000000000000000000000000000815260040161088990613272565b60405180910390fd5b6000600460008673ffffffffffffffffffffffffffffffffffffffff1673ffffffffffffffffffffffffffffffffffffffff16815260200190815260200160002060008581526020019081526020016000206040518060c00160405290816000820160009054906101000a900469ffffffffffffffffffff1669ffffffffffffffffffff1669ffffffffffffffffffff16815260200160008201600a9054906101000a900473ffffffffffffffffffffffffffffffffffffffff1673ffffffffffffffffffffffffffffffffffffffff1673ffffffffffffffffffffffffffffffffffffffff16815260200160018201548152602001600282015481526020016003820160009054906101000a900460ff161515151581526020016003820160019054906101000a900460ff1660028111156109d1576109d0612cd9565b5b60028111156109e3576109e2612cd9565b5b815250509050826000015169ffffffffffffffffffff16816000015169ffffffffffffffffffff16148015610a1b5750428160600151105b610a5a576040517f08c379a0000000000000000000000000000000000000000000000000000000008152600401610a51906132de565b60405180910390fd5b6000600560008773ffffffffffffffffffffffffffffffffffffffff1673ffffffffffffffffffffffffffffffffffffffff168152602001908152602001600020600086815260200190815260200160002060003373ffffffffffffffffffffffffffffffffffffffff1673ffffffffffffffffffffffffffffffffffffffff16815260200190815260200160002090506000816001018190555060016002811115610b0957610b08612cd9565b5b8160020160009054906101000a900460ff166002811115610b2d57610b2c612cd9565b5b03610b7a573373ffffffffffffffffffffffffffffffffffffffff166108fc849081150290604051600060405180830381858888f19350505050158015610b78573d6000803e3d6000fd5b505b3373ffffffffffffffffffffffffffffffffffffffff167fa648ffb6090f011dd7ec070ddfe4a72e1d9802ea59ba8aec622c9dec4f89ba8387878460000160009054906101000a900469ffffffffffffffffffff16604051610bde9392919061330d565b60405180910390a25050505050505050565b848460008273ffffffffffffffffffffffffffffffffffffffff16636352211e836040518263ffffffff1660e01b8152600401610c2d9190613344565b602060405180830381865afa158015610c4a573d6000803e3d6000fd5b505050506040513d601f19601f82011682018060405250810190610c6e9190613374565b90503373ffffffffffffffffffffffffffffffffffffffff168173ffffffffffffffffffffffffffffffffffffffff1614610cde576040517f08c379a0000000000000000000000000000000000000000000000000000000008152600401610cd590613413565b60405180910390fd5b878760001515600160009054906101000a900473ffffffffffffffffffffffffffffffffffffffff1673ffffffffffffffffffffffffffffffffffffffff1663c1db0dce84846040518363ffffffff1660e01b8152600401610d419291906131bb565b602060405180830381865afa158015610d5e573d6000803e3d6000fd5b505050506040513d601f19601f82011682018060405250810190610d8291906131f9565b151514610dc4576040517f08c379a0000000000000000000000000000000000000000000000000000000008152600401610dbb9061347f565b60405180910390fd5b60008a905060008a905060008a9050600089905060058b1015610e1c576040517f08c379a0000000000000000000000000000000000000000000000000000000008152600401610e13906134eb565b60405180910390fd5b610e268484612092565b610e65576040517f08c379a0000000000000000000000000000000000000000000000000000000008152600401610e5c90613557565b60405180910390fd5b6000600460008673ffffffffffffffffffffffffffffffffffffffff1673ffffffffffffffffffffffffffffffffffffffff1681526020019081526020016000206000858152602001908152602001600020905080600001600a9054906101000a900473ffffffffffffffffffffffffffffffffffffffff1673ffffffffffffffffffffffffffffffffffffffff163373ffffffffffffffffffffffffffffffffffffffff16141580610f2d5750600015158160030160009054906101000a900460ff161515145b80610f3c575042816002015411155b610f7b576040517f08c379a0000000000000000000000000000000000000000000000000000000008152600401610f72906135c3565b60405180910390fd5b60008c42610f899190613612565b905060008260000160009054906101000a900469ffffffffffffffffffff1690506000600182610fb99190613646565b9050808460000160006101000a81548169ffffffffffffffffffff021916908369ffffffffffffffffffff16021790555085846001018190555082846002018190555060018460030160006101000a81548160ff021916908315150217905550848460030160016101000a81548160ff021916908360028111156110405761103f612cd9565b5b02179055503384600001600a6101000a81548173ffffffffffffffffffffffffffffffffffffffff021916908373ffffffffffffffffffffffffffffffffffffffff160217905550600360009054906101000a900473ffffffffffffffffffffffffffffffffffffffff1673ffffffffffffffffffffffffffffffffffffffff1663c22d690889896040518363ffffffff1660e01b81526004016110e59291906131bb565b600060405180830381600087803b1580156110ff57600080fd5b505af1158015611113573d6000803e3d6000fd5b50505050600360009054906101000a900473ffffffffffffffffffffffffffffffffffffffff1673ffffffffffffffffffffffffffffffffffffffff1663cf2d37688989338a8a89886040518863ffffffff1660e01b815260040161117e9796959493929190613693565b600060405180830381600087803b15801561119857600080fd5b505af11580156111ac573d6000803e3d6000fd5b50505050505050505050505050505050505050505050565b600260009054906101000a900473ffffffffffffffffffffffffffffffffffffffff1681565b6111f2612014565b6111fc6000612245565b565b60008060009054906101000a900473ffffffffffffffffffffffffffffffffffffffff16905090565b61122f612b0a565b600560008573ffffffffffffffffffffffffffffffffffffffff1673ffffffffffffffffffffffffffffffffffffffff168152602001908152602001600020600084815260200190815260200160002060008373ffffffffffffffffffffffffffffffffffffffff1673ffffffffffffffffffffffffffffffffffffffff1681526020019081526020016000206040518060600160405290816000820160009054906101000a900469ffffffffffffffffffff1669ffffffffffffffffffff1669ffffffffffffffffffff168152602001600182015481526020016002820160009054906101000a900460ff16600281111561132e5761132d612cd9565b5b60028111156113405761133f612cd9565b5b8152505090509392505050565b80600260009054906101000a900473ffffffffffffffffffffffffffffffffffffffff1673ffffffffffffffffffffffffffffffffffffffff1663dd62ed3e33306040518363ffffffff1660e01b81526004016113ab929190613702565b602060405180830381865afa1580156113c8573d6000803e3d6000fd5b505050506040513d601f19601f820116820180604052508101906113ec9190613102565b101561142d576040517f08c379a00000000000000000000000000000000000000000000000000000000081526004016114249061379d565b60405180910390fd5b61143a8383836002612309565b505050565b828260008273ffffffffffffffffffffffffffffffffffffffff16636352211e836040518263ffffffff1660e01b815260040161147c9190613344565b602060405180830381865afa158015611499573d6000803e3d6000fd5b505050506040513d601f19601f820116820180604052508101906114bd9190613374565b90503373ffffffffffffffffffffffffffffffffffffffff168173ffffffffffffffffffffffffffffffffffffffff161461152d576040517f08c379a000000000000000000000000000000000000000000000000000000000815260040161152490613413565b60405180910390fd5b858560001515600160009054906101000a900473ffffffffffffffffffffffffffffffffffffffff1673ffffffffffffffffffffffffffffffffffffffff1663c1db0dce84846040518363ffffffff1660e01b81526004016115909291906131bb565b602060405180830381865afa1580156115ad573d6000803e3d6000fd5b505050506040513d601f19601f820116820180604052508101906115d191906131f9565b151514611613576040517f08c379a000000000000000000000000000000000000000000000000000000000815260040161160a9061347f565b60405180910390fd5b6000889050600088905060008890506000600560008573ffffffffffffffffffffffffffffffffffffffff1673ffffffffffffffffffffffffffffffffffffffff168152602001908152602001600020600084815260200190815260200160002060008373ffffffffffffffffffffffffffffffffffffffff1673ffffffffffffffffffffffffffffffffffffffff1681526020019081526020016000206040518060600160405290816000820160009054906101000a900469ffffffffffffffffffff1669ffffffffffffffffffff1669ffffffffffffffffffff168152602001600182015481526020016002820160009054906101000a900460ff16600281111561172357611722612cd9565b5b600281111561173557611734612cd9565b5b8152505090506000816020015111611782576040517f08c379a000000000000000000000000000000000000000000000000000000000815260040161177990613809565b60405180910390fd5b6000600460008673ffffffffffffffffffffffffffffffffffffffff1673ffffffffffffffffffffffffffffffffffffffff16815260200190815260200160002060008581526020019081526020016000206040518060c00160405290816000820160009054906101000a900469ffffffffffffffffffff1669ffffffffffffffffffff1669ffffffffffffffffffff16815260200160008201600a9054906101000a900473ffffffffffffffffffffffffffffffffffffffff1673ffffffffffffffffffffffffffffffffffffffff1673ffffffffffffffffffffffffffffffffffffffff16815260200160018201548152602001600282015481526020016003820160009054906101000a900460ff161515151581526020016003820160019054906101000a900460ff1660028111156118c1576118c0612cd9565b5b60028111156118d3576118d2612cd9565b5b815250509050806080015161191d576040517f08c379a00000000000000000000000000000000000000000000000000000000081526004016119149061389b565b60405180910390fd5b816000015169ffffffffffffffffffff16816000015169ffffffffffffffffffff161461197f576040517f08c379a000000000000000000000000000000000000000000000000000000000815260040161197690613907565b60405180910390fd5b42816060015110156119c6576040517f08c379a00000000000000000000000000000000000000000000000000000000081526004016119bd90613973565b60405180910390fd5b6000600460008773ffffffffffffffffffffffffffffffffffffffff1673ffffffffffffffffffffffffffffffffffffffff1681526020019081526020016000206000868152602001908152602001600020905060008160030160006101000a81548160ff0219169083151502179055506000600560008873ffffffffffffffffffffffffffffffffffffffff1673ffffffffffffffffffffffffffffffffffffffff168152602001908152602001600020600087815260200190815260200160002060008673ffffffffffffffffffffffffffffffffffffffff1673ffffffffffffffffffffffffffffffffffffffff1681526020019081526020016000209050600081600101549050600082600101819055508773ffffffffffffffffffffffffffffffffffffffff166323b872dd33888a6040518463ffffffff1660e01b8152600401611b1893929190613993565b600060405180830381600087803b158015611b3257600080fd5b505af1158015611b46573d6000803e3d6000fd5b5050505060016002811115611b5e57611b5d612cd9565b5b8260020160009054906101000a900460ff166002811115611b8257611b81612cd9565b5b03611bd3573373ffffffffffffffffffffffffffffffffffffffff166108fc829081150290604051600060405180830381858888f19350505050158015611bcd573d6000803e3d6000fd5b50611c77565b600260009054906101000a900473ffffffffffffffffffffffffffffffffffffffff1673ffffffffffffffffffffffffffffffffffffffff166323b872dd8f33846040518463ffffffff1660e01b8152600401611c3293929190613993565b6020604051808303816000875af1158015611c51573d6000803e3d6000fd5b505050506040513d601f19601f82011682018060405250810190611c7591906131f9565b505b600360009054906101000a900473ffffffffffffffffffffffffffffffffffffffff1673ffffffffffffffffffffffffffffffffffffffff1663c1a4bd828989338a868b604001516040518763ffffffff1660e01b8152600401611ce0969594939291906139ca565b600060405180830381600087803b158015611cfa57600080fd5b505af1158015611d0e573d6000803e3d6000fd5b5050505050505050505050505050505050505050565b600060149054906101000a900460ff1681565b80600060146101000a81548160ff02191690831515021790555050565b600360009054906101000a900473ffffffffffffffffffffffffffffffffffffffff1673ffffffffffffffffffffffffffffffffffffffff163373ffffffffffffffffffffffffffffffffffffffff1614611de4576040517f08c379a0000000000000000000000000000000000000000000000000000000008152600401611ddb90613a9d565b60405180910390fd5b6000600460008473ffffffffffffffffffffffffffffffffffffffff1673ffffffffffffffffffffffffffffffffffffffff1681526020019081526020016000206000838152602001908152602001600020905060008160030160006101000a81548160ff021916908315150217905550505050565b611e678282346001612309565b5050565b611e73612014565b80471015611eb6576040517f08c379a0000000000000000000000000000000000000000000000000000000008152600401611ead9061318c565b60405180910390fd5b3373ffffffffffffffffffffffffffffffffffffffff166108fc829081150290604051600060405180830381858888f19350505050158015611efc573d6000803e3d6000fd5b5050565b611f08612014565b600073ffffffffffffffffffffffffffffffffffffffff168173ffffffffffffffffffffffffffffffffffffffff1603611f77576040517f08c379a0000000000000000000000000000000000000000000000000000000008152600401611f6e90613b2f565b60405180910390fd5b611f8081612245565b50565b600160009054906101000a900473ffffffffffffffffffffffffffffffffffffffff1681565b6000600460008473ffffffffffffffffffffffffffffffffffffffff1673ffffffffffffffffffffffffffffffffffffffff168152602001908152602001600020600083815260200190815260200160002060030160009054906101000a900460ff16905092915050565b61201c612a96565b73ffffffffffffffffffffffffffffffffffffffff1661203a6111fe565b73ffffffffffffffffffffffffffffffffffffffff1614612090576040517f08c379a000000000000000000000000000000000000000000000000000000000815260040161208790613b9b565b60405180910390fd5b565b6000808390503073ffffffffffffffffffffffffffffffffffffffff168173ffffffffffffffffffffffffffffffffffffffff1663081812fc856040518263ffffffff1660e01b81526004016120e89190613344565b602060405180830381865afa158015612105573d6000803e3d6000fd5b505050506040513d601f19601f820116820180604052508101906121299190613374565b73ffffffffffffffffffffffffffffffffffffffff16148061223c57508073ffffffffffffffffffffffffffffffffffffffff1663e985e9c58273ffffffffffffffffffffffffffffffffffffffff16636352211e866040518263ffffffff1660e01b815260040161219b9190613344565b602060405180830381865afa1580156121b8573d6000803e3d6000fd5b505050506040513d601f19601f820116820180604052508101906121dc9190613374565b306040518363ffffffff1660e01b81526004016121fa929190613702565b602060405180830381865afa158015612217573d6000803e3d6000fd5b505050506040513d601f19601f8201168201806040525081019061223b91906131f9565b5b91505092915050565b60008060009054906101000a900473ffffffffffffffffffffffffffffffffffffffff169050816000806101000a81548173ffffffffffffffffffffffffffffffffffffffff021916908373ffffffffffffffffffffffffffffffffffffffff1602179055508173ffffffffffffffffffffffffffffffffffffffff168173ffffffffffffffffffffffffffffffffffffffff167f8be0079c531659141344cd1fd0a4f28419497f9722a3daafe3b4186f6b6457e060405160405180910390a35050565b838360001515600160009054906101000a900473ffffffffffffffffffffffffffffffffffffffff1673ffffffffffffffffffffffffffffffffffffffff1663c1db0dce84846040518363ffffffff1660e01b815260040161236c9291906131bb565b602060405180830381865afa158015612389573d6000803e3d6000fd5b505050506040513d601f19601f820116820180604052508101906123ad91906131f9565b1515146123ef576040517f08c379a00000000000000000000000000000000000000000000000000000000081526004016123e69061347f565b60405180910390fd5b6000869050600086905060008690506000600460008573ffffffffffffffffffffffffffffffffffffffff1673ffffffffffffffffffffffffffffffffffffffff16815260200190815260200160002060008481526020019081526020016000206040518060c00160405290816000820160009054906101000a900469ffffffffffffffffffff1669ffffffffffffffffffff1669ffffffffffffffffffff16815260200160008201600a9054906101000a900473ffffffffffffffffffffffffffffffffffffffff1673ffffffffffffffffffffffffffffffffffffffff1673ffffffffffffffffffffffffffffffffffffffff16815260200160018201548152602001600282015481526020016003820160009054906101000a900460ff161515151581526020016003820160019054906101000a900460ff16600281111561253d5761253c612cd9565b5b600281111561254f5761254e612cd9565b5b8152505090506000600560008673ffffffffffffffffffffffffffffffffffffffff1673ffffffffffffffffffffffffffffffffffffffff168152602001908152602001600020600085815260200190815260200160002060003373ffffffffffffffffffffffffffffffffffffffff1673ffffffffffffffffffffffffffffffffffffffff1681526020019081526020016000206040518060600160405290816000820160009054906101000a900469ffffffffffffffffffff1669ffffffffffffffffffff1669ffffffffffffffffffff168152602001600182015481526020016002820160009054906101000a900460ff16600281111561265657612655612cd9565b5b600281111561266857612667612cd9565b5b81525050905081608001516126b2576040517f08c379a00000000000000000000000000000000000000000000000000000000081526004016126a990613c07565b60405180910390fd5b8a73ffffffffffffffffffffffffffffffffffffffff16636352211e8b6040518263ffffffff1660e01b81526004016126eb9190613344565b602060405180830381865afa158015612708573d6000803e3d6000fd5b505050506040513d601f19601f8201168201806040525081019061272c9190613374565b73ffffffffffffffffffffffffffffffffffffffff163373ffffffffffffffffffffffffffffffffffffffff1603612799576040517f08c379a000000000000000000000000000000000000000000000000000000000815260040161279090613c73565b60405180910390fd5b8760028111156127ac576127ab612cd9565b5b8260a0015160028111156127c3576127c2612cd9565b5b14612803576040517f08c379a00000000000000000000000000000000000000000000000000000000081526004016127fa90613cdf565b60405180910390fd5b600081602001511461284a576040517f08c379a000000000000000000000000000000000000000000000000000000000815260040161284190613d4b565b60405180910390fd5b4282606001511015612891576040517f08c379a000000000000000000000000000000000000000000000000000000000815260040161288890613973565b60405180910390fd5b888260400151106128d7576040517f08c379a00000000000000000000000000000000000000000000000000000000081526004016128ce90613db7565b60405180910390fd5b6000600460008773ffffffffffffffffffffffffffffffffffffffff1673ffffffffffffffffffffffffffffffffffffffff168152602001908152602001600020600086815260200190815260200160002090508381600101819055506000600560008873ffffffffffffffffffffffffffffffffffffffff1673ffffffffffffffffffffffffffffffffffffffff168152602001908152602001600020600087815260200190815260200160002060003373ffffffffffffffffffffffffffffffffffffffff1673ffffffffffffffffffffffffffffffffffffffff168152602001908152602001600020905083600001518160000160006101000a81548169ffffffffffffffffffff021916908369ffffffffffffffffffff160217905550898160020160006101000a81548160ff02191690836002811115612a1f57612a1e612cd9565b5b02179055508481600101819055503373ffffffffffffffffffffffffffffffffffffffff167fb3def9e7dd7261df1900de73d1e3291eedc1094878a2ffa50f7432c8a7edba9f8888888e8960000151604051612a7f959493929190613dd7565b60405180910390a250505050505050505050505050565b600033905090565b6040518060c00160405280600069ffffffffffffffffffff168152602001600073ffffffffffffffffffffffffffffffffffffffff168152602001600081526020016000815260200160001515815260200160006002811115612b0457612b03612cd9565b5b81525090565b6040518060600160405280600069ffffffffffffffffffff1681526020016000815260200160006002811115612b4357612b42612cd9565b5b81525090565b600080fd5b60008115159050919050565b612b6381612b4e565b8114612b6e57600080fd5b50565b600081359050612b8081612b5a565b92915050565b600060208284031215612b9c57612b9b612b49565b5b6000612baa84828501612b71565b91505092915050565b600073ffffffffffffffffffffffffffffffffffffffff82169050919050565b6000612bde82612bb3565b9050919050565b612bee81612bd3565b8114612bf957600080fd5b50565b600081359050612c0b81612be5565b92915050565b6000819050919050565b612c2481612c11565b8114612c2f57600080fd5b50565b600081359050612c4181612c1b565b92915050565b60008060408385031215612c5e57612c5d612b49565b5b6000612c6c85828601612bfc565b9250506020612c7d85828601612c32565b9150509250929050565b600069ffffffffffffffffffff82169050919050565b612ca681612c87565b82525050565b612cb581612bd3565b82525050565b612cc481612c11565b82525050565b612cd381612b4e565b82525050565b7f4e487b7100000000000000000000000000000000000000000000000000000000600052602160045260246000fd5b60038110612d1957612d18612cd9565b5b50565b6000819050612d2a82612d08565b919050565b6000612d3a82612d1c565b9050919050565b612d4a81612d2f565b82525050565b60c082016000820151612d666000850182612c9d565b506020820151612d796020850182612cac565b506040820151612d8c6040850182612cbb565b506060820151612d9f6060850182612cbb565b506080820151612db26080850182612cca565b5060a0820151612dc560a0850182612d41565b50505050565b600060c082019050612de06000830184612d50565b92915050565b60038110612df357600080fd5b50565b600081359050612e0581612de6565b92915050565b600080600080600060a08688031215612e2757612e26612b49565b5b6000612e3588828901612bfc565b9550506020612e4688828901612c32565b9450506040612e5788828901612c32565b9350506060612e6888828901612c32565b9250506080612e7988828901612df6565b9150509295509295909350565b6000819050919050565b6000612eab612ea6612ea184612bb3565b612e86565b612bb3565b9050919050565b6000612ebd82612e90565b9050919050565b6000612ecf82612eb2565b9050919050565b612edf81612ec4565b82525050565b6000602082019050612efa6000830184612ed6565b92915050565b612f0981612bd3565b82525050565b6000602082019050612f246000830184612f00565b92915050565b600080600060608486031215612f4357612f42612b49565b5b6000612f5186828701612bfc565b9350506020612f6286828701612c32565b9250506040612f7386828701612bfc565b9150509250925092565b606082016000820151612f936000850182612c9d565b506020820151612fa66020850182612cbb565b506040820151612fb96040850182612d41565b50505050565b6000606082019050612fd46000830184612f7d565b92915050565b600080600060608486031215612ff357612ff2612b49565b5b600061300186828701612bfc565b935050602061301286828701612c32565b925050604061302386828701612c32565b9150509250925092565b61303681612b4e565b82525050565b6000602082019050613051600083018461302d565b92915050565b60006020828403121561306d5761306c612b49565b5b600061307b84828501612c32565b91505092915050565b60006020828403121561309a57613099612b49565b5b60006130a884828501612bfc565b91505092915050565b60006130bc82612eb2565b9050919050565b6130cc816130b1565b82525050565b60006020820190506130e760008301846130c3565b92915050565b6000815190506130fc81612c1b565b92915050565b60006020828403121561311857613117612b49565b5b6000613126848285016130ed565b91505092915050565b600082825260208201905092915050565b7f57726f6e6720616d6f756e740000000000000000000000000000000000000000600082015250565b6000613176600c8361312f565b915061318182613140565b602082019050919050565b600060208201905081810360008301526131a581613169565b9050919050565b6131b581612c11565b82525050565b60006040820190506131d06000830185612f00565b6131dd60208301846131ac565b9392505050565b6000815190506131f381612b5a565b92915050565b60006020828403121561320f5761320e612b49565b5b600061321d848285016131e4565b91505092915050565b7f506c6163654269643a206e6f7420706c61636564207965740000000000000000600082015250565b600061325c60188361312f565b915061326782613226565b602082019050919050565b6000602082019050818103600083015261328b8161324f565b9050919050565b7f4e6f742061626c6520746f2063616e63656c206265666f726520656e64730000600082015250565b60006132c8601e8361312f565b91506132d382613292565b602082019050919050565b600060208201905081810360008301526132f7816132bb565b9050919050565b61330781612c87565b82525050565b60006060820190506133226000830186612f00565b61332f60208301856131ac565b61333c60408301846132fe565b949350505050565b600060208201905061335960008301846131ac565b92915050565b60008151905061336e81612be5565b92915050565b60006020828403121561338a57613389612b49565b5b60006133988482850161335f565b91505092915050565b7f546f6b656e204f776e65723a20796f7520617265206e6f74206120746f6b656e60008201527f206f776e65720000000000000000000000000000000000000000000000000000602082015250565b60006133fd60268361312f565b9150613408826133a1565b604082019050919050565b6000602082019050818103600083015261342c816133f0565b9050919050565b7f54686973204e465420697320696e20626c61636b4c6973740000000000000000600082015250565b600061346960188361312f565b915061347482613433565b602082019050919050565b600060208201905081810360008301526134988161345c565b9050919050565b7f41756374696f6e3a20746f6f2073686f727420706572696f6400000000000000600082015250565b60006134d560198361312f565b91506134e08261349f565b602082019050919050565b60006020820190508181036000830152613504816134c8565b9050919050565b7f46697273742c20417070726f7665204e46540000000000000000000000000000600082015250565b600061354160128361312f565b915061354c8261350b565b602082019050919050565b6000602082019050818103600083015261357081613534565b9050919050565b7f41756374696f6e3a206578697374000000000000000000000000000000000000600082015250565b60006135ad600e8361312f565b91506135b882613577565b602082019050919050565b600060208201905081810360008301526135dc816135a0565b9050919050565b7f4e487b7100000000000000000000000000000000000000000000000000000000600052601160045260246000fd5b600061361d82612c11565b915061362883612c11565b92508282019050808211156136405761363f6135e3565b5b92915050565b600061365182612c87565b915061365c83612c87565b9250828201905069ffffffffffffffffffff81111561367e5761367d6135e3565b5b92915050565b61368d81612d2f565b82525050565b600060e0820190506136a8600083018a612f00565b6136b560208301896131ac565b6136c26040830188612f00565b6136cf60608301876131ac565b6136dc6080830186613684565b6136e960a08301856131ac565b6136f660c08301846132fe565b98975050505050505050565b60006040820190506137176000830185612f00565b6137246020830184612f00565b9392505050565b7f506c616365426964576974684e6963686f3a20696e63726561736520616c6c6f60008201527f77616e6365000000000000000000000000000000000000000000000000000000602082015250565b600061378760258361312f565b91506137928261372b565b604082019050919050565b600060208201905081810360008301526137b68161377a565b9050919050565b7f4163636570744269643a206e6f7420706c616365642079657400000000000000600082015250565b60006137f360198361312f565b91506137fe826137bd565b602082019050919050565b60006020820190508181036000830152613822816137e6565b9050919050565b7f4163636570744269643a2061756374696f6e20646f6573206e6f74206578697360008201527f7400000000000000000000000000000000000000000000000000000000000000602082015250565b600061388560218361312f565b915061389082613829565b604082019050919050565b600060208201905081810360008301526138b481613878565b9050919050565b7f4163636570744269643a20746f6f206f6c642062696400000000000000000000600082015250565b60006138f160168361312f565b91506138fc826138bb565b602082019050919050565b60006020820190508181036000830152613920816138e4565b9050919050565b7f506c6163654269643a2061756374696f6e20656e646564000000000000000000600082015250565b600061395d60178361312f565b915061396882613927565b602082019050919050565b6000602082019050818103600083015261398c81613950565b9050919050565b60006060820190506139a86000830186612f00565b6139b56020830185612f00565b6139c260408301846131ac565b949350505050565b600060c0820190506139df6000830189612f00565b6139ec60208301886131ac565b6139f96040830187612f00565b613a066060830186612f00565b613a1360808301856131ac565b613a2060a0830184613684565b979650505050505050565b7f496e76616c6964206e6963686f6e6674206d61726b6574706c61636520636f6e60008201527f7472616374000000000000000000000000000000000000000000000000000000602082015250565b6000613a8760258361312f565b9150613a9282613a2b565b604082019050919050565b60006020820190508181036000830152613ab681613a7a565b9050919050565b7f4f776e61626c653a206e6577206f776e657220697320746865207a65726f206160008201527f6464726573730000000000000000000000000000000000000000000000000000602082015250565b6000613b1960268361312f565b9150613b2482613abd565b604082019050919050565b60006020820190508181036000830152613b4881613b0c565b9050919050565b7f4f776e61626c653a2063616c6c6572206973206e6f7420746865206f776e6572600082015250565b6000613b8560208361312f565b9150613b9082613b4f565b602082019050919050565b60006020820190508181036000830152613bb481613b78565b9050919050565b7f506c6163654269643a2061756374696f6e20646f6573206e6f74206578697374600082015250565b6000613bf160208361312f565b9150613bfc82613bbb565b602082019050919050565b60006020820190508181036000830152613c2081613be4565b9050919050565b7f546f6b656e206f776e65722063616e6e6f7420706c6163652062696400000000600082015250565b6000613c5d601c8361312f565b9150613c6882613c27565b602082019050919050565b60006020820190508181036000830152613c8c81613c50565b9050919050565b7f506c6163654269643a20696e76616c6964207061792074797065000000000000600082015250565b6000613cc9601a8361312f565b9150613cd482613c93565b602082019050919050565b60006020820190508181036000830152613cf881613cbc565b9050919050565b7f506c6163654269643a2063616e63656c2070726576696f7573206f6e65000000600082015250565b6000613d35601d8361312f565b9150613d4082613cff565b602082019050919050565b60006020820190508181036000830152613d6481613d28565b9050919050565b7f506c6163654269643a2073686f756c6420626520686967686572207072696365600082015250565b6000613da160208361312f565b9150613dac82613d6b565b602082019050919050565b60006020820190508181036000830152613dd081613d94565b9050919050565b600060a082019050613dec6000830188612f00565b613df960208301876131ac565b613e0660408301866131ac565b613e136060830185613684565b613e2060808301846132fe565b969550505050505056fea2646970667358221220359f036548248a391473ad86978e07d43a70fd71b5d5390626c2e3c6b057d52764736f6c63430008110033",
  "linkReferences": {},
  "deployedLinkReferences": {}
}