{
  "_format": "hh-sol-artifact-1",
  "contractName": "NichoAuction",
  "sourceName": "contracts/NichoAuction.sol",
  "abi": [
    {
      "inputs": [
        {
          "internalType": "address",
          "name": "_nichoNFT",
          "type": "address"
        }
      ],
      "stateMutability": "nonpayable",
      "type": "constructor"
    },
    {
      "anonymous": false,
      "inputs": [
        {
          "indexed": false,
          "internalType": "uint256",
          "name": "auctionId",
          "type": "uint256"
        },
        {
          "indexed": false,
          "internalType": "address",
          "name": "tokenAddress",
          "type": "address"
        },
        {
          "indexed": false,
          "internalType": "uint256",
          "name": "tokenId",
          "type": "uint256"
        },
        {
          "indexed": false,
          "internalType": "string",
          "name": "uri",
          "type": "string"
        },
        {
          "indexed": false,
          "internalType": "uint256",
          "name": "price",
          "type": "uint256"
        },
        {
          "indexed": false,
          "internalType": "address",
          "name": "creator",
          "type": "address"
        },
        {
          "indexed": false,
          "internalType": "uint256",
          "name": "deadline",
          "type": "uint256"
        }
      ],
      "name": "AddItem",
      "type": "event"
    },
    {
      "anonymous": false,
      "inputs": [
        {
          "indexed": false,
          "internalType": "uint256",
          "name": "auctionId",
          "type": "uint256"
        },
        {
          "indexed": false,
          "internalType": "uint256",
          "name": "bidderId",
          "type": "uint256"
        },
        {
          "indexed": false,
          "internalType": "address",
          "name": "bidCreator",
          "type": "address"
        }
      ],
      "name": "CancelBid",
      "type": "event"
    },
    {
      "anonymous": false,
      "inputs": [
        {
          "indexed": false,
          "internalType": "uint256",
          "name": "auctionId",
          "type": "uint256"
        }
      ],
      "name": "ItemCancel",
      "type": "event"
    },
    {
      "anonymous": false,
      "inputs": [
        {
          "indexed": true,
          "internalType": "address",
          "name": "previousOwner",
          "type": "address"
        },
        {
          "indexed": true,
          "internalType": "address",
          "name": "newOwner",
          "type": "address"
        }
      ],
      "name": "OwnershipTransferred",
      "type": "event"
    },
    {
      "anonymous": false,
      "inputs": [
        {
          "indexed": false,
          "internalType": "uint256",
          "name": "auctionId",
          "type": "uint256"
        },
        {
          "indexed": false,
          "internalType": "address",
          "name": "bidder",
          "type": "address"
        },
        {
          "indexed": false,
          "internalType": "uint256",
          "name": "bidPrice",
          "type": "uint256"
        },
        {
          "indexed": false,
          "internalType": "address",
          "name": "tokenAddress",
          "type": "address"
        },
        {
          "indexed": false,
          "internalType": "uint256",
          "name": "tokenId",
          "type": "uint256"
        },
        {
          "indexed": false,
          "internalType": "uint256",
          "name": "bidderId",
          "type": "uint256"
        }
      ],
      "name": "PlacedBid",
      "type": "event"
    },
    {
      "anonymous": false,
      "inputs": [
        {
          "indexed": false,
          "internalType": "uint256",
          "name": "auctionId",
          "type": "uint256"
        },
        {
          "indexed": false,
          "internalType": "uint256",
          "name": "soldPrice",
          "type": "uint256"
        },
        {
          "indexed": false,
          "internalType": "address",
          "name": "seller",
          "type": "address"
        },
        {
          "indexed": false,
          "internalType": "address",
          "name": "winner",
          "type": "address"
        }
      ],
      "name": "SoldOut",
      "type": "event"
    },
    {
      "inputs": [],
      "name": "NichoNFT",
      "outputs": [
        {
          "internalType": "contract INichoNFT",
          "name": "",
          "type": "address"
        }
      ],
      "stateMutability": "view",
      "type": "function"
    },
    {
      "inputs": [
        {
          "internalType": "uint256",
          "name": "auctionId",
          "type": "uint256"
        },
        {
          "internalType": "uint256",
          "name": "bidderId",
          "type": "uint256"
        }
      ],
      "name": "acceptBid",
      "outputs": [],
      "stateMutability": "nonpayable",
      "type": "function"
    },
    {
      "inputs": [
        {
          "components": [
            {
              "internalType": "address",
              "name": "tokenAddress",
              "type": "address"
            },
            {
              "internalType": "uint256",
              "name": "tokenId",
              "type": "uint256"
            },
            {
              "internalType": "uint256",
              "name": "desiredMinPrice",
              "type": "uint256"
            },
            {
              "internalType": "uint256",
              "name": "deadline",
              "type": "uint256"
            }
          ],
          "internalType": "struct NichoAuction.ItemParam",
          "name": "itemParam",
          "type": "tuple"
        }
      ],
      "name": "addAuctionItem",
      "outputs": [],
      "stateMutability": "nonpayable",
      "type": "function"
    },
    {
      "inputs": [],
      "name": "auctionCounter",
      "outputs": [
        {
          "internalType": "uint256",
          "name": "",
          "type": "uint256"
        }
      ],
      "stateMutability": "view",
      "type": "function"
    },
    {
      "inputs": [
        {
          "internalType": "uint256",
          "name": "auctionId",
          "type": "uint256"
        }
      ],
      "name": "cancelAuctionItem",
      "outputs": [],
      "stateMutability": "nonpayable",
      "type": "function"
    },
    {
      "inputs": [
        {
          "internalType": "uint256",
          "name": "auctionId",
          "type": "uint256"
        },
        {
          "internalType": "uint256",
          "name": "bidderId",
          "type": "uint256"
        }
      ],
      "name": "cancelBid",
      "outputs": [],
      "stateMutability": "nonpayable",
      "type": "function"
    },
    {
      "inputs": [
        {
          "internalType": "uint256",
          "name": "auctionId",
          "type": "uint256"
        }
      ],
      "name": "getBidsByBidder",
      "outputs": [
        {
          "components": [
            {
              "internalType": "address",
              "name": "owner",
              "type": "address"
            },
            {
              "internalType": "uint256",
              "name": "bidPrice",
              "type": "uint256"
            }
          ],
          "internalType": "struct NichoAuction.Buyer[]",
          "name": "",
          "type": "tuple[]"
        }
      ],
      "stateMutability": "view",
      "type": "function"
    },
    {
      "inputs": [
        {
          "internalType": "address",
          "name": "tokenAddress",
          "type": "address"
        },
        {
          "internalType": "uint256",
          "name": "tokenId",
          "type": "uint256"
        }
      ],
      "name": "isNFTListedToAuction",
      "outputs": [
        {
          "internalType": "bool",
          "name": "",
          "type": "bool"
        }
      ],
      "stateMutability": "view",
      "type": "function"
    },
    {
      "inputs": [
        {
          "internalType": "uint256",
          "name": "",
          "type": "uint256"
        }
      ],
      "name": "items",
      "outputs": [
        {
          "internalType": "address",
          "name": "creator",
          "type": "address"
        },
        {
          "internalType": "address",
          "name": "tokenAddress",
          "type": "address"
        },
        {
          "internalType": "uint256",
          "name": "tokenId",
          "type": "uint256"
        },
        {
          "internalType": "string",
          "name": "uri",
          "type": "string"
        },
        {
          "internalType": "uint256",
          "name": "highPrice",
          "type": "uint256"
        },
        {
          "internalType": "uint256",
          "name": "deadline",
          "type": "uint256"
        },
        {
          "internalType": "uint256",
          "name": "createdTs",
          "type": "uint256"
        },
        {
          "internalType": "bool",
          "name": "exists",
          "type": "bool"
        }
      ],
      "stateMutability": "view",
      "type": "function"
    },
    {
      "inputs": [],
      "name": "owner",
      "outputs": [
        {
          "internalType": "address",
          "name": "",
          "type": "address"
        }
      ],
      "stateMutability": "view",
      "type": "function"
    },
    {
      "inputs": [
        {
          "internalType": "uint256",
          "name": "auctionId",
          "type": "uint256"
        }
      ],
      "name": "placeBid",
      "outputs": [],
      "stateMutability": "payable",
      "type": "function"
    },
    {
      "inputs": [],
      "name": "renounceOwnership",
      "outputs": [],
      "stateMutability": "nonpayable",
      "type": "function"
    },
    {
      "inputs": [
        {
          "internalType": "address",
          "name": "",
          "type": "address"
        },
        {
          "internalType": "uint256",
          "name": "",
          "type": "uint256"
        }
      ],
      "name": "tokenIdToAuctionId",
      "outputs": [
        {
          "internalType": "uint256",
          "name": "",
          "type": "uint256"
        }
      ],
      "stateMutability": "view",
      "type": "function"
    },
    {
      "inputs": [
        {
          "internalType": "address",
          "name": "newOwner",
          "type": "address"
        }
      ],
      "name": "transferOwnership",
      "outputs": [],
      "stateMutability": "nonpayable",
      "type": "function"
    },
    {
      "inputs": [],
      "name": "withdrawBNB",
      "outputs": [],
      "stateMutability": "nonpayable",
      "type": "function"
    },
    {
      "inputs": [
        {
          "internalType": "uint256",
          "name": "amount",
          "type": "uint256"
        }
      ],
      "name": "withdrawETH",
      "outputs": [],
      "stateMutability": "nonpayable",
      "type": "function"
    },
    {
      "inputs": [
        {
          "internalType": "address",
          "name": "_token",
          "type": "address"
        },
        {
          "internalType": "uint256",
          "name": "_amount",
          "type": "uint256"
        }
      ],
      "name": "withdrawTokens",
      "outputs": [],
      "stateMutability": "nonpayable",
      "type": "function"
    },
    {
      "stateMutability": "payable",
      "type": "receive"
    }
  ],
  "bytecode": "0x608060405260006002553480156200001657600080fd5b50604051620054503803806200545083398181016040528101906200003c9190620001da565b6200005c62000050620000a460201b60201c565b620000ac60201b60201c565b80600160006101000a81548173ffffffffffffffffffffffffffffffffffffffff021916908373ffffffffffffffffffffffffffffffffffffffff160217905550506200020c565b600033905090565b60008060009054906101000a900473ffffffffffffffffffffffffffffffffffffffff169050816000806101000a81548173ffffffffffffffffffffffffffffffffffffffff021916908373ffffffffffffffffffffffffffffffffffffffff1602179055508173ffffffffffffffffffffffffffffffffffffffff168173ffffffffffffffffffffffffffffffffffffffff167f8be0079c531659141344cd1fd0a4f28419497f9722a3daafe3b4186f6b6457e060405160405180910390a35050565b600080fd5b600073ffffffffffffffffffffffffffffffffffffffff82169050919050565b6000620001a28262000175565b9050919050565b620001b48162000195565b8114620001c057600080fd5b50565b600081519050620001d481620001a9565b92915050565b600060208284031215620001f357620001f262000170565b5b60006200020384828501620001c3565b91505092915050565b615234806200021c6000396000f3fe6080604052600436106101025760003560e01c80638da5cb5b11610095578063bfb231d211610064578063bfb231d2146102f7578063f14210a61461033b578063f2d5d04514610364578063f2fde38b1461038d578063f37794a9146103b657610109565b80638da5cb5b146102485780639979ef45146102735780639ac756a61461028f578063a7e76644146102cc57610109565b80634c629e34116100d15780634c629e34146101a0578063555d8aa8146101cb5780636d12e6e9146101f4578063715018a61461023157610109565b806302e9d5e41461010e57806306b091f9146101375780631d111d13146101605780634b3936051461017757610109565b3661010957005b600080fd5b34801561011a57600080fd5b5061013560048036038101906101309190613c13565b6103f3565b005b34801561014357600080fd5b5061015e60048036038101906101599190613cb1565b6113f5565b005b34801561016c57600080fd5b5061017561153c565b005b34801561018357600080fd5b5061019e60048036038101906101999190613c13565b61158d565b005b3480156101ac57600080fd5b506101b56119e7565b6040516101c29190613d50565b60405180910390f35b3480156101d757600080fd5b506101f260048036038101906101ed9190613e74565b611a0d565b005b34801561020057600080fd5b5061021b60048036038101906102169190613cb1565b6120c5565b6040516102289190613ebc565b60405180910390f35b34801561023d57600080fd5b5061024661238d565b005b34801561025457600080fd5b5061025d6123a1565b60405161026a9190613ee6565b60405180910390f35b61028d60048036038101906102889190613f01565b6123ca565b005b34801561029b57600080fd5b506102b660048036038101906102b19190613cb1565b612e73565b6040516102c39190613f3d565b60405180910390f35b3480156102d857600080fd5b506102e1612e98565b6040516102ee9190613f3d565b60405180910390f35b34801561030357600080fd5b5061031e60048036038101906103199190613f01565b612e9e565b604051610332989796959493929190613fd7565b60405180910390f35b34801561034757600080fd5b50610362600480360381019061035d9190613f01565b612fbb565b005b34801561037057600080fd5b5061038b60048036038101906103869190613f01565b613056565b005b34801561039957600080fd5b506103b460048036038101906103af919061405c565b6136c9565b005b3480156103c257600080fd5b506103dd60048036038101906103d89190613f01565b61374c565b6040516103ea9190614185565b60405180910390f35b81600060036000838152602001908152602001600020604051806101200160405290816000820160009054906101000a900473ffffffffffffffffffffffffffffffffffffffff1673ffffffffffffffffffffffffffffffffffffffff1673ffffffffffffffffffffffffffffffffffffffff1681526020016001820160009054906101000a900473ffffffffffffffffffffffffffffffffffffffff1673ffffffffffffffffffffffffffffffffffffffff1673ffffffffffffffffffffffffffffffffffffffff168152602001600282015481526020016003820180546104db906141d6565b80601f0160208091040260200160405190810160405280929190818152602001828054610507906141d6565b80156105545780601f1061052957610100808354040283529160200191610554565b820191906000526020600020905b81548152906001019060200180831161053757829003601f168201915b505050505081526020016004820154815260200160058201548152602001600682015481526020016007820160009054906101000a900460ff1615151515815260200160088201805480602002602001604051908101604052809291908181526020016000905b8282101561064d57838290600052602060002090600202016040518060400160405290816000820160009054906101000a900473ffffffffffffffffffffffffffffffffffffffff1673ffffffffffffffffffffffffffffffffffffffff1673ffffffffffffffffffffffffffffffffffffffff168152602001600182015481525050815260200190600101906105bb565b505050508152505090506000816020015190503373ffffffffffffffffffffffffffffffffffffffff168173ffffffffffffffffffffffffffffffffffffffff16636352211e84604001516040518263ffffffff1660e01b81526004016106b49190613f3d565b602060405180830381865afa1580156106d1573d6000803e3d6000fd5b505050506040513d601f19601f820116820180604052508101906106f5919061421c565b73ffffffffffffffffffffffffffffffffffffffff161461074b576040517f08c379a000000000000000000000000000000000000000000000000000000000815260040161074290614295565b60405180910390fd5b84600060036000838152602001908152602001600020604051806101200160405290816000820160009054906101000a900473ffffffffffffffffffffffffffffffffffffffff1673ffffffffffffffffffffffffffffffffffffffff1673ffffffffffffffffffffffffffffffffffffffff1681526020016001820160009054906101000a900473ffffffffffffffffffffffffffffffffffffffff1673ffffffffffffffffffffffffffffffffffffffff1673ffffffffffffffffffffffffffffffffffffffff16815260200160028201548152602001600382018054610833906141d6565b80601f016020809104026020016040519081016040528092919081815260200182805461085f906141d6565b80156108ac5780601f10610881576101008083540402835291602001916108ac565b820191906000526020600020905b81548152906001019060200180831161088f57829003601f168201915b505050505081526020016004820154815260200160058201548152602001600682015481526020016007820160009054906101000a900460ff1615151515815260200160088201805480602002602001604051908101604052809291908181526020016000905b828210156109a557838290600052602060002090600202016040518060400160405290816000820160009054906101000a900473ffffffffffffffffffffffffffffffffffffffff1673ffffffffffffffffffffffffffffffffffffffff1673ffffffffffffffffffffffffffffffffffffffff16815260200160018201548152505081526020019060010190610913565b505050508152505090508060e001516109f3576040517f08c379a00000000000000000000000000000000000000000000000000000000081526004016109ea90614301565b60405180910390fd5b86600060036000838152602001908152602001600020604051806101200160405290816000820160009054906101000a900473ffffffffffffffffffffffffffffffffffffffff1673ffffffffffffffffffffffffffffffffffffffff1673ffffffffffffffffffffffffffffffffffffffff1681526020016001820160009054906101000a900473ffffffffffffffffffffffffffffffffffffffff1673ffffffffffffffffffffffffffffffffffffffff1673ffffffffffffffffffffffffffffffffffffffff16815260200160028201548152602001600382018054610adb906141d6565b80601f0160208091040260200160405190810160405280929190818152602001828054610b07906141d6565b8015610b545780601f10610b2957610100808354040283529160200191610b54565b820191906000526020600020905b815481529060010190602001808311610b3757829003601f168201915b505050505081526020016004820154815260200160058201548152602001600682015481526020016007820160009054906101000a900460ff1615151515815260200160088201805480602002602001604051908101604052809291908181526020016000905b82821015610c4d57838290600052602060002090600202016040518060400160405290816000820160009054906101000a900473ffffffffffffffffffffffffffffffffffffffff1673ffffffffffffffffffffffffffffffffffffffff1673ffffffffffffffffffffffffffffffffffffffff16815260200160018201548152505081526020019060010190610bbb565b505050508152505090508060a001514211610c9d576040517f08c379a0000000000000000000000000000000000000000000000000000000008152600401610c949061436d565b60405180910390fd5b6000600360008b81526020019081526020016000209050600189610cc191906143bc565b81600801805490501015610d0a576040517f08c379a0000000000000000000000000000000000000000000000000000000008152600401610d019061443c565b60405180910390fd5b60008160070160006101000a81548160ff0219169083151502179055506000816008018a81548110610d3f57610d3e61445c565b5b906000526020600020906002020190503073ffffffffffffffffffffffffffffffffffffffff168260010160009054906101000a900473ffffffffffffffffffffffffffffffffffffffff1673ffffffffffffffffffffffffffffffffffffffff1663081812fc84600201546040518263ffffffff1660e01b8152600401610dc79190613f3d565b602060405180830381865afa158015610de4573d6000803e3d6000fd5b505050506040513d601f19601f82011682018060405250810190610e08919061421c565b73ffffffffffffffffffffffffffffffffffffffff16036113ad578160010160009054906101000a900473ffffffffffffffffffffffffffffffffffffffff1673ffffffffffffffffffffffffffffffffffffffff166342842e0e338360000160009054906101000a900473ffffffffffffffffffffffffffffffffffffffff1685600201546040518463ffffffff1660e01b8152600401610eac9392919061448b565b600060405180830381600087803b158015610ec657600080fd5b505af1158015610eda573d6000803e3d6000fd5b505050506000600160009054906101000a900473ffffffffffffffffffffffffffffffffffffffff1673ffffffffffffffffffffffffffffffffffffffff16639b19251a336040518263ffffffff1660e01b8152600401610f3b9190613ee6565b602060405180830381865afa158015610f58573d6000803e3d6000fd5b505050506040513d601f19601f82011682018060405250810190610f7c91906144ee565b806110435750600160009054906101000a900473ffffffffffffffffffffffffffffffffffffffff1673ffffffffffffffffffffffffffffffffffffffff16639b19251a8360000160009054906101000a900473ffffffffffffffffffffffffffffffffffffffff166040518263ffffffff1660e01b81526004016110019190613ee6565b602060405180830381865afa15801561101e573d6000803e3d6000fd5b505050506040513d601f19601f8201168201806040525081019061104291906144ee565b5b905060006064600160009054906101000a900473ffffffffffffffffffffffffffffffffffffffff1673ffffffffffffffffffffffffffffffffffffffff166396ce07956040518163ffffffff1660e01b8152600401602060405180830381865afa1580156110b6573d6000803e3d6000fd5b505050506040513d601f19601f820116820180604052508101906110da9190614530565b600160009054906101000a900473ffffffffffffffffffffffffffffffffffffffff1673ffffffffffffffffffffffffffffffffffffffff16636fb1eb0c6040518163ffffffff1660e01b8152600401602060405180830381865afa158015611147573d6000803e3d6000fd5b505050506040513d601f19601f8201168201806040525081019061116b9190614530565b856001015461117a919061455d565b61118491906145ce565b61118e91906145ce565b9050811561119b57600090505b60008184600101546111ad91906145ff565b9050600082111561129057600160009054906101000a900473ffffffffffffffffffffffffffffffffffffffff1673ffffffffffffffffffffffffffffffffffffffff16630135f7406040518163ffffffff1660e01b8152600401602060405180830381865afa158015611225573d6000803e3d6000fd5b505050506040513d601f19601f820116820180604052508101906112499190614671565b73ffffffffffffffffffffffffffffffffffffffff166108fc839081150290604051600060405180830381858888f1935050505015801561128e573d6000803e3d6000fd5b505b3373ffffffffffffffffffffffffffffffffffffffff166108fc829081150290604051600060405180830381858888f193505050501580156112d6573d6000803e3d6000fd5b507f17bd5a4dc9b440b0804dcabc3369a419717be6dfbd23170766ee844d1faf465b8e8560010154338760000160009054906101000a900473ffffffffffffffffffffffffffffffffffffffff16604051611334949392919061469e565b60405180910390a17fdcadc08d0c419e9b2218af6c9e64d42f3275244722cd48237abb80805b155ee48e8e8660000160009054906101000a900473ffffffffffffffffffffffffffffffffffffffff16604051611393939291906146e3565b60405180910390a1600084600101819055505050506113e8565b6040517f08c379a00000000000000000000000000000000000000000000000000000000081526004016113df90614766565b60405180910390fd5b5050505050505050505050565b6113fd613a7f565b808273ffffffffffffffffffffffffffffffffffffffff166370a08231306040518263ffffffff1660e01b81526004016114379190613ee6565b602060405180830381865afa158015611454573d6000803e3d6000fd5b505050506040513d601f19601f820116820180604052508101906114789190614530565b10156114b9576040517f08c379a00000000000000000000000000000000000000000000000000000000081526004016114b0906147d2565b60405180910390fd5b8173ffffffffffffffffffffffffffffffffffffffff1663a9059cbb33836040518363ffffffff1660e01b81526004016114f49291906147f2565b6020604051808303816000875af1158015611513573d6000803e3d6000fd5b505050506040513d601f19601f8201168201806040525081019061153791906144ee565b505050565b611544613a7f565b3373ffffffffffffffffffffffffffffffffffffffff166108fc479081150290604051600060405180830381858888f1935050505015801561158a573d6000803e3d6000fd5b50565b81600060036000838152602001908152602001600020604051806101200160405290816000820160009054906101000a900473ffffffffffffffffffffffffffffffffffffffff1673ffffffffffffffffffffffffffffffffffffffff1673ffffffffffffffffffffffffffffffffffffffff1681526020016001820160009054906101000a900473ffffffffffffffffffffffffffffffffffffffff1673ffffffffffffffffffffffffffffffffffffffff1673ffffffffffffffffffffffffffffffffffffffff16815260200160028201548152602001600382018054611675906141d6565b80601f01602080910402602001604051908101604052809291908181526020018280546116a1906141d6565b80156116ee5780601f106116c3576101008083540402835291602001916116ee565b820191906000526020600020905b8154815290600101906020018083116116d157829003601f168201915b505050505081526020016004820154815260200160058201548152602001600682015481526020016007820160009054906101000a900460ff1615151515815260200160088201805480602002602001604051908101604052809291908181526020016000905b828210156117e757838290600052602060002090600202016040518060400160405290816000820160009054906101000a900473ffffffffffffffffffffffffffffffffffffffff1673ffffffffffffffffffffffffffffffffffffffff1673ffffffffffffffffffffffffffffffffffffffff16815260200160018201548152505081526020019060010190611755565b505050508152505090508060a001514211611837576040517f08c379a000000000000000000000000000000000000000000000000000000000815260040161182e9061436d565b60405180910390fd5b60006003600086815260200190815260200160002060080184815481106118615761186061445c565b5b906000526020600020906002020190503373ffffffffffffffffffffffffffffffffffffffff168160000160009054906101000a900473ffffffffffffffffffffffffffffffffffffffff1673ffffffffffffffffffffffffffffffffffffffff1614611903576040517f08c379a00000000000000000000000000000000000000000000000000000000081526004016118fa90614867565b60405180910390fd5b600081600101541161194a576040517f08c379a0000000000000000000000000000000000000000000000000000000008152600401611941906148d3565b60405180910390fd5b600081600101549050600082600101819055503373ffffffffffffffffffffffffffffffffffffffff166108fc829081150290604051600060405180830381858888f193505050501580156119a3573d6000803e3d6000fd5b507fdcadc08d0c419e9b2218af6c9e64d42f3275244722cd48237abb80805b155ee48686336040516119d7939291906146e3565b60405180910390a1505050505050565b600160009054906101000a900473ffffffffffffffffffffffffffffffffffffffff1681565b8060000151816020015160008290508073ffffffffffffffffffffffffffffffffffffffff16636352211e836040518263ffffffff1660e01b8152600401611a559190613f3d565b602060405180830381865afa158015611a72573d6000803e3d6000fd5b505050506040513d601f19601f82011682018060405250810190611a96919061421c565b73ffffffffffffffffffffffffffffffffffffffff163373ffffffffffffffffffffffffffffffffffffffff1614611b03576040517f08c379a0000000000000000000000000000000000000000000000000000000008152600401611afa9061493f565b60405180910390fd5b836000015184602001516000600460008473ffffffffffffffffffffffffffffffffffffffff1673ffffffffffffffffffffffffffffffffffffffff1681526020019081526020016000206000838152602001908152602001600020549050600060036000838152602001908152602001600020604051806101200160405290816000820160009054906101000a900473ffffffffffffffffffffffffffffffffffffffff1673ffffffffffffffffffffffffffffffffffffffff1673ffffffffffffffffffffffffffffffffffffffff1681526020016001820160009054906101000a900473ffffffffffffffffffffffffffffffffffffffff1673ffffffffffffffffffffffffffffffffffffffff1673ffffffffffffffffffffffffffffffffffffffff16815260200160028201548152602001600382018054611c49906141d6565b80601f0160208091040260200160405190810160405280929190818152602001828054611c75906141d6565b8015611cc25780601f10611c9757610100808354040283529160200191611cc2565b820191906000526020600020905b815481529060010190602001808311611ca557829003601f168201915b505050505081526020016004820154815260200160058201548152602001600682015481526020016007820160009054906101000a900460ff1615151515815260200160088201805480602002602001604051908101604052809291908181526020016000905b82821015611dbb57838290600052602060002090600202016040518060400160405290816000820160009054906101000a900473ffffffffffffffffffffffffffffffffffffffff1673ffffffffffffffffffffffffffffffffffffffff1673ffffffffffffffffffffffffffffffffffffffff16815260200160018201548152505081526020019060010190611d29565b50505050815250509050600115158160e00151151503611e10576040517f08c379a0000000000000000000000000000000000000000000000000000000008152600401611e07906149ab565b60405180910390fd5b600088606001519050600089604001519050428211611e64576040517f08c379a0000000000000000000000000000000000000000000000000000000008152600401611e5b90614a17565b60405180910390fd5b60008a60000151905060008173ffffffffffffffffffffffffffffffffffffffff1663c87b56dd8d602001516040518263ffffffff1660e01b8152600401611eac9190613f3d565b600060405180830381865afa158015611ec9573d6000803e3d6000fd5b505050506040513d6000823e3d601f19601f82011682018060405250810190611ef29190614ae2565b905060026000815480929190611f0790614b2b565b9190505550600060025490506000600360008381526020019081526020016000209050338160000160006101000a81548173ffffffffffffffffffffffffffffffffffffffff021916908373ffffffffffffffffffffffffffffffffffffffff1602179055508d600001518160010160006101000a81548173ffffffffffffffffffffffffffffffffffffffff021916908373ffffffffffffffffffffffffffffffffffffffff1602179055508d60200151816002018190555082816003019081611fd29190614d15565b5084816004018190555085816005018190555042816006018190555060018160070160006101000a81548160ff02191690831515021790555050600254600460008f6000015173ffffffffffffffffffffffffffffffffffffffff1673ffffffffffffffffffffffffffffffffffffffff16815260200190815260200160002060008f602001518152602001908152602001600020819055507f4eec32c232e377e06bf5938eb4e9e044dab50764b490f022799915ee9a9782ab818e600001518f602001518588338b6040516120ae9796959493929190614de7565b60405180910390a150505050505050505050505050565b600080600460008573ffffffffffffffffffffffffffffffffffffffff1673ffffffffffffffffffffffffffffffffffffffff1681526020019081526020016000206000848152602001908152602001600020549050600060036000838152602001908152602001600020604051806101200160405290816000820160009054906101000a900473ffffffffffffffffffffffffffffffffffffffff1673ffffffffffffffffffffffffffffffffffffffff1673ffffffffffffffffffffffffffffffffffffffff1681526020016001820160009054906101000a900473ffffffffffffffffffffffffffffffffffffffff1673ffffffffffffffffffffffffffffffffffffffff1673ffffffffffffffffffffffffffffffffffffffff16815260200160028201548152602001600382018054612202906141d6565b80601f016020809104026020016040519081016040528092919081815260200182805461222e906141d6565b801561227b5780601f106122505761010080835404028352916020019161227b565b820191906000526020600020905b81548152906001019060200180831161225e57829003601f168201915b505050505081526020016004820154815260200160058201548152602001600682015481526020016007820160009054906101000a900460ff1615151515815260200160088201805480602002602001604051908101604052809291908181526020016000905b8282101561237457838290600052602060002090600202016040518060400160405290816000820160009054906101000a900473ffffffffffffffffffffffffffffffffffffffff1673ffffffffffffffffffffffffffffffffffffffff1673ffffffffffffffffffffffffffffffffffffffff168152602001600182015481525050815260200190600101906122e2565b505050508152505090508060e001519250505092915050565b612395613a7f565b61239f6000613afd565b565b60008060009054906101000a900473ffffffffffffffffffffffffffffffffffffffff16905090565b80600060036000838152602001908152602001600020604051806101200160405290816000820160009054906101000a900473ffffffffffffffffffffffffffffffffffffffff1673ffffffffffffffffffffffffffffffffffffffff1673ffffffffffffffffffffffffffffffffffffffff1681526020016001820160009054906101000a900473ffffffffffffffffffffffffffffffffffffffff1673ffffffffffffffffffffffffffffffffffffffff1673ffffffffffffffffffffffffffffffffffffffff168152602001600282015481526020016003820180546124b2906141d6565b80601f01602080910402602001604051908101604052809291908181526020018280546124de906141d6565b801561252b5780601f106125005761010080835404028352916020019161252b565b820191906000526020600020905b81548152906001019060200180831161250e57829003601f168201915b505050505081526020016004820154815260200160058201548152602001600682015481526020016007820160009054906101000a900460ff1615151515815260200160088201805480602002602001604051908101604052809291908181526020016000905b8282101561262457838290600052602060002090600202016040518060400160405290816000820160009054906101000a900473ffffffffffffffffffffffffffffffffffffffff1673ffffffffffffffffffffffffffffffffffffffff1673ffffffffffffffffffffffffffffffffffffffff16815260200160018201548152505081526020019060010190612592565b505050508152505090508060e00151612672576040517f08c379a000000000000000000000000000000000000000000000000000000000815260040161266990614301565b60405180910390fd5b82600060036000838152602001908152602001600020604051806101200160405290816000820160009054906101000a900473ffffffffffffffffffffffffffffffffffffffff1673ffffffffffffffffffffffffffffffffffffffff1673ffffffffffffffffffffffffffffffffffffffff1681526020016001820160009054906101000a900473ffffffffffffffffffffffffffffffffffffffff1673ffffffffffffffffffffffffffffffffffffffff1673ffffffffffffffffffffffffffffffffffffffff1681526020016002820154815260200160038201805461275a906141d6565b80601f0160208091040260200160405190810160405280929190818152602001828054612786906141d6565b80156127d35780601f106127a8576101008083540402835291602001916127d3565b820191906000526020600020905b8154815290600101906020018083116127b657829003601f168201915b505050505081526020016004820154815260200160058201548152602001600682015481526020016007820160009054906101000a900460ff1615151515815260200160088201805480602002602001604051908101604052809291908181526020016000905b828210156128cc57838290600052602060002090600202016040518060400160405290816000820160009054906101000a900473ffffffffffffffffffffffffffffffffffffffff1673ffffffffffffffffffffffffffffffffffffffff1673ffffffffffffffffffffffffffffffffffffffff1681526020016001820154815250508152602001906001019061283a565b505050508152505090508060c00151421161291c576040517f08c379a000000000000000000000000000000000000000000000000000000000815260040161291390614ea9565b60405180910390fd5b84600060036000838152602001908152602001600020604051806101200160405290816000820160009054906101000a900473ffffffffffffffffffffffffffffffffffffffff1673ffffffffffffffffffffffffffffffffffffffff1673ffffffffffffffffffffffffffffffffffffffff1681526020016001820160009054906101000a900473ffffffffffffffffffffffffffffffffffffffff1673ffffffffffffffffffffffffffffffffffffffff1673ffffffffffffffffffffffffffffffffffffffff16815260200160028201548152602001600382018054612a04906141d6565b80601f0160208091040260200160405190810160405280929190818152602001828054612a30906141d6565b8015612a7d5780601f10612a5257610100808354040283529160200191612a7d565b820191906000526020600020905b815481529060010190602001808311612a6057829003601f168201915b505050505081526020016004820154815260200160058201548152602001600682015481526020016007820160009054906101000a900460ff1615151515815260200160088201805480602002602001604051908101604052809291908181526020016000905b82821015612b7657838290600052602060002090600202016040518060400160405290816000820160009054906101000a900473ffffffffffffffffffffffffffffffffffffffff1673ffffffffffffffffffffffffffffffffffffffff1673ffffffffffffffffffffffffffffffffffffffff16815260200160018201548152505081526020019060010190612ae4565b505050508152505090508060a00151421115612bc7576040517f08c379a0000000000000000000000000000000000000000000000000000000008152600401612bbe90614f15565b60405180910390fd5b600060036000898152602001908152602001600020905060008160010160009054906101000a900473ffffffffffffffffffffffffffffffffffffffff1690503373ffffffffffffffffffffffffffffffffffffffff168173ffffffffffffffffffffffffffffffffffffffff16636352211e84600201546040518263ffffffff1660e01b8152600401612c5b9190613f3d565b602060405180830381865afa158015612c78573d6000803e3d6000fd5b505050506040513d601f19601f82011682018060405250810190612c9c919061421c565b73ffffffffffffffffffffffffffffffffffffffff1603612cf2576040517f08c379a0000000000000000000000000000000000000000000000000000000008152600401612ce990614f81565b60405180910390fd5b81600401543411612d38576040517f08c379a0000000000000000000000000000000000000000000000000000000008152600401612d2f90615013565b60405180910390fd5b348260040181905550600060405180604001604052803373ffffffffffffffffffffffffffffffffffffffff1681526020013481525090506000836008018054905090508360080182908060018154018082558091505060019003906000526020600020906002020160009091909190915060008201518160000160006101000a81548173ffffffffffffffffffffffffffffffffffffffff021916908373ffffffffffffffffffffffffffffffffffffffff1602179055506020820151816001015550507f4abc22c09358a5b7cd7db032b2d845c1260a84300eb1893d499d399bf0393b588b33348760010160009054906101000a900473ffffffffffffffffffffffffffffffffffffffff16886002015486604051612e5e96959493929190615033565b60405180910390a15050505050505050505050565b6004602052816000526040600020602052806000526040600020600091509150505481565b60025481565b60036020528060005260406000206000915090508060000160009054906101000a900473ffffffffffffffffffffffffffffffffffffffff16908060010160009054906101000a900473ffffffffffffffffffffffffffffffffffffffff1690806002015490806003018054612f13906141d6565b80601f0160208091040260200160405190810160405280929190818152602001828054612f3f906141d6565b8015612f8c5780601f10612f6157610100808354040283529160200191612f8c565b820191906000526020600020905b815481529060010190602001808311612f6f57829003601f168201915b5050505050908060040154908060050154908060060154908060070160009054906101000a900460ff16905088565b612fc3613a7f565b60004790508181101561300b576040517f08c379a0000000000000000000000000000000000000000000000000000000008152600401613002906150e0565b60405180910390fd5b3373ffffffffffffffffffffffffffffffffffffffff166108fc839081150290604051600060405180830381858888f19350505050158015613051573d6000803e3d6000fd5b505050565b80600060036000838152602001908152602001600020604051806101200160405290816000820160009054906101000a900473ffffffffffffffffffffffffffffffffffffffff1673ffffffffffffffffffffffffffffffffffffffff1673ffffffffffffffffffffffffffffffffffffffff1681526020016001820160009054906101000a900473ffffffffffffffffffffffffffffffffffffffff1673ffffffffffffffffffffffffffffffffffffffff1673ffffffffffffffffffffffffffffffffffffffff1681526020016002820154815260200160038201805461313e906141d6565b80601f016020809104026020016040519081016040528092919081815260200182805461316a906141d6565b80156131b75780601f1061318c576101008083540402835291602001916131b7565b820191906000526020600020905b81548152906001019060200180831161319a57829003601f168201915b505050505081526020016004820154815260200160058201548152602001600682015481526020016007820160009054906101000a900460ff1615151515815260200160088201805480602002602001604051908101604052809291908181526020016000905b828210156132b057838290600052602060002090600202016040518060400160405290816000820160009054906101000a900473ffffffffffffffffffffffffffffffffffffffff1673ffffffffffffffffffffffffffffffffffffffff1673ffffffffffffffffffffffffffffffffffffffff1681526020016001820154815250508152602001906001019061321e565b505050508152505090506000816020015190503373ffffffffffffffffffffffffffffffffffffffff168173ffffffffffffffffffffffffffffffffffffffff16636352211e84604001516040518263ffffffff1660e01b81526004016133179190613f3d565b602060405180830381865afa158015613334573d6000803e3d6000fd5b505050506040513d601f19601f82011682018060405250810190613358919061421c565b73ffffffffffffffffffffffffffffffffffffffff16146133ae576040517f08c379a00000000000000000000000000000000000000000000000000000000081526004016133a590614295565b60405180910390fd5b83600060036000838152602001908152602001600020604051806101200160405290816000820160009054906101000a900473ffffffffffffffffffffffffffffffffffffffff1673ffffffffffffffffffffffffffffffffffffffff1673ffffffffffffffffffffffffffffffffffffffff1681526020016001820160009054906101000a900473ffffffffffffffffffffffffffffffffffffffff1673ffffffffffffffffffffffffffffffffffffffff1673ffffffffffffffffffffffffffffffffffffffff16815260200160028201548152602001600382018054613496906141d6565b80601f01602080910402602001604051908101604052809291908181526020018280546134c2906141d6565b801561350f5780601f106134e45761010080835404028352916020019161350f565b820191906000526020600020905b8154815290600101906020018083116134f257829003601f168201915b505050505081526020016004820154815260200160058201548152602001600682015481526020016007820160009054906101000a900460ff1615151515815260200160088201805480602002602001604051908101604052809291908181526020016000905b8282101561360857838290600052602060002090600202016040518060400160405290816000820160009054906101000a900473ffffffffffffffffffffffffffffffffffffffff1673ffffffffffffffffffffffffffffffffffffffff1673ffffffffffffffffffffffffffffffffffffffff16815260200160018201548152505081526020019060010190613576565b505050508152505090508060e00151613656576040517f08c379a000000000000000000000000000000000000000000000000000000000815260040161364d90614301565b60405180910390fd5b600060036000888152602001908152602001600020905060008160070160006101000a81548160ff0219169083151502179055507e8860f8ba09adfd502e18671146909e9be0e501144cba940d03e64f1af1050b876040516136b89190613f3d565b60405180910390a150505050505050565b6136d1613a7f565b600073ffffffffffffffffffffffffffffffffffffffff168173ffffffffffffffffffffffffffffffffffffffff1603613740576040517f08c379a000000000000000000000000000000000000000000000000000000000815260040161373790615172565b60405180910390fd5b61374981613afd565b50565b6060600060036000848152602001908152602001600020604051806101200160405290816000820160009054906101000a900473ffffffffffffffffffffffffffffffffffffffff1673ffffffffffffffffffffffffffffffffffffffff1673ffffffffffffffffffffffffffffffffffffffff1681526020016001820160009054906101000a900473ffffffffffffffffffffffffffffffffffffffff1673ffffffffffffffffffffffffffffffffffffffff1673ffffffffffffffffffffffffffffffffffffffff16815260200160028201548152602001600382018054613835906141d6565b80601f0160208091040260200160405190810160405280929190818152602001828054613861906141d6565b80156138ae5780601f10613883576101008083540402835291602001916138ae565b820191906000526020600020905b81548152906001019060200180831161389157829003601f168201915b505050505081526020016004820154815260200160058201548152602001600682015481526020016007820160009054906101000a900460ff1615151515815260200160088201805480602002602001604051908101604052809291908181526020016000905b828210156139a757838290600052602060002090600202016040518060400160405290816000820160009054906101000a900473ffffffffffffffffffffffffffffffffffffffff1673ffffffffffffffffffffffffffffffffffffffff1673ffffffffffffffffffffffffffffffffffffffff16815260200160018201548152505081526020019060010190613915565b5050505081525050905060606000805b83610100015151811015613a7357600084610100015182815181106139df576139de61445c565b5b602002602001015190503373ffffffffffffffffffffffffffffffffffffffff16816000015173ffffffffffffffffffffffffffffffffffffffff16148015613a2c575060008160200151115b15613a5f5780848481518110613a4557613a4461445c565b5b60200260200101819052508280613a5b90614b2b565b9350505b508080613a6b90614b2b565b9150506139b7565b50819350505050919050565b613a87613bc1565b73ffffffffffffffffffffffffffffffffffffffff16613aa56123a1565b73ffffffffffffffffffffffffffffffffffffffff1614613afb576040517f08c379a0000000000000000000000000000000000000000000000000000000008152600401613af2906151de565b60405180910390fd5b565b60008060009054906101000a900473ffffffffffffffffffffffffffffffffffffffff169050816000806101000a81548173ffffffffffffffffffffffffffffffffffffffff021916908373ffffffffffffffffffffffffffffffffffffffff1602179055508173ffffffffffffffffffffffffffffffffffffffff168173ffffffffffffffffffffffffffffffffffffffff167f8be0079c531659141344cd1fd0a4f28419497f9722a3daafe3b4186f6b6457e060405160405180910390a35050565b600033905090565b6000604051905090565b600080fd5b600080fd5b6000819050919050565b613bf081613bdd565b8114613bfb57600080fd5b50565b600081359050613c0d81613be7565b92915050565b60008060408385031215613c2a57613c29613bd3565b5b6000613c3885828601613bfe565b9250506020613c4985828601613bfe565b9150509250929050565b600073ffffffffffffffffffffffffffffffffffffffff82169050919050565b6000613c7e82613c53565b9050919050565b613c8e81613c73565b8114613c9957600080fd5b50565b600081359050613cab81613c85565b92915050565b60008060408385031215613cc857613cc7613bd3565b5b6000613cd685828601613c9c565b9250506020613ce785828601613bfe565b9150509250929050565b6000819050919050565b6000613d16613d11613d0c84613c53565b613cf1565b613c53565b9050919050565b6000613d2882613cfb565b9050919050565b6000613d3a82613d1d565b9050919050565b613d4a81613d2f565b82525050565b6000602082019050613d656000830184613d41565b92915050565b600080fd5b6000601f19601f8301169050919050565b7f4e487b7100000000000000000000000000000000000000000000000000000000600052604160045260246000fd5b613db982613d70565b810181811067ffffffffffffffff82111715613dd857613dd7613d81565b5b80604052505050565b6000613deb613bc9565b9050613df78282613db0565b919050565b600060808284031215613e1257613e11613d6b565b5b613e1c6080613de1565b90506000613e2c84828501613c9c565b6000830152506020613e4084828501613bfe565b6020830152506040613e5484828501613bfe565b6040830152506060613e6884828501613bfe565b60608301525092915050565b600060808284031215613e8a57613e89613bd3565b5b6000613e9884828501613dfc565b91505092915050565b60008115159050919050565b613eb681613ea1565b82525050565b6000602082019050613ed16000830184613ead565b92915050565b613ee081613c73565b82525050565b6000602082019050613efb6000830184613ed7565b92915050565b600060208284031215613f1757613f16613bd3565b5b6000613f2584828501613bfe565b91505092915050565b613f3781613bdd565b82525050565b6000602082019050613f526000830184613f2e565b92915050565b600081519050919050565b600082825260208201905092915050565b60005b83811015613f92578082015181840152602081019050613f77565b60008484015250505050565b6000613fa982613f58565b613fb38185613f63565b9350613fc3818560208601613f74565b613fcc81613d70565b840191505092915050565b600061010082019050613fed600083018b613ed7565b613ffa602083018a613ed7565b6140076040830189613f2e565b81810360608301526140198188613f9e565b90506140286080830187613f2e565b61403560a0830186613f2e565b61404260c0830185613f2e565b61404f60e0830184613ead565b9998505050505050505050565b60006020828403121561407257614071613bd3565b5b600061408084828501613c9c565b91505092915050565b600081519050919050565b600082825260208201905092915050565b6000819050602082019050919050565b6140be81613c73565b82525050565b6140cd81613bdd565b82525050565b6040820160008201516140e960008501826140b5565b5060208201516140fc60208501826140c4565b50505050565b600061410e83836140d3565b60408301905092915050565b6000602082019050919050565b600061413282614089565b61413c8185614094565b9350614147836140a5565b8060005b8381101561417857815161415f8882614102565b975061416a8361411a565b92505060018101905061414b565b5085935050505092915050565b6000602082019050818103600083015261419f8184614127565b905092915050565b7f4e487b7100000000000000000000000000000000000000000000000000000000600052602260045260246000fd5b600060028204905060018216806141ee57607f821691505b602082108103614201576142006141a7565b5b50919050565b60008151905061421681613c85565b92915050565b60006020828403121561423257614231613bd3565b5b600061424084828501614207565b91505092915050565b7f4f6e6c792041756374696f6e4f776e6572000000000000000000000000000000600082015250565b600061427f601183613f63565b915061428a82614249565b602082019050919050565b600060208201905081810360008301526142ae81614272565b9050919050565b7f41756374696f6e20646f6573206e6f7420657869737400000000000000000000600082015250565b60006142eb601683613f63565b91506142f6826142b5565b602082019050919050565b6000602082019050818103600083015261431a816142de565b9050919050565b7f41756374696f6e206e6f7420656e646564000000000000000000000000000000600082015250565b6000614357601183613f63565b915061436282614321565b602082019050919050565b600060208201905081810360008301526143868161434a565b9050919050565b7f4e487b7100000000000000000000000000000000000000000000000000000000600052601160045260246000fd5b60006143c782613bdd565b91506143d283613bdd565b92508282019050808211156143ea576143e961438d565b5b92915050565b7f42696464657220646f6573206e6f742065786973740000000000000000000000600082015250565b6000614426601583613f63565b9150614431826143f0565b602082019050919050565b6000602082019050818103600083015261445581614419565b9050919050565b7f4e487b7100000000000000000000000000000000000000000000000000000000600052603260045260246000fd5b60006060820190506144a06000830186613ed7565b6144ad6020830185613ed7565b6144ba6040830184613f2e565b949350505050565b6144cb81613ea1565b81146144d657600080fd5b50565b6000815190506144e8816144c2565b92915050565b60006020828403121561450457614503613bd3565b5b6000614512848285016144d9565b91505092915050565b60008151905061452a81613be7565b92915050565b60006020828403121561454657614545613bd3565b5b60006145548482850161451b565b91505092915050565b600061456882613bdd565b915061457383613bdd565b925082820261458181613bdd565b915082820484148315176145985761459761438d565b5b5092915050565b7f4e487b7100000000000000000000000000000000000000000000000000000000600052601260045260246000fd5b60006145d982613bdd565b91506145e483613bdd565b9250826145f4576145f361459f565b5b828204905092915050565b600061460a82613bdd565b915061461583613bdd565b925082820390508181111561462d5761462c61438d565b5b92915050565b600061463e82613c53565b9050919050565b61464e81614633565b811461465957600080fd5b50565b60008151905061466b81614645565b92915050565b60006020828403121561468757614686613bd3565b5b60006146958482850161465c565b91505092915050565b60006080820190506146b36000830187613f2e565b6146c06020830186613f2e565b6146cd6040830185613ed7565b6146da6060830184613ed7565b95945050505050565b60006060820190506146f86000830186613f2e565b6147056020830185613f2e565b6147126040830184613ed7565b949350505050565b7f417070726f7665204e4654000000000000000000000000000000000000000000600082015250565b6000614750600b83613f63565b915061475b8261471a565b602082019050919050565b6000602082019050818103600083015261477f81614743565b9050919050565b7f57726f6e6720616d6f756e740000000000000000000000000000000000000000600082015250565b60006147bc600c83613f63565b91506147c782614786565b602082019050919050565b600060208201905081810360008301526147eb816147af565b9050919050565b60006040820190506148076000830185613ed7565b6148146020830184613f2e565b9392505050565b7f596f7520617265206e6f7420616c6c6f77656400000000000000000000000000600082015250565b6000614851601383613f63565b915061485c8261481b565b602082019050919050565b6000602082019050818103600083015261488081614844565b9050919050565b7f596f7520616c7265616479207769746864726177656400000000000000000000600082015250565b60006148bd601683613f63565b91506148c882614887565b602082019050919050565b600060208201905081810360008301526148ec816148b0565b9050919050565b7f596f7520617265206e6f74206120746f6b656e206f776e657200000000000000600082015250565b6000614929601983613f63565b9150614934826148f3565b602082019050919050565b600060208201905081810360008301526149588161491c565b9050919050565b7f41756374696f6e20457869737473000000000000000000000000000000000000600082015250565b6000614995600e83613f63565b91506149a08261495f565b602082019050919050565b600060208201905081810360008301526149c481614988565b9050919050565b7f496e76616c696420646561646c696e6500000000000000000000000000000000600082015250565b6000614a01601083613f63565b9150614a0c826149cb565b602082019050919050565b60006020820190508181036000830152614a30816149f4565b9050919050565b600080fd5b600080fd5b600067ffffffffffffffff821115614a5c57614a5b613d81565b5b614a6582613d70565b9050602081019050919050565b6000614a85614a8084614a41565b613de1565b905082815260208101848484011115614aa157614aa0614a3c565b5b614aac848285613f74565b509392505050565b600082601f830112614ac957614ac8614a37565b5b8151614ad9848260208601614a72565b91505092915050565b600060208284031215614af857614af7613bd3565b5b600082015167ffffffffffffffff811115614b1657614b15613bd8565b5b614b2284828501614ab4565b91505092915050565b6000614b3682613bdd565b91507fffffffffffffffffffffffffffffffffffffffffffffffffffffffffffffffff8203614b6857614b6761438d565b5b600182019050919050565b60008190508160005260206000209050919050565b60006020601f8301049050919050565b600082821b905092915050565b600060088302614bd57fffffffffffffffffffffffffffffffffffffffffffffffffffffffffffffffff82614b98565b614bdf8683614b98565b95508019841693508086168417925050509392505050565b6000614c12614c0d614c0884613bdd565b613cf1565b613bdd565b9050919050565b6000819050919050565b614c2c83614bf7565b614c40614c3882614c19565b848454614ba5565b825550505050565b600090565b614c55614c48565b614c60818484614c23565b505050565b5b81811015614c8457614c79600082614c4d565b600181019050614c66565b5050565b601f821115614cc957614c9a81614b73565b614ca384614b88565b81016020851015614cb2578190505b614cc6614cbe85614b88565b830182614c65565b50505b505050565b600082821c905092915050565b6000614cec60001984600802614cce565b1980831691505092915050565b6000614d058383614cdb565b9150826002028217905092915050565b614d1e82613f58565b67ffffffffffffffff811115614d3757614d36613d81565b5b614d4182546141d6565b614d4c828285614c88565b600060209050601f831160018114614d7f5760008415614d6d578287015190505b614d778582614cf9565b865550614ddf565b601f198416614d8d86614b73565b60005b82811015614db557848901518255600182019150602085019450602081019050614d90565b86831015614dd25784890151614dce601f891682614cdb565b8355505b6001600288020188555050505b505050505050565b600060e082019050614dfc600083018a613f2e565b614e096020830189613ed7565b614e166040830188613f2e565b8181036060830152614e288187613f9e565b9050614e376080830186613f2e565b614e4460a0830185613ed7565b614e5160c0830184613f2e565b98975050505050505050565b7f41756374696f6e206e6f74207374617274656400000000000000000000000000600082015250565b6000614e93601383613f63565b9150614e9e82614e5d565b602082019050919050565b60006020820190508181036000830152614ec281614e86565b9050919050565b7f41756374696f6e20656e64656400000000000000000000000000000000000000600082015250565b6000614eff600d83613f63565b9150614f0a82614ec9565b602082019050919050565b60006020820190508181036000830152614f2e81614ef2565b9050919050565b7f43726561746f72206e6f742061626c6520746f20706c61636520626964000000600082015250565b6000614f6b601d83613f63565b9150614f7682614f35565b602082019050919050565b60006020820190508181036000830152614f9a81614f5e565b9050919050565b7f5072696365206e65656420746f20626520686967686572207468616e2068696760008201527f6865737420626964207072696365000000000000000000000000000000000000602082015250565b6000614ffd602e83613f63565b915061500882614fa1565b604082019050919050565b6000602082019050818103600083015261502c81614ff0565b9050919050565b600060c0820190506150486000830189613f2e565b6150556020830188613ed7565b6150626040830187613f2e565b61506f6060830186613ed7565b61507c6080830185613f2e565b61508960a0830184613f2e565b979650505050505050565b7f496e73756666696369656e7420616d6f756e7400000000000000000000000000600082015250565b60006150ca601383613f63565b91506150d582615094565b602082019050919050565b600060208201905081810360008301526150f9816150bd565b9050919050565b7f4f776e61626c653a206e6577206f776e657220697320746865207a65726f206160008201527f6464726573730000000000000000000000000000000000000000000000000000602082015250565b600061515c602683613f63565b915061516782615100565b604082019050919050565b6000602082019050818103600083015261518b8161514f565b9050919050565b7f4f776e61626c653a2063616c6c6572206973206e6f7420746865206f776e6572600082015250565b60006151c8602083613f63565b91506151d382615192565b602082019050919050565b600060208201905081810360008301526151f7816151bb565b905091905056fea264697066735822122051a92203dee01ffd5ca8cac7c0bb9beb76271df25426b2ea6cdff8b99cabd85064736f6c63430008110033",
  "linkReferences": {},
  "deployedLinkReferences": {}
}