{
  "contractName": "GogglesNFT",
  "abi": [
    {
      "inputs": [
        {
          "internalType": "address",
          "name": "_owner",
          "type": "address"
        }
      ],
      "stateMutability": "nonpayable",
      "type": "constructor"
    },
    {
      "anonymous": false,
      "inputs": [
        {
          "indexed": true,
          "internalType": "address",
          "name": "owner",
          "type": "address"
        },
        {
          "indexed": true,
          "internalType": "address",
          "name": "approved",
          "type": "address"
        },
        {
          "indexed": true,
          "internalType": "uint256",
          "name": "tokenId",
          "type": "uint256"
        }
      ],
      "name": "Approval",
      "type": "event"
    },
    {
      "anonymous": false,
      "inputs": [
        {
          "indexed": true,
          "internalType": "address",
          "name": "owner",
          "type": "address"
        },
        {
          "indexed": true,
          "internalType": "address",
          "name": "operator",
          "type": "address"
        },
        {
          "indexed": false,
          "internalType": "bool",
          "name": "approved",
          "type": "bool"
        }
      ],
      "name": "ApprovalForAll",
      "type": "event"
    },
    {
      "anonymous": false,
      "inputs": [
        {
          "indexed": true,
          "internalType": "address",
          "name": "minter",
          "type": "address"
        },
        {
          "indexed": false,
          "internalType": "uint256",
          "name": "price",
          "type": "uint256"
        },
        {
          "indexed": false,
          "internalType": "uint256",
          "name": "nftID",
          "type": "uint256"
        },
        {
          "indexed": false,
          "internalType": "string",
          "name": "uri",
          "type": "string"
        }
      ],
      "name": "Minted",
      "type": "event"
    },
    {
      "anonymous": false,
      "inputs": [
        {
          "indexed": true,
          "internalType": "address",
          "name": "previousOwner",
          "type": "address"
        },
        {
          "indexed": true,
          "internalType": "address",
          "name": "newOwner",
          "type": "address"
        }
      ],
      "name": "OwnershipTransferred",
      "type": "event"
    },
    {
      "anonymous": false,
      "inputs": [
        {
          "indexed": true,
          "internalType": "address",
          "name": "owner",
          "type": "address"
        },
        {
          "indexed": false,
          "internalType": "uint256",
          "name": "oldPrice",
          "type": "uint256"
        },
        {
          "indexed": false,
          "internalType": "uint256",
          "name": "newPrice",
          "type": "uint256"
        },
        {
          "indexed": false,
          "internalType": "uint256",
          "name": "nftID",
          "type": "uint256"
        }
      ],
      "name": "PriceUpdate",
      "type": "event"
    },
    {
      "anonymous": false,
      "inputs": [
        {
          "indexed": true,
          "internalType": "address",
          "name": "previousOwner",
          "type": "address"
        },
        {
          "indexed": true,
          "internalType": "address",
          "name": "newOwner",
          "type": "address"
        },
        {
          "indexed": false,
          "internalType": "uint256",
          "name": "price",
          "type": "uint256"
        },
        {
          "indexed": false,
          "internalType": "uint256",
          "name": "nftID",
          "type": "uint256"
        },
        {
          "indexed": false,
          "internalType": "string",
          "name": "uri",
          "type": "string"
        }
      ],
      "name": "Purchase",
      "type": "event"
    },
    {
      "anonymous": false,
      "inputs": [
        {
          "indexed": true,
          "internalType": "address",
          "name": "from",
          "type": "address"
        },
        {
          "indexed": true,
          "internalType": "address",
          "name": "to",
          "type": "address"
        },
        {
          "indexed": true,
          "internalType": "uint256",
          "name": "tokenId",
          "type": "uint256"
        }
      ],
      "name": "Transfer",
      "type": "event"
    },
    {
      "anonymous": false,
      "inputs": [
        {
          "indexed": false,
          "internalType": "uint256",
          "name": "nftID",
          "type": "uint256"
        },
        {
          "indexed": false,
          "internalType": "bool",
          "name": "isBlackList",
          "type": "bool"
        }
      ],
      "name": "UpdateBlackList",
      "type": "event"
    },
    {
      "anonymous": false,
      "inputs": [
        {
          "indexed": true,
          "internalType": "address",
          "name": "owner",
          "type": "address"
        },
        {
          "indexed": false,
          "internalType": "uint256",
          "name": "nftID",
          "type": "uint256"
        },
        {
          "indexed": false,
          "internalType": "bool",
          "name": "isListed",
          "type": "bool"
        }
      ],
      "name": "UpdateListStatus",
      "type": "event"
    },
    {
      "inputs": [
        {
          "internalType": "uint256",
          "name": "",
          "type": "uint256"
        }
      ],
      "name": "Items",
      "outputs": [
        {
          "internalType": "uint256",
          "name": "id",
          "type": "uint256"
        },
        {
          "internalType": "address",
          "name": "creater",
          "type": "address"
        },
        {
          "internalType": "string",
          "name": "uri",
          "type": "string"
        }
      ],
      "stateMutability": "view",
      "type": "function",
      "constant": true
    },
    {
      "inputs": [],
      "name": "_feeAddress",
      "outputs": [
        {
          "internalType": "address payable",
          "name": "",
          "type": "address"
        }
      ],
      "stateMutability": "view",
      "type": "function",
      "constant": true
    },
    {
      "inputs": [
        {
          "internalType": "address",
          "name": "to",
          "type": "address"
        },
        {
          "internalType": "uint256",
          "name": "tokenId",
          "type": "uint256"
        }
      ],
      "name": "approve",
      "outputs": [],
      "stateMutability": "nonpayable",
      "type": "function"
    },
    {
      "inputs": [
        {
          "internalType": "address",
          "name": "owner",
          "type": "address"
        }
      ],
      "name": "balanceOf",
      "outputs": [
        {
          "internalType": "uint256",
          "name": "",
          "type": "uint256"
        }
      ],
      "stateMutability": "view",
      "type": "function",
      "constant": true
    },
    {
      "inputs": [
        {
          "internalType": "uint256",
          "name": "",
          "type": "uint256"
        }
      ],
      "name": "blackList",
      "outputs": [
        {
          "internalType": "bool",
          "name": "",
          "type": "bool"
        }
      ],
      "stateMutability": "view",
      "type": "function",
      "constant": true
    },
    {
      "inputs": [],
      "name": "commissionFee",
      "outputs": [
        {
          "internalType": "uint256",
          "name": "",
          "type": "uint256"
        }
      ],
      "stateMutability": "view",
      "type": "function",
      "constant": true
    },
    {
      "inputs": [],
      "name": "denominator",
      "outputs": [
        {
          "internalType": "uint256",
          "name": "",
          "type": "uint256"
        }
      ],
      "stateMutability": "view",
      "type": "function",
      "constant": true
    },
    {
      "inputs": [
        {
          "internalType": "uint256",
          "name": "tokenId",
          "type": "uint256"
        }
      ],
      "name": "getApproved",
      "outputs": [
        {
          "internalType": "address",
          "name": "",
          "type": "address"
        }
      ],
      "stateMutability": "view",
      "type": "function",
      "constant": true
    },
    {
      "inputs": [
        {
          "internalType": "address",
          "name": "owner",
          "type": "address"
        },
        {
          "internalType": "address",
          "name": "operator",
          "type": "address"
        }
      ],
      "name": "isApprovedForAll",
      "outputs": [
        {
          "internalType": "bool",
          "name": "",
          "type": "bool"
        }
      ],
      "stateMutability": "view",
      "type": "function",
      "constant": true
    },
    {
      "inputs": [
        {
          "internalType": "uint256",
          "name": "",
          "type": "uint256"
        }
      ],
      "name": "listedMap",
      "outputs": [
        {
          "internalType": "bool",
          "name": "",
          "type": "bool"
        }
      ],
      "stateMutability": "view",
      "type": "function",
      "constant": true
    },
    {
      "inputs": [],
      "name": "name",
      "outputs": [
        {
          "internalType": "string",
          "name": "",
          "type": "string"
        }
      ],
      "stateMutability": "view",
      "type": "function",
      "constant": true
    },
    {
      "inputs": [],
      "name": "owner",
      "outputs": [
        {
          "internalType": "address",
          "name": "",
          "type": "address"
        }
      ],
      "stateMutability": "view",
      "type": "function",
      "constant": true
    },
    {
      "inputs": [
        {
          "internalType": "uint256",
          "name": "tokenId",
          "type": "uint256"
        }
      ],
      "name": "ownerOf",
      "outputs": [
        {
          "internalType": "address",
          "name": "",
          "type": "address"
        }
      ],
      "stateMutability": "view",
      "type": "function",
      "constant": true
    },
    {
      "inputs": [
        {
          "internalType": "uint256",
          "name": "",
          "type": "uint256"
        }
      ],
      "name": "price",
      "outputs": [
        {
          "internalType": "uint256",
          "name": "",
          "type": "uint256"
        }
      ],
      "stateMutability": "view",
      "type": "function",
      "constant": true
    },
    {
      "inputs": [],
      "name": "renounceOwnership",
      "outputs": [],
      "stateMutability": "nonpayable",
      "type": "function"
    },
    {
      "inputs": [
        {
          "internalType": "address",
          "name": "from",
          "type": "address"
        },
        {
          "internalType": "address",
          "name": "to",
          "type": "address"
        },
        {
          "internalType": "uint256",
          "name": "tokenId",
          "type": "uint256"
        }
      ],
      "name": "safeTransferFrom",
      "outputs": [],
      "stateMutability": "nonpayable",
      "type": "function"
    },
    {
      "inputs": [
        {
          "internalType": "address",
          "name": "from",
          "type": "address"
        },
        {
          "internalType": "address",
          "name": "to",
          "type": "address"
        },
        {
          "internalType": "uint256",
          "name": "tokenId",
          "type": "uint256"
        },
        {
          "internalType": "bytes",
          "name": "_data",
          "type": "bytes"
        }
      ],
      "name": "safeTransferFrom",
      "outputs": [],
      "stateMutability": "nonpayable",
      "type": "function"
    },
    {
      "inputs": [
        {
          "internalType": "address",
          "name": "operator",
          "type": "address"
        },
        {
          "internalType": "bool",
          "name": "approved",
          "type": "bool"
        }
      ],
      "name": "setApprovalForAll",
      "outputs": [],
      "stateMutability": "nonpayable",
      "type": "function"
    },
    {
      "inputs": [
        {
          "internalType": "bytes4",
          "name": "interfaceId",
          "type": "bytes4"
        }
      ],
      "name": "supportsInterface",
      "outputs": [
        {
          "internalType": "bool",
          "name": "",
          "type": "bool"
        }
      ],
      "stateMutability": "view",
      "type": "function",
      "constant": true
    },
    {
      "inputs": [],
      "name": "symbol",
      "outputs": [
        {
          "internalType": "string",
          "name": "",
          "type": "string"
        }
      ],
      "stateMutability": "view",
      "type": "function",
      "constant": true
    },
    {
      "inputs": [
        {
          "internalType": "uint256",
          "name": "index",
          "type": "uint256"
        }
      ],
      "name": "tokenByIndex",
      "outputs": [
        {
          "internalType": "uint256",
          "name": "",
          "type": "uint256"
        }
      ],
      "stateMutability": "view",
      "type": "function",
      "constant": true
    },
    {
      "inputs": [
        {
          "internalType": "address",
          "name": "owner",
          "type": "address"
        },
        {
          "internalType": "uint256",
          "name": "index",
          "type": "uint256"
        }
      ],
      "name": "tokenOfOwnerByIndex",
      "outputs": [
        {
          "internalType": "uint256",
          "name": "",
          "type": "uint256"
        }
      ],
      "stateMutability": "view",
      "type": "function",
      "constant": true
    },
    {
      "inputs": [],
      "name": "totalSupply",
      "outputs": [
        {
          "internalType": "uint256",
          "name": "",
          "type": "uint256"
        }
      ],
      "stateMutability": "view",
      "type": "function",
      "constant": true
    },
    {
      "inputs": [
        {
          "internalType": "address",
          "name": "from",
          "type": "address"
        },
        {
          "internalType": "address",
          "name": "to",
          "type": "address"
        },
        {
          "internalType": "uint256",
          "name": "tokenId",
          "type": "uint256"
        }
      ],
      "name": "transferFrom",
      "outputs": [],
      "stateMutability": "nonpayable",
      "type": "function"
    },
    {
      "inputs": [
        {
          "internalType": "address",
          "name": "newOwner",
          "type": "address"
        }
      ],
      "name": "transferOwnership",
      "outputs": [],
      "stateMutability": "nonpayable",
      "type": "function"
    },
    {
      "inputs": [
        {
          "internalType": "string",
          "name": "_tokenURI",
          "type": "string"
        },
        {
          "internalType": "address",
          "name": "_toAddress",
          "type": "address"
        },
        {
          "internalType": "uint256",
          "name": "_price",
          "type": "uint256"
        }
      ],
      "name": "mint",
      "outputs": [
        {
          "internalType": "uint256",
          "name": "",
          "type": "uint256"
        }
      ],
      "stateMutability": "nonpayable",
      "type": "function"
    },
    {
      "inputs": [
        {
          "internalType": "string",
          "name": "_tokenURI",
          "type": "string"
        },
        {
          "internalType": "address",
          "name": "_toAddress",
          "type": "address"
        },
        {
          "internalType": "uint256",
          "name": "_price",
          "type": "uint256"
        },
        {
          "internalType": "uint256",
          "name": "_amount",
          "type": "uint256"
        }
      ],
      "name": "batchMint",
      "outputs": [],
      "stateMutability": "nonpayable",
      "type": "function"
    },
    {
      "inputs": [
        {
          "internalType": "uint256",
          "name": "tokenId",
          "type": "uint256"
        }
      ],
      "name": "tokenURI",
      "outputs": [
        {
          "internalType": "string",
          "name": "",
          "type": "string"
        }
      ],
      "stateMutability": "view",
      "type": "function",
      "constant": true
    },
    {
      "inputs": [
        {
          "internalType": "uint256",
          "name": "_id",
          "type": "uint256"
        }
      ],
      "name": "buy",
      "outputs": [],
      "stateMutability": "payable",
      "type": "function",
      "payable": true
    },
    {
      "inputs": [
        {
          "internalType": "uint256",
          "name": "_tokenId",
          "type": "uint256"
        },
        {
          "internalType": "uint256",
          "name": "_price",
          "type": "uint256"
        }
      ],
      "name": "updatePrice",
      "outputs": [
        {
          "internalType": "bool",
          "name": "",
          "type": "bool"
        }
      ],
      "stateMutability": "nonpayable",
      "type": "function"
    },
    {
      "inputs": [
        {
          "internalType": "uint256",
          "name": "_tokenId",
          "type": "uint256"
        },
        {
          "internalType": "bool",
          "name": "shouldBeListed",
          "type": "bool"
        }
      ],
      "name": "updateListingStatus",
      "outputs": [
        {
          "internalType": "bool",
          "name": "",
          "type": "bool"
        }
      ],
      "stateMutability": "nonpayable",
      "type": "function"
    },
    {
      "inputs": [
        {
          "internalType": "address",
          "name": "newFeeAddress",
          "type": "address"
        }
      ],
      "name": "updateFeeAddress",
      "outputs": [],
      "stateMutability": "nonpayable",
      "type": "function"
    },
    {
      "inputs": [
        {
          "internalType": "uint256",
          "name": "_tokenId",
          "type": "uint256"
        }
      ],
      "name": "addBlackList",
      "outputs": [],
      "stateMutability": "nonpayable",
      "type": "function"
    },
    {
      "inputs": [
        {
          "internalType": "uint256",
          "name": "_tokenId",
          "type": "uint256"
        }
      ],
      "name": "removeBlackList",
      "outputs": [],
      "stateMutability": "nonpayable",
      "type": "function"
    },
    {
      "inputs": [
        {
          "internalType": "address",
          "name": "_token",
          "type": "address"
        },
        {
          "internalType": "uint256",
          "name": "_amount",
          "type": "uint256"
        }
      ],
      "name": "withdrawTokens",
      "outputs": [],
      "stateMutability": "nonpayable",
      "type": "function"
    },
    {
      "inputs": [],
      "name": "withdrawAll",
      "outputs": [],
      "stateMutability": "nonpayable",
      "type": "function"
    }
  ],
  "bytecode": "0x60806040526019600b55600a600c553480156200001b57600080fd5b5060405162005875380380620058758339818101604052810190620000419190620003a4565b6040518060400160405280600a81526020017f476f67676c65734e4654000000000000000000000000000000000000000000008152506040518060400160405280600481526020017f474f5354000000000000000000000000000000000000000000000000000000008152508160009080519060200190620000c59291906200028a565b508060019080519060200190620000de9291906200028a565b50505062000101620000f5620001bc60201b60201c565b620001c460201b60201c565b600073ffffffffffffffffffffffffffffffffffffffff168173ffffffffffffffffffffffffffffffffffffffff16141562000174576040517f08c379a00000000000000000000000000000000000000000000000000000000081526004016200016b9062000437565b60405180910390fd5b80600e60006101000a81548173ffffffffffffffffffffffffffffffffffffffff021916908373ffffffffffffffffffffffffffffffffffffffff16021790555050620004be565b600033905090565b6000600a60009054906101000a900473ffffffffffffffffffffffffffffffffffffffff16905081600a60006101000a81548173ffffffffffffffffffffffffffffffffffffffff021916908373ffffffffffffffffffffffffffffffffffffffff1602179055508173ffffffffffffffffffffffffffffffffffffffff168173ffffffffffffffffffffffffffffffffffffffff167f8be0079c531659141344cd1fd0a4f28419497f9722a3daafe3b4186f6b6457e060405160405180910390a35050565b828054620002989062000488565b90600052602060002090601f016020900481019282620002bc576000855562000308565b82601f10620002d757805160ff191683800117855562000308565b8280016001018555821562000308579182015b8281111562000307578251825591602001919060010190620002ea565b5b5090506200031791906200031b565b5090565b5b80821115620003365760008160009055506001016200031c565b5090565b600080fd5b600073ffffffffffffffffffffffffffffffffffffffff82169050919050565b60006200036c826200033f565b9050919050565b6200037e816200035f565b81146200038a57600080fd5b50565b6000815190506200039e8162000373565b92915050565b600060208284031215620003bd57620003bc6200033a565b5b6000620003cd848285016200038d565b91505092915050565b600082825260208201905092915050565b7f496e76616c696420616464726573730000000000000000000000000000000000600082015250565b60006200041f600f83620003d6565b91506200042c82620003e7565b602082019050919050565b60006020820190508181036000830152620004528162000410565b9050919050565b7f4e487b7100000000000000000000000000000000000000000000000000000000600052602260045260246000fd5b60006002820490506001821680620004a157607f821691505b60208210811415620004b857620004b762000459565b5b50919050565b6153a780620004ce6000396000f3fe60806040526004361061020f5760003560e01c8063715018a611610118578063a22cb465116100a0578063c87b56dd1161006f578063c87b56dd146107fb578063d6183bb214610838578063d96a094a14610861578063e985e9c51461087d578063f2fde38b146108ba5761020f565b8063a22cb46514610743578063b88d4fde1461076c578063bbcaac3814610795578063bc8ba28f146107be5761020f565b80638da5cb5b116100e75780638da5cb5b1461065c5780638e1932a71461068757806395d89b41146106b057806396ce0795146106db57806398214bcb146107065761020f565b8063715018a6146105b45780637e8816b9146105cb57806382367b2d14610608578063853828b6146106455761020f565b806326a49e371161019b5780635a2fb11b1161016a5780635a2fb11b146104a95780636352211e146104d25780636fb1eb0c1461050f578063709ec8b41461053a57806370a08231146105775761020f565b806326a49e37146103c95780632f745c591461040657806342842e0e146104435780634f6ccce71461046c5761020f565b8063081812fc116101e2578063081812fc146102d0578063095ea7b31461030d57806317b47cc41461033657806318160ddd1461037557806323b872dd146103a05761020f565b80630135f7401461021457806301ffc9a71461023f57806306b091f91461027c57806306fdde03146102a5575b600080fd5b34801561022057600080fd5b506102296108e3565b60405161023691906136b9565b60405180910390f35b34801561024b57600080fd5b5061026660048036038101906102619190613740565b610909565b6040516102739190613788565b60405180910390f35b34801561028857600080fd5b506102a3600480360381019061029e9190613817565b610983565b005b3480156102b157600080fd5b506102ba610b3e565b6040516102c791906138f0565b60405180910390f35b3480156102dc57600080fd5b506102f760048036038101906102f29190613912565b610bd0565b604051610304919061394e565b60405180910390f35b34801561031957600080fd5b50610334600480360381019061032f9190613817565b610c55565b005b34801561034257600080fd5b5061035d60048036038101906103589190613912565b610d6d565b60405161036c93929190613978565b60405180910390f35b34801561038157600080fd5b5061038a610e3f565b60405161039791906139b6565b60405180910390f35b3480156103ac57600080fd5b506103c760048036038101906103c291906139d1565b610e4c565b005b3480156103d557600080fd5b506103f060048036038101906103eb9190613912565b610eac565b6040516103fd91906139b6565b60405180910390f35b34801561041257600080fd5b5061042d60048036038101906104289190613817565b610ec4565b60405161043a91906139b6565b60405180910390f35b34801561044f57600080fd5b5061046a600480360381019061046591906139d1565b610f69565b005b34801561047857600080fd5b50610493600480360381019061048e9190613912565b610f89565b6040516104a091906139b6565b60405180910390f35b3480156104b557600080fd5b506104d060048036038101906104cb9190613912565b610ffa565b005b3480156104de57600080fd5b506104f960048036038101906104f49190613912565b61113f565b604051610506919061394e565b60405180910390f35b34801561051b57600080fd5b506105246111f1565b60405161053191906139b6565b60405180910390f35b34801561054657600080fd5b50610561600480360381019061055c9190613912565b6111f7565b60405161056e9190613788565b60405180910390f35b34801561058357600080fd5b5061059e60048036038101906105999190613a24565b611217565b6040516105ab91906139b6565b60405180910390f35b3480156105c057600080fd5b506105c96112cf565b005b3480156105d757600080fd5b506105f260048036038101906105ed9190613b86565b611357565b6040516105ff91906139b6565b60405180910390f35b34801561061457600080fd5b5061062f600480360381019061062a9190613bf5565b6114fc565b60405161063c9190613788565b60405180910390f35b34801561065157600080fd5b5061065a61166a565b005b34801561066857600080fd5b50610671611705565b60405161067e919061394e565b60405180910390f35b34801561069357600080fd5b506106ae60048036038101906106a99190613c35565b61172f565b005b3480156106bc57600080fd5b506106c56117a3565b6040516106d291906138f0565b60405180910390f35b3480156106e757600080fd5b506106f0611835565b6040516106fd91906139b6565b60405180910390f35b34801561071257600080fd5b5061072d60048036038101906107289190613ce4565b61183b565b60405161073a9190613788565b60405180910390f35b34801561074f57600080fd5b5061076a60048036038101906107659190613d24565b6119a1565b005b34801561077857600080fd5b50610793600480360381019061078e9190613e05565b6119b7565b005b3480156107a157600080fd5b506107bc60048036038101906107b79190613a24565b611a19565b005b3480156107ca57600080fd5b506107e560048036038101906107e09190613912565b611bda565b6040516107f29190613788565b60405180910390f35b34801561080757600080fd5b50610822600480360381019061081d9190613912565b611bfa565b60405161082f91906138f0565b60405180910390f35b34801561084457600080fd5b5061085f600480360381019061085a9190613912565b611cea565b005b61087b60048036038101906108769190613912565b611eb3565b005b34801561088957600080fd5b506108a4600480360381019061089f9190613e88565b611fc9565b6040516108b19190613788565b60405180910390f35b3480156108c657600080fd5b506108e160048036038101906108dc9190613a24565b61205d565b005b600e60009054906101000a900473ffffffffffffffffffffffffffffffffffffffff1681565b60007f780e9d63000000000000000000000000000000000000000000000000000000007bffffffffffffffffffffffffffffffffffffffffffffffffffffffff1916827bffffffffffffffffffffffffffffffffffffffffffffffffffffffff1916148061097c575061097b82612155565b5b9050919050565b61098b612237565b73ffffffffffffffffffffffffffffffffffffffff166109a9611705565b73ffffffffffffffffffffffffffffffffffffffff16146109ff576040517f08c379a00000000000000000000000000000000000000000000000000000000081526004016109f690613f14565b60405180910390fd5b808273ffffffffffffffffffffffffffffffffffffffff166370a08231306040518263ffffffff1660e01b8152600401610a39919061394e565b602060405180830381865afa158015610a56573d6000803e3d6000fd5b505050506040513d601f19601f82011682018060405250810190610a7a9190613f49565b1015610abb576040517f08c379a0000000000000000000000000000000000000000000000000000000008152600401610ab290613fc2565b60405180910390fd5b8173ffffffffffffffffffffffffffffffffffffffff1663a9059cbb33836040518363ffffffff1660e01b8152600401610af6929190613fe2565b6020604051808303816000875af1158015610b15573d6000803e3d6000fd5b505050506040513d601f19601f82011682018060405250810190610b399190614020565b505050565b606060008054610b4d9061407c565b80601f0160208091040260200160405190810160405280929190818152602001828054610b799061407c565b8015610bc65780601f10610b9b57610100808354040283529160200191610bc6565b820191906000526020600020905b815481529060010190602001808311610ba957829003601f168201915b5050505050905090565b6000610bdb8261223f565b610c1a576040517f08c379a0000000000000000000000000000000000000000000000000000000008152600401610c1190614120565b60405180910390fd5b6004600083815260200190815260200160002060009054906101000a900473ffffffffffffffffffffffffffffffffffffffff169050919050565b6000610c608261113f565b90508073ffffffffffffffffffffffffffffffffffffffff168373ffffffffffffffffffffffffffffffffffffffff161415610cd1576040517f08c379a0000000000000000000000000000000000000000000000000000000008152600401610cc8906141b2565b60405180910390fd5b8073ffffffffffffffffffffffffffffffffffffffff16610cf0612237565b73ffffffffffffffffffffffffffffffffffffffff161480610d1f5750610d1e81610d19612237565b611fc9565b5b610d5e576040517f08c379a0000000000000000000000000000000000000000000000000000000008152600401610d5590614244565b60405180910390fd5b610d6883836122ab565b505050565b600d6020528060005260406000206000915090508060000154908060010160009054906101000a900473ffffffffffffffffffffffffffffffffffffffff1690806002018054610dbc9061407c565b80601f0160208091040260200160405190810160405280929190818152602001828054610de89061407c565b8015610e355780601f10610e0a57610100808354040283529160200191610e35565b820191906000526020600020905b815481529060010190602001808311610e1857829003601f168201915b5050505050905083565b6000600880549050905090565b610e5d610e57612237565b82612364565b610e9c576040517f08c379a0000000000000000000000000000000000000000000000000000000008152600401610e93906142d6565b60405180910390fd5b610ea7838383612442565b505050565b60106020528060005260406000206000915090505481565b6000610ecf83611217565b8210610f10576040517f08c379a0000000000000000000000000000000000000000000000000000000008152600401610f0790614368565b60405180910390fd5b600660008473ffffffffffffffffffffffffffffffffffffffff1673ffffffffffffffffffffffffffffffffffffffff168152602001908152602001600020600083815260200190815260200160002054905092915050565b610f84838383604051806020016040528060008152506119b7565b505050565b6000610f93610e3f565b8210610fd4576040517f08c379a0000000000000000000000000000000000000000000000000000000008152600401610fcb906143fa565b60405180910390fd5b60088281548110610fe857610fe761441a565b5b90600052602060002001549050919050565b611002612237565b73ffffffffffffffffffffffffffffffffffffffff16611020611705565b73ffffffffffffffffffffffffffffffffffffffff1614611076576040517f08c379a000000000000000000000000000000000000000000000000000000000815260040161106d90613f14565b60405180910390fd5b600f600082815260200190815260200160002060009054906101000a900460ff166110d6576040517f08c379a00000000000000000000000000000000000000000000000000000000081526004016110cd90614495565b60405180910390fd5b6000600f600083815260200190815260200160002060006101000a81548160ff0219169083151502179055507fdecb67dc4f89a6eb71b77d5d305d05bc6bb9ffbe1fe3af5b449e2b041829b9f48160006040516111349291906144b5565b60405180910390a150565b6000806002600084815260200190815260200160002060009054906101000a900473ffffffffffffffffffffffffffffffffffffffff169050600073ffffffffffffffffffffffffffffffffffffffff168173ffffffffffffffffffffffffffffffffffffffff1614156111e8576040517f08c379a00000000000000000000000000000000000000000000000000000000081526004016111df90614550565b60405180910390fd5b80915050919050565b600b5481565b600f6020528060005260406000206000915054906101000a900460ff1681565b60008073ffffffffffffffffffffffffffffffffffffffff168273ffffffffffffffffffffffffffffffffffffffff161415611288576040517f08c379a000000000000000000000000000000000000000000000000000000000815260040161127f906145e2565b60405180910390fd5b600360008373ffffffffffffffffffffffffffffffffffffffff1673ffffffffffffffffffffffffffffffffffffffff168152602001908152602001600020549050919050565b6112d7612237565b73ffffffffffffffffffffffffffffffffffffffff166112f5611705565b73ffffffffffffffffffffffffffffffffffffffff161461134b576040517f08c379a000000000000000000000000000000000000000000000000000000000815260040161134290613f14565b60405180910390fd5b61135560006126a9565b565b60008073ffffffffffffffffffffffffffffffffffffffff168373ffffffffffffffffffffffffffffffffffffffff1614156113c8576040517f08c379a00000000000000000000000000000000000000000000000000000000081526004016113bf9061464e565b60405180910390fd5b60006113d2610e3f565b905082601060008381526020019081526020016000208190555060016011600083815260200190815260200160002060006101000a81548160ff021916908315150217905550611422848261276f565b6000600d60008381526020019081526020016000209050858160020190805190602001906114519291906135d5565b50818160000181905550848160010160006101000a81548173ffffffffffffffffffffffffffffffffffffffff021916908373ffffffffffffffffffffffffffffffffffffffff1602179055508473ffffffffffffffffffffffffffffffffffffffff167ff2cb5e52049d127ad1c335f1cc25f2fdbc911bec1beb2611f4c1e8b1c274d4b48584896040516114e89392919061466e565b60405180910390a281925050509392505050565b60008260001515600f600083815260200190815260200160002060009054906101000a900460ff16151514611566576040517f08c379a000000000000000000000000000000000000000000000000000000000815260040161155d906146f8565b60405180910390fd5b6000601060008681526020019081526020016000205490506115878561113f565b73ffffffffffffffffffffffffffffffffffffffff163373ffffffffffffffffffffffffffffffffffffffff16146115f4576040517f08c379a00000000000000000000000000000000000000000000000000000000081526004016115eb90614764565b60405180910390fd5b8360106000878152602001908152602001600020819055503373ffffffffffffffffffffffffffffffffffffffff167f8647dab5101cbe18afb171756e9753802f9d66725bf2346b079b8b1a275e011682868860405161165693929190614784565b60405180910390a260019250505092915050565b611672612237565b73ffffffffffffffffffffffffffffffffffffffff16611690611705565b73ffffffffffffffffffffffffffffffffffffffff16146116e6576040517f08c379a00000000000000000000000000000000000000000000000000000000081526004016116dd90613f14565b60405180910390fd5b6000479050600081116116f857600080fd5b611702338261278d565b50565b6000600a60009054906101000a900473ffffffffffffffffffffffffffffffffffffffff16905090565b60008111611772576040517f08c379a000000000000000000000000000000000000000000000000000000000815260040161176990614807565b60405180910390fd5b60005b8181101561179c57611788858585611357565b50808061179490614856565b915050611775565b5050505050565b6060600180546117b29061407c565b80601f01602080910402602001604051908101604052809291908181526020018280546117de9061407c565b801561182b5780601f106118005761010080835404028352916020019161182b565b820191906000526020600020905b81548152906001019060200180831161180e57829003601f168201915b5050505050905090565b600c5481565b60008260001515600f600083815260200190815260200160002060009054906101000a900460ff161515146118a5576040517f08c379a000000000000000000000000000000000000000000000000000000000815260040161189c906146f8565b60405180910390fd5b6118ae8461113f565b73ffffffffffffffffffffffffffffffffffffffff163373ffffffffffffffffffffffffffffffffffffffff161461191b576040517f08c379a000000000000000000000000000000000000000000000000000000000815260040161191290614764565b60405180910390fd5b826011600086815260200190815260200160002060006101000a81548160ff0219169083151502179055503373ffffffffffffffffffffffffffffffffffffffff167fe6d3186eceb561b50316cc74d95f4db0b2718ed097a47d7ae6d472242b14fc8e858560405161198e9291906144b5565b60405180910390a2600191505092915050565b6119b36119ac612237565b838361283e565b5050565b6119c86119c2612237565b83612364565b611a07576040517f08c379a00000000000000000000000000000000000000000000000000000000081526004016119fe906142d6565b60405180910390fd5b611a13848484846129ab565b50505050565b611a21612237565b73ffffffffffffffffffffffffffffffffffffffff16611a3f611705565b73ffffffffffffffffffffffffffffffffffffffff1614611a95576040517f08c379a0000000000000000000000000000000000000000000000000000000008152600401611a8c90613f14565b60405180910390fd5b8073ffffffffffffffffffffffffffffffffffffffff16600e60009054906101000a900473ffffffffffffffffffffffffffffffffffffffff1673ffffffffffffffffffffffffffffffffffffffff161415611b26576040517f08c379a0000000000000000000000000000000000000000000000000000000008152600401611b1d906148eb565b60405180910390fd5b600073ffffffffffffffffffffffffffffffffffffffff168173ffffffffffffffffffffffffffffffffffffffff161415611b96576040517f08c379a0000000000000000000000000000000000000000000000000000000008152600401611b8d9061497d565b60405180910390fd5b80600e60006101000a81548173ffffffffffffffffffffffffffffffffffffffff021916908373ffffffffffffffffffffffffffffffffffffffff16021790555050565b60116020528060005260406000206000915054906101000a900460ff1681565b6060611c058261223f565b611c44576040517f08c379a0000000000000000000000000000000000000000000000000000000008152600401611c3b90614a0f565b60405180910390fd5b600d60008381526020019081526020016000206002018054611c659061407c565b80601f0160208091040260200160405190810160405280929190818152602001828054611c919061407c565b8015611cde5780601f10611cb357610100808354040283529160200191611cde565b820191906000526020600020905b815481529060010190602001808311611cc157829003601f168201915b50505050509050919050565b611cf2612237565b73ffffffffffffffffffffffffffffffffffffffff16611d10611705565b73ffffffffffffffffffffffffffffffffffffffff1614611d66576040517f08c379a0000000000000000000000000000000000000000000000000000000008152600401611d5d90613f14565b60405180910390fd5b60001515600f600083815260200190815260200160002060009054906101000a900460ff16151514611dcd576040517f08c379a0000000000000000000000000000000000000000000000000000000008152600401611dc490614a7b565b60405180910390fd5b6001600f600083815260200190815260200160002060006101000a81548160ff02191690831515021790555060006011600083815260200190815260200160002060006101000a81548160ff0219169083151502179055503373ffffffffffffffffffffffffffffffffffffffff167fe6d3186eceb561b50316cc74d95f4db0b2718ed097a47d7ae6d472242b14fc8e826000604051611e6e9291906144b5565b60405180910390a27fdecb67dc4f89a6eb71b77d5d305d05bc6bb9ffbe1fe3af5b449e2b041829b9f4816001604051611ea89291906144b5565b60405180910390a150565b8060001515600f600083815260200190815260200160002060009054906101000a900460ff16151514611f1b576040517f08c379a0000000000000000000000000000000000000000000000000000000008152600401611f12906146f8565b60405180910390fd5b611f2482612a07565b6000611f2f8361113f565b90506000339050611f3f84612b85565b8073ffffffffffffffffffffffffffffffffffffffff168273ffffffffffffffffffffffffffffffffffffffff167fef258f47a33a1cba99d81ea828f234ff5d6cb31034c0f79ecb5198f8c6d118f6601060008881526020019081526020016000205487611fac89611bfa565b604051611fbb9392919061466e565b60405180910390a350505050565b6000600560008473ffffffffffffffffffffffffffffffffffffffff1673ffffffffffffffffffffffffffffffffffffffff16815260200190815260200160002060008373ffffffffffffffffffffffffffffffffffffffff1673ffffffffffffffffffffffffffffffffffffffff16815260200190815260200160002060009054906101000a900460ff16905092915050565b612065612237565b73ffffffffffffffffffffffffffffffffffffffff16612083611705565b73ffffffffffffffffffffffffffffffffffffffff16146120d9576040517f08c379a00000000000000000000000000000000000000000000000000000000081526004016120d090613f14565b60405180910390fd5b600073ffffffffffffffffffffffffffffffffffffffff168173ffffffffffffffffffffffffffffffffffffffff161415612149576040517f08c379a000000000000000000000000000000000000000000000000000000000815260040161214090614b0d565b60405180910390fd5b612152816126a9565b50565b60007f80ac58cd000000000000000000000000000000000000000000000000000000007bffffffffffffffffffffffffffffffffffffffffffffffffffffffff1916827bffffffffffffffffffffffffffffffffffffffffffffffffffffffff1916148061222057507f5b5e139f000000000000000000000000000000000000000000000000000000007bffffffffffffffffffffffffffffffffffffffffffffffffffffffff1916827bffffffffffffffffffffffffffffffffffffffffffffffffffffffff1916145b80612230575061222f82612d67565b5b9050919050565b600033905090565b60008073ffffffffffffffffffffffffffffffffffffffff166002600084815260200190815260200160002060009054906101000a900473ffffffffffffffffffffffffffffffffffffffff1673ffffffffffffffffffffffffffffffffffffffff1614159050919050565b816004600083815260200190815260200160002060006101000a81548173ffffffffffffffffffffffffffffffffffffffff021916908373ffffffffffffffffffffffffffffffffffffffff160217905550808273ffffffffffffffffffffffffffffffffffffffff1661231e8361113f565b73ffffffffffffffffffffffffffffffffffffffff167f8c5be1e5ebec7d5bd14f71427d1e84f3dd0314c0f7b2291e5b200ac8c7c3b92560405160405180910390a45050565b600061236f8261223f565b6123ae576040517f08c379a00000000000000000000000000000000000000000000000000000000081526004016123a590614b9f565b60405180910390fd5b60006123b98361113f565b90508073ffffffffffffffffffffffffffffffffffffffff168473ffffffffffffffffffffffffffffffffffffffff16148061242857508373ffffffffffffffffffffffffffffffffffffffff1661241084610bd0565b73ffffffffffffffffffffffffffffffffffffffff16145b8061243957506124388185611fc9565b5b91505092915050565b8273ffffffffffffffffffffffffffffffffffffffff166124628261113f565b73ffffffffffffffffffffffffffffffffffffffff16146124b8576040517f08c379a00000000000000000000000000000000000000000000000000000000081526004016124af90614c31565b60405180910390fd5b600073ffffffffffffffffffffffffffffffffffffffff168273ffffffffffffffffffffffffffffffffffffffff161415612528576040517f08c379a000000000000000000000000000000000000000000000000000000000815260040161251f90614cc3565b60405180910390fd5b612533838383612dd1565b61253e6000826122ab565b6001600360008573ffffffffffffffffffffffffffffffffffffffff1673ffffffffffffffffffffffffffffffffffffffff168152602001908152602001600020600082825461258e9190614ce3565b925050819055506001600360008473ffffffffffffffffffffffffffffffffffffffff1673ffffffffffffffffffffffffffffffffffffffff16815260200190815260200160002060008282546125e59190614d17565b92505081905550816002600083815260200190815260200160002060006101000a81548173ffffffffffffffffffffffffffffffffffffffff021916908373ffffffffffffffffffffffffffffffffffffffff160217905550808273ffffffffffffffffffffffffffffffffffffffff168473ffffffffffffffffffffffffffffffffffffffff167fddf252ad1be2c89b69c2b068fc378daa952ba7f163c4a11628f55a4df523b3ef60405160405180910390a46126a4838383612ee5565b505050565b6000600a60009054906101000a900473ffffffffffffffffffffffffffffffffffffffff16905081600a60006101000a81548173ffffffffffffffffffffffffffffffffffffffff021916908373ffffffffffffffffffffffffffffffffffffffff1602179055508173ffffffffffffffffffffffffffffffffffffffff168173ffffffffffffffffffffffffffffffffffffffff167f8be0079c531659141344cd1fd0a4f28419497f9722a3daafe3b4186f6b6457e060405160405180910390a35050565b612789828260405180602001604052806000815250612eea565b5050565b60008273ffffffffffffffffffffffffffffffffffffffff16826040516127b390614d9e565b60006040518083038185875af1925050503d80600081146127f0576040519150601f19603f3d011682016040523d82523d6000602084013e6127f5565b606091505b5050905080612839576040517f08c379a000000000000000000000000000000000000000000000000000000000815260040161283090614dff565b60405180910390fd5b505050565b8173ffffffffffffffffffffffffffffffffffffffff168373ffffffffffffffffffffffffffffffffffffffff1614156128ad576040517f08c379a00000000000000000000000000000000000000000000000000000000081526004016128a490614e6b565b60405180910390fd5b80600560008573ffffffffffffffffffffffffffffffffffffffff1673ffffffffffffffffffffffffffffffffffffffff16815260200190815260200160002060008473ffffffffffffffffffffffffffffffffffffffff1673ffffffffffffffffffffffffffffffffffffffff16815260200190815260200160002060006101000a81548160ff0219169083151502179055508173ffffffffffffffffffffffffffffffffffffffff168373ffffffffffffffffffffffffffffffffffffffff167f17307eab39ab6107e8899845ad3d59bd9653f200f220920489ca2b5937696c318360405161299e9190613788565b60405180910390a3505050565b6129b6848484612442565b6129c284848484612f45565b612a01576040517f08c379a00000000000000000000000000000000000000000000000000000000081526004016129f890614efd565b60405180910390fd5b50505050565b60006011600083815260200190815260200160002060009054906101000a900460ff169050612a358261223f565b612a74576040517f08c379a0000000000000000000000000000000000000000000000000000000008152600401612a6b90614f69565b60405180910390fd5b80612ab4576040517f08c379a0000000000000000000000000000000000000000000000000000000008152600401612aab90614fd5565b60405180910390fd5b6010600083815260200190815260200160002054341015612b0a576040517f08c379a0000000000000000000000000000000000000000000000000000000008152600401612b0190615041565b60405180910390fd5b612b138261113f565b73ffffffffffffffffffffffffffffffffffffffff163373ffffffffffffffffffffffffffffffffffffffff161415612b81576040517f08c379a0000000000000000000000000000000000000000000000000000000008152600401612b78906150ad565b60405180910390fd5b5050565b60003390506000612b958361113f565b9050612ba2818385612442565b60006064600c54600b546010600088815260200190815260200160002054612bca91906150cd565b612bd49190615156565b612bde9190615156565b90506000816010600087815260200190815260200160002054612c019190614ce3565b90508273ffffffffffffffffffffffffffffffffffffffff166108fc829081150290604051600060405180830381858888f19350505050158015612c49573d6000803e3d6000fd5b50600e60009054906101000a900473ffffffffffffffffffffffffffffffffffffffff1673ffffffffffffffffffffffffffffffffffffffff166108fc839081150290604051600060405180830381858888f19350505050158015612cb2573d6000803e3d6000fd5b506010600086815260200190815260200160002054341115612d34578373ffffffffffffffffffffffffffffffffffffffff166108fc601060008881526020019081526020016000205434612d079190614ce3565b9081150290604051600060405180830381858888f19350505050158015612d32573d6000803e3d6000fd5b505b60006011600087815260200190815260200160002060006101000a81548160ff0219169083151502179055505050505050565b60007f01ffc9a7000000000000000000000000000000000000000000000000000000007bffffffffffffffffffffffffffffffffffffffffffffffffffffffff1916827bffffffffffffffffffffffffffffffffffffffffffffffffffffffff1916149050919050565b612ddc8383836130cd565b600073ffffffffffffffffffffffffffffffffffffffff168373ffffffffffffffffffffffffffffffffffffffff161415612e1f57612e1a816130d2565b612e5e565b8173ffffffffffffffffffffffffffffffffffffffff168373ffffffffffffffffffffffffffffffffffffffff1614612e5d57612e5c838261311b565b5b5b600073ffffffffffffffffffffffffffffffffffffffff168273ffffffffffffffffffffffffffffffffffffffff161415612ea157612e9c81613288565b612ee0565b8273ffffffffffffffffffffffffffffffffffffffff168273ffffffffffffffffffffffffffffffffffffffff1614612edf57612ede8282613359565b5b5b505050565b505050565b612ef483836133d8565b612f016000848484612f45565b612f40576040517f08c379a0000000000000000000000000000000000000000000000000000000008152600401612f3790614efd565b60405180910390fd5b505050565b6000612f668473ffffffffffffffffffffffffffffffffffffffff166135b2565b156130c0578373ffffffffffffffffffffffffffffffffffffffff1663150b7a02612f8f612237565b8786866040518563ffffffff1660e01b8152600401612fb194939291906151dc565b6020604051808303816000875af1925050508015612fed57506040513d601f19601f82011682018060405250810190612fea919061523d565b60015b613070573d806000811461301d576040519150601f19603f3d011682016040523d82523d6000602084013e613022565b606091505b50600081511415613068576040517f08c379a000000000000000000000000000000000000000000000000000000000815260040161305f90614efd565b60405180910390fd5b805181602001fd5b63150b7a0260e01b7bffffffffffffffffffffffffffffffffffffffffffffffffffffffff1916817bffffffffffffffffffffffffffffffffffffffffffffffffffffffff1916149150506130c5565b600190505b949350505050565b505050565b6008805490506009600083815260200190815260200160002081905550600881908060018154018082558091505060019003906000526020600020016000909190919091505550565b6000600161312884611217565b6131329190614ce3565b9050600060076000848152602001908152602001600020549050818114613217576000600660008673ffffffffffffffffffffffffffffffffffffffff1673ffffffffffffffffffffffffffffffffffffffff168152602001908152602001600020600084815260200190815260200160002054905080600660008773ffffffffffffffffffffffffffffffffffffffff1673ffffffffffffffffffffffffffffffffffffffff168152602001908152602001600020600084815260200190815260200160002081905550816007600083815260200190815260200160002081905550505b6007600084815260200190815260200160002060009055600660008573ffffffffffffffffffffffffffffffffffffffff1673ffffffffffffffffffffffffffffffffffffffff16815260200190815260200160002060008381526020019081526020016000206000905550505050565b6000600160088054905061329c9190614ce3565b90506000600960008481526020019081526020016000205490506000600883815481106132cc576132cb61441a565b5b9060005260206000200154905080600883815481106132ee576132ed61441a565b5b90600052602060002001819055508160096000838152602001908152602001600020819055506009600085815260200190815260200160002060009055600880548061333d5761333c61526a565b5b6001900381819060005260206000200160009055905550505050565b600061336483611217565b905081600660008573ffffffffffffffffffffffffffffffffffffffff1673ffffffffffffffffffffffffffffffffffffffff168152602001908152602001600020600083815260200190815260200160002081905550806007600084815260200190815260200160002081905550505050565b600073ffffffffffffffffffffffffffffffffffffffff168273ffffffffffffffffffffffffffffffffffffffff161415613448576040517f08c379a000000000000000000000000000000000000000000000000000000000815260040161343f906152e5565b60405180910390fd5b6134518161223f565b15613491576040517f08c379a000000000000000000000000000000000000000000000000000000000815260040161348890615351565b60405180910390fd5b61349d60008383612dd1565b6001600360008473ffffffffffffffffffffffffffffffffffffffff1673ffffffffffffffffffffffffffffffffffffffff16815260200190815260200160002060008282546134ed9190614d17565b92505081905550816002600083815260200190815260200160002060006101000a81548173ffffffffffffffffffffffffffffffffffffffff021916908373ffffffffffffffffffffffffffffffffffffffff160217905550808273ffffffffffffffffffffffffffffffffffffffff16600073ffffffffffffffffffffffffffffffffffffffff167fddf252ad1be2c89b69c2b068fc378daa952ba7f163c4a11628f55a4df523b3ef60405160405180910390a46135ae60008383612ee5565b5050565b6000808273ffffffffffffffffffffffffffffffffffffffff163b119050919050565b8280546135e19061407c565b90600052602060002090601f016020900481019282613603576000855561364a565b82601f1061361c57805160ff191683800117855561364a565b8280016001018555821561364a579182015b8281111561364957825182559160200191906001019061362e565b5b509050613657919061365b565b5090565b5b8082111561367457600081600090555060010161365c565b5090565b600073ffffffffffffffffffffffffffffffffffffffff82169050919050565b60006136a382613678565b9050919050565b6136b381613698565b82525050565b60006020820190506136ce60008301846136aa565b92915050565b6000604051905090565b600080fd5b600080fd5b60007fffffffff0000000000000000000000000000000000000000000000000000000082169050919050565b61371d816136e8565b811461372857600080fd5b50565b60008135905061373a81613714565b92915050565b600060208284031215613756576137556136de565b5b60006137648482850161372b565b91505092915050565b60008115159050919050565b6137828161376d565b82525050565b600060208201905061379d6000830184613779565b92915050565b60006137ae82613678565b9050919050565b6137be816137a3565b81146137c957600080fd5b50565b6000813590506137db816137b5565b92915050565b6000819050919050565b6137f4816137e1565b81146137ff57600080fd5b50565b600081359050613811816137eb565b92915050565b6000806040838503121561382e5761382d6136de565b5b600061383c858286016137cc565b925050602061384d85828601613802565b9150509250929050565b600081519050919050565b600082825260208201905092915050565b60005b83811015613891578082015181840152602081019050613876565b838111156138a0576000848401525b50505050565b6000601f19601f8301169050919050565b60006138c282613857565b6138cc8185613862565b93506138dc818560208601613873565b6138e5816138a6565b840191505092915050565b6000602082019050818103600083015261390a81846138b7565b905092915050565b600060208284031215613928576139276136de565b5b600061393684828501613802565b91505092915050565b613948816137a3565b82525050565b6000602082019050613963600083018461393f565b92915050565b613972816137e1565b82525050565b600060608201905061398d6000830186613969565b61399a602083018561393f565b81810360408301526139ac81846138b7565b9050949350505050565b60006020820190506139cb6000830184613969565b92915050565b6000806000606084860312156139ea576139e96136de565b5b60006139f8868287016137cc565b9350506020613a09868287016137cc565b9250506040613a1a86828701613802565b9150509250925092565b600060208284031215613a3a57613a396136de565b5b6000613a48848285016137cc565b91505092915050565b600080fd5b600080fd5b7f4e487b7100000000000000000000000000000000000000000000000000000000600052604160045260246000fd5b613a93826138a6565b810181811067ffffffffffffffff82111715613ab257613ab1613a5b565b5b80604052505050565b6000613ac56136d4565b9050613ad18282613a8a565b919050565b600067ffffffffffffffff821115613af157613af0613a5b565b5b613afa826138a6565b9050602081019050919050565b82818337600083830152505050565b6000613b29613b2484613ad6565b613abb565b905082815260208101848484011115613b4557613b44613a56565b5b613b50848285613b07565b509392505050565b600082601f830112613b6d57613b6c613a51565b5b8135613b7d848260208601613b16565b91505092915050565b600080600060608486031215613b9f57613b9e6136de565b5b600084013567ffffffffffffffff811115613bbd57613bbc6136e3565b5b613bc986828701613b58565b9350506020613bda868287016137cc565b9250506040613beb86828701613802565b9150509250925092565b60008060408385031215613c0c57613c0b6136de565b5b6000613c1a85828601613802565b9250506020613c2b85828601613802565b9150509250929050565b60008060008060808587031215613c4f57613c4e6136de565b5b600085013567ffffffffffffffff811115613c6d57613c6c6136e3565b5b613c7987828801613b58565b9450506020613c8a878288016137cc565b9350506040613c9b87828801613802565b9250506060613cac87828801613802565b91505092959194509250565b613cc18161376d565b8114613ccc57600080fd5b50565b600081359050613cde81613cb8565b92915050565b60008060408385031215613cfb57613cfa6136de565b5b6000613d0985828601613802565b9250506020613d1a85828601613ccf565b9150509250929050565b60008060408385031215613d3b57613d3a6136de565b5b6000613d49858286016137cc565b9250506020613d5a85828601613ccf565b9150509250929050565b600067ffffffffffffffff821115613d7f57613d7e613a5b565b5b613d88826138a6565b9050602081019050919050565b6000613da8613da384613d64565b613abb565b905082815260208101848484011115613dc457613dc3613a56565b5b613dcf848285613b07565b509392505050565b600082601f830112613dec57613deb613a51565b5b8135613dfc848260208601613d95565b91505092915050565b60008060008060808587031215613e1f57613e1e6136de565b5b6000613e2d878288016137cc565b9450506020613e3e878288016137cc565b9350506040613e4f87828801613802565b925050606085013567ffffffffffffffff811115613e7057613e6f6136e3565b5b613e7c87828801613dd7565b91505092959194509250565b60008060408385031215613e9f57613e9e6136de565b5b6000613ead858286016137cc565b9250506020613ebe858286016137cc565b9150509250929050565b7f4f776e61626c653a2063616c6c6572206973206e6f7420746865206f776e6572600082015250565b6000613efe602083613862565b9150613f0982613ec8565b602082019050919050565b60006020820190508181036000830152613f2d81613ef1565b9050919050565b600081519050613f43816137eb565b92915050565b600060208284031215613f5f57613f5e6136de565b5b6000613f6d84828501613f34565b91505092915050565b7f57726f6e6720616d6f756e740000000000000000000000000000000000000000600082015250565b6000613fac600c83613862565b9150613fb782613f76565b602082019050919050565b60006020820190508181036000830152613fdb81613f9f565b9050919050565b6000604082019050613ff7600083018561393f565b6140046020830184613969565b9392505050565b60008151905061401a81613cb8565b92915050565b600060208284031215614036576140356136de565b5b60006140448482850161400b565b91505092915050565b7f4e487b7100000000000000000000000000000000000000000000000000000000600052602260045260246000fd5b6000600282049050600182168061409457607f821691505b602082108114156140a8576140a761404d565b5b50919050565b7f4552433732313a20617070726f76656420717565727920666f72206e6f6e657860008201527f697374656e7420746f6b656e0000000000000000000000000000000000000000602082015250565b600061410a602c83613862565b9150614115826140ae565b604082019050919050565b60006020820190508181036000830152614139816140fd565b9050919050565b7f4552433732313a20617070726f76616c20746f2063757272656e74206f776e6560008201527f7200000000000000000000000000000000000000000000000000000000000000602082015250565b600061419c602183613862565b91506141a782614140565b604082019050919050565b600060208201905081810360008301526141cb8161418f565b9050919050565b7f4552433732313a20617070726f76652063616c6c6572206973206e6f74206f7760008201527f6e6572206e6f7220617070726f76656420666f7220616c6c0000000000000000602082015250565b600061422e603883613862565b9150614239826141d2565b604082019050919050565b6000602082019050818103600083015261425d81614221565b9050919050565b7f4552433732313a207472616e736665722063616c6c6572206973206e6f74206f60008201527f776e6572206e6f7220617070726f766564000000000000000000000000000000602082015250565b60006142c0603183613862565b91506142cb82614264565b604082019050919050565b600060208201905081810360008301526142ef816142b3565b9050919050565b7f455243373231456e756d657261626c653a206f776e657220696e646578206f7560008201527f74206f6620626f756e6473000000000000000000000000000000000000000000602082015250565b6000614352602b83613862565b915061435d826142f6565b604082019050919050565b6000602082019050818103600083015261438181614345565b9050919050565b7f455243373231456e756d657261626c653a20676c6f62616c20696e646578206f60008201527f7574206f6620626f756e64730000000000000000000000000000000000000000602082015250565b60006143e4602c83613862565b91506143ef82614388565b604082019050919050565b60006020820190508181036000830152614413816143d7565b9050919050565b7f4e487b7100000000000000000000000000000000000000000000000000000000600052603260045260246000fd5b7f4e6f7420657869737420696e20626c61636b6c69737400000000000000000000600082015250565b600061447f601683613862565b915061448a82614449565b602082019050919050565b600060208201905081810360008301526144ae81614472565b9050919050565b60006040820190506144ca6000830185613969565b6144d76020830184613779565b9392505050565b7f4552433732313a206f776e657220717565727920666f72206e6f6e657869737460008201527f656e7420746f6b656e0000000000000000000000000000000000000000000000602082015250565b600061453a602983613862565b9150614545826144de565b604082019050919050565b600060208201905081810360008301526145698161452d565b9050919050565b7f4552433732313a2062616c616e636520717565727920666f7220746865207a6560008201527f726f206164647265737300000000000000000000000000000000000000000000602082015250565b60006145cc602a83613862565b91506145d782614570565b604082019050919050565b600060208201905081810360008301526145fb816145bf565b9050919050565b7f496e76616c696420616464726573730000000000000000000000000000000000600082015250565b6000614638600f83613862565b915061464382614602565b602082019050919050565b600060208201905081810360008301526146678161462b565b9050919050565b60006060820190506146836000830186613969565b6146906020830185613969565b81810360408301526146a281846138b7565b9050949350505050565b7f546f6b656e496420697320696e20626c61636b4c697374000000000000000000600082015250565b60006146e2601783613862565b91506146ed826146ac565b602082019050919050565b60006020820190508181036000830152614711816146d5565b9050919050565b7f4572726f722c20796f7520617265206e6f7420746865206f776e657200000000600082015250565b600061474e601c83613862565b915061475982614718565b602082019050919050565b6000602082019050818103600083015261477d81614741565b9050919050565b60006060820190506147996000830186613969565b6147a66020830185613969565b6147b36040830184613969565b949350505050565b7f77726f6e6720616d6f756e740000000000000000000000000000000000000000600082015250565b60006147f1600c83613862565b91506147fc826147bb565b602082019050919050565b60006020820190508181036000830152614820816147e4565b9050919050565b7f4e487b7100000000000000000000000000000000000000000000000000000000600052601160045260246000fd5b6000614861826137e1565b91507fffffffffffffffffffffffffffffffffffffffffffffffffffffffffffffffff82141561489457614893614827565b5b600182019050919050565b7f46656520616464726573733a20616c7265616479207365740000000000000000600082015250565b60006148d5601883613862565b91506148e08261489f565b602082019050919050565b60006020820190508181036000830152614904816148c8565b9050919050565b7f5a65726f2061646472657373206973206e6f7420616c6c6f77656420666f722060008201527f6665652061646472657373000000000000000000000000000000000000000000602082015250565b6000614967602b83613862565b91506149728261490b565b604082019050919050565b600060208201905081810360008301526149968161495a565b9050919050565b7f4552433732314d657461646174613a2055524920717565727920666f72206e6f60008201527f6e6578697374656e7420746f6b656e0000000000000000000000000000000000602082015250565b60006149f9602f83613862565b9150614a048261499d565b604082019050919050565b60006020820190508181036000830152614a28816149ec565b9050919050565b7f416c726561647920696e20626c61636b6c697374000000000000000000000000600082015250565b6000614a65601483613862565b9150614a7082614a2f565b602082019050919050565b60006020820190508181036000830152614a9481614a58565b9050919050565b7f4f776e61626c653a206e6577206f776e657220697320746865207a65726f206160008201527f6464726573730000000000000000000000000000000000000000000000000000602082015250565b6000614af7602683613862565b9150614b0282614a9b565b604082019050919050565b60006020820190508181036000830152614b2681614aea565b9050919050565b7f4552433732313a206f70657261746f7220717565727920666f72206e6f6e657860008201527f697374656e7420746f6b656e0000000000000000000000000000000000000000602082015250565b6000614b89602c83613862565b9150614b9482614b2d565b604082019050919050565b60006020820190508181036000830152614bb881614b7c565b9050919050565b7f4552433732313a207472616e736665722066726f6d20696e636f72726563742060008201527f6f776e6572000000000000000000000000000000000000000000000000000000602082015250565b6000614c1b602583613862565b9150614c2682614bbf565b604082019050919050565b60006020820190508181036000830152614c4a81614c0e565b9050919050565b7f4552433732313a207472616e7366657220746f20746865207a65726f2061646460008201527f7265737300000000000000000000000000000000000000000000000000000000602082015250565b6000614cad602483613862565b9150614cb882614c51565b604082019050919050565b60006020820190508181036000830152614cdc81614ca0565b9050919050565b6000614cee826137e1565b9150614cf9836137e1565b925082821015614d0c57614d0b614827565b5b828203905092915050565b6000614d22826137e1565b9150614d2d836137e1565b9250827fffffffffffffffffffffffffffffffffffffffffffffffffffffffffffffffff03821115614d6257614d61614827565b5b828201905092915050565b600081905092915050565b50565b6000614d88600083614d6d565b9150614d9382614d78565b600082019050919050565b6000614da982614d7b565b9150819050919050565b7f5472616e73666572206661696c65642e00000000000000000000000000000000600082015250565b6000614de9601083613862565b9150614df482614db3565b602082019050919050565b60006020820190508181036000830152614e1881614ddc565b9050919050565b7f4552433732313a20617070726f766520746f2063616c6c657200000000000000600082015250565b6000614e55601983613862565b9150614e6082614e1f565b602082019050919050565b60006020820190508181036000830152614e8481614e48565b9050919050565b7f4552433732313a207472616e7366657220746f206e6f6e20455243373231526560008201527f63656976657220696d706c656d656e7465720000000000000000000000000000602082015250565b6000614ee7603283613862565b9150614ef282614e8b565b604082019050919050565b60006020820190508181036000830152614f1681614eda565b9050919050565b7f4572726f722c2077726f6e6720746f6b656e4964000000000000000000000000600082015250565b6000614f53601483613862565b9150614f5e82614f1d565b602082019050919050565b60006020820190508181036000830152614f8281614f46565b9050919050565b7f4974656d206e6f74206c69737465642063757272656e746c7900000000000000600082015250565b6000614fbf601983613862565b9150614fca82614f89565b602082019050919050565b60006020820190508181036000830152614fee81614fb2565b9050919050565b7f4572726f722c2074686520616d6f756e74206973206c6f776572000000000000600082015250565b600061502b601a83613862565b915061503682614ff5565b602082019050919050565b6000602082019050818103600083015261505a8161501e565b9050919050565b7f43616e206e6f7420627579207768617420796f75206f776e0000000000000000600082015250565b6000615097601883613862565b91506150a282615061565b602082019050919050565b600060208201905081810360008301526150c68161508a565b9050919050565b60006150d8826137e1565b91506150e3836137e1565b9250817fffffffffffffffffffffffffffffffffffffffffffffffffffffffffffffffff048311821515161561511c5761511b614827565b5b828202905092915050565b7f4e487b7100000000000000000000000000000000000000000000000000000000600052601260045260246000fd5b6000615161826137e1565b915061516c836137e1565b92508261517c5761517b615127565b5b828204905092915050565b600081519050919050565b600082825260208201905092915050565b60006151ae82615187565b6151b88185615192565b93506151c8818560208601613873565b6151d1816138a6565b840191505092915050565b60006080820190506151f1600083018761393f565b6151fe602083018661393f565b61520b6040830185613969565b818103606083015261521d81846151a3565b905095945050505050565b60008151905061523781613714565b92915050565b600060208284031215615253576152526136de565b5b600061526184828501615228565b91505092915050565b7f4e487b7100000000000000000000000000000000000000000000000000000000600052603160045260246000fd5b7f4552433732313a206d696e7420746f20746865207a65726f2061646472657373600082015250565b60006152cf602083613862565b91506152da82615299565b602082019050919050565b600060208201905081810360008301526152fe816152c2565b9050919050565b7f4552433732313a20746f6b656e20616c7265616479206d696e74656400000000600082015250565b600061533b601c83613862565b915061534682615305565b602082019050919050565b6000602082019050818103600083015261536a8161532e565b905091905056fea2646970667358221220000fafa4528fb9daa848b89b394b772bbc031fc39de3ccbca6e5d07ad16bed6c64736f6c634300080b0033",
  "immutableReferences": {},
  "source": "/**\r\n * Submitted for verification at BscScan.com on 2022-02-17\r\n */\r\n\r\n// File: contracts/GoggleNFTs.sol\r\n// SPDX-License-Identifier: MIT\r\n\r\n\r\nimport \"@openzeppelin/contracts/token/ERC721/ERC721.sol\";\r\nimport \"@openzeppelin/contracts/access/Ownable.sol\";\r\nimport \"@openzeppelin/contracts/utils/Counters.sol\";\r\nimport \"@openzeppelin/contracts/token/ERC20/IERC20.sol\";\r\nimport \"@openzeppelin/contracts/token/ERC721/extensions/ERC721Enumerable.sol\";\r\n\r\npragma solidity >=0.6.0 <0.9.0;\r\n\r\ncontract GogglesNFT is ERC721Enumerable, Ownable {\r\n\r\n    // CommissionFee percent is 2.5%\r\n    uint256 public commissionFee = 25;\r\n    uint256 public denominator = 10;\r\n\r\n    struct Item {\r\n        uint256 id;\r\n        address creater;\r\n        string uri;\r\n    }\r\n    // tokenId => item\r\n    mapping (uint256 => Item) public Items;\r\n\r\n    address payable public _feeAddress;\r\n    // tokenId => inBlackList\r\n    mapping (uint =>  bool) public blackList;\r\n    // tokenId => price\r\n    mapping (uint => uint) public price;\r\n    // tokenId => isListed?\r\n    mapping (uint => bool) public listedMap;\r\n\r\n    event Purchase(address indexed previousOwner, address indexed newOwner, uint price, uint nftID, string uri);\r\n\r\n    event Minted(address indexed minter, uint price, uint nftID, string uri);\r\n\r\n    event PriceUpdate(address indexed owner, uint oldPrice, uint newPrice, uint nftID);\r\n\r\n    event UpdateListStatus(address indexed owner, uint nftID, bool isListed);\r\n\r\n    event UpdateBlackList(uint256 nftID, bool isBlackList);\r\n\r\n    constructor(address _owner) ERC721(\"GogglesNFT\", \"GOST\") {\r\n        require(_owner != address(0x0), \"Invalid address\");\r\n        _feeAddress = payable(_owner);\r\n    }\r\n\r\n    modifier notBlackList(uint256 _tokenId) {\r\n        require(blackList[_tokenId] == false, \"TokenId is in blackList\");\r\n        _;\r\n    }\r\n\r\n    // Create item\r\n    function mint(string memory _tokenURI, address _toAddress, uint _price) public returns (uint) {\r\n        require(_toAddress != address(0x0), \"Invalid address\");\r\n\r\n        uint _tokenId = totalSupply(); \r\n        price[_tokenId] = _price;\r\n        listedMap[_tokenId] = true;\r\n\r\n        _safeMint(_toAddress, _tokenId);\r\n        \r\n        Item storage item = Items[_tokenId];\r\n        item.uri = _tokenURI;\r\n        item.id = _tokenId;\r\n        item.creater = _toAddress;\r\n\r\n        emit Minted(_toAddress, _price, _tokenId, _tokenURI);\r\n\r\n        return _tokenId;\r\n    }\r\n\r\n    // Batch creation\r\n    function batchMint(string memory _tokenURI, address _toAddress, uint _price, uint _amount) external {\r\n        require(_amount > 0, \"wrong amount\");\r\n\r\n        for(uint idx = 0; idx < _amount; idx++) {\r\n            mint(_tokenURI, _toAddress, _price);\r\n        }\r\n    }\r\n\r\n    function tokenURI(uint256 tokenId) public view  override returns (string memory) {\r\n        require(_exists(tokenId), \"ERC721Metadata: URI query for nonexistent token\");\r\n\r\n        return Items[tokenId].uri;\r\n    }\r\n\r\n    // TokenId\r\n    function buy(uint _id) notBlackList(_id) external payable {\r\n        _validate(_id);\r\n\r\n        address _previousOwner = ownerOf(_id);\r\n        address _newOwner = msg.sender;\r\n\r\n        _trade(_id);\r\n\r\n        emit Purchase(_previousOwner, _newOwner, price[_id], _id, tokenURI(_id));\r\n    }\r\n\r\n    function _validate(uint _id) internal {\r\n        bool isItemListed = listedMap[_id];\r\n        require(_exists(_id), \"Error, wrong tokenId\");\r\n        require(isItemListed, \"Item not listed currently\");\r\n        require(msg.value >= price[_id], \"Error, the amount is lower\");\r\n        require(msg.sender != ownerOf(_id), \"Can not buy what you own\");\r\n    }\r\n\r\n    function _trade(uint _id) internal {\r\n        address payable _buyer = payable(msg.sender);\r\n        address payable _owner = payable(ownerOf(_id));\r\n\r\n        _transfer(_owner, _buyer, _id);\r\n\r\n        // commission cut\r\n        uint _commissionValue = price[_id] * commissionFee / denominator / 100 ;\r\n        uint _sellerValue = price[_id] - _commissionValue;\r\n\r\n        _owner.transfer(_sellerValue);\r\n        _feeAddress.transfer(_commissionValue);\r\n\r\n        // If buyer sent more than price, we send them back their rest of funds\r\n        if (msg.value > price[_id]) {\r\n            _buyer.transfer(msg.value - price[_id]);\r\n        }\r\n\r\n        listedMap[_id] = false;\r\n    }\r\n\r\n    // Update owner's NFT price\r\n    function updatePrice(uint _tokenId, uint _price) notBlackList(_tokenId) public returns (bool) {\r\n        uint oldPrice = price[_tokenId];\r\n        require(msg.sender == ownerOf(_tokenId), \"Error, you are not the owner\");\r\n        price[_tokenId] = _price;\r\n\r\n        emit PriceUpdate(msg.sender, oldPrice, _price, _tokenId);\r\n        return true;\r\n    }\r\n\r\n    function updateListingStatus(uint _tokenId, bool shouldBeListed) notBlackList(_tokenId) public returns (bool) {\r\n        require(msg.sender == ownerOf(_tokenId), \"Error, you are not the owner\");\r\n\r\n        listedMap[_tokenId] = shouldBeListed;\r\n\r\n        emit UpdateListStatus(msg.sender, _tokenId, shouldBeListed);\r\n\r\n        return true;\r\n    }\r\n\r\n    // Update the fee address\r\n    function updateFeeAddress(address newFeeAddress) external onlyOwner {\r\n        require(_feeAddress != newFeeAddress, \"Fee address: already set\");\r\n        require(newFeeAddress != address(0x0), \"Zero address is not allowed for fee address\");\r\n\r\n        _feeAddress = payable(newFeeAddress);\r\n    }\r\n\r\n    // BlackList\r\n    function addBlackList(uint256 _tokenId) external onlyOwner {\r\n        require(blackList[_tokenId] == false, \"Already in blacklist\");\r\n        blackList[_tokenId] = true;\r\n\r\n        listedMap[_tokenId] = false;\r\n        emit UpdateListStatus(msg.sender, _tokenId, false);\r\n        emit UpdateBlackList(_tokenId, true);\r\n    }\r\n\r\n    function removeBlackList(uint256 _tokenId) external onlyOwner {\r\n        require(blackList[_tokenId], \"Not exist in blacklist\");\r\n\r\n        blackList[_tokenId] = false;\r\n\r\n        emit UpdateBlackList(_tokenId, false);\r\n    }\r\n\r\n    // Withdraw ERC20 tokens\r\n    // For unusual case, if customers sent their any ERC20 tokens into marketplace, we need to send it back to them\r\n    function withdrawTokens(address _token, uint256 _amount) external onlyOwner {\r\n        require(IERC20(_token).balanceOf(address(this)) >= _amount, \"Wrong amount\");\r\n\r\n        IERC20(_token).transfer(msg.sender, _amount);\r\n    }\r\n\r\n    // withdraw BNB\r\n    function withdrawAll() public onlyOwner {\r\n        uint256 balance = address(this).balance;\r\n        require(balance > 0);\r\n        _widthdraw(msg.sender, balance);\r\n    }\r\n\r\n    function _widthdraw(address _address, uint256 _amount) private {\r\n        (bool success, ) = _address.call{value: _amount}(\"\");\r\n        require(success, \"Transfer failed.\");\r\n    }\r\n}",
  "sourcePath": "F:\\workBlockchain\\project\\2022-GogglesNFT\\contacts\\newcontract\\contracts\\GogglesNFT.sol",
  "compiler": {
    "name": "solc",
    "version": "0.8.11+commit.d7f03943.Emscripten.clang"
  },
  "schemaVersion": "3.4.4",
  "updatedAt": "2022-03-16T01:27:19.262Z",
  "networkType": "ethereum",
  "devdoc": {
    "kind": "dev",
    "methods": {
      "approve(address,uint256)": {
        "details": "See {IERC721-approve}."
      },
      "balanceOf(address)": {
        "details": "See {IERC721-balanceOf}."
      },
      "getApproved(uint256)": {
        "details": "See {IERC721-getApproved}."
      },
      "isApprovedForAll(address,address)": {
        "details": "See {IERC721-isApprovedForAll}."
      },
      "name()": {
        "details": "See {IERC721Metadata-name}."
      },
      "owner()": {
        "details": "Returns the address of the current owner."
      },
      "ownerOf(uint256)": {
        "details": "See {IERC721-ownerOf}."
      },
      "renounceOwnership()": {
        "details": "Leaves the contract without owner. It will not be possible to call `onlyOwner` functions anymore. Can only be called by the current owner. NOTE: Renouncing ownership will leave the contract without an owner, thereby removing any functionality that is only available to the owner."
      },
      "safeTransferFrom(address,address,uint256)": {
        "details": "See {IERC721-safeTransferFrom}."
      },
      "safeTransferFrom(address,address,uint256,bytes)": {
        "details": "See {IERC721-safeTransferFrom}."
      },
      "setApprovalForAll(address,bool)": {
        "details": "See {IERC721-setApprovalForAll}."
      },
      "supportsInterface(bytes4)": {
        "details": "See {IERC165-supportsInterface}."
      },
      "symbol()": {
        "details": "See {IERC721Metadata-symbol}."
      },
      "tokenByIndex(uint256)": {
        "details": "See {IERC721Enumerable-tokenByIndex}."
      },
      "tokenOfOwnerByIndex(address,uint256)": {
        "details": "See {IERC721Enumerable-tokenOfOwnerByIndex}."
      },
      "tokenURI(uint256)": {
        "details": "See {IERC721Metadata-tokenURI}."
      },
      "totalSupply()": {
        "details": "See {IERC721Enumerable-totalSupply}."
      },
      "transferFrom(address,address,uint256)": {
        "details": "See {IERC721-transferFrom}."
      },
      "transferOwnership(address)": {
        "details": "Transfers ownership of the contract to a new account (`newOwner`). Can only be called by the current owner."
      }
    },
    "version": 1
  },
  "userdoc": {
    "kind": "user",
    "methods": {},
    "version": 1
  }
}