{
  "contractName": "NFTBlackList",
  "abi": [
    {
      "anonymous": false,
      "inputs": [
        {
          "indexed": true,
          "internalType": "address",
          "name": "previousOwner",
          "type": "address"
        },
        {
          "indexed": true,
          "internalType": "address",
          "name": "newOwner",
          "type": "address"
        }
      ],
      "name": "OwnershipTransferred",
      "type": "event"
    },
    {
      "anonymous": false,
      "inputs": [
        {
          "indexed": false,
          "internalType": "address",
          "name": "token_address",
          "type": "address"
        },
        {
          "indexed": false,
          "internalType": "uint256",
          "name": "token_id",
          "type": "uint256"
        },
        {
          "indexed": false,
          "internalType": "bool",
          "name": "in_blacklist",
          "type": "bool"
        }
      ],
      "name": "UpdateBlackList",
      "type": "event"
    },
    {
      "inputs": [],
      "name": "owner",
      "outputs": [
        {
          "internalType": "address",
          "name": "",
          "type": "address"
        }
      ],
      "stateMutability": "view",
      "type": "function"
    },
    {
      "inputs": [],
      "name": "renounceOwnership",
      "outputs": [],
      "stateMutability": "nonpayable",
      "type": "function"
    },
    {
      "inputs": [
        {
          "internalType": "address",
          "name": "newOwner",
          "type": "address"
        }
      ],
      "name": "transferOwnership",
      "outputs": [],
      "stateMutability": "nonpayable",
      "type": "function"
    },
    {
      "inputs": [
        {
          "internalType": "address",
          "name": "tokenAddress",
          "type": "address"
        },
        {
          "internalType": "uint256",
          "name": "tokenId",
          "type": "uint256"
        }
      ],
      "name": "addBlackList",
      "outputs": [],
      "stateMutability": "nonpayable",
      "type": "function"
    },
    {
      "inputs": [
        {
          "internalType": "address",
          "name": "tokenAddress",
          "type": "address"
        },
        {
          "internalType": "uint256",
          "name": "tokenId",
          "type": "uint256"
        }
      ],
      "name": "removeBlackList",
      "outputs": [],
      "stateMutability": "nonpayable",
      "type": "function"
    },
    {
      "inputs": [
        {
          "internalType": "address",
          "name": "tokenAddress",
          "type": "address"
        },
        {
          "internalType": "uint256",
          "name": "tokenId",
          "type": "uint256"
        }
      ],
      "name": "checkBlackList",
      "outputs": [
        {
          "internalType": "bool",
          "name": "",
          "type": "bool"
        }
      ],
      "stateMutability": "view",
      "type": "function"
    }
  ],
  "bytecode": "0x608060405234801561001057600080fd5b5061001a3361001f565b61006f565b600080546001600160a01b038381166001600160a01b0319831681178455604051919092169283917f8be0079c531659141344cd1fd0a4f28419497f9722a3daafe3b4186f6b6457e09190a35050565b6104cd8061007e6000396000f3fe608060405234801561001057600080fd5b50600436106100625760003560e01c806324ef09ec1461006757806331ae19271461007c578063715018a61461008f5780638da5cb5b14610097578063c1db0dce146100b7578063f2fde38b14610100575b600080fd5b61007a61007536600461044b565b610113565b005b61007a61008a36600461044b565b610210565b61007a6102f8565b6000546040516001600160a01b0390911681526020015b60405180910390f35b6100f06100c536600461044b565b6001600160a01b03919091166000908152600160209081526040808320938352929052205460ff1690565b60405190151581526020016100ae565b61007a61010e366004610475565b61030c565b61011b610385565b6001600160a01b038216600090815260016020908152604080832084845290915290205460ff16156101a25760405162461bcd60e51b815260206004820152602560248201527f426c61636b4c6973743a20616c726561647920657869737420696e20626c61636044820152641adb1a5cdd60da1b60648201526084015b60405180910390fd5b6001600160a01b0382166000818152600160208181526040808420868552825292839020805460ff19168317905582519384528301849052908201527f87bc519a489deadc443d0a1198c204096dba7c1e6069d7cc29a2c22ab8af7dc9906060015b60405180910390a15050565b610218610385565b6001600160a01b038216600090815260016020908152604080832084845290915290205460ff166102955760405162461bcd60e51b815260206004820152602160248201527f426c61636b4c6973743a206e6f7420657869737420696e20626c61636b6c69736044820152601d60fa1b6064820152608401610199565b6001600160a01b03821660008181526001602090815260408083208584528252808320805460ff1916905580519384529083018490528201527f87bc519a489deadc443d0a1198c204096dba7c1e6069d7cc29a2c22ab8af7dc990606001610204565b610300610385565b61030a60006103df565b565b610314610385565b6001600160a01b0381166103795760405162461bcd60e51b815260206004820152602660248201527f4f776e61626c653a206e6577206f776e657220697320746865207a65726f206160448201526564647265737360d01b6064820152608401610199565b610382816103df565b50565b6000546001600160a01b0316331461030a5760405162461bcd60e51b815260206004820181905260248201527f4f776e61626c653a2063616c6c6572206973206e6f7420746865206f776e65726044820152606401610199565b600080546001600160a01b038381166001600160a01b0319831681178455604051919092169283917f8be0079c531659141344cd1fd0a4f28419497f9722a3daafe3b4186f6b6457e09190a35050565b80356001600160a01b038116811461044657600080fd5b919050565b6000806040838503121561045e57600080fd5b6104678361042f565b946020939093013593505050565b60006020828403121561048757600080fd5b6104908261042f565b939250505056fea2646970667358221220bdacec6451b18c4aabc15887dac52b74c3c00859ad510a36bd42df8948779b6364736f6c634300080b0033",
  "immutableReferences": {},
  "source": "/**\n * Submitted for verification at BscScan.com on 2022-09-28\n */\n\n// File: contracts/NFTBlackList.sol\n// SPDX-License-Identifier: MIT\n\npragma solidity >=0.6.0 <0.9.0;\n\nimport \"@openzeppelin/contracts/access/Ownable.sol\";\n\ncontract NFTBlackList is Ownable {\n    // Token address => Token ID => True/False indicates if NFT is in blacklist or not\n    mapping (address=>mapping(uint256 => bool)) blacklist;\n\n    // Token address, Token ID, True/False indicates if NFT is in blacklist or not\n    event UpdateBlackList(address token_address, uint256 token_id, bool in_blacklist);\n\n    // add NFT into blacklist\n    function addBlackList(address tokenAddress, uint256 tokenId) external onlyOwner {\n        require(blacklist[tokenAddress][tokenId] == false, \"BlackList: already exist in blacklist\");\n        blacklist[tokenAddress][tokenId] = true;\n\n        emit UpdateBlackList(tokenAddress, tokenId, true);\n    }\n\n    // remove NFT from blacklist\n    function removeBlackList(address tokenAddress, uint256 tokenId) external onlyOwner {\n        require(blacklist[tokenAddress][tokenId], \"BlackList: not exist in blacklist\");\n        blacklist[tokenAddress][tokenId] = false;\n\n        emit UpdateBlackList(tokenAddress, tokenId, false);\n    }    \n\n    // return if NFT is in blacklist or not\n    function checkBlackList(address tokenAddress, uint256 tokenId) external view returns(bool) {\n        return blacklist[tokenAddress][tokenId];\n    }\n}",
  "sourcePath": "/Users/coredev0927/WorkSpace/Blockchain/Evm/NichoNFT/NichoNFT-marketplace-contract/contracts/NFTBlackList.sol",
  "compiler": {
    "name": "solc",
    "version": "0.8.11+commit.d7f03943.Emscripten.clang"
  },
  "schemaVersion": "3.4.10",
  "updatedAt": "2022-09-28T19:30:05.499Z",
  "devdoc": {
    "kind": "dev",
    "methods": {
      "owner()": {
        "details": "Returns the address of the current owner."
      },
      "renounceOwnership()": {
        "details": "Leaves the contract without owner. It will not be possible to call `onlyOwner` functions anymore. Can only be called by the current owner. NOTE: Renouncing ownership will leave the contract without an owner, thereby removing any functionality that is only available to the owner."
      },
      "transferOwnership(address)": {
        "details": "Transfers ownership of the contract to a new account (`newOwner`). Can only be called by the current owner."
      }
    },
    "version": 1
  },
  "userdoc": {
    "kind": "user",
    "methods": {},
    "version": 1
  }
}