{
  "contractName": "NichoNFT",
  "abi": [
    {
      "inputs": [
        {
          "internalType": "address",
          "name": "_owner",
          "type": "address"
        }
      ],
      "stateMutability": "nonpayable",
      "type": "constructor"
    },
    {
      "anonymous": false,
      "inputs": [
        {
          "indexed": true,
          "internalType": "address",
          "name": "minter",
          "type": "address"
        },
        {
          "indexed": false,
          "internalType": "address",
          "name": "tokenAddress",
          "type": "address"
        },
        {
          "indexed": false,
          "internalType": "uint256",
          "name": "price",
          "type": "uint256"
        },
        {
          "indexed": false,
          "internalType": "uint256",
          "name": "nftID",
          "type": "uint256"
        },
        {
          "indexed": false,
          "internalType": "string",
          "name": "uri",
          "type": "string"
        }
      ],
      "name": "Added",
      "type": "event"
    },
    {
      "anonymous": false,
      "inputs": [
        {
          "indexed": true,
          "internalType": "address",
          "name": "owner",
          "type": "address"
        },
        {
          "indexed": true,
          "internalType": "address",
          "name": "approved",
          "type": "address"
        },
        {
          "indexed": true,
          "internalType": "uint256",
          "name": "tokenId",
          "type": "uint256"
        }
      ],
      "name": "Approval",
      "type": "event"
    },
    {
      "anonymous": false,
      "inputs": [
        {
          "indexed": true,
          "internalType": "address",
          "name": "owner",
          "type": "address"
        },
        {
          "indexed": true,
          "internalType": "address",
          "name": "operator",
          "type": "address"
        },
        {
          "indexed": false,
          "internalType": "bool",
          "name": "approved",
          "type": "bool"
        }
      ],
      "name": "ApprovalForAll",
      "type": "event"
    },
    {
      "anonymous": false,
      "inputs": [
        {
          "indexed": true,
          "internalType": "address",
          "name": "previousOwner",
          "type": "address"
        },
        {
          "indexed": true,
          "internalType": "address",
          "name": "newOwner",
          "type": "address"
        }
      ],
      "name": "OwnershipTransferred",
      "type": "event"
    },
    {
      "anonymous": false,
      "inputs": [
        {
          "indexed": false,
          "internalType": "address",
          "name": "tokenAddress",
          "type": "address"
        },
        {
          "indexed": true,
          "internalType": "address",
          "name": "owner",
          "type": "address"
        },
        {
          "indexed": false,
          "internalType": "uint256",
          "name": "oldPrice",
          "type": "uint256"
        },
        {
          "indexed": false,
          "internalType": "uint256",
          "name": "newPrice",
          "type": "uint256"
        },
        {
          "indexed": false,
          "internalType": "uint256",
          "name": "nftID",
          "type": "uint256"
        }
      ],
      "name": "PriceUpdate",
      "type": "event"
    },
    {
      "anonymous": false,
      "inputs": [
        {
          "indexed": false,
          "internalType": "address",
          "name": "tokenAddress",
          "type": "address"
        },
        {
          "indexed": true,
          "internalType": "address",
          "name": "previousOwner",
          "type": "address"
        },
        {
          "indexed": true,
          "internalType": "address",
          "name": "newOwner",
          "type": "address"
        },
        {
          "indexed": false,
          "internalType": "uint256",
          "name": "price",
          "type": "uint256"
        },
        {
          "indexed": false,
          "internalType": "uint256",
          "name": "nftID",
          "type": "uint256"
        },
        {
          "indexed": false,
          "internalType": "string",
          "name": "uri",
          "type": "string"
        }
      ],
      "name": "Purchase",
      "type": "event"
    },
    {
      "anonymous": false,
      "inputs": [
        {
          "indexed": true,
          "internalType": "address",
          "name": "from",
          "type": "address"
        },
        {
          "indexed": true,
          "internalType": "address",
          "name": "to",
          "type": "address"
        },
        {
          "indexed": true,
          "internalType": "uint256",
          "name": "tokenId",
          "type": "uint256"
        }
      ],
      "name": "Transfer",
      "type": "event"
    },
    {
      "anonymous": false,
      "inputs": [
        {
          "indexed": false,
          "internalType": "address",
          "name": "tokenAddress",
          "type": "address"
        },
        {
          "indexed": false,
          "internalType": "uint256",
          "name": "nftID",
          "type": "uint256"
        },
        {
          "indexed": false,
          "internalType": "bool",
          "name": "isBlackList",
          "type": "bool"
        }
      ],
      "name": "UpdateBlackList",
      "type": "event"
    },
    {
      "anonymous": false,
      "inputs": [
        {
          "indexed": false,
          "internalType": "address",
          "name": "tokenAddress",
          "type": "address"
        },
        {
          "indexed": true,
          "internalType": "address",
          "name": "owner",
          "type": "address"
        },
        {
          "indexed": false,
          "internalType": "uint256",
          "name": "nftID",
          "type": "uint256"
        },
        {
          "indexed": false,
          "internalType": "bool",
          "name": "isListed",
          "type": "bool"
        }
      ],
      "name": "UpdateListStatus",
      "type": "event"
    },
    {
      "inputs": [
        {
          "internalType": "address",
          "name": "",
          "type": "address"
        },
        {
          "internalType": "uint256",
          "name": "",
          "type": "uint256"
        }
      ],
      "name": "Items",
      "outputs": [
        {
          "internalType": "uint256",
          "name": "id",
          "type": "uint256"
        },
        {
          "internalType": "address",
          "name": "creater",
          "type": "address"
        },
        {
          "internalType": "string",
          "name": "uri",
          "type": "string"
        }
      ],
      "stateMutability": "view",
      "type": "function"
    },
    {
      "inputs": [],
      "name": "_feeAddress",
      "outputs": [
        {
          "internalType": "address payable",
          "name": "",
          "type": "address"
        }
      ],
      "stateMutability": "view",
      "type": "function"
    },
    {
      "inputs": [
        {
          "internalType": "address",
          "name": "to",
          "type": "address"
        },
        {
          "internalType": "uint256",
          "name": "tokenId",
          "type": "uint256"
        }
      ],
      "name": "approve",
      "outputs": [],
      "stateMutability": "nonpayable",
      "type": "function"
    },
    {
      "inputs": [
        {
          "internalType": "address",
          "name": "owner",
          "type": "address"
        }
      ],
      "name": "balanceOf",
      "outputs": [
        {
          "internalType": "uint256",
          "name": "",
          "type": "uint256"
        }
      ],
      "stateMutability": "view",
      "type": "function"
    },
    {
      "inputs": [
        {
          "internalType": "address",
          "name": "",
          "type": "address"
        },
        {
          "internalType": "uint256",
          "name": "",
          "type": "uint256"
        }
      ],
      "name": "blackList",
      "outputs": [
        {
          "internalType": "bool",
          "name": "",
          "type": "bool"
        }
      ],
      "stateMutability": "view",
      "type": "function"
    },
    {
      "inputs": [],
      "name": "commissionFee",
      "outputs": [
        {
          "internalType": "uint256",
          "name": "",
          "type": "uint256"
        }
      ],
      "stateMutability": "view",
      "type": "function"
    },
    {
      "inputs": [],
      "name": "denominator",
      "outputs": [
        {
          "internalType": "uint256",
          "name": "",
          "type": "uint256"
        }
      ],
      "stateMutability": "view",
      "type": "function"
    },
    {
      "inputs": [
        {
          "internalType": "uint256",
          "name": "tokenId",
          "type": "uint256"
        }
      ],
      "name": "getApproved",
      "outputs": [
        {
          "internalType": "address",
          "name": "",
          "type": "address"
        }
      ],
      "stateMutability": "view",
      "type": "function"
    },
    {
      "inputs": [
        {
          "internalType": "address",
          "name": "owner",
          "type": "address"
        },
        {
          "internalType": "address",
          "name": "operator",
          "type": "address"
        }
      ],
      "name": "isApprovedForAll",
      "outputs": [
        {
          "internalType": "bool",
          "name": "",
          "type": "bool"
        }
      ],
      "stateMutability": "view",
      "type": "function"
    },
    {
      "inputs": [],
      "name": "name",
      "outputs": [
        {
          "internalType": "string",
          "name": "",
          "type": "string"
        }
      ],
      "stateMutability": "view",
      "type": "function"
    },
    {
      "inputs": [],
      "name": "owner",
      "outputs": [
        {
          "internalType": "address",
          "name": "",
          "type": "address"
        }
      ],
      "stateMutability": "view",
      "type": "function"
    },
    {
      "inputs": [
        {
          "internalType": "uint256",
          "name": "tokenId",
          "type": "uint256"
        }
      ],
      "name": "ownerOf",
      "outputs": [
        {
          "internalType": "address",
          "name": "",
          "type": "address"
        }
      ],
      "stateMutability": "view",
      "type": "function"
    },
    {
      "inputs": [
        {
          "internalType": "address",
          "name": "",
          "type": "address"
        },
        {
          "internalType": "uint256",
          "name": "",
          "type": "uint256"
        }
      ],
      "name": "price",
      "outputs": [
        {
          "internalType": "uint256",
          "name": "",
          "type": "uint256"
        }
      ],
      "stateMutability": "view",
      "type": "function"
    },
    {
      "inputs": [],
      "name": "renounceOwnership",
      "outputs": [],
      "stateMutability": "nonpayable",
      "type": "function"
    },
    {
      "inputs": [
        {
          "internalType": "address",
          "name": "from",
          "type": "address"
        },
        {
          "internalType": "address",
          "name": "to",
          "type": "address"
        },
        {
          "internalType": "uint256",
          "name": "tokenId",
          "type": "uint256"
        }
      ],
      "name": "safeTransferFrom",
      "outputs": [],
      "stateMutability": "nonpayable",
      "type": "function"
    },
    {
      "inputs": [
        {
          "internalType": "address",
          "name": "from",
          "type": "address"
        },
        {
          "internalType": "address",
          "name": "to",
          "type": "address"
        },
        {
          "internalType": "uint256",
          "name": "tokenId",
          "type": "uint256"
        },
        {
          "internalType": "bytes",
          "name": "_data",
          "type": "bytes"
        }
      ],
      "name": "safeTransferFrom",
      "outputs": [],
      "stateMutability": "nonpayable",
      "type": "function"
    },
    {
      "inputs": [
        {
          "internalType": "address",
          "name": "operator",
          "type": "address"
        },
        {
          "internalType": "bool",
          "name": "approved",
          "type": "bool"
        }
      ],
      "name": "setApprovalForAll",
      "outputs": [],
      "stateMutability": "nonpayable",
      "type": "function"
    },
    {
      "inputs": [
        {
          "internalType": "bytes4",
          "name": "interfaceId",
          "type": "bytes4"
        }
      ],
      "name": "supportsInterface",
      "outputs": [
        {
          "internalType": "bool",
          "name": "",
          "type": "bool"
        }
      ],
      "stateMutability": "view",
      "type": "function"
    },
    {
      "inputs": [],
      "name": "symbol",
      "outputs": [
        {
          "internalType": "string",
          "name": "",
          "type": "string"
        }
      ],
      "stateMutability": "view",
      "type": "function"
    },
    {
      "inputs": [
        {
          "internalType": "uint256",
          "name": "index",
          "type": "uint256"
        }
      ],
      "name": "tokenByIndex",
      "outputs": [
        {
          "internalType": "uint256",
          "name": "",
          "type": "uint256"
        }
      ],
      "stateMutability": "view",
      "type": "function"
    },
    {
      "inputs": [
        {
          "internalType": "address",
          "name": "owner",
          "type": "address"
        },
        {
          "internalType": "uint256",
          "name": "index",
          "type": "uint256"
        }
      ],
      "name": "tokenOfOwnerByIndex",
      "outputs": [
        {
          "internalType": "uint256",
          "name": "",
          "type": "uint256"
        }
      ],
      "stateMutability": "view",
      "type": "function"
    },
    {
      "inputs": [],
      "name": "totalSupply",
      "outputs": [
        {
          "internalType": "uint256",
          "name": "",
          "type": "uint256"
        }
      ],
      "stateMutability": "view",
      "type": "function"
    },
    {
      "inputs": [
        {
          "internalType": "address",
          "name": "from",
          "type": "address"
        },
        {
          "internalType": "address",
          "name": "to",
          "type": "address"
        },
        {
          "internalType": "uint256",
          "name": "tokenId",
          "type": "uint256"
        }
      ],
      "name": "transferFrom",
      "outputs": [],
      "stateMutability": "nonpayable",
      "type": "function"
    },
    {
      "inputs": [
        {
          "internalType": "address",
          "name": "newOwner",
          "type": "address"
        }
      ],
      "name": "transferOwnership",
      "outputs": [],
      "stateMutability": "nonpayable",
      "type": "function"
    },
    {
      "inputs": [
        {
          "internalType": "address",
          "name": "",
          "type": "address"
        }
      ],
      "name": "whitelist",
      "outputs": [
        {
          "internalType": "bool",
          "name": "",
          "type": "bool"
        }
      ],
      "stateMutability": "view",
      "type": "function"
    },
    {
      "inputs": [
        {
          "internalType": "string",
          "name": "_tokenURI",
          "type": "string"
        },
        {
          "internalType": "address",
          "name": "_toAddress",
          "type": "address"
        },
        {
          "internalType": "uint256",
          "name": "_price",
          "type": "uint256"
        }
      ],
      "name": "mint",
      "outputs": [
        {
          "internalType": "uint256",
          "name": "",
          "type": "uint256"
        }
      ],
      "stateMutability": "nonpayable",
      "type": "function"
    },
    {
      "inputs": [
        {
          "internalType": "address",
          "name": "tokenAddress",
          "type": "address"
        },
        {
          "internalType": "uint256",
          "name": "tokenId",
          "type": "uint256"
        },
        {
          "internalType": "uint256",
          "name": "askingPrice",
          "type": "uint256"
        }
      ],
      "name": "addItemToMarket",
      "outputs": [],
      "stateMutability": "nonpayable",
      "type": "function"
    },
    {
      "inputs": [
        {
          "internalType": "string[]",
          "name": "_tokenURI",
          "type": "string[]"
        },
        {
          "internalType": "address",
          "name": "_toAddress",
          "type": "address"
        },
        {
          "internalType": "uint256",
          "name": "_price",
          "type": "uint256"
        },
        {
          "internalType": "uint256",
          "name": "_amount",
          "type": "uint256"
        }
      ],
      "name": "batchDNMint",
      "outputs": [],
      "stateMutability": "nonpayable",
      "type": "function"
    },
    {
      "inputs": [
        {
          "internalType": "string",
          "name": "_tokenURI",
          "type": "string"
        },
        {
          "internalType": "address",
          "name": "_toAddress",
          "type": "address"
        },
        {
          "internalType": "uint256",
          "name": "_price",
          "type": "uint256"
        },
        {
          "internalType": "uint256",
          "name": "_amount",
          "type": "uint256"
        }
      ],
      "name": "batchSNMint",
      "outputs": [],
      "stateMutability": "nonpayable",
      "type": "function"
    },
    {
      "inputs": [
        {
          "internalType": "string",
          "name": "_baseTokenURI",
          "type": "string"
        },
        {
          "internalType": "address",
          "name": "_toAddress",
          "type": "address"
        },
        {
          "internalType": "uint256",
          "name": "_price",
          "type": "uint256"
        },
        {
          "internalType": "uint256",
          "name": "_amount",
          "type": "uint256"
        }
      ],
      "name": "batchIDMint",
      "outputs": [],
      "stateMutability": "nonpayable",
      "type": "function"
    },
    {
      "inputs": [
        {
          "internalType": "uint256",
          "name": "tokenId",
          "type": "uint256"
        }
      ],
      "name": "tokenURI",
      "outputs": [
        {
          "internalType": "string",
          "name": "",
          "type": "string"
        }
      ],
      "stateMutability": "view",
      "type": "function"
    },
    {
      "inputs": [
        {
          "internalType": "address",
          "name": "tokenAddress",
          "type": "address"
        },
        {
          "internalType": "uint256",
          "name": "_id",
          "type": "uint256"
        }
      ],
      "name": "buy",
      "outputs": [],
      "stateMutability": "payable",
      "type": "function"
    },
    {
      "inputs": [
        {
          "internalType": "address",
          "name": "tokenAddress",
          "type": "address"
        },
        {
          "internalType": "uint256",
          "name": "_tokenId",
          "type": "uint256"
        },
        {
          "internalType": "uint256",
          "name": "_price",
          "type": "uint256"
        }
      ],
      "name": "updatePrice",
      "outputs": [
        {
          "internalType": "bool",
          "name": "",
          "type": "bool"
        }
      ],
      "stateMutability": "nonpayable",
      "type": "function"
    },
    {
      "inputs": [
        {
          "internalType": "address",
          "name": "newFeeAddress",
          "type": "address"
        }
      ],
      "name": "updateFeeAddress",
      "outputs": [],
      "stateMutability": "nonpayable",
      "type": "function"
    },
    {
      "inputs": [
        {
          "internalType": "address",
          "name": "tokenAddress",
          "type": "address"
        },
        {
          "internalType": "uint256",
          "name": "_tokenId",
          "type": "uint256"
        }
      ],
      "name": "addBlackList",
      "outputs": [],
      "stateMutability": "nonpayable",
      "type": "function"
    },
    {
      "inputs": [
        {
          "internalType": "address",
          "name": "tokenAddress",
          "type": "address"
        },
        {
          "internalType": "uint256",
          "name": "_tokenId",
          "type": "uint256"
        }
      ],
      "name": "removeBlackList",
      "outputs": [],
      "stateMutability": "nonpayable",
      "type": "function"
    },
    {
      "inputs": [
        {
          "internalType": "address",
          "name": "charity",
          "type": "address"
        }
      ],
      "name": "addWhiteList",
      "outputs": [],
      "stateMutability": "nonpayable",
      "type": "function"
    },
    {
      "inputs": [
        {
          "internalType": "address",
          "name": "charity",
          "type": "address"
        }
      ],
      "name": "removeWhiteList",
      "outputs": [],
      "stateMutability": "nonpayable",
      "type": "function"
    },
    {
      "inputs": [
        {
          "internalType": "uint256",
          "name": "_fee",
          "type": "uint256"
        }
      ],
      "name": "updateFee",
      "outputs": [],
      "stateMutability": "nonpayable",
      "type": "function"
    },
    {
      "inputs": [
        {
          "internalType": "address",
          "name": "_token",
          "type": "address"
        },
        {
          "internalType": "uint256",
          "name": "_amount",
          "type": "uint256"
        }
      ],
      "name": "withdrawTokens",
      "outputs": [],
      "stateMutability": "nonpayable",
      "type": "function"
    },
    {
      "inputs": [],
      "name": "withdrawBNB",
      "outputs": [],
      "stateMutability": "nonpayable",
      "type": "function"
    }
  ],
  "bytecode": "0x60806040526019600b55600a600c553480156200001b57600080fd5b5060405162003cc738038062003cc78339810160408190526200003e916200022d565b6040805180820182526008815267139a58da1bd3919560c21b6020808301918252835180850190945260058452644e4943484f60d81b9084015281519192916200008b9160009162000187565b508051620000a190600190602084019062000187565b505050620000be620000b86200013160201b60201c565b62000135565b6001600160a01b0381166200010b5760405162461bcd60e51b815260206004820152600f60248201526e496e76616c6964206164647265737360881b604482015260640160405180910390fd5b600e80546001600160a01b0319166001600160a01b03929092169190911790556200029c565b3390565b600a80546001600160a01b038381166001600160a01b0319831681179093556040519116919082907f8be0079c531659141344cd1fd0a4f28419497f9722a3daafe3b4186f6b6457e090600090a35050565b82805462000195906200025f565b90600052602060002090601f016020900481019282620001b9576000855562000204565b82601f10620001d457805160ff191683800117855562000204565b8280016001018555821562000204579182015b8281111562000204578251825591602001919060010190620001e7565b506200021292915062000216565b5090565b5b8082111562000212576000815560010162000217565b6000602082840312156200024057600080fd5b81516001600160a01b03811681146200025857600080fd5b9392505050565b600181811c908216806200027457607f821691505b602082108114156200029657634e487b7160e01b600052602260045260246000fd5b50919050565b613a1b80620002ac6000396000f3fe6080604052600436106102465760003560e01c8063715018a611610139578063ad9b8024116100b6578063c87b56dd1161007a578063c87b56dd146106f6578063cce7ec1314610716578063e57d6fb714610729578063e7cd4a0414610749578063e985e9c514610769578063f2fde38b146107b257600080fd5b8063ad9b80241461062f578063b0aaedd514610667578063b88d4fde14610696578063bbcaac38146106b6578063c86f621c146106d657600080fd5b806396ce0795116100fd57806396ce07951461056e5780639b19251a14610584578063a22cb465146105b4578063a83a2162146105d4578063ab4284e6146105f457600080fd5b8063715018a6146104e65780637e8816b9146104fb5780638da5cb5b1461051b5780639012c4a81461053957806395d89b411461055957600080fd5b806323b872dd116101c75780634f6ccce71161018b5780634f6ccce7146104505780636352211e1461047057806364b6bad0146104905780636fb1eb0c146104b057806370a08231146104c657600080fd5b806323b872dd146103b057806324ef09ec146103d05780632f745c59146103f057806331ae19271461041057806342842e0e1461043057600080fd5b8063081812fc1161020e578063081812fc1461031c578063095ea7b31461033c57806318160ddd1461035c5780631d111d131461037b5780632042e5c21461039057600080fd5b80630135f7401461024b57806301ffc9a71461028857806306b091f9146102b857806306fdde03146102da5780630741ca56146102fc575b600080fd5b34801561025757600080fd5b50600e5461026b906001600160a01b031681565b6040516001600160a01b0390911681526020015b60405180910390f35b34801561029457600080fd5b506102a86102a336600461314f565b6107d2565b604051901515815260200161027f565b3480156102c457600080fd5b506102d86102d3366004613188565b6107fd565b005b3480156102e657600080fd5b506102ef61094d565b60405161027f919061320c565b34801561030857600080fd5b506102d861031736600461321f565b6109df565b34801561032857600080fd5b5061026b6103373660046132b5565b610aca565b34801561034857600080fd5b506102d8610357366004613188565b610b5f565b34801561036857600080fd5b506008545b60405190815260200161027f565b34801561038757600080fd5b506102d8610c70565b34801561039c57600080fd5b506102d86103ab3660046132ce565b610cc9565b3480156103bc57600080fd5b506102d86103cb3660046132eb565b610d78565b3480156103dc57600080fd5b506102d86103eb366004613188565b610da9565b3480156103fc57600080fd5b5061036d61040b366004613188565b610efb565b34801561041c57600080fd5b506102d861042b366004613188565b610f91565b34801561043c57600080fd5b506102d861044b3660046132eb565b61108a565b34801561045c57600080fd5b5061036d61046b3660046132b5565b6110a5565b34801561047c57600080fd5b5061026b61048b3660046132b5565b611138565b34801561049c57600080fd5b506102d86104ab3660046133f9565b6111af565b3480156104bc57600080fd5b5061036d600b5481565b3480156104d257600080fd5b5061036d6104e13660046132ce565b6111ff565b3480156104f257600080fd5b506102d8611286565b34801561050757600080fd5b5061036d610516366004613458565b6112bc565b34801561052757600080fd5b50600a546001600160a01b031661026b565b34801561054557600080fd5b506102d86105543660046132b5565b6113de565b34801561056557600080fd5b506102ef61144d565b34801561057a57600080fd5b5061036d600c5481565b34801561059057600080fd5b506102a861059f3660046132ce565b600f6020526000908152604090205460ff1681565b3480156105c057600080fd5b506102d86105cf3660046134af565b61145c565b3480156105e057600080fd5b506102d86105ef3660046134e8565b61146b565b34801561060057600080fd5b506102a861060f366004613188565b601060209081526000928352604080842090915290825290205460ff1681565b34801561063b57600080fd5b5061036d61064a366004613188565b601160209081526000928352604080842090915290825290205481565b34801561067357600080fd5b50610687610682366004613188565b6117db565b60405161027f9392919061351d565b3480156106a257600080fd5b506102d86106b1366004613550565b61189b565b3480156106c257600080fd5b506102d86106d13660046132ce565b6118d3565b3480156106e257600080fd5b506102d86106f13660046133f9565b6119e7565b34801561070257600080fd5b506102ef6107113660046132b5565b611a40565b6102d8610724366004613188565b611b6c565b34801561073557600080fd5b506102a86107443660046134e8565b611d3e565b34801561075557600080fd5b506102d86107643660046132ce565b611f11565b34801561077557600080fd5b506102a86107843660046135d0565b6001600160a01b03918216600090815260056020908152604080832093909416825291909152205460ff1690565b3480156107be57600080fd5b506102d86107cd3660046132ce565b611fbf565b60006001600160e01b0319821663780e9d6360e01b14806107f757506107f782612057565b92915050565b600a546001600160a01b031633146108305760405162461bcd60e51b8152600401610827906135fe565b60405180910390fd5b6040516370a0823160e01b815230600482015281906001600160a01b038416906370a0823190602401602060405180830381865afa158015610876573d6000803e3d6000fd5b505050506040513d601f19601f8201168201806040525081019061089a9190613633565b10156108d75760405162461bcd60e51b815260206004820152600c60248201526b15dc9bdb99c8185b5bdd5b9d60a21b6044820152606401610827565b60405163a9059cbb60e01b8152336004820152602481018290526001600160a01b0383169063a9059cbb906044016020604051808303816000875af1158015610924573d6000803e3d6000fd5b505050506040513d601f19601f82011682018060405250810190610948919061364c565b505050565b60606000805461095c90613669565b80601f016020809104026020016040519081016040528092919081815260200182805461098890613669565b80156109d55780601f106109aa576101008083540402835291602001916109d5565b820191906000526020600020905b8154815290600101906020018083116109b857829003601f168201915b5050505050905090565b600081116109ff5760405162461bcd60e51b8152600401610827906136a4565b838114610a3f5760405162461bcd60e51b815260206004820152600e60248201526d496e76616c696420706172616d7360901b6044820152606401610827565b60005b81811015610ac257610aaf868683818110610a5f57610a5f6136ca565b9050602002810190610a7191906136e0565b8080601f0160208091040260200160405190810160405280939291908181526020018383808284376000920191909152508892508791506112bc9050565b5080610aba81613744565b915050610a42565b505050505050565b6000818152600260205260408120546001600160a01b0316610b435760405162461bcd60e51b815260206004820152602c60248201527f4552433732313a20617070726f76656420717565727920666f72206e6f6e657860448201526b34b9ba32b73a103a37b5b2b760a11b6064820152608401610827565b506000908152600460205260409020546001600160a01b031690565b6000610b6a82611138565b9050806001600160a01b0316836001600160a01b03161415610bd85760405162461bcd60e51b815260206004820152602160248201527f4552433732313a20617070726f76616c20746f2063757272656e74206f776e656044820152603960f91b6064820152608401610827565b336001600160a01b0382161480610bf45750610bf48133610784565b610c665760405162461bcd60e51b815260206004820152603860248201527f4552433732313a20617070726f76652063616c6c6572206973206e6f74206f7760448201527f6e6572206e6f7220617070726f76656420666f7220616c6c00000000000000006064820152608401610827565b61094883836120a7565b600a546001600160a01b03163314610c9a5760405162461bcd60e51b8152600401610827906135fe565b60405133904780156108fc02916000818181858888f19350505050158015610cc6573d6000803e3d6000fd5b50565b600a546001600160a01b03163314610cf35760405162461bcd60e51b8152600401610827906135fe565b6001600160a01b0381166000908152600f602052604090205460ff161515600114610d575760405162461bcd60e51b8152602060048201526014602482015273105b1c9958591e481a5b881dda1a5d195b1a5cdd60621b6044820152606401610827565b6001600160a01b03166000908152600f60205260409020805460ff19169055565b610d823382612115565b610d9e5760405162461bcd60e51b81526004016108279061375f565b61094883838361220c565b600a546001600160a01b03163314610dd35760405162461bcd60e51b8152600401610827906135fe565b6001600160a01b038216600090815260106020908152604080832084845290915290205460ff1615610e3e5760405162461bcd60e51b8152602060048201526014602482015273105b1c9958591e481a5b88189b1858dadb1a5cdd60621b6044820152606401610827565b6001600160a01b03821660008181526010602090815260408083208584528252808320805460ff19166001179055805193845290830184905282015233907f8c9cdcf9504109331a81999a78241312dfd94e378f62b3555ca57baa2148d38b9060600160405180910390a2604080516001600160a01b0384168152602081018390526001918101919091527f87bc519a489deadc443d0a1198c204096dba7c1e6069d7cc29a2c22ab8af7dc9906060015b60405180910390a15050565b6000610f06836111ff565b8210610f685760405162461bcd60e51b815260206004820152602b60248201527f455243373231456e756d657261626c653a206f776e657220696e646578206f7560448201526a74206f6620626f756e647360a81b6064820152608401610827565b506001600160a01b03919091166000908152600660209081526040808320938352929052205490565b600a546001600160a01b03163314610fbb5760405162461bcd60e51b8152600401610827906135fe565b6001600160a01b038216600090815260106020908152604080832084845290915290205460ff166110275760405162461bcd60e51b8152602060048201526016602482015275139bdd08195e1a5cdd081a5b88189b1858dadb1a5cdd60521b6044820152606401610827565b6001600160a01b03821660008181526010602090815260408083208584528252808320805460ff1916905580519384529083018490528201527f87bc519a489deadc443d0a1198c204096dba7c1e6069d7cc29a2c22ab8af7dc990606001610eef565b6109488383836040518060200160405280600081525061189b565b60006110b060085490565b82106111135760405162461bcd60e51b815260206004820152602c60248201527f455243373231456e756d657261626c653a20676c6f62616c20696e646578206f60448201526b7574206f6620626f756e647360a01b6064820152608401610827565b60088281548110611126576111266136ca565b90600052602060002001549050919050565b6000818152600260205260408120546001600160a01b0316806107f75760405162461bcd60e51b815260206004820152602960248201527f4552433732313a206f776e657220717565727920666f72206e6f6e657869737460448201526832b73a103a37b5b2b760b91b6064820152608401610827565b600081116111cf5760405162461bcd60e51b8152600401610827906136a4565b60005b818110156111f8576111e58585856112bc565b50806111f081613744565b9150506111d2565b5050505050565b60006001600160a01b03821661126a5760405162461bcd60e51b815260206004820152602a60248201527f4552433732313a2062616c616e636520717565727920666f7220746865207a65604482015269726f206164647265737360b01b6064820152608401610827565b506001600160a01b031660009081526003602052604090205490565b600a546001600160a01b031633146112b05760405162461bcd60e51b8152600401610827906135fe565b6112ba60006123b3565b565b60006001600160a01b0383166113065760405162461bcd60e51b815260206004820152600f60248201526e496e76616c6964206164647265737360881b6044820152606401610827565b600061131160085490565b3060009081526011602090815260408083208484529091529020849055905061133a8482612405565b6113443082610b5f565b306000908152600d602090815260408083208484528252909120865190916113739160028401918901906130a0565b508181556001810180546001600160a01b0319166001600160a01b0387169081179091556040517f4c0225b1ba33fff19d4f9808cd8adabceb4fdc568de84a4cf106c11c1e97012a906113cd903090889087908c906137b0565b60405180910390a250949350505050565b600a546001600160a01b031633146114085760405162461bcd60e51b8152600401610827906135fe565b80600b5414156114485760405162461bcd60e51b815260206004820152600b60248201526a105b1c9958591e481cd95d60aa1b6044820152606401610827565b600b55565b60606001805461095c90613669565b61146733838361241f565b5050565b6001600160a01b038381166000908152600d6020908152604080832086845290915290206001015416156114e15760405162461bcd60e51b815260206004820152601760248201527f4974656d20697320616c72656164792075702073616c650000000000000000006044820152606401610827565b6040516331a9108f60e11b815260048101839052839033906001600160a01b03831690636352211e90602401602060405180830381865afa15801561152a573d6000803e3d6000fd5b505050506040513d601f19601f8201168201806040525081019061154e91906137e7565b6001600160a01b03161461159b5760405162461bcd60e51b8152602060048201526014602482015273139bdd081c9a59da1d081d1bc8185919081b999d60621b6044820152606401610827565b60405163020604bf60e21b81526004810184905230906001600160a01b0383169063081812fc90602401602060405180830381865afa1580156115e2573d6000803e3d6000fd5b505050506040513d601f19601f8201168201806040525081019061160691906137e7565b6001600160a01b03161461164a5760405162461bcd60e51b815260206004820152600b60248201526a105c1c1c9bdd994813919560aa1b6044820152606401610827565b6001600160a01b038481166000908152600d6020908152604080832087845290915290819020905163c87b56dd60e01b815260048101869052909183169063c87b56dd90602401600060405180830381865afa1580156116ae573d6000803e3d6000fd5b505050506040513d6000823e601f3d908101601f191682016040526116d69190810190613804565b80516116ec9160028401916020909101906130a0565b508381556001810180546001600160a01b031916339081179091556001600160a01b038681166000908152601160209081526040808320898452909152908190208690555163c87b56dd60e01b8152600481018790527f4c0225b1ba33fff19d4f9808cd8adabceb4fdc568de84a4cf106c11c1e97012a918891879189919088169063c87b56dd90602401600060405180830381865afa158015611794573d6000803e3d6000fd5b505050506040513d6000823e601f3d908101601f191682016040526117bc9190810190613804565b6040516117cc94939291906137b0565b60405180910390a25050505050565b600d60209081526000928352604080842090915290825290208054600182015460028301805492936001600160a01b039092169261181890613669565b80601f016020809104026020016040519081016040528092919081815260200182805461184490613669565b80156118915780601f1061186657610100808354040283529160200191611891565b820191906000526020600020905b81548152906001019060200180831161187457829003601f168201915b5050505050905083565b6118a53383612115565b6118c15760405162461bcd60e51b81526004016108279061375f565b6118cd848484846124ee565b50505050565b600a546001600160a01b031633146118fd5760405162461bcd60e51b8152600401610827906135fe565b600e546001600160a01b038281169116141561195b5760405162461bcd60e51b815260206004820152601860248201527f46656520616464726573733a20616c72656164792073657400000000000000006044820152606401610827565b6001600160a01b0381166119c55760405162461bcd60e51b815260206004820152602b60248201527f5a65726f2061646472657373206973206e6f7420616c6c6f77656420666f722060448201526a666565206164647265737360a81b6064820152608401610827565b600e80546001600160a01b0319166001600160a01b0392909216919091179055565b60008111611a075760405162461bcd60e51b8152600401610827906136a4565b60005b818110156111f8576000611a1e8683612521565b9050611a2b8186866112bc565b50508080611a3890613744565b915050611a0a565b6000818152600260205260409020546060906001600160a01b0316611abf5760405162461bcd60e51b815260206004820152602f60248201527f4552433732314d657461646174613a2055524920717565727920666f72206e6f60448201526e3732bc34b9ba32b73a103a37b5b2b760891b6064820152608401610827565b306000908152600d6020908152604080832085845290915290206002018054611ae790613669565b80601f0160208091040260200160405190810160405280929190818152602001828054611b1390613669565b8015611b605780601f10611b3557610100808354040283529160200191611b60565b820191906000526020600020905b815481529060010190602001808311611b4357829003601f168201915b50505050509050919050565b6001600160a01b03821660009081526010602090815260408083208484529091529020548290829060ff1615611bde5760405162461bcd60e51b8152602060048201526017602482015276151bdad95b9259081a5cc81a5b88189b1858dad31a5cdd604a1b6044820152606401610827565b611be88484612599565b6040516331a9108f60e11b81526004810184905284906000906001600160a01b03831690636352211e90602401602060405180830381865afa158015611c32573d6000803e3d6000fd5b505050506040513d601f19601f82011682018060405250810190611c5691906137e7565b905033611c638787612799565b6001600160a01b0387811660009081526011602090815260408083208a84529091529081902054905163c87b56dd60e01b81526004810189905283831692858116927f4f380540f42cc4540ea929061feab9ab8892df4820f713fbbe40794572e3b12f928c928c91908a169063c87b56dd90602401600060405180830381865afa158015611cf5573d6000803e3d6000fd5b505050506040513d6000823e601f3d908101601f19168201604052611d1d9190810190613804565b604051611d2d94939291906137b0565b60405180910390a350505050505050565b6001600160a01b03831660009081526010602090815260408083208584529091528120548490849060ff1615611db05760405162461bcd60e51b8152602060048201526017602482015276151bdad95b9259081a5cc81a5b88189b1858dad31a5cdd604a1b6044820152606401610827565b6001600160a01b0386166000818152601160209081526040808320898452909152908190205490516331a9108f60e11b81526004810188905290918891636352211e90602401602060405180830381865afa158015611e13573d6000803e3d6000fd5b505050506040513d601f19601f82011682018060405250810190611e3791906137e7565b6001600160a01b0316336001600160a01b031614611e975760405162461bcd60e51b815260206004820152601c60248201527f4572726f722c20796f7520617265206e6f7420746865206f776e6572000000006044820152606401610827565b6001600160a01b03881660008181526011602090815260408083208b84528252918290208990558151928352820184905281018790526060810188905233907feadf1668b2f8926f6538c3b24fceb72251daa320b74c8c36da738cce051c48c09060800160405180910390a2506001979650505050505050565b600a546001600160a01b03163314611f3b5760405162461bcd60e51b8152600401610827906135fe565b6001600160a01b0381166000908152600f602052604090205460ff1615611f9b5760405162461bcd60e51b8152602060048201526014602482015273105b1c9958591e481a5b881dda1a5d195b1a5cdd60621b6044820152606401610827565b6001600160a01b03166000908152600f60205260409020805460ff19166001179055565b600a546001600160a01b03163314611fe95760405162461bcd60e51b8152600401610827906135fe565b6001600160a01b03811661204e5760405162461bcd60e51b815260206004820152602660248201527f4f776e61626c653a206e6577206f776e657220697320746865207a65726f206160448201526564647265737360d01b6064820152608401610827565b610cc6816123b3565b60006001600160e01b031982166380ac58cd60e01b148061208857506001600160e01b03198216635b5e139f60e01b145b806107f757506301ffc9a760e01b6001600160e01b03198316146107f7565b600081815260046020526040902080546001600160a01b0319166001600160a01b03841690811790915581906120dc82611138565b6001600160a01b03167f8c5be1e5ebec7d5bd14f71427d1e84f3dd0314c0f7b2291e5b200ac8c7c3b92560405160405180910390a45050565b6000818152600260205260408120546001600160a01b031661218e5760405162461bcd60e51b815260206004820152602c60248201527f4552433732313a206f70657261746f7220717565727920666f72206e6f6e657860448201526b34b9ba32b73a103a37b5b2b760a11b6064820152608401610827565b600061219983611138565b9050806001600160a01b0316846001600160a01b031614806121d45750836001600160a01b03166121c984610aca565b6001600160a01b0316145b8061220457506001600160a01b0380821660009081526005602090815260408083209388168352929052205460ff165b949350505050565b826001600160a01b031661221f82611138565b6001600160a01b0316146122835760405162461bcd60e51b815260206004820152602560248201527f4552433732313a207472616e736665722066726f6d20696e636f72726563742060448201526437bbb732b960d91b6064820152608401610827565b6001600160a01b0382166122e55760405162461bcd60e51b8152602060048201526024808201527f4552433732313a207472616e7366657220746f20746865207a65726f206164646044820152637265737360e01b6064820152608401610827565b6122f0838383612adb565b6122fb6000826120a7565b6001600160a01b0383166000908152600360205260408120805460019290612324908490613872565b90915550506001600160a01b0382166000908152600360205260408120805460019290612352908490613889565b909155505060008181526002602052604080822080546001600160a01b0319166001600160a01b0386811691821790925591518493918716917fddf252ad1be2c89b69c2b068fc378daa952ba7f163c4a11628f55a4df523b3ef91a4505050565b600a80546001600160a01b038381166001600160a01b0319831681179093556040519116919082907f8be0079c531659141344cd1fd0a4f28419497f9722a3daafe3b4186f6b6457e090600090a35050565b611467828260405180602001604052806000815250612b93565b816001600160a01b0316836001600160a01b031614156124815760405162461bcd60e51b815260206004820152601960248201527f4552433732313a20617070726f766520746f2063616c6c6572000000000000006044820152606401610827565b6001600160a01b03838116600081815260056020908152604080832094871680845294825291829020805460ff191686151590811790915591519182527f17307eab39ab6107e8899845ad3d59bd9653f200f220920489ca2b5937696c31910160405180910390a3505050565b6124f984848461220c565b61250584848484612bc6565b6118cd5760405162461bcd60e51b8152600401610827906138a1565b606060008351116125675760405162461bcd60e51b815260206004820152601060248201526f496e76616c696420626173652055524960801b6044820152606401610827565b8261257183612cc4565b6040516020016125829291906138f3565b604051602081830303815290604052905092915050565b60405163020604bf60e21b815260048101829052829030906001600160a01b0383169063081812fc90602401602060405180830381865afa1580156125e2573d6000803e3d6000fd5b505050506040513d601f19601f8201168201806040525081019061260691906137e7565b6001600160a01b03161461265c5760405162461bcd60e51b815260206004820152601760248201527f4e6f7420617070726f7665642066726f6d206f776e65720000000000000000006044820152606401610827565b6001600160a01b03831660009081526011602090815260408083208584529091529020543410156126cf5760405162461bcd60e51b815260206004820152601a60248201527f4572726f722c2074686520616d6f756e74206973206c6f7765720000000000006044820152606401610827565b6040516331a9108f60e11b8152600481018390526001600160a01b03821690636352211e90602401602060405180830381865afa158015612714573d6000803e3d6000fd5b505050506040513d601f19601f8201168201806040525081019061273891906137e7565b6001600160a01b0316336001600160a01b031614156109485760405162461bcd60e51b815260206004820152601860248201527f43616e206e6f7420627579207768617420796f75206f776e00000000000000006044820152606401610827565b336000908152600f602052604081205483919060ff168061284257506040516331a9108f60e11b815260048101849052600f906000906001600160a01b03851690636352211e90602401602060405180830381865afa158015612800573d6000803e3d6000fd5b505050506040513d601f19601f8201168201806040525081019061282491906137e7565b6001600160a01b0316815260208101919091526040016000205460ff165b6040516331a9108f60e11b81526004810185905290915033906000906001600160a01b03851690636352211e90602401602060405180830381865afa15801561288f573d6000803e3d6000fd5b505050506040513d601f19601f820116820180604052508101906128b391906137e7565b90506001600160a01b0386163014156128d6576128d181838761220c565b61293f565b604051632142170760e11b81526001600160a01b038281166004830152336024830152604482018790528516906342842e0e90606401600060405180830381600087803b15801561292657600080fd5b505af115801561293a573d6000803e3d6000fd5b505050505b600c54600b546001600160a01b03881660009081526011602090815260408083208a84529091528120549092606492909161297a9190613922565b6129849190613957565b61298e9190613957565b9050831561299a575060005b6001600160a01b03871660009081526011602090815260408083208984529091528120546129c9908390613872565b6040519091506001600160a01b0384169082156108fc029083906000818181858888f19350505050158015612a02573d6000803e3d6000fd5b508115612a4557600e546040516001600160a01b039091169083156108fc029084906000818181858888f19350505050158015612a43573d6000803e3d6000fd5b505b6001600160a01b03881660009081526011602090815260408083208a8452909152902054341115612ad1576001600160a01b0388811660009081526011602090815260408083208b8452909152902054908516906108fc90612aa79034613872565b6040518115909202916000818181858888f19350505050158015612acf573d6000803e3d6000fd5b505b5050505050505050565b6001600160a01b038316612b3657612b3181600880546000838152600960205260408120829055600182018355919091527ff3f7a9fe364faab93b216da50a3214154f22a0a2b415b23a84c8169e8b636ee30155565b612b59565b816001600160a01b0316836001600160a01b031614612b5957612b598382612dc2565b6001600160a01b038216612b705761094881612e5f565b826001600160a01b0316826001600160a01b031614610948576109488282612f0e565b612b9d8383612f52565b612baa6000848484612bc6565b6109485760405162461bcd60e51b8152600401610827906138a1565b60006001600160a01b0384163b15612cb957604051630a85bd0160e11b81526001600160a01b0385169063150b7a0290612c0a90339089908890889060040161396b565b6020604051808303816000875af1925050508015612c45575060408051601f3d908101601f19168201909252612c429181019061399e565b60015b612c9f573d808015612c73576040519150601f19603f3d011682016040523d82523d6000602084013e612c78565b606091505b508051612c975760405162461bcd60e51b8152600401610827906138a1565b805181602001fd5b6001600160e01b031916630a85bd0160e11b149050612204565b506001949350505050565b606081612ce85750506040805180820190915260018152600360fc1b602082015290565b8160005b8115612d125780612cfc81613744565b9150612d0b9050600a83613957565b9150612cec565b60008167ffffffffffffffff811115612d2d57612d2d61332c565b6040519080825280601f01601f191660200182016040528015612d57576020820181803683370190505b5090505b841561220457612d6c600183613872565b9150612d79600a866139bb565b612d84906030613889565b60f81b818381518110612d9957612d996136ca565b60200101906001600160f81b031916908160001a905350612dbb600a86613957565b9450612d5b565b60006001612dcf846111ff565b612dd99190613872565b600083815260076020526040902054909150808214612e2c576001600160a01b03841660009081526006602090815260408083208584528252808320548484528184208190558352600790915290208190555b5060009182526007602090815260408084208490556001600160a01b039094168352600681528383209183525290812055565b600854600090612e7190600190613872565b60008381526009602052604081205460088054939450909284908110612e9957612e996136ca565b906000526020600020015490508060088381548110612eba57612eba6136ca565b6000918252602080832090910192909255828152600990915260408082208490558582528120556008805480612ef257612ef26139cf565b6001900381819060005260206000200160009055905550505050565b6000612f19836111ff565b6001600160a01b039093166000908152600660209081526040808320868452825280832085905593825260079052919091209190915550565b6001600160a01b038216612fa85760405162461bcd60e51b815260206004820181905260248201527f4552433732313a206d696e7420746f20746865207a65726f20616464726573736044820152606401610827565b6000818152600260205260409020546001600160a01b03161561300d5760405162461bcd60e51b815260206004820152601c60248201527f4552433732313a20746f6b656e20616c7265616479206d696e746564000000006044820152606401610827565b61301960008383612adb565b6001600160a01b0382166000908152600360205260408120805460019290613042908490613889565b909155505060008181526002602052604080822080546001600160a01b0319166001600160a01b03861690811790915590518392907fddf252ad1be2c89b69c2b068fc378daa952ba7f163c4a11628f55a4df523b3ef908290a45050565b8280546130ac90613669565b90600052602060002090601f0160209004810192826130ce5760008555613114565b82601f106130e757805160ff1916838001178555613114565b82800160010185558215613114579182015b828111156131145782518255916020019190600101906130f9565b50613120929150613124565b5090565b5b808211156131205760008155600101613125565b6001600160e01b031981168114610cc657600080fd5b60006020828403121561316157600080fd5b813561316c81613139565b9392505050565b6001600160a01b0381168114610cc657600080fd5b6000806040838503121561319b57600080fd5b82356131a681613173565b946020939093013593505050565b60005b838110156131cf5781810151838201526020016131b7565b838111156118cd5750506000910152565b600081518084526131f88160208601602086016131b4565b601f01601f19169290920160200192915050565b60208152600061316c60208301846131e0565b60008060008060006080868803121561323757600080fd5b853567ffffffffffffffff8082111561324f57600080fd5b818801915088601f83011261326357600080fd5b81358181111561327257600080fd5b8960208260051b850101111561328757600080fd5b6020928301975095505086013561329d81613173565b94979396509394604081013594506060013592915050565b6000602082840312156132c757600080fd5b5035919050565b6000602082840312156132e057600080fd5b813561316c81613173565b60008060006060848603121561330057600080fd5b833561330b81613173565b9250602084013561331b81613173565b929592945050506040919091013590565b634e487b7160e01b600052604160045260246000fd5b604051601f8201601f1916810167ffffffffffffffff8111828210171561336b5761336b61332c565b604052919050565b600067ffffffffffffffff82111561338d5761338d61332c565b50601f01601f191660200190565b60006133ae6133a984613373565b613342565b90508281528383830111156133c257600080fd5b828260208301376000602084830101529392505050565b600082601f8301126133ea57600080fd5b61316c8383356020850161339b565b6000806000806080858703121561340f57600080fd5b843567ffffffffffffffff81111561342657600080fd5b613432878288016133d9565b945050602085013561344381613173565b93969395505050506040820135916060013590565b60008060006060848603121561346d57600080fd5b833567ffffffffffffffff81111561348457600080fd5b613490868287016133d9565b935050602084013561331b81613173565b8015158114610cc657600080fd5b600080604083850312156134c257600080fd5b82356134cd81613173565b915060208301356134dd816134a1565b809150509250929050565b6000806000606084860312156134fd57600080fd5b833561350881613173565b95602085013595506040909401359392505050565b8381526001600160a01b0383166020820152606060408201819052600090613547908301846131e0565b95945050505050565b6000806000806080858703121561356657600080fd5b843561357181613173565b9350602085013561358181613173565b925060408501359150606085013567ffffffffffffffff8111156135a457600080fd5b8501601f810187136135b557600080fd5b6135c48782356020840161339b565b91505092959194509250565b600080604083850312156135e357600080fd5b82356135ee81613173565b915060208301356134dd81613173565b6020808252818101527f4f776e61626c653a2063616c6c6572206973206e6f7420746865206f776e6572604082015260600190565b60006020828403121561364557600080fd5b5051919050565b60006020828403121561365e57600080fd5b815161316c816134a1565b600181811c9082168061367d57607f821691505b6020821081141561369e57634e487b7160e01b600052602260045260246000fd5b50919050565b6020808252600c908201526b1ddc9bdb99c8185b5bdd5b9d60a21b604082015260600190565b634e487b7160e01b600052603260045260246000fd5b6000808335601e198436030181126136f757600080fd5b83018035915067ffffffffffffffff82111561371257600080fd5b60200191503681900382131561372757600080fd5b9250929050565b634e487b7160e01b600052601160045260246000fd5b60006000198214156137585761375861372e565b5060010190565b60208082526031908201527f4552433732313a207472616e736665722063616c6c6572206973206e6f74206f6040820152701ddb995c881b9bdc88185c1c1c9bdd9959607a1b606082015260800190565b60018060a01b03851681528360208201528260408201526080606082015260006137dd60808301846131e0565b9695505050505050565b6000602082840312156137f957600080fd5b815161316c81613173565b60006020828403121561381657600080fd5b815167ffffffffffffffff81111561382d57600080fd5b8201601f8101841361383e57600080fd5b805161384c6133a982613373565b81815285602083850101111561386157600080fd5b6135478260208301602086016131b4565b6000828210156138845761388461372e565b500390565b6000821982111561389c5761389c61372e565b500190565b60208082526032908201527f4552433732313a207472616e7366657220746f206e6f6e20455243373231526560408201527131b2b4bb32b91034b6b83632b6b2b73a32b960711b606082015260800190565b600083516139058184602088016131b4565b8351908301906139198183602088016131b4565b01949350505050565b600081600019048311821515161561393c5761393c61372e565b500290565b634e487b7160e01b600052601260045260246000fd5b60008261396657613966613941565b500490565b6001600160a01b03858116825284166020820152604081018390526080606082018190526000906137dd908301846131e0565b6000602082840312156139b057600080fd5b815161316c81613139565b6000826139ca576139ca613941565b500690565b634e487b7160e01b600052603160045260246000fdfea2646970667358221220f23743c68a2d2e6693273bcdbe8f9b0691834fea2123779ad499045453f4545564736f6c634300080b0033",
  "immutableReferences": {},
  "source": "/**\r\n * Submitted for verification at BscScan.com on 2022-04-2\r\n */\r\n\r\n// File: contracts/NichoNFT.sol\r\n// SPDX-License-Identifier: MIT\r\n\r\npragma solidity >=0.6.0 <0.9.0;\r\n\r\nimport \"@openzeppelin/contracts/access/Ownable.sol\";\r\nimport \"@openzeppelin/contracts/token/ERC20/IERC20.sol\";\r\nimport \"@openzeppelin/contracts/token/ERC721/extensions/ERC721Enumerable.sol\";\r\nimport \"@openzeppelin/contracts/utils/Strings.sol\";\r\n\r\nimport \"./interfaces/IOERC721.sol\";\r\n\r\ncontract NichoNFT is ERC721Enumerable, Ownable {\r\n    using Strings for uint256;\r\n\r\n    // CommissionFee percent is 2.5%\r\n    uint256 public commissionFee = 25;\r\n    uint256 public denominator = 10;\r\n\r\n    struct Item {\r\n        uint256 id;\r\n        address creater;\r\n        string uri;\r\n    }\r\n    // token address => tokenId => item\r\n    mapping (address => mapping(uint256 => Item)) public Items;\r\n\r\n    address payable public _feeAddress;\r\n    // user wallet => inBlackList  for charity\r\n    mapping (address => bool) public whitelist;\r\n\r\n    // token address => tokenId => inBlackList\r\n    mapping (address => mapping(uint =>  bool)) public blackList;\r\n    // token address => tokenId => price\r\n    mapping (address => mapping (uint => uint)) public price;\r\n\r\n    event Purchase(address tokenAddress, address indexed previousOwner, address indexed newOwner, uint price, uint nftID, string uri);\r\n\r\n    event Added(address indexed minter, address tokenAddress, uint price, uint nftID, string uri);\r\n\r\n    event PriceUpdate(address tokenAddress, address indexed owner, uint oldPrice, uint newPrice, uint nftID);\r\n\r\n    event UpdateListStatus(address tokenAddress, address indexed owner, uint nftID, bool isListed);\r\n\r\n    event UpdateBlackList(address tokenAddress, uint256 nftID, bool isBlackList);\r\n\r\n    constructor(address _owner) ERC721(\"NichoNFT\", \"NICHO\") {\r\n        require(_owner != address(0x0), \"Invalid address\");\r\n        _feeAddress = payable(_owner);\r\n    }\r\n\r\n    modifier notBlackList(address tokenAddress, uint256 _tokenId) {\r\n        require(blackList[tokenAddress][_tokenId] == false, \"TokenId is in blackList\");\r\n        _;\r\n    }\r\n\r\n    // Create item\r\n    function mint(string memory _tokenURI, address _toAddress, uint _price) public returns (uint) {\r\n        require(_toAddress != address(0x0), \"Invalid address\");\r\n\r\n        uint _tokenId = totalSupply(); \r\n        price[address(this)][_tokenId] = _price;\r\n\r\n        _safeMint(_toAddress, _tokenId);\r\n        \r\n        approve(address(this), _tokenId);\r\n        \r\n        Item storage item = Items[address(this)][_tokenId];\r\n        item.uri = _tokenURI;\r\n        item.id = _tokenId;\r\n        item.creater = _toAddress;\r\n\r\n        emit Added(_toAddress, address(this), _price, _tokenId, _tokenURI);\r\n\r\n        return _tokenId;\r\n    }\r\n\r\n    function addItemToMarket(address tokenAddress, uint256 tokenId, uint256 askingPrice) external {\r\n        require(Items[tokenAddress][tokenId].creater == address(0), \"Item is already up sale\");\r\n\r\n        IOERC721 tokenContract = IOERC721(tokenAddress);\r\n        require(tokenContract.ownerOf(tokenId) == msg.sender, \"Not right to add nft\");\r\n        require(tokenContract.getApproved(tokenId) == address(this), \"Approve NFT\");\r\n\r\n        Item storage item = Items[tokenAddress][tokenId];\r\n        item.uri = tokenContract.tokenURI(tokenId);\r\n        item.id = tokenId;\r\n        item.creater = msg.sender;\r\n\r\n        price[tokenAddress][tokenId] = askingPrice;\r\n\r\n        emit Added(msg.sender, tokenAddress, askingPrice, tokenId, tokenContract.tokenURI(tokenId));\r\n    }\r\n\r\n    // Batch creation same images and different names\r\n    function batchDNMint(string[] calldata _tokenURI, address _toAddress, uint _price, uint _amount) external {\r\n        require(_amount > 0, \"wrong amount\");\r\n        require(_tokenURI.length == _amount, \"Invalid params\");\r\n\r\n        for(uint idx = 0; idx < _amount; idx++) {\r\n            mint(_tokenURI[idx], _toAddress, _price);\r\n        }\r\n    }\r\n\r\n    // Batch option with same name and images\r\n    function batchSNMint(string memory _tokenURI, address _toAddress, uint _price, uint _amount) external {\r\n        require(_amount > 0, \"wrong amount\");\r\n\r\n        for(uint idx = 0; idx < _amount; idx++) {\r\n            mint(_tokenURI, _toAddress, _price);\r\n        }\r\n    }\r\n\r\n    // Batch option with different images and increased nftID\r\n    function batchIDMint(string memory _baseTokenURI, address _toAddress, uint _price, uint _amount) external {\r\n        require(_amount > 0, \"wrong amount\");\r\n\r\n        for(uint idx = 0; idx < _amount; idx++) {\r\n            string memory _tokenURI = getTokenURIWithID(_baseTokenURI, idx);\r\n            mint(_tokenURI, _toAddress, _price);\r\n        }\r\n    }\r\n\r\n    function getTokenURIWithID(string memory _baseTokenURI, uint nftID) private pure returns(string memory) {\r\n        require(bytes(_baseTokenURI).length > 0, \"Invalid base URI\");\r\n\r\n        return string(abi.encodePacked(_baseTokenURI, nftID.toString()));\r\n    }\r\n\r\n    function tokenURI(uint256 tokenId) public view  override returns (string memory) {\r\n        require(_exists(tokenId), \"ERC721Metadata: URI query for nonexistent token\");\r\n\r\n        return Items[address(this)][tokenId].uri;\r\n    }\r\n\r\n    // TokenId\r\n    function buy(address tokenAddress, uint _id) notBlackList(tokenAddress, _id) external payable {\r\n        _validate(tokenAddress, _id);\r\n        IOERC721 tokenContract = IOERC721(tokenAddress);\r\n\r\n        address _previousOwner = tokenContract.ownerOf(_id);\r\n        address _newOwner = msg.sender;\r\n\r\n        _trade(tokenAddress, _id);\r\n\r\n        emit Purchase(tokenAddress, _previousOwner, _newOwner, price[tokenAddress][_id], _id, tokenContract.tokenURI(_id));\r\n    }\r\n\r\n    function _validate(address tokenAddress, uint _id) internal {\r\n        IOERC721 tokenContract = IOERC721(tokenAddress);\r\n        require(tokenContract.getApproved(_id) == address(this), \"Not approved from owner\");\r\n        require(msg.value >= price[tokenAddress][_id], \"Error, the amount is lower\");\r\n        require(msg.sender != tokenContract.ownerOf(_id), \"Can not buy what you own\");\r\n    }\r\n\r\n    function _trade(address tokenAddress, uint _id) internal {\r\n        IOERC721 tokenContract = IOERC721(tokenAddress);\r\n        \r\n        bool isInWhiteList = whitelist[msg.sender] || whitelist[tokenContract.ownerOf(_id)];\r\n\r\n        address payable _buyer = payable(msg.sender);\r\n        address payable _owner = payable(tokenContract.ownerOf(_id));\r\n\r\n        if (tokenAddress == address(this)) _transfer(_owner, _buyer, _id);\r\n        else tokenContract.safeTransferFrom(_owner, msg.sender, _id);\r\n\r\n        // commission cut\r\n        uint _commissionValue = price[tokenAddress][_id] * commissionFee / denominator / 100 ;\r\n\r\n        if (isInWhiteList) _commissionValue = 0;\r\n\r\n        uint _sellerValue = price[tokenAddress][_id] - _commissionValue;\r\n\r\n        _owner.transfer(_sellerValue);\r\n\r\n        if (_commissionValue > 0) {\r\n            _feeAddress.transfer(_commissionValue);\r\n        }\r\n\r\n        // If buyer sent more than price, we send them back their rest of funds\r\n        if (msg.value > price[tokenAddress][_id]) {\r\n            _buyer.transfer(msg.value - price[tokenAddress][_id]);\r\n        }\r\n    }\r\n\r\n    // Update owner's NFT price\r\n    function updatePrice(address tokenAddress, uint _tokenId, uint _price) notBlackList(tokenAddress, _tokenId) public returns (bool) {\r\n        // Item memory item = Items[tokenAddress][_tokenId];\r\n        // require(item.id == _tokenId, \"Not added into market\");\r\n        uint oldPrice = price[tokenAddress][_tokenId];\r\n        IOERC721 tokenContract = IOERC721(tokenAddress);\r\n        \r\n        // require(oldPrice != _price, \"This price already set\");\r\n        require(msg.sender == tokenContract.ownerOf(_tokenId), \"Error, you are not the owner\");\r\n        price[tokenAddress][_tokenId] = _price;\r\n\r\n        emit PriceUpdate(tokenAddress, msg.sender, oldPrice, _price, _tokenId);\r\n        return true;\r\n    }\r\n\r\n    // Update the fee address\r\n    function updateFeeAddress(address newFeeAddress) external onlyOwner {\r\n        require(_feeAddress != newFeeAddress, \"Fee address: already set\");\r\n        require(newFeeAddress != address(0x0), \"Zero address is not allowed for fee address\");\r\n\r\n        _feeAddress = payable(newFeeAddress);\r\n    }\r\n\r\n    // BlackList\r\n    function addBlackList(address tokenAddress, uint256 _tokenId) external onlyOwner {\r\n        require(blackList[tokenAddress][_tokenId] == false, \"Already in blacklist\");\r\n        blackList[tokenAddress][_tokenId] = true;\r\n\r\n        emit UpdateListStatus(tokenAddress, msg.sender, _tokenId, false);\r\n        emit UpdateBlackList(tokenAddress, _tokenId, true);\r\n    }\r\n\r\n    function removeBlackList(address tokenAddress, uint256 _tokenId) external onlyOwner {\r\n        require(blackList[tokenAddress][_tokenId], \"Not exist in blacklist\");\r\n\r\n        blackList[tokenAddress][_tokenId] = false;\r\n\r\n        emit UpdateBlackList(tokenAddress, _tokenId, false);\r\n    }\r\n\r\n    // WhiteList\r\n    function addWhiteList(address charity) external onlyOwner {\r\n        require(whitelist[charity] == false, \"Already in whitelist\");\r\n        whitelist[charity] = true;\r\n    }\r\n\r\n    function removeWhiteList(address charity) external onlyOwner {\r\n        require(whitelist[charity] == true, \"Already in whitelist\");\r\n        whitelist[charity] = false;\r\n    }\r\n\r\n    \r\n    function updateFee(uint256 _fee) external onlyOwner {\r\n        require(commissionFee != _fee, \"Already set\");\r\n        commissionFee = _fee;\r\n    }\r\n\r\n\r\n    // Withdraw ERC20 tokens\r\n    // For unusual case, if customers sent their any ERC20 tokens into marketplace, we need to send it back to them\r\n    function withdrawTokens(address _token, uint256 _amount) external onlyOwner {\r\n        require(IERC20(_token).balanceOf(address(this)) >= _amount, \"Wrong amount\");\r\n\r\n        IERC20(_token).transfer(msg.sender, _amount);\r\n    }\r\n    // For unusual case,\r\n    function withdrawBNB() external onlyOwner {\r\n        payable(msg.sender).transfer(address(this).balance);\r\n    }\r\n}",
  "sourcePath": "F:\\workBlockchain\\project\\2022-GogglesNFT\\contacts\\newcontract\\contracts\\NichoNFT.sol",
  "compiler": {
    "name": "solc",
    "version": "0.8.11+commit.d7f03943.Emscripten.clang"
  },
  "schemaVersion": "3.4.7",
  "updatedAt": "2022-05-24T05:30:19.312Z",
  "devdoc": {
    "kind": "dev",
    "methods": {
      "approve(address,uint256)": {
        "details": "See {IERC721-approve}."
      },
      "balanceOf(address)": {
        "details": "See {IERC721-balanceOf}."
      },
      "getApproved(uint256)": {
        "details": "See {IERC721-getApproved}."
      },
      "isApprovedForAll(address,address)": {
        "details": "See {IERC721-isApprovedForAll}."
      },
      "name()": {
        "details": "See {IERC721Metadata-name}."
      },
      "owner()": {
        "details": "Returns the address of the current owner."
      },
      "ownerOf(uint256)": {
        "details": "See {IERC721-ownerOf}."
      },
      "renounceOwnership()": {
        "details": "Leaves the contract without owner. It will not be possible to call `onlyOwner` functions anymore. Can only be called by the current owner. NOTE: Renouncing ownership will leave the contract without an owner, thereby removing any functionality that is only available to the owner."
      },
      "safeTransferFrom(address,address,uint256)": {
        "details": "See {IERC721-safeTransferFrom}."
      },
      "safeTransferFrom(address,address,uint256,bytes)": {
        "details": "See {IERC721-safeTransferFrom}."
      },
      "setApprovalForAll(address,bool)": {
        "details": "See {IERC721-setApprovalForAll}."
      },
      "supportsInterface(bytes4)": {
        "details": "See {IERC165-supportsInterface}."
      },
      "symbol()": {
        "details": "See {IERC721Metadata-symbol}."
      },
      "tokenByIndex(uint256)": {
        "details": "See {IERC721Enumerable-tokenByIndex}."
      },
      "tokenOfOwnerByIndex(address,uint256)": {
        "details": "See {IERC721Enumerable-tokenOfOwnerByIndex}."
      },
      "tokenURI(uint256)": {
        "details": "See {IERC721Metadata-tokenURI}."
      },
      "totalSupply()": {
        "details": "See {IERC721Enumerable-totalSupply}."
      },
      "transferFrom(address,address,uint256)": {
        "details": "See {IERC721-transferFrom}."
      },
      "transferOwnership(address)": {
        "details": "Transfers ownership of the contract to a new account (`newOwner`). Can only be called by the current owner."
      }
    },
    "version": 1
  },
  "userdoc": {
    "kind": "user",
    "methods": {},
    "version": 1
  }
}