{
  "contractName": "NichoAuction",
  "abi": [
    {
      "inputs": [
        {
          "internalType": "address",
          "name": "_nichoNFT",
          "type": "address"
        }
      ],
      "stateMutability": "nonpayable",
      "type": "constructor"
    },
    {
      "anonymous": false,
      "inputs": [
        {
          "indexed": false,
          "internalType": "uint256",
          "name": "auctionId",
          "type": "uint256"
        },
        {
          "indexed": false,
          "internalType": "address",
          "name": "tokenAddress",
          "type": "address"
        },
        {
          "indexed": false,
          "internalType": "uint256",
          "name": "tokenId",
          "type": "uint256"
        },
        {
          "indexed": false,
          "internalType": "string",
          "name": "uri",
          "type": "string"
        },
        {
          "indexed": false,
          "internalType": "uint256",
          "name": "price",
          "type": "uint256"
        },
        {
          "indexed": false,
          "internalType": "address",
          "name": "creator",
          "type": "address"
        },
        {
          "indexed": false,
          "internalType": "uint256",
          "name": "deadline",
          "type": "uint256"
        }
      ],
      "name": "AddItem",
      "type": "event"
    },
    {
      "anonymous": false,
      "inputs": [
        {
          "indexed": false,
          "internalType": "uint256",
          "name": "auctionId",
          "type": "uint256"
        },
        {
          "indexed": false,
          "internalType": "uint256",
          "name": "bidderId",
          "type": "uint256"
        },
        {
          "indexed": false,
          "internalType": "address",
          "name": "bidCreator",
          "type": "address"
        }
      ],
      "name": "CancelBid",
      "type": "event"
    },
    {
      "anonymous": false,
      "inputs": [
        {
          "indexed": false,
          "internalType": "uint256",
          "name": "auctionId",
          "type": "uint256"
        }
      ],
      "name": "ItemCancel",
      "type": "event"
    },
    {
      "anonymous": false,
      "inputs": [
        {
          "indexed": false,
          "internalType": "address",
          "name": "tokenAddress",
          "type": "address"
        },
        {
          "indexed": false,
          "internalType": "uint256",
          "name": "tokenId",
          "type": "uint256"
        },
        {
          "indexed": false,
          "internalType": "address",
          "name": "creator",
          "type": "address"
        }
      ],
      "name": "OfferCancel",
      "type": "event"
    },
    {
      "anonymous": false,
      "inputs": [
        {
          "indexed": false,
          "internalType": "address",
          "name": "tokenAddress",
          "type": "address"
        },
        {
          "indexed": false,
          "internalType": "uint256",
          "name": "tokenId",
          "type": "uint256"
        },
        {
          "indexed": false,
          "internalType": "address",
          "name": "creator",
          "type": "address"
        },
        {
          "indexed": false,
          "internalType": "uint256",
          "name": "offerPrice",
          "type": "uint256"
        },
        {
          "indexed": false,
          "internalType": "string",
          "name": "uri",
          "type": "string"
        },
        {
          "indexed": false,
          "internalType": "uint256",
          "name": "deadline",
          "type": "uint256"
        }
      ],
      "name": "OfferCreated",
      "type": "event"
    },
    {
      "anonymous": false,
      "inputs": [
        {
          "indexed": false,
          "internalType": "address",
          "name": "tokenAddress",
          "type": "address"
        },
        {
          "indexed": false,
          "internalType": "uint256",
          "name": "tokenId",
          "type": "uint256"
        },
        {
          "indexed": false,
          "internalType": "address",
          "name": "seller",
          "type": "address"
        },
        {
          "indexed": false,
          "internalType": "address",
          "name": "buyer",
          "type": "address"
        },
        {
          "indexed": false,
          "internalType": "uint256",
          "name": "offerPrice",
          "type": "uint256"
        }
      ],
      "name": "OfferSoldOut",
      "type": "event"
    },
    {
      "anonymous": false,
      "inputs": [
        {
          "indexed": true,
          "internalType": "address",
          "name": "previousOwner",
          "type": "address"
        },
        {
          "indexed": true,
          "internalType": "address",
          "name": "newOwner",
          "type": "address"
        }
      ],
      "name": "OwnershipTransferred",
      "type": "event"
    },
    {
      "anonymous": false,
      "inputs": [
        {
          "indexed": false,
          "internalType": "uint256",
          "name": "auctionId",
          "type": "uint256"
        },
        {
          "indexed": false,
          "internalType": "address",
          "name": "bidder",
          "type": "address"
        },
        {
          "indexed": false,
          "internalType": "uint256",
          "name": "bidPrice",
          "type": "uint256"
        },
        {
          "indexed": false,
          "internalType": "address",
          "name": "tokenAddress",
          "type": "address"
        },
        {
          "indexed": false,
          "internalType": "uint256",
          "name": "tokenId",
          "type": "uint256"
        },
        {
          "indexed": false,
          "internalType": "uint256",
          "name": "bidderId",
          "type": "uint256"
        }
      ],
      "name": "PlacedBid",
      "type": "event"
    },
    {
      "anonymous": false,
      "inputs": [
        {
          "indexed": false,
          "internalType": "uint256",
          "name": "auctionId",
          "type": "uint256"
        },
        {
          "indexed": false,
          "internalType": "uint256",
          "name": "soldPrice",
          "type": "uint256"
        },
        {
          "indexed": false,
          "internalType": "address",
          "name": "seller",
          "type": "address"
        },
        {
          "indexed": false,
          "internalType": "address",
          "name": "winner",
          "type": "address"
        }
      ],
      "name": "SoldOut",
      "type": "event"
    },
    {
      "inputs": [],
      "name": "NichoNFT",
      "outputs": [
        {
          "internalType": "contract INichoNFT",
          "name": "",
          "type": "address"
        }
      ],
      "stateMutability": "view",
      "type": "function",
      "constant": true
    },
    {
      "inputs": [],
      "name": "auctionCounter",
      "outputs": [
        {
          "internalType": "uint256",
          "name": "",
          "type": "uint256"
        }
      ],
      "stateMutability": "view",
      "type": "function",
      "constant": true
    },
    {
      "inputs": [
        {
          "internalType": "uint256",
          "name": "",
          "type": "uint256"
        }
      ],
      "name": "items",
      "outputs": [
        {
          "internalType": "address",
          "name": "creator",
          "type": "address"
        },
        {
          "internalType": "address",
          "name": "tokenAddress",
          "type": "address"
        },
        {
          "internalType": "uint256",
          "name": "tokenId",
          "type": "uint256"
        },
        {
          "internalType": "string",
          "name": "uri",
          "type": "string"
        },
        {
          "internalType": "uint256",
          "name": "highPrice",
          "type": "uint256"
        },
        {
          "internalType": "uint256",
          "name": "deadline",
          "type": "uint256"
        },
        {
          "internalType": "uint256",
          "name": "createdTs",
          "type": "uint256"
        },
        {
          "internalType": "bool",
          "name": "exists",
          "type": "bool"
        }
      ],
      "stateMutability": "view",
      "type": "function",
      "constant": true
    },
    {
      "inputs": [
        {
          "internalType": "address",
          "name": "",
          "type": "address"
        },
        {
          "internalType": "uint256",
          "name": "",
          "type": "uint256"
        },
        {
          "internalType": "address",
          "name": "",
          "type": "address"
        }
      ],
      "name": "offerItems",
      "outputs": [
        {
          "internalType": "address",
          "name": "creator",
          "type": "address"
        },
        {
          "internalType": "uint256",
          "name": "price",
          "type": "uint256"
        },
        {
          "internalType": "uint256",
          "name": "expireTs",
          "type": "uint256"
        },
        {
          "internalType": "uint256",
          "name": "createdAt",
          "type": "uint256"
        },
        {
          "internalType": "bool",
          "name": "isCancel",
          "type": "bool"
        }
      ],
      "stateMutability": "view",
      "type": "function",
      "constant": true
    },
    {
      "inputs": [],
      "name": "owner",
      "outputs": [
        {
          "internalType": "address",
          "name": "",
          "type": "address"
        }
      ],
      "stateMutability": "view",
      "type": "function",
      "constant": true
    },
    {
      "inputs": [],
      "name": "renounceOwnership",
      "outputs": [],
      "stateMutability": "nonpayable",
      "type": "function"
    },
    {
      "inputs": [
        {
          "internalType": "address",
          "name": "",
          "type": "address"
        },
        {
          "internalType": "uint256",
          "name": "",
          "type": "uint256"
        }
      ],
      "name": "tokenIdToAuctionId",
      "outputs": [
        {
          "internalType": "uint256",
          "name": "",
          "type": "uint256"
        }
      ],
      "stateMutability": "view",
      "type": "function",
      "constant": true
    },
    {
      "inputs": [
        {
          "internalType": "address",
          "name": "newOwner",
          "type": "address"
        }
      ],
      "name": "transferOwnership",
      "outputs": [],
      "stateMutability": "nonpayable",
      "type": "function"
    },
    {
      "stateMutability": "payable",
      "type": "receive",
      "payable": true
    },
    {
      "inputs": [
        {
          "components": [
            {
              "internalType": "address",
              "name": "tokenAddress",
              "type": "address"
            },
            {
              "internalType": "uint256",
              "name": "tokenId",
              "type": "uint256"
            },
            {
              "internalType": "uint256",
              "name": "desiredMinPrice",
              "type": "uint256"
            },
            {
              "internalType": "uint256",
              "name": "deadline",
              "type": "uint256"
            }
          ],
          "internalType": "struct NichoAuction.ItemParam",
          "name": "itemParam",
          "type": "tuple"
        }
      ],
      "name": "addAuctionItem",
      "outputs": [],
      "stateMutability": "nonpayable",
      "type": "function"
    },
    {
      "inputs": [
        {
          "internalType": "uint256",
          "name": "auctionId",
          "type": "uint256"
        }
      ],
      "name": "cancelAuctionItem",
      "outputs": [],
      "stateMutability": "nonpayable",
      "type": "function"
    },
    {
      "inputs": [
        {
          "internalType": "uint256",
          "name": "auctionId",
          "type": "uint256"
        }
      ],
      "name": "placeBid",
      "outputs": [],
      "stateMutability": "payable",
      "type": "function",
      "payable": true
    },
    {
      "inputs": [
        {
          "internalType": "uint256",
          "name": "auctionId",
          "type": "uint256"
        },
        {
          "internalType": "uint256",
          "name": "bidderId",
          "type": "uint256"
        }
      ],
      "name": "acceptBid",
      "outputs": [],
      "stateMutability": "nonpayable",
      "type": "function"
    },
    {
      "inputs": [
        {
          "internalType": "uint256",
          "name": "auctionId",
          "type": "uint256"
        },
        {
          "internalType": "uint256",
          "name": "bidderId",
          "type": "uint256"
        }
      ],
      "name": "cancelBid",
      "outputs": [],
      "stateMutability": "nonpayable",
      "type": "function"
    },
    {
      "inputs": [
        {
          "internalType": "uint256",
          "name": "auctionId",
          "type": "uint256"
        }
      ],
      "name": "getBidsByBidder",
      "outputs": [
        {
          "components": [
            {
              "internalType": "address",
              "name": "owner",
              "type": "address"
            },
            {
              "internalType": "uint256",
              "name": "bidPrice",
              "type": "uint256"
            }
          ],
          "internalType": "struct NichoAuction.Buyer[]",
          "name": "",
          "type": "tuple[]"
        }
      ],
      "stateMutability": "view",
      "type": "function",
      "constant": true
    },
    {
      "inputs": [
        {
          "internalType": "address",
          "name": "tokenAddress",
          "type": "address"
        },
        {
          "internalType": "uint256",
          "name": "tokenId",
          "type": "uint256"
        }
      ],
      "name": "isNFTListedToAuction",
      "outputs": [
        {
          "internalType": "bool",
          "name": "",
          "type": "bool"
        }
      ],
      "stateMutability": "view",
      "type": "function",
      "constant": true
    },
    {
      "inputs": [
        {
          "internalType": "address",
          "name": "tokenAddress",
          "type": "address"
        },
        {
          "internalType": "uint256",
          "name": "tokenId",
          "type": "uint256"
        },
        {
          "internalType": "uint256",
          "name": "deadline",
          "type": "uint256"
        }
      ],
      "name": "createOffer",
      "outputs": [],
      "stateMutability": "payable",
      "type": "function",
      "payable": true
    },
    {
      "inputs": [
        {
          "internalType": "address",
          "name": "tokenAddress",
          "type": "address"
        },
        {
          "internalType": "uint256",
          "name": "tokenId",
          "type": "uint256"
        },
        {
          "internalType": "address",
          "name": "offerCreator",
          "type": "address"
        }
      ],
      "name": "acceptOffer",
      "outputs": [],
      "stateMutability": "nonpayable",
      "type": "function"
    },
    {
      "inputs": [
        {
          "internalType": "address",
          "name": "tokenAddress",
          "type": "address"
        },
        {
          "internalType": "uint256",
          "name": "tokenId",
          "type": "uint256"
        }
      ],
      "name": "cancelOffer",
      "outputs": [],
      "stateMutability": "nonpayable",
      "type": "function"
    },
    {
      "inputs": [
        {
          "internalType": "uint256",
          "name": "amount",
          "type": "uint256"
        }
      ],
      "name": "withdrawETH",
      "outputs": [],
      "stateMutability": "nonpayable",
      "type": "function"
    },
    {
      "inputs": [
        {
          "internalType": "address",
          "name": "_token",
          "type": "address"
        },
        {
          "internalType": "uint256",
          "name": "_amount",
          "type": "uint256"
        }
      ],
      "name": "withdrawTokens",
      "outputs": [],
      "stateMutability": "nonpayable",
      "type": "function"
    },
    {
      "inputs": [],
      "name": "withdrawBNB",
      "outputs": [],
      "stateMutability": "nonpayable",
      "type": "function"
    }
  ],
  "bytecode": "0x608060405260006002553480156200001657600080fd5b5060405162003d6838038062003d688339810160408190526200003991620000ba565b62000044336200006a565b600180546001600160a01b0319166001600160a01b0392909216919091179055620000ec565b600080546001600160a01b038381166001600160a01b0319831681178455604051919092169283917f8be0079c531659141344cd1fd0a4f28419497f9722a3daafe3b4186f6b6457e09190a35050565b600060208284031215620000cd57600080fd5b81516001600160a01b0381168114620000e557600080fd5b9392505050565b613c6c80620000fc6000396000f3fe60806040526004361061012e5760003560e01c80636d12e6e9116100ab578063a7e766441161006f578063a7e76644146103b9578063bfb231d2146103cf578063f14210a614610403578063f2d5d04514610423578063f2fde38b14610443578063f37794a91461046357600080fd5b80636d12e6e9146102fd578063715018a61461032d5780638da5cb5b146103425780639979ef45146103605780639ac756a61461037357600080fd5b80631d111d13116100f25780631d111d13146102505780633bbb2806146102655780634b393605146102855780634c629e34146102a5578063555d8aa8146102dd57600080fd5b806302e9d5e41461013a578063058a56ac1461015c57806306b091f91461017c57806308d6ec021461019c5780631c6c71281461023d57600080fd5b3661013557005b600080fd5b34801561014657600080fd5b5061015a610155366004613693565b610490565b005b34801561016857600080fd5b5061015a6101773660046136ca565b61102e565b34801561018857600080fd5b5061015a6101973660046136ca565b61112d565b3480156101a857600080fd5b506102046101b73660046136f6565b6005602090815260009384526040808520825292845282842090528252902080546001820154600283015460038401546004909401546001600160a01b0390931693919290919060ff1685565b604080516001600160a01b03909616865260208601949094529284019190915260608301521515608082015260a0015b60405180910390f35b61015a61024b366004613738565b611274565b34801561025c57600080fd5b5061015a611477565b34801561027157600080fd5b5061015a6102803660046136f6565b6114d0565b34801561029157600080fd5b5061015a6102a0366004613693565b611b29565b3480156102b157600080fd5b506001546102c5906001600160a01b031681565b6040516001600160a01b039091168152602001610234565b3480156102e957600080fd5b5061015a6102f8366004613783565b611e48565b34801561030957600080fd5b5061031d6103183660046136ca565b612360565b6040519015158152602001610234565b34801561033957600080fd5b5061015a612510565b34801561034e57600080fd5b506000546001600160a01b03166102c5565b61015a61036e3660046137f2565b612546565b34801561037f57600080fd5b506103ab61038e3660046136ca565b600460209081526000928352604080842090915290825290205481565b604051908152602001610234565b3480156103c557600080fd5b506103ab60025481565b3480156103db57600080fd5b506103ef6103ea3660046137f2565b612d1c565b604051610234989796959493929190613867565b34801561040f57600080fd5b5061015a61041e3660046137f2565b612df8565b34801561042f57600080fd5b5061015a61043e3660046137f2565b612e96565b34801561044f57600080fd5b5061015a61045e3660046138c5565b6132d8565b34801561046f57600080fd5b5061048361047e3660046137f2565b613370565b60405161023491906138e9565b600082815260036020818152604080842081516101208101835281546001600160a01b0390811682526001830154169381019390935260028101549183019190915291820180548694939160608401916104e990613941565b80601f016020809104026020016040519081016040528092919081815260200182805461051590613941565b80156105625780601f1061053757610100808354040283529160200191610562565b820191906000526020600020905b81548152906001019060200180831161054557829003601f168201915b505050505081526020016004820154815260200160058201548152602001600682015481526020016007820160009054906101000a900460ff1615151515815260200160088201805480602002602001604051908101604052809291908181526020016000905b82821015610611576000848152602090819020604080518082019091526002850290910180546001600160a01b031682526001908101548284015290835290920191016105c9565b50505091525050602081015160408083015190516331a9108f60e11b815260048101919091529192509033906001600160a01b03831690636352211e90602401602060405180830381865afa15801561066e573d6000803e3d6000fd5b505050506040513d601f19601f82011682018060405250810190610692919061397c565b6001600160a01b0316146106e15760405162461bcd60e51b815260206004820152601160248201527027b7363c9020bab1ba34b7b727bbb732b960791b60448201526064015b60405180910390fd5b600085815260036020818152604080842081516101208101835281546001600160a01b03908116825260018301541693810193909352600281015491830191909152918201805489949391606084019161073a90613941565b80601f016020809104026020016040519081016040528092919081815260200182805461076690613941565b80156107b35780601f10610788576101008083540402835291602001916107b3565b820191906000526020600020905b81548152906001019060200180831161079657829003601f168201915b505050505081526020016004820154815260200160058201548152602001600682015481526020016007820160009054906101000a900460ff1615151515815260200160088201805480602002602001604051908101604052809291908181526020016000905b82821015610862576000848152602090819020604080518082019091526002850290910180546001600160a01b0316825260019081015482840152908352909201910161081a565b505050508152505090508060e0015161088d5760405162461bcd60e51b81526004016106d890613999565b600087815260036020818152604080842081516101208101835281546001600160a01b0390811682526001830154169381019390935260028101549183019190915291820180548b94939160608401916108e690613941565b80601f016020809104026020016040519081016040528092919081815260200182805461091290613941565b801561095f5780601f106109345761010080835404028352916020019161095f565b820191906000526020600020905b81548152906001019060200180831161094257829003601f168201915b505050505081526020016004820154815260200160058201548152602001600682015481526020016007820160009054906101000a900460ff1615151515815260200160088201805480602002602001604051908101604052809291908181526020016000905b82821015610a0e576000848152602090819020604080518082019091526002850290910180546001600160a01b031682526001908101548284015290835290920191016109c6565b505050508152505090508060a001514211610a5f5760405162461bcd60e51b8152602060048201526011602482015270105d58dd1a5bdb881b9bdd08195b991959607a1b60448201526064016106d8565b6000898152600360205260409020610a788960016139df565b60088201541015610ac35760405162461bcd60e51b8152602060048201526015602482015274109a5919195c88191bd95cc81b9bdd08195e1a5cdd605a1b60448201526064016106d8565b60078101805460ff19169055600881018054600091908b908110610ae957610ae96139f7565b60009182526020909120600184015460028086015460405163020604bf60e21b815260048101919091529302909101925030916001600160a01b039091169063081812fc90602401602060405180830381865afa158015610b4e573d6000803e3d6000fd5b505050506040513d601f19601f82011682018060405250810190610b72919061397c565b6001600160a01b03161415610feb57600182015481546002840154604051632142170760e11b81523360048201526001600160a01b03928316602482015260448101919091529116906342842e0e90606401600060405180830381600087803b158015610bde57600080fd5b505af1158015610bf2573d6000803e3d6000fd5b5050600154604051634d8c928d60e11b8152336004820152600093506001600160a01b039091169150639b19251a90602401602060405180830381865afa158015610c41573d6000803e3d6000fd5b505050506040513d601f19601f82011682018060405250810190610c659190613a0d565b80610cda57506001548254604051634d8c928d60e11b81526001600160a01b039182166004820152911690639b19251a90602401602060405180830381865afa158015610cb6573d6000803e3d6000fd5b505050506040513d601f19601f82011682018060405250810190610cda9190613a0d565b905060006064600160009054906101000a90046001600160a01b03166001600160a01b03166396ce07956040518163ffffffff1660e01b8152600401602060405180830381865afa158015610d33573d6000803e3d6000fd5b505050506040513d601f19601f82011682018060405250810190610d579190613a2f565b600160009054906101000a90046001600160a01b03166001600160a01b0316636fb1eb0c6040518163ffffffff1660e01b8152600401602060405180830381865afa158015610daa573d6000803e3d6000fd5b505050506040513d601f19601f82011682018060405250810190610dce9190613a2f565b8560010154610ddd9190613a48565b610de79190613a67565b610df19190613a67565b90508115610dfd575060005b6000818460010154610e0f9190613a89565b90508115610ec857600160009054906101000a90046001600160a01b03166001600160a01b0316630135f7406040518163ffffffff1660e01b8152600401602060405180830381865afa158015610e6a573d6000803e3d6000fd5b505050506040513d601f19601f82011682018060405250810190610e8e919061397c565b6001600160a01b03166108fc839081150290604051600060405180830381858888f19350505050158015610ec6573d6000803e3d6000fd5b505b604051339082156108fc029083906000818181858888f19350505050158015610ef5573d6000803e3d6000fd5b507f17bd5a4dc9b440b0804dcabc3369a419717be6dfbd23170766ee844d1faf465b8e8560010154338760000160009054906101000a90046001600160a01b0316604051610f68949392919093845260208401929092526001600160a01b03908116604084015216606082015260800190565b60405180910390a17fdcadc08d0c419e9b2218af6c9e64d42f3275244722cd48237abb80805b155ee48e8e8660000160009054906101000a90046001600160a01b0316604051610fd49392919092835260208301919091526001600160a01b0316604082015260600190565b60405180910390a150506000600183015550611021565b60405162461bcd60e51b815260206004820152600b60248201526a105c1c1c9bdd994813919560aa1b60448201526064016106d8565b5050505050505050505050565b6001600160a01b038216600090815260056020908152604080832084845282528083203384529091529020600481015460ff161561109f5760405162461bcd60e51b815260206004820152600e60248201526d105b1c9958591e4818d85b98d95b60921b60448201526064016106d8565b60048101805460ff19166001908117909155810154604051339180156108fc02916000818181858888f193505050501580156110df573d6000803e3d6000fd5b50604080516001600160a01b038516815260208101849052338183015290517fe5975fe84069bf7c31696ba71fe29d75192bd667c076b0d00c5730111001ba349181900360600190a1505050565b6000546001600160a01b031633146111575760405162461bcd60e51b81526004016106d890613aa0565b6040516370a0823160e01b815230600482015281906001600160a01b038416906370a0823190602401602060405180830381865afa15801561119d573d6000803e3d6000fd5b505050506040513d601f19601f820116820180604052508101906111c19190613a2f565b10156111fe5760405162461bcd60e51b815260206004820152600c60248201526b15dc9bdb99c8185b5bdd5b9d60a21b60448201526064016106d8565b60405163a9059cbb60e01b8152336004820152602481018290526001600160a01b0383169063a9059cbb906044016020604051808303816000875af115801561124b573d6000803e3d6000fd5b505050506040513d601f19601f8201168201806040525081019061126f9190613a0d565b505050565b600034116112b55760405162461bcd60e51b815260206004820152600e60248201526d125b9d985b1a5908185b5bdd5b9d60921b60448201526064016106d8565b428110156112f85760405162461bcd60e51b815260206004820152601060248201526f496e76616c696420646561646c696e6560801b60448201526064016106d8565b6001600160a01b038316600090815260056020908152604080832085845282528083203384529091529020600181015415806113385750600481015460ff165b6113845760405162461bcd60e51b815260206004820152601960248201527f596f7520616c72656164792063726561746564206f666665720000000000000060448201526064016106d8565b80546001600160a01b03191633178155346001820155600281018290556004808201805460ff1916905542600383015560405163c87b56dd60e01b815285916000916001600160a01b0384169163c87b56dd916113e79189910190815260200190565b600060405180830381865afa158015611404573d6000803e3d6000fd5b505050506040513d6000823e601f3d908101601f1916820160405261142c9190810190613ad5565b90507f44cbfd321d7e4807899a1e533545c3a1ad74c5fd360ed620760829a67f5c678b86863334858960405161146796959493929190613b82565b60405180910390a1505050505050565b6000546001600160a01b031633146114a15760405162461bcd60e51b81526004016106d890613aa0565b60405133904780156108fc02916000818181858888f193505050501580156114cd573d6000803e3d6000fd5b50565b6040516331a9108f60e11b81526004810183905283908390829033906001600160a01b03831690636352211e90602401602060405180830381865afa15801561151d573d6000803e3d6000fd5b505050506040513d601f19601f82011682018060405250810190611541919061397c565b6001600160a01b03161461158a5760405162461bcd60e51b815260206004820152601060248201526f27b7363c903a37b5b2b71037bbb732b960811b60448201526064016106d8565b6001600160a01b0380871660009081526005602090815260408083208984528252808320938816835292905220600481015460ff161561160c5760405162461bcd60e51b815260206004820152601860248201527f4f666665722063726561746f722077697468647261776564000000000000000060448201526064016106d8565b42816002015410156116585760405162461bcd60e51b815260206004820152601560248201527413d999995c88185b1c9958591e48195e1c1a5c9959605a1b60448201526064016106d8565b60405163020604bf60e21b81526004810187905230906001600160a01b0389169063081812fc90602401602060405180830381865afa15801561169f573d6000803e3d6000fd5b505050506040513d601f19601f820116820180604052508101906116c3919061397c565b6001600160a01b03161415610feb578054604051632142170760e11b81523360048201526001600160a01b03918216602482015260448101889052908816906342842e0e90606401600060405180830381600087803b15801561172557600080fd5b505af1158015611739573d6000803e3d6000fd5b5050600154604051634d8c928d60e11b8152336004820152600093506001600160a01b039091169150639b19251a90602401602060405180830381865afa158015611788573d6000803e3d6000fd5b505050506040513d601f19601f820116820180604052508101906117ac9190613a0d565b8061189157506001546040516331a9108f60e11b8152600481018990526001600160a01b0391821691639b19251a91908b1690636352211e90602401602060405180830381865afa158015611805573d6000803e3d6000fd5b505050506040513d601f19601f82011682018060405250810190611829919061397c565b6040516001600160e01b031960e084901b1681526001600160a01b039091166004820152602401602060405180830381865afa15801561186d573d6000803e3d6000fd5b505050506040513d601f19601f820116820180604052508101906118919190613a0d565b905060006064600160009054906101000a90046001600160a01b03166001600160a01b03166396ce07956040518163ffffffff1660e01b8152600401602060405180830381865afa1580156118ea573d6000803e3d6000fd5b505050506040513d601f19601f8201168201806040525081019061190e9190613a2f565b600160009054906101000a90046001600160a01b03166001600160a01b0316636fb1eb0c6040518163ffffffff1660e01b8152600401602060405180830381865afa158015611961573d6000803e3d6000fd5b505050506040513d601f19601f820116820180604052508101906119859190613a2f565b85600101546119949190613a48565b61199e9190613a67565b6119a89190613a67565b905081156119b4575060005b60008184600101546119c69190613a89565b90508115611a7f57600160009054906101000a90046001600160a01b03166001600160a01b0316630135f7406040518163ffffffff1660e01b8152600401602060405180830381865afa158015611a21573d6000803e3d6000fd5b505050506040513d601f19601f82011682018060405250810190611a45919061397c565b6001600160a01b03166108fc839081150290604051600060405180830381858888f19350505050158015611a7d573d6000803e3d6000fd5b505b604051339082156108fc029083906000818181858888f19350505050158015611aac573d6000803e3d6000fd5b50505060048201805460ff191660011790555080546001820154604080516001600160a01b03808c168252602082018b905233928201929092529216606083015260808201527fe8a30f48188a266702d314961371d328f20a355b4ba0df7429b30023b9c9a4919060a0015b60405180910390a150505050505050565b600082815260036020818152604080842081516101208101835281546001600160a01b039081168252600183015416938101939093526002810154918301919091529182018054869493916060840191611b8290613941565b80601f0160208091040260200160405190810160405280929190818152602001828054611bae90613941565b8015611bfb5780601f10611bd057610100808354040283529160200191611bfb565b820191906000526020600020905b815481529060010190602001808311611bde57829003601f168201915b505050505081526020016004820154815260200160058201548152602001600682015481526020016007820160009054906101000a900460ff1615151515815260200160088201805480602002602001604051908101604052809291908181526020016000905b82821015611caa576000848152602090819020604080518082019091526002850290910180546001600160a01b03168252600190810154828401529083529092019101611c62565b505050508152505090508060a001514211611cfb5760405162461bcd60e51b8152602060048201526011602482015270105d58dd1a5bdb881b9bdd08195b991959607a1b60448201526064016106d8565b6000848152600360205260408120600801805485908110611d1e57611d1e6139f7565b6000918252602090912060029091020180549091506001600160a01b03163314611d805760405162461bcd60e51b8152602060048201526013602482015272165bdd48185c99481b9bdd08185b1b1bddd959606a1b60448201526064016106d8565b6000816001015411611dcd5760405162461bcd60e51b8152602060048201526016602482015275165bdd48185b1c9958591e481dda5d1a191c985dd95960521b60448201526064016106d8565b6001810180546000918290556040519091339183156108fc0291849190818181858888f19350505050158015611e07573d6000803e3d6000fd5b50604080518781526020810187905233918101919091527fdcadc08d0c419e9b2218af6c9e64d42f3275244722cd48237abb80805b155ee490606001611467565b805160208201516040516331a9108f60e11b81526004810182905282906001600160a01b03821690636352211e90602401602060405180830381865afa158015611e96573d6000803e3d6000fd5b505050506040513d601f19601f82011682018060405250810190611eba919061397c565b6001600160a01b0316336001600160a01b031614611f1a5760405162461bcd60e51b815260206004820152601960248201527f596f7520617265206e6f74206120746f6b656e206f776e65720000000000000060448201526064016106d8565b83516020808601516001600160a01b0380841660009081526004845260408082208483528552808220548083526003808752828420835161012081018552815487168152600182015490961697860197909752600287015492850192909252908501805494959194929392606084019190611f9490613941565b80601f0160208091040260200160405190810160405280929190818152602001828054611fc090613941565b801561200d5780601f10611fe25761010080835404028352916020019161200d565b820191906000526020600020905b815481529060010190602001808311611ff057829003601f168201915b505050505081526020016004820154815260200160058201548152602001600682015481526020016007820160009054906101000a900460ff1615151515815260200160088201805480602002602001604051908101604052809291908181526020016000905b828210156120bc576000848152602090819020604080518082019091526002850290910180546001600160a01b03168252600190810154828401529083529092019101612074565b5050509152505060e081015190915015156001141561210e5760405162461bcd60e51b815260206004820152600e60248201526d41756374696f6e2045786973747360901b60448201526064016106d8565b6060880151604089015142821161215a5760405162461bcd60e51b815260206004820152601060248201526f496e76616c696420646561646c696e6560801b60448201526064016106d8565b895160208b015160405163c87b56dd60e01b81526000916001600160a01b0384169163c87b56dd916121929160040190815260200190565b600060405180830381865afa1580156121af573d6000803e3d6000fd5b505050506040513d6000823e601f3d908101601f191682016040526121d79190810190613ad5565b6002805491925060006121e983613bcf565b9190505550600060025490506000600360008381526020019081526020016000209050338160000160006101000a8154816001600160a01b0302191690836001600160a01b031602179055508d600001518160010160006101000a8154816001600160a01b0302191690836001600160a01b031602179055508d602001518160020181905550828160030190805190602001906122879291906135fa565b5084816004018190555085816005018190555042816006018190555060018160070160006101000a81548160ff02191690831515021790555050600254600460008f600001516001600160a01b03166001600160a01b0316815260200190815260200160002060008f602001518152602001908152602001600020819055507f4eec32c232e377e06bf5938eb4e9e044dab50764b490f022799915ee9a9782ab818e600001518f602001518588338b6040516123499796959493929190613bea565b60405180910390a150505050505050505050505050565b6001600160a01b038083166000908152600460209081526040808320858452825280832054808452600380845282852083516101208101855281548816815260018201549097169487019490945260028401549286019290925290820180549394919385939160608401916123d490613941565b80601f016020809104026020016040519081016040528092919081815260200182805461240090613941565b801561244d5780601f106124225761010080835404028352916020019161244d565b820191906000526020600020905b81548152906001019060200180831161243057829003601f168201915b505050505081526020016004820154815260200160058201548152602001600682015481526020016007820160009054906101000a900460ff1615151515815260200160088201805480602002602001604051908101604052809291908181526020016000905b828210156124fc576000848152602090819020604080518082019091526002850290910180546001600160a01b031682526001908101548284015290835290920191016124b4565b5050509152505060e0015195945050505050565b6000546001600160a01b0316331461253a5760405162461bcd60e51b81526004016106d890613aa0565b61254460006135aa565b565b600081815260036020818152604080842081516101208101835281546001600160a01b03908116825260018301541693810193909352600281015491830191909152918201805485949391606084019161259f90613941565b80601f01602080910402602001604051908101604052809291908181526020018280546125cb90613941565b80156126185780601f106125ed57610100808354040283529160200191612618565b820191906000526020600020905b8154815290600101906020018083116125fb57829003601f168201915b505050505081526020016004820154815260200160058201548152602001600682015481526020016007820160009054906101000a900460ff1615151515815260200160088201805480602002602001604051908101604052809291908181526020016000905b828210156126c7576000848152602090819020604080518082019091526002850290910180546001600160a01b0316825260019081015482840152908352909201910161267f565b505050508152505090508060e001516126f25760405162461bcd60e51b81526004016106d890613999565b600083815260036020818152604080842081516101208101835281546001600160a01b03908116825260018301541693810193909352600281015491830191909152918201805487949391606084019161274b90613941565b80601f016020809104026020016040519081016040528092919081815260200182805461277790613941565b80156127c45780601f10612799576101008083540402835291602001916127c4565b820191906000526020600020905b8154815290600101906020018083116127a757829003601f168201915b505050505081526020016004820154815260200160058201548152602001600682015481526020016007820160009054906101000a900460ff1615151515815260200160088201805480602002602001604051908101604052809291908181526020016000905b82821015612873576000848152602090819020604080518082019091526002850290910180546001600160a01b0316825260019081015482840152908352909201910161282b565b505050508152505090508060c0015142116128c65760405162461bcd60e51b8152602060048201526013602482015272105d58dd1a5bdb881b9bdd081cdd185c9d1959606a1b60448201526064016106d8565b600085815260036020818152604080842081516101208101835281546001600160a01b03908116825260018301541693810193909352600281015491830191909152918201805489949391606084019161291f90613941565b80601f016020809104026020016040519081016040528092919081815260200182805461294b90613941565b80156129985780601f1061296d57610100808354040283529160200191612998565b820191906000526020600020905b81548152906001019060200180831161297b57829003601f168201915b505050505081526020016004820154815260200160058201548152602001600682015481526020016007820160009054906101000a900460ff1615151515815260200160088201805480602002602001604051908101604052809291908181526020016000905b82821015612a47576000848152602090819020604080518082019091526002850290910180546001600160a01b031682526001908101548284015290835290920191016129ff565b505050508152505090508060a00151421115612a955760405162461bcd60e51b815260206004820152600d60248201526c105d58dd1a5bdb88195b991959609a1b60448201526064016106d8565b600087815260036020526040908190206001810154600282015492516331a9108f60e11b815291926001600160a01b039091169133918391636352211e91612ae39160040190815260200190565b602060405180830381865afa158015612b00573d6000803e3d6000fd5b505050506040513d601f19601f82011682018060405250810190612b24919061397c565b6001600160a01b03161415612b7b5760405162461bcd60e51b815260206004820152601d60248201527f43726561746f72206e6f742061626c6520746f20706c6163652062696400000060448201526064016106d8565b81600401543411612be55760405162461bcd60e51b815260206004820152602e60248201527f5072696365206e65656420746f20626520686967686572207468616e2068696760448201526d686573742062696420707269636560901b60648201526084016106d8565b34826004018190555060006040518060400160405280336001600160a01b031681526020013481525090506000836008018054905090508360080182908060018154018082558091505060019003906000526020600020906002020160009091909190915060008201518160000160006101000a8154816001600160a01b0302191690836001600160a01b031602179055506020820151816001015550507f4abc22c09358a5b7cd7db032b2d845c1260a84300eb1893d499d399bf0393b588b33348760010160009054906101000a90046001600160a01b0316886002015486604051612d07969594939291909586526001600160a01b039485166020870152604086019390935292166060840152608083019190915260a082015260c00190565b60405180910390a15050505050505050505050565b600360208190526000918252604090912080546001820154600283015493830180546001600160a01b0393841695939092169391612d5990613941565b80601f0160208091040260200160405190810160405280929190818152602001828054612d8590613941565b8015612dd25780601f10612da757610100808354040283529160200191612dd2565b820191906000526020600020905b815481529060010190602001808311612db557829003601f168201915b505050506004830154600584015460068501546007909501549394919390925060ff1688565b6000546001600160a01b03163314612e225760405162461bcd60e51b81526004016106d890613aa0565b4781811015612e695760405162461bcd60e51b8152602060048201526013602482015272125b9cdd59999a58da595b9d08185b5bdd5b9d606a1b60448201526064016106d8565b604051339083156108fc029084906000818181858888f1935050505015801561126f573d6000803e3d6000fd5b600081815260036020818152604080842081516101208101835281546001600160a01b039081168252600183015416938101939093526002810154918301919091529182018054859493916060840191612eef90613941565b80601f0160208091040260200160405190810160405280929190818152602001828054612f1b90613941565b8015612f685780601f10612f3d57610100808354040283529160200191612f68565b820191906000526020600020905b815481529060010190602001808311612f4b57829003601f168201915b505050505081526020016004820154815260200160058201548152602001600682015481526020016007820160009054906101000a900460ff1615151515815260200160088201805480602002602001604051908101604052809291908181526020016000905b82821015613017576000848152602090819020604080518082019091526002850290910180546001600160a01b03168252600190810154828401529083529092019101612fcf565b50505091525050602081015160408083015190516331a9108f60e11b815260048101919091529192509033906001600160a01b03831690636352211e90602401602060405180830381865afa158015613074573d6000803e3d6000fd5b505050506040513d601f19601f82011682018060405250810190613098919061397c565b6001600160a01b0316146130e25760405162461bcd60e51b815260206004820152601160248201527027b7363c9020bab1ba34b7b727bbb732b960791b60448201526064016106d8565b600084815260036020818152604080842081516101208101835281546001600160a01b03908116825260018301541693810193909352600281015491830191909152918201805488949391606084019161313b90613941565b80601f016020809104026020016040519081016040528092919081815260200182805461316790613941565b80156131b45780601f10613189576101008083540402835291602001916131b4565b820191906000526020600020905b81548152906001019060200180831161319757829003601f168201915b505050505081526020016004820154815260200160058201548152602001600682015481526020016007820160009054906101000a900460ff1615151515815260200160088201805480602002602001604051908101604052809291908181526020016000905b82821015613263576000848152602090819020604080518082019091526002850290910180546001600160a01b0316825260019081015482840152908352909201910161321b565b505050508152505090508060e0015161328e5760405162461bcd60e51b81526004016106d890613999565b60008681526003602090815260409182902060078101805460ff1916905591518881527e8860f8ba09adfd502e18671146909e9be0e501144cba940d03e64f1af1050b9101611b18565b6000546001600160a01b031633146133025760405162461bcd60e51b81526004016106d890613aa0565b6001600160a01b0381166133675760405162461bcd60e51b815260206004820152602660248201527f4f776e61626c653a206e6577206f776e657220697320746865207a65726f206160448201526564647265737360d01b60648201526084016106d8565b6114cd816135aa565b600081815260036020818152604080842081516101208101835281546001600160a01b0390811682526001830154169381019390935260028101549183019190915291820180546060949391838601916133c990613941565b80601f01602080910402602001604051908101604052809291908181526020018280546133f590613941565b80156134425780601f1061341757610100808354040283529160200191613442565b820191906000526020600020905b81548152906001019060200180831161342557829003601f168201915b505050505081526020016004820154815260200160058201548152602001600682015481526020016007820160009054906101000a900460ff1615151515815260200160088201805480602002602001604051908101604052809291908181526020016000905b828210156134f1576000848152602090819020604080518082019091526002850290910180546001600160a01b031682526001908101548284015290835290920191016134a9565b5050505081525050905060606000805b836101000151518110156135a05760008461010001518281518110613528576135286139f7565b60200260200101519050336001600160a01b031681600001516001600160a01b031614801561355b575060008160200151115b1561358d5780848481518110613573576135736139f7565b6020026020010181905250828061358990613bcf565b9350505b508061359881613bcf565b915050613501565b5090949350505050565b600080546001600160a01b038381166001600160a01b0319831681178455604051919092169283917f8be0079c531659141344cd1fd0a4f28419497f9722a3daafe3b4186f6b6457e09190a35050565b82805461360690613941565b90600052602060002090601f016020900481019282613628576000855561366e565b82601f1061364157805160ff191683800117855561366e565b8280016001018555821561366e579182015b8281111561366e578251825591602001919060010190613653565b5061367a92915061367e565b5090565b5b8082111561367a576000815560010161367f565b600080604083850312156136a657600080fd5b50508035926020909101359150565b6001600160a01b03811681146114cd57600080fd5b600080604083850312156136dd57600080fd5b82356136e8816136b5565b946020939093013593505050565b60008060006060848603121561370b57600080fd5b8335613716816136b5565b925060208401359150604084013561372d816136b5565b809150509250925092565b60008060006060848603121561374d57600080fd5b8335613758816136b5565b95602085013595506040909401359392505050565b634e487b7160e01b600052604160045260246000fd5b60006080828403121561379557600080fd5b6040516080810181811067ffffffffffffffff821117156137b8576137b861376d565b60405282356137c6816136b5565b808252506020830135602082015260408301356040820152606083013560608201528091505092915050565b60006020828403121561380457600080fd5b5035919050565b60005b8381101561382657818101518382015260200161380e565b83811115613835576000848401525b50505050565b6000815180845261385381602086016020860161380b565b601f01601f19169290920160200192915050565b6001600160a01b03898116825288166020820152604081018790526101006060820181905260009061389b8382018961383b565b9150508560808301528460a08301528360c083015282151560e08301529998505050505050505050565b6000602082840312156138d757600080fd5b81356138e2816136b5565b9392505050565b602080825282518282018190526000919060409081850190868401855b8281101561393457815180516001600160a01b03168552860151868501529284019290850190600101613906565b5091979650505050505050565b600181811c9082168061395557607f821691505b6020821081141561397657634e487b7160e01b600052602260045260246000fd5b50919050565b60006020828403121561398e57600080fd5b81516138e2816136b5565b602080825260169082015275105d58dd1a5bdb88191bd95cc81b9bdd08195e1a5cdd60521b604082015260600190565b634e487b7160e01b600052601160045260246000fd5b600082198211156139f2576139f26139c9565b500190565b634e487b7160e01b600052603260045260246000fd5b600060208284031215613a1f57600080fd5b815180151581146138e257600080fd5b600060208284031215613a4157600080fd5b5051919050565b6000816000190483118215151615613a6257613a626139c9565b500290565b600082613a8457634e487b7160e01b600052601260045260246000fd5b500490565b600082821015613a9b57613a9b6139c9565b500390565b6020808252818101527f4f776e61626c653a2063616c6c6572206973206e6f7420746865206f776e6572604082015260600190565b600060208284031215613ae757600080fd5b815167ffffffffffffffff80821115613aff57600080fd5b818401915084601f830112613b1357600080fd5b815181811115613b2557613b2561376d565b604051601f8201601f19908116603f01168101908382118183101715613b4d57613b4d61376d565b81604052828152876020848701011115613b6657600080fd5b613b7783602083016020880161380b565b979650505050505050565b6001600160a01b03878116825260208201879052851660408201526060810184905260c060808201819052600090613bbc9083018561383b565b90508260a0830152979650505050505050565b6000600019821415613be357613be36139c9565b5060010190565b878152600060018060a01b03808916602084015287604084015260e06060840152613c1860e084018861383b565b60808401969096529390931660a082015260c001525094935050505056fea2646970667358221220405a2392ab9d38c0aa0925876ea003054c5980bfa81793eb9ceb8b0b910c51df64736f6c634300080b0033",
  "immutableReferences": {},
  "source": "/**\r\n * Submitted for verification at BscScan.com on 2022-04-09\r\n */\r\n\r\n// File: contracts/Auction.sol\r\n// SPDX-License-Identifier: MIT\r\n\r\npragma solidity ^0.8.0;\r\nimport \"./interfaces/IOERC721.sol\";\r\n\r\n/**\r\n * @dev Provides information about the current execution context, including the\r\n * sender of the transaction and its data. While these are generally available\r\n * via msg.sender and msg.data, they should not be accessed in such a direct\r\n * manner, since when dealing with meta-transactions the account sending and\r\n * paying for execution may not be the actual sender (as far as an application\r\n * is concerned).\r\n *\r\n * This contract is only required for intermediate, library-like contracts.\r\n */\r\nabstract contract Context {\r\n    function _msgSender() internal view virtual returns (address) {\r\n        return msg.sender;\r\n    }\r\n\r\n    function _msgData() internal view virtual returns (bytes calldata) {\r\n        return msg.data;\r\n    }\r\n}\r\n\r\n/**\r\n * @dev Contract module which provides a basic access control mechanism, where\r\n * there is an account (an owner) that can be granted exclusive access to\r\n * specific functions.\r\n *\r\n * By default, the owner account will be the one that deploys the contract. This\r\n * can later be changed with {transferOwnership}.\r\n *\r\n * This module is used through inheritance. It will make available the modifier\r\n * `onlyOwner`, which can be applied to your functions to restrict their use to\r\n * the owner.\r\n */\r\nabstract contract Ownable is Context {\r\n    address private _owner;\r\n\r\n    event OwnershipTransferred(address indexed previousOwner, address indexed newOwner);\r\n\r\n    /**\r\n     * @dev Initializes the contract setting the deployer as the initial owner.\r\n     */\r\n    constructor() {\r\n        _transferOwnership(_msgSender());\r\n    }\r\n\r\n    /**\r\n     * @dev Returns the address of the current owner.\r\n     */\r\n    function owner() public view virtual returns (address) {\r\n        return _owner;\r\n    }\r\n\r\n    /**\r\n     * @dev Throws if called by any account other than the owner.\r\n     */\r\n    modifier onlyOwner() {\r\n        require(owner() == _msgSender(), \"Ownable: caller is not the owner\");\r\n        _;\r\n    }\r\n\r\n    /**\r\n     * @dev Leaves the contract without owner. It will not be possible to call\r\n     * `onlyOwner` functions anymore. Can only be called by the current owner.\r\n     *\r\n     * NOTE: Renouncing ownership will leave the contract without an owner,\r\n     * thereby removing any functionality that is only available to the owner.\r\n     */\r\n    function renounceOwnership() public virtual onlyOwner {\r\n        _transferOwnership(address(0));\r\n    }\r\n\r\n    /**\r\n     * @dev Transfers ownership of the contract to a new account (`newOwner`).\r\n     * Can only be called by the current owner.\r\n     */\r\n    function transferOwnership(address newOwner) public virtual onlyOwner {\r\n        require(newOwner != address(0), \"Ownable: new owner is the zero address\");\r\n        _transferOwnership(newOwner);\r\n    }\r\n\r\n    /**\r\n     * @dev Transfers ownership of the contract to a new account (`newOwner`).\r\n     * Internal function without access restriction.\r\n     */\r\n    function _transferOwnership(address newOwner) internal virtual {\r\n        address oldOwner = _owner;\r\n        _owner = newOwner;\r\n        emit OwnershipTransferred(oldOwner, newOwner);\r\n    }\r\n}\r\n\r\n/**\r\n * @dev Interface of the ERC20 standard as defined in the EIP.\r\n */\r\ninterface IERC20 {\r\n    /**\r\n     * @dev Returns the amount of tokens in existence.\r\n     */\r\n    function totalSupply() external view returns (uint256);\r\n\r\n    /**\r\n     * @dev Returns the amount of tokens owned by `account`.\r\n     */\r\n    function balanceOf(address account) external view returns (uint256);\r\n\r\n    /**\r\n     * @dev Moves `amount` tokens from the caller's account to `to`.\r\n     *\r\n     * Returns a boolean value indicating whether the operation succeeded.\r\n     *\r\n     * Emits a {Transfer} event.\r\n     */\r\n    function transfer(address to, uint256 amount) external returns (bool);\r\n\r\n    /**\r\n     * @dev Returns the remaining number of tokens that `spender` will be\r\n     * allowed to spend on behalf of `owner` through {transferFrom}. This is\r\n     * zero by default.\r\n     *\r\n     * This value changes when {approve} or {transferFrom} are called.\r\n     */\r\n    function allowance(address owner, address spender) external view returns (uint256);\r\n\r\n    /**\r\n     * @dev Sets `amount` as the allowance of `spender` over the caller's tokens.\r\n     *\r\n     * Returns a boolean value indicating whether the operation succeeded.\r\n     *\r\n     * IMPORTANT: Beware that changing an allowance with this method brings the risk\r\n     * that someone may use both the old and the new allowance by unfortunate\r\n     * transaction ordering. One possible solution to mitigate this race\r\n     * condition is to first reduce the spender's allowance to 0 and set the\r\n     * desired value afterwards:\r\n     * https://github.com/ethereum/EIPs/issues/20#issuecomment-263524729\r\n     *\r\n     * Emits an {Approval} event.\r\n     */\r\n    function approve(address spender, uint256 amount) external returns (bool);\r\n\r\n    /**\r\n     * @dev Moves `amount` tokens from `from` to `to` using the\r\n     * allowance mechanism. `amount` is then deducted from the caller's\r\n     * allowance.\r\n     *\r\n     * Returns a boolean value indicating whether the operation succeeded.\r\n     *\r\n     * Emits a {Transfer} event.\r\n     */\r\n    function transferFrom(\r\n        address from,\r\n        address to,\r\n        uint256 amount\r\n    ) external returns (bool);\r\n\r\n    /**\r\n     * @dev Emitted when `value` tokens are moved from one account (`from`) to\r\n     * another (`to`).\r\n     *\r\n     * Note that `value` may be zero.\r\n     */\r\n    event Transfer(address indexed from, address indexed to, uint256 value);\r\n\r\n    /**\r\n     * @dev Emitted when the allowance of a `spender` for an `owner` is set by\r\n     * a call to {approve}. `value` is the new allowance.\r\n     */\r\n    event Approval(address indexed owner, address indexed spender, uint256 value);\r\n}\r\n\r\n// NichoNFT interface\r\ninterface INichoNFT {\r\n    function commissionFee() external view returns (uint256);\r\n    function denominator() external view returns (uint256);\r\n    function _feeAddress() external view returns (address payable);\r\n    function whitelist(address wallet) external view returns (bool);\r\n    function blackList(address tokenAddress, uint256 tokenId) external view returns (bool);\r\n}\r\n\r\ncontract NichoAuction is Ownable{\r\n    INichoNFT public NichoNFT;\r\n\r\n    struct Buyer {\r\n        address owner;\r\n        uint256 bidPrice;\r\n    }\r\n\r\n    // Auction Item\r\n    struct Item {\r\n        address creator; //address of creator\r\n        address tokenAddress; // token address\r\n        uint256 tokenId; // token id\r\n        string uri; //IPFS URL\r\n        uint256 highPrice;\r\n        uint256 deadline;\r\n        uint256 createdTs;\r\n        bool exists;\r\n        Buyer[] buyers;\r\n    }\r\n    // Param for auction creation\r\n    struct ItemParam {\r\n        address tokenAddress; \r\n        uint256 tokenId; \r\n        uint256 desiredMinPrice;\r\n        uint256 deadline;\r\n    }\r\n\r\n    // OfferItem\r\n    struct OfferItem {\r\n        address creator;\r\n        uint256 price;\r\n        uint256 expireTs;\r\n        uint256 createdAt;\r\n        bool isCancel;\r\n    }\r\n\r\n    // Auction ID counter\r\n    uint256 public auctionCounter = 0;\r\n    // Auction ID => Auction Item\r\n    mapping(uint256 => Item) public items;\r\n    // Token Address => TokenId => Auction ID\r\n    mapping(address => mapping(uint256 => uint256)) public tokenIdToAuctionId;\r\n\r\n    // Offer List\r\n    // Token address => Token id => creator => offer item\r\n    mapping(address => mapping(uint256 => mapping(address => OfferItem))) public offerItems;\r\n\r\n    modifier notBlackList(address tokenAddress, uint256 _tokenId) {\r\n        require(NichoNFT.blackList(tokenAddress, _tokenId) == false, \"TokenId is in blackList\");\r\n        _;\r\n    }\r\n\r\n    modifier tokenOwner(address tokenAddress, uint256 tokenId) {\r\n        IOERC721 token = IOERC721(tokenAddress);\r\n\r\n        require(msg.sender == token.ownerOf(tokenId), \"You are not a token owner\");\r\n        _;\r\n    }\r\n    \r\n    modifier auctionOwner(uint256 auctionId) {\r\n        Item memory item = items[auctionId];\r\n        IOERC721 token = IOERC721(item.tokenAddress);\r\n        require(token.ownerOf(item.tokenId) == msg.sender, \"Only AuctionOwner\");\r\n        _;\r\n    }\r\n\r\n    modifier onlyTokenOwner(address tokenAddress, uint256 tokenId) {\r\n        IOERC721 token = IOERC721(tokenAddress);\r\n        require(token.ownerOf(tokenId) == msg.sender, \"Only token owner\");\r\n        _;\r\n    }\r\n\r\n    modifier auctionNotExist(address tokenAddress, uint256 tokenId) {\r\n        uint256 auctionId = tokenIdToAuctionId[tokenAddress][tokenId];\r\n        Item memory item = items[auctionId];\r\n        require(item.exists != true, \"Auction Exists\");\r\n        _;\r\n    }\r\n\r\n    modifier auctionStarted(uint256 auctionId) {\r\n        Item memory item = items[auctionId];\r\n        require(block.timestamp > item.createdTs, \"Auction not started\");\r\n        _;\r\n    }\r\n\r\n    modifier auctionNotEnded(uint256 auctionId) {\r\n        Item memory item = items[auctionId];\r\n        require(block.timestamp <= item.deadline, \"Auction ended\");\r\n        _;\r\n    }\r\n\r\n    modifier auctionEnded(uint256 auctionId) {\r\n        Item memory item = items[auctionId];\r\n        require(block.timestamp > item.deadline, \"Auction not ended\");\r\n        _;\r\n    }\r\n\r\n    modifier auctionExist(uint256 auctionId) {\r\n        Item memory item = items[auctionId];\r\n        require(item.exists, \"Auction does not exist\");\r\n        _;\r\n    }\r\n\r\n    // Auction event\r\n    event AddItem(uint256 auctionId, address tokenAddress, uint256 tokenId, string uri, uint256 price, address creator, uint256 deadline);\r\n    event ItemCancel(uint256 auctionId);\r\n    event PlacedBid(uint256 auctionId, address bidder, uint256 bidPrice, address tokenAddress, uint256 tokenId, uint256 bidderId);\r\n    event SoldOut(uint256 auctionId, uint256 soldPrice, address seller, address winner);\r\n    event CancelBid(uint256 auctionId, uint256 bidderId, address bidCreator);\r\n\r\n    // Offer event\r\n    event OfferCreated(address tokenAddress, uint256 tokenId, address creator, uint256 offerPrice, string uri, uint256 deadline);\r\n    event OfferSoldOut(address tokenAddress, uint256 tokenId, address seller, address buyer, uint256 offerPrice);\r\n    event OfferCancel(address tokenAddress, uint256 tokenId, address creator);\r\n    \r\n    constructor(address _nichoNFT) {\r\n        NichoNFT = INichoNFT(_nichoNFT);\r\n    }\r\n\r\n    receive() external payable {}\r\n\r\n    function addAuctionItem(ItemParam memory itemParam) \r\n        tokenOwner(itemParam.tokenAddress, itemParam.tokenId)\r\n        auctionNotExist(itemParam.tokenAddress, itemParam.tokenId)\r\n        external {\r\n            uint256 itemDeadLine = itemParam.deadline;\r\n            uint256 itemPrice = itemParam.desiredMinPrice;\r\n\r\n            require(itemDeadLine > block.timestamp, \"Invalid deadline\");\r\n\r\n            IOERC721 tokenObject = IOERC721(itemParam.tokenAddress);\r\n            // require(tokenObject.getApproved(tokenId) == address(this), \"Token should be approved\");\r\n\r\n            string memory uri = tokenObject.tokenURI(itemParam.tokenId);\r\n\r\n            auctionCounter++;\r\n            uint256 auctionId = auctionCounter;\r\n            {\r\n                Item storage item = items[auctionId];\r\n                item.creator = msg.sender;\r\n                item.tokenAddress = itemParam.tokenAddress;\r\n                item.tokenId = itemParam.tokenId;\r\n                item.uri = uri;\r\n                item.highPrice = itemPrice;\r\n                item.deadline = itemDeadLine;\r\n                item.createdTs = block.timestamp;\r\n                item.exists = true;\r\n            }\r\n            \r\n            tokenIdToAuctionId[itemParam.tokenAddress][itemParam.tokenId] = auctionCounter;\r\n\r\n            emit AddItem(auctionId, itemParam.tokenAddress, itemParam.tokenId, uri, itemPrice, msg.sender, itemDeadLine);\r\n    }\r\n\r\n    function cancelAuctionItem(uint256 auctionId)\r\n        auctionOwner(auctionId)\r\n        auctionExist(auctionId)\r\n        external {\r\n            Item storage item = items[auctionId];\r\n            item.exists = false;\r\n            emit ItemCancel(auctionId);\r\n    }\r\n\r\n    function placeBid(uint256 auctionId)\r\n        auctionExist(auctionId)\r\n        auctionStarted(auctionId)\r\n        auctionNotEnded(auctionId)\r\n        external payable {\r\n            Item storage item = items[auctionId];\r\n            IOERC721 nftToken = IOERC721(item.tokenAddress);\r\n            require(nftToken.ownerOf(item.tokenId) != msg.sender, \"Creator not able to place bid\");\r\n            require(msg.value > item.highPrice, \"Price need to be higher than highest bid price\");\r\n\r\n            item.highPrice = msg.value;\r\n            Buyer memory buyer = Buyer(msg.sender, msg.value);\r\n\r\n            uint256 bidderId = item.buyers.length;\r\n\r\n            item.buyers.push(buyer);\r\n\r\n            emit PlacedBid(auctionId, msg.sender, msg.value, item.tokenAddress, item.tokenId, bidderId);\r\n        }\r\n\r\n    function acceptBid(uint256 auctionId, uint256 bidderId)\r\n        auctionOwner(auctionId)\r\n        auctionExist(auctionId)\r\n        auctionEnded(auctionId)\r\n        external {\r\n            Item storage item = items[auctionId];\r\n            require(item.buyers.length >= bidderId + 1, \"Bidder does not exist\");\r\n            item.exists = false;\r\n            Buyer storage buyer = item.buyers[bidderId];\r\n            \r\n            if (IOERC721(item.tokenAddress).getApproved(item.tokenId) == address(this)) {\r\n                IOERC721(item.tokenAddress).safeTransferFrom(msg.sender, buyer.owner, item.tokenId);\r\n\r\n                bool isInWhiteList = NichoNFT.whitelist(msg.sender) || NichoNFT.whitelist(buyer.owner);\r\n                // commission cut\r\n                uint _commissionValue = buyer.bidPrice * NichoNFT.commissionFee() / NichoNFT.denominator() / 100 ;\r\n                if (isInWhiteList) _commissionValue = 0;\r\n                uint _sellerValue = buyer.bidPrice - _commissionValue;\r\n                if (_commissionValue > 0) {\r\n                    NichoNFT._feeAddress().transfer(_commissionValue);\r\n                }\r\n\r\n                payable(msg.sender).transfer(_sellerValue);\r\n                emit SoldOut(auctionId, buyer.bidPrice, msg.sender, buyer.owner);\r\n                emit CancelBid(auctionId, bidderId, buyer.owner);\r\n\r\n                buyer.bidPrice = 0;\r\n            } else {\r\n                revert(\"Approve NFT\");\r\n            }\r\n        }\r\n\r\n    \r\n    function cancelBid(uint256 auctionId, uint256 bidderId)\r\n        auctionEnded(auctionId)\r\n        external {\r\n\r\n            Buyer storage buyer = items[auctionId].buyers[bidderId];\r\n            require(buyer.owner == msg.sender, \"You are not allowed\");\r\n            require(buyer.bidPrice > 0, \"You already withdrawed\");\r\n            uint256 withdrawAmount = buyer.bidPrice;\r\n            buyer.bidPrice = 0;\r\n            \r\n            payable(msg.sender).transfer(withdrawAmount);\r\n            emit CancelBid(auctionId, bidderId, msg.sender);\r\n        }\r\n\r\n    \r\n    function getBidsByBidder(uint256 auctionId)\r\n        external view returns(Buyer[] memory){\r\n            Item memory item = items[auctionId];\r\n\r\n            Buyer[] memory buyers;\r\n            uint256 index = 0;\r\n            for(uint256 i = 0; i < item.buyers.length; i++) {\r\n                Buyer memory buyer = item.buyers[i];\r\n                if (buyer.owner == msg.sender && buyer.bidPrice > 0) {\r\n                    buyers[index] = buyer;\r\n                    index++;\r\n                }\r\n            }\r\n\r\n            return buyers;\r\n        }\r\n\r\n    function isNFTListedToAuction(address tokenAddress, uint256 tokenId)\r\n        external view returns(bool) {\r\n            // IOERC721 token = IOERC721(tokenAddress);\r\n            uint256 auctionId = tokenIdToAuctionId[tokenAddress][tokenId];\r\n            Item memory item = items[auctionId];\r\n            return item.exists;\r\n        }\r\n\r\n    function createOffer(address tokenAddress, uint256 tokenId, uint256 deadline) \r\n        external payable {\r\n            require(msg.value > 0, \"Invalid amount\");\r\n            require(deadline >= block.timestamp, \"Invalid deadline\");\r\n            \r\n            OfferItem storage item = offerItems[tokenAddress][tokenId][msg.sender];\r\n            require(item.price == 0 || item.isCancel, \"You already created offer\");\r\n\r\n            item.creator = msg.sender;\r\n            item.price = msg.value;\r\n            item.expireTs = deadline;\r\n            item.isCancel = false;\r\n            item.createdAt = block.timestamp;\r\n\r\n            IOERC721 tokenObject = IOERC721(tokenAddress);\r\n            string memory uri = tokenObject.tokenURI(tokenId);\r\n\r\n            emit OfferCreated(tokenAddress, tokenId, msg.sender, msg.value, uri, deadline);\r\n        }\r\n\r\n    function acceptOffer(address tokenAddress, uint256 tokenId, address offerCreator) \r\n        onlyTokenOwner(tokenAddress, tokenId)\r\n        external {\r\n            OfferItem storage item = offerItems[tokenAddress][tokenId][offerCreator];\r\n            require(item.isCancel == false, \"Offer creator withdrawed\");\r\n            require(item.expireTs >= block.timestamp, \"Offer already expired\");\r\n            if (IOERC721(tokenAddress).getApproved(tokenId) == address(this)) {\r\n                IOERC721(tokenAddress).safeTransferFrom(msg.sender, item.creator, tokenId);\r\n\r\n                bool isInWhiteList = NichoNFT.whitelist(msg.sender) || NichoNFT.whitelist(IOERC721(tokenAddress).ownerOf(tokenId));\r\n                // commission cut\r\n                uint _commissionValue = item.price * NichoNFT.commissionFee() / NichoNFT.denominator() / 100 ;\r\n                if (isInWhiteList) _commissionValue = 0;\r\n                uint _sellerValue = item.price - _commissionValue;\r\n                if (_commissionValue > 0) {\r\n                    NichoNFT._feeAddress().transfer(_commissionValue);\r\n                }\r\n                payable(msg.sender).transfer(_sellerValue);\r\n                item.isCancel = true;\r\n            } else {\r\n                revert(\"Approve NFT\");\r\n            }\r\n\r\n            emit OfferSoldOut(tokenAddress, tokenId, msg.sender, item.creator, item.price);\r\n        }\r\n\r\n    function cancelOffer(address tokenAddress, uint256 tokenId)\r\n        external {\r\n            OfferItem storage item = offerItems[tokenAddress][tokenId][msg.sender];\r\n            require(item.isCancel == false, \"Already cancel\");\r\n            item.isCancel = true;\r\n\r\n            payable(msg.sender).transfer(item.price);\r\n            emit OfferCancel(tokenAddress, tokenId, msg.sender);\r\n        }\r\n\r\n    function withdrawETH(uint256 amount) external onlyOwner {\r\n        uint256 ethAmount = address(this).balance;\r\n        require(ethAmount >= amount, \"Insufficient amount\");\r\n        payable(msg.sender).transfer(amount);\r\n    }\r\n\r\n    // Withdraw ERC20 tokens\r\n    // For unusual case, if customers sent their any ERC20 tokens into marketplace, we need to send it back to them\r\n    function withdrawTokens(address _token, uint256 _amount) external onlyOwner {\r\n        require(IERC20(_token).balanceOf(address(this)) >= _amount, \"Wrong amount\");\r\n\r\n        IERC20(_token).transfer(msg.sender, _amount);\r\n    }\r\n    // For unusual case,\r\n    function withdrawBNB() external onlyOwner {\r\n        payable(msg.sender).transfer(address(this).balance);\r\n    }\r\n}\r\n",
  "sourcePath": "F:\\workBlockchain\\project\\2022-GogglesNFT\\contacts\\newcontract\\contracts\\NichoAuction.sol",
  "compiler": {
    "name": "solc",
    "version": "0.8.11+commit.d7f03943.Emscripten.clang"
  },
  "schemaVersion": "3.4.7",
  "updatedAt": "2022-05-24T05:31:17.687Z",
  "networkType": "ethereum",
  "devdoc": {
    "kind": "dev",
    "methods": {
      "owner()": {
        "details": "Returns the address of the current owner."
      },
      "renounceOwnership()": {
        "details": "Leaves the contract without owner. It will not be possible to call `onlyOwner` functions anymore. Can only be called by the current owner. NOTE: Renouncing ownership will leave the contract without an owner, thereby removing any functionality that is only available to the owner."
      },
      "transferOwnership(address)": {
        "details": "Transfers ownership of the contract to a new account (`newOwner`). Can only be called by the current owner."
      }
    },
    "version": 1
  },
  "userdoc": {
    "kind": "user",
    "methods": {},
    "version": 1
  }
}