{
  "contractName": "NichoNFTMarketplace",
  "abi": [
    {
      "inputs": [
        {
          "internalType": "contract INFTBlackList",
          "name": "_blacklist",
          "type": "address"
        },
        {
          "internalType": "contract IERC20",
          "name": "_nicho",
          "type": "address"
        }
      ],
      "stateMutability": "nonpayable",
      "type": "constructor"
    },
    {
      "anonymous": false,
      "inputs": [
        {
          "indexed": false,
          "internalType": "address",
          "name": "token_address",
          "type": "address"
        },
        {
          "indexed": false,
          "internalType": "uint256",
          "name": "token_id",
          "type": "uint256"
        },
        {
          "indexed": true,
          "internalType": "address",
          "name": "owner",
          "type": "address"
        },
        {
          "indexed": false,
          "internalType": "bool",
          "name": "is_listed",
          "type": "bool"
        }
      ],
      "name": "ListCancel",
      "type": "event"
    },
    {
      "anonymous": false,
      "inputs": [
        {
          "indexed": false,
          "internalType": "address",
          "name": "token_address",
          "type": "address"
        },
        {
          "indexed": false,
          "internalType": "uint256",
          "name": "token_id",
          "type": "uint256"
        },
        {
          "indexed": true,
          "internalType": "address",
          "name": "owner",
          "type": "address"
        },
        {
          "indexed": false,
          "internalType": "uint256",
          "name": "price",
          "type": "uint256"
        },
        {
          "indexed": false,
          "internalType": "enum IHelper.PayType",
          "name": "pay_type",
          "type": "uint8"
        }
      ],
      "name": "ListNFT",
      "type": "event"
    },
    {
      "anonymous": false,
      "inputs": [
        {
          "indexed": true,
          "internalType": "address",
          "name": "previousOwner",
          "type": "address"
        },
        {
          "indexed": true,
          "internalType": "address",
          "name": "newOwner",
          "type": "address"
        }
      ],
      "name": "OwnershipTransferred",
      "type": "event"
    },
    {
      "anonymous": false,
      "inputs": [
        {
          "indexed": false,
          "internalType": "address",
          "name": "token_address",
          "type": "address"
        },
        {
          "indexed": false,
          "internalType": "uint256",
          "name": "token_id",
          "type": "uint256"
        },
        {
          "indexed": true,
          "internalType": "address",
          "name": "owner",
          "type": "address"
        },
        {
          "indexed": false,
          "internalType": "uint256",
          "name": "old_price",
          "type": "uint256"
        },
        {
          "indexed": false,
          "internalType": "uint256",
          "name": "new_price",
          "type": "uint256"
        },
        {
          "indexed": false,
          "internalType": "enum IHelper.PayType",
          "name": "pay_type",
          "type": "uint8"
        }
      ],
      "name": "PriceUpdate",
      "type": "event"
    },
    {
      "anonymous": false,
      "inputs": [
        {
          "indexed": false,
          "internalType": "address",
          "name": "token_address",
          "type": "address"
        },
        {
          "indexed": false,
          "internalType": "uint256",
          "name": "token_id",
          "type": "uint256"
        },
        {
          "indexed": true,
          "internalType": "address",
          "name": "previous_owner",
          "type": "address"
        },
        {
          "indexed": true,
          "internalType": "address",
          "name": "new_owner",
          "type": "address"
        },
        {
          "indexed": false,
          "internalType": "uint256",
          "name": "price",
          "type": "uint256"
        },
        {
          "indexed": false,
          "internalType": "enum IHelper.PayType",
          "name": "pay_type",
          "type": "uint8"
        }
      ],
      "name": "TradeActivity",
      "type": "event"
    },
    {
      "inputs": [],
      "name": "blacklistContract",
      "outputs": [
        {
          "internalType": "contract INFTBlackList",
          "name": "",
          "type": "address"
        }
      ],
      "stateMutability": "view",
      "type": "function"
    },
    {
      "inputs": [
        {
          "internalType": "address",
          "name": "",
          "type": "address"
        },
        {
          "internalType": "uint256",
          "name": "",
          "type": "uint256"
        }
      ],
      "name": "items",
      "outputs": [
        {
          "internalType": "bool",
          "name": "isListed",
          "type": "bool"
        },
        {
          "internalType": "uint256",
          "name": "price",
          "type": "uint256"
        },
        {
          "internalType": "enum IHelper.PayType",
          "name": "payType",
          "type": "uint8"
        }
      ],
      "stateMutability": "view",
      "type": "function"
    },
    {
      "inputs": [],
      "name": "nicho",
      "outputs": [
        {
          "internalType": "contract IERC20",
          "name": "",
          "type": "address"
        }
      ],
      "stateMutability": "view",
      "type": "function"
    },
    {
      "inputs": [],
      "name": "owner",
      "outputs": [
        {
          "internalType": "address",
          "name": "",
          "type": "address"
        }
      ],
      "stateMutability": "view",
      "type": "function"
    },
    {
      "inputs": [],
      "name": "renounceOwnership",
      "outputs": [],
      "stateMutability": "nonpayable",
      "type": "function"
    },
    {
      "inputs": [
        {
          "internalType": "address",
          "name": "newOwner",
          "type": "address"
        }
      ],
      "name": "transferOwnership",
      "outputs": [],
      "stateMutability": "nonpayable",
      "type": "function"
    },
    {
      "stateMutability": "payable",
      "type": "receive"
    },
    {
      "inputs": [
        {
          "internalType": "address",
          "name": "tokenAddress",
          "type": "address"
        },
        {
          "internalType": "uint256",
          "name": "tokenId",
          "type": "uint256"
        },
        {
          "internalType": "uint256",
          "name": "askingPrice",
          "type": "uint256"
        },
        {
          "internalType": "enum IHelper.PayType",
          "name": "_payType",
          "type": "uint8"
        }
      ],
      "name": "listItemToMarket",
      "outputs": [],
      "stateMutability": "nonpayable",
      "type": "function"
    },
    {
      "inputs": [
        {
          "internalType": "address",
          "name": "tokenAddress",
          "type": "address"
        },
        {
          "internalType": "uint256",
          "name": "tokenId",
          "type": "uint256"
        },
        {
          "internalType": "uint256",
          "name": "price",
          "type": "uint256"
        },
        {
          "internalType": "enum IHelper.PayType",
          "name": "payType",
          "type": "uint8"
        }
      ],
      "name": "updateListing",
      "outputs": [
        {
          "internalType": "bool",
          "name": "",
          "type": "bool"
        }
      ],
      "stateMutability": "nonpayable",
      "type": "function"
    },
    {
      "inputs": [
        {
          "internalType": "address",
          "name": "tokenAddress",
          "type": "address"
        },
        {
          "internalType": "uint256",
          "name": "tokenId",
          "type": "uint256"
        }
      ],
      "name": "buy",
      "outputs": [],
      "stateMutability": "payable",
      "type": "function"
    },
    {
      "inputs": [
        {
          "internalType": "address",
          "name": "_token",
          "type": "address"
        },
        {
          "internalType": "uint256",
          "name": "_amount",
          "type": "uint256"
        }
      ],
      "name": "withdrawTokens",
      "outputs": [],
      "stateMutability": "nonpayable",
      "type": "function"
    },
    {
      "inputs": [],
      "name": "withdrawBNB",
      "outputs": [],
      "stateMutability": "nonpayable",
      "type": "function"
    }
  ],
  "bytecode": "0x60806040523480156200001157600080fd5b506040516200189b3803806200189b8339810160408190526200003491620000de565b6200003f3362000075565b60018055600280546001600160a01b039384166001600160a01b031991821617909155600380549290931691161790556200011d565b600080546001600160a01b038381166001600160a01b0319831681178455604051919092169283917f8be0079c531659141344cd1fd0a4f28419497f9722a3daafe3b4186f6b6457e09190a35050565b6001600160a01b0381168114620000db57600080fd5b50565b60008060408385031215620000f257600080fd5b8251620000ff81620000c5565b60208401519092506200011281620000c5565b809150509250929050565b61176e806200012d6000396000f3fe6080604052600436106100a05760003560e01c8063715018a611610064578063715018a61461019f5780638da5cb5b146101b4578063bbf8d022146101d2578063cce7ec1314610202578063f2fde38b14610215578063f3e1a4df1461023557600080fd5b806306b091f9146100ac5780631d111d13146100ce57806336047330146100e35780635c80a435146101035780636dd6078d1461016757600080fd5b366100a757005b600080fd5b3480156100b857600080fd5b506100cc6100c73660046114da565b610255565b005b3480156100da57600080fd5b506100cc61037f565b3480156100ef57600080fd5b506100cc6100fe366004611506565b6103b6565b34801561010f57600080fd5b5061014f61011e3660046114da565b600460209081526000928352604080842090915290825290208054600182015460029092015460ff91821692911683565b60405161015e9392919061158c565b60405180910390f35b34801561017357600080fd5b50600354610187906001600160a01b031681565b6040516001600160a01b03909116815260200161015e565b3480156101ab57600080fd5b506100cc6106a1565b3480156101c057600080fd5b506000546001600160a01b0316610187565b3480156101de57600080fd5b506101f26101ed366004611506565b6106b5565b604051901515815260200161015e565b6100cc6102103660046114da565b610b98565b34801561022157600080fd5b506100cc6102303660046115b1565b610e40565b34801561024157600080fd5b50600254610187906001600160a01b031681565b61025d610eb6565b6040516370a0823160e01b815230600482015281906001600160a01b038416906370a0823190602401602060405180830381865afa1580156102a3573d6000803e3d6000fd5b505050506040513d601f19601f820116820180604052508101906102c791906115ce565b10156103095760405162461bcd60e51b815260206004820152600c60248201526b15dc9bdb99c8185b5bdd5b9d60a21b60448201526064015b60405180910390fd5b60405163a9059cbb60e01b8152336004820152602481018290526001600160a01b0383169063a9059cbb906044016020604051808303816000875af1158015610356573d6000803e3d6000fd5b505050506040513d601f19601f8201168201806040525081019061037a91906115e7565b505050565b610387610eb6565b60405133904780156108fc02916000818181858888f193505050501580156103b3573d6000803e3d6000fd5b50565b6002546040516360ed86e760e11b81526001600160a01b038087166004830152602482018690528692869291169063c1db0dce90604401602060405180830381865afa15801561040a573d6000803e3d6000fd5b505050506040513d601f19601f8201168201806040525081019061042e91906115e7565b1561044b5760405162461bcd60e51b815260040161030090611609565b85856000826001600160a01b0316636352211e836040518263ffffffff1660e01b815260040161047d91815260200190565b602060405180830381865afa15801561049a573d6000803e3d6000fd5b505050506040513d601f19601f820116820180604052508101906104be9190611640565b90506001600160a01b03811633146104e85760405162461bcd60e51b81526004016103009061165d565b60028660028111156104fc576104fc611554565b141561053d5760405162461bcd60e51b815260206004820152601060248201526f496e76616c696420706179207479706560801b6044820152606401610300565b60405163020604bf60e21b815260048101899052899030906001600160a01b0383169063081812fc90602401602060405180830381865afa158015610586573d6000803e3d6000fd5b505050506040513d601f19601f820116820180604052508101906105aa9190611640565b6001600160a01b0316146105f55760405162461bcd60e51b8152602060048201526012602482015271119a5c9cdd0b08105c1c1c9bdd994813919560721b6044820152606401610300565b6001600160a01b038a1660009081526004602090815260408083208c8452909152902060018082018a9055600280830180548b93919260ff199091169190849081111561064457610644611554565b0217905550805460ff1916600117815560405133907f43419220d6710ca6e5645d1ed915d4b2b6b38dea95a4629c761599315ea1b3c69061068c908e908e908e908e906116a3565b60405180910390a25050505050505050505050565b6106a9610eb6565b6106b36000610f10565b565b6002546040516360ed86e760e11b81526001600160a01b03808716600483015260248201869052600092879287929091169063c1db0dce90604401602060405180830381865afa15801561070d573d6000803e3d6000fd5b505050506040513d601f19601f8201168201806040525081019061073191906115e7565b1561074e5760405162461bcd60e51b815260040161030090611609565b86866000826001600160a01b0316636352211e836040518263ffffffff1660e01b815260040161078091815260200190565b602060405180830381865afa15801561079d573d6000803e3d6000fd5b505050506040513d601f19601f820116820180604052508101906107c19190611640565b90506001600160a01b03811633146107eb5760405162461bcd60e51b81526004016103009061165d565b8989600060046000846001600160a01b03166001600160a01b0316815260200190815260200160002060008381526020019081526020016000206040518060600160405290816000820160009054906101000a900460ff16151515158152602001600182015481526020016002820160009054906101000a900460ff16600281111561087957610879611554565b600281111561088a5761088a611554565b905250805190915015156001146108e35760405162461bcd60e51b815260206004820181905260248201527f546f6b656e3a206e6f74206c6973746564206f6e206d61726b6574706c6163656044820152606401610300565b6001600160a01b038d1660009081526004602090815260408083208f845290915290208c8e8d8d8161097757845460ff19908116865560028087018054909216179055604080516001600160a01b038516815260208101869052600081830152905133917f7d2db2e6e4cacca1d4dcf19357b1966f202d7f9a40cd5869fcbba517693cb458919081900360600190a2610b7f565b600281600281111561098b5761098b611554565b14156109cc5760405162461bcd60e51b815260206004820152601060248201526f496e76616c696420706179207479706560801b6044820152606401610300565b60405163020604bf60e21b815260048101859052839030906001600160a01b0383169063081812fc90602401602060405180830381865afa158015610a15573d6000803e3d6000fd5b505050506040513d601f19601f82011682018060405250810190610a399190611640565b6001600160a01b031614610a845760405162461bcd60e51b8152602060048201526012602482015271119a5c9cdd0b08105c1c1c9bdd994813919560721b6044820152606401610300565b6001860154600287015460ff168482141580610ac25750836002811115610aad57610aad611554565b816002811115610abf57610abf611554565b14155b610b075760405162461bcd60e51b8152602060048201526016602482015275151a1a5cc81c1c9a58d948185b1c9958591e481cd95d60521b6044820152606401610300565b838860020160006101000a81548160ff02191690836002811115610b2d57610b2d611554565b02179055506001880185905560405133907fa35665ee12c5ee73cffb97094a28175a75c21ad364f67a663e9ded80c7ea199a90610b739089908b9087908b908b906116d7565b60405180910390a25050505b60019d5050505050505050505050505050949350505050565b60026001541415610beb5760405162461bcd60e51b815260206004820152601f60248201527f5265656e7472616e637947756172643a207265656e7472616e742063616c6c006044820152606401610300565b60026001819055546040516360ed86e760e11b81526001600160a01b038085166004830152602482018490528492849291169063c1db0dce90604401602060405180830381865afa158015610c44573d6000803e3d6000fd5b505050506040513d601f19601f82011682018060405250810190610c6891906115e7565b15610c855760405162461bcd60e51b815260040161030090611609565b6001600160a01b038416600090815260046020908152604080832086845282528083208151606081018352815460ff908116151582526001830154948201949094526002808301548a968a969095939493850192911690811115610ceb57610ceb611554565b6002811115610cfc57610cfc611554565b90525080519091501515600114610d555760405162461bcd60e51b815260206004820181905260248201527f546f6b656e3a206e6f74206c6973746564206f6e206d61726b6574706c6163656044820152606401610300565b610d628787600034610f60565b6040516331a9108f60e11b81526004810187905287906000906001600160a01b03831690636352211e90602401602060405180830381865afa158015610dac573d6000803e3d6000fd5b505050506040513d601f19601f82011682018060405250810190610dd09190611640565b905033610dde8a8a3461125c565b806001600160a01b0316826001600160a01b03167f49629749471eff4140e01fc33cf3eeaaa0d54db1ade24a5aee37304396fa33e28c8c346000604051610e2894939291906116a3565b60405180910390a35050600180555050505050505050565b610e48610eb6565b6001600160a01b038116610ead5760405162461bcd60e51b815260206004820152602660248201527f4f776e61626c653a206e6577206f776e657220697320746865207a65726f206160448201526564647265737360d01b6064820152608401610300565b6103b381610f10565b6000546001600160a01b031633146106b35760405162461bcd60e51b815260206004820181905260248201527f4f776e61626c653a2063616c6c6572206973206e6f7420746865206f776e65726044820152606401610300565b600080546001600160a01b038381166001600160a01b0319831681178455604051919092169283917f8be0079c531659141344cd1fd0a4f28419497f9722a3daafe3b4186f6b6457e09190a35050565b60405163020604bf60e21b815260048101849052849030906001600160a01b0383169063081812fc90602401602060405180830381865afa158015610fa9573d6000803e3d6000fd5b505050506040513d601f19601f82011682018060405250810190610fcd9190611640565b6001600160a01b0316146110235760405162461bcd60e51b815260206004820152601860248201527f4e6f7420617070726f7665642066726f6d206f776e65722e00000000000000006044820152606401610300565b6040516331a9108f60e11b81526004810185905233906001600160a01b03831690636352211e90602401602060405180830381865afa15801561106a573d6000803e3d6000fd5b505050506040513d601f19601f8201168201806040525081019061108e9190611640565b6001600160a01b031614156110f05760405162461bcd60e51b815260206004820152602260248201527f546f6b656e206f776e65722063616e206e6f742062757920796f7572204e4654604482015261399760f11b6064820152608401610300565b6001600160a01b038516600090815260046020908152604080832087845282528083208151606081018352815460ff9081161515825260018301549482019490945260028083015491949293850192919091169081111561115357611153611554565b600281111561116457611164611554565b905250905083600281111561117b5761117b611554565b8160400151600281111561119157611191611554565b146111f25760405162461bcd60e51b815260206004820152602b60248201527f436f696e2074797065206973206e6f7420636f727265637420666f722074686960448201526a3990383ab931b430b9b29760a91b6064820152608401610300565b80602001518310156112545760405162461bcd60e51b815260206004820152602560248201527f4572726f722c2074686520616d6f756e74206973206c6f776572207468616e20604482015264707269636560d81b6064820152608401610300565b505050505050565b6040516331a9108f60e11b815260048101839052839033906000906001600160a01b03841690636352211e90602401602060405180830381865afa1580156112a8573d6000803e3d6000fd5b505050506040513d601f19601f820116820180604052508101906112cc9190611640565b6001600160a01b038716600090815260046020908152604080832089845290915281206001810154929350919061130387836114b2565b9050600060028085015460ff169081111561132057611320611554565b14156113a0576040516001600160a01b0385169083156108fc029084906000818181858888f1935050505015801561135c573d6000803e3d6000fd5b50801561139b576040516001600160a01b0386169082156108fc029083906000818181858888f19350505050158015611399573d6000803e3d6000fd5b505b61141f565b6003546040516323b872dd60e01b81523360048201526001600160a01b03868116602483015260448201859052909116906323b872dd906064016020604051808303816000875af11580156113f9573d6000803e3d6000fd5b505050506040513d601f19601f8201168201806040525081019061141d91906115e7565b505b604051632142170760e11b81526001600160a01b038581166004830152336024830152604482018a90528716906342842e0e90606401600060405180830381600087803b15801561146f57600080fd5b505af1158015611483573d6000803e3d6000fd5b5050845460ff199081168655600060018701556002958601805490911690951790945550505050505050505050565b60006114be8284611713565b9392505050565b6001600160a01b03811681146103b357600080fd5b600080604083850312156114ed57600080fd5b82356114f8816114c5565b946020939093013593505050565b6000806000806080858703121561151c57600080fd5b8435611527816114c5565b9350602085013592506040850135915060608501356003811061154957600080fd5b939692955090935050565b634e487b7160e01b600052602160045260246000fd5b6003811061158857634e487b7160e01b600052602160045260246000fd5b9052565b831515815260208101839052606081016115a9604083018461156a565b949350505050565b6000602082840312156115c357600080fd5b81356114be816114c5565b6000602082840312156115e057600080fd5b5051919050565b6000602082840312156115f957600080fd5b815180151581146114be57600080fd5b60208082526018908201527f54686973204e465420697320696e20626c61636b4c6973740000000000000000604082015260600190565b60006020828403121561165257600080fd5b81516114be816114c5565b60208082526026908201527f546f6b656e204f776e65723a20796f7520617265206e6f74206120746f6b656e6040820152651037bbb732b960d11b606082015260800190565b6001600160a01b03851681526020810184905260408101839052608081016116ce606083018461156a565b95945050505050565b6001600160a01b038616815260208101859052604081018490526060810183905260a08101611709608083018461156a565b9695505050505050565b60008282101561173357634e487b7160e01b600052601160045260246000fd5b50039056fea264697066735822122006e7e76d93e0661a46d452b58793cf8d0d770618f5cb167f87db05b774e9c00664736f6c634300080b0033",
  "immutableReferences": {},
  "source": "/**\n * Submitted for verification at BscScan.com on 2022-09-28\n */\n\n// File: contracts/Marketplace.sol\n// SPDX-License-Identifier: MIT\n\npragma solidity >=0.6.0 <0.9.0;\n\n// Openzeppelin libraries\nimport \"@openzeppelin/contracts/access/Ownable.sol\";\nimport \"@openzeppelin/contracts/token/ERC20/IERC20.sol\";\nimport \"@openzeppelin/contracts/interfaces/IERC721.sol\";\nimport \"@openzeppelin/contracts/utils/Strings.sol\";\nimport \"@openzeppelin/contracts/utils/math/SafeMath.sol\";\nimport \"@openzeppelin/contracts/security/ReentrancyGuard.sol\";\n\n// Own interfaces\n// import \"./interfaces/INichoNFT.sol\";\nimport \"./interfaces/INFTBlackList.sol\";\nimport \"./interfaces/INichoNFTMarketplace.sol\";\n\n// NichoNFT marketplace\ncontract NichoNFTMarketplace is Ownable, INichoNFTMarketplace, ReentrancyGuard {\n    using Strings for uint256;\n    using SafeMath for uint256;\n\n    //-- Interfaces --//\n    // Blacklist\n    INFTBlackList public blacklistContract;\n    // NichoNFT\n    // INichoNFT public nichonftContract;\n    // NICHO Token\n    IERC20 public nicho;\n\n    // Listed item on marketplace\n    struct Item {\n        bool isListed;\n        uint256 price;\n        PayType payType;        \n    }\n\n    // token address => tokenId => item\n    mapping (address => mapping(uint256 => Item)) public items;\n\n\n    /**\n     * @dev Emitted when `token owner` cancel NFT from marketplace\n     */\n    event ListCancel(\n        address token_address, \n        uint token_id, \n        address indexed owner,  \n        bool is_listed\n    );\n\n    /**\n     * @dev Emitted when `token owner` update price of NFT to be listed\n     */\n    event PriceUpdate(\n        address token_address, \n        uint token_id, \n        address indexed owner, \n        uint old_price, \n        uint new_price,\n        PayType pay_type\n    );\n\n    /**\n     * @dev Emitted when `token owner` list NFT on marketplace\n     */\n    event ListNFT(\n        address token_address,\n        uint token_id,\n        address indexed owner, \n        uint price,\n        PayType pay_type\n    );\n\n    /**\n     * @dev Emitted when `token owner` list NFT on marketplace\n     */\n    event TradeActivity(\n        address token_address,\n        uint token_id,\n        address indexed previous_owner, \n        address indexed new_owner, \n        uint price,\n        PayType pay_type\n    );\n\n    // Initialize configurations\n    constructor(\n        INFTBlackList _blacklist, \n        // INichoNFT _nichonft,\n        IERC20 _nicho\n    ) {\n        blacklistContract = _blacklist;\n        // nichonftContract = _nichonft;\n        nicho = _nicho;\n    }\n    receive() external payable {}\n    \n    // Middleware to check if NFT is in blacklist\n    modifier notBlackList(address tokenAddress, uint256 tokenId) {\n        require(\n            blacklistContract.checkBlackList(tokenAddress, tokenId) == false, \n            \"This NFT is in blackList\"\n        );\n        _;\n    }\n\n    // Middleware to check if msg.sender is token owner\n    modifier onlyTokenOwner(address tokenAddress, uint256 tokenId) {\n        address tokenOwner = IERC721(tokenAddress).ownerOf(tokenId);\n\n        require(\n            tokenOwner == msg.sender,\n            \"Token Owner: you are not a token owner\"\n        );\n        _;\n    }\n\n    // Middleware to check if NFT is already listed on not.\n    modifier onlyListed(address tokenAddress, uint256 tokenId) {\n        Item memory item = items[tokenAddress][tokenId];\n\n        require(\n            item.isListed == true,\n            \"Token: not listed on marketplace\"\n        );\n        _;\n    }\n\n    // List an NFT/NFTs on marketplace as same price with fixed price sale\n    function listItemToMarket(\n        address tokenAddress, \n        uint256 tokenId, \n        uint256 askingPrice,\n        PayType _payType\n    ) external \n      notBlackList(tokenAddress, tokenId)  \n      onlyTokenOwner(tokenAddress, tokenId) \n    {\n        require(_payType != PayType.NONE, \"Invalid pay type\");\n\n        IERC721 tokenContract = IERC721(tokenAddress);\n        // Token owner need to approve NFT on Token Contract first so that Listing works.\n        require(tokenContract.getApproved(tokenId) == address(this), \"First, Approve NFT\");\n\n        Item storage item = items[tokenAddress][tokenId];\n        item.price = askingPrice;\n        item.payType = _payType;\n        item.isListed = true;\n\n        emit ListNFT(tokenAddress, tokenId, msg.sender, askingPrice, _payType);\n    }\n    \n    // Update owner's NFT price\n    function updateListing(\n        address tokenAddress, \n        uint tokenId, \n        uint price, \n        PayType payType\n    )   external\n        notBlackList(tokenAddress, tokenId) \n        onlyTokenOwner(tokenAddress, tokenId)\n        onlyListed(tokenAddress, tokenId)\n        returns (bool) \n    {\n        Item storage item = items[tokenAddress][tokenId];\n        // scope for _token{Id, Address}, price, avoids stack too deep errors\n        uint _tokenId = tokenId;\n        address _tokenAddress = tokenAddress;\n        uint _price = price;\n        PayType _payType = payType;\n\n        // If price is zero, it means unlist\n        if (_price == 0) {\n            item.isListed = false;\n            item.payType = PayType.NONE;\n\n            emit ListCancel(_tokenAddress, _tokenId, msg.sender, false);\n        } else {\n            require(_payType != PayType.NONE, \"Invalid pay type\");\n\n            IERC721 tokenContract = IERC721(_tokenAddress);\n            // Token owner need to approve NFT on Token Contract first so that Listing works.\n            require(tokenContract.getApproved(_tokenId) == address(this), \"First, Approve NFT\");\n\n            // Get old info for sale\n            uint oldPrice = item.price;\n            PayType oldPayType = item.payType;\n            // Validation\n            require(oldPrice != _price || oldPayType != _payType, \"This price already set\");\n\n            // Update price and pay type\n            item.payType = _payType;\n            item.price = _price;\n\n            emit PriceUpdate(_tokenAddress, _tokenId, msg.sender, oldPrice, _price, _payType);\n        }\n        return true;\n    }\n\n    /**\n     * @dev Purchase the listed NFT with BNB.\n     */\n    function buy(\n        address tokenAddress, \n        uint tokenId\n    ) external\n      payable \n      nonReentrant\n      notBlackList(tokenAddress, tokenId) \n      onlyListed(tokenAddress, tokenId)\n    {\n        _validate(tokenAddress, tokenId, PayType.BNB, msg.value);\n\n        IERC721 tokenContract = IERC721(tokenAddress);\n        address _previousOwner = tokenContract.ownerOf(tokenId);\n        address _newOwner = msg.sender;\n\n        _trade(tokenAddress, tokenId, msg.value);\n\n        emit TradeActivity(\n            tokenAddress,\n            tokenId,\n            _previousOwner, \n            _newOwner,\n            msg.value,\n            PayType.BNB\n        );\n    }\n\n    /**\n     * @dev Check validation for Trading conditions\n     * \n     * Requirement:\n     * \n     * - `amount` is token amount, should be greater than equal seller price\n     */\n    function _validate(\n        address tokenAddress, \n        uint tokenId, \n        PayType _payType, \n        uint256 amount\n    ) private view {\n        IERC721 tokenContract = IERC721(tokenAddress);\n        require(tokenContract.getApproved(tokenId) == address(this), \"Not approved from owner.\");\n        require(tokenContract.ownerOf(tokenId) != msg.sender, \"Token owner can not buy your NFTs.\");\n\n        Item memory item = items[tokenAddress][tokenId];\n        require(item.payType == _payType, \"Coin type is not correct for this purchase.\");\n        require(amount >= item.price, \"Error, the amount is lower than price\");        \n    }\n\n    /**\n     * @dev Execute Trading once condition meets.\n     * \n     * Requirement:\n     * \n     * - `amount` is token amount, should be greater than equal seller price\n     */\n    function _trade(address tokenAddress, uint tokenId, uint amount) internal {\n        IERC721 tokenContract = IERC721(tokenAddress);        \n\n        address payable _buyer = payable(msg.sender);\n        address _seller = tokenContract.ownerOf(tokenId);\n\n\n        Item storage item = items[tokenAddress][tokenId];\n        uint price = item.price;\n        uint remainAmount = amount.sub(price);\n\n        // Transfer coin to seller from buyer\n        if (item.payType == PayType.BNB) {\n            // From marketplace contract to seller\n            payable(_seller).transfer(price);\n\n            // If buyer sent more than price, we send them back their rest of funds\n            if (remainAmount >0) {\n                _buyer.transfer(remainAmount);\n            }\n\n        } else {\n            // Transfer NICHO from buyer to seller\n            nicho.transferFrom(msg.sender, _seller, price);\n\n            // If buyer sent more than price, it will be refunded back (remain amount)\n        }\n\n        // Transfer NFT from seller to buyer\n        tokenContract.safeTransferFrom(_seller, msg.sender, tokenId);\n\n        // Update Item\n        item.isListed = false;\n        item.price = 0;\n        item.payType = PayType.NONE;\n    }    \n\n    // Withdraw ERC20 tokens\n    // For unusual case, if customers sent their any ERC20 tokens into marketplace, we need to send it back to them\n    function withdrawTokens(address _token, uint256 _amount) external onlyOwner {\n        require(IERC20(_token).balanceOf(address(this)) >= _amount, \"Wrong amount\");\n\n        IERC20(_token).transfer(msg.sender, _amount);\n    }\n\n    // For unusual/emergency case,\n    function withdrawBNB() external onlyOwner {\n        payable(msg.sender).transfer(address(this).balance);\n    }\n}",
  "sourcePath": "/Users/coredev0927/WorkSpace/Blockchain/Evm/NichoNFT/NichoNFT-marketplace-contract/contracts/NichoNFTMarketplace.sol",
  "compiler": {
    "name": "solc",
    "version": "0.8.11+commit.d7f03943.Emscripten.clang"
  },
  "schemaVersion": "3.4.10",
  "updatedAt": "2022-09-28T19:30:05.527Z",
  "devdoc": {
    "events": {
      "ListCancel(address,uint256,address,bool)": {
        "details": "Emitted when `token owner` cancel NFT from marketplace"
      },
      "ListNFT(address,uint256,address,uint256,uint8)": {
        "details": "Emitted when `token owner` list NFT on marketplace"
      },
      "PriceUpdate(address,uint256,address,uint256,uint256,uint8)": {
        "details": "Emitted when `token owner` update price of NFT to be listed"
      },
      "TradeActivity(address,uint256,address,address,uint256,uint8)": {
        "details": "Emitted when `token owner` list NFT on marketplace"
      }
    },
    "kind": "dev",
    "methods": {
      "buy(address,uint256)": {
        "details": "Purchase the listed NFT with BNB."
      },
      "owner()": {
        "details": "Returns the address of the current owner."
      },
      "renounceOwnership()": {
        "details": "Leaves the contract without owner. It will not be possible to call `onlyOwner` functions anymore. Can only be called by the current owner. NOTE: Renouncing ownership will leave the contract without an owner, thereby removing any functionality that is only available to the owner."
      },
      "transferOwnership(address)": {
        "details": "Transfers ownership of the contract to a new account (`newOwner`). Can only be called by the current owner."
      }
    },
    "version": 1
  },
  "userdoc": {
    "kind": "user",
    "methods": {},
    "version": 1
  }
}