{
  "contractName": "NichoAuction",
  "abi": [
    {
      "inputs": [
        {
          "internalType": "address",
          "name": "_nichoNFT",
          "type": "address"
        }
      ],
      "stateMutability": "nonpayable",
      "type": "constructor"
    },
    {
      "anonymous": false,
      "inputs": [
        {
          "indexed": false,
          "internalType": "uint256",
          "name": "auctionId",
          "type": "uint256"
        },
        {
          "indexed": false,
          "internalType": "address",
          "name": "tokenAddress",
          "type": "address"
        },
        {
          "indexed": false,
          "internalType": "uint256",
          "name": "tokenId",
          "type": "uint256"
        },
        {
          "indexed": false,
          "internalType": "string",
          "name": "uri",
          "type": "string"
        },
        {
          "indexed": false,
          "internalType": "uint256",
          "name": "price",
          "type": "uint256"
        },
        {
          "indexed": false,
          "internalType": "address",
          "name": "creator",
          "type": "address"
        },
        {
          "indexed": false,
          "internalType": "uint256",
          "name": "deadline",
          "type": "uint256"
        }
      ],
      "name": "AddItem",
      "type": "event"
    },
    {
      "anonymous": false,
      "inputs": [
        {
          "indexed": false,
          "internalType": "uint256",
          "name": "auctionId",
          "type": "uint256"
        },
        {
          "indexed": false,
          "internalType": "uint256",
          "name": "bidderId",
          "type": "uint256"
        },
        {
          "indexed": false,
          "internalType": "address",
          "name": "bidCreator",
          "type": "address"
        }
      ],
      "name": "CancelBid",
      "type": "event"
    },
    {
      "anonymous": false,
      "inputs": [
        {
          "indexed": false,
          "internalType": "uint256",
          "name": "auctionId",
          "type": "uint256"
        }
      ],
      "name": "ItemCancel",
      "type": "event"
    },
    {
      "anonymous": false,
      "inputs": [
        {
          "indexed": false,
          "internalType": "address",
          "name": "tokenAddress",
          "type": "address"
        },
        {
          "indexed": false,
          "internalType": "uint256",
          "name": "tokenId",
          "type": "uint256"
        },
        {
          "indexed": false,
          "internalType": "address",
          "name": "creator",
          "type": "address"
        }
      ],
      "name": "OfferCancel",
      "type": "event"
    },
    {
      "anonymous": false,
      "inputs": [
        {
          "indexed": false,
          "internalType": "address",
          "name": "tokenAddress",
          "type": "address"
        },
        {
          "indexed": false,
          "internalType": "uint256",
          "name": "tokenId",
          "type": "uint256"
        },
        {
          "indexed": false,
          "internalType": "address",
          "name": "creator",
          "type": "address"
        },
        {
          "indexed": false,
          "internalType": "uint256",
          "name": "offerPrice",
          "type": "uint256"
        },
        {
          "indexed": false,
          "internalType": "string",
          "name": "uri",
          "type": "string"
        },
        {
          "indexed": false,
          "internalType": "uint256",
          "name": "deadline",
          "type": "uint256"
        }
      ],
      "name": "OfferCreated",
      "type": "event"
    },
    {
      "anonymous": false,
      "inputs": [
        {
          "indexed": false,
          "internalType": "address",
          "name": "tokenAddress",
          "type": "address"
        },
        {
          "indexed": false,
          "internalType": "uint256",
          "name": "tokenId",
          "type": "uint256"
        },
        {
          "indexed": false,
          "internalType": "address",
          "name": "seller",
          "type": "address"
        },
        {
          "indexed": false,
          "internalType": "address",
          "name": "buyer",
          "type": "address"
        },
        {
          "indexed": false,
          "internalType": "uint256",
          "name": "offerPrice",
          "type": "uint256"
        }
      ],
      "name": "OfferSoldOut",
      "type": "event"
    },
    {
      "anonymous": false,
      "inputs": [
        {
          "indexed": true,
          "internalType": "address",
          "name": "previousOwner",
          "type": "address"
        },
        {
          "indexed": true,
          "internalType": "address",
          "name": "newOwner",
          "type": "address"
        }
      ],
      "name": "OwnershipTransferred",
      "type": "event"
    },
    {
      "anonymous": false,
      "inputs": [
        {
          "indexed": false,
          "internalType": "uint256",
          "name": "auctionId",
          "type": "uint256"
        },
        {
          "indexed": false,
          "internalType": "address",
          "name": "bidder",
          "type": "address"
        },
        {
          "indexed": false,
          "internalType": "uint256",
          "name": "bidPrice",
          "type": "uint256"
        },
        {
          "indexed": false,
          "internalType": "address",
          "name": "tokenAddress",
          "type": "address"
        },
        {
          "indexed": false,
          "internalType": "uint256",
          "name": "tokenId",
          "type": "uint256"
        },
        {
          "indexed": false,
          "internalType": "uint256",
          "name": "bidderId",
          "type": "uint256"
        }
      ],
      "name": "PlacedBid",
      "type": "event"
    },
    {
      "anonymous": false,
      "inputs": [
        {
          "indexed": false,
          "internalType": "uint256",
          "name": "auctionId",
          "type": "uint256"
        },
        {
          "indexed": false,
          "internalType": "uint256",
          "name": "soldPrice",
          "type": "uint256"
        },
        {
          "indexed": false,
          "internalType": "address",
          "name": "seller",
          "type": "address"
        },
        {
          "indexed": false,
          "internalType": "address",
          "name": "winner",
          "type": "address"
        }
      ],
      "name": "SoldOut",
      "type": "event"
    },
    {
      "inputs": [],
      "name": "NichoNFT",
      "outputs": [
        {
          "internalType": "contract INichoNFT",
          "name": "",
          "type": "address"
        }
      ],
      "stateMutability": "view",
      "type": "function"
    },
    {
      "inputs": [],
      "name": "auctionCounter",
      "outputs": [
        {
          "internalType": "uint256",
          "name": "",
          "type": "uint256"
        }
      ],
      "stateMutability": "view",
      "type": "function"
    },
    {
      "inputs": [
        {
          "internalType": "uint256",
          "name": "",
          "type": "uint256"
        }
      ],
      "name": "items",
      "outputs": [
        {
          "internalType": "address",
          "name": "creator",
          "type": "address"
        },
        {
          "internalType": "address",
          "name": "tokenAddress",
          "type": "address"
        },
        {
          "internalType": "uint256",
          "name": "tokenId",
          "type": "uint256"
        },
        {
          "internalType": "string",
          "name": "uri",
          "type": "string"
        },
        {
          "internalType": "uint256",
          "name": "highPrice",
          "type": "uint256"
        },
        {
          "internalType": "uint256",
          "name": "deadline",
          "type": "uint256"
        },
        {
          "internalType": "uint256",
          "name": "createdTs",
          "type": "uint256"
        },
        {
          "internalType": "bool",
          "name": "exists",
          "type": "bool"
        }
      ],
      "stateMutability": "view",
      "type": "function"
    },
    {
      "inputs": [
        {
          "internalType": "address",
          "name": "",
          "type": "address"
        },
        {
          "internalType": "uint256",
          "name": "",
          "type": "uint256"
        },
        {
          "internalType": "address",
          "name": "",
          "type": "address"
        }
      ],
      "name": "offerItems",
      "outputs": [
        {
          "internalType": "address",
          "name": "creator",
          "type": "address"
        },
        {
          "internalType": "uint256",
          "name": "price",
          "type": "uint256"
        },
        {
          "internalType": "uint256",
          "name": "expireTs",
          "type": "uint256"
        },
        {
          "internalType": "uint256",
          "name": "createdAt",
          "type": "uint256"
        },
        {
          "internalType": "bool",
          "name": "isCancel",
          "type": "bool"
        }
      ],
      "stateMutability": "view",
      "type": "function"
    },
    {
      "inputs": [],
      "name": "owner",
      "outputs": [
        {
          "internalType": "address",
          "name": "",
          "type": "address"
        }
      ],
      "stateMutability": "view",
      "type": "function"
    },
    {
      "inputs": [],
      "name": "renounceOwnership",
      "outputs": [],
      "stateMutability": "nonpayable",
      "type": "function"
    },
    {
      "inputs": [
        {
          "internalType": "address",
          "name": "",
          "type": "address"
        },
        {
          "internalType": "uint256",
          "name": "",
          "type": "uint256"
        }
      ],
      "name": "tokenIdToAuctionId",
      "outputs": [
        {
          "internalType": "uint256",
          "name": "",
          "type": "uint256"
        }
      ],
      "stateMutability": "view",
      "type": "function"
    },
    {
      "inputs": [
        {
          "internalType": "address",
          "name": "newOwner",
          "type": "address"
        }
      ],
      "name": "transferOwnership",
      "outputs": [],
      "stateMutability": "nonpayable",
      "type": "function"
    },
    {
      "stateMutability": "payable",
      "type": "receive"
    },
    {
      "inputs": [
        {
          "components": [
            {
              "internalType": "address",
              "name": "tokenAddress",
              "type": "address"
            },
            {
              "internalType": "uint256",
              "name": "tokenId",
              "type": "uint256"
            },
            {
              "internalType": "uint256",
              "name": "desiredMinPrice",
              "type": "uint256"
            },
            {
              "internalType": "uint256",
              "name": "deadline",
              "type": "uint256"
            }
          ],
          "internalType": "struct NichoAuction.ItemParam",
          "name": "itemParam",
          "type": "tuple"
        }
      ],
      "name": "addAuctionItem",
      "outputs": [],
      "stateMutability": "nonpayable",
      "type": "function"
    },
    {
      "inputs": [
        {
          "internalType": "uint256",
          "name": "auctionId",
          "type": "uint256"
        }
      ],
      "name": "cancelAuctionItem",
      "outputs": [],
      "stateMutability": "nonpayable",
      "type": "function"
    },
    {
      "inputs": [
        {
          "internalType": "uint256",
          "name": "auctionId",
          "type": "uint256"
        }
      ],
      "name": "placeBid",
      "outputs": [],
      "stateMutability": "payable",
      "type": "function"
    },
    {
      "inputs": [
        {
          "internalType": "uint256",
          "name": "auctionId",
          "type": "uint256"
        },
        {
          "internalType": "uint256",
          "name": "bidderId",
          "type": "uint256"
        }
      ],
      "name": "acceptBid",
      "outputs": [],
      "stateMutability": "nonpayable",
      "type": "function"
    },
    {
      "inputs": [
        {
          "internalType": "uint256",
          "name": "auctionId",
          "type": "uint256"
        },
        {
          "internalType": "uint256",
          "name": "bidderId",
          "type": "uint256"
        }
      ],
      "name": "cancelBid",
      "outputs": [],
      "stateMutability": "nonpayable",
      "type": "function"
    },
    {
      "inputs": [
        {
          "internalType": "uint256",
          "name": "auctionId",
          "type": "uint256"
        }
      ],
      "name": "getBidsByBidder",
      "outputs": [
        {
          "components": [
            {
              "internalType": "address",
              "name": "owner",
              "type": "address"
            },
            {
              "internalType": "uint256",
              "name": "bidPrice",
              "type": "uint256"
            }
          ],
          "internalType": "struct NichoAuction.Buyer[]",
          "name": "",
          "type": "tuple[]"
        }
      ],
      "stateMutability": "view",
      "type": "function"
    },
    {
      "inputs": [
        {
          "internalType": "address",
          "name": "tokenAddress",
          "type": "address"
        },
        {
          "internalType": "uint256",
          "name": "tokenId",
          "type": "uint256"
        }
      ],
      "name": "isNFTListedToAuction",
      "outputs": [
        {
          "internalType": "bool",
          "name": "",
          "type": "bool"
        }
      ],
      "stateMutability": "view",
      "type": "function"
    },
    {
      "inputs": [
        {
          "internalType": "address",
          "name": "tokenAddress",
          "type": "address"
        },
        {
          "internalType": "uint256",
          "name": "tokenId",
          "type": "uint256"
        },
        {
          "internalType": "uint256",
          "name": "deadline",
          "type": "uint256"
        }
      ],
      "name": "createOffer",
      "outputs": [],
      "stateMutability": "payable",
      "type": "function"
    },
    {
      "inputs": [
        {
          "internalType": "address",
          "name": "tokenAddress",
          "type": "address"
        },
        {
          "internalType": "uint256",
          "name": "tokenId",
          "type": "uint256"
        },
        {
          "internalType": "address",
          "name": "offerCreator",
          "type": "address"
        }
      ],
      "name": "acceptOffer",
      "outputs": [],
      "stateMutability": "nonpayable",
      "type": "function"
    },
    {
      "inputs": [
        {
          "internalType": "address",
          "name": "tokenAddress",
          "type": "address"
        },
        {
          "internalType": "uint256",
          "name": "tokenId",
          "type": "uint256"
        }
      ],
      "name": "cancelOffer",
      "outputs": [],
      "stateMutability": "nonpayable",
      "type": "function"
    },
    {
      "inputs": [
        {
          "internalType": "uint256",
          "name": "amount",
          "type": "uint256"
        }
      ],
      "name": "withdrawETH",
      "outputs": [],
      "stateMutability": "nonpayable",
      "type": "function"
    },
    {
      "inputs": [
        {
          "internalType": "address",
          "name": "_token",
          "type": "address"
        },
        {
          "internalType": "uint256",
          "name": "_amount",
          "type": "uint256"
        }
      ],
      "name": "withdrawTokens",
      "outputs": [],
      "stateMutability": "nonpayable",
      "type": "function"
    },
    {
      "inputs": [],
      "name": "withdrawBNB",
      "outputs": [],
      "stateMutability": "nonpayable",
      "type": "function"
    }
  ],
  "bytecode": "0x608060405260006002553480156200001657600080fd5b5060405162003ce338038062003ce38339810160408190526200003991620000ba565b62000044336200006a565b600180546001600160a01b0319166001600160a01b0392909216919091179055620000ec565b600080546001600160a01b038381166001600160a01b0319831681178455604051919092169283917f8be0079c531659141344cd1fd0a4f28419497f9722a3daafe3b4186f6b6457e09190a35050565b600060208284031215620000cd57600080fd5b81516001600160a01b0381168114620000e557600080fd5b9392505050565b613be780620000fc6000396000f3fe60806040526004361061012e5760003560e01c80636d12e6e9116100ab578063a7e766441161006f578063a7e76644146103b9578063bfb231d2146103cf578063f14210a614610403578063f2d5d04514610423578063f2fde38b14610443578063f37794a91461046357600080fd5b80636d12e6e9146102fd578063715018a61461032d5780638da5cb5b146103425780639979ef45146103605780639ac756a61461037357600080fd5b80631d111d13116100f25780631d111d13146102505780633bbb2806146102655780634b393605146102855780634c629e34146102a5578063555d8aa8146102dd57600080fd5b806302e9d5e41461013a578063058a56ac1461015c57806306b091f91461017c57806308d6ec021461019c5780631c6c71281461023d57600080fd5b3661013557005b600080fd5b34801561014657600080fd5b5061015a610155366004613643565b610490565b005b34801561016857600080fd5b5061015a61017736600461367a565b61102e565b34801561018857600080fd5b5061015a61019736600461367a565b61112d565b3480156101a857600080fd5b506102046101b73660046136a6565b6005602090815260009384526040808520825292845282842090528252902080546001820154600283015460038401546004909401546001600160a01b0390931693919290919060ff1685565b604080516001600160a01b03909616865260208601949094529284019190915260608301521515608082015260a0015b60405180910390f35b61015a61024b3660046136e8565b611252565b34801561025c57600080fd5b5061015a611455565b34801561027157600080fd5b5061015a6102803660046136a6565b61148c565b34801561029157600080fd5b5061015a6102a0366004613643565b611ae5565b3480156102b157600080fd5b506001546102c5906001600160a01b031681565b6040516001600160a01b039091168152602001610234565b3480156102e957600080fd5b5061015a6102f8366004613733565b611e04565b34801561030957600080fd5b5061031d61031836600461367a565b61231c565b6040519015158152602001610234565b34801561033957600080fd5b5061015a6124cc565b34801561034e57600080fd5b506000546001600160a01b03166102c5565b61015a61036e3660046137a2565b6124e0565b34801561037f57600080fd5b506103ab61038e36600461367a565b600460209081526000928352604080842090915290825290205481565b604051908152602001610234565b3480156103c557600080fd5b506103ab60025481565b3480156103db57600080fd5b506103ef6103ea3660046137a2565b612cb6565b604051610234989796959493929190613817565b34801561040f57600080fd5b5061015a61041e3660046137a2565b612d92565b34801561042f57600080fd5b5061015a61043e3660046137a2565b612e0e565b34801561044f57600080fd5b5061015a61045e366004613875565b613250565b34801561046f57600080fd5b5061048361047e3660046137a2565b6132c6565b6040516102349190613899565b600082815260036020818152604080842081516101208101835281546001600160a01b0390811682526001830154169381019390935260028101549183019190915291820180548694939160608401916104e9906138f1565b80601f0160208091040260200160405190810160405280929190818152602001828054610515906138f1565b80156105625780601f1061053757610100808354040283529160200191610562565b820191906000526020600020905b81548152906001019060200180831161054557829003601f168201915b505050505081526020016004820154815260200160058201548152602001600682015481526020016007820160009054906101000a900460ff1615151515815260200160088201805480602002602001604051908101604052809291908181526020016000905b82821015610611576000848152602090819020604080518082019091526002850290910180546001600160a01b031682526001908101548284015290835290920191016105c9565b50505091525050602081015160408083015190516331a9108f60e11b815260048101919091529192509033906001600160a01b03831690636352211e90602401602060405180830381865afa15801561066e573d6000803e3d6000fd5b505050506040513d601f19601f82011682018060405250810190610692919061392c565b6001600160a01b0316146106e15760405162461bcd60e51b815260206004820152601160248201527027b7363c9020bab1ba34b7b727bbb732b960791b60448201526064015b60405180910390fd5b600085815260036020818152604080842081516101208101835281546001600160a01b03908116825260018301541693810193909352600281015491830191909152918201805489949391606084019161073a906138f1565b80601f0160208091040260200160405190810160405280929190818152602001828054610766906138f1565b80156107b35780601f10610788576101008083540402835291602001916107b3565b820191906000526020600020905b81548152906001019060200180831161079657829003601f168201915b505050505081526020016004820154815260200160058201548152602001600682015481526020016007820160009054906101000a900460ff1615151515815260200160088201805480602002602001604051908101604052809291908181526020016000905b82821015610862576000848152602090819020604080518082019091526002850290910180546001600160a01b0316825260019081015482840152908352909201910161081a565b505050508152505090508060e0015161088d5760405162461bcd60e51b81526004016106d890613949565b600087815260036020818152604080842081516101208101835281546001600160a01b0390811682526001830154169381019390935260028101549183019190915291820180548b94939160608401916108e6906138f1565b80601f0160208091040260200160405190810160405280929190818152602001828054610912906138f1565b801561095f5780601f106109345761010080835404028352916020019161095f565b820191906000526020600020905b81548152906001019060200180831161094257829003601f168201915b505050505081526020016004820154815260200160058201548152602001600682015481526020016007820160009054906101000a900460ff1615151515815260200160088201805480602002602001604051908101604052809291908181526020016000905b82821015610a0e576000848152602090819020604080518082019091526002850290910180546001600160a01b031682526001908101548284015290835290920191016109c6565b505050508152505090508060a001514211610a5f5760405162461bcd60e51b8152602060048201526011602482015270105d58dd1a5bdb881b9bdd08195b991959607a1b60448201526064016106d8565b6000898152600360205260409020610a7889600161398f565b60088201541015610ac35760405162461bcd60e51b8152602060048201526015602482015274109a5919195c88191bd95cc81b9bdd08195e1a5cdd605a1b60448201526064016106d8565b60078101805460ff19169055600881018054600091908b908110610ae957610ae96139a7565b60009182526020909120600184015460028086015460405163020604bf60e21b815260048101919091529302909101925030916001600160a01b039091169063081812fc90602401602060405180830381865afa158015610b4e573d6000803e3d6000fd5b505050506040513d601f19601f82011682018060405250810190610b72919061392c565b6001600160a01b03161415610feb57600182015481546002840154604051632142170760e11b81523360048201526001600160a01b03928316602482015260448101919091529116906342842e0e90606401600060405180830381600087803b158015610bde57600080fd5b505af1158015610bf2573d6000803e3d6000fd5b5050600154604051634d8c928d60e11b8152336004820152600093506001600160a01b039091169150639b19251a90602401602060405180830381865afa158015610c41573d6000803e3d6000fd5b505050506040513d601f19601f82011682018060405250810190610c6591906139bd565b80610cda57506001548254604051634d8c928d60e11b81526001600160a01b039182166004820152911690639b19251a90602401602060405180830381865afa158015610cb6573d6000803e3d6000fd5b505050506040513d601f19601f82011682018060405250810190610cda91906139bd565b905060006064600160009054906101000a90046001600160a01b03166001600160a01b03166396ce07956040518163ffffffff1660e01b8152600401602060405180830381865afa158015610d33573d6000803e3d6000fd5b505050506040513d601f19601f82011682018060405250810190610d5791906139df565b600160009054906101000a90046001600160a01b03166001600160a01b0316636fb1eb0c6040518163ffffffff1660e01b8152600401602060405180830381865afa158015610daa573d6000803e3d6000fd5b505050506040513d601f19601f82011682018060405250810190610dce91906139df565b8560010154610ddd91906139f8565b610de79190613a17565b610df19190613a17565b90508115610dfd575060005b6000818460010154610e0f9190613a39565b90508115610ec857600160009054906101000a90046001600160a01b03166001600160a01b0316630135f7406040518163ffffffff1660e01b8152600401602060405180830381865afa158015610e6a573d6000803e3d6000fd5b505050506040513d601f19601f82011682018060405250810190610e8e919061392c565b6001600160a01b03166108fc839081150290604051600060405180830381858888f19350505050158015610ec6573d6000803e3d6000fd5b505b604051339082156108fc029083906000818181858888f19350505050158015610ef5573d6000803e3d6000fd5b507f17bd5a4dc9b440b0804dcabc3369a419717be6dfbd23170766ee844d1faf465b8e8560010154338760000160009054906101000a90046001600160a01b0316604051610f68949392919093845260208401929092526001600160a01b03908116604084015216606082015260800190565b60405180910390a17fdcadc08d0c419e9b2218af6c9e64d42f3275244722cd48237abb80805b155ee48e8e8660000160009054906101000a90046001600160a01b0316604051610fd49392919092835260208301919091526001600160a01b0316604082015260600190565b60405180910390a150506000600183015550611021565b60405162461bcd60e51b815260206004820152600b60248201526a105c1c1c9bdd994813919560aa1b60448201526064016106d8565b5050505050505050505050565b6001600160a01b038216600090815260056020908152604080832084845282528083203384529091529020600481015460ff161561109f5760405162461bcd60e51b815260206004820152600e60248201526d105b1c9958591e4818d85b98d95b60921b60448201526064016106d8565b60048101805460ff19166001908117909155810154604051339180156108fc02916000818181858888f193505050501580156110df573d6000803e3d6000fd5b50604080516001600160a01b038516815260208101849052338183015290517fe5975fe84069bf7c31696ba71fe29d75192bd667c076b0d00c5730111001ba349181900360600190a1505050565b611135613500565b6040516370a0823160e01b815230600482015281906001600160a01b038416906370a0823190602401602060405180830381865afa15801561117b573d6000803e3d6000fd5b505050506040513d601f19601f8201168201806040525081019061119f91906139df565b10156111dc5760405162461bcd60e51b815260206004820152600c60248201526b15dc9bdb99c8185b5bdd5b9d60a21b60448201526064016106d8565b60405163a9059cbb60e01b8152336004820152602481018290526001600160a01b0383169063a9059cbb906044016020604051808303816000875af1158015611229573d6000803e3d6000fd5b505050506040513d601f19601f8201168201806040525081019061124d91906139bd565b505050565b600034116112935760405162461bcd60e51b815260206004820152600e60248201526d125b9d985b1a5908185b5bdd5b9d60921b60448201526064016106d8565b428110156112d65760405162461bcd60e51b815260206004820152601060248201526f496e76616c696420646561646c696e6560801b60448201526064016106d8565b6001600160a01b038316600090815260056020908152604080832085845282528083203384529091529020600181015415806113165750600481015460ff165b6113625760405162461bcd60e51b815260206004820152601960248201527f596f7520616c72656164792063726561746564206f666665720000000000000060448201526064016106d8565b80546001600160a01b03191633178155346001820155600281018290556004808201805460ff1916905542600383015560405163c87b56dd60e01b815285916000916001600160a01b0384169163c87b56dd916113c59189910190815260200190565b600060405180830381865afa1580156113e2573d6000803e3d6000fd5b505050506040513d6000823e601f3d908101601f1916820160405261140a9190810190613a50565b90507f44cbfd321d7e4807899a1e533545c3a1ad74c5fd360ed620760829a67f5c678b86863334858960405161144596959493929190613afd565b60405180910390a1505050505050565b61145d613500565b60405133904780156108fc02916000818181858888f19350505050158015611489573d6000803e3d6000fd5b50565b6040516331a9108f60e11b81526004810183905283908390829033906001600160a01b03831690636352211e90602401602060405180830381865afa1580156114d9573d6000803e3d6000fd5b505050506040513d601f19601f820116820180604052508101906114fd919061392c565b6001600160a01b0316146115465760405162461bcd60e51b815260206004820152601060248201526f27b7363c903a37b5b2b71037bbb732b960811b60448201526064016106d8565b6001600160a01b0380871660009081526005602090815260408083208984528252808320938816835292905220600481015460ff16156115c85760405162461bcd60e51b815260206004820152601860248201527f4f666665722063726561746f722077697468647261776564000000000000000060448201526064016106d8565b42816002015410156116145760405162461bcd60e51b815260206004820152601560248201527413d999995c88185b1c9958591e48195e1c1a5c9959605a1b60448201526064016106d8565b60405163020604bf60e21b81526004810187905230906001600160a01b0389169063081812fc90602401602060405180830381865afa15801561165b573d6000803e3d6000fd5b505050506040513d601f19601f8201168201806040525081019061167f919061392c565b6001600160a01b03161415610feb578054604051632142170760e11b81523360048201526001600160a01b03918216602482015260448101889052908816906342842e0e90606401600060405180830381600087803b1580156116e157600080fd5b505af11580156116f5573d6000803e3d6000fd5b5050600154604051634d8c928d60e11b8152336004820152600093506001600160a01b039091169150639b19251a90602401602060405180830381865afa158015611744573d6000803e3d6000fd5b505050506040513d601f19601f8201168201806040525081019061176891906139bd565b8061184d57506001546040516331a9108f60e11b8152600481018990526001600160a01b0391821691639b19251a91908b1690636352211e90602401602060405180830381865afa1580156117c1573d6000803e3d6000fd5b505050506040513d601f19601f820116820180604052508101906117e5919061392c565b6040516001600160e01b031960e084901b1681526001600160a01b039091166004820152602401602060405180830381865afa158015611829573d6000803e3d6000fd5b505050506040513d601f19601f8201168201806040525081019061184d91906139bd565b905060006064600160009054906101000a90046001600160a01b03166001600160a01b03166396ce07956040518163ffffffff1660e01b8152600401602060405180830381865afa1580156118a6573d6000803e3d6000fd5b505050506040513d601f19601f820116820180604052508101906118ca91906139df565b600160009054906101000a90046001600160a01b03166001600160a01b0316636fb1eb0c6040518163ffffffff1660e01b8152600401602060405180830381865afa15801561191d573d6000803e3d6000fd5b505050506040513d601f19601f8201168201806040525081019061194191906139df565b856001015461195091906139f8565b61195a9190613a17565b6119649190613a17565b90508115611970575060005b60008184600101546119829190613a39565b90508115611a3b57600160009054906101000a90046001600160a01b03166001600160a01b0316630135f7406040518163ffffffff1660e01b8152600401602060405180830381865afa1580156119dd573d6000803e3d6000fd5b505050506040513d601f19601f82011682018060405250810190611a01919061392c565b6001600160a01b03166108fc839081150290604051600060405180830381858888f19350505050158015611a39573d6000803e3d6000fd5b505b604051339082156108fc029083906000818181858888f19350505050158015611a68573d6000803e3d6000fd5b50505060048201805460ff191660011790555080546001820154604080516001600160a01b03808c168252602082018b905233928201929092529216606083015260808201527fe8a30f48188a266702d314961371d328f20a355b4ba0df7429b30023b9c9a4919060a0015b60405180910390a150505050505050565b600082815260036020818152604080842081516101208101835281546001600160a01b039081168252600183015416938101939093526002810154918301919091529182018054869493916060840191611b3e906138f1565b80601f0160208091040260200160405190810160405280929190818152602001828054611b6a906138f1565b8015611bb75780601f10611b8c57610100808354040283529160200191611bb7565b820191906000526020600020905b815481529060010190602001808311611b9a57829003601f168201915b505050505081526020016004820154815260200160058201548152602001600682015481526020016007820160009054906101000a900460ff1615151515815260200160088201805480602002602001604051908101604052809291908181526020016000905b82821015611c66576000848152602090819020604080518082019091526002850290910180546001600160a01b03168252600190810154828401529083529092019101611c1e565b505050508152505090508060a001514211611cb75760405162461bcd60e51b8152602060048201526011602482015270105d58dd1a5bdb881b9bdd08195b991959607a1b60448201526064016106d8565b6000848152600360205260408120600801805485908110611cda57611cda6139a7565b6000918252602090912060029091020180549091506001600160a01b03163314611d3c5760405162461bcd60e51b8152602060048201526013602482015272165bdd48185c99481b9bdd08185b1b1bddd959606a1b60448201526064016106d8565b6000816001015411611d895760405162461bcd60e51b8152602060048201526016602482015275165bdd48185b1c9958591e481dda5d1a191c985dd95960521b60448201526064016106d8565b6001810180546000918290556040519091339183156108fc0291849190818181858888f19350505050158015611dc3573d6000803e3d6000fd5b50604080518781526020810187905233918101919091527fdcadc08d0c419e9b2218af6c9e64d42f3275244722cd48237abb80805b155ee490606001611445565b805160208201516040516331a9108f60e11b81526004810182905282906001600160a01b03821690636352211e90602401602060405180830381865afa158015611e52573d6000803e3d6000fd5b505050506040513d601f19601f82011682018060405250810190611e76919061392c565b6001600160a01b0316336001600160a01b031614611ed65760405162461bcd60e51b815260206004820152601960248201527f596f7520617265206e6f74206120746f6b656e206f776e65720000000000000060448201526064016106d8565b83516020808601516001600160a01b0380841660009081526004845260408082208483528552808220548083526003808752828420835161012081018552815487168152600182015490961697860197909752600287015492850192909252908501805494959194929392606084019190611f50906138f1565b80601f0160208091040260200160405190810160405280929190818152602001828054611f7c906138f1565b8015611fc95780601f10611f9e57610100808354040283529160200191611fc9565b820191906000526020600020905b815481529060010190602001808311611fac57829003601f168201915b505050505081526020016004820154815260200160058201548152602001600682015481526020016007820160009054906101000a900460ff1615151515815260200160088201805480602002602001604051908101604052809291908181526020016000905b82821015612078576000848152602090819020604080518082019091526002850290910180546001600160a01b03168252600190810154828401529083529092019101612030565b5050509152505060e08101519091501515600114156120ca5760405162461bcd60e51b815260206004820152600e60248201526d41756374696f6e2045786973747360901b60448201526064016106d8565b606088015160408901514282116121165760405162461bcd60e51b815260206004820152601060248201526f496e76616c696420646561646c696e6560801b60448201526064016106d8565b895160208b015160405163c87b56dd60e01b81526000916001600160a01b0384169163c87b56dd9161214e9160040190815260200190565b600060405180830381865afa15801561216b573d6000803e3d6000fd5b505050506040513d6000823e601f3d908101601f191682016040526121939190810190613a50565b6002805491925060006121a583613b4a565b9190505550600060025490506000600360008381526020019081526020016000209050338160000160006101000a8154816001600160a01b0302191690836001600160a01b031602179055508d600001518160010160006101000a8154816001600160a01b0302191690836001600160a01b031602179055508d602001518160020181905550828160030190805190602001906122439291906135aa565b5084816004018190555085816005018190555042816006018190555060018160070160006101000a81548160ff02191690831515021790555050600254600460008f600001516001600160a01b03166001600160a01b0316815260200190815260200160002060008f602001518152602001908152602001600020819055507f4eec32c232e377e06bf5938eb4e9e044dab50764b490f022799915ee9a9782ab818e600001518f602001518588338b6040516123059796959493929190613b65565b60405180910390a150505050505050505050505050565b6001600160a01b03808316600090815260046020908152604080832085845282528083205480845260038084528285208351610120810185528154881681526001820154909716948701949094526002840154928601929092529082018054939491938593916060840191612390906138f1565b80601f01602080910402602001604051908101604052809291908181526020018280546123bc906138f1565b80156124095780601f106123de57610100808354040283529160200191612409565b820191906000526020600020905b8154815290600101906020018083116123ec57829003601f168201915b505050505081526020016004820154815260200160058201548152602001600682015481526020016007820160009054906101000a900460ff1615151515815260200160088201805480602002602001604051908101604052809291908181526020016000905b828210156124b8576000848152602090819020604080518082019091526002850290910180546001600160a01b03168252600190810154828401529083529092019101612470565b5050509152505060e0015195945050505050565b6124d4613500565b6124de600061355a565b565b600081815260036020818152604080842081516101208101835281546001600160a01b039081168252600183015416938101939093526002810154918301919091529182018054859493916060840191612539906138f1565b80601f0160208091040260200160405190810160405280929190818152602001828054612565906138f1565b80156125b25780601f10612587576101008083540402835291602001916125b2565b820191906000526020600020905b81548152906001019060200180831161259557829003601f168201915b505050505081526020016004820154815260200160058201548152602001600682015481526020016007820160009054906101000a900460ff1615151515815260200160088201805480602002602001604051908101604052809291908181526020016000905b82821015612661576000848152602090819020604080518082019091526002850290910180546001600160a01b03168252600190810154828401529083529092019101612619565b505050508152505090508060e0015161268c5760405162461bcd60e51b81526004016106d890613949565b600083815260036020818152604080842081516101208101835281546001600160a01b0390811682526001830154169381019390935260028101549183019190915291820180548794939160608401916126e5906138f1565b80601f0160208091040260200160405190810160405280929190818152602001828054612711906138f1565b801561275e5780601f106127335761010080835404028352916020019161275e565b820191906000526020600020905b81548152906001019060200180831161274157829003601f168201915b505050505081526020016004820154815260200160058201548152602001600682015481526020016007820160009054906101000a900460ff1615151515815260200160088201805480602002602001604051908101604052809291908181526020016000905b8282101561280d576000848152602090819020604080518082019091526002850290910180546001600160a01b031682526001908101548284015290835290920191016127c5565b505050508152505090508060c0015142116128605760405162461bcd60e51b8152602060048201526013602482015272105d58dd1a5bdb881b9bdd081cdd185c9d1959606a1b60448201526064016106d8565b600085815260036020818152604080842081516101208101835281546001600160a01b0390811682526001830154169381019390935260028101549183019190915291820180548994939160608401916128b9906138f1565b80601f01602080910402602001604051908101604052809291908181526020018280546128e5906138f1565b80156129325780601f1061290757610100808354040283529160200191612932565b820191906000526020600020905b81548152906001019060200180831161291557829003601f168201915b505050505081526020016004820154815260200160058201548152602001600682015481526020016007820160009054906101000a900460ff1615151515815260200160088201805480602002602001604051908101604052809291908181526020016000905b828210156129e1576000848152602090819020604080518082019091526002850290910180546001600160a01b03168252600190810154828401529083529092019101612999565b505050508152505090508060a00151421115612a2f5760405162461bcd60e51b815260206004820152600d60248201526c105d58dd1a5bdb88195b991959609a1b60448201526064016106d8565b600087815260036020526040908190206001810154600282015492516331a9108f60e11b815291926001600160a01b039091169133918391636352211e91612a7d9160040190815260200190565b602060405180830381865afa158015612a9a573d6000803e3d6000fd5b505050506040513d601f19601f82011682018060405250810190612abe919061392c565b6001600160a01b03161415612b155760405162461bcd60e51b815260206004820152601d60248201527f43726561746f72206e6f742061626c6520746f20706c6163652062696400000060448201526064016106d8565b81600401543411612b7f5760405162461bcd60e51b815260206004820152602e60248201527f5072696365206e65656420746f20626520686967686572207468616e2068696760448201526d686573742062696420707269636560901b60648201526084016106d8565b34826004018190555060006040518060400160405280336001600160a01b031681526020013481525090506000836008018054905090508360080182908060018154018082558091505060019003906000526020600020906002020160009091909190915060008201518160000160006101000a8154816001600160a01b0302191690836001600160a01b031602179055506020820151816001015550507f4abc22c09358a5b7cd7db032b2d845c1260a84300eb1893d499d399bf0393b588b33348760010160009054906101000a90046001600160a01b0316886002015486604051612ca1969594939291909586526001600160a01b039485166020870152604086019390935292166060840152608083019190915260a082015260c00190565b60405180910390a15050505050505050505050565b600360208190526000918252604090912080546001820154600283015493830180546001600160a01b0393841695939092169391612cf3906138f1565b80601f0160208091040260200160405190810160405280929190818152602001828054612d1f906138f1565b8015612d6c5780601f10612d4157610100808354040283529160200191612d6c565b820191906000526020600020905b815481529060010190602001808311612d4f57829003601f168201915b505050506004830154600584015460068501546007909501549394919390925060ff1688565b612d9a613500565b4781811015612de15760405162461bcd60e51b8152602060048201526013602482015272125b9cdd59999a58da595b9d08185b5bdd5b9d606a1b60448201526064016106d8565b604051339083156108fc029084906000818181858888f1935050505015801561124d573d6000803e3d6000fd5b600081815260036020818152604080842081516101208101835281546001600160a01b039081168252600183015416938101939093526002810154918301919091529182018054859493916060840191612e67906138f1565b80601f0160208091040260200160405190810160405280929190818152602001828054612e93906138f1565b8015612ee05780601f10612eb557610100808354040283529160200191612ee0565b820191906000526020600020905b815481529060010190602001808311612ec357829003601f168201915b505050505081526020016004820154815260200160058201548152602001600682015481526020016007820160009054906101000a900460ff1615151515815260200160088201805480602002602001604051908101604052809291908181526020016000905b82821015612f8f576000848152602090819020604080518082019091526002850290910180546001600160a01b03168252600190810154828401529083529092019101612f47565b50505091525050602081015160408083015190516331a9108f60e11b815260048101919091529192509033906001600160a01b03831690636352211e90602401602060405180830381865afa158015612fec573d6000803e3d6000fd5b505050506040513d601f19601f82011682018060405250810190613010919061392c565b6001600160a01b03161461305a5760405162461bcd60e51b815260206004820152601160248201527027b7363c9020bab1ba34b7b727bbb732b960791b60448201526064016106d8565b600084815260036020818152604080842081516101208101835281546001600160a01b0390811682526001830154169381019390935260028101549183019190915291820180548894939160608401916130b3906138f1565b80601f01602080910402602001604051908101604052809291908181526020018280546130df906138f1565b801561312c5780601f106131015761010080835404028352916020019161312c565b820191906000526020600020905b81548152906001019060200180831161310f57829003601f168201915b505050505081526020016004820154815260200160058201548152602001600682015481526020016007820160009054906101000a900460ff1615151515815260200160088201805480602002602001604051908101604052809291908181526020016000905b828210156131db576000848152602090819020604080518082019091526002850290910180546001600160a01b03168252600190810154828401529083529092019101613193565b505050508152505090508060e001516132065760405162461bcd60e51b81526004016106d890613949565b60008681526003602090815260409182902060078101805460ff1916905591518881527e8860f8ba09adfd502e18671146909e9be0e501144cba940d03e64f1af1050b9101611ad4565b613258613500565b6001600160a01b0381166132bd5760405162461bcd60e51b815260206004820152602660248201527f4f776e61626c653a206e6577206f776e657220697320746865207a65726f206160448201526564647265737360d01b60648201526084016106d8565b6114898161355a565b600081815260036020818152604080842081516101208101835281546001600160a01b03908116825260018301541693810193909352600281015491830191909152918201805460609493918386019161331f906138f1565b80601f016020809104026020016040519081016040528092919081815260200182805461334b906138f1565b80156133985780601f1061336d57610100808354040283529160200191613398565b820191906000526020600020905b81548152906001019060200180831161337b57829003601f168201915b505050505081526020016004820154815260200160058201548152602001600682015481526020016007820160009054906101000a900460ff1615151515815260200160088201805480602002602001604051908101604052809291908181526020016000905b82821015613447576000848152602090819020604080518082019091526002850290910180546001600160a01b031682526001908101548284015290835290920191016133ff565b5050505081525050905060606000805b836101000151518110156134f6576000846101000151828151811061347e5761347e6139a7565b60200260200101519050336001600160a01b031681600001516001600160a01b03161480156134b1575060008160200151115b156134e357808484815181106134c9576134c96139a7565b602002602001018190525082806134df90613b4a565b9350505b50806134ee81613b4a565b915050613457565b5090949350505050565b6000546001600160a01b031633146124de5760405162461bcd60e51b815260206004820181905260248201527f4f776e61626c653a2063616c6c6572206973206e6f7420746865206f776e657260448201526064016106d8565b600080546001600160a01b038381166001600160a01b0319831681178455604051919092169283917f8be0079c531659141344cd1fd0a4f28419497f9722a3daafe3b4186f6b6457e09190a35050565b8280546135b6906138f1565b90600052602060002090601f0160209004810192826135d8576000855561361e565b82601f106135f157805160ff191683800117855561361e565b8280016001018555821561361e579182015b8281111561361e578251825591602001919060010190613603565b5061362a92915061362e565b5090565b5b8082111561362a576000815560010161362f565b6000806040838503121561365657600080fd5b50508035926020909101359150565b6001600160a01b038116811461148957600080fd5b6000806040838503121561368d57600080fd5b823561369881613665565b946020939093013593505050565b6000806000606084860312156136bb57600080fd5b83356136c681613665565b92506020840135915060408401356136dd81613665565b809150509250925092565b6000806000606084860312156136fd57600080fd5b833561370881613665565b95602085013595506040909401359392505050565b634e487b7160e01b600052604160045260246000fd5b60006080828403121561374557600080fd5b6040516080810181811067ffffffffffffffff821117156137685761376861371d565b604052823561377681613665565b808252506020830135602082015260408301356040820152606083013560608201528091505092915050565b6000602082840312156137b457600080fd5b5035919050565b60005b838110156137d65781810151838201526020016137be565b838111156137e5576000848401525b50505050565b600081518084526138038160208601602086016137bb565b601f01601f19169290920160200192915050565b6001600160a01b03898116825288166020820152604081018790526101006060820181905260009061384b838201896137eb565b9150508560808301528460a08301528360c083015282151560e08301529998505050505050505050565b60006020828403121561388757600080fd5b813561389281613665565b9392505050565b602080825282518282018190526000919060409081850190868401855b828110156138e457815180516001600160a01b031685528601518685015292840192908501906001016138b6565b5091979650505050505050565b600181811c9082168061390557607f821691505b6020821081141561392657634e487b7160e01b600052602260045260246000fd5b50919050565b60006020828403121561393e57600080fd5b815161389281613665565b602080825260169082015275105d58dd1a5bdb88191bd95cc81b9bdd08195e1a5cdd60521b604082015260600190565b634e487b7160e01b600052601160045260246000fd5b600082198211156139a2576139a2613979565b500190565b634e487b7160e01b600052603260045260246000fd5b6000602082840312156139cf57600080fd5b8151801515811461389257600080fd5b6000602082840312156139f157600080fd5b5051919050565b6000816000190483118215151615613a1257613a12613979565b500290565b600082613a3457634e487b7160e01b600052601260045260246000fd5b500490565b600082821015613a4b57613a4b613979565b500390565b600060208284031215613a6257600080fd5b815167ffffffffffffffff80821115613a7a57600080fd5b818401915084601f830112613a8e57600080fd5b815181811115613aa057613aa061371d565b604051601f8201601f19908116603f01168101908382118183101715613ac857613ac861371d565b81604052828152876020848701011115613ae157600080fd5b613af28360208301602088016137bb565b979650505050505050565b6001600160a01b03878116825260208201879052851660408201526060810184905260c060808201819052600090613b37908301856137eb565b90508260a0830152979650505050505050565b6000600019821415613b5e57613b5e613979565b5060010190565b878152600060018060a01b03808916602084015287604084015260e06060840152613b9360e08401886137eb565b60808401969096529390931660a082015260c001525094935050505056fea2646970667358221220834eaa461b84b0d5d0a189a37bb7edf96bd9fea60e1584114f0fc1fb641c240b64736f6c634300080b0033",
  "immutableReferences": {},
  "source": "/**\n * Submitted for verification at BscScan.com on 2022-04-09\n */\n\n// File: contracts/Auction.sol\n// SPDX-License-Identifier: MIT\n\npragma solidity ^0.8.0;\n\nimport \"@openzeppelin/contracts/access/Ownable.sol\";\nimport \"@openzeppelin/contracts/token/ERC20/IERC20.sol\";\nimport \"./interfaces/IOERC721.sol\";\n\n// NichoNFT interface\ninterface INichoNFT {\n    function commissionFee() external view returns (uint256);\n    function denominator() external view returns (uint256);\n    function _feeAddress() external view returns (address payable);\n    function whitelist(address wallet) external view returns (bool);\n    function blackList(address tokenAddress, uint256 tokenId) external view returns (bool);\n}\n\ncontract NichoAuction is Ownable{\n    INichoNFT public NichoNFT;\n\n    struct Buyer {\n        address owner;\n        uint256 bidPrice;\n    }\n\n    // Auction Item\n    struct Item {\n        address creator; //address of creator\n        address tokenAddress; // token address\n        uint256 tokenId; // token id\n        string uri; //IPFS URL\n        uint256 highPrice;\n        uint256 deadline;\n        uint256 createdTs;\n        bool exists;\n        Buyer[] buyers;\n    }\n    // Param for auction creation\n    struct ItemParam {\n        address tokenAddress; \n        uint256 tokenId; \n        uint256 desiredMinPrice;\n        uint256 deadline;\n    }\n\n    // OfferItem\n    struct OfferItem {\n        address creator;\n        uint256 price;\n        uint256 expireTs;\n        uint256 createdAt;\n        bool isCancel;\n    }\n\n    // Auction ID counter\n    uint256 public auctionCounter = 0;\n    // Auction ID => Auction Item\n    mapping(uint256 => Item) public items;\n    // Token Address => TokenId => Auction ID\n    mapping(address => mapping(uint256 => uint256)) public tokenIdToAuctionId;\n\n    // Offer List\n    // Token address => Token id => creator => offer item\n    mapping(address => mapping(uint256 => mapping(address => OfferItem))) public offerItems;\n\n    modifier notBlackList(address tokenAddress, uint256 _tokenId) {\n        require(NichoNFT.blackList(tokenAddress, _tokenId) == false, \"TokenId is in blackList\");\n        _;\n    }\n\n    modifier tokenOwner(address tokenAddress, uint256 tokenId) {\n        IOERC721 token = IOERC721(tokenAddress);\n\n        require(msg.sender == token.ownerOf(tokenId), \"You are not a token owner\");\n        _;\n    }\n    \n    modifier auctionOwner(uint256 auctionId) {\n        Item memory item = items[auctionId];\n        IOERC721 token = IOERC721(item.tokenAddress);\n        require(token.ownerOf(item.tokenId) == msg.sender, \"Only AuctionOwner\");\n        _;\n    }\n\n    modifier onlyTokenOwner(address tokenAddress, uint256 tokenId) {\n        IOERC721 token = IOERC721(tokenAddress);\n        require(token.ownerOf(tokenId) == msg.sender, \"Only token owner\");\n        _;\n    }\n\n    modifier auctionNotExist(address tokenAddress, uint256 tokenId) {\n        uint256 auctionId = tokenIdToAuctionId[tokenAddress][tokenId];\n        Item memory item = items[auctionId];\n        require(item.exists != true, \"Auction Exists\");\n        _;\n    }\n\n    modifier auctionStarted(uint256 auctionId) {\n        Item memory item = items[auctionId];\n        require(block.timestamp > item.createdTs, \"Auction not started\");\n        _;\n    }\n\n    modifier auctionNotEnded(uint256 auctionId) {\n        Item memory item = items[auctionId];\n        require(block.timestamp <= item.deadline, \"Auction ended\");\n        _;\n    }\n\n    modifier auctionEnded(uint256 auctionId) {\n        Item memory item = items[auctionId];\n        require(block.timestamp > item.deadline, \"Auction not ended\");\n        _;\n    }\n\n    modifier auctionExist(uint256 auctionId) {\n        Item memory item = items[auctionId];\n        require(item.exists, \"Auction does not exist\");\n        _;\n    }\n\n    // Auction event\n    event AddItem(uint256 auctionId, address tokenAddress, uint256 tokenId, string uri, uint256 price, address creator, uint256 deadline);\n    event ItemCancel(uint256 auctionId);\n    event PlacedBid(uint256 auctionId, address bidder, uint256 bidPrice, address tokenAddress, uint256 tokenId, uint256 bidderId);\n    event SoldOut(uint256 auctionId, uint256 soldPrice, address seller, address winner);\n    event CancelBid(uint256 auctionId, uint256 bidderId, address bidCreator);\n\n    // Offer event\n    event OfferCreated(address tokenAddress, uint256 tokenId, address creator, uint256 offerPrice, string uri, uint256 deadline);\n    event OfferSoldOut(address tokenAddress, uint256 tokenId, address seller, address buyer, uint256 offerPrice);\n    event OfferCancel(address tokenAddress, uint256 tokenId, address creator);\n    \n    constructor(address _nichoNFT) {\n        NichoNFT = INichoNFT(_nichoNFT);\n    }\n\n    receive() external payable {}\n\n    function addAuctionItem(ItemParam memory itemParam) \n        tokenOwner(itemParam.tokenAddress, itemParam.tokenId)\n        auctionNotExist(itemParam.tokenAddress, itemParam.tokenId)\n        external {\n            uint256 itemDeadLine = itemParam.deadline;\n            uint256 itemPrice = itemParam.desiredMinPrice;\n\n            require(itemDeadLine > block.timestamp, \"Invalid deadline\");\n\n            IOERC721 tokenObject = IOERC721(itemParam.tokenAddress);\n            // require(tokenObject.getApproved(tokenId) == address(this), \"Token should be approved\");\n\n            string memory uri = tokenObject.tokenURI(itemParam.tokenId);\n\n            auctionCounter++;\n            uint256 auctionId = auctionCounter;\n            {\n                Item storage item = items[auctionId];\n                item.creator = msg.sender;\n                item.tokenAddress = itemParam.tokenAddress;\n                item.tokenId = itemParam.tokenId;\n                item.uri = uri;\n                item.highPrice = itemPrice;\n                item.deadline = itemDeadLine;\n                item.createdTs = block.timestamp;\n                item.exists = true;\n            }\n            \n            tokenIdToAuctionId[itemParam.tokenAddress][itemParam.tokenId] = auctionCounter;\n\n            emit AddItem(auctionId, itemParam.tokenAddress, itemParam.tokenId, uri, itemPrice, msg.sender, itemDeadLine);\n    }\n\n    function cancelAuctionItem(uint256 auctionId)\n        auctionOwner(auctionId)\n        auctionExist(auctionId)\n        external {\n            Item storage item = items[auctionId];\n            item.exists = false;\n            emit ItemCancel(auctionId);\n    }\n\n    function placeBid(uint256 auctionId)\n        auctionExist(auctionId)\n        auctionStarted(auctionId)\n        auctionNotEnded(auctionId)\n        external payable {\n            Item storage item = items[auctionId];\n            IOERC721 nftToken = IOERC721(item.tokenAddress);\n            require(nftToken.ownerOf(item.tokenId) != msg.sender, \"Creator not able to place bid\");\n            require(msg.value > item.highPrice, \"Price need to be higher than highest bid price\");\n\n            item.highPrice = msg.value;\n            Buyer memory buyer = Buyer(msg.sender, msg.value);\n\n            uint256 bidderId = item.buyers.length;\n\n            item.buyers.push(buyer);\n\n            emit PlacedBid(auctionId, msg.sender, msg.value, item.tokenAddress, item.tokenId, bidderId);\n        }\n\n    function acceptBid(uint256 auctionId, uint256 bidderId)\n        auctionOwner(auctionId)\n        auctionExist(auctionId)\n        auctionEnded(auctionId)\n        external {\n            Item storage item = items[auctionId];\n            require(item.buyers.length >= bidderId + 1, \"Bidder does not exist\");\n            item.exists = false;\n            Buyer storage buyer = item.buyers[bidderId];\n            \n            if (IOERC721(item.tokenAddress).getApproved(item.tokenId) == address(this)) {\n                IOERC721(item.tokenAddress).safeTransferFrom(msg.sender, buyer.owner, item.tokenId);\n\n                bool isInWhiteList = NichoNFT.whitelist(msg.sender) || NichoNFT.whitelist(buyer.owner);\n                // commission cut\n                uint _commissionValue = buyer.bidPrice * NichoNFT.commissionFee() / NichoNFT.denominator() / 100 ;\n                if (isInWhiteList) _commissionValue = 0;\n                uint _sellerValue = buyer.bidPrice - _commissionValue;\n                if (_commissionValue > 0) {\n                    NichoNFT._feeAddress().transfer(_commissionValue);\n                }\n\n                payable(msg.sender).transfer(_sellerValue);\n                emit SoldOut(auctionId, buyer.bidPrice, msg.sender, buyer.owner);\n                emit CancelBid(auctionId, bidderId, buyer.owner);\n\n                buyer.bidPrice = 0;\n            } else {\n                revert(\"Approve NFT\");\n            }\n        }\n\n    \n    function cancelBid(uint256 auctionId, uint256 bidderId)\n        auctionEnded(auctionId)\n        external {\n\n            Buyer storage buyer = items[auctionId].buyers[bidderId];\n            require(buyer.owner == msg.sender, \"You are not allowed\");\n            require(buyer.bidPrice > 0, \"You already withdrawed\");\n            uint256 withdrawAmount = buyer.bidPrice;\n            buyer.bidPrice = 0;\n            \n            payable(msg.sender).transfer(withdrawAmount);\n            emit CancelBid(auctionId, bidderId, msg.sender);\n        }\n\n    \n    function getBidsByBidder(uint256 auctionId)\n        external view returns(Buyer[] memory){\n            Item memory item = items[auctionId];\n\n            Buyer[] memory buyers;\n            uint256 index = 0;\n            for(uint256 i = 0; i < item.buyers.length; i++) {\n                Buyer memory buyer = item.buyers[i];\n                if (buyer.owner == msg.sender && buyer.bidPrice > 0) {\n                    buyers[index] = buyer;\n                    index++;\n                }\n            }\n\n            return buyers;\n        }\n\n    function isNFTListedToAuction(address tokenAddress, uint256 tokenId)\n        external view returns(bool) {\n            // IOERC721 token = IOERC721(tokenAddress);\n            uint256 auctionId = tokenIdToAuctionId[tokenAddress][tokenId];\n            Item memory item = items[auctionId];\n            return item.exists;\n        }\n\n    function createOffer(address tokenAddress, uint256 tokenId, uint256 deadline) \n        external payable {\n            require(msg.value > 0, \"Invalid amount\");\n            require(deadline >= block.timestamp, \"Invalid deadline\");\n            \n            OfferItem storage item = offerItems[tokenAddress][tokenId][msg.sender];\n            require(item.price == 0 || item.isCancel, \"You already created offer\");\n\n            item.creator = msg.sender;\n            item.price = msg.value;\n            item.expireTs = deadline;\n            item.isCancel = false;\n            item.createdAt = block.timestamp;\n\n            IOERC721 tokenObject = IOERC721(tokenAddress);\n            string memory uri = tokenObject.tokenURI(tokenId);\n\n            emit OfferCreated(tokenAddress, tokenId, msg.sender, msg.value, uri, deadline);\n        }\n\n    function acceptOffer(address tokenAddress, uint256 tokenId, address offerCreator) \n        onlyTokenOwner(tokenAddress, tokenId)\n        external {\n            OfferItem storage item = offerItems[tokenAddress][tokenId][offerCreator];\n            require(item.isCancel == false, \"Offer creator withdrawed\");\n            require(item.expireTs >= block.timestamp, \"Offer already expired\");\n            if (IOERC721(tokenAddress).getApproved(tokenId) == address(this)) {\n                IOERC721(tokenAddress).safeTransferFrom(msg.sender, item.creator, tokenId);\n\n                bool isInWhiteList = NichoNFT.whitelist(msg.sender) || NichoNFT.whitelist(IOERC721(tokenAddress).ownerOf(tokenId));\n                // commission cut\n                uint _commissionValue = item.price * NichoNFT.commissionFee() / NichoNFT.denominator() / 100 ;\n                if (isInWhiteList) _commissionValue = 0;\n                uint _sellerValue = item.price - _commissionValue;\n                if (_commissionValue > 0) {\n                    NichoNFT._feeAddress().transfer(_commissionValue);\n                }\n                payable(msg.sender).transfer(_sellerValue);\n                item.isCancel = true;\n            } else {\n                revert(\"Approve NFT\");\n            }\n\n            emit OfferSoldOut(tokenAddress, tokenId, msg.sender, item.creator, item.price);\n        }\n\n    function cancelOffer(address tokenAddress, uint256 tokenId)\n        external {\n            OfferItem storage item = offerItems[tokenAddress][tokenId][msg.sender];\n            require(item.isCancel == false, \"Already cancel\");\n            item.isCancel = true;\n\n            payable(msg.sender).transfer(item.price);\n            emit OfferCancel(tokenAddress, tokenId, msg.sender);\n        }\n\n    function withdrawETH(uint256 amount) external onlyOwner {\n        uint256 ethAmount = address(this).balance;\n        require(ethAmount >= amount, \"Insufficient amount\");\n        payable(msg.sender).transfer(amount);\n    }\n\n    // Withdraw ERC20 tokens\n    // For unusual case, if customers sent their any ERC20 tokens into marketplace, we need to send it back to them\n    function withdrawTokens(address _token, uint256 _amount) external onlyOwner {\n        require(IERC20(_token).balanceOf(address(this)) >= _amount, \"Wrong amount\");\n\n        IERC20(_token).transfer(msg.sender, _amount);\n    }\n    // For unusual case,\n    function withdrawBNB() external onlyOwner {\n        payable(msg.sender).transfer(address(this).balance);\n    }\n}\n",
  "sourcePath": "/Users/coredev0927/WorkSpace/Blockchain/Evm/NichoNFT/NichoNFT-marketplace-contract/contracts/NichoAuction.sol",
  "compiler": {
    "name": "solc",
    "version": "0.8.11+commit.d7f03943.Emscripten.clang"
  },
  "schemaVersion": "3.4.10",
  "updatedAt": "2022-09-28T19:30:05.507Z",
  "devdoc": {
    "kind": "dev",
    "methods": {
      "owner()": {
        "details": "Returns the address of the current owner."
      },
      "renounceOwnership()": {
        "details": "Leaves the contract without owner. It will not be possible to call `onlyOwner` functions anymore. Can only be called by the current owner. NOTE: Renouncing ownership will leave the contract without an owner, thereby removing any functionality that is only available to the owner."
      },
      "transferOwnership(address)": {
        "details": "Transfers ownership of the contract to a new account (`newOwner`). Can only be called by the current owner."
      }
    },
    "version": 1
  },
  "userdoc": {
    "kind": "user",
    "methods": {},
    "version": 1
  }
}