{
  "contractName": "NichoNFT",
  "abi": [
    {
      "inputs": [
        {
          "internalType": "contract INichoNFTMarketplace",
          "name": "_nichonftMarketplace",
          "type": "address"
        }
      ],
      "stateMutability": "nonpayable",
      "type": "constructor"
    },
    {
      "anonymous": false,
      "inputs": [
        {
          "indexed": true,
          "internalType": "address",
          "name": "owner",
          "type": "address"
        },
        {
          "indexed": true,
          "internalType": "address",
          "name": "approved",
          "type": "address"
        },
        {
          "indexed": true,
          "internalType": "uint256",
          "name": "tokenId",
          "type": "uint256"
        }
      ],
      "name": "Approval",
      "type": "event"
    },
    {
      "anonymous": false,
      "inputs": [
        {
          "indexed": true,
          "internalType": "address",
          "name": "owner",
          "type": "address"
        },
        {
          "indexed": true,
          "internalType": "address",
          "name": "operator",
          "type": "address"
        },
        {
          "indexed": false,
          "internalType": "bool",
          "name": "approved",
          "type": "bool"
        }
      ],
      "name": "ApprovalForAll",
      "type": "event"
    },
    {
      "anonymous": false,
      "inputs": [
        {
          "indexed": true,
          "internalType": "address",
          "name": "previousOwner",
          "type": "address"
        },
        {
          "indexed": true,
          "internalType": "address",
          "name": "newOwner",
          "type": "address"
        }
      ],
      "name": "OwnershipTransferred",
      "type": "event"
    },
    {
      "anonymous": false,
      "inputs": [
        {
          "indexed": true,
          "internalType": "address",
          "name": "from",
          "type": "address"
        },
        {
          "indexed": true,
          "internalType": "address",
          "name": "to",
          "type": "address"
        },
        {
          "indexed": true,
          "internalType": "uint256",
          "name": "tokenId",
          "type": "uint256"
        }
      ],
      "name": "Transfer",
      "type": "event"
    },
    {
      "inputs": [
        {
          "internalType": "address",
          "name": "to",
          "type": "address"
        },
        {
          "internalType": "uint256",
          "name": "tokenId",
          "type": "uint256"
        }
      ],
      "name": "approve",
      "outputs": [],
      "stateMutability": "nonpayable",
      "type": "function"
    },
    {
      "inputs": [
        {
          "internalType": "address",
          "name": "owner",
          "type": "address"
        }
      ],
      "name": "balanceOf",
      "outputs": [
        {
          "internalType": "uint256",
          "name": "",
          "type": "uint256"
        }
      ],
      "stateMutability": "view",
      "type": "function",
      "constant": true
    },
    {
      "inputs": [
        {
          "internalType": "uint256",
          "name": "tokenId",
          "type": "uint256"
        }
      ],
      "name": "getApproved",
      "outputs": [
        {
          "internalType": "address",
          "name": "",
          "type": "address"
        }
      ],
      "stateMutability": "view",
      "type": "function",
      "constant": true
    },
    {
      "inputs": [
        {
          "internalType": "address",
          "name": "owner",
          "type": "address"
        },
        {
          "internalType": "address",
          "name": "operator",
          "type": "address"
        }
      ],
      "name": "isApprovedForAll",
      "outputs": [
        {
          "internalType": "bool",
          "name": "",
          "type": "bool"
        }
      ],
      "stateMutability": "view",
      "type": "function",
      "constant": true
    },
    {
      "inputs": [],
      "name": "name",
      "outputs": [
        {
          "internalType": "string",
          "name": "",
          "type": "string"
        }
      ],
      "stateMutability": "view",
      "type": "function",
      "constant": true
    },
    {
      "inputs": [],
      "name": "nichonftMarketplaceContract",
      "outputs": [
        {
          "internalType": "contract INichoNFTMarketplace",
          "name": "",
          "type": "address"
        }
      ],
      "stateMutability": "view",
      "type": "function",
      "constant": true
    },
    {
      "inputs": [],
      "name": "owner",
      "outputs": [
        {
          "internalType": "address",
          "name": "",
          "type": "address"
        }
      ],
      "stateMutability": "view",
      "type": "function",
      "constant": true
    },
    {
      "inputs": [
        {
          "internalType": "uint256",
          "name": "tokenId",
          "type": "uint256"
        }
      ],
      "name": "ownerOf",
      "outputs": [
        {
          "internalType": "address",
          "name": "",
          "type": "address"
        }
      ],
      "stateMutability": "view",
      "type": "function",
      "constant": true
    },
    {
      "inputs": [],
      "name": "renounceOwnership",
      "outputs": [],
      "stateMutability": "nonpayable",
      "type": "function"
    },
    {
      "inputs": [
        {
          "internalType": "address",
          "name": "from",
          "type": "address"
        },
        {
          "internalType": "address",
          "name": "to",
          "type": "address"
        },
        {
          "internalType": "uint256",
          "name": "tokenId",
          "type": "uint256"
        }
      ],
      "name": "safeTransferFrom",
      "outputs": [],
      "stateMutability": "nonpayable",
      "type": "function"
    },
    {
      "inputs": [
        {
          "internalType": "address",
          "name": "from",
          "type": "address"
        },
        {
          "internalType": "address",
          "name": "to",
          "type": "address"
        },
        {
          "internalType": "uint256",
          "name": "tokenId",
          "type": "uint256"
        },
        {
          "internalType": "bytes",
          "name": "data",
          "type": "bytes"
        }
      ],
      "name": "safeTransferFrom",
      "outputs": [],
      "stateMutability": "nonpayable",
      "type": "function"
    },
    {
      "inputs": [
        {
          "internalType": "address",
          "name": "operator",
          "type": "address"
        },
        {
          "internalType": "bool",
          "name": "approved",
          "type": "bool"
        }
      ],
      "name": "setApprovalForAll",
      "outputs": [],
      "stateMutability": "nonpayable",
      "type": "function"
    },
    {
      "inputs": [
        {
          "internalType": "bytes4",
          "name": "interfaceId",
          "type": "bytes4"
        }
      ],
      "name": "supportsInterface",
      "outputs": [
        {
          "internalType": "bool",
          "name": "",
          "type": "bool"
        }
      ],
      "stateMutability": "view",
      "type": "function",
      "constant": true
    },
    {
      "inputs": [],
      "name": "symbol",
      "outputs": [
        {
          "internalType": "string",
          "name": "",
          "type": "string"
        }
      ],
      "stateMutability": "view",
      "type": "function",
      "constant": true
    },
    {
      "inputs": [
        {
          "internalType": "uint256",
          "name": "index",
          "type": "uint256"
        }
      ],
      "name": "tokenByIndex",
      "outputs": [
        {
          "internalType": "uint256",
          "name": "",
          "type": "uint256"
        }
      ],
      "stateMutability": "view",
      "type": "function",
      "constant": true
    },
    {
      "inputs": [
        {
          "internalType": "address",
          "name": "owner",
          "type": "address"
        },
        {
          "internalType": "uint256",
          "name": "index",
          "type": "uint256"
        }
      ],
      "name": "tokenOfOwnerByIndex",
      "outputs": [
        {
          "internalType": "uint256",
          "name": "",
          "type": "uint256"
        }
      ],
      "stateMutability": "view",
      "type": "function",
      "constant": true
    },
    {
      "inputs": [],
      "name": "totalSupply",
      "outputs": [
        {
          "internalType": "uint256",
          "name": "",
          "type": "uint256"
        }
      ],
      "stateMutability": "view",
      "type": "function",
      "constant": true
    },
    {
      "inputs": [
        {
          "internalType": "address",
          "name": "from",
          "type": "address"
        },
        {
          "internalType": "address",
          "name": "to",
          "type": "address"
        },
        {
          "internalType": "uint256",
          "name": "tokenId",
          "type": "uint256"
        }
      ],
      "name": "transferFrom",
      "outputs": [],
      "stateMutability": "nonpayable",
      "type": "function"
    },
    {
      "inputs": [
        {
          "internalType": "address",
          "name": "newOwner",
          "type": "address"
        }
      ],
      "name": "transferOwnership",
      "outputs": [],
      "stateMutability": "nonpayable",
      "type": "function"
    },
    {
      "inputs": [
        {
          "internalType": "string",
          "name": "_tokenURI",
          "type": "string"
        },
        {
          "internalType": "address",
          "name": "_toAddress",
          "type": "address"
        },
        {
          "internalType": "uint256",
          "name": "price",
          "type": "uint256"
        },
        {
          "internalType": "enum IHelper.PayType",
          "name": "_payType",
          "type": "uint8"
        }
      ],
      "name": "mint",
      "outputs": [
        {
          "internalType": "uint256",
          "name": "",
          "type": "uint256"
        }
      ],
      "stateMutability": "nonpayable",
      "type": "function"
    },
    {
      "inputs": [
        {
          "internalType": "string[]",
          "name": "_tokenURI",
          "type": "string[]"
        },
        {
          "internalType": "address",
          "name": "_toAddress",
          "type": "address"
        },
        {
          "internalType": "uint256",
          "name": "_price",
          "type": "uint256"
        },
        {
          "internalType": "uint256",
          "name": "_amount",
          "type": "uint256"
        },
        {
          "internalType": "enum IHelper.PayType",
          "name": "_payType",
          "type": "uint8"
        }
      ],
      "name": "batchDNMint",
      "outputs": [],
      "stateMutability": "nonpayable",
      "type": "function"
    },
    {
      "inputs": [
        {
          "internalType": "string",
          "name": "_tokenURI",
          "type": "string"
        },
        {
          "internalType": "address",
          "name": "_toAddress",
          "type": "address"
        },
        {
          "internalType": "uint256",
          "name": "_price",
          "type": "uint256"
        },
        {
          "internalType": "uint256",
          "name": "_amount",
          "type": "uint256"
        },
        {
          "internalType": "enum IHelper.PayType",
          "name": "_payType",
          "type": "uint8"
        }
      ],
      "name": "batchSNMint",
      "outputs": [],
      "stateMutability": "nonpayable",
      "type": "function"
    },
    {
      "inputs": [
        {
          "internalType": "string",
          "name": "_baseTokenURI",
          "type": "string"
        },
        {
          "internalType": "address",
          "name": "_toAddress",
          "type": "address"
        },
        {
          "internalType": "uint256",
          "name": "_price",
          "type": "uint256"
        },
        {
          "internalType": "uint256",
          "name": "_amount",
          "type": "uint256"
        },
        {
          "internalType": "enum IHelper.PayType",
          "name": "_payType",
          "type": "uint8"
        }
      ],
      "name": "batchIDMint",
      "outputs": [],
      "stateMutability": "nonpayable",
      "type": "function"
    },
    {
      "inputs": [
        {
          "internalType": "uint256",
          "name": "tokenId",
          "type": "uint256"
        }
      ],
      "name": "tokenURI",
      "outputs": [
        {
          "internalType": "string",
          "name": "",
          "type": "string"
        }
      ],
      "stateMutability": "view",
      "type": "function",
      "constant": true
    }
  ],
  "bytecode": "0x60806040523480156200001157600080fd5b50604051620022bf380380620022bf8339810160408190526200003491620001d6565b6040805180820182526008815267139a58da1bd3919560c21b6020808301918252835180850190945260058452644e4943484f60d81b908401528151919291620000819160009162000130565b5080516200009790600190602084019062000130565b505050620000b4620000ae620000da60201b60201c565b620000de565b600b80546001600160a01b0319166001600160a01b039290921691909117905562000245565b3390565b600a80546001600160a01b038381166001600160a01b0319831681179093556040519116919082907f8be0079c531659141344cd1fd0a4f28419497f9722a3daafe3b4186f6b6457e090600090a35050565b8280546200013e9062000208565b90600052602060002090601f016020900481019282620001625760008555620001ad565b82601f106200017d57805160ff1916838001178555620001ad565b82800160010185558215620001ad579182015b82811115620001ad57825182559160200191906001019062000190565b50620001bb929150620001bf565b5090565b5b80821115620001bb5760008155600101620001c0565b600060208284031215620001e957600080fd5b81516001600160a01b03811681146200020157600080fd5b9392505050565b600181811c908216806200021d57607f821691505b602082108114156200023f57634e487b7160e01b600052602260045260246000fd5b50919050565b61206a80620002556000396000f3fe608060405234801561001057600080fd5b50600436106101585760003560e01c806370a08231116100c3578063b88d4fde1161007c578063b88d4fde146102cb578063b8ca8ea2146102de578063c87b56dd146102f1578063e985e9c514610304578063f2fde38b14610340578063fd80f9d41461035357600080fd5b806370a0823114610271578063715018a614610284578063842236a41461028c5780638da5cb5b1461029f57806395d89b41146102b0578063a22cb465146102b857600080fd5b806318160ddd1161011557806318160ddd1461020057806323b872dd146102125780632f745c591461022557806342842e0e146102385780634f6ccce71461024b5780636352211e1461025e57600080fd5b806301ffc9a71461015d57806306fdde0314610185578063081812fc1461019a578063095ea7b3146101c55780630d875804146101da578063179f757a146101ed575b600080fd5b61017061016b3660046118db565b610366565b60405190151581526020015b60405180910390f35b61018d610391565b60405161017c9190611957565b6101ad6101a836600461196a565b610423565b6040516001600160a01b03909116815260200161017c565b6101d86101d336600461199f565b61044a565b005b6101d86101e8366004611a84565b610565565b6101d86101fb366004611a84565b6105b7565b6008545b60405190815260200161017c565b6101d8610220366004611af6565b610611565b61020461023336600461199f565b610642565b6101d8610246366004611af6565b6106d8565b61020461025936600461196a565b6106f3565b6101ad61026c36600461196a565b610786565b61020461027f366004611b32565b6107e6565b6101d861086c565b600b546101ad906001600160a01b031681565b600a546001600160a01b03166101ad565b61018d610880565b6101d86102c6366004611b4d565b61088f565b6101d86102d9366004611b89565b61089e565b6102046102ec366004611c05565b6108d6565b61018d6102ff36600461196a565b6109cb565b610170610312366004611c6d565b6001600160a01b03918216600090815260056020908152604080832093909416825291909152205460ff1690565b6101d861034e366004611b32565b610ae8565b6101d8610361366004611ca0565b610b61565b60006001600160e01b0319821663780e9d6360e01b148061038b575061038b82610c4e565b92915050565b6060600080546103a090611d47565b80601f01602080910402602001604051908101604052809291908181526020018280546103cc90611d47565b80156104195780601f106103ee57610100808354040283529160200191610419565b820191906000526020600020905b8154815290600101906020018083116103fc57829003601f168201915b5050505050905090565b600061042e82610c9e565b506000908152600460205260409020546001600160a01b031690565b600061045582610786565b9050806001600160a01b0316836001600160a01b031614156104c85760405162461bcd60e51b815260206004820152602160248201527f4552433732313a20617070726f76616c20746f2063757272656e74206f776e656044820152603960f91b60648201526084015b60405180910390fd5b336001600160a01b03821614806104e457506104e48133610312565b6105565760405162461bcd60e51b815260206004820152603e60248201527f4552433732313a20617070726f76652063616c6c6572206973206e6f7420746f60448201527f6b656e206f776e6572206e6f7220617070726f76656420666f7220616c6c000060648201526084016104bf565b6105608383610cfd565b505050565b600082116105855760405162461bcd60e51b81526004016104bf90611d82565b60005b828110156105af5761059c868686856108d6565b50806105a781611dbe565b915050610588565b505050505050565b600082116105d75760405162461bcd60e51b81526004016104bf90611d82565b60005b828110156105af5760006105ee8783610d6b565b90506105fc818787866108d6565b5050808061060990611dbe565b9150506105da565b61061b3382610de3565b6106375760405162461bcd60e51b81526004016104bf90611dd9565b610560838383610e61565b600061064d836107e6565b82106106af5760405162461bcd60e51b815260206004820152602b60248201527f455243373231456e756d657261626c653a206f776e657220696e646578206f7560448201526a74206f6620626f756e647360a81b60648201526084016104bf565b506001600160a01b03919091166000908152600660209081526040808320938352929052205490565b6105608383836040518060200160405280600081525061089e565b60006106fe60085490565b82106107615760405162461bcd60e51b815260206004820152602c60248201527f455243373231456e756d657261626c653a20676c6f62616c20696e646578206f60448201526b7574206f6620626f756e647360a01b60648201526084016104bf565b6008828154811061077457610774611e27565b90600052602060002001549050919050565b6000818152600260205260408120546001600160a01b03168061038b5760405162461bcd60e51b8152602060048201526018602482015277115490cdcc8c4e881a5b9d985b1a59081d1bdad95b88125160421b60448201526064016104bf565b60006001600160a01b0382166108505760405162461bcd60e51b815260206004820152602960248201527f4552433732313a2061646472657373207a65726f206973206e6f7420612076616044820152683634b21037bbb732b960b91b60648201526084016104bf565b506001600160a01b031660009081526003602052604090205490565b610874611008565b61087e6000611062565b565b6060600180546103a090611d47565b61089a3383836110b4565b5050565b6108a83383610de3565b6108c45760405162461bcd60e51b81526004016104bf90611dd9565b6108d084848484611183565b50505050565b60006001600160a01b0384166109205760405162461bcd60e51b815260206004820152600f60248201526e496e76616c6964206164647265737360881b60448201526064016104bf565b600061092b60085490565b905061093785826111b6565b61094181876111d0565b600b54610957906001600160a01b03168261044a565b600b54604051630360473360e41b81526001600160a01b039091169063360473309061098d903090859089908990600401611e3d565b600060405180830381600087803b1580156109a757600080fd5b505af11580156109bb573d6000803e3d6000fd5b509293505050505b949350505050565b6000818152600260205260409020546060906001600160a01b0316610a4a5760405162461bcd60e51b815260206004820152602f60248201527f4552433732314d657461646174613a2055524920717565727920666f72206e6f60448201526e3732bc34b9ba32b73a103a37b5b2b760891b60648201526084016104bf565b6000828152600c602052604090208054610a6390611d47565b80601f0160208091040260200160405190810160405280929190818152602001828054610a8f90611d47565b8015610adc5780601f10610ab157610100808354040283529160200191610adc565b820191906000526020600020905b815481529060010190602001808311610abf57829003601f168201915b50505050509050919050565b610af0611008565b6001600160a01b038116610b555760405162461bcd60e51b815260206004820152602660248201527f4f776e61626c653a206e6577206f776e657220697320746865207a65726f206160448201526564647265737360d01b60648201526084016104bf565b610b5e81611062565b50565b60008211610b815760405162461bcd60e51b81526004016104bf90611d82565b848214610bc15760405162461bcd60e51b815260206004820152600e60248201526d496e76616c696420706172616d7360901b60448201526064016104bf565b60005b82811015610c4557610c32878783818110610be157610be1611e27565b9050602002810190610bf39190611e88565b8080601f0160208091040260200160405190810160405280939291908181526020018383808284376000920191909152508992508891508690506108d6565b5080610c3d81611dbe565b915050610bc4565b50505050505050565b60006001600160e01b031982166380ac58cd60e01b1480610c7f57506001600160e01b03198216635b5e139f60e01b145b8061038b57506301ffc9a760e01b6001600160e01b031983161461038b565b6000818152600260205260409020546001600160a01b0316610b5e5760405162461bcd60e51b8152602060048201526018602482015277115490cdcc8c4e881a5b9d985b1a59081d1bdad95b88125160421b60448201526064016104bf565b600081815260046020526040902080546001600160a01b0319166001600160a01b0384169081179091558190610d3282610786565b6001600160a01b03167f8c5be1e5ebec7d5bd14f71427d1e84f3dd0314c0f7b2291e5b200ac8c7c3b92560405160405180910390a45050565b60606000835111610db15760405162461bcd60e51b815260206004820152601060248201526f496e76616c696420626173652055524960801b60448201526064016104bf565b82610dbb8361126a565b604051602001610dcc929190611ed6565b604051602081830303815290604052905092915050565b600080610def83610786565b9050806001600160a01b0316846001600160a01b03161480610e3657506001600160a01b0380821660009081526005602090815260408083209388168352929052205460ff165b806109c35750836001600160a01b0316610e4f84610423565b6001600160a01b031614949350505050565b826001600160a01b0316610e7482610786565b6001600160a01b031614610ed85760405162461bcd60e51b815260206004820152602560248201527f4552433732313a207472616e736665722066726f6d20696e636f72726563742060448201526437bbb732b960d91b60648201526084016104bf565b6001600160a01b038216610f3a5760405162461bcd60e51b8152602060048201526024808201527f4552433732313a207472616e7366657220746f20746865207a65726f206164646044820152637265737360e01b60648201526084016104bf565b610f45838383611368565b610f50600082610cfd565b6001600160a01b0383166000908152600360205260408120805460019290610f79908490611f05565b90915550506001600160a01b0382166000908152600360205260408120805460019290610fa7908490611f1c565b909155505060008181526002602052604080822080546001600160a01b0319166001600160a01b0386811691821790925591518493918716917fddf252ad1be2c89b69c2b068fc378daa952ba7f163c4a11628f55a4df523b3ef91a4505050565b600a546001600160a01b0316331461087e5760405162461bcd60e51b815260206004820181905260248201527f4f776e61626c653a2063616c6c6572206973206e6f7420746865206f776e657260448201526064016104bf565b600a80546001600160a01b038381166001600160a01b0319831681179093556040519116919082907f8be0079c531659141344cd1fd0a4f28419497f9722a3daafe3b4186f6b6457e090600090a35050565b816001600160a01b0316836001600160a01b031614156111165760405162461bcd60e51b815260206004820152601960248201527f4552433732313a20617070726f766520746f2063616c6c65720000000000000060448201526064016104bf565b6001600160a01b03838116600081815260056020908152604080832094871680845294825291829020805460ff191686151590811790915591519182527f17307eab39ab6107e8899845ad3d59bd9653f200f220920489ca2b5937696c31910160405180910390a3505050565b61118e848484610e61565b61119a84848484611420565b6108d05760405162461bcd60e51b81526004016104bf90611f34565b61089a82826040518060200160405280600081525061151b565b6000828152600260205260409020546001600160a01b031661124b5760405162461bcd60e51b815260206004820152602e60248201527f45524337323155524953746f726167653a2055524920736574206f66206e6f6e60448201526d32bc34b9ba32b73a103a37b5b2b760911b60648201526084016104bf565b6000828152600c6020908152604090912082516105609284019061182c565b60608161128e5750506040805180820190915260018152600360fc1b602082015290565b8160005b81156112b857806112a281611dbe565b91506112b19050600a83611f9c565b9150611292565b60008167ffffffffffffffff8111156112d3576112d36119c9565b6040519080825280601f01601f1916602001820160405280156112fd576020820181803683370190505b5090505b84156109c357611312600183611f05565b915061131f600a86611fb0565b61132a906030611f1c565b60f81b81838151811061133f5761133f611e27565b60200101906001600160f81b031916908160001a905350611361600a86611f9c565b9450611301565b6001600160a01b0383166113c3576113be81600880546000838152600960205260408120829055600182018355919091527ff3f7a9fe364faab93b216da50a3214154f22a0a2b415b23a84c8169e8b636ee30155565b6113e6565b816001600160a01b0316836001600160a01b0316146113e6576113e6838261154e565b6001600160a01b0382166113fd57610560816115eb565b826001600160a01b0316826001600160a01b03161461056057610560828261169a565b60006001600160a01b0384163b1561151357604051630a85bd0160e11b81526001600160a01b0385169063150b7a0290611464903390899088908890600401611fc4565b6020604051808303816000875af192505050801561149f575060408051601f3d908101601f1916820190925261149c91810190612001565b60015b6114f9573d8080156114cd576040519150601f19603f3d011682016040523d82523d6000602084013e6114d2565b606091505b5080516114f15760405162461bcd60e51b81526004016104bf90611f34565b805181602001fd5b6001600160e01b031916630a85bd0160e11b1490506109c3565b5060016109c3565b61152583836116de565b6115326000848484611420565b6105605760405162461bcd60e51b81526004016104bf90611f34565b6000600161155b846107e6565b6115659190611f05565b6000838152600760205260409020549091508082146115b8576001600160a01b03841660009081526006602090815260408083208584528252808320548484528184208190558352600790915290208190555b5060009182526007602090815260408084208490556001600160a01b039094168352600681528383209183525290812055565b6008546000906115fd90600190611f05565b6000838152600960205260408120546008805493945090928490811061162557611625611e27565b90600052602060002001549050806008838154811061164657611646611e27565b600091825260208083209091019290925582815260099091526040808220849055858252812055600880548061167e5761167e61201e565b6001900381819060005260206000200160009055905550505050565b60006116a5836107e6565b6001600160a01b039093166000908152600660209081526040808320868452825280832085905593825260079052919091209190915550565b6001600160a01b0382166117345760405162461bcd60e51b815260206004820181905260248201527f4552433732313a206d696e7420746f20746865207a65726f206164647265737360448201526064016104bf565b6000818152600260205260409020546001600160a01b0316156117995760405162461bcd60e51b815260206004820152601c60248201527f4552433732313a20746f6b656e20616c7265616479206d696e7465640000000060448201526064016104bf565b6117a560008383611368565b6001600160a01b03821660009081526003602052604081208054600192906117ce908490611f1c565b909155505060008181526002602052604080822080546001600160a01b0319166001600160a01b03861690811790915590518392907fddf252ad1be2c89b69c2b068fc378daa952ba7f163c4a11628f55a4df523b3ef908290a45050565b82805461183890611d47565b90600052602060002090601f01602090048101928261185a57600085556118a0565b82601f1061187357805160ff19168380011785556118a0565b828001600101855582156118a0579182015b828111156118a0578251825591602001919060010190611885565b506118ac9291506118b0565b5090565b5b808211156118ac57600081556001016118b1565b6001600160e01b031981168114610b5e57600080fd5b6000602082840312156118ed57600080fd5b81356118f8816118c5565b9392505050565b60005b8381101561191a578181015183820152602001611902565b838111156108d05750506000910152565b600081518084526119438160208601602086016118ff565b601f01601f19169290920160200192915050565b6020815260006118f8602083018461192b565b60006020828403121561197c57600080fd5b5035919050565b80356001600160a01b038116811461199a57600080fd5b919050565b600080604083850312156119b257600080fd5b6119bb83611983565b946020939093013593505050565b634e487b7160e01b600052604160045260246000fd5b600067ffffffffffffffff808411156119fa576119fa6119c9565b604051601f8501601f19908116603f01168101908282118183101715611a2257611a226119c9565b81604052809350858152868686011115611a3b57600080fd5b858560208301376000602087830101525050509392505050565b600082601f830112611a6657600080fd5b6118f8838335602085016119df565b80356003811061199a57600080fd5b600080600080600060a08688031215611a9c57600080fd5b853567ffffffffffffffff811115611ab357600080fd5b611abf88828901611a55565b955050611ace60208701611983565b93506040860135925060608601359150611aea60808701611a75565b90509295509295909350565b600080600060608486031215611b0b57600080fd5b611b1484611983565b9250611b2260208501611983565b9150604084013590509250925092565b600060208284031215611b4457600080fd5b6118f882611983565b60008060408385031215611b6057600080fd5b611b6983611983565b915060208301358015158114611b7e57600080fd5b809150509250929050565b60008060008060808587031215611b9f57600080fd5b611ba885611983565b9350611bb660208601611983565b925060408501359150606085013567ffffffffffffffff811115611bd957600080fd5b8501601f81018713611bea57600080fd5b611bf9878235602084016119df565b91505092959194509250565b60008060008060808587031215611c1b57600080fd5b843567ffffffffffffffff811115611c3257600080fd5b611c3e87828801611a55565b945050611c4d60208601611983565b925060408501359150611c6260608601611a75565b905092959194509250565b60008060408385031215611c8057600080fd5b611c8983611983565b9150611c9760208401611983565b90509250929050565b60008060008060008060a08789031215611cb957600080fd5b863567ffffffffffffffff80821115611cd157600080fd5b818901915089601f830112611ce557600080fd5b813581811115611cf457600080fd5b8a60208260051b8501011115611d0957600080fd5b602092830198509650611d1f9189019050611983565b93506040870135925060608701359150611d3b60808801611a75565b90509295509295509295565b600181811c90821680611d5b57607f821691505b60208210811415611d7c57634e487b7160e01b600052602260045260246000fd5b50919050565b6020808252600c908201526b1ddc9bdb99c8185b5bdd5b9d60a21b604082015260600190565b634e487b7160e01b600052601160045260246000fd5b6000600019821415611dd257611dd2611da8565b5060010190565b6020808252602e908201527f4552433732313a2063616c6c6572206973206e6f7420746f6b656e206f776e6560408201526d1c881b9bdc88185c1c1c9bdd995960921b606082015260800190565b634e487b7160e01b600052603260045260246000fd5b6001600160a01b038516815260208101849052604081018390526080810160038310611e7957634e487b7160e01b600052602160045260246000fd5b82606083015295945050505050565b6000808335601e19843603018112611e9f57600080fd5b83018035915067ffffffffffffffff821115611eba57600080fd5b602001915036819003821315611ecf57600080fd5b9250929050565b60008351611ee88184602088016118ff565b835190830190611efc8183602088016118ff565b01949350505050565b600082821015611f1757611f17611da8565b500390565b60008219821115611f2f57611f2f611da8565b500190565b60208082526032908201527f4552433732313a207472616e7366657220746f206e6f6e20455243373231526560408201527131b2b4bb32b91034b6b83632b6b2b73a32b960711b606082015260800190565b634e487b7160e01b600052601260045260246000fd5b600082611fab57611fab611f86565b500490565b600082611fbf57611fbf611f86565b500690565b6001600160a01b0385811682528416602082015260408101839052608060608201819052600090611ff79083018461192b565b9695505050505050565b60006020828403121561201357600080fd5b81516118f8816118c5565b634e487b7160e01b600052603160045260246000fdfea2646970667358221220cfa34c3c78549c2c362a119bb7e8be4d278e3a7cabcfc7056d0e13c161d7a24464736f6c634300080b0033",
  "immutableReferences": {},
  "source": "/**\n * Submitted for verification at BscScan.com on 2022-04-2\n */\n\n// File: contracts/NichoNFT.sol\n// SPDX-License-Identifier: MIT\n\npragma solidity >=0.6.0 <0.9.0;\n\nimport \"@openzeppelin/contracts/access/Ownable.sol\";\nimport \"@openzeppelin/contracts/token/ERC721/extensions/ERC721Enumerable.sol\";\nimport \"@openzeppelin/contracts/utils/Strings.sol\";\n\nimport \"./interfaces/INichoNFTMarketplace.sol\";\n\ncontract NichoNFT is ERC721Enumerable, IHelper, Ownable {\n    using Strings for uint256;\n\n    // Interface for Nicho NFT Marketplace Contract\n    INichoNFTMarketplace public nichonftMarketplaceContract;\n\n    // Optional mapping for token URIs\n    mapping(uint256 => string) private _tokenURIs;\n\n    constructor(INichoNFTMarketplace _nichonftMarketplace) ERC721(\"NichoNFT\", \"NICHO\") {\n        nichonftMarketplaceContract = _nichonftMarketplace;\n    }\n\n    // Create item\n    function mint(\n        string memory _tokenURI, \n        address _toAddress, \n        uint price, \n        PayType _payType\n    ) public returns (uint) {\n        require(_toAddress != address(0x0), \"Invalid address\");\n\n        uint _tokenId = totalSupply(); \n\n        _safeMint(_toAddress, _tokenId);\n        _setTokenURI(_tokenId, _tokenURI);\n\n        // approve NFT\n        approve(address(nichonftMarketplaceContract), _tokenId);\n\n        // List NFT directly\n        nichonftMarketplaceContract.listItemToMarket(\n            address(this),\n            _tokenId,\n            price,\n            _payType\n        );\n\n        return _tokenId;\n    }\n\n    /**\n     * @dev Batch creation same images and different names\n     * \n     * Requirement:\n     * \n     * - _amount: NFT amount to mint\n     */\n    function batchDNMint(\n        string[] calldata _tokenURI, \n        address _toAddress, \n        uint _price, \n        uint _amount,\n        PayType _payType\n    ) external {\n        require(_amount > 0, \"wrong amount\");\n        require(_tokenURI.length == _amount, \"Invalid params\");\n\n        for(uint idx = 0; idx < _amount; idx++) {\n            mint(_tokenURI[idx], _toAddress, _price, _payType);\n        }\n    }\n\n    /**\n     * @dev Batch option with same name and images\n     * \n     * Requirement:\n     * \n     * - _amount: NFT amount to mint\n     */\n    function batchSNMint(\n        string memory _tokenURI, \n        address _toAddress, \n        uint _price, \n        uint _amount,\n        PayType _payType\n    ) external {\n        require(_amount > 0, \"wrong amount\");\n\n        for(uint idx = 0; idx < _amount; idx++) {\n            mint(_tokenURI, _toAddress, _price, _payType);\n        }\n    }\n\n    /**\n     * @dev Batch option with different images and increased nftID\n     * \n     * Requirement:\n     * \n     * - _amount: NFT amount to mint\n     */\n    function batchIDMint(\n        string memory _baseTokenURI, \n        address _toAddress, \n        uint _price, \n        uint _amount,\n        PayType _payType\n    ) external {\n        require(_amount > 0, \"wrong amount\");\n\n        for(uint idx = 0; idx < _amount; idx++) {\n            string memory _tokenURI = getTokenURIWithID(_baseTokenURI, idx);\n            mint(_tokenURI, _toAddress, _price, _payType);\n        }\n    }\n\n    /// Get TokenURI for batchIDMint\n    function getTokenURIWithID(string memory _baseTokenURI, uint tokenId) private pure returns(string memory) {\n        require(bytes(_baseTokenURI).length > 0, \"Invalid base URI\");\n\n        return string(abi.encodePacked(_baseTokenURI, tokenId.toString()));\n    }\n\n    /**\n     * @dev Sets `_tokenURI` as the tokenURI of `tokenId`.\n     *\n     * Requirements:\n     *\n     * - `tokenId` must exist.\n     */\n    function _setTokenURI(uint256 tokenId, string memory _tokenURI) internal virtual {\n        require(_exists(tokenId), \"ERC721URIStorage: URI set of nonexistent token\");\n        _tokenURIs[tokenId] = _tokenURI;\n    }\n\n    function tokenURI(uint256 tokenId) public view  override returns (string memory) {\n        require(_exists(tokenId), \"ERC721Metadata: URI query for nonexistent token\");\n\n        return _tokenURIs[tokenId];\n    }\n}",
  "sourcePath": "/Users/coredev0927/WorkSpace/Blockchain/Evm/NichoNFT/NichoNFT-marketplace-contract/contracts/NichoNFT.sol",
  "compiler": {
    "name": "solc",
    "version": "0.8.11+commit.d7f03943.Emscripten.clang"
  },
  "schemaVersion": "3.4.10",
  "updatedAt": "2022-09-28T21:48:45.920Z",
  "networkType": "ethereum",
  "devdoc": {
    "kind": "dev",
    "methods": {
      "approve(address,uint256)": {
        "details": "See {IERC721-approve}."
      },
      "balanceOf(address)": {
        "details": "See {IERC721-balanceOf}."
      },
      "batchDNMint(string[],address,uint256,uint256,uint8)": {
        "details": "Batch creation same images and different names  Requirement:  - _amount: NFT amount to mint"
      },
      "batchIDMint(string,address,uint256,uint256,uint8)": {
        "details": "Batch option with different images and increased nftID  Requirement:  - _amount: NFT amount to mint"
      },
      "batchSNMint(string,address,uint256,uint256,uint8)": {
        "details": "Batch option with same name and images  Requirement:  - _amount: NFT amount to mint"
      },
      "getApproved(uint256)": {
        "details": "See {IERC721-getApproved}."
      },
      "isApprovedForAll(address,address)": {
        "details": "See {IERC721-isApprovedForAll}."
      },
      "name()": {
        "details": "See {IERC721Metadata-name}."
      },
      "owner()": {
        "details": "Returns the address of the current owner."
      },
      "ownerOf(uint256)": {
        "details": "See {IERC721-ownerOf}."
      },
      "renounceOwnership()": {
        "details": "Leaves the contract without owner. It will not be possible to call `onlyOwner` functions anymore. Can only be called by the current owner. NOTE: Renouncing ownership will leave the contract without an owner, thereby removing any functionality that is only available to the owner."
      },
      "safeTransferFrom(address,address,uint256)": {
        "details": "See {IERC721-safeTransferFrom}."
      },
      "safeTransferFrom(address,address,uint256,bytes)": {
        "details": "See {IERC721-safeTransferFrom}."
      },
      "setApprovalForAll(address,bool)": {
        "details": "See {IERC721-setApprovalForAll}."
      },
      "supportsInterface(bytes4)": {
        "details": "See {IERC165-supportsInterface}."
      },
      "symbol()": {
        "details": "See {IERC721Metadata-symbol}."
      },
      "tokenByIndex(uint256)": {
        "details": "See {IERC721Enumerable-tokenByIndex}."
      },
      "tokenOfOwnerByIndex(address,uint256)": {
        "details": "See {IERC721Enumerable-tokenOfOwnerByIndex}."
      },
      "tokenURI(uint256)": {
        "details": "See {IERC721Metadata-tokenURI}."
      },
      "totalSupply()": {
        "details": "See {IERC721Enumerable-totalSupply}."
      },
      "transferFrom(address,address,uint256)": {
        "details": "See {IERC721-transferFrom}."
      },
      "transferOwnership(address)": {
        "details": "Transfers ownership of the contract to a new account (`newOwner`). Can only be called by the current owner."
      }
    },
    "version": 1
  },
  "userdoc": {
    "kind": "user",
    "methods": {},
    "version": 1
  }
}